{
	"contracts/Strings/CompareString.sol": {
		"CompareString": {
			"abi": [
				{
					"inputs": [
						{
							"internalType": "string",
							"name": "s1",
							"type": "string"
						},
						{
							"internalType": "string",
							"name": "s2",
							"type": "string"
						}
					],
					"name": "Compare",
					"outputs": [
						{
							"internalType": "bool",
							"name": "",
							"type": "bool"
						}
					],
					"stateMutability": "pure",
					"type": "function"
				}
			],
			"devdoc": {
				"kind": "dev",
				"methods": {},
				"version": 1
			},
			"evm": {
				"assembly": "    /* \"contracts/Strings/CompareString.sol\":68:276  contract CompareString {... */\n  mstore(0x40, 0x80)\n  callvalue\n  dup1\n  iszero\n  tag_1\n  jumpi\n  revert(0x00, 0x00)\ntag_1:\n  pop\n  dataSize(sub_0)\n  dup1\n  dataOffset(sub_0)\n  0x00\n  codecopy\n  0x00\n  return\nstop\n\nsub_0: assembly {\n        /* \"contracts/Strings/CompareString.sol\":68:276  contract CompareString {... */\n      mstore(0x40, 0x80)\n      callvalue\n      dup1\n      iszero\n      tag_1\n      jumpi\n      revert(0x00, 0x00)\n    tag_1:\n      pop\n      jumpi(tag_2, lt(calldatasize, 0x04))\n      shr(0xe0, calldataload(0x00))\n      dup1\n      0x38bd426b\n      eq\n      tag_3\n      jumpi\n    tag_2:\n      revert(0x00, 0x00)\n        /* \"contracts/Strings/CompareString.sol\":98:273  function Compare(string calldata s1, string calldata s2) public pure returns (bool) {... */\n    tag_3:\n      tag_4\n      0x04\n      dup1\n      calldatasize\n      sub\n      dup2\n      add\n      swap1\n      tag_5\n      swap2\n      swap1\n      tag_6\n      jump\t// in\n    tag_5:\n      tag_7\n      jump\t// in\n    tag_4:\n      mload(0x40)\n      tag_8\n      swap2\n      swap1\n      tag_9\n      jump\t// in\n    tag_8:\n      mload(0x40)\n      dup1\n      swap2\n      sub\n      swap1\n      return\n    tag_7:\n        /* \"contracts/Strings/CompareString.sol\":176:180  bool */\n      0x00\n        /* \"contracts/Strings/CompareString.sol\":261:263  s2 */\n      dup3\n      dup3\n        /* \"contracts/Strings/CompareString.sol\":244:264  abi.encodePacked(s2) */\n      add(0x20, mload(0x40))\n      tag_11\n      swap3\n      swap2\n      swap1\n      tag_12\n      jump\t// in\n    tag_11:\n      mload(0x40)\n      0x20\n      dup2\n      dup4\n      sub\n      sub\n      dup2\n      mstore\n      swap1\n      0x40\n      mstore\n        /* \"contracts/Strings/CompareString.sol\":234:265  keccak256(abi.encodePacked(s2)) */\n      dup1\n      mload\n      swap1\n      0x20\n      add\n      keccak256\n        /* \"contracts/Strings/CompareString.sol\":226:228  s1 */\n      dup6\n      dup6\n        /* \"contracts/Strings/CompareString.sol\":209:229  abi.encodePacked(s1) */\n      add(0x20, mload(0x40))\n      tag_13\n      swap3\n      swap2\n      swap1\n      tag_12\n      jump\t// in\n    tag_13:\n      mload(0x40)\n      0x20\n      dup2\n      dup4\n      sub\n      sub\n      dup2\n      mstore\n      swap1\n      0x40\n      mstore\n        /* \"contracts/Strings/CompareString.sol\":199:230  keccak256(abi.encodePacked(s1)) */\n      dup1\n      mload\n      swap1\n      0x20\n      add\n      keccak256\n        /* \"contracts/Strings/CompareString.sol\":199:265  keccak256(abi.encodePacked(s1)) == keccak256(abi.encodePacked(s2)) */\n      eq\n        /* \"contracts/Strings/CompareString.sol\":192:265  return keccak256(abi.encodePacked(s1)) == keccak256(abi.encodePacked(s2)) */\n      swap1\n      pop\n        /* \"contracts/Strings/CompareString.sol\":98:273  function Compare(string calldata s1, string calldata s2) public pure returns (bool) {... */\n      swap5\n      swap4\n      pop\n      pop\n      pop\n      pop\n      jump\t// out\n        /* \"#utility.yul\":88:205   */\n    tag_15:\n        /* \"#utility.yul\":197:198   */\n      0x00\n        /* \"#utility.yul\":194:195   */\n      0x00\n        /* \"#utility.yul\":187:199   */\n      revert\n        /* \"#utility.yul\":211:328   */\n    tag_16:\n        /* \"#utility.yul\":320:321   */\n      0x00\n        /* \"#utility.yul\":317:318   */\n      0x00\n        /* \"#utility.yul\":310:322   */\n      revert\n        /* \"#utility.yul\":334:451   */\n    tag_17:\n        /* \"#utility.yul\":443:444   */\n      0x00\n        /* \"#utility.yul\":440:441   */\n      0x00\n        /* \"#utility.yul\":433:445   */\n      revert\n        /* \"#utility.yul\":457:574   */\n    tag_18:\n        /* \"#utility.yul\":566:567   */\n      0x00\n        /* \"#utility.yul\":563:564   */\n      0x00\n        /* \"#utility.yul\":556:568   */\n      revert\n        /* \"#utility.yul\":580:697   */\n    tag_19:\n        /* \"#utility.yul\":689:690   */\n      0x00\n        /* \"#utility.yul\":686:687   */\n      0x00\n        /* \"#utility.yul\":679:691   */\n      revert\n        /* \"#utility.yul\":717:1270   */\n    tag_20:\n        /* \"#utility.yul\":775:783   */\n      0x00\n        /* \"#utility.yul\":785:791   */\n      0x00\n        /* \"#utility.yul\":835:838   */\n      dup4\n        /* \"#utility.yul\":828:832   */\n      0x1f\n        /* \"#utility.yul\":820:826   */\n      dup5\n        /* \"#utility.yul\":816:833   */\n      add\n        /* \"#utility.yul\":812:839   */\n      slt\n        /* \"#utility.yul\":802:924   */\n      tag_34\n      jumpi\n        /* \"#utility.yul\":843:922   */\n      tag_35\n      tag_17\n      jump\t// in\n    tag_35:\n        /* \"#utility.yul\":802:924   */\n    tag_34:\n        /* \"#utility.yul\":956:962   */\n      dup3\n        /* \"#utility.yul\":943:963   */\n      calldataload\n        /* \"#utility.yul\":933:963   */\n      swap1\n      pop\n        /* \"#utility.yul\":986:1004   */\n      0xffffffffffffffff\n        /* \"#utility.yul\":978:984   */\n      dup2\n        /* \"#utility.yul\":975:1005   */\n      gt\n        /* \"#utility.yul\":972:1089   */\n      iszero\n      tag_36\n      jumpi\n        /* \"#utility.yul\":1008:1087   */\n      tag_37\n      tag_18\n      jump\t// in\n    tag_37:\n        /* \"#utility.yul\":972:1089   */\n    tag_36:\n        /* \"#utility.yul\":1122:1126   */\n      0x20\n        /* \"#utility.yul\":1114:1120   */\n      dup4\n        /* \"#utility.yul\":1110:1127   */\n      add\n        /* \"#utility.yul\":1098:1127   */\n      swap2\n      pop\n        /* \"#utility.yul\":1176:1179   */\n      dup4\n        /* \"#utility.yul\":1168:1172   */\n      0x01\n        /* \"#utility.yul\":1160:1166   */\n      dup3\n        /* \"#utility.yul\":1156:1173   */\n      mul\n        /* \"#utility.yul\":1146:1154   */\n      dup4\n        /* \"#utility.yul\":1142:1174   */\n      add\n        /* \"#utility.yul\":1139:1180   */\n      gt\n        /* \"#utility.yul\":1136:1264   */\n      iszero\n      tag_38\n      jumpi\n        /* \"#utility.yul\":1183:1262   */\n      tag_39\n      tag_19\n      jump\t// in\n    tag_39:\n        /* \"#utility.yul\":1136:1264   */\n    tag_38:\n        /* \"#utility.yul\":717:1270   */\n      swap3\n      pop\n      swap3\n      swap1\n      pop\n      jump\t// out\n        /* \"#utility.yul\":1276:2150   */\n    tag_6:\n        /* \"#utility.yul\":1368:1374   */\n      0x00\n        /* \"#utility.yul\":1376:1382   */\n      0x00\n        /* \"#utility.yul\":1384:1390   */\n      0x00\n        /* \"#utility.yul\":1392:1398   */\n      0x00\n        /* \"#utility.yul\":1441:1443   */\n      0x40\n        /* \"#utility.yul\":1429:1438   */\n      dup6\n        /* \"#utility.yul\":1420:1427   */\n      dup8\n        /* \"#utility.yul\":1416:1439   */\n      sub\n        /* \"#utility.yul\":1412:1444   */\n      slt\n        /* \"#utility.yul\":1409:1528   */\n      iszero\n      tag_41\n      jumpi\n        /* \"#utility.yul\":1447:1526   */\n      tag_42\n      tag_15\n      jump\t// in\n    tag_42:\n        /* \"#utility.yul\":1409:1528   */\n    tag_41:\n        /* \"#utility.yul\":1595:1596   */\n      0x00\n        /* \"#utility.yul\":1584:1593   */\n      dup6\n        /* \"#utility.yul\":1580:1597   */\n      add\n        /* \"#utility.yul\":1567:1598   */\n      calldataload\n        /* \"#utility.yul\":1625:1643   */\n      0xffffffffffffffff\n        /* \"#utility.yul\":1617:1623   */\n      dup2\n        /* \"#utility.yul\":1614:1644   */\n      gt\n        /* \"#utility.yul\":1611:1728   */\n      iszero\n      tag_43\n      jumpi\n        /* \"#utility.yul\":1647:1726   */\n      tag_44\n      tag_16\n      jump\t// in\n    tag_44:\n        /* \"#utility.yul\":1611:1728   */\n    tag_43:\n        /* \"#utility.yul\":1760:1825   */\n      tag_45\n        /* \"#utility.yul\":1817:1824   */\n      dup8\n        /* \"#utility.yul\":1808:1814   */\n      dup3\n        /* \"#utility.yul\":1797:1806   */\n      dup9\n        /* \"#utility.yul\":1793:1815   */\n      add\n        /* \"#utility.yul\":1760:1825   */\n      tag_20\n      jump\t// in\n    tag_45:\n        /* \"#utility.yul\":1742:1825   */\n      swap5\n      pop\n      swap5\n      pop\n        /* \"#utility.yul\":1538:1835   */\n      pop\n        /* \"#utility.yul\":1902:1904   */\n      0x20\n        /* \"#utility.yul\":1891:1900   */\n      dup6\n        /* \"#utility.yul\":1887:1905   */\n      add\n        /* \"#utility.yul\":1874:1906   */\n      calldataload\n        /* \"#utility.yul\":1933:1951   */\n      0xffffffffffffffff\n        /* \"#utility.yul\":1925:1931   */\n      dup2\n        /* \"#utility.yul\":1922:1952   */\n      gt\n        /* \"#utility.yul\":1919:2036   */\n      iszero\n      tag_46\n      jumpi\n        /* \"#utility.yul\":1955:2034   */\n      tag_47\n      tag_16\n      jump\t// in\n    tag_47:\n        /* \"#utility.yul\":1919:2036   */\n    tag_46:\n        /* \"#utility.yul\":2068:2133   */\n      tag_48\n        /* \"#utility.yul\":2125:2132   */\n      dup8\n        /* \"#utility.yul\":2116:2122   */\n      dup3\n        /* \"#utility.yul\":2105:2114   */\n      dup9\n        /* \"#utility.yul\":2101:2123   */\n      add\n        /* \"#utility.yul\":2068:2133   */\n      tag_20\n      jump\t// in\n    tag_48:\n        /* \"#utility.yul\":2050:2133   */\n      swap3\n      pop\n      swap3\n      pop\n        /* \"#utility.yul\":1845:2143   */\n      pop\n        /* \"#utility.yul\":1276:2150   */\n      swap3\n      swap6\n      swap2\n      swap5\n      pop\n      swap3\n      pop\n      jump\t// out\n        /* \"#utility.yul\":2156:2246   */\n    tag_21:\n        /* \"#utility.yul\":2190:2197   */\n      0x00\n        /* \"#utility.yul\":2233:2238   */\n      dup2\n        /* \"#utility.yul\":2226:2239   */\n      iszero\n        /* \"#utility.yul\":2219:2240   */\n      iszero\n        /* \"#utility.yul\":2208:2240   */\n      swap1\n      pop\n        /* \"#utility.yul\":2156:2246   */\n      swap2\n      swap1\n      pop\n      jump\t// out\n        /* \"#utility.yul\":2252:2361   */\n    tag_22:\n        /* \"#utility.yul\":2333:2354   */\n      tag_51\n        /* \"#utility.yul\":2348:2353   */\n      dup2\n        /* \"#utility.yul\":2333:2354   */\n      tag_21\n      jump\t// in\n    tag_51:\n        /* \"#utility.yul\":2328:2331   */\n      dup3\n        /* \"#utility.yul\":2321:2355   */\n      mstore\n        /* \"#utility.yul\":2252:2361   */\n      pop\n      pop\n      jump\t// out\n        /* \"#utility.yul\":2367:2577   */\n    tag_9:\n        /* \"#utility.yul\":2454:2458   */\n      0x00\n        /* \"#utility.yul\":2492:2494   */\n      0x20\n        /* \"#utility.yul\":2481:2490   */\n      dup3\n        /* \"#utility.yul\":2477:2495   */\n      add\n        /* \"#utility.yul\":2469:2495   */\n      swap1\n      pop\n        /* \"#utility.yul\":2505:2570   */\n      tag_53\n        /* \"#utility.yul\":2567:2568   */\n      0x00\n        /* \"#utility.yul\":2556:2565   */\n      dup4\n        /* \"#utility.yul\":2552:2569   */\n      add\n        /* \"#utility.yul\":2543:2549   */\n      dup5\n        /* \"#utility.yul\":2505:2570   */\n      tag_22\n      jump\t// in\n    tag_53:\n        /* \"#utility.yul\":2367:2577   */\n      swap3\n      swap2\n      pop\n      pop\n      jump\t// out\n        /* \"#utility.yul\":2583:2731   */\n    tag_23:\n        /* \"#utility.yul\":2685:2696   */\n      0x00\n        /* \"#utility.yul\":2722:2725   */\n      dup2\n        /* \"#utility.yul\":2707:2725   */\n      swap1\n      pop\n        /* \"#utility.yul\":2583:2731   */\n      swap3\n      swap2\n      pop\n      pop\n      jump\t// out\n        /* \"#utility.yul\":2737:2885   */\n    tag_24:\n        /* \"#utility.yul\":2835:2841   */\n      dup3\n        /* \"#utility.yul\":2830:2833   */\n      dup2\n        /* \"#utility.yul\":2825:2828   */\n      dup4\n        /* \"#utility.yul\":2812:2842   */\n      calldatacopy\n        /* \"#utility.yul\":2876:2877   */\n      0x00\n        /* \"#utility.yul\":2867:2873   */\n      dup4\n        /* \"#utility.yul\":2862:2865   */\n      dup4\n        /* \"#utility.yul\":2858:2874   */\n      add\n        /* \"#utility.yul\":2851:2878   */\n      mstore\n        /* \"#utility.yul\":2737:2885   */\n      pop\n      pop\n      pop\n      jump\t// out\n        /* \"#utility.yul\":2915:3245   */\n    tag_25:\n        /* \"#utility.yul\":3031:3034   */\n      0x00\n        /* \"#utility.yul\":3052:3141   */\n      tag_57\n        /* \"#utility.yul\":3134:3140   */\n      dup4\n        /* \"#utility.yul\":3129:3132   */\n      dup6\n        /* \"#utility.yul\":3052:3141   */\n      tag_23\n      jump\t// in\n    tag_57:\n        /* \"#utility.yul\":3045:3141   */\n      swap4\n      pop\n        /* \"#utility.yul\":3151:3207   */\n      tag_58\n        /* \"#utility.yul\":3200:3206   */\n      dup4\n        /* \"#utility.yul\":3195:3198   */\n      dup6\n        /* \"#utility.yul\":3188:3193   */\n      dup5\n        /* \"#utility.yul\":3151:3207   */\n      tag_24\n      jump\t// in\n    tag_58:\n        /* \"#utility.yul\":3232:3238   */\n      dup3\n        /* \"#utility.yul\":3227:3230   */\n      dup5\n        /* \"#utility.yul\":3223:3239   */\n      add\n        /* \"#utility.yul\":3216:3239   */\n      swap1\n      pop\n        /* \"#utility.yul\":2915:3245   */\n      swap4\n      swap3\n      pop\n      pop\n      pop\n      jump\t// out\n        /* \"#utility.yul\":3251:3546   */\n    tag_12:\n        /* \"#utility.yul\":3393:3396   */\n      0x00\n        /* \"#utility.yul\":3415:3520   */\n      tag_60\n        /* \"#utility.yul\":3516:3519   */\n      dup3\n        /* \"#utility.yul\":3507:3513   */\n      dup5\n        /* \"#utility.yul\":3499:3505   */\n      dup7\n        /* \"#utility.yul\":3415:3520   */\n      tag_25\n      jump\t// in\n    tag_60:\n        /* \"#utility.yul\":3408:3520   */\n      swap2\n      pop\n        /* \"#utility.yul\":3537:3540   */\n      dup2\n        /* \"#utility.yul\":3530:3540   */\n      swap1\n      pop\n        /* \"#utility.yul\":3251:3546   */\n      swap4\n      swap3\n      pop\n      pop\n      pop\n      jump\t// out\n\n    auxdata: 0xa26469706673582212202953a0bff2e9ca898897c25c13504c6381875d5dcab0bdd36f2742938968996f64736f6c634300081b0033\n}\n",
				"bytecode": {
					"linkReferences": {},
					"object": "6080604052348015600e575f5ffd5b5061025f8061001c5f395ff3fe608060405234801561000f575f5ffd5b5060043610610029575f3560e01c806338bd426b1461002d575b5f5ffd5b61004760048036038101906100429190610124565b61005d565b60405161005491906101bc565b60405180910390f35b5f8282604051602001610071929190610211565b60405160208183030381529060405280519060200120858560405160200161009a929190610211565b60405160208183030381529060405280519060200120149050949350505050565b5f5ffd5b5f5ffd5b5f5ffd5b5f5ffd5b5f5ffd5b5f5f83601f8401126100e4576100e36100c3565b5b8235905067ffffffffffffffff811115610101576101006100c7565b5b60208301915083600182028301111561011d5761011c6100cb565b5b9250929050565b5f5f5f5f6040858703121561013c5761013b6100bb565b5b5f85013567ffffffffffffffff811115610159576101586100bf565b5b610165878288016100cf565b9450945050602085013567ffffffffffffffff811115610188576101876100bf565b5b610194878288016100cf565b925092505092959194509250565b5f8115159050919050565b6101b6816101a2565b82525050565b5f6020820190506101cf5f8301846101ad565b92915050565b5f81905092915050565b828183375f83830152505050565b5f6101f883856101d5565b93506102058385846101df565b82840190509392505050565b5f61021d8284866101ed565b9150819050939250505056fea26469706673582212202953a0bff2e9ca898897c25c13504c6381875d5dcab0bdd36f2742938968996f64736f6c634300081b0033",
					"opcodes": "PUSH1 0x80 PUSH1 0x40 MSTORE CALLVALUE DUP1 ISZERO PUSH1 0xE JUMPI PUSH0 PUSH0 REVERT JUMPDEST POP PUSH2 0x25F DUP1 PUSH2 0x1C PUSH0 CODECOPY PUSH0 RETURN INVALID PUSH1 0x80 PUSH1 0x40 MSTORE CALLVALUE DUP1 ISZERO PUSH2 0xF JUMPI PUSH0 PUSH0 REVERT JUMPDEST POP PUSH1 0x4 CALLDATASIZE LT PUSH2 0x29 JUMPI PUSH0 CALLDATALOAD PUSH1 0xE0 SHR DUP1 PUSH4 0x38BD426B EQ PUSH2 0x2D JUMPI JUMPDEST PUSH0 PUSH0 REVERT JUMPDEST PUSH2 0x47 PUSH1 0x4 DUP1 CALLDATASIZE SUB DUP2 ADD SWAP1 PUSH2 0x42 SWAP2 SWAP1 PUSH2 0x124 JUMP JUMPDEST PUSH2 0x5D JUMP JUMPDEST PUSH1 0x40 MLOAD PUSH2 0x54 SWAP2 SWAP1 PUSH2 0x1BC JUMP JUMPDEST PUSH1 0x40 MLOAD DUP1 SWAP2 SUB SWAP1 RETURN JUMPDEST PUSH0 DUP3 DUP3 PUSH1 0x40 MLOAD PUSH1 0x20 ADD PUSH2 0x71 SWAP3 SWAP2 SWAP1 PUSH2 0x211 JUMP JUMPDEST PUSH1 0x40 MLOAD PUSH1 0x20 DUP2 DUP4 SUB SUB DUP2 MSTORE SWAP1 PUSH1 0x40 MSTORE DUP1 MLOAD SWAP1 PUSH1 0x20 ADD KECCAK256 DUP6 DUP6 PUSH1 0x40 MLOAD PUSH1 0x20 ADD PUSH2 0x9A SWAP3 SWAP2 SWAP1 PUSH2 0x211 JUMP JUMPDEST PUSH1 0x40 MLOAD PUSH1 0x20 DUP2 DUP4 SUB SUB DUP2 MSTORE SWAP1 PUSH1 0x40 MSTORE DUP1 MLOAD SWAP1 PUSH1 0x20 ADD KECCAK256 EQ SWAP1 POP SWAP5 SWAP4 POP POP POP POP JUMP JUMPDEST PUSH0 PUSH0 REVERT JUMPDEST PUSH0 PUSH0 REVERT JUMPDEST PUSH0 PUSH0 REVERT JUMPDEST PUSH0 PUSH0 REVERT JUMPDEST PUSH0 PUSH0 REVERT JUMPDEST PUSH0 PUSH0 DUP4 PUSH1 0x1F DUP5 ADD SLT PUSH2 0xE4 JUMPI PUSH2 0xE3 PUSH2 0xC3 JUMP JUMPDEST JUMPDEST DUP3 CALLDATALOAD SWAP1 POP PUSH8 0xFFFFFFFFFFFFFFFF DUP2 GT ISZERO PUSH2 0x101 JUMPI PUSH2 0x100 PUSH2 0xC7 JUMP JUMPDEST JUMPDEST PUSH1 0x20 DUP4 ADD SWAP2 POP DUP4 PUSH1 0x1 DUP3 MUL DUP4 ADD GT ISZERO PUSH2 0x11D JUMPI PUSH2 0x11C PUSH2 0xCB JUMP JUMPDEST JUMPDEST SWAP3 POP SWAP3 SWAP1 POP JUMP JUMPDEST PUSH0 PUSH0 PUSH0 PUSH0 PUSH1 0x40 DUP6 DUP8 SUB SLT ISZERO PUSH2 0x13C JUMPI PUSH2 0x13B PUSH2 0xBB JUMP JUMPDEST JUMPDEST PUSH0 DUP6 ADD CALLDATALOAD PUSH8 0xFFFFFFFFFFFFFFFF DUP2 GT ISZERO PUSH2 0x159 JUMPI PUSH2 0x158 PUSH2 0xBF JUMP JUMPDEST JUMPDEST PUSH2 0x165 DUP8 DUP3 DUP9 ADD PUSH2 0xCF JUMP JUMPDEST SWAP5 POP SWAP5 POP POP PUSH1 0x20 DUP6 ADD CALLDATALOAD PUSH8 0xFFFFFFFFFFFFFFFF DUP2 GT ISZERO PUSH2 0x188 JUMPI PUSH2 0x187 PUSH2 0xBF JUMP JUMPDEST JUMPDEST PUSH2 0x194 DUP8 DUP3 DUP9 ADD PUSH2 0xCF JUMP JUMPDEST SWAP3 POP SWAP3 POP POP SWAP3 SWAP6 SWAP2 SWAP5 POP SWAP3 POP JUMP JUMPDEST PUSH0 DUP2 ISZERO ISZERO SWAP1 POP SWAP2 SWAP1 POP JUMP JUMPDEST PUSH2 0x1B6 DUP2 PUSH2 0x1A2 JUMP JUMPDEST DUP3 MSTORE POP POP JUMP JUMPDEST PUSH0 PUSH1 0x20 DUP3 ADD SWAP1 POP PUSH2 0x1CF PUSH0 DUP4 ADD DUP5 PUSH2 0x1AD JUMP JUMPDEST SWAP3 SWAP2 POP POP JUMP JUMPDEST PUSH0 DUP2 SWAP1 POP SWAP3 SWAP2 POP POP JUMP JUMPDEST DUP3 DUP2 DUP4 CALLDATACOPY PUSH0 DUP4 DUP4 ADD MSTORE POP POP POP JUMP JUMPDEST PUSH0 PUSH2 0x1F8 DUP4 DUP6 PUSH2 0x1D5 JUMP JUMPDEST SWAP4 POP PUSH2 0x205 DUP4 DUP6 DUP5 PUSH2 0x1DF JUMP JUMPDEST DUP3 DUP5 ADD SWAP1 POP SWAP4 SWAP3 POP POP POP JUMP JUMPDEST PUSH0 PUSH2 0x21D DUP3 DUP5 DUP7 PUSH2 0x1ED JUMP JUMPDEST SWAP2 POP DUP2 SWAP1 POP SWAP4 SWAP3 POP POP POP JUMP INVALID LOG2 PUSH5 0x6970667358 0x22 SLT KECCAK256 0x29 MSTORE8 LOG0 0xBF CALLCODE 0xE9 0xCA DUP10 DUP9 SWAP8 0xC2 TLOAD SGT POP 0x4C PUSH4 0x81875D5D 0xCA 0xB0 0xBD 0xD3 PUSH16 0x2742938968996F64736F6C634300081B STOP CALLER "
				},
				"gasEstimates": {
					"creation": {
						"codeDepositCost": "121400",
						"executionCost": "163",
						"totalCost": "121563"
					},
					"external": {
						"Compare(string,string)": "infinite"
					}
				},
				"methodIdentifiers": {
					"Compare(string,string)": "38bd426b"
				}
			},
			"storageLayout": {
				"storage": [],
				"types": null
			},
			"userdoc": {
				"kind": "user",
				"methods": {},
				"version": 1
			}
		}
	}
}