{
	"contracts/Struct/Assignment.sol": {
		"Assignment": {
			"abi": [
				{
					"inputs": [
						{
							"internalType": "uint256",
							"name": "",
							"type": "uint256"
						}
					],
					"name": "Employee",
					"outputs": [
						{
							"internalType": "uint256",
							"name": "id",
							"type": "uint256"
						},
						{
							"internalType": "string",
							"name": "name",
							"type": "string"
						},
						{
							"internalType": "uint256",
							"name": "salary",
							"type": "uint256"
						}
					],
					"stateMutability": "view",
					"type": "function"
				},
				{
					"inputs": [
						{
							"internalType": "uint256",
							"name": "_id",
							"type": "uint256"
						},
						{
							"internalType": "string",
							"name": "_name",
							"type": "string"
						},
						{
							"internalType": "uint256",
							"name": "_salary",
							"type": "uint256"
						}
					],
					"name": "addEmployee",
					"outputs": [],
					"stateMutability": "nonpayable",
					"type": "function"
				},
				{
					"inputs": [
						{
							"internalType": "uint256",
							"name": "index",
							"type": "uint256"
						},
						{
							"internalType": "uint256",
							"name": "_id",
							"type": "uint256"
						}
					],
					"name": "getEmployee",
					"outputs": [
						{
							"internalType": "string",
							"name": "",
							"type": "string"
						},
						{
							"internalType": "uint256",
							"name": "",
							"type": "uint256"
						}
					],
					"stateMutability": "view",
					"type": "function"
				}
			],
			"devdoc": {
				"kind": "dev",
				"methods": {},
				"version": 1
			},
			"evm": {
				"assembly": "    /* \"contracts/Struct/Assignment.sol\":68:783  contract Assignment {... */\n  mstore(0x40, 0x80)\n  callvalue\n  dup1\n  iszero\n  tag_1\n  jumpi\n  0x00\n  dup1\n  revert\ntag_1:\n  pop\n  dataSize(sub_0)\n  dup1\n  dataOffset(sub_0)\n  0x00\n  codecopy\n  0x00\n  return\nstop\n\nsub_0: assembly {\n        /* \"contracts/Struct/Assignment.sol\":68:783  contract Assignment {... */\n      mstore(0x40, 0x80)\n      callvalue\n      dup1\n      iszero\n      tag_1\n      jumpi\n      0x00\n      dup1\n      revert\n    tag_1:\n      pop\n      jumpi(tag_2, lt(calldatasize, 0x04))\n      shr(0xe0, calldataload(0x00))\n      dup1\n      0x9459d5d7\n      eq\n      tag_3\n      jumpi\n      dup1\n      0xc5331de3\n      eq\n      tag_4\n      jumpi\n      dup1\n      0xe70e6d85\n      eq\n      tag_5\n      jumpi\n    tag_2:\n      0x00\n      dup1\n      revert\n        /* \"contracts/Struct/Assignment.sol\":244:525  function addEmployee( uint _id, string memory _name, uint _salary) public {... */\n    tag_3:\n      tag_6\n      0x04\n      dup1\n      calldatasize\n      sub\n      dup2\n      add\n      swap1\n      tag_7\n      swap2\n      swap1\n      tag_8\n      jump\t// in\n    tag_7:\n      tag_9\n      jump\t// in\n    tag_6:\n      stop\n        /* \"contracts/Struct/Assignment.sol\":533:780  function getEmployee(uint index,uint _id) public view  returns (string memory, uint) {... */\n    tag_4:\n      tag_10\n      0x04\n      dup1\n      calldatasize\n      sub\n      dup2\n      add\n      swap1\n      tag_11\n      swap2\n      swap1\n      tag_12\n      jump\t// in\n    tag_11:\n      tag_13\n      jump\t// in\n    tag_10:\n      mload(0x40)\n      tag_14\n      swap3\n      swap2\n      swap1\n      tag_15\n      jump\t// in\n    tag_14:\n      mload(0x40)\n      dup1\n      swap2\n      sub\n      swap1\n      return\n        /* \"contracts/Struct/Assignment.sol\":200:235  EmployeeRegistery[] public Employee */\n    tag_5:\n      tag_16\n      0x04\n      dup1\n      calldatasize\n      sub\n      dup2\n      add\n      swap1\n      tag_17\n      swap2\n      swap1\n      tag_18\n      jump\t// in\n    tag_17:\n      tag_19\n      jump\t// in\n    tag_16:\n      mload(0x40)\n      tag_20\n      swap4\n      swap3\n      swap2\n      swap1\n      tag_21\n      jump\t// in\n    tag_20:\n      mload(0x40)\n      dup1\n      swap2\n      sub\n      swap1\n      return\n        /* \"contracts/Struct/Assignment.sol\":244:525  function addEmployee( uint _id, string memory _name, uint _salary) public {... */\n    tag_9:\n        /* \"contracts/Struct/Assignment.sol\":464:472  Employee */\n      0x00\n        /* \"contracts/Struct/Assignment.sol\":478:514  EmployeeRegistery(_id,_name,_salary) */\n      mload(0x40)\n      dup1\n      0x60\n      add\n      0x40\n      mstore\n      dup1\n        /* \"contracts/Struct/Assignment.sol\":496:499  _id */\n      dup6\n        /* \"contracts/Struct/Assignment.sol\":478:514  EmployeeRegistery(_id,_name,_salary) */\n      dup2\n      mstore\n      0x20\n      add\n        /* \"contracts/Struct/Assignment.sol\":500:505  _name */\n      dup5\n        /* \"contracts/Struct/Assignment.sol\":478:514  EmployeeRegistery(_id,_name,_salary) */\n      dup2\n      mstore\n      0x20\n      add\n        /* \"contracts/Struct/Assignment.sol\":506:513  _salary */\n      dup4\n        /* \"contracts/Struct/Assignment.sol\":478:514  EmployeeRegistery(_id,_name,_salary) */\n      dup2\n      mstore\n      pop\n        /* \"contracts/Struct/Assignment.sol\":464:515  Employee.push(EmployeeRegistery(_id,_name,_salary)) */\n      swap1\n      dup1\n      0x01\n      dup2\n      sload\n      add\n      dup1\n      dup3\n      sstore\n      dup1\n      swap2\n      pop\n      pop\n      0x01\n      swap1\n      sub\n      swap1\n      0x00\n      mstore\n      keccak256(0x00, 0x20)\n      swap1\n      0x03\n      mul\n      add\n      0x00\n      swap1\n      swap2\n      swap1\n      swap2\n      swap1\n      swap2\n      pop\n      0x00\n      dup3\n      add\n      mload\n      dup2\n      0x00\n      add\n      sstore\n      0x20\n      dup3\n      add\n      mload\n      dup2\n      0x01\n      add\n      swap1\n      dup2\n      tag_24\n      swap2\n      swap1\n      tag_25\n      jump\t// in\n    tag_24:\n      pop\n      0x40\n      dup3\n      add\n      mload\n      dup2\n      0x02\n      add\n      sstore\n      pop\n      pop\n        /* \"contracts/Struct/Assignment.sol\":244:525  function addEmployee( uint _id, string memory _name, uint _salary) public {... */\n      pop\n      pop\n      pop\n      jump\t// out\n        /* \"contracts/Struct/Assignment.sol\":533:780  function getEmployee(uint index,uint _id) public view  returns (string memory, uint) {... */\n    tag_13:\n        /* \"contracts/Struct/Assignment.sol\":597:610  string memory */\n      0x60\n        /* \"contracts/Struct/Assignment.sol\":612:616  uint */\n      0x00\n        /* \"contracts/Struct/Assignment.sol\":654:657  _id */\n      dup3\n        /* \"contracts/Struct/Assignment.sol\":632:640  Employee */\n      0x00\n        /* \"contracts/Struct/Assignment.sol\":641:646  index */\n      dup6\n        /* \"contracts/Struct/Assignment.sol\":632:647  Employee[index] */\n      dup2\n      sload\n      dup2\n      lt\n      tag_27\n      jumpi\n      tag_28\n      tag_29\n      jump\t// in\n    tag_28:\n    tag_27:\n      swap1\n      0x00\n      mstore\n      keccak256(0x00, 0x20)\n      swap1\n      0x03\n      mul\n      add\n        /* \"contracts/Struct/Assignment.sol\":632:650  Employee[index].id */\n      0x00\n      add\n      sload\n        /* \"contracts/Struct/Assignment.sol\":632:657  Employee[index].id == _id */\n      sub\n        /* \"contracts/Struct/Assignment.sol\":629:738  if(Employee[index].id == _id){... */\n      tag_31\n      jumpi\n        /* \"contracts/Struct/Assignment.sol\":681:689  Employee */\n      0x00\n        /* \"contracts/Struct/Assignment.sol\":690:695  index */\n      dup5\n        /* \"contracts/Struct/Assignment.sol\":681:696  Employee[index] */\n      dup2\n      sload\n      dup2\n      lt\n      tag_32\n      jumpi\n      tag_33\n      tag_29\n      jump\t// in\n    tag_33:\n    tag_32:\n      swap1\n      0x00\n      mstore\n      keccak256(0x00, 0x20)\n      swap1\n      0x03\n      mul\n      add\n        /* \"contracts/Struct/Assignment.sol\":681:701  Employee[index].name */\n      0x01\n      add\n        /* \"contracts/Struct/Assignment.sol\":703:711  Employee */\n      0x00\n        /* \"contracts/Struct/Assignment.sol\":712:717  index */\n      dup6\n        /* \"contracts/Struct/Assignment.sol\":703:718  Employee[index] */\n      dup2\n      sload\n      dup2\n      lt\n      tag_35\n      jumpi\n      tag_36\n      tag_29\n      jump\t// in\n    tag_36:\n    tag_35:\n      swap1\n      0x00\n      mstore\n      keccak256(0x00, 0x20)\n      swap1\n      0x03\n      mul\n      add\n        /* \"contracts/Struct/Assignment.sol\":703:725  Employee[index].salary */\n      0x02\n      add\n      sload\n        /* \"contracts/Struct/Assignment.sol\":673:726  return (Employee[index].name, Employee[index].salary) */\n      dup2\n      dup1\n      sload\n      tag_38\n      swap1\n      tag_39\n      jump\t// in\n    tag_38:\n      dup1\n      0x1f\n      add\n      0x20\n      dup1\n      swap2\n      div\n      mul\n      0x20\n      add\n      mload(0x40)\n      swap1\n      dup2\n      add\n      0x40\n      mstore\n      dup1\n      swap3\n      swap2\n      swap1\n      dup2\n      dup2\n      mstore\n      0x20\n      add\n      dup3\n      dup1\n      sload\n      tag_40\n      swap1\n      tag_39\n      jump\t// in\n    tag_40:\n      dup1\n      iszero\n      tag_41\n      jumpi\n      dup1\n      0x1f\n      lt\n      tag_42\n      jumpi\n      0x0100\n      dup1\n      dup4\n      sload\n      div\n      mul\n      dup4\n      mstore\n      swap2\n      0x20\n      add\n      swap2\n      jump(tag_41)\n    tag_42:\n      dup3\n      add\n      swap2\n      swap1\n      0x00\n      mstore\n      keccak256(0x00, 0x20)\n      swap1\n    tag_43:\n      dup2\n      sload\n      dup2\n      mstore\n      swap1\n      0x01\n      add\n      swap1\n      0x20\n      add\n      dup1\n      dup4\n      gt\n      tag_43\n      jumpi\n      dup3\n      swap1\n      sub\n      0x1f\n      and\n      dup3\n      add\n      swap2\n    tag_41:\n      pop\n      pop\n      pop\n      pop\n      pop\n      swap2\n      pop\n      swap2\n      pop\n      swap2\n      pop\n      jump(tag_26)\n        /* \"contracts/Struct/Assignment.sol\":629:738  if(Employee[index].id == _id){... */\n    tag_31:\n        /* \"contracts/Struct/Assignment.sol\":761:762  0 */\n      0x00\n        /* \"contracts/Struct/Assignment.sol\":749:763  return (\"\", 0) */\n      mload(0x40)\n      dup1\n      0x20\n      add\n      0x40\n      mstore\n      dup1\n      0x00\n      dup2\n      mstore\n      pop\n      swap1\n      swap2\n      pop\n      swap2\n      pop\n        /* \"contracts/Struct/Assignment.sol\":533:780  function getEmployee(uint index,uint _id) public view  returns (string memory, uint) {... */\n    tag_26:\n      swap3\n      pop\n      swap3\n      swap1\n      pop\n      jump\t// out\n        /* \"contracts/Struct/Assignment.sol\":200:235  EmployeeRegistery[] public Employee */\n    tag_19:\n      0x00\n      dup2\n      dup2\n      sload\n      dup2\n      lt\n      tag_44\n      jumpi\n      0x00\n      dup1\n      revert\n    tag_44:\n      swap1\n      0x00\n      mstore\n      keccak256(0x00, 0x20)\n      swap1\n      0x03\n      mul\n      add\n      0x00\n      swap2\n      pop\n      swap1\n      pop\n      dup1\n      0x00\n      add\n      sload\n      swap1\n      dup1\n      0x01\n      add\n      dup1\n      sload\n      tag_46\n      swap1\n      tag_39\n      jump\t// in\n    tag_46:\n      dup1\n      0x1f\n      add\n      0x20\n      dup1\n      swap2\n      div\n      mul\n      0x20\n      add\n      mload(0x40)\n      swap1\n      dup2\n      add\n      0x40\n      mstore\n      dup1\n      swap3\n      swap2\n      swap1\n      dup2\n      dup2\n      mstore\n      0x20\n      add\n      dup3\n      dup1\n      sload\n      tag_47\n      swap1\n      tag_39\n      jump\t// in\n    tag_47:\n      dup1\n      iszero\n      tag_48\n      jumpi\n      dup1\n      0x1f\n      lt\n      tag_49\n      jumpi\n      0x0100\n      dup1\n      dup4\n      sload\n      div\n      mul\n      dup4\n      mstore\n      swap2\n      0x20\n      add\n      swap2\n      jump(tag_48)\n    tag_49:\n      dup3\n      add\n      swap2\n      swap1\n      0x00\n      mstore\n      keccak256(0x00, 0x20)\n      swap1\n    tag_50:\n      dup2\n      sload\n      dup2\n      mstore\n      swap1\n      0x01\n      add\n      swap1\n      0x20\n      add\n      dup1\n      dup4\n      gt\n      tag_50\n      jumpi\n      dup3\n      swap1\n      sub\n      0x1f\n      and\n      dup3\n      add\n      swap2\n    tag_48:\n      pop\n      pop\n      pop\n      pop\n      pop\n      swap1\n      dup1\n      0x02\n      add\n      sload\n      swap1\n      pop\n      dup4\n      jump\t// out\n        /* \"#utility.yul\":7:82   */\n    tag_51:\n        /* \"#utility.yul\":40:46   */\n      0x00\n        /* \"#utility.yul\":73:75   */\n      0x40\n        /* \"#utility.yul\":67:76   */\n      mload\n        /* \"#utility.yul\":57:76   */\n      swap1\n      pop\n        /* \"#utility.yul\":7:82   */\n      swap1\n      jump\t// out\n        /* \"#utility.yul\":88:205   */\n    tag_52:\n        /* \"#utility.yul\":197:198   */\n      0x00\n        /* \"#utility.yul\":194:195   */\n      dup1\n        /* \"#utility.yul\":187:199   */\n      revert\n        /* \"#utility.yul\":211:328   */\n    tag_53:\n        /* \"#utility.yul\":320:321   */\n      0x00\n        /* \"#utility.yul\":317:318   */\n      dup1\n        /* \"#utility.yul\":310:322   */\n      revert\n        /* \"#utility.yul\":334:411   */\n    tag_54:\n        /* \"#utility.yul\":371:378   */\n      0x00\n        /* \"#utility.yul\":400:405   */\n      dup2\n        /* \"#utility.yul\":389:405   */\n      swap1\n      pop\n        /* \"#utility.yul\":334:411   */\n      swap2\n      swap1\n      pop\n      jump\t// out\n        /* \"#utility.yul\":417:539   */\n    tag_55:\n        /* \"#utility.yul\":490:514   */\n      tag_94\n        /* \"#utility.yul\":508:513   */\n      dup2\n        /* \"#utility.yul\":490:514   */\n      tag_54\n      jump\t// in\n    tag_94:\n        /* \"#utility.yul\":483:488   */\n      dup2\n        /* \"#utility.yul\":480:515   */\n      eq\n        /* \"#utility.yul\":470:533   */\n      tag_95\n      jumpi\n        /* \"#utility.yul\":529:530   */\n      0x00\n        /* \"#utility.yul\":526:527   */\n      dup1\n        /* \"#utility.yul\":519:531   */\n      revert\n        /* \"#utility.yul\":470:533   */\n    tag_95:\n        /* \"#utility.yul\":417:539   */\n      pop\n      jump\t// out\n        /* \"#utility.yul\":545:684   */\n    tag_56:\n        /* \"#utility.yul\":591:596   */\n      0x00\n        /* \"#utility.yul\":629:635   */\n      dup2\n        /* \"#utility.yul\":616:636   */\n      calldataload\n        /* \"#utility.yul\":607:636   */\n      swap1\n      pop\n        /* \"#utility.yul\":645:678   */\n      tag_97\n        /* \"#utility.yul\":672:677   */\n      dup2\n        /* \"#utility.yul\":645:678   */\n      tag_55\n      jump\t// in\n    tag_97:\n        /* \"#utility.yul\":545:684   */\n      swap3\n      swap2\n      pop\n      pop\n      jump\t// out\n        /* \"#utility.yul\":690:807   */\n    tag_57:\n        /* \"#utility.yul\":799:800   */\n      0x00\n        /* \"#utility.yul\":796:797   */\n      dup1\n        /* \"#utility.yul\":789:801   */\n      revert\n        /* \"#utility.yul\":813:930   */\n    tag_58:\n        /* \"#utility.yul\":922:923   */\n      0x00\n        /* \"#utility.yul\":919:920   */\n      dup1\n        /* \"#utility.yul\":912:924   */\n      revert\n        /* \"#utility.yul\":936:1038   */\n    tag_59:\n        /* \"#utility.yul\":977:983   */\n      0x00\n        /* \"#utility.yul\":1028:1030   */\n      0x1f\n        /* \"#utility.yul\":1024:1031   */\n      not\n        /* \"#utility.yul\":1019:1021   */\n      0x1f\n        /* \"#utility.yul\":1012:1017   */\n      dup4\n        /* \"#utility.yul\":1008:1022   */\n      add\n        /* \"#utility.yul\":1004:1032   */\n      and\n        /* \"#utility.yul\":994:1032   */\n      swap1\n      pop\n        /* \"#utility.yul\":936:1038   */\n      swap2\n      swap1\n      pop\n      jump\t// out\n        /* \"#utility.yul\":1044:1224   */\n    tag_60:\n        /* \"#utility.yul\":1092:1169   */\n      0x4e487b7100000000000000000000000000000000000000000000000000000000\n        /* \"#utility.yul\":1089:1090   */\n      0x00\n        /* \"#utility.yul\":1082:1170   */\n      mstore\n        /* \"#utility.yul\":1189:1193   */\n      0x41\n        /* \"#utility.yul\":1186:1187   */\n      0x04\n        /* \"#utility.yul\":1179:1194   */\n      mstore\n        /* \"#utility.yul\":1213:1217   */\n      0x24\n        /* \"#utility.yul\":1210:1211   */\n      0x00\n        /* \"#utility.yul\":1203:1218   */\n      revert\n        /* \"#utility.yul\":1230:1511   */\n    tag_61:\n        /* \"#utility.yul\":1313:1340   */\n      tag_103\n        /* \"#utility.yul\":1335:1339   */\n      dup3\n        /* \"#utility.yul\":1313:1340   */\n      tag_59\n      jump\t// in\n    tag_103:\n        /* \"#utility.yul\":1305:1311   */\n      dup2\n        /* \"#utility.yul\":1301:1341   */\n      add\n        /* \"#utility.yul\":1443:1449   */\n      dup2\n        /* \"#utility.yul\":1431:1441   */\n      dup2\n        /* \"#utility.yul\":1428:1450   */\n      lt\n        /* \"#utility.yul\":1407:1425   */\n      0xffffffffffffffff\n        /* \"#utility.yul\":1395:1405   */\n      dup3\n        /* \"#utility.yul\":1392:1426   */\n      gt\n        /* \"#utility.yul\":1389:1451   */\n      or\n        /* \"#utility.yul\":1386:1474   */\n      iszero\n      tag_104\n      jumpi\n        /* \"#utility.yul\":1454:1472   */\n      tag_105\n      tag_60\n      jump\t// in\n    tag_105:\n        /* \"#utility.yul\":1386:1474   */\n    tag_104:\n        /* \"#utility.yul\":1494:1504   */\n      dup1\n        /* \"#utility.yul\":1490:1492   */\n      0x40\n        /* \"#utility.yul\":1483:1505   */\n      mstore\n        /* \"#utility.yul\":1273:1511   */\n      pop\n        /* \"#utility.yul\":1230:1511   */\n      pop\n      pop\n      jump\t// out\n        /* \"#utility.yul\":1517:1646   */\n    tag_62:\n        /* \"#utility.yul\":1551:1557   */\n      0x00\n        /* \"#utility.yul\":1578:1598   */\n      tag_107\n      tag_51\n      jump\t// in\n    tag_107:\n        /* \"#utility.yul\":1568:1598   */\n      swap1\n      pop\n        /* \"#utility.yul\":1607:1640   */\n      tag_108\n        /* \"#utility.yul\":1635:1639   */\n      dup3\n        /* \"#utility.yul\":1627:1633   */\n      dup3\n        /* \"#utility.yul\":1607:1640   */\n      tag_61\n      jump\t// in\n    tag_108:\n        /* \"#utility.yul\":1517:1646   */\n      swap2\n      swap1\n      pop\n      jump\t// out\n        /* \"#utility.yul\":1652:1960   */\n    tag_63:\n        /* \"#utility.yul\":1714:1718   */\n      0x00\n        /* \"#utility.yul\":1804:1822   */\n      0xffffffffffffffff\n        /* \"#utility.yul\":1796:1802   */\n      dup3\n        /* \"#utility.yul\":1793:1823   */\n      gt\n        /* \"#utility.yul\":1790:1846   */\n      iszero\n      tag_110\n      jumpi\n        /* \"#utility.yul\":1826:1844   */\n      tag_111\n      tag_60\n      jump\t// in\n    tag_111:\n        /* \"#utility.yul\":1790:1846   */\n    tag_110:\n        /* \"#utility.yul\":1864:1893   */\n      tag_112\n        /* \"#utility.yul\":1886:1892   */\n      dup3\n        /* \"#utility.yul\":1864:1893   */\n      tag_59\n      jump\t// in\n    tag_112:\n        /* \"#utility.yul\":1856:1893   */\n      swap1\n      pop\n        /* \"#utility.yul\":1948:1952   */\n      0x20\n        /* \"#utility.yul\":1942:1946   */\n      dup2\n        /* \"#utility.yul\":1938:1953   */\n      add\n        /* \"#utility.yul\":1930:1953   */\n      swap1\n      pop\n        /* \"#utility.yul\":1652:1960   */\n      swap2\n      swap1\n      pop\n      jump\t// out\n        /* \"#utility.yul\":1966:2114   */\n    tag_64:\n        /* \"#utility.yul\":2064:2070   */\n      dup3\n        /* \"#utility.yul\":2059:2062   */\n      dup2\n        /* \"#utility.yul\":2054:2057   */\n      dup4\n        /* \"#utility.yul\":2041:2071   */\n      calldatacopy\n        /* \"#utility.yul\":2105:2106   */\n      0x00\n        /* \"#utility.yul\":2096:2102   */\n      dup4\n        /* \"#utility.yul\":2091:2094   */\n      dup4\n        /* \"#utility.yul\":2087:2103   */\n      add\n        /* \"#utility.yul\":2080:2107   */\n      mstore\n        /* \"#utility.yul\":1966:2114   */\n      pop\n      pop\n      pop\n      jump\t// out\n        /* \"#utility.yul\":2120:2545   */\n    tag_65:\n        /* \"#utility.yul\":2198:2203   */\n      0x00\n        /* \"#utility.yul\":2223:2289   */\n      tag_115\n        /* \"#utility.yul\":2239:2288   */\n      tag_116\n        /* \"#utility.yul\":2281:2287   */\n      dup5\n        /* \"#utility.yul\":2239:2288   */\n      tag_63\n      jump\t// in\n    tag_116:\n        /* \"#utility.yul\":2223:2289   */\n      tag_62\n      jump\t// in\n    tag_115:\n        /* \"#utility.yul\":2214:2289   */\n      swap1\n      pop\n        /* \"#utility.yul\":2312:2318   */\n      dup3\n        /* \"#utility.yul\":2305:2310   */\n      dup2\n        /* \"#utility.yul\":2298:2319   */\n      mstore\n        /* \"#utility.yul\":2350:2354   */\n      0x20\n        /* \"#utility.yul\":2343:2348   */\n      dup2\n        /* \"#utility.yul\":2339:2355   */\n      add\n        /* \"#utility.yul\":2388:2391   */\n      dup5\n        /* \"#utility.yul\":2379:2385   */\n      dup5\n        /* \"#utility.yul\":2374:2377   */\n      dup5\n        /* \"#utility.yul\":2370:2386   */\n      add\n        /* \"#utility.yul\":2367:2392   */\n      gt\n        /* \"#utility.yul\":2364:2476   */\n      iszero\n      tag_117\n      jumpi\n        /* \"#utility.yul\":2395:2474   */\n      tag_118\n      tag_58\n      jump\t// in\n    tag_118:\n        /* \"#utility.yul\":2364:2476   */\n    tag_117:\n        /* \"#utility.yul\":2485:2539   */\n      tag_119\n        /* \"#utility.yul\":2532:2538   */\n      dup5\n        /* \"#utility.yul\":2527:2530   */\n      dup3\n        /* \"#utility.yul\":2522:2525   */\n      dup6\n        /* \"#utility.yul\":2485:2539   */\n      tag_64\n      jump\t// in\n    tag_119:\n        /* \"#utility.yul\":2204:2545   */\n      pop\n        /* \"#utility.yul\":2120:2545   */\n      swap4\n      swap3\n      pop\n      pop\n      pop\n      jump\t// out\n        /* \"#utility.yul\":2565:2905   */\n    tag_66:\n        /* \"#utility.yul\":2621:2626   */\n      0x00\n        /* \"#utility.yul\":2670:2673   */\n      dup3\n        /* \"#utility.yul\":2663:2667   */\n      0x1f\n        /* \"#utility.yul\":2655:2661   */\n      dup4\n        /* \"#utility.yul\":2651:2668   */\n      add\n        /* \"#utility.yul\":2647:2674   */\n      slt\n        /* \"#utility.yul\":2637:2759   */\n      tag_121\n      jumpi\n        /* \"#utility.yul\":2678:2757   */\n      tag_122\n      tag_57\n      jump\t// in\n    tag_122:\n        /* \"#utility.yul\":2637:2759   */\n    tag_121:\n        /* \"#utility.yul\":2795:2801   */\n      dup2\n        /* \"#utility.yul\":2782:2802   */\n      calldataload\n        /* \"#utility.yul\":2820:2899   */\n      tag_123\n        /* \"#utility.yul\":2895:2898   */\n      dup5\n        /* \"#utility.yul\":2887:2893   */\n      dup3\n        /* \"#utility.yul\":2880:2884   */\n      0x20\n        /* \"#utility.yul\":2872:2878   */\n      dup7\n        /* \"#utility.yul\":2868:2885   */\n      add\n        /* \"#utility.yul\":2820:2899   */\n      tag_65\n      jump\t// in\n    tag_123:\n        /* \"#utility.yul\":2811:2899   */\n      swap2\n      pop\n        /* \"#utility.yul\":2627:2905   */\n      pop\n        /* \"#utility.yul\":2565:2905   */\n      swap3\n      swap2\n      pop\n      pop\n      jump\t// out\n        /* \"#utility.yul\":2911:3710   */\n    tag_8:\n        /* \"#utility.yul\":2998:3004   */\n      0x00\n        /* \"#utility.yul\":3006:3012   */\n      dup1\n        /* \"#utility.yul\":3014:3020   */\n      0x00\n        /* \"#utility.yul\":3063:3065   */\n      0x60\n        /* \"#utility.yul\":3051:3060   */\n      dup5\n        /* \"#utility.yul\":3042:3049   */\n      dup7\n        /* \"#utility.yul\":3038:3061   */\n      sub\n        /* \"#utility.yul\":3034:3066   */\n      slt\n        /* \"#utility.yul\":3031:3150   */\n      iszero\n      tag_125\n      jumpi\n        /* \"#utility.yul\":3069:3148   */\n      tag_126\n      tag_52\n      jump\t// in\n    tag_126:\n        /* \"#utility.yul\":3031:3150   */\n    tag_125:\n        /* \"#utility.yul\":3189:3190   */\n      0x00\n        /* \"#utility.yul\":3214:3267   */\n      tag_127\n        /* \"#utility.yul\":3259:3266   */\n      dup7\n        /* \"#utility.yul\":3250:3256   */\n      dup3\n        /* \"#utility.yul\":3239:3248   */\n      dup8\n        /* \"#utility.yul\":3235:3257   */\n      add\n        /* \"#utility.yul\":3214:3267   */\n      tag_56\n      jump\t// in\n    tag_127:\n        /* \"#utility.yul\":3204:3267   */\n      swap4\n      pop\n        /* \"#utility.yul\":3160:3277   */\n      pop\n        /* \"#utility.yul\":3344:3346   */\n      0x20\n        /* \"#utility.yul\":3333:3342   */\n      dup5\n        /* \"#utility.yul\":3329:3347   */\n      add\n        /* \"#utility.yul\":3316:3348   */\n      calldataload\n        /* \"#utility.yul\":3375:3393   */\n      0xffffffffffffffff\n        /* \"#utility.yul\":3367:3373   */\n      dup2\n        /* \"#utility.yul\":3364:3394   */\n      gt\n        /* \"#utility.yul\":3361:3478   */\n      iszero\n      tag_128\n      jumpi\n        /* \"#utility.yul\":3397:3476   */\n      tag_129\n      tag_53\n      jump\t// in\n    tag_129:\n        /* \"#utility.yul\":3361:3478   */\n    tag_128:\n        /* \"#utility.yul\":3502:3565   */\n      tag_130\n        /* \"#utility.yul\":3557:3564   */\n      dup7\n        /* \"#utility.yul\":3548:3554   */\n      dup3\n        /* \"#utility.yul\":3537:3546   */\n      dup8\n        /* \"#utility.yul\":3533:3555   */\n      add\n        /* \"#utility.yul\":3502:3565   */\n      tag_66\n      jump\t// in\n    tag_130:\n        /* \"#utility.yul\":3492:3565   */\n      swap3\n      pop\n        /* \"#utility.yul\":3287:3575   */\n      pop\n        /* \"#utility.yul\":3614:3616   */\n      0x40\n        /* \"#utility.yul\":3640:3693   */\n      tag_131\n        /* \"#utility.yul\":3685:3692   */\n      dup7\n        /* \"#utility.yul\":3676:3682   */\n      dup3\n        /* \"#utility.yul\":3665:3674   */\n      dup8\n        /* \"#utility.yul\":3661:3683   */\n      add\n        /* \"#utility.yul\":3640:3693   */\n      tag_56\n      jump\t// in\n    tag_131:\n        /* \"#utility.yul\":3630:3693   */\n      swap2\n      pop\n        /* \"#utility.yul\":3585:3703   */\n      pop\n        /* \"#utility.yul\":2911:3710   */\n      swap3\n      pop\n      swap3\n      pop\n      swap3\n      jump\t// out\n        /* \"#utility.yul\":3716:4190   */\n    tag_12:\n        /* \"#utility.yul\":3784:3790   */\n      0x00\n        /* \"#utility.yul\":3792:3798   */\n      dup1\n        /* \"#utility.yul\":3841:3843   */\n      0x40\n        /* \"#utility.yul\":3829:3838   */\n      dup4\n        /* \"#utility.yul\":3820:3827   */\n      dup6\n        /* \"#utility.yul\":3816:3839   */\n      sub\n        /* \"#utility.yul\":3812:3844   */\n      slt\n        /* \"#utility.yul\":3809:3928   */\n      iszero\n      tag_133\n      jumpi\n        /* \"#utility.yul\":3847:3926   */\n      tag_134\n      tag_52\n      jump\t// in\n    tag_134:\n        /* \"#utility.yul\":3809:3928   */\n    tag_133:\n        /* \"#utility.yul\":3967:3968   */\n      0x00\n        /* \"#utility.yul\":3992:4045   */\n      tag_135\n        /* \"#utility.yul\":4037:4044   */\n      dup6\n        /* \"#utility.yul\":4028:4034   */\n      dup3\n        /* \"#utility.yul\":4017:4026   */\n      dup7\n        /* \"#utility.yul\":4013:4035   */\n      add\n        /* \"#utility.yul\":3992:4045   */\n      tag_56\n      jump\t// in\n    tag_135:\n        /* \"#utility.yul\":3982:4045   */\n      swap3\n      pop\n        /* \"#utility.yul\":3938:4055   */\n      pop\n        /* \"#utility.yul\":4094:4096   */\n      0x20\n        /* \"#utility.yul\":4120:4173   */\n      tag_136\n        /* \"#utility.yul\":4165:4172   */\n      dup6\n        /* \"#utility.yul\":4156:4162   */\n      dup3\n        /* \"#utility.yul\":4145:4154   */\n      dup7\n        /* \"#utility.yul\":4141:4163   */\n      add\n        /* \"#utility.yul\":4120:4173   */\n      tag_56\n      jump\t// in\n    tag_136:\n        /* \"#utility.yul\":4110:4173   */\n      swap2\n      pop\n        /* \"#utility.yul\":4065:4183   */\n      pop\n        /* \"#utility.yul\":3716:4190   */\n      swap3\n      pop\n      swap3\n      swap1\n      pop\n      jump\t// out\n        /* \"#utility.yul\":4196:4295   */\n    tag_67:\n        /* \"#utility.yul\":4248:4254   */\n      0x00\n        /* \"#utility.yul\":4282:4287   */\n      dup2\n        /* \"#utility.yul\":4276:4288   */\n      mload\n        /* \"#utility.yul\":4266:4288   */\n      swap1\n      pop\n        /* \"#utility.yul\":4196:4295   */\n      swap2\n      swap1\n      pop\n      jump\t// out\n        /* \"#utility.yul\":4301:4470   */\n    tag_68:\n        /* \"#utility.yul\":4385:4396   */\n      0x00\n        /* \"#utility.yul\":4419:4425   */\n      dup3\n        /* \"#utility.yul\":4414:4417   */\n      dup3\n        /* \"#utility.yul\":4407:4426   */\n      mstore\n        /* \"#utility.yul\":4459:4463   */\n      0x20\n        /* \"#utility.yul\":4454:4457   */\n      dup3\n        /* \"#utility.yul\":4450:4464   */\n      add\n        /* \"#utility.yul\":4435:4464   */\n      swap1\n      pop\n        /* \"#utility.yul\":4301:4470   */\n      swap3\n      swap2\n      pop\n      pop\n      jump\t// out\n        /* \"#utility.yul\":4476:4615   */\n    tag_69:\n        /* \"#utility.yul\":4565:4571   */\n      dup3\n        /* \"#utility.yul\":4560:4563   */\n      dup2\n        /* \"#utility.yul\":4555:4558   */\n      dup4\n        /* \"#utility.yul\":4549:4572   */\n      mcopy\n        /* \"#utility.yul\":4606:4607   */\n      0x00\n        /* \"#utility.yul\":4597:4603   */\n      dup4\n        /* \"#utility.yul\":4592:4595   */\n      dup4\n        /* \"#utility.yul\":4588:4604   */\n      add\n        /* \"#utility.yul\":4581:4608   */\n      mstore\n        /* \"#utility.yul\":4476:4615   */\n      pop\n      pop\n      pop\n      jump\t// out\n        /* \"#utility.yul\":4621:4998   */\n    tag_70:\n        /* \"#utility.yul\":4709:4712   */\n      0x00\n        /* \"#utility.yul\":4737:4776   */\n      tag_141\n        /* \"#utility.yul\":4770:4775   */\n      dup3\n        /* \"#utility.yul\":4737:4776   */\n      tag_67\n      jump\t// in\n    tag_141:\n        /* \"#utility.yul\":4792:4863   */\n      tag_142\n        /* \"#utility.yul\":4856:4862   */\n      dup2\n        /* \"#utility.yul\":4851:4854   */\n      dup6\n        /* \"#utility.yul\":4792:4863   */\n      tag_68\n      jump\t// in\n    tag_142:\n        /* \"#utility.yul\":4785:4863   */\n      swap4\n      pop\n        /* \"#utility.yul\":4872:4937   */\n      tag_143\n        /* \"#utility.yul\":4930:4936   */\n      dup2\n        /* \"#utility.yul\":4925:4928   */\n      dup6\n        /* \"#utility.yul\":4918:4922   */\n      0x20\n        /* \"#utility.yul\":4911:4916   */\n      dup7\n        /* \"#utility.yul\":4907:4923   */\n      add\n        /* \"#utility.yul\":4872:4937   */\n      tag_69\n      jump\t// in\n    tag_143:\n        /* \"#utility.yul\":4962:4991   */\n      tag_144\n        /* \"#utility.yul\":4984:4990   */\n      dup2\n        /* \"#utility.yul\":4962:4991   */\n      tag_59\n      jump\t// in\n    tag_144:\n        /* \"#utility.yul\":4957:4960   */\n      dup5\n        /* \"#utility.yul\":4953:4992   */\n      add\n        /* \"#utility.yul\":4946:4992   */\n      swap2\n      pop\n        /* \"#utility.yul\":4713:4998   */\n      pop\n        /* \"#utility.yul\":4621:4998   */\n      swap3\n      swap2\n      pop\n      pop\n      jump\t// out\n        /* \"#utility.yul\":5004:5122   */\n    tag_71:\n        /* \"#utility.yul\":5091:5115   */\n      tag_146\n        /* \"#utility.yul\":5109:5114   */\n      dup2\n        /* \"#utility.yul\":5091:5115   */\n      tag_54\n      jump\t// in\n    tag_146:\n        /* \"#utility.yul\":5086:5089   */\n      dup3\n        /* \"#utility.yul\":5079:5116   */\n      mstore\n        /* \"#utility.yul\":5004:5122   */\n      pop\n      pop\n      jump\t// out\n        /* \"#utility.yul\":5128:5551   */\n    tag_15:\n        /* \"#utility.yul\":5269:5273   */\n      0x00\n        /* \"#utility.yul\":5307:5309   */\n      0x40\n        /* \"#utility.yul\":5296:5305   */\n      dup3\n        /* \"#utility.yul\":5292:5310   */\n      add\n        /* \"#utility.yul\":5284:5310   */\n      swap1\n      pop\n        /* \"#utility.yul\":5356:5365   */\n      dup2\n        /* \"#utility.yul\":5350:5354   */\n      dup2\n        /* \"#utility.yul\":5346:5366   */\n      sub\n        /* \"#utility.yul\":5342:5343   */\n      0x00\n        /* \"#utility.yul\":5331:5340   */\n      dup4\n        /* \"#utility.yul\":5327:5344   */\n      add\n        /* \"#utility.yul\":5320:5367   */\n      mstore\n        /* \"#utility.yul\":5384:5462   */\n      tag_148\n        /* \"#utility.yul\":5457:5461   */\n      dup2\n        /* \"#utility.yul\":5448:5454   */\n      dup6\n        /* \"#utility.yul\":5384:5462   */\n      tag_70\n      jump\t// in\n    tag_148:\n        /* \"#utility.yul\":5376:5462   */\n      swap1\n      pop\n        /* \"#utility.yul\":5472:5544   */\n      tag_149\n        /* \"#utility.yul\":5540:5542   */\n      0x20\n        /* \"#utility.yul\":5529:5538   */\n      dup4\n        /* \"#utility.yul\":5525:5543   */\n      add\n        /* \"#utility.yul\":5516:5522   */\n      dup5\n        /* \"#utility.yul\":5472:5544   */\n      tag_71\n      jump\t// in\n    tag_149:\n        /* \"#utility.yul\":5128:5551   */\n      swap4\n      swap3\n      pop\n      pop\n      pop\n      jump\t// out\n        /* \"#utility.yul\":5557:5886   */\n    tag_18:\n        /* \"#utility.yul\":5616:5622   */\n      0x00\n        /* \"#utility.yul\":5665:5667   */\n      0x20\n        /* \"#utility.yul\":5653:5662   */\n      dup3\n        /* \"#utility.yul\":5644:5651   */\n      dup5\n        /* \"#utility.yul\":5640:5663   */\n      sub\n        /* \"#utility.yul\":5636:5668   */\n      slt\n        /* \"#utility.yul\":5633:5752   */\n      iszero\n      tag_151\n      jumpi\n        /* \"#utility.yul\":5671:5750   */\n      tag_152\n      tag_52\n      jump\t// in\n    tag_152:\n        /* \"#utility.yul\":5633:5752   */\n    tag_151:\n        /* \"#utility.yul\":5791:5792   */\n      0x00\n        /* \"#utility.yul\":5816:5869   */\n      tag_153\n        /* \"#utility.yul\":5861:5868   */\n      dup5\n        /* \"#utility.yul\":5852:5858   */\n      dup3\n        /* \"#utility.yul\":5841:5850   */\n      dup6\n        /* \"#utility.yul\":5837:5859   */\n      add\n        /* \"#utility.yul\":5816:5869   */\n      tag_56\n      jump\t// in\n    tag_153:\n        /* \"#utility.yul\":5806:5869   */\n      swap2\n      pop\n        /* \"#utility.yul\":5762:5879   */\n      pop\n        /* \"#utility.yul\":5557:5886   */\n      swap3\n      swap2\n      pop\n      pop\n      jump\t// out\n        /* \"#utility.yul\":5892:6425   */\n    tag_21:\n        /* \"#utility.yul\":6061:6065   */\n      0x00\n        /* \"#utility.yul\":6099:6101   */\n      0x60\n        /* \"#utility.yul\":6088:6097   */\n      dup3\n        /* \"#utility.yul\":6084:6102   */\n      add\n        /* \"#utility.yul\":6076:6102   */\n      swap1\n      pop\n        /* \"#utility.yul\":6112:6183   */\n      tag_155\n        /* \"#utility.yul\":6180:6181   */\n      0x00\n        /* \"#utility.yul\":6169:6178   */\n      dup4\n        /* \"#utility.yul\":6165:6182   */\n      add\n        /* \"#utility.yul\":6156:6162   */\n      dup7\n        /* \"#utility.yul\":6112:6183   */\n      tag_71\n      jump\t// in\n    tag_155:\n        /* \"#utility.yul\":6230:6239   */\n      dup2\n        /* \"#utility.yul\":6224:6228   */\n      dup2\n        /* \"#utility.yul\":6220:6240   */\n      sub\n        /* \"#utility.yul\":6215:6217   */\n      0x20\n        /* \"#utility.yul\":6204:6213   */\n      dup4\n        /* \"#utility.yul\":6200:6218   */\n      add\n        /* \"#utility.yul\":6193:6241   */\n      mstore\n        /* \"#utility.yul\":6258:6336   */\n      tag_156\n        /* \"#utility.yul\":6331:6335   */\n      dup2\n        /* \"#utility.yul\":6322:6328   */\n      dup6\n        /* \"#utility.yul\":6258:6336   */\n      tag_70\n      jump\t// in\n    tag_156:\n        /* \"#utility.yul\":6250:6336   */\n      swap1\n      pop\n        /* \"#utility.yul\":6346:6418   */\n      tag_157\n        /* \"#utility.yul\":6414:6416   */\n      0x40\n        /* \"#utility.yul\":6403:6412   */\n      dup4\n        /* \"#utility.yul\":6399:6417   */\n      add\n        /* \"#utility.yul\":6390:6396   */\n      dup5\n        /* \"#utility.yul\":6346:6418   */\n      tag_71\n      jump\t// in\n    tag_157:\n        /* \"#utility.yul\":5892:6425   */\n      swap5\n      swap4\n      pop\n      pop\n      pop\n      pop\n      jump\t// out\n        /* \"#utility.yul\":6431:6611   */\n    tag_72:\n        /* \"#utility.yul\":6479:6556   */\n      0x4e487b7100000000000000000000000000000000000000000000000000000000\n        /* \"#utility.yul\":6476:6477   */\n      0x00\n        /* \"#utility.yul\":6469:6557   */\n      mstore\n        /* \"#utility.yul\":6576:6580   */\n      0x22\n        /* \"#utility.yul\":6573:6574   */\n      0x04\n        /* \"#utility.yul\":6566:6581   */\n      mstore\n        /* \"#utility.yul\":6600:6604   */\n      0x24\n        /* \"#utility.yul\":6597:6598   */\n      0x00\n        /* \"#utility.yul\":6590:6605   */\n      revert\n        /* \"#utility.yul\":6617:6937   */\n    tag_39:\n        /* \"#utility.yul\":6661:6667   */\n      0x00\n        /* \"#utility.yul\":6698:6699   */\n      0x02\n        /* \"#utility.yul\":6692:6696   */\n      dup3\n        /* \"#utility.yul\":6688:6700   */\n      div\n        /* \"#utility.yul\":6678:6700   */\n      swap1\n      pop\n        /* \"#utility.yul\":6745:6746   */\n      0x01\n        /* \"#utility.yul\":6739:6743   */\n      dup3\n        /* \"#utility.yul\":6735:6747   */\n      and\n        /* \"#utility.yul\":6766:6784   */\n      dup1\n        /* \"#utility.yul\":6756:6837   */\n      tag_160\n      jumpi\n        /* \"#utility.yul\":6822:6826   */\n      0x7f\n        /* \"#utility.yul\":6814:6820   */\n      dup3\n        /* \"#utility.yul\":6810:6827   */\n      and\n        /* \"#utility.yul\":6800:6827   */\n      swap2\n      pop\n        /* \"#utility.yul\":6756:6837   */\n    tag_160:\n        /* \"#utility.yul\":6884:6886   */\n      0x20\n        /* \"#utility.yul\":6876:6882   */\n      dup3\n        /* \"#utility.yul\":6873:6887   */\n      lt\n        /* \"#utility.yul\":6853:6871   */\n      dup2\n        /* \"#utility.yul\":6850:6888   */\n      sub\n        /* \"#utility.yul\":6847:6931   */\n      tag_161\n      jumpi\n        /* \"#utility.yul\":6903:6921   */\n      tag_162\n      tag_72\n      jump\t// in\n    tag_162:\n        /* \"#utility.yul\":6847:6931   */\n    tag_161:\n        /* \"#utility.yul\":6668:6937   */\n      pop\n        /* \"#utility.yul\":6617:6937   */\n      swap2\n      swap1\n      pop\n      jump\t// out\n        /* \"#utility.yul\":6943:7084   */\n    tag_73:\n        /* \"#utility.yul\":6992:6996   */\n      0x00\n        /* \"#utility.yul\":7015:7018   */\n      dup2\n        /* \"#utility.yul\":7007:7018   */\n      swap1\n      pop\n        /* \"#utility.yul\":7038:7041   */\n      dup2\n        /* \"#utility.yul\":7035:7036   */\n      0x00\n        /* \"#utility.yul\":7028:7042   */\n      mstore\n        /* \"#utility.yul\":7072:7076   */\n      0x20\n        /* \"#utility.yul\":7069:7070   */\n      0x00\n        /* \"#utility.yul\":7059:7077   */\n      keccak256\n        /* \"#utility.yul\":7051:7077   */\n      swap1\n      pop\n        /* \"#utility.yul\":6943:7084   */\n      swap2\n      swap1\n      pop\n      jump\t// out\n        /* \"#utility.yul\":7090:7183   */\n    tag_74:\n        /* \"#utility.yul\":7127:7133   */\n      0x00\n        /* \"#utility.yul\":7174:7176   */\n      0x20\n        /* \"#utility.yul\":7169:7171   */\n      0x1f\n        /* \"#utility.yul\":7162:7167   */\n      dup4\n        /* \"#utility.yul\":7158:7172   */\n      add\n        /* \"#utility.yul\":7154:7177   */\n      div\n        /* \"#utility.yul\":7144:7177   */\n      swap1\n      pop\n        /* \"#utility.yul\":7090:7183   */\n      swap2\n      swap1\n      pop\n      jump\t// out\n        /* \"#utility.yul\":7189:7296   */\n    tag_75:\n        /* \"#utility.yul\":7233:7241   */\n      0x00\n        /* \"#utility.yul\":7283:7288   */\n      dup3\n        /* \"#utility.yul\":7277:7281   */\n      dup3\n        /* \"#utility.yul\":7273:7289   */\n      shl\n        /* \"#utility.yul\":7252:7289   */\n      swap1\n      pop\n        /* \"#utility.yul\":7189:7296   */\n      swap3\n      swap2\n      pop\n      pop\n      jump\t// out\n        /* \"#utility.yul\":7302:7695   */\n    tag_76:\n        /* \"#utility.yul\":7371:7377   */\n      0x00\n        /* \"#utility.yul\":7421:7422   */\n      0x08\n        /* \"#utility.yul\":7409:7419   */\n      dup4\n        /* \"#utility.yul\":7405:7423   */\n      mul\n        /* \"#utility.yul\":7444:7541   */\n      tag_167\n        /* \"#utility.yul\":7474:7540   */\n      0xffffffffffffffffffffffffffffffffffffffffffffffffffffffffffffffff\n        /* \"#utility.yul\":7463:7472   */\n      dup3\n        /* \"#utility.yul\":7444:7541   */\n      tag_75\n      jump\t// in\n    tag_167:\n        /* \"#utility.yul\":7562:7601   */\n      tag_168\n        /* \"#utility.yul\":7592:7600   */\n      dup7\n        /* \"#utility.yul\":7581:7590   */\n      dup4\n        /* \"#utility.yul\":7562:7601   */\n      tag_75\n      jump\t// in\n    tag_168:\n        /* \"#utility.yul\":7550:7601   */\n      swap6\n      pop\n        /* \"#utility.yul\":7634:7638   */\n      dup1\n        /* \"#utility.yul\":7630:7639   */\n      not\n        /* \"#utility.yul\":7623:7628   */\n      dup5\n        /* \"#utility.yul\":7619:7640   */\n      and\n        /* \"#utility.yul\":7610:7640   */\n      swap4\n      pop\n        /* \"#utility.yul\":7683:7687   */\n      dup1\n        /* \"#utility.yul\":7673:7681   */\n      dup7\n        /* \"#utility.yul\":7669:7688   */\n      and\n        /* \"#utility.yul\":7662:7667   */\n      dup5\n        /* \"#utility.yul\":7659:7689   */\n      or\n        /* \"#utility.yul\":7649:7689   */\n      swap3\n      pop\n        /* \"#utility.yul\":7378:7695   */\n      pop\n      pop\n        /* \"#utility.yul\":7302:7695   */\n      swap4\n      swap3\n      pop\n      pop\n      pop\n      jump\t// out\n        /* \"#utility.yul\":7701:7761   */\n    tag_77:\n        /* \"#utility.yul\":7729:7732   */\n      0x00\n        /* \"#utility.yul\":7750:7755   */\n      dup2\n        /* \"#utility.yul\":7743:7755   */\n      swap1\n      pop\n        /* \"#utility.yul\":7701:7761   */\n      swap2\n      swap1\n      pop\n      jump\t// out\n        /* \"#utility.yul\":7767:7909   */\n    tag_78:\n        /* \"#utility.yul\":7817:7826   */\n      0x00\n        /* \"#utility.yul\":7850:7903   */\n      tag_171\n        /* \"#utility.yul\":7868:7902   */\n      tag_172\n        /* \"#utility.yul\":7877:7901   */\n      tag_173\n        /* \"#utility.yul\":7895:7900   */\n      dup5\n        /* \"#utility.yul\":7877:7901   */\n      tag_54\n      jump\t// in\n    tag_173:\n        /* \"#utility.yul\":7868:7902   */\n      tag_77\n      jump\t// in\n    tag_172:\n        /* \"#utility.yul\":7850:7903   */\n      tag_54\n      jump\t// in\n    tag_171:\n        /* \"#utility.yul\":7837:7903   */\n      swap1\n      pop\n        /* \"#utility.yul\":7767:7909   */\n      swap2\n      swap1\n      pop\n      jump\t// out\n        /* \"#utility.yul\":7915:7990   */\n    tag_79:\n        /* \"#utility.yul\":7958:7961   */\n      0x00\n        /* \"#utility.yul\":7979:7984   */\n      dup2\n        /* \"#utility.yul\":7972:7984   */\n      swap1\n      pop\n        /* \"#utility.yul\":7915:7990   */\n      swap2\n      swap1\n      pop\n      jump\t// out\n        /* \"#utility.yul\":7996:8265   */\n    tag_80:\n        /* \"#utility.yul\":8106:8145   */\n      tag_176\n        /* \"#utility.yul\":8137:8144   */\n      dup4\n        /* \"#utility.yul\":8106:8145   */\n      tag_78\n      jump\t// in\n    tag_176:\n        /* \"#utility.yul\":8167:8258   */\n      tag_177\n        /* \"#utility.yul\":8216:8257   */\n      tag_178\n        /* \"#utility.yul\":8240:8256   */\n      dup3\n        /* \"#utility.yul\":8216:8257   */\n      tag_79\n      jump\t// in\n    tag_178:\n        /* \"#utility.yul\":8208:8214   */\n      dup5\n        /* \"#utility.yul\":8201:8205   */\n      dup5\n        /* \"#utility.yul\":8195:8206   */\n      sload\n        /* \"#utility.yul\":8167:8258   */\n      tag_76\n      jump\t// in\n    tag_177:\n        /* \"#utility.yul\":8161:8165   */\n      dup3\n        /* \"#utility.yul\":8154:8259   */\n      sstore\n        /* \"#utility.yul\":8072:8265   */\n      pop\n        /* \"#utility.yul\":7996:8265   */\n      pop\n      pop\n      pop\n      jump\t// out\n        /* \"#utility.yul\":8271:8344   */\n    tag_81:\n        /* \"#utility.yul\":8316:8319   */\n      0x00\n        /* \"#utility.yul\":8271:8344   */\n      swap1\n      jump\t// out\n        /* \"#utility.yul\":8350:8539   */\n    tag_82:\n        /* \"#utility.yul\":8427:8459   */\n      tag_181\n      tag_81\n      jump\t// in\n    tag_181:\n        /* \"#utility.yul\":8468:8533   */\n      tag_182\n        /* \"#utility.yul\":8526:8532   */\n      dup2\n        /* \"#utility.yul\":8518:8524   */\n      dup5\n        /* \"#utility.yul\":8512:8516   */\n      dup5\n        /* \"#utility.yul\":8468:8533   */\n      tag_80\n      jump\t// in\n    tag_182:\n        /* \"#utility.yul\":8403:8539   */\n      pop\n        /* \"#utility.yul\":8350:8539   */\n      pop\n      pop\n      jump\t// out\n        /* \"#utility.yul\":8545:8731   */\n    tag_83:\n        /* \"#utility.yul\":8605:8725   */\n    tag_184:\n        /* \"#utility.yul\":8622:8625   */\n      dup2\n        /* \"#utility.yul\":8615:8620   */\n      dup2\n        /* \"#utility.yul\":8612:8626   */\n      lt\n        /* \"#utility.yul\":8605:8725   */\n      iszero\n      tag_186\n      jumpi\n        /* \"#utility.yul\":8676:8715   */\n      tag_187\n        /* \"#utility.yul\":8713:8714   */\n      0x00\n        /* \"#utility.yul\":8706:8711   */\n      dup3\n        /* \"#utility.yul\":8676:8715   */\n      tag_82\n      jump\t// in\n    tag_187:\n        /* \"#utility.yul\":8649:8650   */\n      0x01\n        /* \"#utility.yul\":8642:8647   */\n      dup2\n        /* \"#utility.yul\":8638:8651   */\n      add\n        /* \"#utility.yul\":8629:8651   */\n      swap1\n      pop\n        /* \"#utility.yul\":8605:8725   */\n      jump(tag_184)\n    tag_186:\n        /* \"#utility.yul\":8545:8731   */\n      pop\n      pop\n      jump\t// out\n        /* \"#utility.yul\":8737:9280   */\n    tag_84:\n        /* \"#utility.yul\":8838:8840   */\n      0x1f\n        /* \"#utility.yul\":8833:8836   */\n      dup3\n        /* \"#utility.yul\":8830:8841   */\n      gt\n        /* \"#utility.yul\":8827:9273   */\n      iszero\n      tag_189\n      jumpi\n        /* \"#utility.yul\":8872:8910   */\n      tag_190\n        /* \"#utility.yul\":8904:8909   */\n      dup2\n        /* \"#utility.yul\":8872:8910   */\n      tag_73\n      jump\t// in\n    tag_190:\n        /* \"#utility.yul\":8956:8985   */\n      tag_191\n        /* \"#utility.yul\":8974:8984   */\n      dup5\n        /* \"#utility.yul\":8956:8985   */\n      tag_74\n      jump\t// in\n    tag_191:\n        /* \"#utility.yul\":8946:8954   */\n      dup2\n        /* \"#utility.yul\":8942:8986   */\n      add\n        /* \"#utility.yul\":9139:9141   */\n      0x20\n        /* \"#utility.yul\":9127:9137   */\n      dup6\n        /* \"#utility.yul\":9124:9142   */\n      lt\n        /* \"#utility.yul\":9121:9170   */\n      iszero\n      tag_192\n      jumpi\n        /* \"#utility.yul\":9160:9168   */\n      dup2\n        /* \"#utility.yul\":9145:9168   */\n      swap1\n      pop\n        /* \"#utility.yul\":9121:9170   */\n    tag_192:\n        /* \"#utility.yul\":9183:9263   */\n      tag_193\n        /* \"#utility.yul\":9239:9261   */\n      tag_194\n        /* \"#utility.yul\":9257:9260   */\n      dup6\n        /* \"#utility.yul\":9239:9261   */\n      tag_74\n      jump\t// in\n    tag_194:\n        /* \"#utility.yul\":9229:9237   */\n      dup4\n        /* \"#utility.yul\":9225:9262   */\n      add\n        /* \"#utility.yul\":9212:9223   */\n      dup3\n        /* \"#utility.yul\":9183:9263   */\n      tag_83\n      jump\t// in\n    tag_193:\n        /* \"#utility.yul\":8842:9273   */\n      pop\n      pop\n        /* \"#utility.yul\":8827:9273   */\n    tag_189:\n        /* \"#utility.yul\":8737:9280   */\n      pop\n      pop\n      pop\n      jump\t// out\n        /* \"#utility.yul\":9286:9403   */\n    tag_85:\n        /* \"#utility.yul\":9340:9348   */\n      0x00\n        /* \"#utility.yul\":9390:9395   */\n      dup3\n        /* \"#utility.yul\":9384:9388   */\n      dup3\n        /* \"#utility.yul\":9380:9396   */\n      shr\n        /* \"#utility.yul\":9359:9396   */\n      swap1\n      pop\n        /* \"#utility.yul\":9286:9403   */\n      swap3\n      swap2\n      pop\n      pop\n      jump\t// out\n        /* \"#utility.yul\":9409:9578   */\n    tag_86:\n        /* \"#utility.yul\":9453:9459   */\n      0x00\n        /* \"#utility.yul\":9486:9537   */\n      tag_197\n        /* \"#utility.yul\":9534:9535   */\n      0x00\n        /* \"#utility.yul\":9530:9536   */\n      not\n        /* \"#utility.yul\":9522:9527   */\n      dup5\n        /* \"#utility.yul\":9519:9520   */\n      0x08\n        /* \"#utility.yul\":9515:9528   */\n      mul\n        /* \"#utility.yul\":9486:9537   */\n      tag_85\n      jump\t// in\n    tag_197:\n        /* \"#utility.yul\":9482:9538   */\n      not\n        /* \"#utility.yul\":9567:9571   */\n      dup1\n        /* \"#utility.yul\":9561:9565   */\n      dup4\n        /* \"#utility.yul\":9557:9572   */\n      and\n        /* \"#utility.yul\":9547:9572   */\n      swap2\n      pop\n        /* \"#utility.yul\":9460:9578   */\n      pop\n        /* \"#utility.yul\":9409:9578   */\n      swap3\n      swap2\n      pop\n      pop\n      jump\t// out\n        /* \"#utility.yul\":9583:9878   */\n    tag_87:\n        /* \"#utility.yul\":9659:9663   */\n      0x00\n        /* \"#utility.yul\":9805:9834   */\n      tag_199\n        /* \"#utility.yul\":9830:9833   */\n      dup4\n        /* \"#utility.yul\":9824:9828   */\n      dup4\n        /* \"#utility.yul\":9805:9834   */\n      tag_86\n      jump\t// in\n    tag_199:\n        /* \"#utility.yul\":9797:9834   */\n      swap2\n      pop\n        /* \"#utility.yul\":9867:9870   */\n      dup3\n        /* \"#utility.yul\":9864:9865   */\n      0x02\n        /* \"#utility.yul\":9860:9871   */\n      mul\n        /* \"#utility.yul\":9854:9858   */\n      dup3\n        /* \"#utility.yul\":9851:9872   */\n      or\n        /* \"#utility.yul\":9843:9872   */\n      swap1\n      pop\n        /* \"#utility.yul\":9583:9878   */\n      swap3\n      swap2\n      pop\n      pop\n      jump\t// out\n        /* \"#utility.yul\":9883:11278   */\n    tag_25:\n        /* \"#utility.yul\":10000:10037   */\n      tag_201\n        /* \"#utility.yul\":10033:10036   */\n      dup3\n        /* \"#utility.yul\":10000:10037   */\n      tag_67\n      jump\t// in\n    tag_201:\n        /* \"#utility.yul\":10102:10120   */\n      0xffffffffffffffff\n        /* \"#utility.yul\":10094:10100   */\n      dup2\n        /* \"#utility.yul\":10091:10121   */\n      gt\n        /* \"#utility.yul\":10088:10144   */\n      iszero\n      tag_202\n      jumpi\n        /* \"#utility.yul\":10124:10142   */\n      tag_203\n      tag_60\n      jump\t// in\n    tag_203:\n        /* \"#utility.yul\":10088:10144   */\n    tag_202:\n        /* \"#utility.yul\":10168:10206   */\n      tag_204\n        /* \"#utility.yul\":10200:10204   */\n      dup3\n        /* \"#utility.yul\":10194:10205   */\n      sload\n        /* \"#utility.yul\":10168:10206   */\n      tag_39\n      jump\t// in\n    tag_204:\n        /* \"#utility.yul\":10253:10320   */\n      tag_205\n        /* \"#utility.yul\":10313:10319   */\n      dup3\n        /* \"#utility.yul\":10305:10311   */\n      dup3\n        /* \"#utility.yul\":10299:10303   */\n      dup6\n        /* \"#utility.yul\":10253:10320   */\n      tag_84\n      jump\t// in\n    tag_205:\n        /* \"#utility.yul\":10347:10348   */\n      0x00\n        /* \"#utility.yul\":10371:10375   */\n      0x20\n        /* \"#utility.yul\":10358:10375   */\n      swap1\n      pop\n        /* \"#utility.yul\":10403:10405   */\n      0x1f\n        /* \"#utility.yul\":10395:10401   */\n      dup4\n        /* \"#utility.yul\":10392:10406   */\n      gt\n        /* \"#utility.yul\":10420:10421   */\n      0x01\n        /* \"#utility.yul\":10415:11033   */\n      dup2\n      eq\n      tag_207\n      jumpi\n        /* \"#utility.yul\":11077:11078   */\n      0x00\n        /* \"#utility.yul\":11094:11100   */\n      dup5\n        /* \"#utility.yul\":11091:11168   */\n      iszero\n      tag_208\n      jumpi\n        /* \"#utility.yul\":11143:11152   */\n      dup3\n        /* \"#utility.yul\":11138:11141   */\n      dup8\n        /* \"#utility.yul\":11134:11153   */\n      add\n        /* \"#utility.yul\":11128:11154   */\n      mload\n        /* \"#utility.yul\":11119:11154   */\n      swap1\n      pop\n        /* \"#utility.yul\":11091:11168   */\n    tag_208:\n        /* \"#utility.yul\":11194:11261   */\n      tag_209\n        /* \"#utility.yul\":11254:11260   */\n      dup6\n        /* \"#utility.yul\":11247:11252   */\n      dup3\n        /* \"#utility.yul\":11194:11261   */\n      tag_87\n      jump\t// in\n    tag_209:\n        /* \"#utility.yul\":11188:11192   */\n      dup7\n        /* \"#utility.yul\":11181:11262   */\n      sstore\n        /* \"#utility.yul\":11050:11272   */\n      pop\n        /* \"#utility.yul\":10385:11272   */\n      jump(tag_206)\n        /* \"#utility.yul\":10415:11033   */\n    tag_207:\n        /* \"#utility.yul\":10467:10471   */\n      0x1f\n        /* \"#utility.yul\":10463:10472   */\n      not\n        /* \"#utility.yul\":10455:10461   */\n      dup5\n        /* \"#utility.yul\":10451:10473   */\n      and\n        /* \"#utility.yul\":10501:10538   */\n      tag_210\n        /* \"#utility.yul\":10533:10537   */\n      dup7\n        /* \"#utility.yul\":10501:10538   */\n      tag_73\n      jump\t// in\n    tag_210:\n        /* \"#utility.yul\":10560:10561   */\n      0x00\n        /* \"#utility.yul\":10574:10782   */\n    tag_211:\n        /* \"#utility.yul\":10588:10595   */\n      dup3\n        /* \"#utility.yul\":10585:10586   */\n      dup2\n        /* \"#utility.yul\":10582:10596   */\n      lt\n        /* \"#utility.yul\":10574:10782   */\n      iszero\n      tag_213\n      jumpi\n        /* \"#utility.yul\":10667:10676   */\n      dup5\n        /* \"#utility.yul\":10662:10665   */\n      dup10\n        /* \"#utility.yul\":10658:10677   */\n      add\n        /* \"#utility.yul\":10652:10678   */\n      mload\n        /* \"#utility.yul\":10644:10650   */\n      dup3\n        /* \"#utility.yul\":10637:10679   */\n      sstore\n        /* \"#utility.yul\":10718:10719   */\n      0x01\n        /* \"#utility.yul\":10710:10716   */\n      dup3\n        /* \"#utility.yul\":10706:10720   */\n      add\n        /* \"#utility.yul\":10696:10720   */\n      swap2\n      pop\n        /* \"#utility.yul\":10765:10767   */\n      0x20\n        /* \"#utility.yul\":10754:10763   */\n      dup6\n        /* \"#utility.yul\":10750:10768   */\n      add\n        /* \"#utility.yul\":10737:10768   */\n      swap5\n      pop\n        /* \"#utility.yul\":10611:10615   */\n      0x20\n        /* \"#utility.yul\":10608:10609   */\n      dup2\n        /* \"#utility.yul\":10604:10616   */\n      add\n        /* \"#utility.yul\":10599:10616   */\n      swap1\n      pop\n        /* \"#utility.yul\":10574:10782   */\n      jump(tag_211)\n    tag_213:\n        /* \"#utility.yul\":10810:10816   */\n      dup7\n        /* \"#utility.yul\":10801:10808   */\n      dup4\n        /* \"#utility.yul\":10798:10817   */\n      lt\n        /* \"#utility.yul\":10795:10974   */\n      iszero\n      tag_214\n      jumpi\n        /* \"#utility.yul\":10868:10877   */\n      dup5\n        /* \"#utility.yul\":10863:10866   */\n      dup10\n        /* \"#utility.yul\":10859:10878   */\n      add\n        /* \"#utility.yul\":10853:10879   */\n      mload\n        /* \"#utility.yul\":10911:10959   */\n      tag_215\n        /* \"#utility.yul\":10953:10957   */\n      0x1f\n        /* \"#utility.yul\":10945:10951   */\n      dup10\n        /* \"#utility.yul\":10941:10958   */\n      and\n        /* \"#utility.yul\":10930:10939   */\n      dup3\n        /* \"#utility.yul\":10911:10959   */\n      tag_86\n      jump\t// in\n    tag_215:\n        /* \"#utility.yul\":10903:10909   */\n      dup4\n        /* \"#utility.yul\":10896:10960   */\n      sstore\n        /* \"#utility.yul\":10818:10974   */\n      pop\n        /* \"#utility.yul\":10795:10974   */\n    tag_214:\n        /* \"#utility.yul\":11020:11021   */\n      0x01\n        /* \"#utility.yul\":11016:11017   */\n      0x02\n        /* \"#utility.yul\":11008:11014   */\n      dup9\n        /* \"#utility.yul\":11004:11018   */\n      mul\n        /* \"#utility.yul\":11000:11022   */\n      add\n        /* \"#utility.yul\":10994:10998   */\n      dup9\n        /* \"#utility.yul\":10987:11023   */\n      sstore\n        /* \"#utility.yul\":10422:11033   */\n      pop\n      pop\n      pop\n        /* \"#utility.yul\":10385:11272   */\n    tag_206:\n      pop\n        /* \"#utility.yul\":9975:11278   */\n      pop\n      pop\n      pop\n        /* \"#utility.yul\":9883:11278   */\n      pop\n      pop\n      jump\t// out\n        /* \"#utility.yul\":11284:11464   */\n    tag_29:\n        /* \"#utility.yul\":11332:11409   */\n      0x4e487b7100000000000000000000000000000000000000000000000000000000\n        /* \"#utility.yul\":11329:11330   */\n      0x00\n        /* \"#utility.yul\":11322:11410   */\n      mstore\n        /* \"#utility.yul\":11429:11433   */\n      0x32\n        /* \"#utility.yul\":11426:11427   */\n      0x04\n        /* \"#utility.yul\":11419:11434   */\n      mstore\n        /* \"#utility.yul\":11453:11457   */\n      0x24\n        /* \"#utility.yul\":11450:11451   */\n      0x00\n        /* \"#utility.yul\":11443:11458   */\n      revert\n\n    auxdata: 0xa26469706673582212200bbf69c9723f23b4e459b5de7d9fec2c5d9bb5eafbec532e29df226f4f89197464736f6c634300081a0033\n}\n",
				"bytecode": {
					"linkReferences": {},
					"object": "6080604052348015600e575f80fd5b506109678061001c5f395ff3fe608060405234801561000f575f80fd5b506004361061003f575f3560e01c80639459d5d714610043578063c5331de31461005f578063e70e6d8514610090575b5f80fd5b61005d6004803603810190610058919061048d565b6100c2565b005b610079600480360381019061007491906104f9565b610133565b6040516100879291906105a6565b60405180910390f35b6100aa60048036038101906100a591906105d4565b610253565b6040516100b9939291906105ff565b60405180910390f35b5f604051806060016040528085815260200184815260200183815250908060018154018082558091505060019003905f5260205f2090600302015f909190919091505f820151815f015560208201518160010190816101219190610835565b50604082015181600201555050505050565b60605f825f858154811061014a57610149610904565b5b905f5260205f2090600302015f015403610236575f848154811061017157610170610904565b5b905f5260205f2090600302016001015f858154811061019357610192610904565b5b905f5260205f209060030201600201548180546101af90610668565b80601f01602080910402602001604051908101604052809291908181526020018280546101db90610668565b80156102265780601f106101fd57610100808354040283529160200191610226565b820191905f5260205f20905b81548152906001019060200180831161020957829003601f168201915b505050505091509150915061024c565b5f60405180602001604052805f81525090915091505b9250929050565b5f8181548110610261575f80fd5b905f5260205f2090600302015f91509050805f01549080600101805461028690610668565b80601f01602080910402602001604051908101604052809291908181526020018280546102b290610668565b80156102fd5780601f106102d4576101008083540402835291602001916102fd565b820191905f5260205f20905b8154815290600101906020018083116102e057829003601f168201915b5050505050908060020154905083565b5f604051905090565b5f80fd5b5f80fd5b5f819050919050565b6103308161031e565b811461033a575f80fd5b50565b5f8135905061034b81610327565b92915050565b5f80fd5b5f80fd5b5f601f19601f8301169050919050565b7f4e487b71000000000000000000000000000000000000000000000000000000005f52604160045260245ffd5b61039f82610359565b810181811067ffffffffffffffff821117156103be576103bd610369565b5b80604052505050565b5f6103d061030d565b90506103dc8282610396565b919050565b5f67ffffffffffffffff8211156103fb576103fa610369565b5b61040482610359565b9050602081019050919050565b828183375f83830152505050565b5f61043161042c846103e1565b6103c7565b90508281526020810184848401111561044d5761044c610355565b5b610458848285610411565b509392505050565b5f82601f83011261047457610473610351565b5b813561048484826020860161041f565b91505092915050565b5f805f606084860312156104a4576104a3610316565b5b5f6104b18682870161033d565b935050602084013567ffffffffffffffff8111156104d2576104d161031a565b5b6104de86828701610460565b92505060406104ef8682870161033d565b9150509250925092565b5f806040838503121561050f5761050e610316565b5b5f61051c8582860161033d565b925050602061052d8582860161033d565b9150509250929050565b5f81519050919050565b5f82825260208201905092915050565b8281835e5f83830152505050565b5f61056982610537565b6105738185610541565b9350610583818560208601610551565b61058c81610359565b840191505092915050565b6105a08161031e565b82525050565b5f6040820190508181035f8301526105be818561055f565b90506105cd6020830184610597565b9392505050565b5f602082840312156105e9576105e8610316565b5b5f6105f68482850161033d565b91505092915050565b5f6060820190506106125f830186610597565b8181036020830152610624818561055f565b90506106336040830184610597565b949350505050565b7f4e487b71000000000000000000000000000000000000000000000000000000005f52602260045260245ffd5b5f600282049050600182168061067f57607f821691505b6020821081036106925761069161063b565b5b50919050565b5f819050815f5260205f209050919050565b5f6020601f8301049050919050565b5f82821b905092915050565b5f600883026106f47fffffffffffffffffffffffffffffffffffffffffffffffffffffffffffffffff826106b9565b6106fe86836106b9565b95508019841693508086168417925050509392505050565b5f819050919050565b5f61073961073461072f8461031e565b610716565b61031e565b9050919050565b5f819050919050565b6107528361071f565b61076661075e82610740565b8484546106c5565b825550505050565b5f90565b61077a61076e565b610785818484610749565b505050565b5b818110156107a85761079d5f82610772565b60018101905061078b565b5050565b601f8211156107ed576107be81610698565b6107c7846106aa565b810160208510156107d6578190505b6107ea6107e2856106aa565b83018261078a565b50505b505050565b5f82821c905092915050565b5f61080d5f19846008026107f2565b1980831691505092915050565b5f61082583836107fe565b9150826002028217905092915050565b61083e82610537565b67ffffffffffffffff81111561085757610856610369565b5b6108618254610668565b61086c8282856107ac565b5f60209050601f83116001811461089d575f841561088b578287015190505b610895858261081a565b8655506108fc565b601f1984166108ab86610698565b5f5b828110156108d2578489015182556001820191506020850194506020810190506108ad565b868310156108ef57848901516108eb601f8916826107fe565b8355505b6001600288020188555050505b505050505050565b7f4e487b71000000000000000000000000000000000000000000000000000000005f52603260045260245ffdfea26469706673582212200bbf69c9723f23b4e459b5de7d9fec2c5d9bb5eafbec532e29df226f4f89197464736f6c634300081a0033",
					"opcodes": "PUSH1 0x80 PUSH1 0x40 MSTORE CALLVALUE DUP1 ISZERO PUSH1 0xE JUMPI PUSH0 DUP1 REVERT JUMPDEST POP PUSH2 0x967 DUP1 PUSH2 0x1C PUSH0 CODECOPY PUSH0 RETURN INVALID PUSH1 0x80 PUSH1 0x40 MSTORE CALLVALUE DUP1 ISZERO PUSH2 0xF JUMPI PUSH0 DUP1 REVERT JUMPDEST POP PUSH1 0x4 CALLDATASIZE LT PUSH2 0x3F JUMPI PUSH0 CALLDATALOAD PUSH1 0xE0 SHR DUP1 PUSH4 0x9459D5D7 EQ PUSH2 0x43 JUMPI DUP1 PUSH4 0xC5331DE3 EQ PUSH2 0x5F JUMPI DUP1 PUSH4 0xE70E6D85 EQ PUSH2 0x90 JUMPI JUMPDEST PUSH0 DUP1 REVERT JUMPDEST PUSH2 0x5D PUSH1 0x4 DUP1 CALLDATASIZE SUB DUP2 ADD SWAP1 PUSH2 0x58 SWAP2 SWAP1 PUSH2 0x48D JUMP JUMPDEST PUSH2 0xC2 JUMP JUMPDEST STOP JUMPDEST PUSH2 0x79 PUSH1 0x4 DUP1 CALLDATASIZE SUB DUP2 ADD SWAP1 PUSH2 0x74 SWAP2 SWAP1 PUSH2 0x4F9 JUMP JUMPDEST PUSH2 0x133 JUMP JUMPDEST PUSH1 0x40 MLOAD PUSH2 0x87 SWAP3 SWAP2 SWAP1 PUSH2 0x5A6 JUMP JUMPDEST PUSH1 0x40 MLOAD DUP1 SWAP2 SUB SWAP1 RETURN JUMPDEST PUSH2 0xAA PUSH1 0x4 DUP1 CALLDATASIZE SUB DUP2 ADD SWAP1 PUSH2 0xA5 SWAP2 SWAP1 PUSH2 0x5D4 JUMP JUMPDEST PUSH2 0x253 JUMP JUMPDEST PUSH1 0x40 MLOAD PUSH2 0xB9 SWAP4 SWAP3 SWAP2 SWAP1 PUSH2 0x5FF JUMP JUMPDEST PUSH1 0x40 MLOAD DUP1 SWAP2 SUB SWAP1 RETURN JUMPDEST PUSH0 PUSH1 0x40 MLOAD DUP1 PUSH1 0x60 ADD PUSH1 0x40 MSTORE DUP1 DUP6 DUP2 MSTORE PUSH1 0x20 ADD DUP5 DUP2 MSTORE PUSH1 0x20 ADD DUP4 DUP2 MSTORE POP SWAP1 DUP1 PUSH1 0x1 DUP2 SLOAD ADD DUP1 DUP3 SSTORE DUP1 SWAP2 POP POP PUSH1 0x1 SWAP1 SUB SWAP1 PUSH0 MSTORE PUSH1 0x20 PUSH0 KECCAK256 SWAP1 PUSH1 0x3 MUL ADD PUSH0 SWAP1 SWAP2 SWAP1 SWAP2 SWAP1 SWAP2 POP PUSH0 DUP3 ADD MLOAD DUP2 PUSH0 ADD SSTORE PUSH1 0x20 DUP3 ADD MLOAD DUP2 PUSH1 0x1 ADD SWAP1 DUP2 PUSH2 0x121 SWAP2 SWAP1 PUSH2 0x835 JUMP JUMPDEST POP PUSH1 0x40 DUP3 ADD MLOAD DUP2 PUSH1 0x2 ADD SSTORE POP POP POP POP POP JUMP JUMPDEST PUSH1 0x60 PUSH0 DUP3 PUSH0 DUP6 DUP2 SLOAD DUP2 LT PUSH2 0x14A JUMPI PUSH2 0x149 PUSH2 0x904 JUMP JUMPDEST JUMPDEST SWAP1 PUSH0 MSTORE PUSH1 0x20 PUSH0 KECCAK256 SWAP1 PUSH1 0x3 MUL ADD PUSH0 ADD SLOAD SUB PUSH2 0x236 JUMPI PUSH0 DUP5 DUP2 SLOAD DUP2 LT PUSH2 0x171 JUMPI PUSH2 0x170 PUSH2 0x904 JUMP JUMPDEST JUMPDEST SWAP1 PUSH0 MSTORE PUSH1 0x20 PUSH0 KECCAK256 SWAP1 PUSH1 0x3 MUL ADD PUSH1 0x1 ADD PUSH0 DUP6 DUP2 SLOAD DUP2 LT PUSH2 0x193 JUMPI PUSH2 0x192 PUSH2 0x904 JUMP JUMPDEST JUMPDEST SWAP1 PUSH0 MSTORE PUSH1 0x20 PUSH0 KECCAK256 SWAP1 PUSH1 0x3 MUL ADD PUSH1 0x2 ADD SLOAD DUP2 DUP1 SLOAD PUSH2 0x1AF SWAP1 PUSH2 0x668 JUMP JUMPDEST DUP1 PUSH1 0x1F ADD PUSH1 0x20 DUP1 SWAP2 DIV MUL PUSH1 0x20 ADD PUSH1 0x40 MLOAD SWAP1 DUP2 ADD PUSH1 0x40 MSTORE DUP1 SWAP3 SWAP2 SWAP1 DUP2 DUP2 MSTORE PUSH1 0x20 ADD DUP3 DUP1 SLOAD PUSH2 0x1DB SWAP1 PUSH2 0x668 JUMP JUMPDEST DUP1 ISZERO PUSH2 0x226 JUMPI DUP1 PUSH1 0x1F LT PUSH2 0x1FD JUMPI PUSH2 0x100 DUP1 DUP4 SLOAD DIV MUL DUP4 MSTORE SWAP2 PUSH1 0x20 ADD SWAP2 PUSH2 0x226 JUMP JUMPDEST DUP3 ADD SWAP2 SWAP1 PUSH0 MSTORE PUSH1 0x20 PUSH0 KECCAK256 SWAP1 JUMPDEST DUP2 SLOAD DUP2 MSTORE SWAP1 PUSH1 0x1 ADD SWAP1 PUSH1 0x20 ADD DUP1 DUP4 GT PUSH2 0x209 JUMPI DUP3 SWAP1 SUB PUSH1 0x1F AND DUP3 ADD SWAP2 JUMPDEST POP POP POP POP POP SWAP2 POP SWAP2 POP SWAP2 POP PUSH2 0x24C JUMP JUMPDEST PUSH0 PUSH1 0x40 MLOAD DUP1 PUSH1 0x20 ADD PUSH1 0x40 MSTORE DUP1 PUSH0 DUP2 MSTORE POP SWAP1 SWAP2 POP SWAP2 POP JUMPDEST SWAP3 POP SWAP3 SWAP1 POP JUMP JUMPDEST PUSH0 DUP2 DUP2 SLOAD DUP2 LT PUSH2 0x261 JUMPI PUSH0 DUP1 REVERT JUMPDEST SWAP1 PUSH0 MSTORE PUSH1 0x20 PUSH0 KECCAK256 SWAP1 PUSH1 0x3 MUL ADD PUSH0 SWAP2 POP SWAP1 POP DUP1 PUSH0 ADD SLOAD SWAP1 DUP1 PUSH1 0x1 ADD DUP1 SLOAD PUSH2 0x286 SWAP1 PUSH2 0x668 JUMP JUMPDEST DUP1 PUSH1 0x1F ADD PUSH1 0x20 DUP1 SWAP2 DIV MUL PUSH1 0x20 ADD PUSH1 0x40 MLOAD SWAP1 DUP2 ADD PUSH1 0x40 MSTORE DUP1 SWAP3 SWAP2 SWAP1 DUP2 DUP2 MSTORE PUSH1 0x20 ADD DUP3 DUP1 SLOAD PUSH2 0x2B2 SWAP1 PUSH2 0x668 JUMP JUMPDEST DUP1 ISZERO PUSH2 0x2FD JUMPI DUP1 PUSH1 0x1F LT PUSH2 0x2D4 JUMPI PUSH2 0x100 DUP1 DUP4 SLOAD DIV MUL DUP4 MSTORE SWAP2 PUSH1 0x20 ADD SWAP2 PUSH2 0x2FD JUMP JUMPDEST DUP3 ADD SWAP2 SWAP1 PUSH0 MSTORE PUSH1 0x20 PUSH0 KECCAK256 SWAP1 JUMPDEST DUP2 SLOAD DUP2 MSTORE SWAP1 PUSH1 0x1 ADD SWAP1 PUSH1 0x20 ADD DUP1 DUP4 GT PUSH2 0x2E0 JUMPI DUP3 SWAP1 SUB PUSH1 0x1F AND DUP3 ADD SWAP2 JUMPDEST POP POP POP POP POP SWAP1 DUP1 PUSH1 0x2 ADD SLOAD SWAP1 POP DUP4 JUMP JUMPDEST PUSH0 PUSH1 0x40 MLOAD SWAP1 POP SWAP1 JUMP JUMPDEST PUSH0 DUP1 REVERT JUMPDEST PUSH0 DUP1 REVERT JUMPDEST PUSH0 DUP2 SWAP1 POP SWAP2 SWAP1 POP JUMP JUMPDEST PUSH2 0x330 DUP2 PUSH2 0x31E JUMP JUMPDEST DUP2 EQ PUSH2 0x33A JUMPI PUSH0 DUP1 REVERT JUMPDEST POP JUMP JUMPDEST PUSH0 DUP2 CALLDATALOAD SWAP1 POP PUSH2 0x34B DUP2 PUSH2 0x327 JUMP JUMPDEST SWAP3 SWAP2 POP POP JUMP JUMPDEST PUSH0 DUP1 REVERT JUMPDEST PUSH0 DUP1 REVERT JUMPDEST PUSH0 PUSH1 0x1F NOT PUSH1 0x1F DUP4 ADD AND SWAP1 POP SWAP2 SWAP1 POP JUMP JUMPDEST PUSH32 0x4E487B7100000000000000000000000000000000000000000000000000000000 PUSH0 MSTORE PUSH1 0x41 PUSH1 0x4 MSTORE PUSH1 0x24 PUSH0 REVERT JUMPDEST PUSH2 0x39F DUP3 PUSH2 0x359 JUMP JUMPDEST DUP2 ADD DUP2 DUP2 LT PUSH8 0xFFFFFFFFFFFFFFFF DUP3 GT OR ISZERO PUSH2 0x3BE JUMPI PUSH2 0x3BD PUSH2 0x369 JUMP JUMPDEST JUMPDEST DUP1 PUSH1 0x40 MSTORE POP POP POP JUMP JUMPDEST PUSH0 PUSH2 0x3D0 PUSH2 0x30D JUMP JUMPDEST SWAP1 POP PUSH2 0x3DC DUP3 DUP3 PUSH2 0x396 JUMP JUMPDEST SWAP2 SWAP1 POP JUMP JUMPDEST PUSH0 PUSH8 0xFFFFFFFFFFFFFFFF DUP3 GT ISZERO PUSH2 0x3FB JUMPI PUSH2 0x3FA PUSH2 0x369 JUMP JUMPDEST JUMPDEST PUSH2 0x404 DUP3 PUSH2 0x359 JUMP JUMPDEST SWAP1 POP PUSH1 0x20 DUP2 ADD SWAP1 POP SWAP2 SWAP1 POP JUMP JUMPDEST DUP3 DUP2 DUP4 CALLDATACOPY PUSH0 DUP4 DUP4 ADD MSTORE POP POP POP JUMP JUMPDEST PUSH0 PUSH2 0x431 PUSH2 0x42C DUP5 PUSH2 0x3E1 JUMP JUMPDEST PUSH2 0x3C7 JUMP JUMPDEST SWAP1 POP DUP3 DUP2 MSTORE PUSH1 0x20 DUP2 ADD DUP5 DUP5 DUP5 ADD GT ISZERO PUSH2 0x44D JUMPI PUSH2 0x44C PUSH2 0x355 JUMP JUMPDEST JUMPDEST PUSH2 0x458 DUP5 DUP3 DUP6 PUSH2 0x411 JUMP JUMPDEST POP SWAP4 SWAP3 POP POP POP JUMP JUMPDEST PUSH0 DUP3 PUSH1 0x1F DUP4 ADD SLT PUSH2 0x474 JUMPI PUSH2 0x473 PUSH2 0x351 JUMP JUMPDEST JUMPDEST DUP2 CALLDATALOAD PUSH2 0x484 DUP5 DUP3 PUSH1 0x20 DUP7 ADD PUSH2 0x41F JUMP JUMPDEST SWAP2 POP POP SWAP3 SWAP2 POP POP JUMP JUMPDEST PUSH0 DUP1 PUSH0 PUSH1 0x60 DUP5 DUP7 SUB SLT ISZERO PUSH2 0x4A4 JUMPI PUSH2 0x4A3 PUSH2 0x316 JUMP JUMPDEST JUMPDEST PUSH0 PUSH2 0x4B1 DUP7 DUP3 DUP8 ADD PUSH2 0x33D JUMP JUMPDEST SWAP4 POP POP PUSH1 0x20 DUP5 ADD CALLDATALOAD PUSH8 0xFFFFFFFFFFFFFFFF DUP2 GT ISZERO PUSH2 0x4D2 JUMPI PUSH2 0x4D1 PUSH2 0x31A JUMP JUMPDEST JUMPDEST PUSH2 0x4DE DUP7 DUP3 DUP8 ADD PUSH2 0x460 JUMP JUMPDEST SWAP3 POP POP PUSH1 0x40 PUSH2 0x4EF DUP7 DUP3 DUP8 ADD PUSH2 0x33D JUMP JUMPDEST SWAP2 POP POP SWAP3 POP SWAP3 POP SWAP3 JUMP JUMPDEST PUSH0 DUP1 PUSH1 0x40 DUP4 DUP6 SUB SLT ISZERO PUSH2 0x50F JUMPI PUSH2 0x50E PUSH2 0x316 JUMP JUMPDEST JUMPDEST PUSH0 PUSH2 0x51C DUP6 DUP3 DUP7 ADD PUSH2 0x33D JUMP JUMPDEST SWAP3 POP POP PUSH1 0x20 PUSH2 0x52D DUP6 DUP3 DUP7 ADD PUSH2 0x33D JUMP JUMPDEST SWAP2 POP POP SWAP3 POP SWAP3 SWAP1 POP JUMP JUMPDEST PUSH0 DUP2 MLOAD SWAP1 POP SWAP2 SWAP1 POP JUMP JUMPDEST PUSH0 DUP3 DUP3 MSTORE PUSH1 0x20 DUP3 ADD SWAP1 POP SWAP3 SWAP2 POP POP JUMP JUMPDEST DUP3 DUP2 DUP4 MCOPY PUSH0 DUP4 DUP4 ADD MSTORE POP POP POP JUMP JUMPDEST PUSH0 PUSH2 0x569 DUP3 PUSH2 0x537 JUMP JUMPDEST PUSH2 0x573 DUP2 DUP6 PUSH2 0x541 JUMP JUMPDEST SWAP4 POP PUSH2 0x583 DUP2 DUP6 PUSH1 0x20 DUP7 ADD PUSH2 0x551 JUMP JUMPDEST PUSH2 0x58C DUP2 PUSH2 0x359 JUMP JUMPDEST DUP5 ADD SWAP2 POP POP SWAP3 SWAP2 POP POP JUMP JUMPDEST PUSH2 0x5A0 DUP2 PUSH2 0x31E JUMP JUMPDEST DUP3 MSTORE POP POP JUMP JUMPDEST PUSH0 PUSH1 0x40 DUP3 ADD SWAP1 POP DUP2 DUP2 SUB PUSH0 DUP4 ADD MSTORE PUSH2 0x5BE DUP2 DUP6 PUSH2 0x55F JUMP JUMPDEST SWAP1 POP PUSH2 0x5CD PUSH1 0x20 DUP4 ADD DUP5 PUSH2 0x597 JUMP JUMPDEST SWAP4 SWAP3 POP POP POP JUMP JUMPDEST PUSH0 PUSH1 0x20 DUP3 DUP5 SUB SLT ISZERO PUSH2 0x5E9 JUMPI PUSH2 0x5E8 PUSH2 0x316 JUMP JUMPDEST JUMPDEST PUSH0 PUSH2 0x5F6 DUP5 DUP3 DUP6 ADD PUSH2 0x33D JUMP JUMPDEST SWAP2 POP POP SWAP3 SWAP2 POP POP JUMP JUMPDEST PUSH0 PUSH1 0x60 DUP3 ADD SWAP1 POP PUSH2 0x612 PUSH0 DUP4 ADD DUP7 PUSH2 0x597 JUMP JUMPDEST DUP2 DUP2 SUB PUSH1 0x20 DUP4 ADD MSTORE PUSH2 0x624 DUP2 DUP6 PUSH2 0x55F JUMP JUMPDEST SWAP1 POP PUSH2 0x633 PUSH1 0x40 DUP4 ADD DUP5 PUSH2 0x597 JUMP JUMPDEST SWAP5 SWAP4 POP POP POP POP JUMP JUMPDEST PUSH32 0x4E487B7100000000000000000000000000000000000000000000000000000000 PUSH0 MSTORE PUSH1 0x22 PUSH1 0x4 MSTORE PUSH1 0x24 PUSH0 REVERT JUMPDEST PUSH0 PUSH1 0x2 DUP3 DIV SWAP1 POP PUSH1 0x1 DUP3 AND DUP1 PUSH2 0x67F JUMPI PUSH1 0x7F DUP3 AND SWAP2 POP JUMPDEST PUSH1 0x20 DUP3 LT DUP2 SUB PUSH2 0x692 JUMPI PUSH2 0x691 PUSH2 0x63B JUMP JUMPDEST JUMPDEST POP SWAP2 SWAP1 POP JUMP JUMPDEST PUSH0 DUP2 SWAP1 POP DUP2 PUSH0 MSTORE PUSH1 0x20 PUSH0 KECCAK256 SWAP1 POP SWAP2 SWAP1 POP JUMP JUMPDEST PUSH0 PUSH1 0x20 PUSH1 0x1F DUP4 ADD DIV SWAP1 POP SWAP2 SWAP1 POP JUMP JUMPDEST PUSH0 DUP3 DUP3 SHL SWAP1 POP SWAP3 SWAP2 POP POP JUMP JUMPDEST PUSH0 PUSH1 0x8 DUP4 MUL PUSH2 0x6F4 PUSH32 0xFFFFFFFFFFFFFFFFFFFFFFFFFFFFFFFFFFFFFFFFFFFFFFFFFFFFFFFFFFFFFFFF DUP3 PUSH2 0x6B9 JUMP JUMPDEST PUSH2 0x6FE DUP7 DUP4 PUSH2 0x6B9 JUMP JUMPDEST SWAP6 POP DUP1 NOT DUP5 AND SWAP4 POP DUP1 DUP7 AND DUP5 OR SWAP3 POP POP POP SWAP4 SWAP3 POP POP POP JUMP JUMPDEST PUSH0 DUP2 SWAP1 POP SWAP2 SWAP1 POP JUMP JUMPDEST PUSH0 PUSH2 0x739 PUSH2 0x734 PUSH2 0x72F DUP5 PUSH2 0x31E JUMP JUMPDEST PUSH2 0x716 JUMP JUMPDEST PUSH2 0x31E JUMP JUMPDEST SWAP1 POP SWAP2 SWAP1 POP JUMP JUMPDEST PUSH0 DUP2 SWAP1 POP SWAP2 SWAP1 POP JUMP JUMPDEST PUSH2 0x752 DUP4 PUSH2 0x71F JUMP JUMPDEST PUSH2 0x766 PUSH2 0x75E DUP3 PUSH2 0x740 JUMP JUMPDEST DUP5 DUP5 SLOAD PUSH2 0x6C5 JUMP JUMPDEST DUP3 SSTORE POP POP POP POP JUMP JUMPDEST PUSH0 SWAP1 JUMP JUMPDEST PUSH2 0x77A PUSH2 0x76E JUMP JUMPDEST PUSH2 0x785 DUP2 DUP5 DUP5 PUSH2 0x749 JUMP JUMPDEST POP POP POP JUMP JUMPDEST JUMPDEST DUP2 DUP2 LT ISZERO PUSH2 0x7A8 JUMPI PUSH2 0x79D PUSH0 DUP3 PUSH2 0x772 JUMP JUMPDEST PUSH1 0x1 DUP2 ADD SWAP1 POP PUSH2 0x78B JUMP JUMPDEST POP POP JUMP JUMPDEST PUSH1 0x1F DUP3 GT ISZERO PUSH2 0x7ED JUMPI PUSH2 0x7BE DUP2 PUSH2 0x698 JUMP JUMPDEST PUSH2 0x7C7 DUP5 PUSH2 0x6AA JUMP JUMPDEST DUP2 ADD PUSH1 0x20 DUP6 LT ISZERO PUSH2 0x7D6 JUMPI DUP2 SWAP1 POP JUMPDEST PUSH2 0x7EA PUSH2 0x7E2 DUP6 PUSH2 0x6AA JUMP JUMPDEST DUP4 ADD DUP3 PUSH2 0x78A JUMP JUMPDEST POP POP JUMPDEST POP POP POP JUMP JUMPDEST PUSH0 DUP3 DUP3 SHR SWAP1 POP SWAP3 SWAP2 POP POP JUMP JUMPDEST PUSH0 PUSH2 0x80D PUSH0 NOT DUP5 PUSH1 0x8 MUL PUSH2 0x7F2 JUMP JUMPDEST NOT DUP1 DUP4 AND SWAP2 POP POP SWAP3 SWAP2 POP POP JUMP JUMPDEST PUSH0 PUSH2 0x825 DUP4 DUP4 PUSH2 0x7FE JUMP JUMPDEST SWAP2 POP DUP3 PUSH1 0x2 MUL DUP3 OR SWAP1 POP SWAP3 SWAP2 POP POP JUMP JUMPDEST PUSH2 0x83E DUP3 PUSH2 0x537 JUMP JUMPDEST PUSH8 0xFFFFFFFFFFFFFFFF DUP2 GT ISZERO PUSH2 0x857 JUMPI PUSH2 0x856 PUSH2 0x369 JUMP JUMPDEST JUMPDEST PUSH2 0x861 DUP3 SLOAD PUSH2 0x668 JUMP JUMPDEST PUSH2 0x86C DUP3 DUP3 DUP6 PUSH2 0x7AC JUMP JUMPDEST PUSH0 PUSH1 0x20 SWAP1 POP PUSH1 0x1F DUP4 GT PUSH1 0x1 DUP2 EQ PUSH2 0x89D JUMPI PUSH0 DUP5 ISZERO PUSH2 0x88B JUMPI DUP3 DUP8 ADD MLOAD SWAP1 POP JUMPDEST PUSH2 0x895 DUP6 DUP3 PUSH2 0x81A JUMP JUMPDEST DUP7 SSTORE POP PUSH2 0x8FC JUMP JUMPDEST PUSH1 0x1F NOT DUP5 AND PUSH2 0x8AB DUP7 PUSH2 0x698 JUMP JUMPDEST PUSH0 JUMPDEST DUP3 DUP2 LT ISZERO PUSH2 0x8D2 JUMPI DUP5 DUP10 ADD MLOAD DUP3 SSTORE PUSH1 0x1 DUP3 ADD SWAP2 POP PUSH1 0x20 DUP6 ADD SWAP5 POP PUSH1 0x20 DUP2 ADD SWAP1 POP PUSH2 0x8AD JUMP JUMPDEST DUP7 DUP4 LT ISZERO PUSH2 0x8EF JUMPI DUP5 DUP10 ADD MLOAD PUSH2 0x8EB PUSH1 0x1F DUP10 AND DUP3 PUSH2 0x7FE JUMP JUMPDEST DUP4 SSTORE POP JUMPDEST PUSH1 0x1 PUSH1 0x2 DUP9 MUL ADD DUP9 SSTORE POP POP POP JUMPDEST POP POP POP POP POP POP JUMP JUMPDEST PUSH32 0x4E487B7100000000000000000000000000000000000000000000000000000000 PUSH0 MSTORE PUSH1 0x32 PUSH1 0x4 MSTORE PUSH1 0x24 PUSH0 REVERT INVALID LOG2 PUSH5 0x6970667358 0x22 SLT KECCAK256 SIGNEXTEND 0xBF PUSH10 0xC9723F23B4E459B5DE7D SWAP16 0xEC 0x2C TSTORE SWAP12 0xB5 0xEA 0xFB 0xEC MSTORE8 0x2E 0x29 0xDF 0x22 PUSH16 0x4F89197464736F6C634300081A003300 "
				},
				"gasEstimates": {
					"creation": {
						"codeDepositCost": "481400",
						"executionCost": "516",
						"totalCost": "481916"
					},
					"external": {
						"Employee(uint256)": "infinite",
						"addEmployee(uint256,string,uint256)": "infinite",
						"getEmployee(uint256,uint256)": "infinite"
					}
				},
				"methodIdentifiers": {
					"Employee(uint256)": "e70e6d85",
					"addEmployee(uint256,string,uint256)": "9459d5d7",
					"getEmployee(uint256,uint256)": "c5331de3"
				}
			},
			"storageLayout": {
				"storage": [
					{
						"astId": 12,
						"contract": "contracts/Struct/Assignment.sol:Assignment",
						"label": "Employee",
						"offset": 0,
						"slot": "0",
						"type": "t_array(t_struct(EmployeeRegistery)8_storage)dyn_storage"
					}
				],
				"types": {
					"t_array(t_struct(EmployeeRegistery)8_storage)dyn_storage": {
						"base": "t_struct(EmployeeRegistery)8_storage",
						"encoding": "dynamic_array",
						"label": "struct Assignment.EmployeeRegistery[]",
						"numberOfBytes": "32"
					},
					"t_string_storage": {
						"encoding": "bytes",
						"label": "string",
						"numberOfBytes": "32"
					},
					"t_struct(EmployeeRegistery)8_storage": {
						"encoding": "inplace",
						"label": "struct Assignment.EmployeeRegistery",
						"members": [
							{
								"astId": 3,
								"contract": "contracts/Struct/Assignment.sol:Assignment",
								"label": "id",
								"offset": 0,
								"slot": "0",
								"type": "t_uint256"
							},
							{
								"astId": 5,
								"contract": "contracts/Struct/Assignment.sol:Assignment",
								"label": "name",
								"offset": 0,
								"slot": "1",
								"type": "t_string_storage"
							},
							{
								"astId": 7,
								"contract": "contracts/Struct/Assignment.sol:Assignment",
								"label": "salary",
								"offset": 0,
								"slot": "2",
								"type": "t_uint256"
							}
						],
						"numberOfBytes": "96"
					},
					"t_uint256": {
						"encoding": "inplace",
						"label": "uint256",
						"numberOfBytes": "32"
					}
				}
			},
			"userdoc": {
				"kind": "user",
				"methods": {},
				"version": 1
			}
		}
	}
}