{
	"contracts/Struct/ArrayOfStruct.sol": {
		"ArraytOfStruct": {
			"abi": [
				{
					"inputs": [],
					"name": "getName",
					"outputs": [
						{
							"internalType": "string",
							"name": "",
							"type": "string"
						}
					],
					"stateMutability": "view",
					"type": "function"
				},
				{
					"inputs": [],
					"name": "getRoll",
					"outputs": [
						{
							"internalType": "uint256",
							"name": "",
							"type": "uint256"
						}
					],
					"stateMutability": "view",
					"type": "function"
				},
				{
					"inputs": [],
					"name": "getter",
					"outputs": [
						{
							"components": [
								{
									"internalType": "string",
									"name": "name",
									"type": "string"
								},
								{
									"internalType": "uint256",
									"name": "roll",
									"type": "uint256"
								},
								{
									"internalType": "bool",
									"name": "pass",
									"type": "bool"
								}
							],
							"internalType": "struct ArraytOfStruct.Student[4]",
							"name": "",
							"type": "tuple[4]"
						}
					],
					"stateMutability": "view",
					"type": "function"
				},
				{
					"inputs": [
						{
							"internalType": "uint256",
							"name": "index",
							"type": "uint256"
						},
						{
							"internalType": "string",
							"name": "_name",
							"type": "string"
						},
						{
							"internalType": "uint256",
							"name": "_roll",
							"type": "uint256"
						},
						{
							"internalType": "bool",
							"name": "_pass",
							"type": "bool"
						}
					],
					"name": "insert",
					"outputs": [],
					"stateMutability": "nonpayable",
					"type": "function"
				},
				{
					"inputs": [
						{
							"internalType": "uint256",
							"name": "",
							"type": "uint256"
						}
					],
					"name": "s",
					"outputs": [
						{
							"internalType": "string",
							"name": "name",
							"type": "string"
						},
						{
							"internalType": "uint256",
							"name": "roll",
							"type": "uint256"
						},
						{
							"internalType": "bool",
							"name": "pass",
							"type": "bool"
						}
					],
					"stateMutability": "view",
					"type": "function"
				}
			],
			"devdoc": {
				"kind": "dev",
				"methods": {},
				"version": 1
			},
			"evm": {
				"assembly": "    /* \"contracts/Struct/ArrayOfStruct.sol\":68:753  contract ArraytOfStruct {... */\n  mstore(0x40, 0x80)\n  callvalue\n  dup1\n  iszero\n  tag_1\n  jumpi\n  revert(0x00, 0x00)\ntag_1:\n  pop\n  dataSize(sub_0)\n  dup1\n  dataOffset(sub_0)\n  0x00\n  codecopy\n  0x00\n  return\nstop\n\nsub_0: assembly {\n        /* \"contracts/Struct/ArrayOfStruct.sol\":68:753  contract ArraytOfStruct {... */\n      mstore(0x40, 0x80)\n      callvalue\n      dup1\n      iszero\n      tag_1\n      jumpi\n      revert(0x00, 0x00)\n    tag_1:\n      pop\n      jumpi(tag_2, lt(calldatasize, 0x04))\n      shr(0xe0, calldataload(0x00))\n      dup1\n      0x17d7de7c\n      eq\n      tag_3\n      jumpi\n      dup1\n      0x52efd685\n      eq\n      tag_4\n      jumpi\n      dup1\n      0x993a04b7\n      eq\n      tag_5\n      jumpi\n      dup1\n      0xa68316ea\n      eq\n      tag_6\n      jumpi\n      dup1\n      0xe0258db7\n      eq\n      tag_7\n      jumpi\n    tag_2:\n      revert(0x00, 0x00)\n        /* \"contracts/Struct/ArrayOfStruct.sol\":565:655  function getName() public view returns (string memory) {... */\n    tag_3:\n      tag_8\n      tag_9\n      jump\t// in\n    tag_8:\n      mload(0x40)\n      tag_10\n      swap2\n      swap1\n      tag_11\n      jump\t// in\n    tag_10:\n      mload(0x40)\n      dup1\n      swap2\n      sub\n      swap1\n      return\n        /* \"contracts/Struct/ArrayOfStruct.sol\":194:213  Student[4] public s */\n    tag_4:\n      tag_12\n      0x04\n      dup1\n      calldatasize\n      sub\n      dup2\n      add\n      swap1\n      tag_13\n      swap2\n      swap1\n      tag_14\n      jump\t// in\n    tag_13:\n      tag_15\n      jump\t// in\n    tag_12:\n      mload(0x40)\n      tag_16\n      swap4\n      swap3\n      swap2\n      swap1\n      tag_17\n      jump\t// in\n    tag_16:\n      mload(0x40)\n      dup1\n      swap2\n      sub\n      swap1\n      return\n        /* \"contracts/Struct/ArrayOfStruct.sol\":472:557  function getter() public view returns (Student[4] memory) {... */\n    tag_5:\n      tag_18\n      tag_19\n      jump\t// in\n    tag_18:\n      mload(0x40)\n      tag_20\n      swap2\n      swap1\n      tag_21\n      jump\t// in\n    tag_20:\n      mload(0x40)\n      dup1\n      swap2\n      sub\n      swap1\n      return\n        /* \"contracts/Struct/ArrayOfStruct.sol\":663:744  function getRoll() public view returns (uint) {... */\n    tag_6:\n      tag_22\n      tag_23\n      jump\t// in\n    tag_22:\n      mload(0x40)\n      tag_24\n      swap2\n      swap1\n      tag_25\n      jump\t// in\n    tag_24:\n      mload(0x40)\n      dup1\n      swap2\n      sub\n      swap1\n      return\n        /* \"contracts/Struct/ArrayOfStruct.sol\":222:464  function insert(uint index, string memory _name, uint _roll, bool _pass) public  {... */\n    tag_7:\n      tag_26\n      0x04\n      dup1\n      calldatasize\n      sub\n      dup2\n      add\n      swap1\n      tag_27\n      swap2\n      swap1\n      tag_28\n      jump\t// in\n    tag_27:\n      tag_29\n      jump\t// in\n    tag_26:\n      stop\n        /* \"contracts/Struct/ArrayOfStruct.sol\":565:655  function getName() public view returns (string memory) {... */\n    tag_9:\n        /* \"contracts/Struct/ArrayOfStruct.sol\":605:618  string memory */\n      0x60\n        /* \"contracts/Struct/ArrayOfStruct.sol\":638:639  s */\n      0x00\n        /* \"contracts/Struct/ArrayOfStruct.sol\":640:641  0 */\n      0x00\n        /* \"contracts/Struct/ArrayOfStruct.sol\":638:642  s[0] */\n      0x04\n      dup2\n      lt\n      tag_31\n      jumpi\n      tag_32\n      tag_33\n      jump\t// in\n    tag_32:\n    tag_31:\n      0x03\n      mul\n      add\n        /* \"contracts/Struct/ArrayOfStruct.sol\":638:647  s[0].name */\n      0x00\n      add\n        /* \"contracts/Struct/ArrayOfStruct.sol\":631:647  return s[0].name */\n      dup1\n      sload\n      tag_35\n      swap1\n      tag_36\n      jump\t// in\n    tag_35:\n      dup1\n      0x1f\n      add\n      0x20\n      dup1\n      swap2\n      div\n      mul\n      0x20\n      add\n      mload(0x40)\n      swap1\n      dup2\n      add\n      0x40\n      mstore\n      dup1\n      swap3\n      swap2\n      swap1\n      dup2\n      dup2\n      mstore\n      0x20\n      add\n      dup3\n      dup1\n      sload\n      tag_37\n      swap1\n      tag_36\n      jump\t// in\n    tag_37:\n      dup1\n      iszero\n      tag_38\n      jumpi\n      dup1\n      0x1f\n      lt\n      tag_39\n      jumpi\n      0x0100\n      dup1\n      dup4\n      sload\n      div\n      mul\n      dup4\n      mstore\n      swap2\n      0x20\n      add\n      swap2\n      jump(tag_38)\n    tag_39:\n      dup3\n      add\n      swap2\n      swap1\n      0x00\n      mstore\n      keccak256(0x00, 0x20)\n      swap1\n    tag_40:\n      dup2\n      sload\n      dup2\n      mstore\n      swap1\n      0x01\n      add\n      swap1\n      0x20\n      add\n      dup1\n      dup4\n      gt\n      tag_40\n      jumpi\n      dup3\n      swap1\n      sub\n      0x1f\n      and\n      dup3\n      add\n      swap2\n    tag_38:\n      pop\n      pop\n      pop\n      pop\n      pop\n      swap1\n      pop\n        /* \"contracts/Struct/ArrayOfStruct.sol\":565:655  function getName() public view returns (string memory) {... */\n      swap1\n      jump\t// out\n        /* \"contracts/Struct/ArrayOfStruct.sol\":194:213  Student[4] public s */\n    tag_15:\n      0x00\n      dup2\n      0x04\n      dup2\n      lt\n      tag_41\n      jumpi\n      0x00\n      dup1\n      revert\n    tag_41:\n      0x03\n      mul\n      add\n      0x00\n      swap2\n      pop\n      swap1\n      pop\n      dup1\n      0x00\n      add\n      dup1\n      sload\n      tag_43\n      swap1\n      tag_36\n      jump\t// in\n    tag_43:\n      dup1\n      0x1f\n      add\n      0x20\n      dup1\n      swap2\n      div\n      mul\n      0x20\n      add\n      mload(0x40)\n      swap1\n      dup2\n      add\n      0x40\n      mstore\n      dup1\n      swap3\n      swap2\n      swap1\n      dup2\n      dup2\n      mstore\n      0x20\n      add\n      dup3\n      dup1\n      sload\n      tag_44\n      swap1\n      tag_36\n      jump\t// in\n    tag_44:\n      dup1\n      iszero\n      tag_45\n      jumpi\n      dup1\n      0x1f\n      lt\n      tag_46\n      jumpi\n      0x0100\n      dup1\n      dup4\n      sload\n      div\n      mul\n      dup4\n      mstore\n      swap2\n      0x20\n      add\n      swap2\n      jump(tag_45)\n    tag_46:\n      dup3\n      add\n      swap2\n      swap1\n      0x00\n      mstore\n      keccak256(0x00, 0x20)\n      swap1\n    tag_47:\n      dup2\n      sload\n      dup2\n      mstore\n      swap1\n      0x01\n      add\n      swap1\n      0x20\n      add\n      dup1\n      dup4\n      gt\n      tag_47\n      jumpi\n      dup3\n      swap1\n      sub\n      0x1f\n      and\n      dup3\n      add\n      swap2\n    tag_45:\n      pop\n      pop\n      pop\n      pop\n      pop\n      swap1\n      dup1\n      0x01\n      add\n      sload\n      swap1\n      dup1\n      0x02\n      add\n      0x00\n      swap1\n      sload\n      swap1\n      0x0100\n      exp\n      swap1\n      div\n      0xff\n      and\n      swap1\n      pop\n      dup4\n      jump\t// out\n        /* \"contracts/Struct/ArrayOfStruct.sol\":472:557  function getter() public view returns (Student[4] memory) {... */\n    tag_19:\n        /* \"contracts/Struct/ArrayOfStruct.sol\":511:528  Student[4] memory */\n      tag_48\n      tag_49\n      jump\t// in\n    tag_48:\n        /* \"contracts/Struct/ArrayOfStruct.sol\":548:549  s */\n      0x00\n        /* \"contracts/Struct/ArrayOfStruct.sol\":541:549  return s */\n      0x04\n      dup1\n      0x20\n      mul\n      mload(0x40)\n      swap1\n      dup2\n      add\n      0x40\n      mstore\n      dup1\n      swap3\n      swap2\n      swap1\n      0x00\n      swap1\n    tag_51:\n      dup3\n      dup3\n      lt\n      iszero\n      tag_52\n      jumpi\n      dup4\n      dup3\n      0x03\n      mul\n      add\n      mload(0x40)\n      dup1\n      0x60\n      add\n      0x40\n      mstore\n      swap1\n      dup2\n      0x00\n      dup3\n      add\n      dup1\n      sload\n      tag_54\n      swap1\n      tag_36\n      jump\t// in\n    tag_54:\n      dup1\n      0x1f\n      add\n      0x20\n      dup1\n      swap2\n      div\n      mul\n      0x20\n      add\n      mload(0x40)\n      swap1\n      dup2\n      add\n      0x40\n      mstore\n      dup1\n      swap3\n      swap2\n      swap1\n      dup2\n      dup2\n      mstore\n      0x20\n      add\n      dup3\n      dup1\n      sload\n      tag_55\n      swap1\n      tag_36\n      jump\t// in\n    tag_55:\n      dup1\n      iszero\n      tag_56\n      jumpi\n      dup1\n      0x1f\n      lt\n      tag_57\n      jumpi\n      0x0100\n      dup1\n      dup4\n      sload\n      div\n      mul\n      dup4\n      mstore\n      swap2\n      0x20\n      add\n      swap2\n      jump(tag_56)\n    tag_57:\n      dup3\n      add\n      swap2\n      swap1\n      0x00\n      mstore\n      keccak256(0x00, 0x20)\n      swap1\n    tag_58:\n      dup2\n      sload\n      dup2\n      mstore\n      swap1\n      0x01\n      add\n      swap1\n      0x20\n      add\n      dup1\n      dup4\n      gt\n      tag_58\n      jumpi\n      dup3\n      swap1\n      sub\n      0x1f\n      and\n      dup3\n      add\n      swap2\n    tag_56:\n      pop\n      pop\n      pop\n      pop\n      pop\n      dup2\n      mstore\n      0x20\n      add\n      0x01\n      dup3\n      add\n      sload\n      dup2\n      mstore\n      0x20\n      add\n      0x02\n      dup3\n      add\n      0x00\n      swap1\n      sload\n      swap1\n      0x0100\n      exp\n      swap1\n      div\n      0xff\n      and\n      iszero\n      iszero\n      iszero\n      iszero\n      dup2\n      mstore\n      pop\n      pop\n      dup2\n      mstore\n      0x20\n      add\n      swap1\n      0x01\n      add\n      swap1\n      jump(tag_51)\n    tag_52:\n      pop\n      pop\n      pop\n      pop\n      swap1\n      pop\n        /* \"contracts/Struct/ArrayOfStruct.sol\":472:557  function getter() public view returns (Student[4] memory) {... */\n      swap1\n      jump\t// out\n        /* \"contracts/Struct/ArrayOfStruct.sol\":663:744  function getRoll() public view returns (uint) {... */\n    tag_23:\n        /* \"contracts/Struct/ArrayOfStruct.sol\":703:707  uint */\n      0x00\n        /* \"contracts/Struct/ArrayOfStruct.sol\":727:728  s */\n      0x00\n        /* \"contracts/Struct/ArrayOfStruct.sol\":729:730  0 */\n      0x00\n        /* \"contracts/Struct/ArrayOfStruct.sol\":727:731  s[0] */\n      0x04\n      dup2\n      lt\n      tag_60\n      jumpi\n      tag_61\n      tag_33\n      jump\t// in\n    tag_61:\n    tag_60:\n      0x03\n      mul\n      add\n        /* \"contracts/Struct/ArrayOfStruct.sol\":727:736  s[0].roll */\n      0x01\n      add\n      sload\n        /* \"contracts/Struct/ArrayOfStruct.sol\":720:736  return s[0].roll */\n      swap1\n      pop\n        /* \"contracts/Struct/ArrayOfStruct.sol\":663:744  function getRoll() public view returns (uint) {... */\n      swap1\n      jump\t// out\n        /* \"contracts/Struct/ArrayOfStruct.sol\":222:464  function insert(uint index, string memory _name, uint _roll, bool _pass) public  {... */\n    tag_29:\n        /* \"contracts/Struct/ArrayOfStruct.sol\":325:351  Student(_name,_roll,_pass) */\n      mload(0x40)\n      dup1\n      0x60\n      add\n      0x40\n      mstore\n      dup1\n        /* \"contracts/Struct/ArrayOfStruct.sol\":333:338  _name */\n      dup5\n        /* \"contracts/Struct/ArrayOfStruct.sol\":325:351  Student(_name,_roll,_pass) */\n      dup2\n      mstore\n      0x20\n      add\n        /* \"contracts/Struct/ArrayOfStruct.sol\":339:344  _roll */\n      dup4\n        /* \"contracts/Struct/ArrayOfStruct.sol\":325:351  Student(_name,_roll,_pass) */\n      dup2\n      mstore\n      0x20\n      add\n        /* \"contracts/Struct/ArrayOfStruct.sol\":345:350  _pass */\n      dup3\n        /* \"contracts/Struct/ArrayOfStruct.sol\":325:351  Student(_name,_roll,_pass) */\n      iszero\n      iszero\n      dup2\n      mstore\n      pop\n        /* \"contracts/Struct/ArrayOfStruct.sol\":314:315  s */\n      0x00\n        /* \"contracts/Struct/ArrayOfStruct.sol\":316:321  index */\n      dup6\n        /* \"contracts/Struct/ArrayOfStruct.sol\":314:322  s[index] */\n      0x04\n      dup2\n      lt\n      tag_64\n      jumpi\n      tag_65\n      tag_33\n      jump\t// in\n    tag_65:\n    tag_64:\n      0x03\n      mul\n      add\n        /* \"contracts/Struct/ArrayOfStruct.sol\":314:351  s[index] = Student(_name,_roll,_pass) */\n      0x00\n      dup3\n      add\n      mload\n      dup2\n      0x00\n      add\n      swap1\n      dup2\n      tag_67\n      swap2\n      swap1\n      tag_68\n      jump\t// in\n    tag_67:\n      pop\n      0x20\n      dup3\n      add\n      mload\n      dup2\n      0x01\n      add\n      sstore\n      0x40\n      dup3\n      add\n      mload\n      dup2\n      0x02\n      add\n      exp(0x0100, 0x00)\n      dup2\n      sload\n      dup2\n      0xff\n      mul\n      not\n      and\n      swap1\n      dup4\n      iszero\n      iszero\n      mul\n      or\n      swap1\n      sstore\n      pop\n      swap1\n      pop\n      pop\n        /* \"contracts/Struct/ArrayOfStruct.sol\":222:464  function insert(uint index, string memory _name, uint _roll, bool _pass) public  {... */\n      pop\n      pop\n      pop\n      pop\n      jump\t// out\n    tag_49:\n      mload(0x40)\n      dup1\n      0x80\n      add\n      0x40\n      mstore\n      dup1\n      0x04\n      swap1\n    tag_69:\n      tag_70\n      tag_71\n      jump\t// in\n    tag_70:\n      dup2\n      mstore\n      0x20\n      add\n      swap1\n      0x01\n      swap1\n      sub\n      swap1\n      dup2\n      tag_69\n      jumpi\n      swap1\n      pop\n      pop\n      swap1\n      jump\t// out\n    tag_71:\n      mload(0x40)\n      dup1\n      0x60\n      add\n      0x40\n      mstore\n      dup1\n      0x60\n      dup2\n      mstore\n      0x20\n      add\n      0x00\n      dup2\n      mstore\n      0x20\n      add\n      iszero(iszero(0x00))\n      dup2\n      mstore\n      pop\n      swap1\n      jump\t// out\n        /* \"#utility.yul\":7:106   */\n    tag_72:\n        /* \"#utility.yul\":59:65   */\n      0x00\n        /* \"#utility.yul\":93:98   */\n      dup2\n        /* \"#utility.yul\":87:99   */\n      mload\n        /* \"#utility.yul\":77:99   */\n      swap1\n      pop\n        /* \"#utility.yul\":7:106   */\n      swap2\n      swap1\n      pop\n      jump\t// out\n        /* \"#utility.yul\":112:281   */\n    tag_73:\n        /* \"#utility.yul\":196:207   */\n      0x00\n        /* \"#utility.yul\":230:236   */\n      dup3\n        /* \"#utility.yul\":225:228   */\n      dup3\n        /* \"#utility.yul\":218:237   */\n      mstore\n        /* \"#utility.yul\":270:274   */\n      0x20\n        /* \"#utility.yul\":265:268   */\n      dup3\n        /* \"#utility.yul\":261:275   */\n      add\n        /* \"#utility.yul\":246:275   */\n      swap1\n      pop\n        /* \"#utility.yul\":112:281   */\n      swap3\n      swap2\n      pop\n      pop\n      jump\t// out\n        /* \"#utility.yul\":287:426   */\n    tag_74:\n        /* \"#utility.yul\":376:382   */\n      dup3\n        /* \"#utility.yul\":371:374   */\n      dup2\n        /* \"#utility.yul\":366:369   */\n      dup4\n        /* \"#utility.yul\":360:383   */\n      mcopy\n        /* \"#utility.yul\":417:418   */\n      0x00\n        /* \"#utility.yul\":408:414   */\n      dup4\n        /* \"#utility.yul\":403:406   */\n      dup4\n        /* \"#utility.yul\":399:415   */\n      add\n        /* \"#utility.yul\":392:419   */\n      mstore\n        /* \"#utility.yul\":287:426   */\n      pop\n      pop\n      pop\n      jump\t// out\n        /* \"#utility.yul\":432:534   */\n    tag_75:\n        /* \"#utility.yul\":473:479   */\n      0x00\n        /* \"#utility.yul\":524:526   */\n      0x1f\n        /* \"#utility.yul\":520:527   */\n      not\n        /* \"#utility.yul\":515:517   */\n      0x1f\n        /* \"#utility.yul\":508:513   */\n      dup4\n        /* \"#utility.yul\":504:518   */\n      add\n        /* \"#utility.yul\":500:528   */\n      and\n        /* \"#utility.yul\":490:528   */\n      swap1\n      pop\n        /* \"#utility.yul\":432:534   */\n      swap2\n      swap1\n      pop\n      jump\t// out\n        /* \"#utility.yul\":540:917   */\n    tag_76:\n        /* \"#utility.yul\":628:631   */\n      0x00\n        /* \"#utility.yul\":656:695   */\n      tag_130\n        /* \"#utility.yul\":689:694   */\n      dup3\n        /* \"#utility.yul\":656:695   */\n      tag_72\n      jump\t// in\n    tag_130:\n        /* \"#utility.yul\":711:782   */\n      tag_131\n        /* \"#utility.yul\":775:781   */\n      dup2\n        /* \"#utility.yul\":770:773   */\n      dup6\n        /* \"#utility.yul\":711:782   */\n      tag_73\n      jump\t// in\n    tag_131:\n        /* \"#utility.yul\":704:782   */\n      swap4\n      pop\n        /* \"#utility.yul\":791:856   */\n      tag_132\n        /* \"#utility.yul\":849:855   */\n      dup2\n        /* \"#utility.yul\":844:847   */\n      dup6\n        /* \"#utility.yul\":837:841   */\n      0x20\n        /* \"#utility.yul\":830:835   */\n      dup7\n        /* \"#utility.yul\":826:842   */\n      add\n        /* \"#utility.yul\":791:856   */\n      tag_74\n      jump\t// in\n    tag_132:\n        /* \"#utility.yul\":881:910   */\n      tag_133\n        /* \"#utility.yul\":903:909   */\n      dup2\n        /* \"#utility.yul\":881:910   */\n      tag_75\n      jump\t// in\n    tag_133:\n        /* \"#utility.yul\":876:879   */\n      dup5\n        /* \"#utility.yul\":872:911   */\n      add\n        /* \"#utility.yul\":865:911   */\n      swap2\n      pop\n        /* \"#utility.yul\":632:917   */\n      pop\n        /* \"#utility.yul\":540:917   */\n      swap3\n      swap2\n      pop\n      pop\n      jump\t// out\n        /* \"#utility.yul\":923:1236   */\n    tag_11:\n        /* \"#utility.yul\":1036:1040   */\n      0x00\n        /* \"#utility.yul\":1074:1076   */\n      0x20\n        /* \"#utility.yul\":1063:1072   */\n      dup3\n        /* \"#utility.yul\":1059:1077   */\n      add\n        /* \"#utility.yul\":1051:1077   */\n      swap1\n      pop\n        /* \"#utility.yul\":1123:1132   */\n      dup2\n        /* \"#utility.yul\":1117:1121   */\n      dup2\n        /* \"#utility.yul\":1113:1133   */\n      sub\n        /* \"#utility.yul\":1109:1110   */\n      0x00\n        /* \"#utility.yul\":1098:1107   */\n      dup4\n        /* \"#utility.yul\":1094:1111   */\n      add\n        /* \"#utility.yul\":1087:1134   */\n      mstore\n        /* \"#utility.yul\":1151:1229   */\n      tag_135\n        /* \"#utility.yul\":1224:1228   */\n      dup2\n        /* \"#utility.yul\":1215:1221   */\n      dup5\n        /* \"#utility.yul\":1151:1229   */\n      tag_76\n      jump\t// in\n    tag_135:\n        /* \"#utility.yul\":1143:1229   */\n      swap1\n      pop\n        /* \"#utility.yul\":923:1236   */\n      swap3\n      swap2\n      pop\n      pop\n      jump\t// out\n        /* \"#utility.yul\":1242:1317   */\n    tag_77:\n        /* \"#utility.yul\":1275:1281   */\n      0x00\n        /* \"#utility.yul\":1308:1310   */\n      0x40\n        /* \"#utility.yul\":1302:1311   */\n      mload\n        /* \"#utility.yul\":1292:1311   */\n      swap1\n      pop\n        /* \"#utility.yul\":1242:1317   */\n      swap1\n      jump\t// out\n        /* \"#utility.yul\":1323:1440   */\n    tag_78:\n        /* \"#utility.yul\":1432:1433   */\n      0x00\n        /* \"#utility.yul\":1429:1430   */\n      0x00\n        /* \"#utility.yul\":1422:1434   */\n      revert\n        /* \"#utility.yul\":1446:1563   */\n    tag_79:\n        /* \"#utility.yul\":1555:1556   */\n      0x00\n        /* \"#utility.yul\":1552:1553   */\n      0x00\n        /* \"#utility.yul\":1545:1557   */\n      revert\n        /* \"#utility.yul\":1569:1646   */\n    tag_80:\n        /* \"#utility.yul\":1606:1613   */\n      0x00\n        /* \"#utility.yul\":1635:1640   */\n      dup2\n        /* \"#utility.yul\":1624:1640   */\n      swap1\n      pop\n        /* \"#utility.yul\":1569:1646   */\n      swap2\n      swap1\n      pop\n      jump\t// out\n        /* \"#utility.yul\":1652:1774   */\n    tag_81:\n        /* \"#utility.yul\":1725:1749   */\n      tag_141\n        /* \"#utility.yul\":1743:1748   */\n      dup2\n        /* \"#utility.yul\":1725:1749   */\n      tag_80\n      jump\t// in\n    tag_141:\n        /* \"#utility.yul\":1718:1723   */\n      dup2\n        /* \"#utility.yul\":1715:1750   */\n      eq\n        /* \"#utility.yul\":1705:1768   */\n      tag_142\n      jumpi\n        /* \"#utility.yul\":1764:1765   */\n      0x00\n        /* \"#utility.yul\":1761:1762   */\n      0x00\n        /* \"#utility.yul\":1754:1766   */\n      revert\n        /* \"#utility.yul\":1705:1768   */\n    tag_142:\n        /* \"#utility.yul\":1652:1774   */\n      pop\n      jump\t// out\n        /* \"#utility.yul\":1780:1919   */\n    tag_82:\n        /* \"#utility.yul\":1826:1831   */\n      0x00\n        /* \"#utility.yul\":1864:1870   */\n      dup2\n        /* \"#utility.yul\":1851:1871   */\n      calldataload\n        /* \"#utility.yul\":1842:1871   */\n      swap1\n      pop\n        /* \"#utility.yul\":1880:1913   */\n      tag_144\n        /* \"#utility.yul\":1907:1912   */\n      dup2\n        /* \"#utility.yul\":1880:1913   */\n      tag_81\n      jump\t// in\n    tag_144:\n        /* \"#utility.yul\":1780:1919   */\n      swap3\n      swap2\n      pop\n      pop\n      jump\t// out\n        /* \"#utility.yul\":1925:2254   */\n    tag_14:\n        /* \"#utility.yul\":1984:1990   */\n      0x00\n        /* \"#utility.yul\":2033:2035   */\n      0x20\n        /* \"#utility.yul\":2021:2030   */\n      dup3\n        /* \"#utility.yul\":2012:2019   */\n      dup5\n        /* \"#utility.yul\":2008:2031   */\n      sub\n        /* \"#utility.yul\":2004:2036   */\n      slt\n        /* \"#utility.yul\":2001:2120   */\n      iszero\n      tag_146\n      jumpi\n        /* \"#utility.yul\":2039:2118   */\n      tag_147\n      tag_78\n      jump\t// in\n    tag_147:\n        /* \"#utility.yul\":2001:2120   */\n    tag_146:\n        /* \"#utility.yul\":2159:2160   */\n      0x00\n        /* \"#utility.yul\":2184:2237   */\n      tag_148\n        /* \"#utility.yul\":2229:2236   */\n      dup5\n        /* \"#utility.yul\":2220:2226   */\n      dup3\n        /* \"#utility.yul\":2209:2218   */\n      dup6\n        /* \"#utility.yul\":2205:2227   */\n      add\n        /* \"#utility.yul\":2184:2237   */\n      tag_82\n      jump\t// in\n    tag_148:\n        /* \"#utility.yul\":2174:2237   */\n      swap2\n      pop\n        /* \"#utility.yul\":2130:2247   */\n      pop\n        /* \"#utility.yul\":1925:2254   */\n      swap3\n      swap2\n      pop\n      pop\n      jump\t// out\n        /* \"#utility.yul\":2260:2378   */\n    tag_83:\n        /* \"#utility.yul\":2347:2371   */\n      tag_150\n        /* \"#utility.yul\":2365:2370   */\n      dup2\n        /* \"#utility.yul\":2347:2371   */\n      tag_80\n      jump\t// in\n    tag_150:\n        /* \"#utility.yul\":2342:2345   */\n      dup3\n        /* \"#utility.yul\":2335:2372   */\n      mstore\n        /* \"#utility.yul\":2260:2378   */\n      pop\n      pop\n      jump\t// out\n        /* \"#utility.yul\":2384:2474   */\n    tag_84:\n        /* \"#utility.yul\":2418:2425   */\n      0x00\n        /* \"#utility.yul\":2461:2466   */\n      dup2\n        /* \"#utility.yul\":2454:2467   */\n      iszero\n        /* \"#utility.yul\":2447:2468   */\n      iszero\n        /* \"#utility.yul\":2436:2468   */\n      swap1\n      pop\n        /* \"#utility.yul\":2384:2474   */\n      swap2\n      swap1\n      pop\n      jump\t// out\n        /* \"#utility.yul\":2480:2589   */\n    tag_85:\n        /* \"#utility.yul\":2561:2582   */\n      tag_153\n        /* \"#utility.yul\":2576:2581   */\n      dup2\n        /* \"#utility.yul\":2561:2582   */\n      tag_84\n      jump\t// in\n    tag_153:\n        /* \"#utility.yul\":2556:2559   */\n      dup3\n        /* \"#utility.yul\":2549:2583   */\n      mstore\n        /* \"#utility.yul\":2480:2589   */\n      pop\n      pop\n      jump\t// out\n        /* \"#utility.yul\":2595:3116   */\n    tag_17:\n        /* \"#utility.yul\":2758:2762   */\n      0x00\n        /* \"#utility.yul\":2796:2798   */\n      0x60\n        /* \"#utility.yul\":2785:2794   */\n      dup3\n        /* \"#utility.yul\":2781:2799   */\n      add\n        /* \"#utility.yul\":2773:2799   */\n      swap1\n      pop\n        /* \"#utility.yul\":2845:2854   */\n      dup2\n        /* \"#utility.yul\":2839:2843   */\n      dup2\n        /* \"#utility.yul\":2835:2855   */\n      sub\n        /* \"#utility.yul\":2831:2832   */\n      0x00\n        /* \"#utility.yul\":2820:2829   */\n      dup4\n        /* \"#utility.yul\":2816:2833   */\n      add\n        /* \"#utility.yul\":2809:2856   */\n      mstore\n        /* \"#utility.yul\":2873:2951   */\n      tag_155\n        /* \"#utility.yul\":2946:2950   */\n      dup2\n        /* \"#utility.yul\":2937:2943   */\n      dup7\n        /* \"#utility.yul\":2873:2951   */\n      tag_76\n      jump\t// in\n    tag_155:\n        /* \"#utility.yul\":2865:2951   */\n      swap1\n      pop\n        /* \"#utility.yul\":2961:3033   */\n      tag_156\n        /* \"#utility.yul\":3029:3031   */\n      0x20\n        /* \"#utility.yul\":3018:3027   */\n      dup4\n        /* \"#utility.yul\":3014:3032   */\n      add\n        /* \"#utility.yul\":3005:3011   */\n      dup6\n        /* \"#utility.yul\":2961:3033   */\n      tag_83\n      jump\t// in\n    tag_156:\n        /* \"#utility.yul\":3043:3109   */\n      tag_157\n        /* \"#utility.yul\":3105:3107   */\n      0x40\n        /* \"#utility.yul\":3094:3103   */\n      dup4\n        /* \"#utility.yul\":3090:3108   */\n      add\n        /* \"#utility.yul\":3081:3087   */\n      dup5\n        /* \"#utility.yul\":3043:3109   */\n      tag_85\n      jump\t// in\n    tag_157:\n        /* \"#utility.yul\":2595:3116   */\n      swap5\n      swap4\n      pop\n      pop\n      pop\n      pop\n      jump\t// out\n        /* \"#utility.yul\":3122:3248   */\n    tag_86:\n        /* \"#utility.yul\":3209:3215   */\n      0x00\n        /* \"#utility.yul\":3237:3241   */\n      0x04\n        /* \"#utility.yul\":3227:3241   */\n      swap1\n      pop\n        /* \"#utility.yul\":3122:3248   */\n      swap2\n      swap1\n      pop\n      jump\t// out\n        /* \"#utility.yul\":3254:3419   */\n    tag_87:\n        /* \"#utility.yul\":3373:3384   */\n      0x00\n        /* \"#utility.yul\":3410:3413   */\n      dup2\n        /* \"#utility.yul\":3395:3413   */\n      swap1\n      pop\n        /* \"#utility.yul\":3254:3419   */\n      swap3\n      swap2\n      pop\n      pop\n      jump\t// out\n        /* \"#utility.yul\":3425:3545   */\n    tag_88:\n        /* \"#utility.yul\":3512:3516   */\n      0x00\n        /* \"#utility.yul\":3535:3538   */\n      dup2\n        /* \"#utility.yul\":3527:3538   */\n      swap1\n      pop\n        /* \"#utility.yul\":3425:3545   */\n      swap2\n      swap1\n      pop\n      jump\t// out\n        /* \"#utility.yul\":3551:3710   */\n    tag_89:\n        /* \"#utility.yul\":3625:3636   */\n      0x00\n        /* \"#utility.yul\":3659:3665   */\n      dup3\n        /* \"#utility.yul\":3654:3657   */\n      dup3\n        /* \"#utility.yul\":3647:3666   */\n      mstore\n        /* \"#utility.yul\":3699:3703   */\n      0x20\n        /* \"#utility.yul\":3694:3697   */\n      dup3\n        /* \"#utility.yul\":3690:3704   */\n      add\n        /* \"#utility.yul\":3675:3704   */\n      swap1\n      pop\n        /* \"#utility.yul\":3551:3710   */\n      swap3\n      swap2\n      pop\n      pop\n      jump\t// out\n        /* \"#utility.yul\":3716:4073   */\n    tag_90:\n        /* \"#utility.yul\":3794:3797   */\n      0x00\n        /* \"#utility.yul\":3822:3861   */\n      tag_163\n        /* \"#utility.yul\":3855:3860   */\n      dup3\n        /* \"#utility.yul\":3822:3861   */\n      tag_72\n      jump\t// in\n    tag_163:\n        /* \"#utility.yul\":3877:3938   */\n      tag_164\n        /* \"#utility.yul\":3931:3937   */\n      dup2\n        /* \"#utility.yul\":3926:3929   */\n      dup6\n        /* \"#utility.yul\":3877:3938   */\n      tag_89\n      jump\t// in\n    tag_164:\n        /* \"#utility.yul\":3870:3938   */\n      swap4\n      pop\n        /* \"#utility.yul\":3947:4012   */\n      tag_165\n        /* \"#utility.yul\":4005:4011   */\n      dup2\n        /* \"#utility.yul\":4000:4003   */\n      dup6\n        /* \"#utility.yul\":3993:3997   */\n      0x20\n        /* \"#utility.yul\":3986:3991   */\n      dup7\n        /* \"#utility.yul\":3982:3998   */\n      add\n        /* \"#utility.yul\":3947:4012   */\n      tag_74\n      jump\t// in\n    tag_165:\n        /* \"#utility.yul\":4037:4066   */\n      tag_166\n        /* \"#utility.yul\":4059:4065   */\n      dup2\n        /* \"#utility.yul\":4037:4066   */\n      tag_75\n      jump\t// in\n    tag_166:\n        /* \"#utility.yul\":4032:4035   */\n      dup5\n        /* \"#utility.yul\":4028:4067   */\n      add\n        /* \"#utility.yul\":4021:4067   */\n      swap2\n      pop\n        /* \"#utility.yul\":3798:4073   */\n      pop\n        /* \"#utility.yul\":3716:4073   */\n      swap3\n      swap2\n      pop\n      pop\n      jump\t// out\n        /* \"#utility.yul\":4079:4187   */\n    tag_91:\n        /* \"#utility.yul\":4156:4180   */\n      tag_168\n        /* \"#utility.yul\":4174:4179   */\n      dup2\n        /* \"#utility.yul\":4156:4180   */\n      tag_80\n      jump\t// in\n    tag_168:\n        /* \"#utility.yul\":4151:4154   */\n      dup3\n        /* \"#utility.yul\":4144:4181   */\n      mstore\n        /* \"#utility.yul\":4079:4187   */\n      pop\n      pop\n      jump\t// out\n        /* \"#utility.yul\":4193:4292   */\n    tag_92:\n        /* \"#utility.yul\":4264:4285   */\n      tag_170\n        /* \"#utility.yul\":4279:4284   */\n      dup2\n        /* \"#utility.yul\":4264:4285   */\n      tag_84\n      jump\t// in\n    tag_170:\n        /* \"#utility.yul\":4259:4262   */\n      dup3\n        /* \"#utility.yul\":4252:4286   */\n      mstore\n        /* \"#utility.yul\":4193:4292   */\n      pop\n      pop\n      jump\t// out\n        /* \"#utility.yul\":4368:5126   */\n    tag_93:\n        /* \"#utility.yul\":4471:4474   */\n      0x00\n        /* \"#utility.yul\":4507:4511   */\n      0x60\n        /* \"#utility.yul\":4502:4505   */\n      dup4\n        /* \"#utility.yul\":4498:4512   */\n      add\n        /* \"#utility.yul\":4594:4598   */\n      0x00\n        /* \"#utility.yul\":4587:4592   */\n      dup4\n        /* \"#utility.yul\":4583:4599   */\n      add\n        /* \"#utility.yul\":4577:4600   */\n      mload\n        /* \"#utility.yul\":4647:4650   */\n      dup5\n        /* \"#utility.yul\":4641:4645   */\n      dup3\n        /* \"#utility.yul\":4637:4651   */\n      sub\n        /* \"#utility.yul\":4630:4634   */\n      0x00\n        /* \"#utility.yul\":4625:4628   */\n      dup7\n        /* \"#utility.yul\":4621:4635   */\n      add\n        /* \"#utility.yul\":4614:4652   */\n      mstore\n        /* \"#utility.yul\":4673:4746   */\n      tag_172\n        /* \"#utility.yul\":4741:4745   */\n      dup3\n        /* \"#utility.yul\":4727:4739   */\n      dup3\n        /* \"#utility.yul\":4673:4746   */\n      tag_90\n      jump\t// in\n    tag_172:\n        /* \"#utility.yul\":4665:4746   */\n      swap2\n      pop\n        /* \"#utility.yul\":4522:4757   */\n      pop\n        /* \"#utility.yul\":4839:4843   */\n      0x20\n        /* \"#utility.yul\":4832:4837   */\n      dup4\n        /* \"#utility.yul\":4828:4844   */\n      add\n        /* \"#utility.yul\":4822:4845   */\n      mload\n        /* \"#utility.yul\":4858:4921   */\n      tag_173\n        /* \"#utility.yul\":4915:4919   */\n      0x20\n        /* \"#utility.yul\":4910:4913   */\n      dup7\n        /* \"#utility.yul\":4906:4920   */\n      add\n        /* \"#utility.yul\":4892:4904   */\n      dup3\n        /* \"#utility.yul\":4858:4921   */\n      tag_91\n      jump\t// in\n    tag_173:\n        /* \"#utility.yul\":4767:4931   */\n      pop\n        /* \"#utility.yul\":5013:5017   */\n      0x40\n        /* \"#utility.yul\":5006:5011   */\n      dup4\n        /* \"#utility.yul\":5002:5018   */\n      add\n        /* \"#utility.yul\":4996:5019   */\n      mload\n        /* \"#utility.yul\":5032:5089   */\n      tag_174\n        /* \"#utility.yul\":5083:5087   */\n      0x40\n        /* \"#utility.yul\":5078:5081   */\n      dup7\n        /* \"#utility.yul\":5074:5088   */\n      add\n        /* \"#utility.yul\":5060:5072   */\n      dup3\n        /* \"#utility.yul\":5032:5089   */\n      tag_92\n      jump\t// in\n    tag_174:\n        /* \"#utility.yul\":4941:5099   */\n      pop\n        /* \"#utility.yul\":5116:5120   */\n      dup1\n        /* \"#utility.yul\":5109:5120   */\n      swap2\n      pop\n        /* \"#utility.yul\":4476:5126   */\n      pop\n        /* \"#utility.yul\":4368:5126   */\n      swap3\n      swap2\n      pop\n      pop\n      jump\t// out\n        /* \"#utility.yul\":5132:5376   */\n    tag_94:\n        /* \"#utility.yul\":5245:5255   */\n      0x00\n        /* \"#utility.yul\":5280:5370   */\n      tag_176\n        /* \"#utility.yul\":5366:5369   */\n      dup4\n        /* \"#utility.yul\":5358:5364   */\n      dup4\n        /* \"#utility.yul\":5280:5370   */\n      tag_93\n      jump\t// in\n    tag_176:\n        /* \"#utility.yul\":5266:5370   */\n      swap1\n      pop\n        /* \"#utility.yul\":5132:5376   */\n      swap3\n      swap2\n      pop\n      pop\n      jump\t// out\n        /* \"#utility.yul\":5382:5515   */\n    tag_95:\n        /* \"#utility.yul\":5472:5476   */\n      0x00\n        /* \"#utility.yul\":5504:5508   */\n      0x20\n        /* \"#utility.yul\":5499:5502   */\n      dup3\n        /* \"#utility.yul\":5495:5509   */\n      add\n        /* \"#utility.yul\":5487:5509   */\n      swap1\n      pop\n        /* \"#utility.yul\":5382:5515   */\n      swap2\n      swap1\n      pop\n      jump\t// out\n        /* \"#utility.yul\":5597:6672   */\n    tag_96:\n        /* \"#utility.yul\":5756:5759   */\n      0x00\n        /* \"#utility.yul\":5785:5859   */\n      tag_179\n        /* \"#utility.yul\":5853:5858   */\n      dup3\n        /* \"#utility.yul\":5785:5859   */\n      tag_86\n      jump\t// in\n    tag_179:\n        /* \"#utility.yul\":5875:5981   */\n      tag_180\n        /* \"#utility.yul\":5974:5980   */\n      dup2\n        /* \"#utility.yul\":5969:5972   */\n      dup6\n        /* \"#utility.yul\":5875:5981   */\n      tag_87\n      jump\t// in\n    tag_180:\n        /* \"#utility.yul\":5868:5981   */\n      swap4\n      pop\n        /* \"#utility.yul\":6007:6010   */\n      dup4\n        /* \"#utility.yul\":6052:6056   */\n      0x20\n        /* \"#utility.yul\":6044:6050   */\n      dup3\n        /* \"#utility.yul\":6040:6057   */\n      mul\n        /* \"#utility.yul\":6035:6038   */\n      dup6\n        /* \"#utility.yul\":6031:6058   */\n      add\n        /* \"#utility.yul\":6082:6158   */\n      tag_181\n        /* \"#utility.yul\":6152:6157   */\n      dup6\n        /* \"#utility.yul\":6082:6158   */\n      tag_88\n      jump\t// in\n    tag_181:\n        /* \"#utility.yul\":6181:6188   */\n      dup1\n        /* \"#utility.yul\":6212:6213   */\n      0x00\n        /* \"#utility.yul\":6197:6627   */\n    tag_182:\n        /* \"#utility.yul\":6222:6228   */\n      dup6\n        /* \"#utility.yul\":6219:6220   */\n      dup2\n        /* \"#utility.yul\":6216:6229   */\n      lt\n        /* \"#utility.yul\":6197:6627   */\n      iszero\n      tag_184\n      jumpi\n        /* \"#utility.yul\":6293:6302   */\n      dup5\n        /* \"#utility.yul\":6287:6291   */\n      dup5\n        /* \"#utility.yul\":6283:6303   */\n      sub\n        /* \"#utility.yul\":6278:6281   */\n      dup10\n        /* \"#utility.yul\":6271:6304   */\n      mstore\n        /* \"#utility.yul\":6344:6350   */\n      dup2\n        /* \"#utility.yul\":6338:6351   */\n      mload\n        /* \"#utility.yul\":6372:6480   */\n      tag_185\n        /* \"#utility.yul\":6475:6479   */\n      dup6\n        /* \"#utility.yul\":6460:6473   */\n      dup3\n        /* \"#utility.yul\":6372:6480   */\n      tag_94\n      jump\t// in\n    tag_185:\n        /* \"#utility.yul\":6364:6480   */\n      swap5\n      pop\n        /* \"#utility.yul\":6503:6583   */\n      tag_186\n        /* \"#utility.yul\":6576:6582   */\n      dup4\n        /* \"#utility.yul\":6503:6583   */\n      tag_95\n      jump\t// in\n    tag_186:\n        /* \"#utility.yul\":6493:6583   */\n      swap3\n      pop\n        /* \"#utility.yul\":6612:6616   */\n      0x20\n        /* \"#utility.yul\":6607:6610   */\n      dup11\n        /* \"#utility.yul\":6603:6617   */\n      add\n        /* \"#utility.yul\":6596:6617   */\n      swap10\n      pop\n        /* \"#utility.yul\":6257:6627   */\n      pop\n        /* \"#utility.yul\":6244:6245   */\n      0x01\n        /* \"#utility.yul\":6241:6242   */\n      dup2\n        /* \"#utility.yul\":6237:6246   */\n      add\n        /* \"#utility.yul\":6232:6246   */\n      swap1\n      pop\n        /* \"#utility.yul\":6197:6627   */\n      jump(tag_182)\n    tag_184:\n        /* \"#utility.yul\":6201:6215   */\n      pop\n        /* \"#utility.yul\":6643:6647   */\n      dup3\n        /* \"#utility.yul\":6636:6647   */\n      swap8\n      pop\n        /* \"#utility.yul\":6663:6666   */\n      dup8\n        /* \"#utility.yul\":6656:6666   */\n      swap6\n      pop\n        /* \"#utility.yul\":5761:6672   */\n      pop\n      pop\n      pop\n      pop\n      pop\n        /* \"#utility.yul\":5597:6672   */\n      swap3\n      swap2\n      pop\n      pop\n      jump\t// out\n        /* \"#utility.yul\":6678:7131   */\n    tag_21:\n        /* \"#utility.yul\":6861:6865   */\n      0x00\n        /* \"#utility.yul\":6899:6901   */\n      0x20\n        /* \"#utility.yul\":6888:6897   */\n      dup3\n        /* \"#utility.yul\":6884:6902   */\n      add\n        /* \"#utility.yul\":6876:6902   */\n      swap1\n      pop\n        /* \"#utility.yul\":6948:6957   */\n      dup2\n        /* \"#utility.yul\":6942:6946   */\n      dup2\n        /* \"#utility.yul\":6938:6958   */\n      sub\n        /* \"#utility.yul\":6934:6935   */\n      0x00\n        /* \"#utility.yul\":6923:6932   */\n      dup4\n        /* \"#utility.yul\":6919:6936   */\n      add\n        /* \"#utility.yul\":6912:6959   */\n      mstore\n        /* \"#utility.yul\":6976:7124   */\n      tag_188\n        /* \"#utility.yul\":7119:7123   */\n      dup2\n        /* \"#utility.yul\":7110:7116   */\n      dup5\n        /* \"#utility.yul\":6976:7124   */\n      tag_96\n      jump\t// in\n    tag_188:\n        /* \"#utility.yul\":6968:7124   */\n      swap1\n      pop\n        /* \"#utility.yul\":6678:7131   */\n      swap3\n      swap2\n      pop\n      pop\n      jump\t// out\n        /* \"#utility.yul\":7137:7359   */\n    tag_25:\n        /* \"#utility.yul\":7230:7234   */\n      0x00\n        /* \"#utility.yul\":7268:7270   */\n      0x20\n        /* \"#utility.yul\":7257:7266   */\n      dup3\n        /* \"#utility.yul\":7253:7271   */\n      add\n        /* \"#utility.yul\":7245:7271   */\n      swap1\n      pop\n        /* \"#utility.yul\":7281:7352   */\n      tag_190\n        /* \"#utility.yul\":7349:7350   */\n      0x00\n        /* \"#utility.yul\":7338:7347   */\n      dup4\n        /* \"#utility.yul\":7334:7351   */\n      add\n        /* \"#utility.yul\":7325:7331   */\n      dup5\n        /* \"#utility.yul\":7281:7352   */\n      tag_83\n      jump\t// in\n    tag_190:\n        /* \"#utility.yul\":7137:7359   */\n      swap3\n      swap2\n      pop\n      pop\n      jump\t// out\n        /* \"#utility.yul\":7365:7482   */\n    tag_97:\n        /* \"#utility.yul\":7474:7475   */\n      0x00\n        /* \"#utility.yul\":7471:7472   */\n      0x00\n        /* \"#utility.yul\":7464:7476   */\n      revert\n        /* \"#utility.yul\":7488:7605   */\n    tag_98:\n        /* \"#utility.yul\":7597:7598   */\n      0x00\n        /* \"#utility.yul\":7594:7595   */\n      0x00\n        /* \"#utility.yul\":7587:7599   */\n      revert\n        /* \"#utility.yul\":7611:7791   */\n    tag_99:\n        /* \"#utility.yul\":7659:7736   */\n      0x4e487b7100000000000000000000000000000000000000000000000000000000\n        /* \"#utility.yul\":7656:7657   */\n      0x00\n        /* \"#utility.yul\":7649:7737   */\n      mstore\n        /* \"#utility.yul\":7756:7760   */\n      0x41\n        /* \"#utility.yul\":7753:7754   */\n      0x04\n        /* \"#utility.yul\":7746:7761   */\n      mstore\n        /* \"#utility.yul\":7780:7784   */\n      0x24\n        /* \"#utility.yul\":7777:7778   */\n      0x00\n        /* \"#utility.yul\":7770:7785   */\n      revert\n        /* \"#utility.yul\":7797:8078   */\n    tag_100:\n        /* \"#utility.yul\":7880:7907   */\n      tag_195\n        /* \"#utility.yul\":7902:7906   */\n      dup3\n        /* \"#utility.yul\":7880:7907   */\n      tag_75\n      jump\t// in\n    tag_195:\n        /* \"#utility.yul\":7872:7878   */\n      dup2\n        /* \"#utility.yul\":7868:7908   */\n      add\n        /* \"#utility.yul\":8010:8016   */\n      dup2\n        /* \"#utility.yul\":7998:8008   */\n      dup2\n        /* \"#utility.yul\":7995:8017   */\n      lt\n        /* \"#utility.yul\":7974:7992   */\n      0xffffffffffffffff\n        /* \"#utility.yul\":7962:7972   */\n      dup3\n        /* \"#utility.yul\":7959:7993   */\n      gt\n        /* \"#utility.yul\":7956:8018   */\n      or\n        /* \"#utility.yul\":7953:8041   */\n      iszero\n      tag_196\n      jumpi\n        /* \"#utility.yul\":8021:8039   */\n      tag_197\n      tag_99\n      jump\t// in\n    tag_197:\n        /* \"#utility.yul\":7953:8041   */\n    tag_196:\n        /* \"#utility.yul\":8061:8071   */\n      dup1\n        /* \"#utility.yul\":8057:8059   */\n      0x40\n        /* \"#utility.yul\":8050:8072   */\n      mstore\n        /* \"#utility.yul\":7840:8078   */\n      pop\n        /* \"#utility.yul\":7797:8078   */\n      pop\n      pop\n      jump\t// out\n        /* \"#utility.yul\":8084:8213   */\n    tag_101:\n        /* \"#utility.yul\":8118:8124   */\n      0x00\n        /* \"#utility.yul\":8145:8165   */\n      tag_199\n      tag_77\n      jump\t// in\n    tag_199:\n        /* \"#utility.yul\":8135:8165   */\n      swap1\n      pop\n        /* \"#utility.yul\":8174:8207   */\n      tag_200\n        /* \"#utility.yul\":8202:8206   */\n      dup3\n        /* \"#utility.yul\":8194:8200   */\n      dup3\n        /* \"#utility.yul\":8174:8207   */\n      tag_100\n      jump\t// in\n    tag_200:\n        /* \"#utility.yul\":8084:8213   */\n      swap2\n      swap1\n      pop\n      jump\t// out\n        /* \"#utility.yul\":8219:8527   */\n    tag_102:\n        /* \"#utility.yul\":8281:8285   */\n      0x00\n        /* \"#utility.yul\":8371:8389   */\n      0xffffffffffffffff\n        /* \"#utility.yul\":8363:8369   */\n      dup3\n        /* \"#utility.yul\":8360:8390   */\n      gt\n        /* \"#utility.yul\":8357:8413   */\n      iszero\n      tag_202\n      jumpi\n        /* \"#utility.yul\":8393:8411   */\n      tag_203\n      tag_99\n      jump\t// in\n    tag_203:\n        /* \"#utility.yul\":8357:8413   */\n    tag_202:\n        /* \"#utility.yul\":8431:8460   */\n      tag_204\n        /* \"#utility.yul\":8453:8459   */\n      dup3\n        /* \"#utility.yul\":8431:8460   */\n      tag_75\n      jump\t// in\n    tag_204:\n        /* \"#utility.yul\":8423:8460   */\n      swap1\n      pop\n        /* \"#utility.yul\":8515:8519   */\n      0x20\n        /* \"#utility.yul\":8509:8513   */\n      dup2\n        /* \"#utility.yul\":8505:8520   */\n      add\n        /* \"#utility.yul\":8497:8520   */\n      swap1\n      pop\n        /* \"#utility.yul\":8219:8527   */\n      swap2\n      swap1\n      pop\n      jump\t// out\n        /* \"#utility.yul\":8533:8681   */\n    tag_103:\n        /* \"#utility.yul\":8631:8637   */\n      dup3\n        /* \"#utility.yul\":8626:8629   */\n      dup2\n        /* \"#utility.yul\":8621:8624   */\n      dup4\n        /* \"#utility.yul\":8608:8638   */\n      calldatacopy\n        /* \"#utility.yul\":8672:8673   */\n      0x00\n        /* \"#utility.yul\":8663:8669   */\n      dup4\n        /* \"#utility.yul\":8658:8661   */\n      dup4\n        /* \"#utility.yul\":8654:8670   */\n      add\n        /* \"#utility.yul\":8647:8674   */\n      mstore\n        /* \"#utility.yul\":8533:8681   */\n      pop\n      pop\n      pop\n      jump\t// out\n        /* \"#utility.yul\":8687:9112   */\n    tag_104:\n        /* \"#utility.yul\":8765:8770   */\n      0x00\n        /* \"#utility.yul\":8790:8856   */\n      tag_207\n        /* \"#utility.yul\":8806:8855   */\n      tag_208\n        /* \"#utility.yul\":8848:8854   */\n      dup5\n        /* \"#utility.yul\":8806:8855   */\n      tag_102\n      jump\t// in\n    tag_208:\n        /* \"#utility.yul\":8790:8856   */\n      tag_101\n      jump\t// in\n    tag_207:\n        /* \"#utility.yul\":8781:8856   */\n      swap1\n      pop\n        /* \"#utility.yul\":8879:8885   */\n      dup3\n        /* \"#utility.yul\":8872:8877   */\n      dup2\n        /* \"#utility.yul\":8865:8886   */\n      mstore\n        /* \"#utility.yul\":8917:8921   */\n      0x20\n        /* \"#utility.yul\":8910:8915   */\n      dup2\n        /* \"#utility.yul\":8906:8922   */\n      add\n        /* \"#utility.yul\":8955:8958   */\n      dup5\n        /* \"#utility.yul\":8946:8952   */\n      dup5\n        /* \"#utility.yul\":8941:8944   */\n      dup5\n        /* \"#utility.yul\":8937:8953   */\n      add\n        /* \"#utility.yul\":8934:8959   */\n      gt\n        /* \"#utility.yul\":8931:9043   */\n      iszero\n      tag_209\n      jumpi\n        /* \"#utility.yul\":8962:9041   */\n      tag_210\n      tag_98\n      jump\t// in\n    tag_210:\n        /* \"#utility.yul\":8931:9043   */\n    tag_209:\n        /* \"#utility.yul\":9052:9106   */\n      tag_211\n        /* \"#utility.yul\":9099:9105   */\n      dup5\n        /* \"#utility.yul\":9094:9097   */\n      dup3\n        /* \"#utility.yul\":9089:9092   */\n      dup6\n        /* \"#utility.yul\":9052:9106   */\n      tag_103\n      jump\t// in\n    tag_211:\n        /* \"#utility.yul\":8771:9112   */\n      pop\n        /* \"#utility.yul\":8687:9112   */\n      swap4\n      swap3\n      pop\n      pop\n      pop\n      jump\t// out\n        /* \"#utility.yul\":9132:9472   */\n    tag_105:\n        /* \"#utility.yul\":9188:9193   */\n      0x00\n        /* \"#utility.yul\":9237:9240   */\n      dup3\n        /* \"#utility.yul\":9230:9234   */\n      0x1f\n        /* \"#utility.yul\":9222:9228   */\n      dup4\n        /* \"#utility.yul\":9218:9235   */\n      add\n        /* \"#utility.yul\":9214:9241   */\n      slt\n        /* \"#utility.yul\":9204:9326   */\n      tag_213\n      jumpi\n        /* \"#utility.yul\":9245:9324   */\n      tag_214\n      tag_97\n      jump\t// in\n    tag_214:\n        /* \"#utility.yul\":9204:9326   */\n    tag_213:\n        /* \"#utility.yul\":9362:9368   */\n      dup2\n        /* \"#utility.yul\":9349:9369   */\n      calldataload\n        /* \"#utility.yul\":9387:9466   */\n      tag_215\n        /* \"#utility.yul\":9462:9465   */\n      dup5\n        /* \"#utility.yul\":9454:9460   */\n      dup3\n        /* \"#utility.yul\":9447:9451   */\n      0x20\n        /* \"#utility.yul\":9439:9445   */\n      dup7\n        /* \"#utility.yul\":9435:9452   */\n      add\n        /* \"#utility.yul\":9387:9466   */\n      tag_104\n      jump\t// in\n    tag_215:\n        /* \"#utility.yul\":9378:9466   */\n      swap2\n      pop\n        /* \"#utility.yul\":9194:9472   */\n      pop\n        /* \"#utility.yul\":9132:9472   */\n      swap3\n      swap2\n      pop\n      pop\n      jump\t// out\n        /* \"#utility.yul\":9478:9594   */\n    tag_106:\n        /* \"#utility.yul\":9548:9569   */\n      tag_217\n        /* \"#utility.yul\":9563:9568   */\n      dup2\n        /* \"#utility.yul\":9548:9569   */\n      tag_84\n      jump\t// in\n    tag_217:\n        /* \"#utility.yul\":9541:9546   */\n      dup2\n        /* \"#utility.yul\":9538:9570   */\n      eq\n        /* \"#utility.yul\":9528:9588   */\n      tag_218\n      jumpi\n        /* \"#utility.yul\":9584:9585   */\n      0x00\n        /* \"#utility.yul\":9581:9582   */\n      0x00\n        /* \"#utility.yul\":9574:9586   */\n      revert\n        /* \"#utility.yul\":9528:9588   */\n    tag_218:\n        /* \"#utility.yul\":9478:9594   */\n      pop\n      jump\t// out\n        /* \"#utility.yul\":9600:9733   */\n    tag_107:\n        /* \"#utility.yul\":9643:9648   */\n      0x00\n        /* \"#utility.yul\":9681:9687   */\n      dup2\n        /* \"#utility.yul\":9668:9688   */\n      calldataload\n        /* \"#utility.yul\":9659:9688   */\n      swap1\n      pop\n        /* \"#utility.yul\":9697:9727   */\n      tag_220\n        /* \"#utility.yul\":9721:9726   */\n      dup2\n        /* \"#utility.yul\":9697:9727   */\n      tag_106\n      jump\t// in\n    tag_220:\n        /* \"#utility.yul\":9600:9733   */\n      swap3\n      swap2\n      pop\n      pop\n      jump\t// out\n        /* \"#utility.yul\":9739:10678   */\n    tag_28:\n        /* \"#utility.yul\":9832:9838   */\n      0x00\n        /* \"#utility.yul\":9840:9846   */\n      0x00\n        /* \"#utility.yul\":9848:9854   */\n      0x00\n        /* \"#utility.yul\":9856:9862   */\n      0x00\n        /* \"#utility.yul\":9905:9908   */\n      0x80\n        /* \"#utility.yul\":9893:9902   */\n      dup6\n        /* \"#utility.yul\":9884:9891   */\n      dup8\n        /* \"#utility.yul\":9880:9903   */\n      sub\n        /* \"#utility.yul\":9876:9909   */\n      slt\n        /* \"#utility.yul\":9873:9993   */\n      iszero\n      tag_222\n      jumpi\n        /* \"#utility.yul\":9912:9991   */\n      tag_223\n      tag_78\n      jump\t// in\n    tag_223:\n        /* \"#utility.yul\":9873:9993   */\n    tag_222:\n        /* \"#utility.yul\":10032:10033   */\n      0x00\n        /* \"#utility.yul\":10057:10110   */\n      tag_224\n        /* \"#utility.yul\":10102:10109   */\n      dup8\n        /* \"#utility.yul\":10093:10099   */\n      dup3\n        /* \"#utility.yul\":10082:10091   */\n      dup9\n        /* \"#utility.yul\":10078:10100   */\n      add\n        /* \"#utility.yul\":10057:10110   */\n      tag_82\n      jump\t// in\n    tag_224:\n        /* \"#utility.yul\":10047:10110   */\n      swap5\n      pop\n        /* \"#utility.yul\":10003:10120   */\n      pop\n        /* \"#utility.yul\":10187:10189   */\n      0x20\n        /* \"#utility.yul\":10176:10185   */\n      dup6\n        /* \"#utility.yul\":10172:10190   */\n      add\n        /* \"#utility.yul\":10159:10191   */\n      calldataload\n        /* \"#utility.yul\":10218:10236   */\n      0xffffffffffffffff\n        /* \"#utility.yul\":10210:10216   */\n      dup2\n        /* \"#utility.yul\":10207:10237   */\n      gt\n        /* \"#utility.yul\":10204:10321   */\n      iszero\n      tag_225\n      jumpi\n        /* \"#utility.yul\":10240:10319   */\n      tag_226\n      tag_79\n      jump\t// in\n    tag_226:\n        /* \"#utility.yul\":10204:10321   */\n    tag_225:\n        /* \"#utility.yul\":10345:10408   */\n      tag_227\n        /* \"#utility.yul\":10400:10407   */\n      dup8\n        /* \"#utility.yul\":10391:10397   */\n      dup3\n        /* \"#utility.yul\":10380:10389   */\n      dup9\n        /* \"#utility.yul\":10376:10398   */\n      add\n        /* \"#utility.yul\":10345:10408   */\n      tag_105\n      jump\t// in\n    tag_227:\n        /* \"#utility.yul\":10335:10408   */\n      swap4\n      pop\n        /* \"#utility.yul\":10130:10418   */\n      pop\n        /* \"#utility.yul\":10457:10459   */\n      0x40\n        /* \"#utility.yul\":10483:10536   */\n      tag_228\n        /* \"#utility.yul\":10528:10535   */\n      dup8\n        /* \"#utility.yul\":10519:10525   */\n      dup3\n        /* \"#utility.yul\":10508:10517   */\n      dup9\n        /* \"#utility.yul\":10504:10526   */\n      add\n        /* \"#utility.yul\":10483:10536   */\n      tag_82\n      jump\t// in\n    tag_228:\n        /* \"#utility.yul\":10473:10536   */\n      swap3\n      pop\n        /* \"#utility.yul\":10428:10546   */\n      pop\n        /* \"#utility.yul\":10585:10587   */\n      0x60\n        /* \"#utility.yul\":10611:10661   */\n      tag_229\n        /* \"#utility.yul\":10653:10660   */\n      dup8\n        /* \"#utility.yul\":10644:10650   */\n      dup3\n        /* \"#utility.yul\":10633:10642   */\n      dup9\n        /* \"#utility.yul\":10629:10651   */\n      add\n        /* \"#utility.yul\":10611:10661   */\n      tag_107\n      jump\t// in\n    tag_229:\n        /* \"#utility.yul\":10601:10661   */\n      swap2\n      pop\n        /* \"#utility.yul\":10556:10671   */\n      pop\n        /* \"#utility.yul\":9739:10678   */\n      swap3\n      swap6\n      swap2\n      swap5\n      pop\n      swap3\n      pop\n      jump\t// out\n        /* \"#utility.yul\":10684:10864   */\n    tag_33:\n        /* \"#utility.yul\":10732:10809   */\n      0x4e487b7100000000000000000000000000000000000000000000000000000000\n        /* \"#utility.yul\":10729:10730   */\n      0x00\n        /* \"#utility.yul\":10722:10810   */\n      mstore\n        /* \"#utility.yul\":10829:10833   */\n      0x32\n        /* \"#utility.yul\":10826:10827   */\n      0x04\n        /* \"#utility.yul\":10819:10834   */\n      mstore\n        /* \"#utility.yul\":10853:10857   */\n      0x24\n        /* \"#utility.yul\":10850:10851   */\n      0x00\n        /* \"#utility.yul\":10843:10858   */\n      revert\n        /* \"#utility.yul\":10870:11050   */\n    tag_108:\n        /* \"#utility.yul\":10918:10995   */\n      0x4e487b7100000000000000000000000000000000000000000000000000000000\n        /* \"#utility.yul\":10915:10916   */\n      0x00\n        /* \"#utility.yul\":10908:10996   */\n      mstore\n        /* \"#utility.yul\":11015:11019   */\n      0x22\n        /* \"#utility.yul\":11012:11013   */\n      0x04\n        /* \"#utility.yul\":11005:11020   */\n      mstore\n        /* \"#utility.yul\":11039:11043   */\n      0x24\n        /* \"#utility.yul\":11036:11037   */\n      0x00\n        /* \"#utility.yul\":11029:11044   */\n      revert\n        /* \"#utility.yul\":11056:11376   */\n    tag_36:\n        /* \"#utility.yul\":11100:11106   */\n      0x00\n        /* \"#utility.yul\":11137:11138   */\n      0x02\n        /* \"#utility.yul\":11131:11135   */\n      dup3\n        /* \"#utility.yul\":11127:11139   */\n      div\n        /* \"#utility.yul\":11117:11139   */\n      swap1\n      pop\n        /* \"#utility.yul\":11184:11185   */\n      0x01\n        /* \"#utility.yul\":11178:11182   */\n      dup3\n        /* \"#utility.yul\":11174:11186   */\n      and\n        /* \"#utility.yul\":11205:11223   */\n      dup1\n        /* \"#utility.yul\":11195:11276   */\n      tag_233\n      jumpi\n        /* \"#utility.yul\":11261:11265   */\n      0x7f\n        /* \"#utility.yul\":11253:11259   */\n      dup3\n        /* \"#utility.yul\":11249:11266   */\n      and\n        /* \"#utility.yul\":11239:11266   */\n      swap2\n      pop\n        /* \"#utility.yul\":11195:11276   */\n    tag_233:\n        /* \"#utility.yul\":11323:11325   */\n      0x20\n        /* \"#utility.yul\":11315:11321   */\n      dup3\n        /* \"#utility.yul\":11312:11326   */\n      lt\n        /* \"#utility.yul\":11292:11310   */\n      dup2\n        /* \"#utility.yul\":11289:11327   */\n      sub\n        /* \"#utility.yul\":11286:11370   */\n      tag_234\n      jumpi\n        /* \"#utility.yul\":11342:11360   */\n      tag_235\n      tag_108\n      jump\t// in\n    tag_235:\n        /* \"#utility.yul\":11286:11370   */\n    tag_234:\n        /* \"#utility.yul\":11107:11376   */\n      pop\n        /* \"#utility.yul\":11056:11376   */\n      swap2\n      swap1\n      pop\n      jump\t// out\n        /* \"#utility.yul\":11382:11523   */\n    tag_109:\n        /* \"#utility.yul\":11431:11435   */\n      0x00\n        /* \"#utility.yul\":11454:11457   */\n      dup2\n        /* \"#utility.yul\":11446:11457   */\n      swap1\n      pop\n        /* \"#utility.yul\":11477:11480   */\n      dup2\n        /* \"#utility.yul\":11474:11475   */\n      0x00\n        /* \"#utility.yul\":11467:11481   */\n      mstore\n        /* \"#utility.yul\":11511:11515   */\n      0x20\n        /* \"#utility.yul\":11508:11509   */\n      0x00\n        /* \"#utility.yul\":11498:11516   */\n      keccak256\n        /* \"#utility.yul\":11490:11516   */\n      swap1\n      pop\n        /* \"#utility.yul\":11382:11523   */\n      swap2\n      swap1\n      pop\n      jump\t// out\n        /* \"#utility.yul\":11529:11622   */\n    tag_110:\n        /* \"#utility.yul\":11566:11572   */\n      0x00\n        /* \"#utility.yul\":11613:11615   */\n      0x20\n        /* \"#utility.yul\":11608:11610   */\n      0x1f\n        /* \"#utility.yul\":11601:11606   */\n      dup4\n        /* \"#utility.yul\":11597:11611   */\n      add\n        /* \"#utility.yul\":11593:11616   */\n      div\n        /* \"#utility.yul\":11583:11616   */\n      swap1\n      pop\n        /* \"#utility.yul\":11529:11622   */\n      swap2\n      swap1\n      pop\n      jump\t// out\n        /* \"#utility.yul\":11628:11735   */\n    tag_111:\n        /* \"#utility.yul\":11672:11680   */\n      0x00\n        /* \"#utility.yul\":11722:11727   */\n      dup3\n        /* \"#utility.yul\":11716:11720   */\n      dup3\n        /* \"#utility.yul\":11712:11728   */\n      shl\n        /* \"#utility.yul\":11691:11728   */\n      swap1\n      pop\n        /* \"#utility.yul\":11628:11735   */\n      swap3\n      swap2\n      pop\n      pop\n      jump\t// out\n        /* \"#utility.yul\":11741:12134   */\n    tag_112:\n        /* \"#utility.yul\":11810:11816   */\n      0x00\n        /* \"#utility.yul\":11860:11861   */\n      0x08\n        /* \"#utility.yul\":11848:11858   */\n      dup4\n        /* \"#utility.yul\":11844:11862   */\n      mul\n        /* \"#utility.yul\":11883:11980   */\n      tag_240\n        /* \"#utility.yul\":11913:11979   */\n      0xffffffffffffffffffffffffffffffffffffffffffffffffffffffffffffffff\n        /* \"#utility.yul\":11902:11911   */\n      dup3\n        /* \"#utility.yul\":11883:11980   */\n      tag_111\n      jump\t// in\n    tag_240:\n        /* \"#utility.yul\":12001:12040   */\n      tag_241\n        /* \"#utility.yul\":12031:12039   */\n      dup7\n        /* \"#utility.yul\":12020:12029   */\n      dup4\n        /* \"#utility.yul\":12001:12040   */\n      tag_111\n      jump\t// in\n    tag_241:\n        /* \"#utility.yul\":11989:12040   */\n      swap6\n      pop\n        /* \"#utility.yul\":12073:12077   */\n      dup1\n        /* \"#utility.yul\":12069:12078   */\n      not\n        /* \"#utility.yul\":12062:12067   */\n      dup5\n        /* \"#utility.yul\":12058:12079   */\n      and\n        /* \"#utility.yul\":12049:12079   */\n      swap4\n      pop\n        /* \"#utility.yul\":12122:12126   */\n      dup1\n        /* \"#utility.yul\":12112:12120   */\n      dup7\n        /* \"#utility.yul\":12108:12127   */\n      and\n        /* \"#utility.yul\":12101:12106   */\n      dup5\n        /* \"#utility.yul\":12098:12128   */\n      or\n        /* \"#utility.yul\":12088:12128   */\n      swap3\n      pop\n        /* \"#utility.yul\":11817:12134   */\n      pop\n      pop\n        /* \"#utility.yul\":11741:12134   */\n      swap4\n      swap3\n      pop\n      pop\n      pop\n      jump\t// out\n        /* \"#utility.yul\":12140:12200   */\n    tag_113:\n        /* \"#utility.yul\":12168:12171   */\n      0x00\n        /* \"#utility.yul\":12189:12194   */\n      dup2\n        /* \"#utility.yul\":12182:12194   */\n      swap1\n      pop\n        /* \"#utility.yul\":12140:12200   */\n      swap2\n      swap1\n      pop\n      jump\t// out\n        /* \"#utility.yul\":12206:12348   */\n    tag_114:\n        /* \"#utility.yul\":12256:12265   */\n      0x00\n        /* \"#utility.yul\":12289:12342   */\n      tag_244\n        /* \"#utility.yul\":12307:12341   */\n      tag_245\n        /* \"#utility.yul\":12316:12340   */\n      tag_246\n        /* \"#utility.yul\":12334:12339   */\n      dup5\n        /* \"#utility.yul\":12316:12340   */\n      tag_80\n      jump\t// in\n    tag_246:\n        /* \"#utility.yul\":12307:12341   */\n      tag_113\n      jump\t// in\n    tag_245:\n        /* \"#utility.yul\":12289:12342   */\n      tag_80\n      jump\t// in\n    tag_244:\n        /* \"#utility.yul\":12276:12342   */\n      swap1\n      pop\n        /* \"#utility.yul\":12206:12348   */\n      swap2\n      swap1\n      pop\n      jump\t// out\n        /* \"#utility.yul\":12354:12429   */\n    tag_115:\n        /* \"#utility.yul\":12397:12400   */\n      0x00\n        /* \"#utility.yul\":12418:12423   */\n      dup2\n        /* \"#utility.yul\":12411:12423   */\n      swap1\n      pop\n        /* \"#utility.yul\":12354:12429   */\n      swap2\n      swap1\n      pop\n      jump\t// out\n        /* \"#utility.yul\":12435:12704   */\n    tag_116:\n        /* \"#utility.yul\":12545:12584   */\n      tag_249\n        /* \"#utility.yul\":12576:12583   */\n      dup4\n        /* \"#utility.yul\":12545:12584   */\n      tag_114\n      jump\t// in\n    tag_249:\n        /* \"#utility.yul\":12606:12697   */\n      tag_250\n        /* \"#utility.yul\":12655:12696   */\n      tag_251\n        /* \"#utility.yul\":12679:12695   */\n      dup3\n        /* \"#utility.yul\":12655:12696   */\n      tag_115\n      jump\t// in\n    tag_251:\n        /* \"#utility.yul\":12647:12653   */\n      dup5\n        /* \"#utility.yul\":12640:12644   */\n      dup5\n        /* \"#utility.yul\":12634:12645   */\n      sload\n        /* \"#utility.yul\":12606:12697   */\n      tag_112\n      jump\t// in\n    tag_250:\n        /* \"#utility.yul\":12600:12604   */\n      dup3\n        /* \"#utility.yul\":12593:12698   */\n      sstore\n        /* \"#utility.yul\":12511:12704   */\n      pop\n        /* \"#utility.yul\":12435:12704   */\n      pop\n      pop\n      pop\n      jump\t// out\n        /* \"#utility.yul\":12710:12783   */\n    tag_117:\n        /* \"#utility.yul\":12755:12758   */\n      0x00\n        /* \"#utility.yul\":12776:12777   */\n      0x00\n        /* \"#utility.yul\":12769:12777   */\n      swap1\n      pop\n        /* \"#utility.yul\":12710:12783   */\n      swap1\n      jump\t// out\n        /* \"#utility.yul\":12789:12978   */\n    tag_118:\n        /* \"#utility.yul\":12866:12898   */\n      tag_254\n      tag_117\n      jump\t// in\n    tag_254:\n        /* \"#utility.yul\":12907:12972   */\n      tag_255\n        /* \"#utility.yul\":12965:12971   */\n      dup2\n        /* \"#utility.yul\":12957:12963   */\n      dup5\n        /* \"#utility.yul\":12951:12955   */\n      dup5\n        /* \"#utility.yul\":12907:12972   */\n      tag_116\n      jump\t// in\n    tag_255:\n        /* \"#utility.yul\":12842:12978   */\n      pop\n        /* \"#utility.yul\":12789:12978   */\n      pop\n      pop\n      jump\t// out\n        /* \"#utility.yul\":12984:13170   */\n    tag_119:\n        /* \"#utility.yul\":13044:13164   */\n    tag_257:\n        /* \"#utility.yul\":13061:13064   */\n      dup2\n        /* \"#utility.yul\":13054:13059   */\n      dup2\n        /* \"#utility.yul\":13051:13065   */\n      lt\n        /* \"#utility.yul\":13044:13164   */\n      iszero\n      tag_259\n      jumpi\n        /* \"#utility.yul\":13115:13154   */\n      tag_260\n        /* \"#utility.yul\":13152:13153   */\n      0x00\n        /* \"#utility.yul\":13145:13150   */\n      dup3\n        /* \"#utility.yul\":13115:13154   */\n      tag_118\n      jump\t// in\n    tag_260:\n        /* \"#utility.yul\":13088:13089   */\n      0x01\n        /* \"#utility.yul\":13081:13086   */\n      dup2\n        /* \"#utility.yul\":13077:13090   */\n      add\n        /* \"#utility.yul\":13068:13090   */\n      swap1\n      pop\n        /* \"#utility.yul\":13044:13164   */\n      jump(tag_257)\n    tag_259:\n        /* \"#utility.yul\":12984:13170   */\n      pop\n      pop\n      jump\t// out\n        /* \"#utility.yul\":13176:13719   */\n    tag_120:\n        /* \"#utility.yul\":13277:13279   */\n      0x1f\n        /* \"#utility.yul\":13272:13275   */\n      dup3\n        /* \"#utility.yul\":13269:13280   */\n      gt\n        /* \"#utility.yul\":13266:13712   */\n      iszero\n      tag_262\n      jumpi\n        /* \"#utility.yul\":13311:13349   */\n      tag_263\n        /* \"#utility.yul\":13343:13348   */\n      dup2\n        /* \"#utility.yul\":13311:13349   */\n      tag_109\n      jump\t// in\n    tag_263:\n        /* \"#utility.yul\":13395:13424   */\n      tag_264\n        /* \"#utility.yul\":13413:13423   */\n      dup5\n        /* \"#utility.yul\":13395:13424   */\n      tag_110\n      jump\t// in\n    tag_264:\n        /* \"#utility.yul\":13385:13393   */\n      dup2\n        /* \"#utility.yul\":13381:13425   */\n      add\n        /* \"#utility.yul\":13578:13580   */\n      0x20\n        /* \"#utility.yul\":13566:13576   */\n      dup6\n        /* \"#utility.yul\":13563:13581   */\n      lt\n        /* \"#utility.yul\":13560:13609   */\n      iszero\n      tag_265\n      jumpi\n        /* \"#utility.yul\":13599:13607   */\n      dup2\n        /* \"#utility.yul\":13584:13607   */\n      swap1\n      pop\n        /* \"#utility.yul\":13560:13609   */\n    tag_265:\n        /* \"#utility.yul\":13622:13702   */\n      tag_266\n        /* \"#utility.yul\":13678:13700   */\n      tag_267\n        /* \"#utility.yul\":13696:13699   */\n      dup6\n        /* \"#utility.yul\":13678:13700   */\n      tag_110\n      jump\t// in\n    tag_267:\n        /* \"#utility.yul\":13668:13676   */\n      dup4\n        /* \"#utility.yul\":13664:13701   */\n      add\n        /* \"#utility.yul\":13651:13662   */\n      dup3\n        /* \"#utility.yul\":13622:13702   */\n      tag_119\n      jump\t// in\n    tag_266:\n        /* \"#utility.yul\":13281:13712   */\n      pop\n      pop\n        /* \"#utility.yul\":13266:13712   */\n    tag_262:\n        /* \"#utility.yul\":13176:13719   */\n      pop\n      pop\n      pop\n      jump\t// out\n        /* \"#utility.yul\":13725:13842   */\n    tag_121:\n        /* \"#utility.yul\":13779:13787   */\n      0x00\n        /* \"#utility.yul\":13829:13834   */\n      dup3\n        /* \"#utility.yul\":13823:13827   */\n      dup3\n        /* \"#utility.yul\":13819:13835   */\n      shr\n        /* \"#utility.yul\":13798:13835   */\n      swap1\n      pop\n        /* \"#utility.yul\":13725:13842   */\n      swap3\n      swap2\n      pop\n      pop\n      jump\t// out\n        /* \"#utility.yul\":13848:14017   */\n    tag_122:\n        /* \"#utility.yul\":13892:13898   */\n      0x00\n        /* \"#utility.yul\":13925:13976   */\n      tag_270\n        /* \"#utility.yul\":13973:13974   */\n      0x00\n        /* \"#utility.yul\":13969:13975   */\n      not\n        /* \"#utility.yul\":13961:13966   */\n      dup5\n        /* \"#utility.yul\":13958:13959   */\n      0x08\n        /* \"#utility.yul\":13954:13967   */\n      mul\n        /* \"#utility.yul\":13925:13976   */\n      tag_121\n      jump\t// in\n    tag_270:\n        /* \"#utility.yul\":13921:13977   */\n      not\n        /* \"#utility.yul\":14006:14010   */\n      dup1\n        /* \"#utility.yul\":14000:14004   */\n      dup4\n        /* \"#utility.yul\":13996:14011   */\n      and\n        /* \"#utility.yul\":13986:14011   */\n      swap2\n      pop\n        /* \"#utility.yul\":13899:14017   */\n      pop\n        /* \"#utility.yul\":13848:14017   */\n      swap3\n      swap2\n      pop\n      pop\n      jump\t// out\n        /* \"#utility.yul\":14022:14317   */\n    tag_123:\n        /* \"#utility.yul\":14098:14102   */\n      0x00\n        /* \"#utility.yul\":14244:14273   */\n      tag_272\n        /* \"#utility.yul\":14269:14272   */\n      dup4\n        /* \"#utility.yul\":14263:14267   */\n      dup4\n        /* \"#utility.yul\":14244:14273   */\n      tag_122\n      jump\t// in\n    tag_272:\n        /* \"#utility.yul\":14236:14273   */\n      swap2\n      pop\n        /* \"#utility.yul\":14306:14309   */\n      dup3\n        /* \"#utility.yul\":14303:14304   */\n      0x02\n        /* \"#utility.yul\":14299:14310   */\n      mul\n        /* \"#utility.yul\":14293:14297   */\n      dup3\n        /* \"#utility.yul\":14290:14311   */\n      or\n        /* \"#utility.yul\":14282:14311   */\n      swap1\n      pop\n        /* \"#utility.yul\":14022:14317   */\n      swap3\n      swap2\n      pop\n      pop\n      jump\t// out\n        /* \"#utility.yul\":14322:15717   */\n    tag_68:\n        /* \"#utility.yul\":14439:14476   */\n      tag_274\n        /* \"#utility.yul\":14472:14475   */\n      dup3\n        /* \"#utility.yul\":14439:14476   */\n      tag_72\n      jump\t// in\n    tag_274:\n        /* \"#utility.yul\":14541:14559   */\n      0xffffffffffffffff\n        /* \"#utility.yul\":14533:14539   */\n      dup2\n        /* \"#utility.yul\":14530:14560   */\n      gt\n        /* \"#utility.yul\":14527:14583   */\n      iszero\n      tag_275\n      jumpi\n        /* \"#utility.yul\":14563:14581   */\n      tag_276\n      tag_99\n      jump\t// in\n    tag_276:\n        /* \"#utility.yul\":14527:14583   */\n    tag_275:\n        /* \"#utility.yul\":14607:14645   */\n      tag_277\n        /* \"#utility.yul\":14639:14643   */\n      dup3\n        /* \"#utility.yul\":14633:14644   */\n      sload\n        /* \"#utility.yul\":14607:14645   */\n      tag_36\n      jump\t// in\n    tag_277:\n        /* \"#utility.yul\":14692:14759   */\n      tag_278\n        /* \"#utility.yul\":14752:14758   */\n      dup3\n        /* \"#utility.yul\":14744:14750   */\n      dup3\n        /* \"#utility.yul\":14738:14742   */\n      dup6\n        /* \"#utility.yul\":14692:14759   */\n      tag_120\n      jump\t// in\n    tag_278:\n        /* \"#utility.yul\":14786:14787   */\n      0x00\n        /* \"#utility.yul\":14810:14814   */\n      0x20\n        /* \"#utility.yul\":14797:14814   */\n      swap1\n      pop\n        /* \"#utility.yul\":14842:14844   */\n      0x1f\n        /* \"#utility.yul\":14834:14840   */\n      dup4\n        /* \"#utility.yul\":14831:14845   */\n      gt\n        /* \"#utility.yul\":14859:14860   */\n      0x01\n        /* \"#utility.yul\":14854:15472   */\n      dup2\n      eq\n      tag_280\n      jumpi\n        /* \"#utility.yul\":15516:15517   */\n      0x00\n        /* \"#utility.yul\":15533:15539   */\n      dup5\n        /* \"#utility.yul\":15530:15607   */\n      iszero\n      tag_281\n      jumpi\n        /* \"#utility.yul\":15582:15591   */\n      dup3\n        /* \"#utility.yul\":15577:15580   */\n      dup8\n        /* \"#utility.yul\":15573:15592   */\n      add\n        /* \"#utility.yul\":15567:15593   */\n      mload\n        /* \"#utility.yul\":15558:15593   */\n      swap1\n      pop\n        /* \"#utility.yul\":15530:15607   */\n    tag_281:\n        /* \"#utility.yul\":15633:15700   */\n      tag_282\n        /* \"#utility.yul\":15693:15699   */\n      dup6\n        /* \"#utility.yul\":15686:15691   */\n      dup3\n        /* \"#utility.yul\":15633:15700   */\n      tag_123\n      jump\t// in\n    tag_282:\n        /* \"#utility.yul\":15627:15631   */\n      dup7\n        /* \"#utility.yul\":15620:15701   */\n      sstore\n        /* \"#utility.yul\":15489:15711   */\n      pop\n        /* \"#utility.yul\":14824:15711   */\n      jump(tag_279)\n        /* \"#utility.yul\":14854:15472   */\n    tag_280:\n        /* \"#utility.yul\":14906:14910   */\n      0x1f\n        /* \"#utility.yul\":14902:14911   */\n      not\n        /* \"#utility.yul\":14894:14900   */\n      dup5\n        /* \"#utility.yul\":14890:14912   */\n      and\n        /* \"#utility.yul\":14940:14977   */\n      tag_283\n        /* \"#utility.yul\":14972:14976   */\n      dup7\n        /* \"#utility.yul\":14940:14977   */\n      tag_109\n      jump\t// in\n    tag_283:\n        /* \"#utility.yul\":14999:15000   */\n      0x00\n        /* \"#utility.yul\":15013:15221   */\n    tag_284:\n        /* \"#utility.yul\":15027:15034   */\n      dup3\n        /* \"#utility.yul\":15024:15025   */\n      dup2\n        /* \"#utility.yul\":15021:15035   */\n      lt\n        /* \"#utility.yul\":15013:15221   */\n      iszero\n      tag_286\n      jumpi\n        /* \"#utility.yul\":15106:15115   */\n      dup5\n        /* \"#utility.yul\":15101:15104   */\n      dup10\n        /* \"#utility.yul\":15097:15116   */\n      add\n        /* \"#utility.yul\":15091:15117   */\n      mload\n        /* \"#utility.yul\":15083:15089   */\n      dup3\n        /* \"#utility.yul\":15076:15118   */\n      sstore\n        /* \"#utility.yul\":15157:15158   */\n      0x01\n        /* \"#utility.yul\":15149:15155   */\n      dup3\n        /* \"#utility.yul\":15145:15159   */\n      add\n        /* \"#utility.yul\":15135:15159   */\n      swap2\n      pop\n        /* \"#utility.yul\":15204:15206   */\n      0x20\n        /* \"#utility.yul\":15193:15202   */\n      dup6\n        /* \"#utility.yul\":15189:15207   */\n      add\n        /* \"#utility.yul\":15176:15207   */\n      swap5\n      pop\n        /* \"#utility.yul\":15050:15054   */\n      0x20\n        /* \"#utility.yul\":15047:15048   */\n      dup2\n        /* \"#utility.yul\":15043:15055   */\n      add\n        /* \"#utility.yul\":15038:15055   */\n      swap1\n      pop\n        /* \"#utility.yul\":15013:15221   */\n      jump(tag_284)\n    tag_286:\n        /* \"#utility.yul\":15249:15255   */\n      dup7\n        /* \"#utility.yul\":15240:15247   */\n      dup4\n        /* \"#utility.yul\":15237:15256   */\n      lt\n        /* \"#utility.yul\":15234:15413   */\n      iszero\n      tag_287\n      jumpi\n        /* \"#utility.yul\":15307:15316   */\n      dup5\n        /* \"#utility.yul\":15302:15305   */\n      dup10\n        /* \"#utility.yul\":15298:15317   */\n      add\n        /* \"#utility.yul\":15292:15318   */\n      mload\n        /* \"#utility.yul\":15350:15398   */\n      tag_288\n        /* \"#utility.yul\":15392:15396   */\n      0x1f\n        /* \"#utility.yul\":15384:15390   */\n      dup10\n        /* \"#utility.yul\":15380:15397   */\n      and\n        /* \"#utility.yul\":15369:15378   */\n      dup3\n        /* \"#utility.yul\":15350:15398   */\n      tag_122\n      jump\t// in\n    tag_288:\n        /* \"#utility.yul\":15342:15348   */\n      dup4\n        /* \"#utility.yul\":15335:15399   */\n      sstore\n        /* \"#utility.yul\":15257:15413   */\n      pop\n        /* \"#utility.yul\":15234:15413   */\n    tag_287:\n        /* \"#utility.yul\":15459:15460   */\n      0x01\n        /* \"#utility.yul\":15455:15456   */\n      0x02\n        /* \"#utility.yul\":15447:15453   */\n      dup9\n        /* \"#utility.yul\":15443:15457   */\n      mul\n        /* \"#utility.yul\":15439:15461   */\n      add\n        /* \"#utility.yul\":15433:15437   */\n      dup9\n        /* \"#utility.yul\":15426:15462   */\n      sstore\n        /* \"#utility.yul\":14861:15472   */\n      pop\n      pop\n      pop\n        /* \"#utility.yul\":14824:15711   */\n    tag_279:\n      pop\n        /* \"#utility.yul\":14414:15717   */\n      pop\n      pop\n      pop\n        /* \"#utility.yul\":14322:15717   */\n      pop\n      pop\n      jump\t// out\n\n    auxdata: 0xa26469706673582212202d36fb4a742629ad1d3be4622c0b1e9123db593e6b736f9e16b3254ad4eaaff664736f6c634300081b0033\n}\n",
				"bytecode": {
					"linkReferences": {},
					"object": "6080604052348015600e575f5ffd5b50610c568061001c5f395ff3fe608060405234801561000f575f5ffd5b5060043610610055575f3560e01c806317d7de7c1461005957806352efd68514610077578063993a04b7146100a9578063a68316ea146100c7578063e0258db7146100e5575b5f5ffd5b610061610101565b60405161006e91906104c2565b60405180910390f35b610091600480360381019061008c9190610526565b6101a8565b6040516100a09392919061057a565b60405180910390f35b6100b1610266565b6040516100be9190610718565b60405180910390f35b6100cf610369565b6040516100dc9190610738565b60405180910390f35b6100ff60048036038101906100fa91906108a7565b61038a565b005b60605f5f6004811061011657610115610927565b5b600302015f01805461012790610981565b80601f016020809104026020016040519081016040528092919081815260200182805461015390610981565b801561019e5780601f106101755761010080835404028352916020019161019e565b820191905f5260205f20905b81548152906001019060200180831161018157829003601f168201915b5050505050905090565b5f81600481106101b6575f80fd5b600302015f91509050805f0180546101cd90610981565b80601f01602080910402602001604051908101604052809291908181526020018280546101f990610981565b80156102445780601f1061021b57610100808354040283529160200191610244565b820191905f5260205f20905b81548152906001019060200180831161022757829003601f168201915b505050505090806001015490806002015f9054906101000a900460ff16905083565b61026e610404565b5f600480602002604051908101604052809291905f905b82821015610360578382600302016040518060600160405290815f820180546102ad90610981565b80601f01602080910402602001604051908101604052809291908181526020018280546102d990610981565b80156103245780601f106102fb57610100808354040283529160200191610324565b820191905f5260205f20905b81548152906001019060200180831161030757829003601f168201915b5050505050815260200160018201548152602001600282015f9054906101000a900460ff16151515158152505081526020019060010190610285565b50505050905090565b5f5f5f6004811061037d5761037c610927565b5b6003020160010154905090565b60405180606001604052808481526020018381526020018215158152505f85600481106103ba576103b9610927565b5b600302015f820151815f0190816103d19190610b51565b50602082015181600101556040820151816002015f6101000a81548160ff02191690831515021790555090505050505050565b60405180608001604052806004905b61041b610431565b8152602001906001900390816104135790505090565b6040518060600160405280606081526020015f81526020015f151581525090565b5f81519050919050565b5f82825260208201905092915050565b8281835e5f83830152505050565b5f601f19601f8301169050919050565b5f61049482610452565b61049e818561045c565b93506104ae81856020860161046c565b6104b78161047a565b840191505092915050565b5f6020820190508181035f8301526104da818461048a565b905092915050565b5f604051905090565b5f5ffd5b5f5ffd5b5f819050919050565b610505816104f3565b811461050f575f5ffd5b50565b5f81359050610520816104fc565b92915050565b5f6020828403121561053b5761053a6104eb565b5b5f61054884828501610512565b91505092915050565b61055a816104f3565b82525050565b5f8115159050919050565b61057481610560565b82525050565b5f6060820190508181035f830152610592818661048a565b90506105a16020830185610551565b6105ae604083018461056b565b949350505050565b5f60049050919050565b5f81905092915050565b5f819050919050565b5f82825260208201905092915050565b5f6105ed82610452565b6105f781856105d3565b935061060781856020860161046c565b6106108161047a565b840191505092915050565b610624816104f3565b82525050565b61063381610560565b82525050565b5f606083015f8301518482035f86015261065382826105e3565b9150506020830151610668602086018261061b565b50604083015161067b604086018261062a565b508091505092915050565b5f6106918383610639565b905092915050565b5f602082019050919050565b5f6106af826105b6565b6106b981856105c0565b9350836020820285016106cb856105ca565b805f5b8581101561070657848403895281516106e78582610686565b94506106f283610699565b925060208a019950506001810190506106ce565b50829750879550505050505092915050565b5f6020820190508181035f83015261073081846106a5565b905092915050565b5f60208201905061074b5f830184610551565b92915050565b5f5ffd5b5f5ffd5b7f4e487b71000000000000000000000000000000000000000000000000000000005f52604160045260245ffd5b61078f8261047a565b810181811067ffffffffffffffff821117156107ae576107ad610759565b5b80604052505050565b5f6107c06104e2565b90506107cc8282610786565b919050565b5f67ffffffffffffffff8211156107eb576107ea610759565b5b6107f48261047a565b9050602081019050919050565b828183375f83830152505050565b5f61082161081c846107d1565b6107b7565b90508281526020810184848401111561083d5761083c610755565b5b610848848285610801565b509392505050565b5f82601f83011261086457610863610751565b5b813561087484826020860161080f565b91505092915050565b61088681610560565b8114610890575f5ffd5b50565b5f813590506108a18161087d565b92915050565b5f5f5f5f608085870312156108bf576108be6104eb565b5b5f6108cc87828801610512565b945050602085013567ffffffffffffffff8111156108ed576108ec6104ef565b5b6108f987828801610850565b935050604061090a87828801610512565b925050606061091b87828801610893565b91505092959194509250565b7f4e487b71000000000000000000000000000000000000000000000000000000005f52603260045260245ffd5b7f4e487b71000000000000000000000000000000000000000000000000000000005f52602260045260245ffd5b5f600282049050600182168061099857607f821691505b6020821081036109ab576109aa610954565b5b50919050565b5f819050815f5260205f209050919050565b5f6020601f8301049050919050565b5f82821b905092915050565b5f60088302610a0d7fffffffffffffffffffffffffffffffffffffffffffffffffffffffffffffffff826109d2565b610a1786836109d2565b95508019841693508086168417925050509392505050565b5f819050919050565b5f610a52610a4d610a48846104f3565b610a2f565b6104f3565b9050919050565b5f819050919050565b610a6b83610a38565b610a7f610a7782610a59565b8484546109de565b825550505050565b5f5f905090565b610a96610a87565b610aa1818484610a62565b505050565b5b81811015610ac457610ab95f82610a8e565b600181019050610aa7565b5050565b601f821115610b0957610ada816109b1565b610ae3846109c3565b81016020851015610af2578190505b610b06610afe856109c3565b830182610aa6565b50505b505050565b5f82821c905092915050565b5f610b295f1984600802610b0e565b1980831691505092915050565b5f610b418383610b1a565b9150826002028217905092915050565b610b5a82610452565b67ffffffffffffffff811115610b7357610b72610759565b5b610b7d8254610981565b610b88828285610ac8565b5f60209050601f831160018114610bb9575f8415610ba7578287015190505b610bb18582610b36565b865550610c18565b601f198416610bc7866109b1565b5f5b82811015610bee57848901518255600182019150602085019450602081019050610bc9565b86831015610c0b5784890151610c07601f891682610b1a565b8355505b6001600288020188555050505b50505050505056fea26469706673582212202d36fb4a742629ad1d3be4622c0b1e9123db593e6b736f9e16b3254ad4eaaff664736f6c634300081b0033",
					"opcodes": "PUSH1 0x80 PUSH1 0x40 MSTORE CALLVALUE DUP1 ISZERO PUSH1 0xE JUMPI PUSH0 PUSH0 REVERT JUMPDEST POP PUSH2 0xC56 DUP1 PUSH2 0x1C PUSH0 CODECOPY PUSH0 RETURN INVALID PUSH1 0x80 PUSH1 0x40 MSTORE CALLVALUE DUP1 ISZERO PUSH2 0xF JUMPI PUSH0 PUSH0 REVERT JUMPDEST POP PUSH1 0x4 CALLDATASIZE LT PUSH2 0x55 JUMPI PUSH0 CALLDATALOAD PUSH1 0xE0 SHR DUP1 PUSH4 0x17D7DE7C EQ PUSH2 0x59 JUMPI DUP1 PUSH4 0x52EFD685 EQ PUSH2 0x77 JUMPI DUP1 PUSH4 0x993A04B7 EQ PUSH2 0xA9 JUMPI DUP1 PUSH4 0xA68316EA EQ PUSH2 0xC7 JUMPI DUP1 PUSH4 0xE0258DB7 EQ PUSH2 0xE5 JUMPI JUMPDEST PUSH0 PUSH0 REVERT JUMPDEST PUSH2 0x61 PUSH2 0x101 JUMP JUMPDEST PUSH1 0x40 MLOAD PUSH2 0x6E SWAP2 SWAP1 PUSH2 0x4C2 JUMP JUMPDEST PUSH1 0x40 MLOAD DUP1 SWAP2 SUB SWAP1 RETURN JUMPDEST PUSH2 0x91 PUSH1 0x4 DUP1 CALLDATASIZE SUB DUP2 ADD SWAP1 PUSH2 0x8C SWAP2 SWAP1 PUSH2 0x526 JUMP JUMPDEST PUSH2 0x1A8 JUMP JUMPDEST PUSH1 0x40 MLOAD PUSH2 0xA0 SWAP4 SWAP3 SWAP2 SWAP1 PUSH2 0x57A JUMP JUMPDEST PUSH1 0x40 MLOAD DUP1 SWAP2 SUB SWAP1 RETURN JUMPDEST PUSH2 0xB1 PUSH2 0x266 JUMP JUMPDEST PUSH1 0x40 MLOAD PUSH2 0xBE SWAP2 SWAP1 PUSH2 0x718 JUMP JUMPDEST PUSH1 0x40 MLOAD DUP1 SWAP2 SUB SWAP1 RETURN JUMPDEST PUSH2 0xCF PUSH2 0x369 JUMP JUMPDEST PUSH1 0x40 MLOAD PUSH2 0xDC SWAP2 SWAP1 PUSH2 0x738 JUMP JUMPDEST PUSH1 0x40 MLOAD DUP1 SWAP2 SUB SWAP1 RETURN JUMPDEST PUSH2 0xFF PUSH1 0x4 DUP1 CALLDATASIZE SUB DUP2 ADD SWAP1 PUSH2 0xFA SWAP2 SWAP1 PUSH2 0x8A7 JUMP JUMPDEST PUSH2 0x38A JUMP JUMPDEST STOP JUMPDEST PUSH1 0x60 PUSH0 PUSH0 PUSH1 0x4 DUP2 LT PUSH2 0x116 JUMPI PUSH2 0x115 PUSH2 0x927 JUMP JUMPDEST JUMPDEST PUSH1 0x3 MUL ADD PUSH0 ADD DUP1 SLOAD PUSH2 0x127 SWAP1 PUSH2 0x981 JUMP JUMPDEST DUP1 PUSH1 0x1F ADD PUSH1 0x20 DUP1 SWAP2 DIV MUL PUSH1 0x20 ADD PUSH1 0x40 MLOAD SWAP1 DUP2 ADD PUSH1 0x40 MSTORE DUP1 SWAP3 SWAP2 SWAP1 DUP2 DUP2 MSTORE PUSH1 0x20 ADD DUP3 DUP1 SLOAD PUSH2 0x153 SWAP1 PUSH2 0x981 JUMP JUMPDEST DUP1 ISZERO PUSH2 0x19E JUMPI DUP1 PUSH1 0x1F LT PUSH2 0x175 JUMPI PUSH2 0x100 DUP1 DUP4 SLOAD DIV MUL DUP4 MSTORE SWAP2 PUSH1 0x20 ADD SWAP2 PUSH2 0x19E JUMP JUMPDEST DUP3 ADD SWAP2 SWAP1 PUSH0 MSTORE PUSH1 0x20 PUSH0 KECCAK256 SWAP1 JUMPDEST DUP2 SLOAD DUP2 MSTORE SWAP1 PUSH1 0x1 ADD SWAP1 PUSH1 0x20 ADD DUP1 DUP4 GT PUSH2 0x181 JUMPI DUP3 SWAP1 SUB PUSH1 0x1F AND DUP3 ADD SWAP2 JUMPDEST POP POP POP POP POP SWAP1 POP SWAP1 JUMP JUMPDEST PUSH0 DUP2 PUSH1 0x4 DUP2 LT PUSH2 0x1B6 JUMPI PUSH0 DUP1 REVERT JUMPDEST PUSH1 0x3 MUL ADD PUSH0 SWAP2 POP SWAP1 POP DUP1 PUSH0 ADD DUP1 SLOAD PUSH2 0x1CD SWAP1 PUSH2 0x981 JUMP JUMPDEST DUP1 PUSH1 0x1F ADD PUSH1 0x20 DUP1 SWAP2 DIV MUL PUSH1 0x20 ADD PUSH1 0x40 MLOAD SWAP1 DUP2 ADD PUSH1 0x40 MSTORE DUP1 SWAP3 SWAP2 SWAP1 DUP2 DUP2 MSTORE PUSH1 0x20 ADD DUP3 DUP1 SLOAD PUSH2 0x1F9 SWAP1 PUSH2 0x981 JUMP JUMPDEST DUP1 ISZERO PUSH2 0x244 JUMPI DUP1 PUSH1 0x1F LT PUSH2 0x21B JUMPI PUSH2 0x100 DUP1 DUP4 SLOAD DIV MUL DUP4 MSTORE SWAP2 PUSH1 0x20 ADD SWAP2 PUSH2 0x244 JUMP JUMPDEST DUP3 ADD SWAP2 SWAP1 PUSH0 MSTORE PUSH1 0x20 PUSH0 KECCAK256 SWAP1 JUMPDEST DUP2 SLOAD DUP2 MSTORE SWAP1 PUSH1 0x1 ADD SWAP1 PUSH1 0x20 ADD DUP1 DUP4 GT PUSH2 0x227 JUMPI DUP3 SWAP1 SUB PUSH1 0x1F AND DUP3 ADD SWAP2 JUMPDEST POP POP POP POP POP SWAP1 DUP1 PUSH1 0x1 ADD SLOAD SWAP1 DUP1 PUSH1 0x2 ADD PUSH0 SWAP1 SLOAD SWAP1 PUSH2 0x100 EXP SWAP1 DIV PUSH1 0xFF AND SWAP1 POP DUP4 JUMP JUMPDEST PUSH2 0x26E PUSH2 0x404 JUMP JUMPDEST PUSH0 PUSH1 0x4 DUP1 PUSH1 0x20 MUL PUSH1 0x40 MLOAD SWAP1 DUP2 ADD PUSH1 0x40 MSTORE DUP1 SWAP3 SWAP2 SWAP1 PUSH0 SWAP1 JUMPDEST DUP3 DUP3 LT ISZERO PUSH2 0x360 JUMPI DUP4 DUP3 PUSH1 0x3 MUL ADD PUSH1 0x40 MLOAD DUP1 PUSH1 0x60 ADD PUSH1 0x40 MSTORE SWAP1 DUP2 PUSH0 DUP3 ADD DUP1 SLOAD PUSH2 0x2AD SWAP1 PUSH2 0x981 JUMP JUMPDEST DUP1 PUSH1 0x1F ADD PUSH1 0x20 DUP1 SWAP2 DIV MUL PUSH1 0x20 ADD PUSH1 0x40 MLOAD SWAP1 DUP2 ADD PUSH1 0x40 MSTORE DUP1 SWAP3 SWAP2 SWAP1 DUP2 DUP2 MSTORE PUSH1 0x20 ADD DUP3 DUP1 SLOAD PUSH2 0x2D9 SWAP1 PUSH2 0x981 JUMP JUMPDEST DUP1 ISZERO PUSH2 0x324 JUMPI DUP1 PUSH1 0x1F LT PUSH2 0x2FB JUMPI PUSH2 0x100 DUP1 DUP4 SLOAD DIV MUL DUP4 MSTORE SWAP2 PUSH1 0x20 ADD SWAP2 PUSH2 0x324 JUMP JUMPDEST DUP3 ADD SWAP2 SWAP1 PUSH0 MSTORE PUSH1 0x20 PUSH0 KECCAK256 SWAP1 JUMPDEST DUP2 SLOAD DUP2 MSTORE SWAP1 PUSH1 0x1 ADD SWAP1 PUSH1 0x20 ADD DUP1 DUP4 GT PUSH2 0x307 JUMPI DUP3 SWAP1 SUB PUSH1 0x1F AND DUP3 ADD SWAP2 JUMPDEST POP POP POP POP POP DUP2 MSTORE PUSH1 0x20 ADD PUSH1 0x1 DUP3 ADD SLOAD DUP2 MSTORE PUSH1 0x20 ADD PUSH1 0x2 DUP3 ADD PUSH0 SWAP1 SLOAD SWAP1 PUSH2 0x100 EXP SWAP1 DIV PUSH1 0xFF AND ISZERO ISZERO ISZERO ISZERO DUP2 MSTORE POP POP DUP2 MSTORE PUSH1 0x20 ADD SWAP1 PUSH1 0x1 ADD SWAP1 PUSH2 0x285 JUMP JUMPDEST POP POP POP POP SWAP1 POP SWAP1 JUMP JUMPDEST PUSH0 PUSH0 PUSH0 PUSH1 0x4 DUP2 LT PUSH2 0x37D JUMPI PUSH2 0x37C PUSH2 0x927 JUMP JUMPDEST JUMPDEST PUSH1 0x3 MUL ADD PUSH1 0x1 ADD SLOAD SWAP1 POP SWAP1 JUMP JUMPDEST PUSH1 0x40 MLOAD DUP1 PUSH1 0x60 ADD PUSH1 0x40 MSTORE DUP1 DUP5 DUP2 MSTORE PUSH1 0x20 ADD DUP4 DUP2 MSTORE PUSH1 0x20 ADD DUP3 ISZERO ISZERO DUP2 MSTORE POP PUSH0 DUP6 PUSH1 0x4 DUP2 LT PUSH2 0x3BA JUMPI PUSH2 0x3B9 PUSH2 0x927 JUMP JUMPDEST JUMPDEST PUSH1 0x3 MUL ADD PUSH0 DUP3 ADD MLOAD DUP2 PUSH0 ADD SWAP1 DUP2 PUSH2 0x3D1 SWAP2 SWAP1 PUSH2 0xB51 JUMP JUMPDEST POP PUSH1 0x20 DUP3 ADD MLOAD DUP2 PUSH1 0x1 ADD SSTORE PUSH1 0x40 DUP3 ADD MLOAD DUP2 PUSH1 0x2 ADD PUSH0 PUSH2 0x100 EXP DUP2 SLOAD DUP2 PUSH1 0xFF MUL NOT AND SWAP1 DUP4 ISZERO ISZERO MUL OR SWAP1 SSTORE POP SWAP1 POP POP POP POP POP POP JUMP JUMPDEST PUSH1 0x40 MLOAD DUP1 PUSH1 0x80 ADD PUSH1 0x40 MSTORE DUP1 PUSH1 0x4 SWAP1 JUMPDEST PUSH2 0x41B PUSH2 0x431 JUMP JUMPDEST DUP2 MSTORE PUSH1 0x20 ADD SWAP1 PUSH1 0x1 SWAP1 SUB SWAP1 DUP2 PUSH2 0x413 JUMPI SWAP1 POP POP SWAP1 JUMP JUMPDEST PUSH1 0x40 MLOAD DUP1 PUSH1 0x60 ADD PUSH1 0x40 MSTORE DUP1 PUSH1 0x60 DUP2 MSTORE PUSH1 0x20 ADD PUSH0 DUP2 MSTORE PUSH1 0x20 ADD PUSH0 ISZERO ISZERO DUP2 MSTORE POP SWAP1 JUMP JUMPDEST PUSH0 DUP2 MLOAD SWAP1 POP SWAP2 SWAP1 POP JUMP JUMPDEST PUSH0 DUP3 DUP3 MSTORE PUSH1 0x20 DUP3 ADD SWAP1 POP SWAP3 SWAP2 POP POP JUMP JUMPDEST DUP3 DUP2 DUP4 MCOPY PUSH0 DUP4 DUP4 ADD MSTORE POP POP POP JUMP JUMPDEST PUSH0 PUSH1 0x1F NOT PUSH1 0x1F DUP4 ADD AND SWAP1 POP SWAP2 SWAP1 POP JUMP JUMPDEST PUSH0 PUSH2 0x494 DUP3 PUSH2 0x452 JUMP JUMPDEST PUSH2 0x49E DUP2 DUP6 PUSH2 0x45C JUMP JUMPDEST SWAP4 POP PUSH2 0x4AE DUP2 DUP6 PUSH1 0x20 DUP7 ADD PUSH2 0x46C JUMP JUMPDEST PUSH2 0x4B7 DUP2 PUSH2 0x47A JUMP JUMPDEST DUP5 ADD SWAP2 POP POP SWAP3 SWAP2 POP POP JUMP JUMPDEST PUSH0 PUSH1 0x20 DUP3 ADD SWAP1 POP DUP2 DUP2 SUB PUSH0 DUP4 ADD MSTORE PUSH2 0x4DA DUP2 DUP5 PUSH2 0x48A JUMP JUMPDEST SWAP1 POP SWAP3 SWAP2 POP POP JUMP JUMPDEST PUSH0 PUSH1 0x40 MLOAD SWAP1 POP SWAP1 JUMP JUMPDEST PUSH0 PUSH0 REVERT JUMPDEST PUSH0 PUSH0 REVERT JUMPDEST PUSH0 DUP2 SWAP1 POP SWAP2 SWAP1 POP JUMP JUMPDEST PUSH2 0x505 DUP2 PUSH2 0x4F3 JUMP JUMPDEST DUP2 EQ PUSH2 0x50F JUMPI PUSH0 PUSH0 REVERT JUMPDEST POP JUMP JUMPDEST PUSH0 DUP2 CALLDATALOAD SWAP1 POP PUSH2 0x520 DUP2 PUSH2 0x4FC JUMP JUMPDEST SWAP3 SWAP2 POP POP JUMP JUMPDEST PUSH0 PUSH1 0x20 DUP3 DUP5 SUB SLT ISZERO PUSH2 0x53B JUMPI PUSH2 0x53A PUSH2 0x4EB JUMP JUMPDEST JUMPDEST PUSH0 PUSH2 0x548 DUP5 DUP3 DUP6 ADD PUSH2 0x512 JUMP JUMPDEST SWAP2 POP POP SWAP3 SWAP2 POP POP JUMP JUMPDEST PUSH2 0x55A DUP2 PUSH2 0x4F3 JUMP JUMPDEST DUP3 MSTORE POP POP JUMP JUMPDEST PUSH0 DUP2 ISZERO ISZERO SWAP1 POP SWAP2 SWAP1 POP JUMP JUMPDEST PUSH2 0x574 DUP2 PUSH2 0x560 JUMP JUMPDEST DUP3 MSTORE POP POP JUMP JUMPDEST PUSH0 PUSH1 0x60 DUP3 ADD SWAP1 POP DUP2 DUP2 SUB PUSH0 DUP4 ADD MSTORE PUSH2 0x592 DUP2 DUP7 PUSH2 0x48A JUMP JUMPDEST SWAP1 POP PUSH2 0x5A1 PUSH1 0x20 DUP4 ADD DUP6 PUSH2 0x551 JUMP JUMPDEST PUSH2 0x5AE PUSH1 0x40 DUP4 ADD DUP5 PUSH2 0x56B JUMP JUMPDEST SWAP5 SWAP4 POP POP POP POP JUMP JUMPDEST PUSH0 PUSH1 0x4 SWAP1 POP SWAP2 SWAP1 POP JUMP JUMPDEST PUSH0 DUP2 SWAP1 POP SWAP3 SWAP2 POP POP JUMP JUMPDEST PUSH0 DUP2 SWAP1 POP SWAP2 SWAP1 POP JUMP JUMPDEST PUSH0 DUP3 DUP3 MSTORE PUSH1 0x20 DUP3 ADD SWAP1 POP SWAP3 SWAP2 POP POP JUMP JUMPDEST PUSH0 PUSH2 0x5ED DUP3 PUSH2 0x452 JUMP JUMPDEST PUSH2 0x5F7 DUP2 DUP6 PUSH2 0x5D3 JUMP JUMPDEST SWAP4 POP PUSH2 0x607 DUP2 DUP6 PUSH1 0x20 DUP7 ADD PUSH2 0x46C JUMP JUMPDEST PUSH2 0x610 DUP2 PUSH2 0x47A JUMP JUMPDEST DUP5 ADD SWAP2 POP POP SWAP3 SWAP2 POP POP JUMP JUMPDEST PUSH2 0x624 DUP2 PUSH2 0x4F3 JUMP JUMPDEST DUP3 MSTORE POP POP JUMP JUMPDEST PUSH2 0x633 DUP2 PUSH2 0x560 JUMP JUMPDEST DUP3 MSTORE POP POP JUMP JUMPDEST PUSH0 PUSH1 0x60 DUP4 ADD PUSH0 DUP4 ADD MLOAD DUP5 DUP3 SUB PUSH0 DUP7 ADD MSTORE PUSH2 0x653 DUP3 DUP3 PUSH2 0x5E3 JUMP JUMPDEST SWAP2 POP POP PUSH1 0x20 DUP4 ADD MLOAD PUSH2 0x668 PUSH1 0x20 DUP7 ADD DUP3 PUSH2 0x61B JUMP JUMPDEST POP PUSH1 0x40 DUP4 ADD MLOAD PUSH2 0x67B PUSH1 0x40 DUP7 ADD DUP3 PUSH2 0x62A JUMP JUMPDEST POP DUP1 SWAP2 POP POP SWAP3 SWAP2 POP POP JUMP JUMPDEST PUSH0 PUSH2 0x691 DUP4 DUP4 PUSH2 0x639 JUMP JUMPDEST SWAP1 POP SWAP3 SWAP2 POP POP JUMP JUMPDEST PUSH0 PUSH1 0x20 DUP3 ADD SWAP1 POP SWAP2 SWAP1 POP JUMP JUMPDEST PUSH0 PUSH2 0x6AF DUP3 PUSH2 0x5B6 JUMP JUMPDEST PUSH2 0x6B9 DUP2 DUP6 PUSH2 0x5C0 JUMP JUMPDEST SWAP4 POP DUP4 PUSH1 0x20 DUP3 MUL DUP6 ADD PUSH2 0x6CB DUP6 PUSH2 0x5CA JUMP JUMPDEST DUP1 PUSH0 JUMPDEST DUP6 DUP2 LT ISZERO PUSH2 0x706 JUMPI DUP5 DUP5 SUB DUP10 MSTORE DUP2 MLOAD PUSH2 0x6E7 DUP6 DUP3 PUSH2 0x686 JUMP JUMPDEST SWAP5 POP PUSH2 0x6F2 DUP4 PUSH2 0x699 JUMP JUMPDEST SWAP3 POP PUSH1 0x20 DUP11 ADD SWAP10 POP POP PUSH1 0x1 DUP2 ADD SWAP1 POP PUSH2 0x6CE JUMP JUMPDEST POP DUP3 SWAP8 POP DUP8 SWAP6 POP POP POP POP POP POP SWAP3 SWAP2 POP POP JUMP JUMPDEST PUSH0 PUSH1 0x20 DUP3 ADD SWAP1 POP DUP2 DUP2 SUB PUSH0 DUP4 ADD MSTORE PUSH2 0x730 DUP2 DUP5 PUSH2 0x6A5 JUMP JUMPDEST SWAP1 POP SWAP3 SWAP2 POP POP JUMP JUMPDEST PUSH0 PUSH1 0x20 DUP3 ADD SWAP1 POP PUSH2 0x74B PUSH0 DUP4 ADD DUP5 PUSH2 0x551 JUMP JUMPDEST SWAP3 SWAP2 POP POP JUMP JUMPDEST PUSH0 PUSH0 REVERT JUMPDEST PUSH0 PUSH0 REVERT JUMPDEST PUSH32 0x4E487B7100000000000000000000000000000000000000000000000000000000 PUSH0 MSTORE PUSH1 0x41 PUSH1 0x4 MSTORE PUSH1 0x24 PUSH0 REVERT JUMPDEST PUSH2 0x78F DUP3 PUSH2 0x47A JUMP JUMPDEST DUP2 ADD DUP2 DUP2 LT PUSH8 0xFFFFFFFFFFFFFFFF DUP3 GT OR ISZERO PUSH2 0x7AE JUMPI PUSH2 0x7AD PUSH2 0x759 JUMP JUMPDEST JUMPDEST DUP1 PUSH1 0x40 MSTORE POP POP POP JUMP JUMPDEST PUSH0 PUSH2 0x7C0 PUSH2 0x4E2 JUMP JUMPDEST SWAP1 POP PUSH2 0x7CC DUP3 DUP3 PUSH2 0x786 JUMP JUMPDEST SWAP2 SWAP1 POP JUMP JUMPDEST PUSH0 PUSH8 0xFFFFFFFFFFFFFFFF DUP3 GT ISZERO PUSH2 0x7EB JUMPI PUSH2 0x7EA PUSH2 0x759 JUMP JUMPDEST JUMPDEST PUSH2 0x7F4 DUP3 PUSH2 0x47A JUMP JUMPDEST SWAP1 POP PUSH1 0x20 DUP2 ADD SWAP1 POP SWAP2 SWAP1 POP JUMP JUMPDEST DUP3 DUP2 DUP4 CALLDATACOPY PUSH0 DUP4 DUP4 ADD MSTORE POP POP POP JUMP JUMPDEST PUSH0 PUSH2 0x821 PUSH2 0x81C DUP5 PUSH2 0x7D1 JUMP JUMPDEST PUSH2 0x7B7 JUMP JUMPDEST SWAP1 POP DUP3 DUP2 MSTORE PUSH1 0x20 DUP2 ADD DUP5 DUP5 DUP5 ADD GT ISZERO PUSH2 0x83D JUMPI PUSH2 0x83C PUSH2 0x755 JUMP JUMPDEST JUMPDEST PUSH2 0x848 DUP5 DUP3 DUP6 PUSH2 0x801 JUMP JUMPDEST POP SWAP4 SWAP3 POP POP POP JUMP JUMPDEST PUSH0 DUP3 PUSH1 0x1F DUP4 ADD SLT PUSH2 0x864 JUMPI PUSH2 0x863 PUSH2 0x751 JUMP JUMPDEST JUMPDEST DUP2 CALLDATALOAD PUSH2 0x874 DUP5 DUP3 PUSH1 0x20 DUP7 ADD PUSH2 0x80F JUMP JUMPDEST SWAP2 POP POP SWAP3 SWAP2 POP POP JUMP JUMPDEST PUSH2 0x886 DUP2 PUSH2 0x560 JUMP JUMPDEST DUP2 EQ PUSH2 0x890 JUMPI PUSH0 PUSH0 REVERT JUMPDEST POP JUMP JUMPDEST PUSH0 DUP2 CALLDATALOAD SWAP1 POP PUSH2 0x8A1 DUP2 PUSH2 0x87D JUMP JUMPDEST SWAP3 SWAP2 POP POP JUMP JUMPDEST PUSH0 PUSH0 PUSH0 PUSH0 PUSH1 0x80 DUP6 DUP8 SUB SLT ISZERO PUSH2 0x8BF JUMPI PUSH2 0x8BE PUSH2 0x4EB JUMP JUMPDEST JUMPDEST PUSH0 PUSH2 0x8CC DUP8 DUP3 DUP9 ADD PUSH2 0x512 JUMP JUMPDEST SWAP5 POP POP PUSH1 0x20 DUP6 ADD CALLDATALOAD PUSH8 0xFFFFFFFFFFFFFFFF DUP2 GT ISZERO PUSH2 0x8ED JUMPI PUSH2 0x8EC PUSH2 0x4EF JUMP JUMPDEST JUMPDEST PUSH2 0x8F9 DUP8 DUP3 DUP9 ADD PUSH2 0x850 JUMP JUMPDEST SWAP4 POP POP PUSH1 0x40 PUSH2 0x90A DUP8 DUP3 DUP9 ADD PUSH2 0x512 JUMP JUMPDEST SWAP3 POP POP PUSH1 0x60 PUSH2 0x91B DUP8 DUP3 DUP9 ADD PUSH2 0x893 JUMP JUMPDEST SWAP2 POP POP SWAP3 SWAP6 SWAP2 SWAP5 POP SWAP3 POP JUMP JUMPDEST PUSH32 0x4E487B7100000000000000000000000000000000000000000000000000000000 PUSH0 MSTORE PUSH1 0x32 PUSH1 0x4 MSTORE PUSH1 0x24 PUSH0 REVERT JUMPDEST PUSH32 0x4E487B7100000000000000000000000000000000000000000000000000000000 PUSH0 MSTORE PUSH1 0x22 PUSH1 0x4 MSTORE PUSH1 0x24 PUSH0 REVERT JUMPDEST PUSH0 PUSH1 0x2 DUP3 DIV SWAP1 POP PUSH1 0x1 DUP3 AND DUP1 PUSH2 0x998 JUMPI PUSH1 0x7F DUP3 AND SWAP2 POP JUMPDEST PUSH1 0x20 DUP3 LT DUP2 SUB PUSH2 0x9AB JUMPI PUSH2 0x9AA PUSH2 0x954 JUMP JUMPDEST JUMPDEST POP SWAP2 SWAP1 POP JUMP JUMPDEST PUSH0 DUP2 SWAP1 POP DUP2 PUSH0 MSTORE PUSH1 0x20 PUSH0 KECCAK256 SWAP1 POP SWAP2 SWAP1 POP JUMP JUMPDEST PUSH0 PUSH1 0x20 PUSH1 0x1F DUP4 ADD DIV SWAP1 POP SWAP2 SWAP1 POP JUMP JUMPDEST PUSH0 DUP3 DUP3 SHL SWAP1 POP SWAP3 SWAP2 POP POP JUMP JUMPDEST PUSH0 PUSH1 0x8 DUP4 MUL PUSH2 0xA0D PUSH32 0xFFFFFFFFFFFFFFFFFFFFFFFFFFFFFFFFFFFFFFFFFFFFFFFFFFFFFFFFFFFFFFFF DUP3 PUSH2 0x9D2 JUMP JUMPDEST PUSH2 0xA17 DUP7 DUP4 PUSH2 0x9D2 JUMP JUMPDEST SWAP6 POP DUP1 NOT DUP5 AND SWAP4 POP DUP1 DUP7 AND DUP5 OR SWAP3 POP POP POP SWAP4 SWAP3 POP POP POP JUMP JUMPDEST PUSH0 DUP2 SWAP1 POP SWAP2 SWAP1 POP JUMP JUMPDEST PUSH0 PUSH2 0xA52 PUSH2 0xA4D PUSH2 0xA48 DUP5 PUSH2 0x4F3 JUMP JUMPDEST PUSH2 0xA2F JUMP JUMPDEST PUSH2 0x4F3 JUMP JUMPDEST SWAP1 POP SWAP2 SWAP1 POP JUMP JUMPDEST PUSH0 DUP2 SWAP1 POP SWAP2 SWAP1 POP JUMP JUMPDEST PUSH2 0xA6B DUP4 PUSH2 0xA38 JUMP JUMPDEST PUSH2 0xA7F PUSH2 0xA77 DUP3 PUSH2 0xA59 JUMP JUMPDEST DUP5 DUP5 SLOAD PUSH2 0x9DE JUMP JUMPDEST DUP3 SSTORE POP POP POP POP JUMP JUMPDEST PUSH0 PUSH0 SWAP1 POP SWAP1 JUMP JUMPDEST PUSH2 0xA96 PUSH2 0xA87 JUMP JUMPDEST PUSH2 0xAA1 DUP2 DUP5 DUP5 PUSH2 0xA62 JUMP JUMPDEST POP POP POP JUMP JUMPDEST JUMPDEST DUP2 DUP2 LT ISZERO PUSH2 0xAC4 JUMPI PUSH2 0xAB9 PUSH0 DUP3 PUSH2 0xA8E JUMP JUMPDEST PUSH1 0x1 DUP2 ADD SWAP1 POP PUSH2 0xAA7 JUMP JUMPDEST POP POP JUMP JUMPDEST PUSH1 0x1F DUP3 GT ISZERO PUSH2 0xB09 JUMPI PUSH2 0xADA DUP2 PUSH2 0x9B1 JUMP JUMPDEST PUSH2 0xAE3 DUP5 PUSH2 0x9C3 JUMP JUMPDEST DUP2 ADD PUSH1 0x20 DUP6 LT ISZERO PUSH2 0xAF2 JUMPI DUP2 SWAP1 POP JUMPDEST PUSH2 0xB06 PUSH2 0xAFE DUP6 PUSH2 0x9C3 JUMP JUMPDEST DUP4 ADD DUP3 PUSH2 0xAA6 JUMP JUMPDEST POP POP JUMPDEST POP POP POP JUMP JUMPDEST PUSH0 DUP3 DUP3 SHR SWAP1 POP SWAP3 SWAP2 POP POP JUMP JUMPDEST PUSH0 PUSH2 0xB29 PUSH0 NOT DUP5 PUSH1 0x8 MUL PUSH2 0xB0E JUMP JUMPDEST NOT DUP1 DUP4 AND SWAP2 POP POP SWAP3 SWAP2 POP POP JUMP JUMPDEST PUSH0 PUSH2 0xB41 DUP4 DUP4 PUSH2 0xB1A JUMP JUMPDEST SWAP2 POP DUP3 PUSH1 0x2 MUL DUP3 OR SWAP1 POP SWAP3 SWAP2 POP POP JUMP JUMPDEST PUSH2 0xB5A DUP3 PUSH2 0x452 JUMP JUMPDEST PUSH8 0xFFFFFFFFFFFFFFFF DUP2 GT ISZERO PUSH2 0xB73 JUMPI PUSH2 0xB72 PUSH2 0x759 JUMP JUMPDEST JUMPDEST PUSH2 0xB7D DUP3 SLOAD PUSH2 0x981 JUMP JUMPDEST PUSH2 0xB88 DUP3 DUP3 DUP6 PUSH2 0xAC8 JUMP JUMPDEST PUSH0 PUSH1 0x20 SWAP1 POP PUSH1 0x1F DUP4 GT PUSH1 0x1 DUP2 EQ PUSH2 0xBB9 JUMPI PUSH0 DUP5 ISZERO PUSH2 0xBA7 JUMPI DUP3 DUP8 ADD MLOAD SWAP1 POP JUMPDEST PUSH2 0xBB1 DUP6 DUP3 PUSH2 0xB36 JUMP JUMPDEST DUP7 SSTORE POP PUSH2 0xC18 JUMP JUMPDEST PUSH1 0x1F NOT DUP5 AND PUSH2 0xBC7 DUP7 PUSH2 0x9B1 JUMP JUMPDEST PUSH0 JUMPDEST DUP3 DUP2 LT ISZERO PUSH2 0xBEE JUMPI DUP5 DUP10 ADD MLOAD DUP3 SSTORE PUSH1 0x1 DUP3 ADD SWAP2 POP PUSH1 0x20 DUP6 ADD SWAP5 POP PUSH1 0x20 DUP2 ADD SWAP1 POP PUSH2 0xBC9 JUMP JUMPDEST DUP7 DUP4 LT ISZERO PUSH2 0xC0B JUMPI DUP5 DUP10 ADD MLOAD PUSH2 0xC07 PUSH1 0x1F DUP10 AND DUP3 PUSH2 0xB1A JUMP JUMPDEST DUP4 SSTORE POP JUMPDEST PUSH1 0x1 PUSH1 0x2 DUP9 MUL ADD DUP9 SSTORE POP POP POP JUMPDEST POP POP POP POP POP POP JUMP INVALID LOG2 PUSH5 0x6970667358 0x22 SLT KECCAK256 0x2D CALLDATASIZE 0xFB BLOBBASEFEE PUSH21 0x2629AD1D3BE4622C0B1E9123DB593E6B736F9E16B3 0x25 BLOBBASEFEE 0xD4 0xEA 0xAF 0xF6 PUSH5 0x736F6C6343 STOP ADDMOD SHL STOP CALLER "
				},
				"gasEstimates": {
					"creation": {
						"codeDepositCost": "631600",
						"executionCost": "662",
						"totalCost": "632262"
					},
					"external": {
						"getName()": "infinite",
						"getRoll()": "2517",
						"getter()": "infinite",
						"insert(uint256,string,uint256,bool)": "infinite",
						"s(uint256)": "infinite"
					}
				},
				"methodIdentifiers": {
					"getName()": "17d7de7c",
					"getRoll()": "a68316ea",
					"getter()": "993a04b7",
					"insert(uint256,string,uint256,bool)": "e0258db7",
					"s(uint256)": "52efd685"
				}
			},
			"storageLayout": {
				"storage": [
					{
						"astId": 13,
						"contract": "contracts/Struct/ArrayOfStruct.sol:ArraytOfStruct",
						"label": "s",
						"offset": 0,
						"slot": "0",
						"type": "t_array(t_struct(Student)8_storage)4_storage"
					}
				],
				"types": {
					"t_array(t_struct(Student)8_storage)4_storage": {
						"base": "t_struct(Student)8_storage",
						"encoding": "inplace",
						"label": "struct ArraytOfStruct.Student[4]",
						"numberOfBytes": "384"
					},
					"t_bool": {
						"encoding": "inplace",
						"label": "bool",
						"numberOfBytes": "1"
					},
					"t_string_storage": {
						"encoding": "bytes",
						"label": "string",
						"numberOfBytes": "32"
					},
					"t_struct(Student)8_storage": {
						"encoding": "inplace",
						"label": "struct ArraytOfStruct.Student",
						"members": [
							{
								"astId": 3,
								"contract": "contracts/Struct/ArrayOfStruct.sol:ArraytOfStruct",
								"label": "name",
								"offset": 0,
								"slot": "0",
								"type": "t_string_storage"
							},
							{
								"astId": 5,
								"contract": "contracts/Struct/ArrayOfStruct.sol:ArraytOfStruct",
								"label": "roll",
								"offset": 0,
								"slot": "1",
								"type": "t_uint256"
							},
							{
								"astId": 7,
								"contract": "contracts/Struct/ArrayOfStruct.sol:ArraytOfStruct",
								"label": "pass",
								"offset": 0,
								"slot": "2",
								"type": "t_bool"
							}
						],
						"numberOfBytes": "96"
					},
					"t_uint256": {
						"encoding": "inplace",
						"label": "uint256",
						"numberOfBytes": "32"
					}
				}
			},
			"userdoc": {
				"kind": "user",
				"methods": {},
				"version": 1
			}
		}
	}
}