{
	"data": {
		"bytecode": {
			"linkReferences": {},
			"object": "6080604052348015600e575f5ffd5b506108c98061001c5f395ff3fe608060405234801561000f575f5ffd5b506004361061003f575f3560e01c80636b8ff57414610043578063885e377114610073578063e0258db7146100a5575b5f5ffd5b61005d600480360381019061005891906102d1565b6100c1565b60405161006a919061036c565b60405180910390f35b61008d600480360381019061008891906102d1565b610163565b60405161009c939291906103b5565b60405180910390f35b6100bf60048036038101906100ba9190610547565b61021a565b005b60605f5f8381526020019081526020015f205f0180546100e0906105f4565b80601f016020809104026020016040519081016040528092919081815260200182805461010c906105f4565b80156101575780601f1061012e57610100808354040283529160200191610157565b820191905f5260205f20905b81548152906001019060200180831161013a57829003601f168201915b50505050509050919050565b5f602052805f5260405f205f91509050805f018054610181906105f4565b80601f01602080910402602001604051908101604052809291908181526020018280546101ad906105f4565b80156101f85780601f106101cf576101008083540402835291602001916101f8565b820191905f5260205f20905b8154815290600101906020018083116101db57829003601f168201915b505050505090806001015490806002015f9054906101000a900460ff16905083565b60405180606001604052808481526020018381526020018215158152505f5f8681526020019081526020015f205f820151815f01908161025a91906107c4565b50602082015181600101556040820151816002015f6101000a81548160ff02191690831515021790555090505050505050565b5f604051905090565b5f5ffd5b5f5ffd5b5f819050919050565b6102b08161029e565b81146102ba575f5ffd5b50565b5f813590506102cb816102a7565b92915050565b5f602082840312156102e6576102e5610296565b5b5f6102f3848285016102bd565b91505092915050565b5f81519050919050565b5f82825260208201905092915050565b8281835e5f83830152505050565b5f601f19601f8301169050919050565b5f61033e826102fc565b6103488185610306565b9350610358818560208601610316565b61036181610324565b840191505092915050565b5f6020820190508181035f8301526103848184610334565b905092915050565b6103958161029e565b82525050565b5f8115159050919050565b6103af8161039b565b82525050565b5f6060820190508181035f8301526103cd8186610334565b90506103dc602083018561038c565b6103e960408301846103a6565b949350505050565b5f5ffd5b5f5ffd5b7f4e487b71000000000000000000000000000000000000000000000000000000005f52604160045260245ffd5b61042f82610324565b810181811067ffffffffffffffff8211171561044e5761044d6103f9565b5b80604052505050565b5f61046061028d565b905061046c8282610426565b919050565b5f67ffffffffffffffff82111561048b5761048a6103f9565b5b61049482610324565b9050602081019050919050565b828183375f83830152505050565b5f6104c16104bc84610471565b610457565b9050828152602081018484840111156104dd576104dc6103f5565b5b6104e88482856104a1565b509392505050565b5f82601f830112610504576105036103f1565b5b81356105148482602086016104af565b91505092915050565b6105268161039b565b8114610530575f5ffd5b50565b5f813590506105418161051d565b92915050565b5f5f5f5f6080858703121561055f5761055e610296565b5b5f61056c878288016102bd565b945050602085013567ffffffffffffffff81111561058d5761058c61029a565b5b610599878288016104f0565b93505060406105aa878288016102bd565b92505060606105bb87828801610533565b91505092959194509250565b7f4e487b71000000000000000000000000000000000000000000000000000000005f52602260045260245ffd5b5f600282049050600182168061060b57607f821691505b60208210810361061e5761061d6105c7565b5b50919050565b5f819050815f5260205f209050919050565b5f6020601f8301049050919050565b5f82821b905092915050565b5f600883026106807fffffffffffffffffffffffffffffffffffffffffffffffffffffffffffffffff82610645565b61068a8683610645565b95508019841693508086168417925050509392505050565b5f819050919050565b5f6106c56106c06106bb8461029e565b6106a2565b61029e565b9050919050565b5f819050919050565b6106de836106ab565b6106f26106ea826106cc565b848454610651565b825550505050565b5f5f905090565b6107096106fa565b6107148184846106d5565b505050565b5b818110156107375761072c5f82610701565b60018101905061071a565b5050565b601f82111561077c5761074d81610624565b61075684610636565b81016020851015610765578190505b61077961077185610636565b830182610719565b50505b505050565b5f82821c905092915050565b5f61079c5f1984600802610781565b1980831691505092915050565b5f6107b4838361078d565b9150826002028217905092915050565b6107cd826102fc565b67ffffffffffffffff8111156107e6576107e56103f9565b5b6107f082546105f4565b6107fb82828561073b565b5f60209050601f83116001811461082c575f841561081a578287015190505b61082485826107a9565b86555061088b565b601f19841661083a86610624565b5f5b828110156108615784890151825560018201915060208501945060208101905061083c565b8683101561087e578489015161087a601f89168261078d565b8355505b6001600288020188555050505b50505050505056fea2646970667358221220226ba809786d7942d6ff81f1b4764ae9c717fba8d7ad1fe2bfebbd11ebb879ab64736f6c634300081b0033",
			"opcodes": "PUSH1 0x80 PUSH1 0x40 MSTORE CALLVALUE DUP1 ISZERO PUSH1 0xE JUMPI PUSH0 PUSH0 REVERT JUMPDEST POP PUSH2 0x8C9 DUP1 PUSH2 0x1C PUSH0 CODECOPY PUSH0 RETURN INVALID PUSH1 0x80 PUSH1 0x40 MSTORE CALLVALUE DUP1 ISZERO PUSH2 0xF JUMPI PUSH0 PUSH0 REVERT JUMPDEST POP PUSH1 0x4 CALLDATASIZE LT PUSH2 0x3F JUMPI PUSH0 CALLDATALOAD PUSH1 0xE0 SHR DUP1 PUSH4 0x6B8FF574 EQ PUSH2 0x43 JUMPI DUP1 PUSH4 0x885E3771 EQ PUSH2 0x73 JUMPI DUP1 PUSH4 0xE0258DB7 EQ PUSH2 0xA5 JUMPI JUMPDEST PUSH0 PUSH0 REVERT JUMPDEST PUSH2 0x5D PUSH1 0x4 DUP1 CALLDATASIZE SUB DUP2 ADD SWAP1 PUSH2 0x58 SWAP2 SWAP1 PUSH2 0x2D1 JUMP JUMPDEST PUSH2 0xC1 JUMP JUMPDEST PUSH1 0x40 MLOAD PUSH2 0x6A SWAP2 SWAP1 PUSH2 0x36C JUMP JUMPDEST PUSH1 0x40 MLOAD DUP1 SWAP2 SUB SWAP1 RETURN JUMPDEST PUSH2 0x8D PUSH1 0x4 DUP1 CALLDATASIZE SUB DUP2 ADD SWAP1 PUSH2 0x88 SWAP2 SWAP1 PUSH2 0x2D1 JUMP JUMPDEST PUSH2 0x163 JUMP JUMPDEST PUSH1 0x40 MLOAD PUSH2 0x9C SWAP4 SWAP3 SWAP2 SWAP1 PUSH2 0x3B5 JUMP JUMPDEST PUSH1 0x40 MLOAD DUP1 SWAP2 SUB SWAP1 RETURN JUMPDEST PUSH2 0xBF PUSH1 0x4 DUP1 CALLDATASIZE SUB DUP2 ADD SWAP1 PUSH2 0xBA SWAP2 SWAP1 PUSH2 0x547 JUMP JUMPDEST PUSH2 0x21A JUMP JUMPDEST STOP JUMPDEST PUSH1 0x60 PUSH0 PUSH0 DUP4 DUP2 MSTORE PUSH1 0x20 ADD SWAP1 DUP2 MSTORE PUSH1 0x20 ADD PUSH0 KECCAK256 PUSH0 ADD DUP1 SLOAD PUSH2 0xE0 SWAP1 PUSH2 0x5F4 JUMP JUMPDEST DUP1 PUSH1 0x1F ADD PUSH1 0x20 DUP1 SWAP2 DIV MUL PUSH1 0x20 ADD PUSH1 0x40 MLOAD SWAP1 DUP2 ADD PUSH1 0x40 MSTORE DUP1 SWAP3 SWAP2 SWAP1 DUP2 DUP2 MSTORE PUSH1 0x20 ADD DUP3 DUP1 SLOAD PUSH2 0x10C SWAP1 PUSH2 0x5F4 JUMP JUMPDEST DUP1 ISZERO PUSH2 0x157 JUMPI DUP1 PUSH1 0x1F LT PUSH2 0x12E JUMPI PUSH2 0x100 DUP1 DUP4 SLOAD DIV MUL DUP4 MSTORE SWAP2 PUSH1 0x20 ADD SWAP2 PUSH2 0x157 JUMP JUMPDEST DUP3 ADD SWAP2 SWAP1 PUSH0 MSTORE PUSH1 0x20 PUSH0 KECCAK256 SWAP1 JUMPDEST DUP2 SLOAD DUP2 MSTORE SWAP1 PUSH1 0x1 ADD SWAP1 PUSH1 0x20 ADD DUP1 DUP4 GT PUSH2 0x13A JUMPI DUP3 SWAP1 SUB PUSH1 0x1F AND DUP3 ADD SWAP2 JUMPDEST POP POP POP POP POP SWAP1 POP SWAP2 SWAP1 POP JUMP JUMPDEST PUSH0 PUSH1 0x20 MSTORE DUP1 PUSH0 MSTORE PUSH1 0x40 PUSH0 KECCAK256 PUSH0 SWAP2 POP SWAP1 POP DUP1 PUSH0 ADD DUP1 SLOAD PUSH2 0x181 SWAP1 PUSH2 0x5F4 JUMP JUMPDEST DUP1 PUSH1 0x1F ADD PUSH1 0x20 DUP1 SWAP2 DIV MUL PUSH1 0x20 ADD PUSH1 0x40 MLOAD SWAP1 DUP2 ADD PUSH1 0x40 MSTORE DUP1 SWAP3 SWAP2 SWAP1 DUP2 DUP2 MSTORE PUSH1 0x20 ADD DUP3 DUP1 SLOAD PUSH2 0x1AD SWAP1 PUSH2 0x5F4 JUMP JUMPDEST DUP1 ISZERO PUSH2 0x1F8 JUMPI DUP1 PUSH1 0x1F LT PUSH2 0x1CF JUMPI PUSH2 0x100 DUP1 DUP4 SLOAD DIV MUL DUP4 MSTORE SWAP2 PUSH1 0x20 ADD SWAP2 PUSH2 0x1F8 JUMP JUMPDEST DUP3 ADD SWAP2 SWAP1 PUSH0 MSTORE PUSH1 0x20 PUSH0 KECCAK256 SWAP1 JUMPDEST DUP2 SLOAD DUP2 MSTORE SWAP1 PUSH1 0x1 ADD SWAP1 PUSH1 0x20 ADD DUP1 DUP4 GT PUSH2 0x1DB JUMPI DUP3 SWAP1 SUB PUSH1 0x1F AND DUP3 ADD SWAP2 JUMPDEST POP POP POP POP POP SWAP1 DUP1 PUSH1 0x1 ADD SLOAD SWAP1 DUP1 PUSH1 0x2 ADD PUSH0 SWAP1 SLOAD SWAP1 PUSH2 0x100 EXP SWAP1 DIV PUSH1 0xFF AND SWAP1 POP DUP4 JUMP JUMPDEST PUSH1 0x40 MLOAD DUP1 PUSH1 0x60 ADD PUSH1 0x40 MSTORE DUP1 DUP5 DUP2 MSTORE PUSH1 0x20 ADD DUP4 DUP2 MSTORE PUSH1 0x20 ADD DUP3 ISZERO ISZERO DUP2 MSTORE POP PUSH0 PUSH0 DUP7 DUP2 MSTORE PUSH1 0x20 ADD SWAP1 DUP2 MSTORE PUSH1 0x20 ADD PUSH0 KECCAK256 PUSH0 DUP3 ADD MLOAD DUP2 PUSH0 ADD SWAP1 DUP2 PUSH2 0x25A SWAP2 SWAP1 PUSH2 0x7C4 JUMP JUMPDEST POP PUSH1 0x20 DUP3 ADD MLOAD DUP2 PUSH1 0x1 ADD SSTORE PUSH1 0x40 DUP3 ADD MLOAD DUP2 PUSH1 0x2 ADD PUSH0 PUSH2 0x100 EXP DUP2 SLOAD DUP2 PUSH1 0xFF MUL NOT AND SWAP1 DUP4 ISZERO ISZERO MUL OR SWAP1 SSTORE POP SWAP1 POP POP POP POP POP POP JUMP JUMPDEST PUSH0 PUSH1 0x40 MLOAD SWAP1 POP SWAP1 JUMP JUMPDEST PUSH0 PUSH0 REVERT JUMPDEST PUSH0 PUSH0 REVERT JUMPDEST PUSH0 DUP2 SWAP1 POP SWAP2 SWAP1 POP JUMP JUMPDEST PUSH2 0x2B0 DUP2 PUSH2 0x29E JUMP JUMPDEST DUP2 EQ PUSH2 0x2BA JUMPI PUSH0 PUSH0 REVERT JUMPDEST POP JUMP JUMPDEST PUSH0 DUP2 CALLDATALOAD SWAP1 POP PUSH2 0x2CB DUP2 PUSH2 0x2A7 JUMP JUMPDEST SWAP3 SWAP2 POP POP JUMP JUMPDEST PUSH0 PUSH1 0x20 DUP3 DUP5 SUB SLT ISZERO PUSH2 0x2E6 JUMPI PUSH2 0x2E5 PUSH2 0x296 JUMP JUMPDEST JUMPDEST PUSH0 PUSH2 0x2F3 DUP5 DUP3 DUP6 ADD PUSH2 0x2BD JUMP JUMPDEST SWAP2 POP POP SWAP3 SWAP2 POP POP JUMP JUMPDEST PUSH0 DUP2 MLOAD SWAP1 POP SWAP2 SWAP1 POP JUMP JUMPDEST PUSH0 DUP3 DUP3 MSTORE PUSH1 0x20 DUP3 ADD SWAP1 POP SWAP3 SWAP2 POP POP JUMP JUMPDEST DUP3 DUP2 DUP4 MCOPY PUSH0 DUP4 DUP4 ADD MSTORE POP POP POP JUMP JUMPDEST PUSH0 PUSH1 0x1F NOT PUSH1 0x1F DUP4 ADD AND SWAP1 POP SWAP2 SWAP1 POP JUMP JUMPDEST PUSH0 PUSH2 0x33E DUP3 PUSH2 0x2FC JUMP JUMPDEST PUSH2 0x348 DUP2 DUP6 PUSH2 0x306 JUMP JUMPDEST SWAP4 POP PUSH2 0x358 DUP2 DUP6 PUSH1 0x20 DUP7 ADD PUSH2 0x316 JUMP JUMPDEST PUSH2 0x361 DUP2 PUSH2 0x324 JUMP JUMPDEST DUP5 ADD SWAP2 POP POP SWAP3 SWAP2 POP POP JUMP JUMPDEST PUSH0 PUSH1 0x20 DUP3 ADD SWAP1 POP DUP2 DUP2 SUB PUSH0 DUP4 ADD MSTORE PUSH2 0x384 DUP2 DUP5 PUSH2 0x334 JUMP JUMPDEST SWAP1 POP SWAP3 SWAP2 POP POP JUMP JUMPDEST PUSH2 0x395 DUP2 PUSH2 0x29E JUMP JUMPDEST DUP3 MSTORE POP POP JUMP JUMPDEST PUSH0 DUP2 ISZERO ISZERO SWAP1 POP SWAP2 SWAP1 POP JUMP JUMPDEST PUSH2 0x3AF DUP2 PUSH2 0x39B JUMP JUMPDEST DUP3 MSTORE POP POP JUMP JUMPDEST PUSH0 PUSH1 0x60 DUP3 ADD SWAP1 POP DUP2 DUP2 SUB PUSH0 DUP4 ADD MSTORE PUSH2 0x3CD DUP2 DUP7 PUSH2 0x334 JUMP JUMPDEST SWAP1 POP PUSH2 0x3DC PUSH1 0x20 DUP4 ADD DUP6 PUSH2 0x38C JUMP JUMPDEST PUSH2 0x3E9 PUSH1 0x40 DUP4 ADD DUP5 PUSH2 0x3A6 JUMP JUMPDEST SWAP5 SWAP4 POP POP POP POP JUMP JUMPDEST PUSH0 PUSH0 REVERT JUMPDEST PUSH0 PUSH0 REVERT JUMPDEST PUSH32 0x4E487B7100000000000000000000000000000000000000000000000000000000 PUSH0 MSTORE PUSH1 0x41 PUSH1 0x4 MSTORE PUSH1 0x24 PUSH0 REVERT JUMPDEST PUSH2 0x42F DUP3 PUSH2 0x324 JUMP JUMPDEST DUP2 ADD DUP2 DUP2 LT PUSH8 0xFFFFFFFFFFFFFFFF DUP3 GT OR ISZERO PUSH2 0x44E JUMPI PUSH2 0x44D PUSH2 0x3F9 JUMP JUMPDEST JUMPDEST DUP1 PUSH1 0x40 MSTORE POP POP POP JUMP JUMPDEST PUSH0 PUSH2 0x460 PUSH2 0x28D JUMP JUMPDEST SWAP1 POP PUSH2 0x46C DUP3 DUP3 PUSH2 0x426 JUMP JUMPDEST SWAP2 SWAP1 POP JUMP JUMPDEST PUSH0 PUSH8 0xFFFFFFFFFFFFFFFF DUP3 GT ISZERO PUSH2 0x48B JUMPI PUSH2 0x48A PUSH2 0x3F9 JUMP JUMPDEST JUMPDEST PUSH2 0x494 DUP3 PUSH2 0x324 JUMP JUMPDEST SWAP1 POP PUSH1 0x20 DUP2 ADD SWAP1 POP SWAP2 SWAP1 POP JUMP JUMPDEST DUP3 DUP2 DUP4 CALLDATACOPY PUSH0 DUP4 DUP4 ADD MSTORE POP POP POP JUMP JUMPDEST PUSH0 PUSH2 0x4C1 PUSH2 0x4BC DUP5 PUSH2 0x471 JUMP JUMPDEST PUSH2 0x457 JUMP JUMPDEST SWAP1 POP DUP3 DUP2 MSTORE PUSH1 0x20 DUP2 ADD DUP5 DUP5 DUP5 ADD GT ISZERO PUSH2 0x4DD JUMPI PUSH2 0x4DC PUSH2 0x3F5 JUMP JUMPDEST JUMPDEST PUSH2 0x4E8 DUP5 DUP3 DUP6 PUSH2 0x4A1 JUMP JUMPDEST POP SWAP4 SWAP3 POP POP POP JUMP JUMPDEST PUSH0 DUP3 PUSH1 0x1F DUP4 ADD SLT PUSH2 0x504 JUMPI PUSH2 0x503 PUSH2 0x3F1 JUMP JUMPDEST JUMPDEST DUP2 CALLDATALOAD PUSH2 0x514 DUP5 DUP3 PUSH1 0x20 DUP7 ADD PUSH2 0x4AF JUMP JUMPDEST SWAP2 POP POP SWAP3 SWAP2 POP POP JUMP JUMPDEST PUSH2 0x526 DUP2 PUSH2 0x39B JUMP JUMPDEST DUP2 EQ PUSH2 0x530 JUMPI PUSH0 PUSH0 REVERT JUMPDEST POP JUMP JUMPDEST PUSH0 DUP2 CALLDATALOAD SWAP1 POP PUSH2 0x541 DUP2 PUSH2 0x51D JUMP JUMPDEST SWAP3 SWAP2 POP POP JUMP JUMPDEST PUSH0 PUSH0 PUSH0 PUSH0 PUSH1 0x80 DUP6 DUP8 SUB SLT ISZERO PUSH2 0x55F JUMPI PUSH2 0x55E PUSH2 0x296 JUMP JUMPDEST JUMPDEST PUSH0 PUSH2 0x56C DUP8 DUP3 DUP9 ADD PUSH2 0x2BD JUMP JUMPDEST SWAP5 POP POP PUSH1 0x20 DUP6 ADD CALLDATALOAD PUSH8 0xFFFFFFFFFFFFFFFF DUP2 GT ISZERO PUSH2 0x58D JUMPI PUSH2 0x58C PUSH2 0x29A JUMP JUMPDEST JUMPDEST PUSH2 0x599 DUP8 DUP3 DUP9 ADD PUSH2 0x4F0 JUMP JUMPDEST SWAP4 POP POP PUSH1 0x40 PUSH2 0x5AA DUP8 DUP3 DUP9 ADD PUSH2 0x2BD JUMP JUMPDEST SWAP3 POP POP PUSH1 0x60 PUSH2 0x5BB DUP8 DUP3 DUP9 ADD PUSH2 0x533 JUMP JUMPDEST SWAP2 POP POP SWAP3 SWAP6 SWAP2 SWAP5 POP SWAP3 POP JUMP JUMPDEST PUSH32 0x4E487B7100000000000000000000000000000000000000000000000000000000 PUSH0 MSTORE PUSH1 0x22 PUSH1 0x4 MSTORE PUSH1 0x24 PUSH0 REVERT JUMPDEST PUSH0 PUSH1 0x2 DUP3 DIV SWAP1 POP PUSH1 0x1 DUP3 AND DUP1 PUSH2 0x60B JUMPI PUSH1 0x7F DUP3 AND SWAP2 POP JUMPDEST PUSH1 0x20 DUP3 LT DUP2 SUB PUSH2 0x61E JUMPI PUSH2 0x61D PUSH2 0x5C7 JUMP JUMPDEST JUMPDEST POP SWAP2 SWAP1 POP JUMP JUMPDEST PUSH0 DUP2 SWAP1 POP DUP2 PUSH0 MSTORE PUSH1 0x20 PUSH0 KECCAK256 SWAP1 POP SWAP2 SWAP1 POP JUMP JUMPDEST PUSH0 PUSH1 0x20 PUSH1 0x1F DUP4 ADD DIV SWAP1 POP SWAP2 SWAP1 POP JUMP JUMPDEST PUSH0 DUP3 DUP3 SHL SWAP1 POP SWAP3 SWAP2 POP POP JUMP JUMPDEST PUSH0 PUSH1 0x8 DUP4 MUL PUSH2 0x680 PUSH32 0xFFFFFFFFFFFFFFFFFFFFFFFFFFFFFFFFFFFFFFFFFFFFFFFFFFFFFFFFFFFFFFFF DUP3 PUSH2 0x645 JUMP JUMPDEST PUSH2 0x68A DUP7 DUP4 PUSH2 0x645 JUMP JUMPDEST SWAP6 POP DUP1 NOT DUP5 AND SWAP4 POP DUP1 DUP7 AND DUP5 OR SWAP3 POP POP POP SWAP4 SWAP3 POP POP POP JUMP JUMPDEST PUSH0 DUP2 SWAP1 POP SWAP2 SWAP1 POP JUMP JUMPDEST PUSH0 PUSH2 0x6C5 PUSH2 0x6C0 PUSH2 0x6BB DUP5 PUSH2 0x29E JUMP JUMPDEST PUSH2 0x6A2 JUMP JUMPDEST PUSH2 0x29E JUMP JUMPDEST SWAP1 POP SWAP2 SWAP1 POP JUMP JUMPDEST PUSH0 DUP2 SWAP1 POP SWAP2 SWAP1 POP JUMP JUMPDEST PUSH2 0x6DE DUP4 PUSH2 0x6AB JUMP JUMPDEST PUSH2 0x6F2 PUSH2 0x6EA DUP3 PUSH2 0x6CC JUMP JUMPDEST DUP5 DUP5 SLOAD PUSH2 0x651 JUMP JUMPDEST DUP3 SSTORE POP POP POP POP JUMP JUMPDEST PUSH0 PUSH0 SWAP1 POP SWAP1 JUMP JUMPDEST PUSH2 0x709 PUSH2 0x6FA JUMP JUMPDEST PUSH2 0x714 DUP2 DUP5 DUP5 PUSH2 0x6D5 JUMP JUMPDEST POP POP POP JUMP JUMPDEST JUMPDEST DUP2 DUP2 LT ISZERO PUSH2 0x737 JUMPI PUSH2 0x72C PUSH0 DUP3 PUSH2 0x701 JUMP JUMPDEST PUSH1 0x1 DUP2 ADD SWAP1 POP PUSH2 0x71A JUMP JUMPDEST POP POP JUMP JUMPDEST PUSH1 0x1F DUP3 GT ISZERO PUSH2 0x77C JUMPI PUSH2 0x74D DUP2 PUSH2 0x624 JUMP JUMPDEST PUSH2 0x756 DUP5 PUSH2 0x636 JUMP JUMPDEST DUP2 ADD PUSH1 0x20 DUP6 LT ISZERO PUSH2 0x765 JUMPI DUP2 SWAP1 POP JUMPDEST PUSH2 0x779 PUSH2 0x771 DUP6 PUSH2 0x636 JUMP JUMPDEST DUP4 ADD DUP3 PUSH2 0x719 JUMP JUMPDEST POP POP JUMPDEST POP POP POP JUMP JUMPDEST PUSH0 DUP3 DUP3 SHR SWAP1 POP SWAP3 SWAP2 POP POP JUMP JUMPDEST PUSH0 PUSH2 0x79C PUSH0 NOT DUP5 PUSH1 0x8 MUL PUSH2 0x781 JUMP JUMPDEST NOT DUP1 DUP4 AND SWAP2 POP POP SWAP3 SWAP2 POP POP JUMP JUMPDEST PUSH0 PUSH2 0x7B4 DUP4 DUP4 PUSH2 0x78D JUMP JUMPDEST SWAP2 POP DUP3 PUSH1 0x2 MUL DUP3 OR SWAP1 POP SWAP3 SWAP2 POP POP JUMP JUMPDEST PUSH2 0x7CD DUP3 PUSH2 0x2FC JUMP JUMPDEST PUSH8 0xFFFFFFFFFFFFFFFF DUP2 GT ISZERO PUSH2 0x7E6 JUMPI PUSH2 0x7E5 PUSH2 0x3F9 JUMP JUMPDEST JUMPDEST PUSH2 0x7F0 DUP3 SLOAD PUSH2 0x5F4 JUMP JUMPDEST PUSH2 0x7FB DUP3 DUP3 DUP6 PUSH2 0x73B JUMP JUMPDEST PUSH0 PUSH1 0x20 SWAP1 POP PUSH1 0x1F DUP4 GT PUSH1 0x1 DUP2 EQ PUSH2 0x82C JUMPI PUSH0 DUP5 ISZERO PUSH2 0x81A JUMPI DUP3 DUP8 ADD MLOAD SWAP1 POP JUMPDEST PUSH2 0x824 DUP6 DUP3 PUSH2 0x7A9 JUMP JUMPDEST DUP7 SSTORE POP PUSH2 0x88B JUMP JUMPDEST PUSH1 0x1F NOT DUP5 AND PUSH2 0x83A DUP7 PUSH2 0x624 JUMP JUMPDEST PUSH0 JUMPDEST DUP3 DUP2 LT ISZERO PUSH2 0x861 JUMPI DUP5 DUP10 ADD MLOAD DUP3 SSTORE PUSH1 0x1 DUP3 ADD SWAP2 POP PUSH1 0x20 DUP6 ADD SWAP5 POP PUSH1 0x20 DUP2 ADD SWAP1 POP PUSH2 0x83C JUMP JUMPDEST DUP7 DUP4 LT ISZERO PUSH2 0x87E JUMPI DUP5 DUP10 ADD MLOAD PUSH2 0x87A PUSH1 0x1F DUP10 AND DUP3 PUSH2 0x78D JUMP JUMPDEST DUP4 SSTORE POP JUMPDEST PUSH1 0x1 PUSH1 0x2 DUP9 MUL ADD DUP9 SSTORE POP POP POP JUMPDEST POP POP POP POP POP POP JUMP INVALID LOG2 PUSH5 0x6970667358 0x22 SLT KECCAK256 0x22 PUSH12 0xA809786D7942D6FF81F1B476 BLOBBASEFEE 0xE9 0xC7 OR 0xFB 0xA8 0xD7 0xAD 0x1F 0xE2 0xBF 0xEB 0xBD GT 0xEB 0xB8 PUSH26 0xAB64736F6C634300081B00330000000000000000000000000000 "
		},
		"gasEstimates": {
			"creation": {
				"codeDepositCost": "449800",
				"executionCost": "484",
				"totalCost": "450284"
			},
			"external": {
				"getName(uint256)": "infinite",
				"insert(uint256,string,uint256,bool)": "infinite",
				"mapStruct(uint256)": "infinite"
			}
		},
		"methodIdentifiers": {
			"getName(uint256)": "6b8ff574",
			"insert(uint256,string,uint256,bool)": "e0258db7",
			"mapStruct(uint256)": "885e3771"
		}
	},
	"abi": [
		{
			"inputs": [
				{
					"internalType": "uint256",
					"name": "key",
					"type": "uint256"
				}
			],
			"name": "getName",
			"outputs": [
				{
					"internalType": "string",
					"name": "",
					"type": "string"
				}
			],
			"stateMutability": "view",
			"type": "function"
		},
		{
			"inputs": [
				{
					"internalType": "uint256",
					"name": "key",
					"type": "uint256"
				},
				{
					"internalType": "string",
					"name": "_name",
					"type": "string"
				},
				{
					"internalType": "uint256",
					"name": "_roll",
					"type": "uint256"
				},
				{
					"internalType": "bool",
					"name": "_pass",
					"type": "bool"
				}
			],
			"name": "insert",
			"outputs": [],
			"stateMutability": "nonpayable",
			"type": "function"
		},
		{
			"inputs": [
				{
					"internalType": "uint256",
					"name": "",
					"type": "uint256"
				}
			],
			"name": "mapStruct",
			"outputs": [
				{
					"internalType": "string",
					"name": "name",
					"type": "string"
				},
				{
					"internalType": "uint256",
					"name": "roll",
					"type": "uint256"
				},
				{
					"internalType": "bool",
					"name": "pass",
					"type": "bool"
				}
			],
			"stateMutability": "view",
			"type": "function"
		}
	]
}