{
	"contracts/Twitter-Assignment/twitter_2.sol": {
		"Twitter": {
			"abi": [
				{
					"inputs": [
						{
							"internalType": "address",
							"name": "_sender",
							"type": "address"
						},
						{
							"internalType": "address",
							"name": "_recipient",
							"type": "address"
						},
						{
							"internalType": "string[]",
							"name": "_message",
							"type": "string[]"
						}
					],
					"name": "sendMessage",
					"outputs": [],
					"stateMutability": "nonpayable",
					"type": "function"
				},
				{
					"inputs": [
						{
							"internalType": "address",
							"name": "",
							"type": "address"
						}
					],
					"name": "users2",
					"outputs": [
						{
							"internalType": "address",
							"name": "sender",
							"type": "address"
						},
						{
							"internalType": "uint256",
							"name": "time",
							"type": "uint256"
						}
					],
					"stateMutability": "view",
					"type": "function"
				}
			],
			"devdoc": {
				"kind": "dev",
				"methods": {},
				"version": 1
			},
			"evm": {
				"assembly": "    /* \"contracts/Twitter-Assignment/twitter_2.sol\":245:714  contract Twitter {... */\n  mstore(0x40, 0x80)\n  callvalue\n  dup1\n  iszero\n  tag_1\n  jumpi\n  0x00\n  dup1\n  revert\ntag_1:\n  pop\n  dataSize(sub_0)\n  dup1\n  dataOffset(sub_0)\n  0x00\n  codecopy\n  0x00\n  return\nstop\n\nsub_0: assembly {\n        /* \"contracts/Twitter-Assignment/twitter_2.sol\":245:714  contract Twitter {... */\n      mstore(0x40, 0x80)\n      callvalue\n      dup1\n      iszero\n      tag_1\n      jumpi\n      0x00\n      dup1\n      revert\n    tag_1:\n      pop\n      jumpi(tag_2, lt(calldatasize, 0x04))\n      shr(0xe0, calldataload(0x00))\n      dup1\n      0x584b2b7f\n      eq\n      tag_3\n      jumpi\n      dup1\n      0xbf39a89c\n      eq\n      tag_4\n      jumpi\n    tag_2:\n      0x00\n      dup1\n      revert\n        /* \"contracts/Twitter-Assignment/twitter_2.sol\":443:712  function sendMessage( address _sender,address _recipient, string[] calldata _message ) public {... */\n    tag_3:\n      tag_5\n      0x04\n      dup1\n      calldatasize\n      sub\n      dup2\n      add\n      swap1\n      tag_6\n      swap2\n      swap1\n      tag_7\n      jump\t// in\n    tag_6:\n      tag_8\n      jump\t// in\n    tag_5:\n      stop\n        /* \"contracts/Twitter-Assignment/twitter_2.sol\":397:436  mapping(address => User2) public users2 */\n    tag_4:\n      tag_9\n      0x04\n      dup1\n      calldatasize\n      sub\n      dup2\n      add\n      swap1\n      tag_10\n      swap2\n      swap1\n      tag_11\n      jump\t// in\n    tag_10:\n      tag_12\n      jump\t// in\n    tag_9:\n      mload(0x40)\n      tag_13\n      swap3\n      swap2\n      swap1\n      tag_14\n      jump\t// in\n    tag_13:\n      mload(0x40)\n      dup1\n      swap2\n      sub\n      swap1\n      return\n        /* \"contracts/Twitter-Assignment/twitter_2.sol\":443:712  function sendMessage( address _sender,address _recipient, string[] calldata _message ) public {... */\n    tag_8:\n        /* \"contracts/Twitter-Assignment/twitter_2.sol\":592:705  User2({... */\n      mload(0x40)\n      dup1\n      0x60\n      add\n      0x40\n      mstore\n      dup1\n        /* \"contracts/Twitter-Assignment/twitter_2.sol\":620:627  _sender */\n      dup6\n        /* \"contracts/Twitter-Assignment/twitter_2.sol\":592:705  User2({... */\n      0xffffffffffffffffffffffffffffffffffffffff\n      and\n      dup2\n      mstore\n      0x20\n      add\n        /* \"contracts/Twitter-Assignment/twitter_2.sol\":651:659  _message */\n      dup4\n      dup4\n        /* \"contracts/Twitter-Assignment/twitter_2.sol\":592:705  User2({... */\n      swap1\n      tag_16\n      swap2\n      swap1\n      tag_17\n      jump\t// in\n    tag_16:\n      dup2\n      mstore\n      0x20\n      add\n        /* \"contracts/Twitter-Assignment/twitter_2.sol\":679:694  block.timestamp */\n      timestamp\n        /* \"contracts/Twitter-Assignment/twitter_2.sol\":592:705  User2({... */\n      dup2\n      mstore\n      pop\n        /* \"contracts/Twitter-Assignment/twitter_2.sol\":571:577  users2 */\n      0x00\n        /* \"contracts/Twitter-Assignment/twitter_2.sol\":571:589  users2[_recipient] */\n      dup1\n        /* \"contracts/Twitter-Assignment/twitter_2.sol\":578:588  _recipient */\n      dup6\n        /* \"contracts/Twitter-Assignment/twitter_2.sol\":571:589  users2[_recipient] */\n      0xffffffffffffffffffffffffffffffffffffffff\n      and\n      0xffffffffffffffffffffffffffffffffffffffff\n      and\n      dup2\n      mstore\n      0x20\n      add\n      swap1\n      dup2\n      mstore\n      0x20\n      add\n      0x00\n      keccak256\n        /* \"contracts/Twitter-Assignment/twitter_2.sol\":571:705  users2[_recipient] = User2({... */\n      0x00\n      dup3\n      add\n      mload\n      dup2\n      0x00\n      add\n      exp(0x0100, 0x00)\n      dup2\n      sload\n      dup2\n      0xffffffffffffffffffffffffffffffffffffffff\n      mul\n      not\n      and\n      swap1\n      dup4\n      0xffffffffffffffffffffffffffffffffffffffff\n      and\n      mul\n      or\n      swap1\n      sstore\n      pop\n      0x20\n      dup3\n      add\n      mload\n      dup2\n      0x01\n      add\n      swap1\n      dup1\n      mload\n      swap1\n      0x20\n      add\n      swap1\n      tag_18\n      swap3\n      swap2\n      swap1\n      tag_19\n      jump\t// in\n    tag_18:\n      pop\n      0x40\n      dup3\n      add\n      mload\n      dup2\n      0x02\n      add\n      sstore\n      swap1\n      pop\n      pop\n        /* \"contracts/Twitter-Assignment/twitter_2.sol\":443:712  function sendMessage( address _sender,address _recipient, string[] calldata _message ) public {... */\n      pop\n      pop\n      pop\n      pop\n      jump\t// out\n        /* \"contracts/Twitter-Assignment/twitter_2.sol\":397:436  mapping(address => User2) public users2 */\n    tag_12:\n      mstore(0x20, 0x00)\n      dup1\n      0x00\n      mstore\n      keccak256(0x00, 0x40)\n      0x00\n      swap2\n      pop\n      swap1\n      pop\n      dup1\n      0x00\n      add\n      0x00\n      swap1\n      sload\n      swap1\n      0x0100\n      exp\n      swap1\n      div\n      0xffffffffffffffffffffffffffffffffffffffff\n      and\n      swap1\n      dup1\n      0x02\n      add\n      sload\n      swap1\n      pop\n      dup3\n      jump\t// out\n    tag_19:\n      dup3\n      dup1\n      sload\n      dup3\n      dup3\n      sstore\n      swap1\n      0x00\n      mstore\n      keccak256(0x00, 0x20)\n      swap1\n      dup2\n      add\n      swap3\n      dup3\n      iszero\n      tag_20\n      jumpi\n      swap2\n      0x20\n      mul\n      dup3\n      add\n    tag_21:\n      dup3\n      dup2\n      gt\n      iszero\n      tag_22\n      jumpi\n      dup3\n      mload\n      dup3\n      swap1\n      dup2\n      tag_23\n      swap2\n      swap1\n      tag_24\n      jump\t// in\n    tag_23:\n      pop\n      swap2\n      0x20\n      add\n      swap2\n      swap1\n      0x01\n      add\n      swap1\n      jump(tag_21)\n    tag_22:\n    tag_20:\n      pop\n      swap1\n      pop\n      tag_25\n      swap2\n      swap1\n      tag_26\n      jump\t// in\n    tag_25:\n      pop\n      swap1\n      jump\t// out\n    tag_26:\n    tag_27:\n      dup1\n      dup3\n      gt\n      iszero\n      tag_28\n      jumpi\n      0x00\n      dup2\n      dup2\n      tag_29\n      swap2\n      swap1\n      tag_30\n      jump\t// in\n    tag_29:\n      pop\n      0x01\n      add\n      jump(tag_27)\n    tag_28:\n      pop\n      swap1\n      jump\t// out\n    tag_30:\n      pop\n      dup1\n      sload\n      tag_31\n      swap1\n      tag_32\n      jump\t// in\n    tag_31:\n      0x00\n      dup3\n      sstore\n      dup1\n      0x1f\n      lt\n      tag_34\n      jumpi\n      pop\n      jump(tag_33)\n    tag_34:\n      0x1f\n      add\n      0x20\n      swap1\n      div\n      swap1\n      0x00\n      mstore\n      keccak256(0x00, 0x20)\n      swap1\n      dup2\n      add\n      swap1\n      tag_35\n      swap2\n      swap1\n      tag_36\n      jump\t// in\n    tag_35:\n    tag_33:\n      pop\n      jump\t// out\n    tag_36:\n    tag_37:\n      dup1\n      dup3\n      gt\n      iszero\n      tag_38\n      jumpi\n      0x00\n      dup2\n      0x00\n      swap1\n      sstore\n      pop\n      0x01\n      add\n      jump(tag_37)\n    tag_38:\n      pop\n      swap1\n      jump\t// out\n        /* \"#utility.yul\":7:82   */\n    tag_39:\n        /* \"#utility.yul\":40:46   */\n      0x00\n        /* \"#utility.yul\":73:75   */\n      0x40\n        /* \"#utility.yul\":67:76   */\n      mload\n        /* \"#utility.yul\":57:76   */\n      swap1\n      pop\n        /* \"#utility.yul\":7:82   */\n      swap1\n      jump\t// out\n        /* \"#utility.yul\":88:205   */\n    tag_40:\n        /* \"#utility.yul\":197:198   */\n      0x00\n        /* \"#utility.yul\":194:195   */\n      dup1\n        /* \"#utility.yul\":187:199   */\n      revert\n        /* \"#utility.yul\":211:328   */\n    tag_41:\n        /* \"#utility.yul\":320:321   */\n      0x00\n        /* \"#utility.yul\":317:318   */\n      dup1\n        /* \"#utility.yul\":310:322   */\n      revert\n        /* \"#utility.yul\":334:460   */\n    tag_42:\n        /* \"#utility.yul\":371:378   */\n      0x00\n        /* \"#utility.yul\":411:453   */\n      0xffffffffffffffffffffffffffffffffffffffff\n        /* \"#utility.yul\":404:409   */\n      dup3\n        /* \"#utility.yul\":400:454   */\n      and\n        /* \"#utility.yul\":389:454   */\n      swap1\n      pop\n        /* \"#utility.yul\":334:460   */\n      swap2\n      swap1\n      pop\n      jump\t// out\n        /* \"#utility.yul\":466:562   */\n    tag_43:\n        /* \"#utility.yul\":503:510   */\n      0x00\n        /* \"#utility.yul\":532:556   */\n      tag_87\n        /* \"#utility.yul\":550:555   */\n      dup3\n        /* \"#utility.yul\":532:556   */\n      tag_42\n      jump\t// in\n    tag_87:\n        /* \"#utility.yul\":521:556   */\n      swap1\n      pop\n        /* \"#utility.yul\":466:562   */\n      swap2\n      swap1\n      pop\n      jump\t// out\n        /* \"#utility.yul\":568:690   */\n    tag_44:\n        /* \"#utility.yul\":641:665   */\n      tag_89\n        /* \"#utility.yul\":659:664   */\n      dup2\n        /* \"#utility.yul\":641:665   */\n      tag_43\n      jump\t// in\n    tag_89:\n        /* \"#utility.yul\":634:639   */\n      dup2\n        /* \"#utility.yul\":631:666   */\n      eq\n        /* \"#utility.yul\":621:684   */\n      tag_90\n      jumpi\n        /* \"#utility.yul\":680:681   */\n      0x00\n        /* \"#utility.yul\":677:678   */\n      dup1\n        /* \"#utility.yul\":670:682   */\n      revert\n        /* \"#utility.yul\":621:684   */\n    tag_90:\n        /* \"#utility.yul\":568:690   */\n      pop\n      jump\t// out\n        /* \"#utility.yul\":696:835   */\n    tag_45:\n        /* \"#utility.yul\":742:747   */\n      0x00\n        /* \"#utility.yul\":780:786   */\n      dup2\n        /* \"#utility.yul\":767:787   */\n      calldataload\n        /* \"#utility.yul\":758:787   */\n      swap1\n      pop\n        /* \"#utility.yul\":796:829   */\n      tag_92\n        /* \"#utility.yul\":823:828   */\n      dup2\n        /* \"#utility.yul\":796:829   */\n      tag_44\n      jump\t// in\n    tag_92:\n        /* \"#utility.yul\":696:835   */\n      swap3\n      swap2\n      pop\n      pop\n      jump\t// out\n        /* \"#utility.yul\":841:958   */\n    tag_46:\n        /* \"#utility.yul\":950:951   */\n      0x00\n        /* \"#utility.yul\":947:948   */\n      dup1\n        /* \"#utility.yul\":940:952   */\n      revert\n        /* \"#utility.yul\":964:1081   */\n    tag_47:\n        /* \"#utility.yul\":1073:1074   */\n      0x00\n        /* \"#utility.yul\":1070:1071   */\n      dup1\n        /* \"#utility.yul\":1063:1075   */\n      revert\n        /* \"#utility.yul\":1087:1204   */\n    tag_48:\n        /* \"#utility.yul\":1196:1197   */\n      0x00\n        /* \"#utility.yul\":1193:1194   */\n      dup1\n        /* \"#utility.yul\":1186:1198   */\n      revert\n        /* \"#utility.yul\":1226:1806   */\n    tag_49:\n        /* \"#utility.yul\":1311:1319   */\n      0x00\n        /* \"#utility.yul\":1321:1327   */\n      dup1\n        /* \"#utility.yul\":1371:1374   */\n      dup4\n        /* \"#utility.yul\":1364:1368   */\n      0x1f\n        /* \"#utility.yul\":1356:1362   */\n      dup5\n        /* \"#utility.yul\":1352:1369   */\n      add\n        /* \"#utility.yul\":1348:1375   */\n      slt\n        /* \"#utility.yul\":1338:1460   */\n      tag_97\n      jumpi\n        /* \"#utility.yul\":1379:1458   */\n      tag_98\n      tag_46\n      jump\t// in\n    tag_98:\n        /* \"#utility.yul\":1338:1460   */\n    tag_97:\n        /* \"#utility.yul\":1492:1498   */\n      dup3\n        /* \"#utility.yul\":1479:1499   */\n      calldataload\n        /* \"#utility.yul\":1469:1499   */\n      swap1\n      pop\n        /* \"#utility.yul\":1522:1540   */\n      0xffffffffffffffff\n        /* \"#utility.yul\":1514:1520   */\n      dup2\n        /* \"#utility.yul\":1511:1541   */\n      gt\n        /* \"#utility.yul\":1508:1625   */\n      iszero\n      tag_99\n      jumpi\n        /* \"#utility.yul\":1544:1623   */\n      tag_100\n      tag_47\n      jump\t// in\n    tag_100:\n        /* \"#utility.yul\":1508:1625   */\n    tag_99:\n        /* \"#utility.yul\":1658:1662   */\n      0x20\n        /* \"#utility.yul\":1650:1656   */\n      dup4\n        /* \"#utility.yul\":1646:1663   */\n      add\n        /* \"#utility.yul\":1634:1663   */\n      swap2\n      pop\n        /* \"#utility.yul\":1712:1715   */\n      dup4\n        /* \"#utility.yul\":1704:1708   */\n      0x20\n        /* \"#utility.yul\":1696:1702   */\n      dup3\n        /* \"#utility.yul\":1692:1709   */\n      mul\n        /* \"#utility.yul\":1682:1690   */\n      dup4\n        /* \"#utility.yul\":1678:1710   */\n      add\n        /* \"#utility.yul\":1675:1716   */\n      gt\n        /* \"#utility.yul\":1672:1800   */\n      iszero\n      tag_101\n      jumpi\n        /* \"#utility.yul\":1719:1798   */\n      tag_102\n      tag_48\n      jump\t// in\n    tag_102:\n        /* \"#utility.yul\":1672:1800   */\n    tag_101:\n        /* \"#utility.yul\":1226:1806   */\n      swap3\n      pop\n      swap3\n      swap1\n      pop\n      jump\t// out\n        /* \"#utility.yul\":1812:2685   */\n    tag_7:\n        /* \"#utility.yul\":1928:1934   */\n      0x00\n        /* \"#utility.yul\":1936:1942   */\n      dup1\n        /* \"#utility.yul\":1944:1950   */\n      0x00\n        /* \"#utility.yul\":1952:1958   */\n      dup1\n        /* \"#utility.yul\":2001:2003   */\n      0x60\n        /* \"#utility.yul\":1989:1998   */\n      dup6\n        /* \"#utility.yul\":1980:1987   */\n      dup8\n        /* \"#utility.yul\":1976:1999   */\n      sub\n        /* \"#utility.yul\":1972:2004   */\n      slt\n        /* \"#utility.yul\":1969:2088   */\n      iszero\n      tag_104\n      jumpi\n        /* \"#utility.yul\":2007:2086   */\n      tag_105\n      tag_40\n      jump\t// in\n    tag_105:\n        /* \"#utility.yul\":1969:2088   */\n    tag_104:\n        /* \"#utility.yul\":2127:2128   */\n      0x00\n        /* \"#utility.yul\":2152:2205   */\n      tag_106\n        /* \"#utility.yul\":2197:2204   */\n      dup8\n        /* \"#utility.yul\":2188:2194   */\n      dup3\n        /* \"#utility.yul\":2177:2186   */\n      dup9\n        /* \"#utility.yul\":2173:2195   */\n      add\n        /* \"#utility.yul\":2152:2205   */\n      tag_45\n      jump\t// in\n    tag_106:\n        /* \"#utility.yul\":2142:2205   */\n      swap5\n      pop\n        /* \"#utility.yul\":2098:2215   */\n      pop\n        /* \"#utility.yul\":2254:2256   */\n      0x20\n        /* \"#utility.yul\":2280:2333   */\n      tag_107\n        /* \"#utility.yul\":2325:2332   */\n      dup8\n        /* \"#utility.yul\":2316:2322   */\n      dup3\n        /* \"#utility.yul\":2305:2314   */\n      dup9\n        /* \"#utility.yul\":2301:2323   */\n      add\n        /* \"#utility.yul\":2280:2333   */\n      tag_45\n      jump\t// in\n    tag_107:\n        /* \"#utility.yul\":2270:2333   */\n      swap4\n      pop\n        /* \"#utility.yul\":2225:2343   */\n      pop\n        /* \"#utility.yul\":2410:2412   */\n      0x40\n        /* \"#utility.yul\":2399:2408   */\n      dup6\n        /* \"#utility.yul\":2395:2413   */\n      add\n        /* \"#utility.yul\":2382:2414   */\n      calldataload\n        /* \"#utility.yul\":2441:2459   */\n      0xffffffffffffffff\n        /* \"#utility.yul\":2433:2439   */\n      dup2\n        /* \"#utility.yul\":2430:2460   */\n      gt\n        /* \"#utility.yul\":2427:2544   */\n      iszero\n      tag_108\n      jumpi\n        /* \"#utility.yul\":2463:2542   */\n      tag_109\n      tag_41\n      jump\t// in\n    tag_109:\n        /* \"#utility.yul\":2427:2544   */\n    tag_108:\n        /* \"#utility.yul\":2576:2668   */\n      tag_110\n        /* \"#utility.yul\":2660:2667   */\n      dup8\n        /* \"#utility.yul\":2651:2657   */\n      dup3\n        /* \"#utility.yul\":2640:2649   */\n      dup9\n        /* \"#utility.yul\":2636:2658   */\n      add\n        /* \"#utility.yul\":2576:2668   */\n      tag_49\n      jump\t// in\n    tag_110:\n        /* \"#utility.yul\":2558:2668   */\n      swap3\n      pop\n      swap3\n      pop\n        /* \"#utility.yul\":2353:2678   */\n      pop\n        /* \"#utility.yul\":1812:2685   */\n      swap3\n      swap6\n      swap2\n      swap5\n      pop\n      swap3\n      pop\n      jump\t// out\n        /* \"#utility.yul\":2691:3020   */\n    tag_11:\n        /* \"#utility.yul\":2750:2756   */\n      0x00\n        /* \"#utility.yul\":2799:2801   */\n      0x20\n        /* \"#utility.yul\":2787:2796   */\n      dup3\n        /* \"#utility.yul\":2778:2785   */\n      dup5\n        /* \"#utility.yul\":2774:2797   */\n      sub\n        /* \"#utility.yul\":2770:2802   */\n      slt\n        /* \"#utility.yul\":2767:2886   */\n      iszero\n      tag_112\n      jumpi\n        /* \"#utility.yul\":2805:2884   */\n      tag_113\n      tag_40\n      jump\t// in\n    tag_113:\n        /* \"#utility.yul\":2767:2886   */\n    tag_112:\n        /* \"#utility.yul\":2925:2926   */\n      0x00\n        /* \"#utility.yul\":2950:3003   */\n      tag_114\n        /* \"#utility.yul\":2995:3002   */\n      dup5\n        /* \"#utility.yul\":2986:2992   */\n      dup3\n        /* \"#utility.yul\":2975:2984   */\n      dup6\n        /* \"#utility.yul\":2971:2993   */\n      add\n        /* \"#utility.yul\":2950:3003   */\n      tag_45\n      jump\t// in\n    tag_114:\n        /* \"#utility.yul\":2940:3003   */\n      swap2\n      pop\n        /* \"#utility.yul\":2896:3013   */\n      pop\n        /* \"#utility.yul\":2691:3020   */\n      swap3\n      swap2\n      pop\n      pop\n      jump\t// out\n        /* \"#utility.yul\":3026:3144   */\n    tag_50:\n        /* \"#utility.yul\":3113:3137   */\n      tag_116\n        /* \"#utility.yul\":3131:3136   */\n      dup2\n        /* \"#utility.yul\":3113:3137   */\n      tag_43\n      jump\t// in\n    tag_116:\n        /* \"#utility.yul\":3108:3111   */\n      dup3\n        /* \"#utility.yul\":3101:3138   */\n      mstore\n        /* \"#utility.yul\":3026:3144   */\n      pop\n      pop\n      jump\t// out\n        /* \"#utility.yul\":3150:3227   */\n    tag_51:\n        /* \"#utility.yul\":3187:3194   */\n      0x00\n        /* \"#utility.yul\":3216:3221   */\n      dup2\n        /* \"#utility.yul\":3205:3221   */\n      swap1\n      pop\n        /* \"#utility.yul\":3150:3227   */\n      swap2\n      swap1\n      pop\n      jump\t// out\n        /* \"#utility.yul\":3233:3351   */\n    tag_52:\n        /* \"#utility.yul\":3320:3344   */\n      tag_119\n        /* \"#utility.yul\":3338:3343   */\n      dup2\n        /* \"#utility.yul\":3320:3344   */\n      tag_51\n      jump\t// in\n    tag_119:\n        /* \"#utility.yul\":3315:3318   */\n      dup3\n        /* \"#utility.yul\":3308:3345   */\n      mstore\n        /* \"#utility.yul\":3233:3351   */\n      pop\n      pop\n      jump\t// out\n        /* \"#utility.yul\":3357:3689   */\n    tag_14:\n        /* \"#utility.yul\":3478:3482   */\n      0x00\n        /* \"#utility.yul\":3516:3518   */\n      0x40\n        /* \"#utility.yul\":3505:3514   */\n      dup3\n        /* \"#utility.yul\":3501:3519   */\n      add\n        /* \"#utility.yul\":3493:3519   */\n      swap1\n      pop\n        /* \"#utility.yul\":3529:3600   */\n      tag_121\n        /* \"#utility.yul\":3597:3598   */\n      0x00\n        /* \"#utility.yul\":3586:3595   */\n      dup4\n        /* \"#utility.yul\":3582:3599   */\n      add\n        /* \"#utility.yul\":3573:3579   */\n      dup6\n        /* \"#utility.yul\":3529:3600   */\n      tag_50\n      jump\t// in\n    tag_121:\n        /* \"#utility.yul\":3610:3682   */\n      tag_122\n        /* \"#utility.yul\":3678:3680   */\n      0x20\n        /* \"#utility.yul\":3667:3676   */\n      dup4\n        /* \"#utility.yul\":3663:3681   */\n      add\n        /* \"#utility.yul\":3654:3660   */\n      dup5\n        /* \"#utility.yul\":3610:3682   */\n      tag_52\n      jump\t// in\n    tag_122:\n        /* \"#utility.yul\":3357:3689   */\n      swap4\n      swap3\n      pop\n      pop\n      pop\n      jump\t// out\n        /* \"#utility.yul\":3695:3797   */\n    tag_53:\n        /* \"#utility.yul\":3736:3742   */\n      0x00\n        /* \"#utility.yul\":3787:3789   */\n      0x1f\n        /* \"#utility.yul\":3783:3790   */\n      not\n        /* \"#utility.yul\":3778:3780   */\n      0x1f\n        /* \"#utility.yul\":3771:3776   */\n      dup4\n        /* \"#utility.yul\":3767:3781   */\n      add\n        /* \"#utility.yul\":3763:3791   */\n      and\n        /* \"#utility.yul\":3753:3791   */\n      swap1\n      pop\n        /* \"#utility.yul\":3695:3797   */\n      swap2\n      swap1\n      pop\n      jump\t// out\n        /* \"#utility.yul\":3803:3983   */\n    tag_54:\n        /* \"#utility.yul\":3851:3928   */\n      0x4e487b7100000000000000000000000000000000000000000000000000000000\n        /* \"#utility.yul\":3848:3849   */\n      0x00\n        /* \"#utility.yul\":3841:3929   */\n      mstore\n        /* \"#utility.yul\":3948:3952   */\n      0x41\n        /* \"#utility.yul\":3945:3946   */\n      0x04\n        /* \"#utility.yul\":3938:3953   */\n      mstore\n        /* \"#utility.yul\":3972:3976   */\n      0x24\n        /* \"#utility.yul\":3969:3970   */\n      0x00\n        /* \"#utility.yul\":3962:3977   */\n      revert\n        /* \"#utility.yul\":3989:4270   */\n    tag_55:\n        /* \"#utility.yul\":4072:4099   */\n      tag_126\n        /* \"#utility.yul\":4094:4098   */\n      dup3\n        /* \"#utility.yul\":4072:4099   */\n      tag_53\n      jump\t// in\n    tag_126:\n        /* \"#utility.yul\":4064:4070   */\n      dup2\n        /* \"#utility.yul\":4060:4100   */\n      add\n        /* \"#utility.yul\":4202:4208   */\n      dup2\n        /* \"#utility.yul\":4190:4200   */\n      dup2\n        /* \"#utility.yul\":4187:4209   */\n      lt\n        /* \"#utility.yul\":4166:4184   */\n      0xffffffffffffffff\n        /* \"#utility.yul\":4154:4164   */\n      dup3\n        /* \"#utility.yul\":4151:4185   */\n      gt\n        /* \"#utility.yul\":4148:4210   */\n      or\n        /* \"#utility.yul\":4145:4233   */\n      iszero\n      tag_127\n      jumpi\n        /* \"#utility.yul\":4213:4231   */\n      tag_128\n      tag_54\n      jump\t// in\n    tag_128:\n        /* \"#utility.yul\":4145:4233   */\n    tag_127:\n        /* \"#utility.yul\":4253:4263   */\n      dup1\n        /* \"#utility.yul\":4249:4251   */\n      0x40\n        /* \"#utility.yul\":4242:4264   */\n      mstore\n        /* \"#utility.yul\":4032:4270   */\n      pop\n        /* \"#utility.yul\":3989:4270   */\n      pop\n      pop\n      jump\t// out\n        /* \"#utility.yul\":4276:4405   */\n    tag_56:\n        /* \"#utility.yul\":4310:4316   */\n      0x00\n        /* \"#utility.yul\":4337:4357   */\n      tag_130\n      tag_39\n      jump\t// in\n    tag_130:\n        /* \"#utility.yul\":4327:4357   */\n      swap1\n      pop\n        /* \"#utility.yul\":4366:4399   */\n      tag_131\n        /* \"#utility.yul\":4394:4398   */\n      dup3\n        /* \"#utility.yul\":4386:4392   */\n      dup3\n        /* \"#utility.yul\":4366:4399   */\n      tag_55\n      jump\t// in\n    tag_131:\n        /* \"#utility.yul\":4276:4405   */\n      swap2\n      swap1\n      pop\n      jump\t// out\n        /* \"#utility.yul\":4411:4732   */\n    tag_57:\n        /* \"#utility.yul\":4498:4502   */\n      0x00\n        /* \"#utility.yul\":4588:4606   */\n      0xffffffffffffffff\n        /* \"#utility.yul\":4580:4586   */\n      dup3\n        /* \"#utility.yul\":4577:4607   */\n      gt\n        /* \"#utility.yul\":4574:4630   */\n      iszero\n      tag_133\n      jumpi\n        /* \"#utility.yul\":4610:4628   */\n      tag_134\n      tag_54\n      jump\t// in\n    tag_134:\n        /* \"#utility.yul\":4574:4630   */\n    tag_133:\n        /* \"#utility.yul\":4660:4664   */\n      0x20\n        /* \"#utility.yul\":4652:4658   */\n      dup3\n        /* \"#utility.yul\":4648:4665   */\n      mul\n        /* \"#utility.yul\":4640:4665   */\n      swap1\n      pop\n        /* \"#utility.yul\":4720:4724   */\n      0x20\n        /* \"#utility.yul\":4714:4718   */\n      dup2\n        /* \"#utility.yul\":4710:4725   */\n      add\n        /* \"#utility.yul\":4702:4725   */\n      swap1\n      pop\n        /* \"#utility.yul\":4411:4732   */\n      swap2\n      swap1\n      pop\n      jump\t// out\n        /* \"#utility.yul\":4738:4855   */\n    tag_58:\n        /* \"#utility.yul\":4847:4848   */\n      0x00\n        /* \"#utility.yul\":4844:4845   */\n      dup1\n        /* \"#utility.yul\":4837:4849   */\n      revert\n        /* \"#utility.yul\":4861:5169   */\n    tag_59:\n        /* \"#utility.yul\":4923:4927   */\n      0x00\n        /* \"#utility.yul\":5013:5031   */\n      0xffffffffffffffff\n        /* \"#utility.yul\":5005:5011   */\n      dup3\n        /* \"#utility.yul\":5002:5032   */\n      gt\n        /* \"#utility.yul\":4999:5055   */\n      iszero\n      tag_137\n      jumpi\n        /* \"#utility.yul\":5035:5053   */\n      tag_138\n      tag_54\n      jump\t// in\n    tag_138:\n        /* \"#utility.yul\":4999:5055   */\n    tag_137:\n        /* \"#utility.yul\":5073:5102   */\n      tag_139\n        /* \"#utility.yul\":5095:5101   */\n      dup3\n        /* \"#utility.yul\":5073:5102   */\n      tag_53\n      jump\t// in\n    tag_139:\n        /* \"#utility.yul\":5065:5102   */\n      swap1\n      pop\n        /* \"#utility.yul\":5157:5161   */\n      0x20\n        /* \"#utility.yul\":5151:5155   */\n      dup2\n        /* \"#utility.yul\":5147:5162   */\n      add\n        /* \"#utility.yul\":5139:5162   */\n      swap1\n      pop\n        /* \"#utility.yul\":4861:5169   */\n      swap2\n      swap1\n      pop\n      jump\t// out\n        /* \"#utility.yul\":5175:5323   */\n    tag_60:\n        /* \"#utility.yul\":5273:5279   */\n      dup3\n        /* \"#utility.yul\":5268:5271   */\n      dup2\n        /* \"#utility.yul\":5263:5266   */\n      dup4\n        /* \"#utility.yul\":5250:5280   */\n      calldatacopy\n        /* \"#utility.yul\":5314:5315   */\n      0x00\n        /* \"#utility.yul\":5305:5311   */\n      dup4\n        /* \"#utility.yul\":5300:5303   */\n      dup4\n        /* \"#utility.yul\":5296:5312   */\n      add\n        /* \"#utility.yul\":5289:5316   */\n      mstore\n        /* \"#utility.yul\":5175:5323   */\n      pop\n      pop\n      pop\n      jump\t// out\n        /* \"#utility.yul\":5329:5754   */\n    tag_61:\n        /* \"#utility.yul\":5407:5412   */\n      0x00\n        /* \"#utility.yul\":5432:5498   */\n      tag_142\n        /* \"#utility.yul\":5448:5497   */\n      tag_143\n        /* \"#utility.yul\":5490:5496   */\n      dup5\n        /* \"#utility.yul\":5448:5497   */\n      tag_59\n      jump\t// in\n    tag_143:\n        /* \"#utility.yul\":5432:5498   */\n      tag_56\n      jump\t// in\n    tag_142:\n        /* \"#utility.yul\":5423:5498   */\n      swap1\n      pop\n        /* \"#utility.yul\":5521:5527   */\n      dup3\n        /* \"#utility.yul\":5514:5519   */\n      dup2\n        /* \"#utility.yul\":5507:5528   */\n      mstore\n        /* \"#utility.yul\":5559:5563   */\n      0x20\n        /* \"#utility.yul\":5552:5557   */\n      dup2\n        /* \"#utility.yul\":5548:5564   */\n      add\n        /* \"#utility.yul\":5597:5600   */\n      dup5\n        /* \"#utility.yul\":5588:5594   */\n      dup5\n        /* \"#utility.yul\":5583:5586   */\n      dup5\n        /* \"#utility.yul\":5579:5595   */\n      add\n        /* \"#utility.yul\":5576:5601   */\n      gt\n        /* \"#utility.yul\":5573:5685   */\n      iszero\n      tag_144\n      jumpi\n        /* \"#utility.yul\":5604:5683   */\n      tag_145\n      tag_58\n      jump\t// in\n    tag_145:\n        /* \"#utility.yul\":5573:5685   */\n    tag_144:\n        /* \"#utility.yul\":5694:5748   */\n      tag_146\n        /* \"#utility.yul\":5741:5747   */\n      dup5\n        /* \"#utility.yul\":5736:5739   */\n      dup3\n        /* \"#utility.yul\":5731:5734   */\n      dup6\n        /* \"#utility.yul\":5694:5748   */\n      tag_60\n      jump\t// in\n    tag_146:\n        /* \"#utility.yul\":5413:5754   */\n      pop\n        /* \"#utility.yul\":5329:5754   */\n      swap4\n      swap3\n      pop\n      pop\n      pop\n      jump\t// out\n        /* \"#utility.yul\":5774:6114   */\n    tag_62:\n        /* \"#utility.yul\":5830:5835   */\n      0x00\n        /* \"#utility.yul\":5879:5882   */\n      dup3\n        /* \"#utility.yul\":5872:5876   */\n      0x1f\n        /* \"#utility.yul\":5864:5870   */\n      dup4\n        /* \"#utility.yul\":5860:5877   */\n      add\n        /* \"#utility.yul\":5856:5883   */\n      slt\n        /* \"#utility.yul\":5846:5968   */\n      tag_148\n      jumpi\n        /* \"#utility.yul\":5887:5966   */\n      tag_149\n      tag_46\n      jump\t// in\n    tag_149:\n        /* \"#utility.yul\":5846:5968   */\n    tag_148:\n        /* \"#utility.yul\":6004:6010   */\n      dup2\n        /* \"#utility.yul\":5991:6011   */\n      calldataload\n        /* \"#utility.yul\":6029:6108   */\n      tag_150\n        /* \"#utility.yul\":6104:6107   */\n      dup5\n        /* \"#utility.yul\":6096:6102   */\n      dup3\n        /* \"#utility.yul\":6089:6093   */\n      0x20\n        /* \"#utility.yul\":6081:6087   */\n      dup7\n        /* \"#utility.yul\":6077:6094   */\n      add\n        /* \"#utility.yul\":6029:6108   */\n      tag_61\n      jump\t// in\n    tag_150:\n        /* \"#utility.yul\":6020:6108   */\n      swap2\n      pop\n        /* \"#utility.yul\":5836:6114   */\n      pop\n        /* \"#utility.yul\":5774:6114   */\n      swap3\n      swap2\n      pop\n      pop\n      jump\t// out\n        /* \"#utility.yul\":6136:7081   */\n    tag_63:\n        /* \"#utility.yul\":6242:6247   */\n      0x00\n        /* \"#utility.yul\":6267:6358   */\n      tag_152\n        /* \"#utility.yul\":6283:6357   */\n      tag_153\n        /* \"#utility.yul\":6350:6356   */\n      dup5\n        /* \"#utility.yul\":6283:6357   */\n      tag_57\n      jump\t// in\n    tag_153:\n        /* \"#utility.yul\":6267:6358   */\n      tag_56\n      jump\t// in\n    tag_152:\n        /* \"#utility.yul\":6258:6358   */\n      swap1\n      pop\n        /* \"#utility.yul\":6378:6383   */\n      dup1\n        /* \"#utility.yul\":6407:6413   */\n      dup4\n        /* \"#utility.yul\":6400:6405   */\n      dup3\n        /* \"#utility.yul\":6393:6414   */\n      mstore\n        /* \"#utility.yul\":6441:6445   */\n      0x20\n        /* \"#utility.yul\":6434:6439   */\n      dup3\n        /* \"#utility.yul\":6430:6446   */\n      add\n        /* \"#utility.yul\":6423:6446   */\n      swap1\n      pop\n        /* \"#utility.yul\":6494:6498   */\n      0x20\n        /* \"#utility.yul\":6486:6492   */\n      dup5\n        /* \"#utility.yul\":6482:6499   */\n      mul\n        /* \"#utility.yul\":6474:6480   */\n      dup4\n        /* \"#utility.yul\":6470:6500   */\n      add\n        /* \"#utility.yul\":6523:6526   */\n      dup6\n        /* \"#utility.yul\":6515:6521   */\n      dup2\n        /* \"#utility.yul\":6512:6527   */\n      gt\n        /* \"#utility.yul\":6509:6631   */\n      iszero\n      tag_154\n      jumpi\n        /* \"#utility.yul\":6542:6621   */\n      tag_155\n      tag_48\n      jump\t// in\n    tag_155:\n        /* \"#utility.yul\":6509:6631   */\n    tag_154:\n        /* \"#utility.yul\":6657:6663   */\n      dup4\n        /* \"#utility.yul\":6640:7075   */\n    tag_156:\n        /* \"#utility.yul\":6674:6680   */\n      dup2\n        /* \"#utility.yul\":6669:6672   */\n      dup2\n        /* \"#utility.yul\":6666:6681   */\n      lt\n        /* \"#utility.yul\":6640:7075   */\n      iszero\n      tag_158\n      jumpi\n        /* \"#utility.yul\":6763:6766   */\n      dup1\n        /* \"#utility.yul\":6750:6767   */\n      calldataload\n        /* \"#utility.yul\":6799:6817   */\n      0xffffffffffffffff\n        /* \"#utility.yul\":6786:6797   */\n      dup2\n        /* \"#utility.yul\":6783:6818   */\n      gt\n        /* \"#utility.yul\":6780:6902   */\n      iszero\n      tag_159\n      jumpi\n        /* \"#utility.yul\":6821:6900   */\n      tag_160\n      tag_46\n      jump\t// in\n    tag_160:\n        /* \"#utility.yul\":6780:6902   */\n    tag_159:\n        /* \"#utility.yul\":6945:6956   */\n      dup1\n        /* \"#utility.yul\":6937:6943   */\n      dup7\n        /* \"#utility.yul\":6933:6957   */\n      add\n        /* \"#utility.yul\":6983:7030   */\n      tag_161\n        /* \"#utility.yul\":7026:7029   */\n      dup10\n        /* \"#utility.yul\":7014:7024   */\n      dup3\n        /* \"#utility.yul\":6983:7030   */\n      tag_62\n      jump\t// in\n    tag_161:\n        /* \"#utility.yul\":6978:6981   */\n      dup6\n        /* \"#utility.yul\":6971:7031   */\n      mstore\n        /* \"#utility.yul\":7060:7064   */\n      0x20\n        /* \"#utility.yul\":7055:7058   */\n      dup6\n        /* \"#utility.yul\":7051:7065   */\n      add\n        /* \"#utility.yul\":7044:7065   */\n      swap5\n      pop\n        /* \"#utility.yul\":6716:7075   */\n      pop\n      pop\n        /* \"#utility.yul\":6700:6704   */\n      0x20\n        /* \"#utility.yul\":6695:6698   */\n      dup2\n        /* \"#utility.yul\":6691:6705   */\n      add\n        /* \"#utility.yul\":6684:6705   */\n      swap1\n      pop\n        /* \"#utility.yul\":6640:7075   */\n      jump(tag_156)\n    tag_158:\n        /* \"#utility.yul\":6644:6665   */\n      pop\n        /* \"#utility.yul\":6248:7081   */\n      pop\n      pop\n        /* \"#utility.yul\":6136:7081   */\n      swap4\n      swap3\n      pop\n      pop\n      pop\n      jump\t// out\n        /* \"#utility.yul\":7087:7434   */\n    tag_17:\n        /* \"#utility.yul\":7225:7234   */\n      0x00\n        /* \"#utility.yul\":7324:7427   */\n      tag_163\n        /* \"#utility.yul\":7412:7426   */\n      calldatasize\n        /* \"#utility.yul\":7404:7410   */\n      dup5\n        /* \"#utility.yul\":7397:7402   */\n      dup5\n        /* \"#utility.yul\":7324:7427   */\n      tag_63\n      jump\t// in\n    tag_163:\n        /* \"#utility.yul\":7302:7427   */\n      swap1\n      pop\n        /* \"#utility.yul\":7087:7434   */\n      swap3\n      swap2\n      pop\n      pop\n      jump\t// out\n        /* \"#utility.yul\":7440:7539   */\n    tag_64:\n        /* \"#utility.yul\":7492:7498   */\n      0x00\n        /* \"#utility.yul\":7526:7531   */\n      dup2\n        /* \"#utility.yul\":7520:7532   */\n      mload\n        /* \"#utility.yul\":7510:7532   */\n      swap1\n      pop\n        /* \"#utility.yul\":7440:7539   */\n      swap2\n      swap1\n      pop\n      jump\t// out\n        /* \"#utility.yul\":7545:7725   */\n    tag_65:\n        /* \"#utility.yul\":7593:7670   */\n      0x4e487b7100000000000000000000000000000000000000000000000000000000\n        /* \"#utility.yul\":7590:7591   */\n      0x00\n        /* \"#utility.yul\":7583:7671   */\n      mstore\n        /* \"#utility.yul\":7690:7694   */\n      0x22\n        /* \"#utility.yul\":7687:7688   */\n      0x04\n        /* \"#utility.yul\":7680:7695   */\n      mstore\n        /* \"#utility.yul\":7714:7718   */\n      0x24\n        /* \"#utility.yul\":7711:7712   */\n      0x00\n        /* \"#utility.yul\":7704:7719   */\n      revert\n        /* \"#utility.yul\":7731:8051   */\n    tag_32:\n        /* \"#utility.yul\":7775:7781   */\n      0x00\n        /* \"#utility.yul\":7812:7813   */\n      0x02\n        /* \"#utility.yul\":7806:7810   */\n      dup3\n        /* \"#utility.yul\":7802:7814   */\n      div\n        /* \"#utility.yul\":7792:7814   */\n      swap1\n      pop\n        /* \"#utility.yul\":7859:7860   */\n      0x01\n        /* \"#utility.yul\":7853:7857   */\n      dup3\n        /* \"#utility.yul\":7849:7861   */\n      and\n        /* \"#utility.yul\":7880:7898   */\n      dup1\n        /* \"#utility.yul\":7870:7951   */\n      tag_167\n      jumpi\n        /* \"#utility.yul\":7936:7940   */\n      0x7f\n        /* \"#utility.yul\":7928:7934   */\n      dup3\n        /* \"#utility.yul\":7924:7941   */\n      and\n        /* \"#utility.yul\":7914:7941   */\n      swap2\n      pop\n        /* \"#utility.yul\":7870:7951   */\n    tag_167:\n        /* \"#utility.yul\":7998:8000   */\n      0x20\n        /* \"#utility.yul\":7990:7996   */\n      dup3\n        /* \"#utility.yul\":7987:8001   */\n      lt\n        /* \"#utility.yul\":7967:7985   */\n      dup2\n        /* \"#utility.yul\":7964:8002   */\n      sub\n        /* \"#utility.yul\":7961:8045   */\n      tag_168\n      jumpi\n        /* \"#utility.yul\":8017:8035   */\n      tag_169\n      tag_65\n      jump\t// in\n    tag_169:\n        /* \"#utility.yul\":7961:8045   */\n    tag_168:\n        /* \"#utility.yul\":7782:8051   */\n      pop\n        /* \"#utility.yul\":7731:8051   */\n      swap2\n      swap1\n      pop\n      jump\t// out\n        /* \"#utility.yul\":8057:8198   */\n    tag_66:\n        /* \"#utility.yul\":8106:8110   */\n      0x00\n        /* \"#utility.yul\":8129:8132   */\n      dup2\n        /* \"#utility.yul\":8121:8132   */\n      swap1\n      pop\n        /* \"#utility.yul\":8152:8155   */\n      dup2\n        /* \"#utility.yul\":8149:8150   */\n      0x00\n        /* \"#utility.yul\":8142:8156   */\n      mstore\n        /* \"#utility.yul\":8186:8190   */\n      0x20\n        /* \"#utility.yul\":8183:8184   */\n      0x00\n        /* \"#utility.yul\":8173:8191   */\n      keccak256\n        /* \"#utility.yul\":8165:8191   */\n      swap1\n      pop\n        /* \"#utility.yul\":8057:8198   */\n      swap2\n      swap1\n      pop\n      jump\t// out\n        /* \"#utility.yul\":8204:8297   */\n    tag_67:\n        /* \"#utility.yul\":8241:8247   */\n      0x00\n        /* \"#utility.yul\":8288:8290   */\n      0x20\n        /* \"#utility.yul\":8283:8285   */\n      0x1f\n        /* \"#utility.yul\":8276:8281   */\n      dup4\n        /* \"#utility.yul\":8272:8286   */\n      add\n        /* \"#utility.yul\":8268:8291   */\n      div\n        /* \"#utility.yul\":8258:8291   */\n      swap1\n      pop\n        /* \"#utility.yul\":8204:8297   */\n      swap2\n      swap1\n      pop\n      jump\t// out\n        /* \"#utility.yul\":8303:8410   */\n    tag_68:\n        /* \"#utility.yul\":8347:8355   */\n      0x00\n        /* \"#utility.yul\":8397:8402   */\n      dup3\n        /* \"#utility.yul\":8391:8395   */\n      dup3\n        /* \"#utility.yul\":8387:8403   */\n      shl\n        /* \"#utility.yul\":8366:8403   */\n      swap1\n      pop\n        /* \"#utility.yul\":8303:8410   */\n      swap3\n      swap2\n      pop\n      pop\n      jump\t// out\n        /* \"#utility.yul\":8416:8809   */\n    tag_69:\n        /* \"#utility.yul\":8485:8491   */\n      0x00\n        /* \"#utility.yul\":8535:8536   */\n      0x08\n        /* \"#utility.yul\":8523:8533   */\n      dup4\n        /* \"#utility.yul\":8519:8537   */\n      mul\n        /* \"#utility.yul\":8558:8655   */\n      tag_174\n        /* \"#utility.yul\":8588:8654   */\n      0xffffffffffffffffffffffffffffffffffffffffffffffffffffffffffffffff\n        /* \"#utility.yul\":8577:8586   */\n      dup3\n        /* \"#utility.yul\":8558:8655   */\n      tag_68\n      jump\t// in\n    tag_174:\n        /* \"#utility.yul\":8676:8715   */\n      tag_175\n        /* \"#utility.yul\":8706:8714   */\n      dup7\n        /* \"#utility.yul\":8695:8704   */\n      dup4\n        /* \"#utility.yul\":8676:8715   */\n      tag_68\n      jump\t// in\n    tag_175:\n        /* \"#utility.yul\":8664:8715   */\n      swap6\n      pop\n        /* \"#utility.yul\":8748:8752   */\n      dup1\n        /* \"#utility.yul\":8744:8753   */\n      not\n        /* \"#utility.yul\":8737:8742   */\n      dup5\n        /* \"#utility.yul\":8733:8754   */\n      and\n        /* \"#utility.yul\":8724:8754   */\n      swap4\n      pop\n        /* \"#utility.yul\":8797:8801   */\n      dup1\n        /* \"#utility.yul\":8787:8795   */\n      dup7\n        /* \"#utility.yul\":8783:8802   */\n      and\n        /* \"#utility.yul\":8776:8781   */\n      dup5\n        /* \"#utility.yul\":8773:8803   */\n      or\n        /* \"#utility.yul\":8763:8803   */\n      swap3\n      pop\n        /* \"#utility.yul\":8492:8809   */\n      pop\n      pop\n        /* \"#utility.yul\":8416:8809   */\n      swap4\n      swap3\n      pop\n      pop\n      pop\n      jump\t// out\n        /* \"#utility.yul\":8815:8875   */\n    tag_70:\n        /* \"#utility.yul\":8843:8846   */\n      0x00\n        /* \"#utility.yul\":8864:8869   */\n      dup2\n        /* \"#utility.yul\":8857:8869   */\n      swap1\n      pop\n        /* \"#utility.yul\":8815:8875   */\n      swap2\n      swap1\n      pop\n      jump\t// out\n        /* \"#utility.yul\":8881:9023   */\n    tag_71:\n        /* \"#utility.yul\":8931:8940   */\n      0x00\n        /* \"#utility.yul\":8964:9017   */\n      tag_178\n        /* \"#utility.yul\":8982:9016   */\n      tag_179\n        /* \"#utility.yul\":8991:9015   */\n      tag_180\n        /* \"#utility.yul\":9009:9014   */\n      dup5\n        /* \"#utility.yul\":8991:9015   */\n      tag_51\n      jump\t// in\n    tag_180:\n        /* \"#utility.yul\":8982:9016   */\n      tag_70\n      jump\t// in\n    tag_179:\n        /* \"#utility.yul\":8964:9017   */\n      tag_51\n      jump\t// in\n    tag_178:\n        /* \"#utility.yul\":8951:9017   */\n      swap1\n      pop\n        /* \"#utility.yul\":8881:9023   */\n      swap2\n      swap1\n      pop\n      jump\t// out\n        /* \"#utility.yul\":9029:9104   */\n    tag_72:\n        /* \"#utility.yul\":9072:9075   */\n      0x00\n        /* \"#utility.yul\":9093:9098   */\n      dup2\n        /* \"#utility.yul\":9086:9098   */\n      swap1\n      pop\n        /* \"#utility.yul\":9029:9104   */\n      swap2\n      swap1\n      pop\n      jump\t// out\n        /* \"#utility.yul\":9110:9379   */\n    tag_73:\n        /* \"#utility.yul\":9220:9259   */\n      tag_183\n        /* \"#utility.yul\":9251:9258   */\n      dup4\n        /* \"#utility.yul\":9220:9259   */\n      tag_71\n      jump\t// in\n    tag_183:\n        /* \"#utility.yul\":9281:9372   */\n      tag_184\n        /* \"#utility.yul\":9330:9371   */\n      tag_185\n        /* \"#utility.yul\":9354:9370   */\n      dup3\n        /* \"#utility.yul\":9330:9371   */\n      tag_72\n      jump\t// in\n    tag_185:\n        /* \"#utility.yul\":9322:9328   */\n      dup5\n        /* \"#utility.yul\":9315:9319   */\n      dup5\n        /* \"#utility.yul\":9309:9320   */\n      sload\n        /* \"#utility.yul\":9281:9372   */\n      tag_69\n      jump\t// in\n    tag_184:\n        /* \"#utility.yul\":9275:9279   */\n      dup3\n        /* \"#utility.yul\":9268:9373   */\n      sstore\n        /* \"#utility.yul\":9186:9379   */\n      pop\n        /* \"#utility.yul\":9110:9379   */\n      pop\n      pop\n      pop\n      jump\t// out\n        /* \"#utility.yul\":9385:9458   */\n    tag_74:\n        /* \"#utility.yul\":9430:9433   */\n      0x00\n        /* \"#utility.yul\":9385:9458   */\n      swap1\n      jump\t// out\n        /* \"#utility.yul\":9464:9653   */\n    tag_75:\n        /* \"#utility.yul\":9541:9573   */\n      tag_188\n      tag_74\n      jump\t// in\n    tag_188:\n        /* \"#utility.yul\":9582:9647   */\n      tag_189\n        /* \"#utility.yul\":9640:9646   */\n      dup2\n        /* \"#utility.yul\":9632:9638   */\n      dup5\n        /* \"#utility.yul\":9626:9630   */\n      dup5\n        /* \"#utility.yul\":9582:9647   */\n      tag_73\n      jump\t// in\n    tag_189:\n        /* \"#utility.yul\":9517:9653   */\n      pop\n        /* \"#utility.yul\":9464:9653   */\n      pop\n      pop\n      jump\t// out\n        /* \"#utility.yul\":9659:9845   */\n    tag_76:\n        /* \"#utility.yul\":9719:9839   */\n    tag_191:\n        /* \"#utility.yul\":9736:9739   */\n      dup2\n        /* \"#utility.yul\":9729:9734   */\n      dup2\n        /* \"#utility.yul\":9726:9740   */\n      lt\n        /* \"#utility.yul\":9719:9839   */\n      iszero\n      tag_193\n      jumpi\n        /* \"#utility.yul\":9790:9829   */\n      tag_194\n        /* \"#utility.yul\":9827:9828   */\n      0x00\n        /* \"#utility.yul\":9820:9825   */\n      dup3\n        /* \"#utility.yul\":9790:9829   */\n      tag_75\n      jump\t// in\n    tag_194:\n        /* \"#utility.yul\":9763:9764   */\n      0x01\n        /* \"#utility.yul\":9756:9761   */\n      dup2\n        /* \"#utility.yul\":9752:9765   */\n      add\n        /* \"#utility.yul\":9743:9765   */\n      swap1\n      pop\n        /* \"#utility.yul\":9719:9839   */\n      jump(tag_191)\n    tag_193:\n        /* \"#utility.yul\":9659:9845   */\n      pop\n      pop\n      jump\t// out\n        /* \"#utility.yul\":9851:10394   */\n    tag_77:\n        /* \"#utility.yul\":9952:9954   */\n      0x1f\n        /* \"#utility.yul\":9947:9950   */\n      dup3\n        /* \"#utility.yul\":9944:9955   */\n      gt\n        /* \"#utility.yul\":9941:10387   */\n      iszero\n      tag_196\n      jumpi\n        /* \"#utility.yul\":9986:10024   */\n      tag_197\n        /* \"#utility.yul\":10018:10023   */\n      dup2\n        /* \"#utility.yul\":9986:10024   */\n      tag_66\n      jump\t// in\n    tag_197:\n        /* \"#utility.yul\":10070:10099   */\n      tag_198\n        /* \"#utility.yul\":10088:10098   */\n      dup5\n        /* \"#utility.yul\":10070:10099   */\n      tag_67\n      jump\t// in\n    tag_198:\n        /* \"#utility.yul\":10060:10068   */\n      dup2\n        /* \"#utility.yul\":10056:10100   */\n      add\n        /* \"#utility.yul\":10253:10255   */\n      0x20\n        /* \"#utility.yul\":10241:10251   */\n      dup6\n        /* \"#utility.yul\":10238:10256   */\n      lt\n        /* \"#utility.yul\":10235:10284   */\n      iszero\n      tag_199\n      jumpi\n        /* \"#utility.yul\":10274:10282   */\n      dup2\n        /* \"#utility.yul\":10259:10282   */\n      swap1\n      pop\n        /* \"#utility.yul\":10235:10284   */\n    tag_199:\n        /* \"#utility.yul\":10297:10377   */\n      tag_200\n        /* \"#utility.yul\":10353:10375   */\n      tag_201\n        /* \"#utility.yul\":10371:10374   */\n      dup6\n        /* \"#utility.yul\":10353:10375   */\n      tag_67\n      jump\t// in\n    tag_201:\n        /* \"#utility.yul\":10343:10351   */\n      dup4\n        /* \"#utility.yul\":10339:10376   */\n      add\n        /* \"#utility.yul\":10326:10337   */\n      dup3\n        /* \"#utility.yul\":10297:10377   */\n      tag_76\n      jump\t// in\n    tag_200:\n        /* \"#utility.yul\":9956:10387   */\n      pop\n      pop\n        /* \"#utility.yul\":9941:10387   */\n    tag_196:\n        /* \"#utility.yul\":9851:10394   */\n      pop\n      pop\n      pop\n      jump\t// out\n        /* \"#utility.yul\":10400:10517   */\n    tag_78:\n        /* \"#utility.yul\":10454:10462   */\n      0x00\n        /* \"#utility.yul\":10504:10509   */\n      dup3\n        /* \"#utility.yul\":10498:10502   */\n      dup3\n        /* \"#utility.yul\":10494:10510   */\n      shr\n        /* \"#utility.yul\":10473:10510   */\n      swap1\n      pop\n        /* \"#utility.yul\":10400:10517   */\n      swap3\n      swap2\n      pop\n      pop\n      jump\t// out\n        /* \"#utility.yul\":10523:10692   */\n    tag_79:\n        /* \"#utility.yul\":10567:10573   */\n      0x00\n        /* \"#utility.yul\":10600:10651   */\n      tag_204\n        /* \"#utility.yul\":10648:10649   */\n      0x00\n        /* \"#utility.yul\":10644:10650   */\n      not\n        /* \"#utility.yul\":10636:10641   */\n      dup5\n        /* \"#utility.yul\":10633:10634   */\n      0x08\n        /* \"#utility.yul\":10629:10642   */\n      mul\n        /* \"#utility.yul\":10600:10651   */\n      tag_78\n      jump\t// in\n    tag_204:\n        /* \"#utility.yul\":10596:10652   */\n      not\n        /* \"#utility.yul\":10681:10685   */\n      dup1\n        /* \"#utility.yul\":10675:10679   */\n      dup4\n        /* \"#utility.yul\":10671:10686   */\n      and\n        /* \"#utility.yul\":10661:10686   */\n      swap2\n      pop\n        /* \"#utility.yul\":10574:10692   */\n      pop\n        /* \"#utility.yul\":10523:10692   */\n      swap3\n      swap2\n      pop\n      pop\n      jump\t// out\n        /* \"#utility.yul\":10697:10992   */\n    tag_80:\n        /* \"#utility.yul\":10773:10777   */\n      0x00\n        /* \"#utility.yul\":10919:10948   */\n      tag_206\n        /* \"#utility.yul\":10944:10947   */\n      dup4\n        /* \"#utility.yul\":10938:10942   */\n      dup4\n        /* \"#utility.yul\":10919:10948   */\n      tag_79\n      jump\t// in\n    tag_206:\n        /* \"#utility.yul\":10911:10948   */\n      swap2\n      pop\n        /* \"#utility.yul\":10981:10984   */\n      dup3\n        /* \"#utility.yul\":10978:10979   */\n      0x02\n        /* \"#utility.yul\":10974:10985   */\n      mul\n        /* \"#utility.yul\":10968:10972   */\n      dup3\n        /* \"#utility.yul\":10965:10986   */\n      or\n        /* \"#utility.yul\":10957:10986   */\n      swap1\n      pop\n        /* \"#utility.yul\":10697:10992   */\n      swap3\n      swap2\n      pop\n      pop\n      jump\t// out\n        /* \"#utility.yul\":10997:12392   */\n    tag_24:\n        /* \"#utility.yul\":11114:11151   */\n      tag_208\n        /* \"#utility.yul\":11147:11150   */\n      dup3\n        /* \"#utility.yul\":11114:11151   */\n      tag_64\n      jump\t// in\n    tag_208:\n        /* \"#utility.yul\":11216:11234   */\n      0xffffffffffffffff\n        /* \"#utility.yul\":11208:11214   */\n      dup2\n        /* \"#utility.yul\":11205:11235   */\n      gt\n        /* \"#utility.yul\":11202:11258   */\n      iszero\n      tag_209\n      jumpi\n        /* \"#utility.yul\":11238:11256   */\n      tag_210\n      tag_54\n      jump\t// in\n    tag_210:\n        /* \"#utility.yul\":11202:11258   */\n    tag_209:\n        /* \"#utility.yul\":11282:11320   */\n      tag_211\n        /* \"#utility.yul\":11314:11318   */\n      dup3\n        /* \"#utility.yul\":11308:11319   */\n      sload\n        /* \"#utility.yul\":11282:11320   */\n      tag_32\n      jump\t// in\n    tag_211:\n        /* \"#utility.yul\":11367:11434   */\n      tag_212\n        /* \"#utility.yul\":11427:11433   */\n      dup3\n        /* \"#utility.yul\":11419:11425   */\n      dup3\n        /* \"#utility.yul\":11413:11417   */\n      dup6\n        /* \"#utility.yul\":11367:11434   */\n      tag_77\n      jump\t// in\n    tag_212:\n        /* \"#utility.yul\":11461:11462   */\n      0x00\n        /* \"#utility.yul\":11485:11489   */\n      0x20\n        /* \"#utility.yul\":11472:11489   */\n      swap1\n      pop\n        /* \"#utility.yul\":11517:11519   */\n      0x1f\n        /* \"#utility.yul\":11509:11515   */\n      dup4\n        /* \"#utility.yul\":11506:11520   */\n      gt\n        /* \"#utility.yul\":11534:11535   */\n      0x01\n        /* \"#utility.yul\":11529:12147   */\n      dup2\n      eq\n      tag_214\n      jumpi\n        /* \"#utility.yul\":12191:12192   */\n      0x00\n        /* \"#utility.yul\":12208:12214   */\n      dup5\n        /* \"#utility.yul\":12205:12282   */\n      iszero\n      tag_215\n      jumpi\n        /* \"#utility.yul\":12257:12266   */\n      dup3\n        /* \"#utility.yul\":12252:12255   */\n      dup8\n        /* \"#utility.yul\":12248:12267   */\n      add\n        /* \"#utility.yul\":12242:12268   */\n      mload\n        /* \"#utility.yul\":12233:12268   */\n      swap1\n      pop\n        /* \"#utility.yul\":12205:12282   */\n    tag_215:\n        /* \"#utility.yul\":12308:12375   */\n      tag_216\n        /* \"#utility.yul\":12368:12374   */\n      dup6\n        /* \"#utility.yul\":12361:12366   */\n      dup3\n        /* \"#utility.yul\":12308:12375   */\n      tag_80\n      jump\t// in\n    tag_216:\n        /* \"#utility.yul\":12302:12306   */\n      dup7\n        /* \"#utility.yul\":12295:12376   */\n      sstore\n        /* \"#utility.yul\":12164:12386   */\n      pop\n        /* \"#utility.yul\":11499:12386   */\n      jump(tag_213)\n        /* \"#utility.yul\":11529:12147   */\n    tag_214:\n        /* \"#utility.yul\":11581:11585   */\n      0x1f\n        /* \"#utility.yul\":11577:11586   */\n      not\n        /* \"#utility.yul\":11569:11575   */\n      dup5\n        /* \"#utility.yul\":11565:11587   */\n      and\n        /* \"#utility.yul\":11615:11652   */\n      tag_217\n        /* \"#utility.yul\":11647:11651   */\n      dup7\n        /* \"#utility.yul\":11615:11652   */\n      tag_66\n      jump\t// in\n    tag_217:\n        /* \"#utility.yul\":11674:11675   */\n      0x00\n        /* \"#utility.yul\":11688:11896   */\n    tag_218:\n        /* \"#utility.yul\":11702:11709   */\n      dup3\n        /* \"#utility.yul\":11699:11700   */\n      dup2\n        /* \"#utility.yul\":11696:11710   */\n      lt\n        /* \"#utility.yul\":11688:11896   */\n      iszero\n      tag_220\n      jumpi\n        /* \"#utility.yul\":11781:11790   */\n      dup5\n        /* \"#utility.yul\":11776:11779   */\n      dup10\n        /* \"#utility.yul\":11772:11791   */\n      add\n        /* \"#utility.yul\":11766:11792   */\n      mload\n        /* \"#utility.yul\":11758:11764   */\n      dup3\n        /* \"#utility.yul\":11751:11793   */\n      sstore\n        /* \"#utility.yul\":11832:11833   */\n      0x01\n        /* \"#utility.yul\":11824:11830   */\n      dup3\n        /* \"#utility.yul\":11820:11834   */\n      add\n        /* \"#utility.yul\":11810:11834   */\n      swap2\n      pop\n        /* \"#utility.yul\":11879:11881   */\n      0x20\n        /* \"#utility.yul\":11868:11877   */\n      dup6\n        /* \"#utility.yul\":11864:11882   */\n      add\n        /* \"#utility.yul\":11851:11882   */\n      swap5\n      pop\n        /* \"#utility.yul\":11725:11729   */\n      0x20\n        /* \"#utility.yul\":11722:11723   */\n      dup2\n        /* \"#utility.yul\":11718:11730   */\n      add\n        /* \"#utility.yul\":11713:11730   */\n      swap1\n      pop\n        /* \"#utility.yul\":11688:11896   */\n      jump(tag_218)\n    tag_220:\n        /* \"#utility.yul\":11924:11930   */\n      dup7\n        /* \"#utility.yul\":11915:11922   */\n      dup4\n        /* \"#utility.yul\":11912:11931   */\n      lt\n        /* \"#utility.yul\":11909:12088   */\n      iszero\n      tag_221\n      jumpi\n        /* \"#utility.yul\":11982:11991   */\n      dup5\n        /* \"#utility.yul\":11977:11980   */\n      dup10\n        /* \"#utility.yul\":11973:11992   */\n      add\n        /* \"#utility.yul\":11967:11993   */\n      mload\n        /* \"#utility.yul\":12025:12073   */\n      tag_222\n        /* \"#utility.yul\":12067:12071   */\n      0x1f\n        /* \"#utility.yul\":12059:12065   */\n      dup10\n        /* \"#utility.yul\":12055:12072   */\n      and\n        /* \"#utility.yul\":12044:12053   */\n      dup3\n        /* \"#utility.yul\":12025:12073   */\n      tag_79\n      jump\t// in\n    tag_222:\n        /* \"#utility.yul\":12017:12023   */\n      dup4\n        /* \"#utility.yul\":12010:12074   */\n      sstore\n        /* \"#utility.yul\":11932:12088   */\n      pop\n        /* \"#utility.yul\":11909:12088   */\n    tag_221:\n        /* \"#utility.yul\":12134:12135   */\n      0x01\n        /* \"#utility.yul\":12130:12131   */\n      0x02\n        /* \"#utility.yul\":12122:12128   */\n      dup9\n        /* \"#utility.yul\":12118:12132   */\n      mul\n        /* \"#utility.yul\":12114:12136   */\n      add\n        /* \"#utility.yul\":12108:12112   */\n      dup9\n        /* \"#utility.yul\":12101:12137   */\n      sstore\n        /* \"#utility.yul\":11536:12147   */\n      pop\n      pop\n      pop\n        /* \"#utility.yul\":11499:12386   */\n    tag_213:\n      pop\n        /* \"#utility.yul\":11089:12392   */\n      pop\n      pop\n      pop\n        /* \"#utility.yul\":10997:12392   */\n      pop\n      pop\n      jump\t// out\n\n    auxdata: 0xa264697066735822122029e17823bef42b3590db08012b7db63b8a05c034b258ed24c65f8a94655b0ef864736f6c634300081a0033\n}\n",
				"bytecode": {
					"linkReferences": {},
					"object": "6080604052348015600e575f80fd5b5061093e8061001c5f395ff3fe608060405234801561000f575f80fd5b5060043610610034575f3560e01c8063584b2b7f14610038578063bf39a89c14610054575b5f80fd5b610052600480360381019061004d919061034e565b610085565b005b61006e600480360381019061006991906103bf565b610172565b60405161007c929190610411565b60405180910390f35b60405180606001604052808573ffffffffffffffffffffffffffffffffffffffff1681526020018383906100b99190610621565b8152602001428152505f808573ffffffffffffffffffffffffffffffffffffffff1673ffffffffffffffffffffffffffffffffffffffff1681526020019081526020015f205f820151815f015f6101000a81548173ffffffffffffffffffffffffffffffffffffffff021916908373ffffffffffffffffffffffffffffffffffffffff160217905550602082015181600101908051906020019061015e9291906101b0565b506040820151816002015590505050505050565b5f602052805f5260405f205f91509050805f015f9054906101000a900473ffffffffffffffffffffffffffffffffffffffff16908060020154905082565b828054828255905f5260205f209081019282156101f6579160200282015b828111156101f55782518290816101e59190610839565b50916020019190600101906101ce565b5b5090506102039190610207565b5090565b5b80821115610226575f818161021d919061022a565b50600101610208565b5090565b5080546102369061066c565b5f825580601f106102475750610264565b601f0160209004905f5260205f20908101906102639190610267565b5b50565b5b8082111561027e575f815f905550600101610268565b5090565b5f604051905090565b5f80fd5b5f80fd5b5f73ffffffffffffffffffffffffffffffffffffffff82169050919050565b5f6102bc82610293565b9050919050565b6102cc816102b2565b81146102d6575f80fd5b50565b5f813590506102e7816102c3565b92915050565b5f80fd5b5f80fd5b5f80fd5b5f8083601f84011261030e5761030d6102ed565b5b8235905067ffffffffffffffff81111561032b5761032a6102f1565b5b602083019150836020820283011115610347576103466102f5565b5b9250929050565b5f805f80606085870312156103665761036561028b565b5b5f610373878288016102d9565b9450506020610384878288016102d9565b935050604085013567ffffffffffffffff8111156103a5576103a461028f565b5b6103b1878288016102f9565b925092505092959194509250565b5f602082840312156103d4576103d361028b565b5b5f6103e1848285016102d9565b91505092915050565b6103f3816102b2565b82525050565b5f819050919050565b61040b816103f9565b82525050565b5f6040820190506104245f8301856103ea565b6104316020830184610402565b9392505050565b5f601f19601f8301169050919050565b7f4e487b71000000000000000000000000000000000000000000000000000000005f52604160045260245ffd5b61047e82610438565b810181811067ffffffffffffffff8211171561049d5761049c610448565b5b80604052505050565b5f6104af610282565b90506104bb8282610475565b919050565b5f67ffffffffffffffff8211156104da576104d9610448565b5b602082029050602081019050919050565b5f80fd5b5f67ffffffffffffffff82111561050957610508610448565b5b61051282610438565b9050602081019050919050565b828183375f83830152505050565b5f61053f61053a846104ef565b6104a6565b90508281526020810184848401111561055b5761055a6104eb565b5b61056684828561051f565b509392505050565b5f82601f830112610582576105816102ed565b5b813561059284826020860161052d565b91505092915050565b5f6105ad6105a8846104c0565b6104a6565b905080838252602082019050602084028301858111156105d0576105cf6102f5565b5b835b8181101561061757803567ffffffffffffffff8111156105f5576105f46102ed565b5b808601610602898261056e565b855260208501945050506020810190506105d2565b5050509392505050565b5f61062d36848461059b565b905092915050565b5f81519050919050565b7f4e487b71000000000000000000000000000000000000000000000000000000005f52602260045260245ffd5b5f600282049050600182168061068357607f821691505b6020821081036106965761069561063f565b5b50919050565b5f819050815f5260205f209050919050565b5f6020601f8301049050919050565b5f82821b905092915050565b5f600883026106f87fffffffffffffffffffffffffffffffffffffffffffffffffffffffffffffffff826106bd565b61070286836106bd565b95508019841693508086168417925050509392505050565b5f819050919050565b5f61073d610738610733846103f9565b61071a565b6103f9565b9050919050565b5f819050919050565b61075683610723565b61076a61076282610744565b8484546106c9565b825550505050565b5f90565b61077e610772565b61078981848461074d565b505050565b5b818110156107ac576107a15f82610776565b60018101905061078f565b5050565b601f8211156107f1576107c28161069c565b6107cb846106ae565b810160208510156107da578190505b6107ee6107e6856106ae565b83018261078e565b50505b505050565b5f82821c905092915050565b5f6108115f19846008026107f6565b1980831691505092915050565b5f6108298383610802565b9150826002028217905092915050565b61084282610635565b67ffffffffffffffff81111561085b5761085a610448565b5b610865825461066c565b6108708282856107b0565b5f60209050601f8311600181146108a1575f841561088f578287015190505b610899858261081e565b865550610900565b601f1984166108af8661069c565b5f5b828110156108d6578489015182556001820191506020850194506020810190506108b1565b868310156108f357848901516108ef601f891682610802565b8355505b6001600288020188555050505b50505050505056fea264697066735822122029e17823bef42b3590db08012b7db63b8a05c034b258ed24c65f8a94655b0ef864736f6c634300081a0033",
					"opcodes": "PUSH1 0x80 PUSH1 0x40 MSTORE CALLVALUE DUP1 ISZERO PUSH1 0xE JUMPI PUSH0 DUP1 REVERT JUMPDEST POP PUSH2 0x93E DUP1 PUSH2 0x1C PUSH0 CODECOPY PUSH0 RETURN INVALID PUSH1 0x80 PUSH1 0x40 MSTORE CALLVALUE DUP1 ISZERO PUSH2 0xF JUMPI PUSH0 DUP1 REVERT JUMPDEST POP PUSH1 0x4 CALLDATASIZE LT PUSH2 0x34 JUMPI PUSH0 CALLDATALOAD PUSH1 0xE0 SHR DUP1 PUSH4 0x584B2B7F EQ PUSH2 0x38 JUMPI DUP1 PUSH4 0xBF39A89C EQ PUSH2 0x54 JUMPI JUMPDEST PUSH0 DUP1 REVERT JUMPDEST PUSH2 0x52 PUSH1 0x4 DUP1 CALLDATASIZE SUB DUP2 ADD SWAP1 PUSH2 0x4D SWAP2 SWAP1 PUSH2 0x34E JUMP JUMPDEST PUSH2 0x85 JUMP JUMPDEST STOP JUMPDEST PUSH2 0x6E PUSH1 0x4 DUP1 CALLDATASIZE SUB DUP2 ADD SWAP1 PUSH2 0x69 SWAP2 SWAP1 PUSH2 0x3BF JUMP JUMPDEST PUSH2 0x172 JUMP JUMPDEST PUSH1 0x40 MLOAD PUSH2 0x7C SWAP3 SWAP2 SWAP1 PUSH2 0x411 JUMP JUMPDEST PUSH1 0x40 MLOAD DUP1 SWAP2 SUB SWAP1 RETURN JUMPDEST PUSH1 0x40 MLOAD DUP1 PUSH1 0x60 ADD PUSH1 0x40 MSTORE DUP1 DUP6 PUSH20 0xFFFFFFFFFFFFFFFFFFFFFFFFFFFFFFFFFFFFFFFF AND DUP2 MSTORE PUSH1 0x20 ADD DUP4 DUP4 SWAP1 PUSH2 0xB9 SWAP2 SWAP1 PUSH2 0x621 JUMP JUMPDEST DUP2 MSTORE PUSH1 0x20 ADD TIMESTAMP DUP2 MSTORE POP PUSH0 DUP1 DUP6 PUSH20 0xFFFFFFFFFFFFFFFFFFFFFFFFFFFFFFFFFFFFFFFF AND PUSH20 0xFFFFFFFFFFFFFFFFFFFFFFFFFFFFFFFFFFFFFFFF AND DUP2 MSTORE PUSH1 0x20 ADD SWAP1 DUP2 MSTORE PUSH1 0x20 ADD PUSH0 KECCAK256 PUSH0 DUP3 ADD MLOAD DUP2 PUSH0 ADD PUSH0 PUSH2 0x100 EXP DUP2 SLOAD DUP2 PUSH20 0xFFFFFFFFFFFFFFFFFFFFFFFFFFFFFFFFFFFFFFFF MUL NOT AND SWAP1 DUP4 PUSH20 0xFFFFFFFFFFFFFFFFFFFFFFFFFFFFFFFFFFFFFFFF AND MUL OR SWAP1 SSTORE POP PUSH1 0x20 DUP3 ADD MLOAD DUP2 PUSH1 0x1 ADD SWAP1 DUP1 MLOAD SWAP1 PUSH1 0x20 ADD SWAP1 PUSH2 0x15E SWAP3 SWAP2 SWAP1 PUSH2 0x1B0 JUMP JUMPDEST POP PUSH1 0x40 DUP3 ADD MLOAD DUP2 PUSH1 0x2 ADD SSTORE SWAP1 POP POP POP POP POP POP JUMP JUMPDEST PUSH0 PUSH1 0x20 MSTORE DUP1 PUSH0 MSTORE PUSH1 0x40 PUSH0 KECCAK256 PUSH0 SWAP2 POP SWAP1 POP DUP1 PUSH0 ADD PUSH0 SWAP1 SLOAD SWAP1 PUSH2 0x100 EXP SWAP1 DIV PUSH20 0xFFFFFFFFFFFFFFFFFFFFFFFFFFFFFFFFFFFFFFFF AND SWAP1 DUP1 PUSH1 0x2 ADD SLOAD SWAP1 POP DUP3 JUMP JUMPDEST DUP3 DUP1 SLOAD DUP3 DUP3 SSTORE SWAP1 PUSH0 MSTORE PUSH1 0x20 PUSH0 KECCAK256 SWAP1 DUP2 ADD SWAP3 DUP3 ISZERO PUSH2 0x1F6 JUMPI SWAP2 PUSH1 0x20 MUL DUP3 ADD JUMPDEST DUP3 DUP2 GT ISZERO PUSH2 0x1F5 JUMPI DUP3 MLOAD DUP3 SWAP1 DUP2 PUSH2 0x1E5 SWAP2 SWAP1 PUSH2 0x839 JUMP JUMPDEST POP SWAP2 PUSH1 0x20 ADD SWAP2 SWAP1 PUSH1 0x1 ADD SWAP1 PUSH2 0x1CE JUMP JUMPDEST JUMPDEST POP SWAP1 POP PUSH2 0x203 SWAP2 SWAP1 PUSH2 0x207 JUMP JUMPDEST POP SWAP1 JUMP JUMPDEST JUMPDEST DUP1 DUP3 GT ISZERO PUSH2 0x226 JUMPI PUSH0 DUP2 DUP2 PUSH2 0x21D SWAP2 SWAP1 PUSH2 0x22A JUMP JUMPDEST POP PUSH1 0x1 ADD PUSH2 0x208 JUMP JUMPDEST POP SWAP1 JUMP JUMPDEST POP DUP1 SLOAD PUSH2 0x236 SWAP1 PUSH2 0x66C JUMP JUMPDEST PUSH0 DUP3 SSTORE DUP1 PUSH1 0x1F LT PUSH2 0x247 JUMPI POP PUSH2 0x264 JUMP JUMPDEST PUSH1 0x1F ADD PUSH1 0x20 SWAP1 DIV SWAP1 PUSH0 MSTORE PUSH1 0x20 PUSH0 KECCAK256 SWAP1 DUP2 ADD SWAP1 PUSH2 0x263 SWAP2 SWAP1 PUSH2 0x267 JUMP JUMPDEST JUMPDEST POP JUMP JUMPDEST JUMPDEST DUP1 DUP3 GT ISZERO PUSH2 0x27E JUMPI PUSH0 DUP2 PUSH0 SWAP1 SSTORE POP PUSH1 0x1 ADD PUSH2 0x268 JUMP JUMPDEST POP SWAP1 JUMP JUMPDEST PUSH0 PUSH1 0x40 MLOAD SWAP1 POP SWAP1 JUMP JUMPDEST PUSH0 DUP1 REVERT JUMPDEST PUSH0 DUP1 REVERT JUMPDEST PUSH0 PUSH20 0xFFFFFFFFFFFFFFFFFFFFFFFFFFFFFFFFFFFFFFFF DUP3 AND SWAP1 POP SWAP2 SWAP1 POP JUMP JUMPDEST PUSH0 PUSH2 0x2BC DUP3 PUSH2 0x293 JUMP JUMPDEST SWAP1 POP SWAP2 SWAP1 POP JUMP JUMPDEST PUSH2 0x2CC DUP2 PUSH2 0x2B2 JUMP JUMPDEST DUP2 EQ PUSH2 0x2D6 JUMPI PUSH0 DUP1 REVERT JUMPDEST POP JUMP JUMPDEST PUSH0 DUP2 CALLDATALOAD SWAP1 POP PUSH2 0x2E7 DUP2 PUSH2 0x2C3 JUMP JUMPDEST SWAP3 SWAP2 POP POP JUMP JUMPDEST PUSH0 DUP1 REVERT JUMPDEST PUSH0 DUP1 REVERT JUMPDEST PUSH0 DUP1 REVERT JUMPDEST PUSH0 DUP1 DUP4 PUSH1 0x1F DUP5 ADD SLT PUSH2 0x30E JUMPI PUSH2 0x30D PUSH2 0x2ED JUMP JUMPDEST JUMPDEST DUP3 CALLDATALOAD SWAP1 POP PUSH8 0xFFFFFFFFFFFFFFFF DUP2 GT ISZERO PUSH2 0x32B JUMPI PUSH2 0x32A PUSH2 0x2F1 JUMP JUMPDEST JUMPDEST PUSH1 0x20 DUP4 ADD SWAP2 POP DUP4 PUSH1 0x20 DUP3 MUL DUP4 ADD GT ISZERO PUSH2 0x347 JUMPI PUSH2 0x346 PUSH2 0x2F5 JUMP JUMPDEST JUMPDEST SWAP3 POP SWAP3 SWAP1 POP JUMP JUMPDEST PUSH0 DUP1 PUSH0 DUP1 PUSH1 0x60 DUP6 DUP8 SUB SLT ISZERO PUSH2 0x366 JUMPI PUSH2 0x365 PUSH2 0x28B JUMP JUMPDEST JUMPDEST PUSH0 PUSH2 0x373 DUP8 DUP3 DUP9 ADD PUSH2 0x2D9 JUMP JUMPDEST SWAP5 POP POP PUSH1 0x20 PUSH2 0x384 DUP8 DUP3 DUP9 ADD PUSH2 0x2D9 JUMP JUMPDEST SWAP4 POP POP PUSH1 0x40 DUP6 ADD CALLDATALOAD PUSH8 0xFFFFFFFFFFFFFFFF DUP2 GT ISZERO PUSH2 0x3A5 JUMPI PUSH2 0x3A4 PUSH2 0x28F JUMP JUMPDEST JUMPDEST PUSH2 0x3B1 DUP8 DUP3 DUP9 ADD PUSH2 0x2F9 JUMP JUMPDEST SWAP3 POP SWAP3 POP POP SWAP3 SWAP6 SWAP2 SWAP5 POP SWAP3 POP JUMP JUMPDEST PUSH0 PUSH1 0x20 DUP3 DUP5 SUB SLT ISZERO PUSH2 0x3D4 JUMPI PUSH2 0x3D3 PUSH2 0x28B JUMP JUMPDEST JUMPDEST PUSH0 PUSH2 0x3E1 DUP5 DUP3 DUP6 ADD PUSH2 0x2D9 JUMP JUMPDEST SWAP2 POP POP SWAP3 SWAP2 POP POP JUMP JUMPDEST PUSH2 0x3F3 DUP2 PUSH2 0x2B2 JUMP JUMPDEST DUP3 MSTORE POP POP JUMP JUMPDEST PUSH0 DUP2 SWAP1 POP SWAP2 SWAP1 POP JUMP JUMPDEST PUSH2 0x40B DUP2 PUSH2 0x3F9 JUMP JUMPDEST DUP3 MSTORE POP POP JUMP JUMPDEST PUSH0 PUSH1 0x40 DUP3 ADD SWAP1 POP PUSH2 0x424 PUSH0 DUP4 ADD DUP6 PUSH2 0x3EA JUMP JUMPDEST PUSH2 0x431 PUSH1 0x20 DUP4 ADD DUP5 PUSH2 0x402 JUMP JUMPDEST SWAP4 SWAP3 POP POP POP JUMP JUMPDEST PUSH0 PUSH1 0x1F NOT PUSH1 0x1F DUP4 ADD AND SWAP1 POP SWAP2 SWAP1 POP JUMP JUMPDEST PUSH32 0x4E487B7100000000000000000000000000000000000000000000000000000000 PUSH0 MSTORE PUSH1 0x41 PUSH1 0x4 MSTORE PUSH1 0x24 PUSH0 REVERT JUMPDEST PUSH2 0x47E DUP3 PUSH2 0x438 JUMP JUMPDEST DUP2 ADD DUP2 DUP2 LT PUSH8 0xFFFFFFFFFFFFFFFF DUP3 GT OR ISZERO PUSH2 0x49D JUMPI PUSH2 0x49C PUSH2 0x448 JUMP JUMPDEST JUMPDEST DUP1 PUSH1 0x40 MSTORE POP POP POP JUMP JUMPDEST PUSH0 PUSH2 0x4AF PUSH2 0x282 JUMP JUMPDEST SWAP1 POP PUSH2 0x4BB DUP3 DUP3 PUSH2 0x475 JUMP JUMPDEST SWAP2 SWAP1 POP JUMP JUMPDEST PUSH0 PUSH8 0xFFFFFFFFFFFFFFFF DUP3 GT ISZERO PUSH2 0x4DA JUMPI PUSH2 0x4D9 PUSH2 0x448 JUMP JUMPDEST JUMPDEST PUSH1 0x20 DUP3 MUL SWAP1 POP PUSH1 0x20 DUP2 ADD SWAP1 POP SWAP2 SWAP1 POP JUMP JUMPDEST PUSH0 DUP1 REVERT JUMPDEST PUSH0 PUSH8 0xFFFFFFFFFFFFFFFF DUP3 GT ISZERO PUSH2 0x509 JUMPI PUSH2 0x508 PUSH2 0x448 JUMP JUMPDEST JUMPDEST PUSH2 0x512 DUP3 PUSH2 0x438 JUMP JUMPDEST SWAP1 POP PUSH1 0x20 DUP2 ADD SWAP1 POP SWAP2 SWAP1 POP JUMP JUMPDEST DUP3 DUP2 DUP4 CALLDATACOPY PUSH0 DUP4 DUP4 ADD MSTORE POP POP POP JUMP JUMPDEST PUSH0 PUSH2 0x53F PUSH2 0x53A DUP5 PUSH2 0x4EF JUMP JUMPDEST PUSH2 0x4A6 JUMP JUMPDEST SWAP1 POP DUP3 DUP2 MSTORE PUSH1 0x20 DUP2 ADD DUP5 DUP5 DUP5 ADD GT ISZERO PUSH2 0x55B JUMPI PUSH2 0x55A PUSH2 0x4EB JUMP JUMPDEST JUMPDEST PUSH2 0x566 DUP5 DUP3 DUP6 PUSH2 0x51F JUMP JUMPDEST POP SWAP4 SWAP3 POP POP POP JUMP JUMPDEST PUSH0 DUP3 PUSH1 0x1F DUP4 ADD SLT PUSH2 0x582 JUMPI PUSH2 0x581 PUSH2 0x2ED JUMP JUMPDEST JUMPDEST DUP2 CALLDATALOAD PUSH2 0x592 DUP5 DUP3 PUSH1 0x20 DUP7 ADD PUSH2 0x52D JUMP JUMPDEST SWAP2 POP POP SWAP3 SWAP2 POP POP JUMP JUMPDEST PUSH0 PUSH2 0x5AD PUSH2 0x5A8 DUP5 PUSH2 0x4C0 JUMP JUMPDEST PUSH2 0x4A6 JUMP JUMPDEST SWAP1 POP DUP1 DUP4 DUP3 MSTORE PUSH1 0x20 DUP3 ADD SWAP1 POP PUSH1 0x20 DUP5 MUL DUP4 ADD DUP6 DUP2 GT ISZERO PUSH2 0x5D0 JUMPI PUSH2 0x5CF PUSH2 0x2F5 JUMP JUMPDEST JUMPDEST DUP4 JUMPDEST DUP2 DUP2 LT ISZERO PUSH2 0x617 JUMPI DUP1 CALLDATALOAD PUSH8 0xFFFFFFFFFFFFFFFF DUP2 GT ISZERO PUSH2 0x5F5 JUMPI PUSH2 0x5F4 PUSH2 0x2ED JUMP JUMPDEST JUMPDEST DUP1 DUP7 ADD PUSH2 0x602 DUP10 DUP3 PUSH2 0x56E JUMP JUMPDEST DUP6 MSTORE PUSH1 0x20 DUP6 ADD SWAP5 POP POP POP PUSH1 0x20 DUP2 ADD SWAP1 POP PUSH2 0x5D2 JUMP JUMPDEST POP POP POP SWAP4 SWAP3 POP POP POP JUMP JUMPDEST PUSH0 PUSH2 0x62D CALLDATASIZE DUP5 DUP5 PUSH2 0x59B JUMP JUMPDEST SWAP1 POP SWAP3 SWAP2 POP POP JUMP JUMPDEST PUSH0 DUP2 MLOAD SWAP1 POP SWAP2 SWAP1 POP JUMP JUMPDEST PUSH32 0x4E487B7100000000000000000000000000000000000000000000000000000000 PUSH0 MSTORE PUSH1 0x22 PUSH1 0x4 MSTORE PUSH1 0x24 PUSH0 REVERT JUMPDEST PUSH0 PUSH1 0x2 DUP3 DIV SWAP1 POP PUSH1 0x1 DUP3 AND DUP1 PUSH2 0x683 JUMPI PUSH1 0x7F DUP3 AND SWAP2 POP JUMPDEST PUSH1 0x20 DUP3 LT DUP2 SUB PUSH2 0x696 JUMPI PUSH2 0x695 PUSH2 0x63F JUMP JUMPDEST JUMPDEST POP SWAP2 SWAP1 POP JUMP JUMPDEST PUSH0 DUP2 SWAP1 POP DUP2 PUSH0 MSTORE PUSH1 0x20 PUSH0 KECCAK256 SWAP1 POP SWAP2 SWAP1 POP JUMP JUMPDEST PUSH0 PUSH1 0x20 PUSH1 0x1F DUP4 ADD DIV SWAP1 POP SWAP2 SWAP1 POP JUMP JUMPDEST PUSH0 DUP3 DUP3 SHL SWAP1 POP SWAP3 SWAP2 POP POP JUMP JUMPDEST PUSH0 PUSH1 0x8 DUP4 MUL PUSH2 0x6F8 PUSH32 0xFFFFFFFFFFFFFFFFFFFFFFFFFFFFFFFFFFFFFFFFFFFFFFFFFFFFFFFFFFFFFFFF DUP3 PUSH2 0x6BD JUMP JUMPDEST PUSH2 0x702 DUP7 DUP4 PUSH2 0x6BD JUMP JUMPDEST SWAP6 POP DUP1 NOT DUP5 AND SWAP4 POP DUP1 DUP7 AND DUP5 OR SWAP3 POP POP POP SWAP4 SWAP3 POP POP POP JUMP JUMPDEST PUSH0 DUP2 SWAP1 POP SWAP2 SWAP1 POP JUMP JUMPDEST PUSH0 PUSH2 0x73D PUSH2 0x738 PUSH2 0x733 DUP5 PUSH2 0x3F9 JUMP JUMPDEST PUSH2 0x71A JUMP JUMPDEST PUSH2 0x3F9 JUMP JUMPDEST SWAP1 POP SWAP2 SWAP1 POP JUMP JUMPDEST PUSH0 DUP2 SWAP1 POP SWAP2 SWAP1 POP JUMP JUMPDEST PUSH2 0x756 DUP4 PUSH2 0x723 JUMP JUMPDEST PUSH2 0x76A PUSH2 0x762 DUP3 PUSH2 0x744 JUMP JUMPDEST DUP5 DUP5 SLOAD PUSH2 0x6C9 JUMP JUMPDEST DUP3 SSTORE POP POP POP POP JUMP JUMPDEST PUSH0 SWAP1 JUMP JUMPDEST PUSH2 0x77E PUSH2 0x772 JUMP JUMPDEST PUSH2 0x789 DUP2 DUP5 DUP5 PUSH2 0x74D JUMP JUMPDEST POP POP POP JUMP JUMPDEST JUMPDEST DUP2 DUP2 LT ISZERO PUSH2 0x7AC JUMPI PUSH2 0x7A1 PUSH0 DUP3 PUSH2 0x776 JUMP JUMPDEST PUSH1 0x1 DUP2 ADD SWAP1 POP PUSH2 0x78F JUMP JUMPDEST POP POP JUMP JUMPDEST PUSH1 0x1F DUP3 GT ISZERO PUSH2 0x7F1 JUMPI PUSH2 0x7C2 DUP2 PUSH2 0x69C JUMP JUMPDEST PUSH2 0x7CB DUP5 PUSH2 0x6AE JUMP JUMPDEST DUP2 ADD PUSH1 0x20 DUP6 LT ISZERO PUSH2 0x7DA JUMPI DUP2 SWAP1 POP JUMPDEST PUSH2 0x7EE PUSH2 0x7E6 DUP6 PUSH2 0x6AE JUMP JUMPDEST DUP4 ADD DUP3 PUSH2 0x78E JUMP JUMPDEST POP POP JUMPDEST POP POP POP JUMP JUMPDEST PUSH0 DUP3 DUP3 SHR SWAP1 POP SWAP3 SWAP2 POP POP JUMP JUMPDEST PUSH0 PUSH2 0x811 PUSH0 NOT DUP5 PUSH1 0x8 MUL PUSH2 0x7F6 JUMP JUMPDEST NOT DUP1 DUP4 AND SWAP2 POP POP SWAP3 SWAP2 POP POP JUMP JUMPDEST PUSH0 PUSH2 0x829 DUP4 DUP4 PUSH2 0x802 JUMP JUMPDEST SWAP2 POP DUP3 PUSH1 0x2 MUL DUP3 OR SWAP1 POP SWAP3 SWAP2 POP POP JUMP JUMPDEST PUSH2 0x842 DUP3 PUSH2 0x635 JUMP JUMPDEST PUSH8 0xFFFFFFFFFFFFFFFF DUP2 GT ISZERO PUSH2 0x85B JUMPI PUSH2 0x85A PUSH2 0x448 JUMP JUMPDEST JUMPDEST PUSH2 0x865 DUP3 SLOAD PUSH2 0x66C JUMP JUMPDEST PUSH2 0x870 DUP3 DUP3 DUP6 PUSH2 0x7B0 JUMP JUMPDEST PUSH0 PUSH1 0x20 SWAP1 POP PUSH1 0x1F DUP4 GT PUSH1 0x1 DUP2 EQ PUSH2 0x8A1 JUMPI PUSH0 DUP5 ISZERO PUSH2 0x88F JUMPI DUP3 DUP8 ADD MLOAD SWAP1 POP JUMPDEST PUSH2 0x899 DUP6 DUP3 PUSH2 0x81E JUMP JUMPDEST DUP7 SSTORE POP PUSH2 0x900 JUMP JUMPDEST PUSH1 0x1F NOT DUP5 AND PUSH2 0x8AF DUP7 PUSH2 0x69C JUMP JUMPDEST PUSH0 JUMPDEST DUP3 DUP2 LT ISZERO PUSH2 0x8D6 JUMPI DUP5 DUP10 ADD MLOAD DUP3 SSTORE PUSH1 0x1 DUP3 ADD SWAP2 POP PUSH1 0x20 DUP6 ADD SWAP5 POP PUSH1 0x20 DUP2 ADD SWAP1 POP PUSH2 0x8B1 JUMP JUMPDEST DUP7 DUP4 LT ISZERO PUSH2 0x8F3 JUMPI DUP5 DUP10 ADD MLOAD PUSH2 0x8EF PUSH1 0x1F DUP10 AND DUP3 PUSH2 0x802 JUMP JUMPDEST DUP4 SSTORE POP JUMPDEST PUSH1 0x1 PUSH1 0x2 DUP9 MUL ADD DUP9 SSTORE POP POP POP JUMPDEST POP POP POP POP POP POP JUMP INVALID LOG2 PUSH5 0x6970667358 0x22 SLT KECCAK256 0x29 0xE1 PUSH25 0x23BEF42B3590DB08012B7DB63B8A05C034B258ED24C65F8A94 PUSH6 0x5B0EF864736F PUSH13 0x634300081A0033000000000000 "
				},
				"gasEstimates": {
					"creation": {
						"codeDepositCost": "473200",
						"executionCost": "503",
						"totalCost": "473703"
					},
					"external": {
						"sendMessage(address,address,string[])": "infinite",
						"users2(address)": "infinite"
					}
				},
				"methodIdentifiers": {
					"sendMessage(address,address,string[])": "584b2b7f",
					"users2(address)": "bf39a89c"
				}
			},
			"storageLayout": {
				"storage": [
					{
						"astId": 14,
						"contract": "contracts/Twitter-Assignment/twitter_2.sol:Twitter",
						"label": "users2",
						"offset": 0,
						"slot": "0",
						"type": "t_mapping(t_address,t_struct(User2)9_storage)"
					}
				],
				"types": {
					"t_address": {
						"encoding": "inplace",
						"label": "address",
						"numberOfBytes": "20"
					},
					"t_array(t_string_storage)dyn_storage": {
						"base": "t_string_storage",
						"encoding": "dynamic_array",
						"label": "string[]",
						"numberOfBytes": "32"
					},
					"t_mapping(t_address,t_struct(User2)9_storage)": {
						"encoding": "mapping",
						"key": "t_address",
						"label": "mapping(address => struct Twitter.User2)",
						"numberOfBytes": "32",
						"value": "t_struct(User2)9_storage"
					},
					"t_string_storage": {
						"encoding": "bytes",
						"label": "string",
						"numberOfBytes": "32"
					},
					"t_struct(User2)9_storage": {
						"encoding": "inplace",
						"label": "struct Twitter.User2",
						"members": [
							{
								"astId": 3,
								"contract": "contracts/Twitter-Assignment/twitter_2.sol:Twitter",
								"label": "sender",
								"offset": 0,
								"slot": "0",
								"type": "t_address"
							},
							{
								"astId": 6,
								"contract": "contracts/Twitter-Assignment/twitter_2.sol:Twitter",
								"label": "messages",
								"offset": 0,
								"slot": "1",
								"type": "t_array(t_string_storage)dyn_storage"
							},
							{
								"astId": 8,
								"contract": "contracts/Twitter-Assignment/twitter_2.sol:Twitter",
								"label": "time",
								"offset": 0,
								"slot": "2",
								"type": "t_uint256"
							}
						],
						"numberOfBytes": "96"
					},
					"t_uint256": {
						"encoding": "inplace",
						"label": "uint256",
						"numberOfBytes": "32"
					}
				}
			},
			"userdoc": {
				"kind": "user",
				"methods": {},
				"version": 1
			}
		}
	}
}