{
	"contracts/Twitter-Assignment/twitter_1.sol": {
		"TweetContract": {
			"abi": [
				{
					"inputs": [
						{
							"internalType": "address",
							"name": "_add",
							"type": "address"
						}
					],
					"name": "follow",
					"outputs": [],
					"stateMutability": "nonpayable",
					"type": "function"
				},
				{
					"inputs": [
						{
							"internalType": "address",
							"name": "",
							"type": "address"
						},
						{
							"internalType": "uint256",
							"name": "",
							"type": "uint256"
						}
					],
					"name": "following",
					"outputs": [
						{
							"internalType": "address",
							"name": "",
							"type": "address"
						}
					],
					"stateMutability": "view",
					"type": "function"
				},
				{
					"inputs": [
						{
							"internalType": "uint256",
							"name": "_count",
							"type": "uint256"
						}
					],
					"name": "getOwnLatestTweet",
					"outputs": [
						{
							"components": [
								{
									"internalType": "address",
									"name": "author",
									"type": "address"
								},
								{
									"internalType": "string",
									"name": "content",
									"type": "string"
								},
								{
									"internalType": "uint256",
									"name": "createdAt",
									"type": "uint256"
								}
							],
							"internalType": "struct TweetContract.Tweet[]",
							"name": "",
							"type": "tuple[]"
						}
					],
					"stateMutability": "view",
					"type": "function"
				},
				{
					"inputs": [
						{
							"internalType": "address",
							"name": "_user",
							"type": "address"
						}
					],
					"name": "giveAuthorize",
					"outputs": [],
					"stateMutability": "nonpayable",
					"type": "function"
				},
				{
					"inputs": [
						{
							"internalType": "address",
							"name": "",
							"type": "address"
						},
						{
							"internalType": "address",
							"name": "",
							"type": "address"
						}
					],
					"name": "isAuthorized",
					"outputs": [
						{
							"internalType": "bool",
							"name": "",
							"type": "bool"
						}
					],
					"stateMutability": "view",
					"type": "function"
				},
				{
					"inputs": [
						{
							"internalType": "string",
							"name": "_content",
							"type": "string"
						}
					],
					"name": "postTweet",
					"outputs": [],
					"stateMutability": "nonpayable",
					"type": "function"
				},
				{
					"inputs": [
						{
							"internalType": "string",
							"name": "_content",
							"type": "string"
						},
						{
							"internalType": "address",
							"name": "_author",
							"type": "address"
						}
					],
					"name": "postTweetOnBehalf",
					"outputs": [],
					"stateMutability": "nonpayable",
					"type": "function"
				},
				{
					"inputs": [
						{
							"internalType": "address",
							"name": "_user",
							"type": "address"
						},
						{
							"internalType": "uint256",
							"name": "count",
							"type": "uint256"
						}
					],
					"name": "retrieveLatestTweet",
					"outputs": [
						{
							"components": [
								{
									"internalType": "address",
									"name": "author",
									"type": "address"
								},
								{
									"internalType": "string",
									"name": "content",
									"type": "string"
								},
								{
									"internalType": "uint256",
									"name": "createdAt",
									"type": "uint256"
								}
							],
							"internalType": "struct TweetContract.Tweet[]",
							"name": "",
							"type": "tuple[]"
						}
					],
					"stateMutability": "view",
					"type": "function"
				},
				{
					"inputs": [
						{
							"internalType": "address",
							"name": "_user",
							"type": "address"
						}
					],
					"name": "revokeAuthorization",
					"outputs": [],
					"stateMutability": "nonpayable",
					"type": "function"
				},
				{
					"inputs": [
						{
							"internalType": "address",
							"name": "",
							"type": "address"
						},
						{
							"internalType": "uint256",
							"name": "",
							"type": "uint256"
						}
					],
					"name": "tweets",
					"outputs": [
						{
							"internalType": "address",
							"name": "author",
							"type": "address"
						},
						{
							"internalType": "string",
							"name": "content",
							"type": "string"
						},
						{
							"internalType": "uint256",
							"name": "createdAt",
							"type": "uint256"
						}
					],
					"stateMutability": "view",
					"type": "function"
				}
			],
			"devdoc": {
				"kind": "dev",
				"methods": {},
				"version": 1
			},
			"evm": {
				"assembly": "    /* \"contracts/Twitter-Assignment/twitter_1.sol\":65:2543  contract TweetContract {... */\n  mstore(0x40, 0x80)\n  callvalue\n  dup1\n  iszero\n  tag_1\n  jumpi\n  0x00\n  dup1\n  revert\ntag_1:\n  pop\n  dataSize(sub_0)\n  dup1\n  dataOffset(sub_0)\n  0x00\n  codecopy\n  0x00\n  return\nstop\n\nsub_0: assembly {\n        /* \"contracts/Twitter-Assignment/twitter_1.sol\":65:2543  contract TweetContract {... */\n      mstore(0x40, 0x80)\n      callvalue\n      dup1\n      iszero\n      tag_1\n      jumpi\n      0x00\n      dup1\n      revert\n    tag_1:\n      pop\n      jumpi(tag_2, lt(calldatasize, 0x04))\n      shr(0xe0, calldataload(0x00))\n      dup1\n      0x65e4ad9e\n      gt\n      tag_13\n      jumpi\n      dup1\n      0x65e4ad9e\n      eq\n      tag_8\n      jumpi\n      dup1\n      0x9139cda5\n      eq\n      tag_9\n      jumpi\n      dup1\n      0xb48028e3\n      eq\n      tag_10\n      jumpi\n      dup1\n      0xba0d3588\n      eq\n      tag_11\n      jumpi\n      dup1\n      0xbc286b00\n      eq\n      tag_12\n      jumpi\n      jump(tag_2)\n    tag_13:\n      dup1\n      0x05a1b4a9\n      eq\n      tag_3\n      jumpi\n      dup1\n      0x0cbc3dc4\n      eq\n      tag_4\n      jumpi\n      dup1\n      0x173b0924\n      eq\n      tag_5\n      jumpi\n      dup1\n      0x3d48d9fb\n      eq\n      tag_6\n      jumpi\n      dup1\n      0x4dbf27cc\n      eq\n      tag_7\n      jumpi\n    tag_2:\n      0x00\n      dup1\n      revert\n        /* \"contracts/Twitter-Assignment/twitter_1.sol\":240:281  mapping(address => Tweet[]) public tweets */\n    tag_3:\n      tag_14\n      0x04\n      dup1\n      calldatasize\n      sub\n      dup2\n      add\n      swap1\n      tag_15\n      swap2\n      swap1\n      tag_16\n      jump\t// in\n    tag_15:\n      tag_17\n      jump\t// in\n    tag_14:\n      mload(0x40)\n      tag_18\n      swap4\n      swap3\n      swap2\n      swap1\n      tag_19\n      jump\t// in\n    tag_18:\n      mload(0x40)\n      dup1\n      swap2\n      sub\n      swap1\n      return\n        /* \"contracts/Twitter-Assignment/twitter_1.sol\":288:492  function postTweet(string memory _content) public {... */\n    tag_4:\n      tag_20\n      0x04\n      dup1\n      calldatasize\n      sub\n      dup2\n      add\n      swap1\n      tag_21\n      swap2\n      swap1\n      tag_22\n      jump\t// in\n    tag_21:\n      tag_23\n      jump\t// in\n    tag_20:\n      stop\n        /* \"contracts/Twitter-Assignment/twitter_1.sol\":2402:2541  function getOwnLatestTweet(uint _count) public view returns (Tweet[] memory)  {... */\n    tag_5:\n      tag_24\n      0x04\n      dup1\n      calldatasize\n      sub\n      dup2\n      add\n      swap1\n      tag_25\n      swap2\n      swap1\n      tag_26\n      jump\t// in\n    tag_25:\n      tag_27\n      jump\t// in\n    tag_24:\n      mload(0x40)\n      tag_28\n      swap2\n      swap1\n      tag_29\n      jump\t// in\n    tag_28:\n      mload(0x40)\n      dup1\n      swap2\n      sub\n      swap1\n      return\n        /* \"contracts/Twitter-Assignment/twitter_1.sol\":1557:1834  function postTweetOnBehalf(string memory _content, address _author) public {... */\n    tag_6:\n      tag_30\n      0x04\n      dup1\n      calldatasize\n      sub\n      dup2\n      add\n      swap1\n      tag_31\n      swap2\n      swap1\n      tag_32\n      jump\t// in\n    tag_31:\n      tag_33\n      jump\t// in\n    tag_30:\n      stop\n        /* \"contracts/Twitter-Assignment/twitter_1.sol\":1045:1131  function follow(address _add) public {... */\n    tag_7:\n      tag_34\n      0x04\n      dup1\n      calldatasize\n      sub\n      dup2\n      add\n      swap1\n      tag_35\n      swap2\n      swap1\n      tag_36\n      jump\t// in\n    tag_35:\n      tag_37\n      jump\t// in\n    tag_34:\n      stop\n        /* \"contracts/Twitter-Assignment/twitter_1.sol\":1189:1253  mapping(address => mapping(address => bool)) public isAuthorized */\n    tag_8:\n      tag_38\n      0x04\n      dup1\n      calldatasize\n      sub\n      dup2\n      add\n      swap1\n      tag_39\n      swap2\n      swap1\n      tag_40\n      jump\t// in\n    tag_39:\n      tag_41\n      jump\t// in\n    tag_38:\n      mload(0x40)\n      tag_42\n      swap2\n      swap1\n      tag_43\n      jump\t// in\n    tag_42:\n      mload(0x40)\n      dup1\n      swap2\n      sub\n      swap1\n      return\n        /* \"contracts/Twitter-Assignment/twitter_1.sol\":992:1038  mapping(address => address[]) public following */\n    tag_9:\n      tag_44\n      0x04\n      dup1\n      calldatasize\n      sub\n      dup2\n      add\n      swap1\n      tag_45\n      swap2\n      swap1\n      tag_16\n      jump\t// in\n    tag_45:\n      tag_46\n      jump\t// in\n    tag_44:\n      mload(0x40)\n      tag_47\n      swap2\n      swap1\n      tag_48\n      jump\t// in\n    tag_47:\n      mload(0x40)\n      dup1\n      swap2\n      sub\n      swap1\n      return\n        /* \"contracts/Twitter-Assignment/twitter_1.sol\":1444:1551  function revokeAuthorization(address _user) public {... */\n    tag_10:\n      tag_49\n      0x04\n      dup1\n      calldatasize\n      sub\n      dup2\n      add\n      swap1\n      tag_50\n      swap2\n      swap1\n      tag_36\n      jump\t// in\n    tag_50:\n      tag_51\n      jump\t// in\n    tag_49:\n      stop\n        /* \"contracts/Twitter-Assignment/twitter_1.sol\":1298:1398  function giveAuthorize(address _user) public {... */\n    tag_11:\n      tag_52\n      0x04\n      dup1\n      calldatasize\n      sub\n      dup2\n      add\n      swap1\n      tag_53\n      swap2\n      swap1\n      tag_36\n      jump\t// in\n    tag_53:\n      tag_54\n      jump\t// in\n    tag_52:\n      stop\n        /* \"contracts/Twitter-Assignment/twitter_1.sol\":1893:2367  function retrieveLatestTweet(address _user, uint256 count)... */\n    tag_12:\n      tag_55\n      0x04\n      dup1\n      calldatasize\n      sub\n      dup2\n      add\n      swap1\n      tag_56\n      swap2\n      swap1\n      tag_16\n      jump\t// in\n    tag_56:\n      tag_57\n      jump\t// in\n    tag_55:\n      mload(0x40)\n      tag_58\n      swap2\n      swap1\n      tag_29\n      jump\t// in\n    tag_58:\n      mload(0x40)\n      dup1\n      swap2\n      sub\n      swap1\n      return\n        /* \"contracts/Twitter-Assignment/twitter_1.sol\":240:281  mapping(address => Tweet[]) public tweets */\n    tag_17:\n      mstore(0x20, 0x00)\n      dup2\n      0x00\n      mstore\n      keccak256(0x00, 0x40)\n      dup2\n      dup2\n      sload\n      dup2\n      lt\n      tag_59\n      jumpi\n      0x00\n      dup1\n      revert\n    tag_59:\n      swap1\n      0x00\n      mstore\n      keccak256(0x00, 0x20)\n      swap1\n      0x03\n      mul\n      add\n      0x00\n      swap2\n      pop\n      swap2\n      pop\n      pop\n      dup1\n      0x00\n      add\n      0x00\n      swap1\n      sload\n      swap1\n      0x0100\n      exp\n      swap1\n      div\n      0xffffffffffffffffffffffffffffffffffffffff\n      and\n      swap1\n      dup1\n      0x01\n      add\n      dup1\n      sload\n      tag_61\n      swap1\n      tag_62\n      jump\t// in\n    tag_61:\n      dup1\n      0x1f\n      add\n      0x20\n      dup1\n      swap2\n      div\n      mul\n      0x20\n      add\n      mload(0x40)\n      swap1\n      dup2\n      add\n      0x40\n      mstore\n      dup1\n      swap3\n      swap2\n      swap1\n      dup2\n      dup2\n      mstore\n      0x20\n      add\n      dup3\n      dup1\n      sload\n      tag_63\n      swap1\n      tag_62\n      jump\t// in\n    tag_63:\n      dup1\n      iszero\n      tag_64\n      jumpi\n      dup1\n      0x1f\n      lt\n      tag_65\n      jumpi\n      0x0100\n      dup1\n      dup4\n      sload\n      div\n      mul\n      dup4\n      mstore\n      swap2\n      0x20\n      add\n      swap2\n      jump(tag_64)\n    tag_65:\n      dup3\n      add\n      swap2\n      swap1\n      0x00\n      mstore\n      keccak256(0x00, 0x20)\n      swap1\n    tag_66:\n      dup2\n      sload\n      dup2\n      mstore\n      swap1\n      0x01\n      add\n      swap1\n      0x20\n      add\n      dup1\n      dup4\n      gt\n      tag_66\n      jumpi\n      dup3\n      swap1\n      sub\n      0x1f\n      and\n      dup3\n      add\n      swap2\n    tag_64:\n      pop\n      pop\n      pop\n      pop\n      pop\n      swap1\n      dup1\n      0x02\n      add\n      sload\n      swap1\n      pop\n      dup4\n      jump\t// out\n        /* \"contracts/Twitter-Assignment/twitter_1.sol\":288:492  function postTweet(string memory _content) public {... */\n    tag_23:\n        /* \"contracts/Twitter-Assignment/twitter_1.sol\":348:354  tweets */\n      0x00\n        /* \"contracts/Twitter-Assignment/twitter_1.sol\":348:366  tweets[msg.sender] */\n      dup1\n        /* \"contracts/Twitter-Assignment/twitter_1.sol\":355:365  msg.sender */\n      caller\n        /* \"contracts/Twitter-Assignment/twitter_1.sol\":348:366  tweets[msg.sender] */\n      0xffffffffffffffffffffffffffffffffffffffff\n      and\n      0xffffffffffffffffffffffffffffffffffffffff\n      and\n      dup2\n      mstore\n      0x20\n      add\n      swap1\n      dup2\n      mstore\n      0x20\n      add\n      0x00\n      keccak256\n        /* \"contracts/Twitter-Assignment/twitter_1.sol\":372:416  Tweet(msg.sender, _content, block.timestamp) */\n      mload(0x40)\n      dup1\n      0x60\n      add\n      0x40\n      mstore\n      dup1\n        /* \"contracts/Twitter-Assignment/twitter_1.sol\":378:388  msg.sender */\n      caller\n        /* \"contracts/Twitter-Assignment/twitter_1.sol\":372:416  Tweet(msg.sender, _content, block.timestamp) */\n      0xffffffffffffffffffffffffffffffffffffffff\n      and\n      dup2\n      mstore\n      0x20\n      add\n        /* \"contracts/Twitter-Assignment/twitter_1.sol\":390:398  _content */\n      dup4\n        /* \"contracts/Twitter-Assignment/twitter_1.sol\":372:416  Tweet(msg.sender, _content, block.timestamp) */\n      dup2\n      mstore\n      0x20\n      add\n        /* \"contracts/Twitter-Assignment/twitter_1.sol\":400:415  block.timestamp */\n      timestamp\n        /* \"contracts/Twitter-Assignment/twitter_1.sol\":372:416  Tweet(msg.sender, _content, block.timestamp) */\n      dup2\n      mstore\n      pop\n        /* \"contracts/Twitter-Assignment/twitter_1.sol\":348:417  tweets[msg.sender].push(Tweet(msg.sender, _content, block.timestamp)) */\n      swap1\n      dup1\n      0x01\n      dup2\n      sload\n      add\n      dup1\n      dup3\n      sstore\n      dup1\n      swap2\n      pop\n      pop\n      0x01\n      swap1\n      sub\n      swap1\n      0x00\n      mstore\n      keccak256(0x00, 0x20)\n      swap1\n      0x03\n      mul\n      add\n      0x00\n      swap1\n      swap2\n      swap1\n      swap2\n      swap1\n      swap2\n      pop\n      0x00\n      dup3\n      add\n      mload\n      dup2\n      0x00\n      add\n      exp(0x0100, 0x00)\n      dup2\n      sload\n      dup2\n      0xffffffffffffffffffffffffffffffffffffffff\n      mul\n      not\n      and\n      swap1\n      dup4\n      0xffffffffffffffffffffffffffffffffffffffff\n      and\n      mul\n      or\n      swap1\n      sstore\n      pop\n      0x20\n      dup3\n      add\n      mload\n      dup2\n      0x01\n      add\n      swap1\n      dup2\n      tag_69\n      swap2\n      swap1\n      tag_70\n      jump\t// in\n    tag_69:\n      pop\n      0x40\n      dup3\n      add\n      mload\n      dup2\n      0x02\n      add\n      sstore\n      pop\n      pop\n        /* \"contracts/Twitter-Assignment/twitter_1.sol\":288:492  function postTweet(string memory _content) public {... */\n      pop\n      jump\t// out\n        /* \"contracts/Twitter-Assignment/twitter_1.sol\":2402:2541  function getOwnLatestTweet(uint _count) public view returns (Tweet[] memory)  {... */\n    tag_27:\n        /* \"contracts/Twitter-Assignment/twitter_1.sol\":2463:2477  Tweet[] memory */\n      0x60\n        /* \"contracts/Twitter-Assignment/twitter_1.sol\":2495:2534  retrieveLatestTweet(msg.sender, _count) */\n      tag_72\n        /* \"contracts/Twitter-Assignment/twitter_1.sol\":2515:2525  msg.sender */\n      caller\n        /* \"contracts/Twitter-Assignment/twitter_1.sol\":2527:2533  _count */\n      dup4\n        /* \"contracts/Twitter-Assignment/twitter_1.sol\":2495:2514  retrieveLatestTweet */\n      tag_57\n        /* \"contracts/Twitter-Assignment/twitter_1.sol\":2495:2534  retrieveLatestTweet(msg.sender, _count) */\n      jump\t// in\n    tag_72:\n        /* \"contracts/Twitter-Assignment/twitter_1.sol\":2488:2534  return retrieveLatestTweet(msg.sender, _count) */\n      swap1\n      pop\n        /* \"contracts/Twitter-Assignment/twitter_1.sol\":2402:2541  function getOwnLatestTweet(uint _count) public view returns (Tweet[] memory)  {... */\n      swap2\n      swap1\n      pop\n      jump\t// out\n        /* \"contracts/Twitter-Assignment/twitter_1.sol\":1557:1834  function postTweetOnBehalf(string memory _content, address _author) public {... */\n    tag_33:\n        /* \"contracts/Twitter-Assignment/twitter_1.sol\":1663:1675  isAuthorized */\n      0x02\n        /* \"contracts/Twitter-Assignment/twitter_1.sol\":1663:1684  isAuthorized[_author] */\n      0x00\n        /* \"contracts/Twitter-Assignment/twitter_1.sol\":1676:1683  _author */\n      dup3\n        /* \"contracts/Twitter-Assignment/twitter_1.sol\":1663:1684  isAuthorized[_author] */\n      0xffffffffffffffffffffffffffffffffffffffff\n      and\n      0xffffffffffffffffffffffffffffffffffffffff\n      and\n      dup2\n      mstore\n      0x20\n      add\n      swap1\n      dup2\n      mstore\n      0x20\n      add\n      0x00\n      keccak256\n        /* \"contracts/Twitter-Assignment/twitter_1.sol\":1663:1696  isAuthorized[_author][msg.sender] */\n      0x00\n        /* \"contracts/Twitter-Assignment/twitter_1.sol\":1685:1695  msg.sender */\n      caller\n        /* \"contracts/Twitter-Assignment/twitter_1.sol\":1663:1696  isAuthorized[_author][msg.sender] */\n      0xffffffffffffffffffffffffffffffffffffffff\n      and\n      0xffffffffffffffffffffffffffffffffffffffff\n      and\n      dup2\n      mstore\n      0x20\n      add\n      swap1\n      dup2\n      mstore\n      0x20\n      add\n      0x00\n      keccak256\n      0x00\n      swap1\n      sload\n      swap1\n      0x0100\n      exp\n      swap1\n      div\n      0xff\n      and\n        /* \"contracts/Twitter-Assignment/twitter_1.sol\":1642:1754  require(... */\n      tag_74\n      jumpi\n      mload(0x40)\n      0x08c379a000000000000000000000000000000000000000000000000000000000\n      dup2\n      mstore\n      0x04\n      add\n      tag_75\n      swap1\n      tag_76\n      jump\t// in\n    tag_75:\n      mload(0x40)\n      dup1\n      swap2\n      sub\n      swap1\n      revert\n    tag_74:\n        /* \"contracts/Twitter-Assignment/twitter_1.sol\":1764:1770  tweets */\n      0x00\n        /* \"contracts/Twitter-Assignment/twitter_1.sol\":1764:1779  tweets[_author] */\n      dup1\n        /* \"contracts/Twitter-Assignment/twitter_1.sol\":1771:1778  _author */\n      dup3\n        /* \"contracts/Twitter-Assignment/twitter_1.sol\":1764:1779  tweets[_author] */\n      0xffffffffffffffffffffffffffffffffffffffff\n      and\n      0xffffffffffffffffffffffffffffffffffffffff\n      and\n      dup2\n      mstore\n      0x20\n      add\n      swap1\n      dup2\n      mstore\n      0x20\n      add\n      0x00\n      keccak256\n        /* \"contracts/Twitter-Assignment/twitter_1.sol\":1785:1826  Tweet(_author, _content, block.timestamp) */\n      mload(0x40)\n      dup1\n      0x60\n      add\n      0x40\n      mstore\n      dup1\n        /* \"contracts/Twitter-Assignment/twitter_1.sol\":1791:1798  _author */\n      dup4\n        /* \"contracts/Twitter-Assignment/twitter_1.sol\":1785:1826  Tweet(_author, _content, block.timestamp) */\n      0xffffffffffffffffffffffffffffffffffffffff\n      and\n      dup2\n      mstore\n      0x20\n      add\n        /* \"contracts/Twitter-Assignment/twitter_1.sol\":1800:1808  _content */\n      dup5\n        /* \"contracts/Twitter-Assignment/twitter_1.sol\":1785:1826  Tweet(_author, _content, block.timestamp) */\n      dup2\n      mstore\n      0x20\n      add\n        /* \"contracts/Twitter-Assignment/twitter_1.sol\":1810:1825  block.timestamp */\n      timestamp\n        /* \"contracts/Twitter-Assignment/twitter_1.sol\":1785:1826  Tweet(_author, _content, block.timestamp) */\n      dup2\n      mstore\n      pop\n        /* \"contracts/Twitter-Assignment/twitter_1.sol\":1764:1827  tweets[_author].push(Tweet(_author, _content, block.timestamp)) */\n      swap1\n      dup1\n      0x01\n      dup2\n      sload\n      add\n      dup1\n      dup3\n      sstore\n      dup1\n      swap2\n      pop\n      pop\n      0x01\n      swap1\n      sub\n      swap1\n      0x00\n      mstore\n      keccak256(0x00, 0x20)\n      swap1\n      0x03\n      mul\n      add\n      0x00\n      swap1\n      swap2\n      swap1\n      swap2\n      swap1\n      swap2\n      pop\n      0x00\n      dup3\n      add\n      mload\n      dup2\n      0x00\n      add\n      exp(0x0100, 0x00)\n      dup2\n      sload\n      dup2\n      0xffffffffffffffffffffffffffffffffffffffff\n      mul\n      not\n      and\n      swap1\n      dup4\n      0xffffffffffffffffffffffffffffffffffffffff\n      and\n      mul\n      or\n      swap1\n      sstore\n      pop\n      0x20\n      dup3\n      add\n      mload\n      dup2\n      0x01\n      add\n      swap1\n      dup2\n      tag_78\n      swap2\n      swap1\n      tag_70\n      jump\t// in\n    tag_78:\n      pop\n      0x40\n      dup3\n      add\n      mload\n      dup2\n      0x02\n      add\n      sstore\n      pop\n      pop\n        /* \"contracts/Twitter-Assignment/twitter_1.sol\":1557:1834  function postTweetOnBehalf(string memory _content, address _author) public {... */\n      pop\n      pop\n      jump\t// out\n        /* \"contracts/Twitter-Assignment/twitter_1.sol\":1045:1131  function follow(address _add) public {... */\n    tag_37:\n        /* \"contracts/Twitter-Assignment/twitter_1.sol\":1092:1101  following */\n      0x01\n        /* \"contracts/Twitter-Assignment/twitter_1.sol\":1092:1113  following[msg.sender] */\n      0x00\n        /* \"contracts/Twitter-Assignment/twitter_1.sol\":1102:1112  msg.sender */\n      caller\n        /* \"contracts/Twitter-Assignment/twitter_1.sol\":1092:1113  following[msg.sender] */\n      0xffffffffffffffffffffffffffffffffffffffff\n      and\n      0xffffffffffffffffffffffffffffffffffffffff\n      and\n      dup2\n      mstore\n      0x20\n      add\n      swap1\n      dup2\n      mstore\n      0x20\n      add\n      0x00\n      keccak256\n        /* \"contracts/Twitter-Assignment/twitter_1.sol\":1119:1123  _add */\n      dup2\n        /* \"contracts/Twitter-Assignment/twitter_1.sol\":1092:1124  following[msg.sender].push(_add) */\n      swap1\n      dup1\n      0x01\n      dup2\n      sload\n      add\n      dup1\n      dup3\n      sstore\n      dup1\n      swap2\n      pop\n      pop\n      0x01\n      swap1\n      sub\n      swap1\n      0x00\n      mstore\n      keccak256(0x00, 0x20)\n      add\n      0x00\n      swap1\n      swap2\n      swap1\n      swap2\n      swap1\n      swap2\n      0x0100\n      exp\n      dup2\n      sload\n      dup2\n      0xffffffffffffffffffffffffffffffffffffffff\n      mul\n      not\n      and\n      swap1\n      dup4\n      0xffffffffffffffffffffffffffffffffffffffff\n      and\n      mul\n      or\n      swap1\n      sstore\n      pop\n        /* \"contracts/Twitter-Assignment/twitter_1.sol\":1045:1131  function follow(address _add) public {... */\n      pop\n      jump\t// out\n        /* \"contracts/Twitter-Assignment/twitter_1.sol\":1189:1253  mapping(address => mapping(address => bool)) public isAuthorized */\n    tag_41:\n      mstore(0x20, 0x02)\n      dup2\n      0x00\n      mstore\n      mstore(0x20, keccak256(0x00, 0x40))\n      dup1\n      0x00\n      mstore\n      keccak256(0x00, 0x40)\n      0x00\n      swap2\n      pop\n      swap2\n      pop\n      swap1\n      sload\n      swap1\n      0x0100\n      exp\n      swap1\n      div\n      0xff\n      and\n      dup2\n      jump\t// out\n        /* \"contracts/Twitter-Assignment/twitter_1.sol\":992:1038  mapping(address => address[]) public following */\n    tag_46:\n      mstore(0x20, 0x01)\n      dup2\n      0x00\n      mstore\n      keccak256(0x00, 0x40)\n      dup2\n      dup2\n      sload\n      dup2\n      lt\n      tag_81\n      jumpi\n      0x00\n      dup1\n      revert\n    tag_81:\n      swap1\n      0x00\n      mstore\n      keccak256(0x00, 0x20)\n      add\n      0x00\n      swap2\n      pop\n      swap2\n      pop\n      swap1\n      sload\n      swap1\n      0x0100\n      exp\n      swap1\n      div\n      0xffffffffffffffffffffffffffffffffffffffff\n      and\n      dup2\n      jump\t// out\n        /* \"contracts/Twitter-Assignment/twitter_1.sol\":1444:1551  function revokeAuthorization(address _user) public {... */\n    tag_51:\n        /* \"contracts/Twitter-Assignment/twitter_1.sol\":1539:1544  false */\n      0x00\n        /* \"contracts/Twitter-Assignment/twitter_1.sol\":1505:1517  isAuthorized */\n      0x02\n        /* \"contracts/Twitter-Assignment/twitter_1.sol\":1505:1529  isAuthorized[msg.sender] */\n      0x00\n        /* \"contracts/Twitter-Assignment/twitter_1.sol\":1518:1528  msg.sender */\n      caller\n        /* \"contracts/Twitter-Assignment/twitter_1.sol\":1505:1529  isAuthorized[msg.sender] */\n      0xffffffffffffffffffffffffffffffffffffffff\n      and\n      0xffffffffffffffffffffffffffffffffffffffff\n      and\n      dup2\n      mstore\n      0x20\n      add\n      swap1\n      dup2\n      mstore\n      0x20\n      add\n      0x00\n      keccak256\n        /* \"contracts/Twitter-Assignment/twitter_1.sol\":1505:1536  isAuthorized[msg.sender][_user] */\n      0x00\n        /* \"contracts/Twitter-Assignment/twitter_1.sol\":1530:1535  _user */\n      dup4\n        /* \"contracts/Twitter-Assignment/twitter_1.sol\":1505:1536  isAuthorized[msg.sender][_user] */\n      0xffffffffffffffffffffffffffffffffffffffff\n      and\n      0xffffffffffffffffffffffffffffffffffffffff\n      and\n      dup2\n      mstore\n      0x20\n      add\n      swap1\n      dup2\n      mstore\n      0x20\n      add\n      0x00\n      keccak256\n      0x00\n        /* \"contracts/Twitter-Assignment/twitter_1.sol\":1505:1544  isAuthorized[msg.sender][_user] = false */\n      0x0100\n      exp\n      dup2\n      sload\n      dup2\n      0xff\n      mul\n      not\n      and\n      swap1\n      dup4\n      iszero\n      iszero\n      mul\n      or\n      swap1\n      sstore\n      pop\n        /* \"contracts/Twitter-Assignment/twitter_1.sol\":1444:1551  function revokeAuthorization(address _user) public {... */\n      pop\n      jump\t// out\n        /* \"contracts/Twitter-Assignment/twitter_1.sol\":1298:1398  function giveAuthorize(address _user) public {... */\n    tag_54:\n        /* \"contracts/Twitter-Assignment/twitter_1.sol\":1387:1391  true */\n      0x01\n        /* \"contracts/Twitter-Assignment/twitter_1.sol\":1353:1365  isAuthorized */\n      0x02\n        /* \"contracts/Twitter-Assignment/twitter_1.sol\":1353:1377  isAuthorized[msg.sender] */\n      0x00\n        /* \"contracts/Twitter-Assignment/twitter_1.sol\":1366:1376  msg.sender */\n      caller\n        /* \"contracts/Twitter-Assignment/twitter_1.sol\":1353:1377  isAuthorized[msg.sender] */\n      0xffffffffffffffffffffffffffffffffffffffff\n      and\n      0xffffffffffffffffffffffffffffffffffffffff\n      and\n      dup2\n      mstore\n      0x20\n      add\n      swap1\n      dup2\n      mstore\n      0x20\n      add\n      0x00\n      keccak256\n        /* \"contracts/Twitter-Assignment/twitter_1.sol\":1353:1384  isAuthorized[msg.sender][_user] */\n      0x00\n        /* \"contracts/Twitter-Assignment/twitter_1.sol\":1378:1383  _user */\n      dup4\n        /* \"contracts/Twitter-Assignment/twitter_1.sol\":1353:1384  isAuthorized[msg.sender][_user] */\n      0xffffffffffffffffffffffffffffffffffffffff\n      and\n      0xffffffffffffffffffffffffffffffffffffffff\n      and\n      dup2\n      mstore\n      0x20\n      add\n      swap1\n      dup2\n      mstore\n      0x20\n      add\n      0x00\n      keccak256\n      0x00\n        /* \"contracts/Twitter-Assignment/twitter_1.sol\":1353:1391  isAuthorized[msg.sender][_user] = true */\n      0x0100\n      exp\n      dup2\n      sload\n      dup2\n      0xff\n      mul\n      not\n      and\n      swap1\n      dup4\n      iszero\n      iszero\n      mul\n      or\n      swap1\n      sstore\n      pop\n        /* \"contracts/Twitter-Assignment/twitter_1.sol\":1298:1398  function giveAuthorize(address _user) public {... */\n      pop\n      jump\t// out\n        /* \"contracts/Twitter-Assignment/twitter_1.sol\":1893:2367  function retrieveLatestTweet(address _user, uint256 count)... */\n    tag_57:\n        /* \"contracts/Twitter-Assignment/twitter_1.sol\":1997:2011  Tweet[] memory */\n      0x60\n        /* \"contracts/Twitter-Assignment/twitter_1.sol\":2027:2046  uint256 totalTweets */\n      0x00\n        /* \"contracts/Twitter-Assignment/twitter_1.sol\":2049:2055  tweets */\n      dup1\n        /* \"contracts/Twitter-Assignment/twitter_1.sol\":2049:2062  tweets[_user] */\n      0x00\n        /* \"contracts/Twitter-Assignment/twitter_1.sol\":2056:2061  _user */\n      dup6\n        /* \"contracts/Twitter-Assignment/twitter_1.sol\":2049:2062  tweets[_user] */\n      0xffffffffffffffffffffffffffffffffffffffff\n      and\n      0xffffffffffffffffffffffffffffffffffffffff\n      and\n      dup2\n      mstore\n      0x20\n      add\n      swap1\n      dup2\n      mstore\n      0x20\n      add\n      0x00\n      keccak256\n        /* \"contracts/Twitter-Assignment/twitter_1.sol\":2049:2069  tweets[_user].length */\n      dup1\n      sload\n      swap1\n      pop\n        /* \"contracts/Twitter-Assignment/twitter_1.sol\":2027:2069  uint256 totalTweets = tweets[_user].length */\n      swap1\n      pop\n        /* \"contracts/Twitter-Assignment/twitter_1.sol\":2096:2107  totalTweets */\n      dup1\n        /* \"contracts/Twitter-Assignment/twitter_1.sol\":2087:2092  count */\n      dup4\n        /* \"contracts/Twitter-Assignment/twitter_1.sol\":2087:2107  count <= totalTweets */\n      gt\n      iszero\n        /* \"contracts/Twitter-Assignment/twitter_1.sol\":2079:2144  require(count <= totalTweets, \"Count is biiger that totalTweets\") */\n      tag_86\n      jumpi\n      mload(0x40)\n      0x08c379a000000000000000000000000000000000000000000000000000000000\n      dup2\n      mstore\n      0x04\n      add\n      tag_87\n      swap1\n      tag_88\n      jump\t// in\n    tag_87:\n      mload(0x40)\n      dup1\n      swap2\n      sub\n      swap1\n      revert\n    tag_86:\n        /* \"contracts/Twitter-Assignment/twitter_1.sol\":2155:2182  Tweet[] memory latestTweets */\n      0x00\n        /* \"contracts/Twitter-Assignment/twitter_1.sol\":2197:2202  count */\n      dup4\n        /* \"contracts/Twitter-Assignment/twitter_1.sol\":2185:2203  new Tweet[](count) */\n      0xffffffffffffffff\n      dup2\n      gt\n      iszero\n      tag_89\n      jumpi\n      tag_90\n      tag_91\n      jump\t// in\n    tag_90:\n    tag_89:\n      mload(0x40)\n      swap1\n      dup1\n      dup3\n      mstore\n      dup1\n      0x20\n      mul\n      0x20\n      add\n      dup3\n      add\n      0x40\n      mstore\n      dup1\n      iszero\n      tag_92\n      jumpi\n      dup2\n      0x20\n      add\n    tag_93:\n      tag_94\n      tag_95\n      jump\t// in\n    tag_94:\n      dup2\n      mstore\n      0x20\n      add\n      swap1\n      0x01\n      swap1\n      sub\n      swap1\n      dup2\n      tag_93\n      jumpi\n      swap1\n      pop\n    tag_92:\n      pop\n        /* \"contracts/Twitter-Assignment/twitter_1.sol\":2155:2203  Tweet[] memory latestTweets = new Tweet[](count) */\n      swap1\n      pop\n        /* \"contracts/Twitter-Assignment/twitter_1.sol\":2219:2228  uint256 i */\n      0x00\n        /* \"contracts/Twitter-Assignment/twitter_1.sol\":2214:2331  for (uint256 i = 0; i < count; i++) {... */\n    tag_96:\n        /* \"contracts/Twitter-Assignment/twitter_1.sol\":2238:2243  count */\n      dup5\n        /* \"contracts/Twitter-Assignment/twitter_1.sol\":2234:2235  i */\n      dup2\n        /* \"contracts/Twitter-Assignment/twitter_1.sol\":2234:2243  i < count */\n      lt\n        /* \"contracts/Twitter-Assignment/twitter_1.sol\":2214:2331  for (uint256 i = 0; i < count; i++) {... */\n      iszero\n      tag_97\n      jumpi\n        /* \"contracts/Twitter-Assignment/twitter_1.sol\":2282:2288  tweets */\n      0x00\n        /* \"contracts/Twitter-Assignment/twitter_1.sol\":2282:2295  tweets[_user] */\n      dup1\n        /* \"contracts/Twitter-Assignment/twitter_1.sol\":2289:2294  _user */\n      dup8\n        /* \"contracts/Twitter-Assignment/twitter_1.sol\":2282:2295  tweets[_user] */\n      0xffffffffffffffffffffffffffffffffffffffff\n      and\n      0xffffffffffffffffffffffffffffffffffffffff\n      and\n      dup2\n      mstore\n      0x20\n      add\n      swap1\n      dup2\n      mstore\n      0x20\n      add\n      0x00\n      keccak256\n        /* \"contracts/Twitter-Assignment/twitter_1.sol\":2318:2319  i */\n      dup2\n        /* \"contracts/Twitter-Assignment/twitter_1.sol\":2310:2315  count */\n      dup7\n        /* \"contracts/Twitter-Assignment/twitter_1.sol\":2296:2307  totalTweets */\n      dup6\n        /* \"contracts/Twitter-Assignment/twitter_1.sol\":2296:2315  totalTweets - count */\n      tag_99\n      swap2\n      swap1\n      tag_100\n      jump\t// in\n    tag_99:\n        /* \"contracts/Twitter-Assignment/twitter_1.sol\":2296:2319  totalTweets - count + i */\n      tag_101\n      swap2\n      swap1\n      tag_102\n      jump\t// in\n    tag_101:\n        /* \"contracts/Twitter-Assignment/twitter_1.sol\":2282:2320  tweets[_user][totalTweets - count + i] */\n      dup2\n      sload\n      dup2\n      lt\n      tag_103\n      jumpi\n      tag_104\n      tag_105\n      jump\t// in\n    tag_104:\n    tag_103:\n      swap1\n      0x00\n      mstore\n      keccak256(0x00, 0x20)\n      swap1\n      0x03\n      mul\n      add\n        /* \"contracts/Twitter-Assignment/twitter_1.sol\":2264:2320  latestTweets[i] = tweets[_user][totalTweets - count + i] */\n      mload(0x40)\n      dup1\n      0x60\n      add\n      0x40\n      mstore\n      swap1\n      dup2\n      0x00\n      dup3\n      add\n      0x00\n      swap1\n      sload\n      swap1\n      0x0100\n      exp\n      swap1\n      div\n      0xffffffffffffffffffffffffffffffffffffffff\n      and\n      0xffffffffffffffffffffffffffffffffffffffff\n      and\n      0xffffffffffffffffffffffffffffffffffffffff\n      and\n      dup2\n      mstore\n      0x20\n      add\n      0x01\n      dup3\n      add\n      dup1\n      sload\n      tag_107\n      swap1\n      tag_62\n      jump\t// in\n    tag_107:\n      dup1\n      0x1f\n      add\n      0x20\n      dup1\n      swap2\n      div\n      mul\n      0x20\n      add\n      mload(0x40)\n      swap1\n      dup2\n      add\n      0x40\n      mstore\n      dup1\n      swap3\n      swap2\n      swap1\n      dup2\n      dup2\n      mstore\n      0x20\n      add\n      dup3\n      dup1\n      sload\n      tag_108\n      swap1\n      tag_62\n      jump\t// in\n    tag_108:\n      dup1\n      iszero\n      tag_109\n      jumpi\n      dup1\n      0x1f\n      lt\n      tag_110\n      jumpi\n      0x0100\n      dup1\n      dup4\n      sload\n      div\n      mul\n      dup4\n      mstore\n      swap2\n      0x20\n      add\n      swap2\n      jump(tag_109)\n    tag_110:\n      dup3\n      add\n      swap2\n      swap1\n      0x00\n      mstore\n      keccak256(0x00, 0x20)\n      swap1\n    tag_111:\n      dup2\n      sload\n      dup2\n      mstore\n      swap1\n      0x01\n      add\n      swap1\n      0x20\n      add\n      dup1\n      dup4\n      gt\n      tag_111\n      jumpi\n      dup3\n      swap1\n      sub\n      0x1f\n      and\n      dup3\n      add\n      swap2\n    tag_109:\n      pop\n      pop\n      pop\n      pop\n      pop\n      dup2\n      mstore\n      0x20\n      add\n      0x02\n      dup3\n      add\n      sload\n      dup2\n      mstore\n      pop\n      pop\n        /* \"contracts/Twitter-Assignment/twitter_1.sol\":2264:2276  latestTweets */\n      dup3\n        /* \"contracts/Twitter-Assignment/twitter_1.sol\":2277:2278  i */\n      dup3\n        /* \"contracts/Twitter-Assignment/twitter_1.sol\":2264:2279  latestTweets[i] */\n      dup2\n      mload\n      dup2\n      lt\n      tag_112\n      jumpi\n      tag_113\n      tag_105\n      jump\t// in\n    tag_113:\n    tag_112:\n      0x20\n      mul\n      0x20\n      add\n      add\n        /* \"contracts/Twitter-Assignment/twitter_1.sol\":2264:2320  latestTweets[i] = tweets[_user][totalTweets - count + i] */\n      dup2\n      swap1\n      mstore\n      pop\n        /* \"contracts/Twitter-Assignment/twitter_1.sol\":2245:2248  i++ */\n      dup1\n      dup1\n      0x01\n      add\n      swap2\n      pop\n      pop\n        /* \"contracts/Twitter-Assignment/twitter_1.sol\":2214:2331  for (uint256 i = 0; i < count; i++) {... */\n      jump(tag_96)\n    tag_97:\n      pop\n        /* \"contracts/Twitter-Assignment/twitter_1.sol\":2348:2360  latestTweets */\n      dup1\n        /* \"contracts/Twitter-Assignment/twitter_1.sol\":2341:2360  return latestTweets */\n      swap3\n      pop\n      pop\n      pop\n        /* \"contracts/Twitter-Assignment/twitter_1.sol\":1893:2367  function retrieveLatestTweet(address _user, uint256 count)... */\n      swap3\n      swap2\n      pop\n      pop\n      jump\t// out\n    tag_95:\n      mload(0x40)\n      dup1\n      0x60\n      add\n      0x40\n      mstore\n      dup1\n      and(0xffffffffffffffffffffffffffffffffffffffff, 0x00)\n      dup2\n      mstore\n      0x20\n      add\n      0x60\n      dup2\n      mstore\n      0x20\n      add\n      0x00\n      dup2\n      mstore\n      pop\n      swap1\n      jump\t// out\n        /* \"#utility.yul\":7:82   */\n    tag_114:\n        /* \"#utility.yul\":40:46   */\n      0x00\n        /* \"#utility.yul\":73:75   */\n      0x40\n        /* \"#utility.yul\":67:76   */\n      mload\n        /* \"#utility.yul\":57:76   */\n      swap1\n      pop\n        /* \"#utility.yul\":7:82   */\n      swap1\n      jump\t// out\n        /* \"#utility.yul\":88:205   */\n    tag_115:\n        /* \"#utility.yul\":197:198   */\n      0x00\n        /* \"#utility.yul\":194:195   */\n      dup1\n        /* \"#utility.yul\":187:199   */\n      revert\n        /* \"#utility.yul\":211:328   */\n    tag_116:\n        /* \"#utility.yul\":320:321   */\n      0x00\n        /* \"#utility.yul\":317:318   */\n      dup1\n        /* \"#utility.yul\":310:322   */\n      revert\n        /* \"#utility.yul\":334:460   */\n    tag_117:\n        /* \"#utility.yul\":371:378   */\n      0x00\n        /* \"#utility.yul\":411:453   */\n      0xffffffffffffffffffffffffffffffffffffffff\n        /* \"#utility.yul\":404:409   */\n      dup3\n        /* \"#utility.yul\":400:454   */\n      and\n        /* \"#utility.yul\":389:454   */\n      swap1\n      pop\n        /* \"#utility.yul\":334:460   */\n      swap2\n      swap1\n      pop\n      jump\t// out\n        /* \"#utility.yul\":466:562   */\n    tag_118:\n        /* \"#utility.yul\":503:510   */\n      0x00\n        /* \"#utility.yul\":532:556   */\n      tag_179\n        /* \"#utility.yul\":550:555   */\n      dup3\n        /* \"#utility.yul\":532:556   */\n      tag_117\n      jump\t// in\n    tag_179:\n        /* \"#utility.yul\":521:556   */\n      swap1\n      pop\n        /* \"#utility.yul\":466:562   */\n      swap2\n      swap1\n      pop\n      jump\t// out\n        /* \"#utility.yul\":568:690   */\n    tag_119:\n        /* \"#utility.yul\":641:665   */\n      tag_181\n        /* \"#utility.yul\":659:664   */\n      dup2\n        /* \"#utility.yul\":641:665   */\n      tag_118\n      jump\t// in\n    tag_181:\n        /* \"#utility.yul\":634:639   */\n      dup2\n        /* \"#utility.yul\":631:666   */\n      eq\n        /* \"#utility.yul\":621:684   */\n      tag_182\n      jumpi\n        /* \"#utility.yul\":680:681   */\n      0x00\n        /* \"#utility.yul\":677:678   */\n      dup1\n        /* \"#utility.yul\":670:682   */\n      revert\n        /* \"#utility.yul\":621:684   */\n    tag_182:\n        /* \"#utility.yul\":568:690   */\n      pop\n      jump\t// out\n        /* \"#utility.yul\":696:835   */\n    tag_120:\n        /* \"#utility.yul\":742:747   */\n      0x00\n        /* \"#utility.yul\":780:786   */\n      dup2\n        /* \"#utility.yul\":767:787   */\n      calldataload\n        /* \"#utility.yul\":758:787   */\n      swap1\n      pop\n        /* \"#utility.yul\":796:829   */\n      tag_184\n        /* \"#utility.yul\":823:828   */\n      dup2\n        /* \"#utility.yul\":796:829   */\n      tag_119\n      jump\t// in\n    tag_184:\n        /* \"#utility.yul\":696:835   */\n      swap3\n      swap2\n      pop\n      pop\n      jump\t// out\n        /* \"#utility.yul\":841:918   */\n    tag_121:\n        /* \"#utility.yul\":878:885   */\n      0x00\n        /* \"#utility.yul\":907:912   */\n      dup2\n        /* \"#utility.yul\":896:912   */\n      swap1\n      pop\n        /* \"#utility.yul\":841:918   */\n      swap2\n      swap1\n      pop\n      jump\t// out\n        /* \"#utility.yul\":924:1046   */\n    tag_122:\n        /* \"#utility.yul\":997:1021   */\n      tag_187\n        /* \"#utility.yul\":1015:1020   */\n      dup2\n        /* \"#utility.yul\":997:1021   */\n      tag_121\n      jump\t// in\n    tag_187:\n        /* \"#utility.yul\":990:995   */\n      dup2\n        /* \"#utility.yul\":987:1022   */\n      eq\n        /* \"#utility.yul\":977:1040   */\n      tag_188\n      jumpi\n        /* \"#utility.yul\":1036:1037   */\n      0x00\n        /* \"#utility.yul\":1033:1034   */\n      dup1\n        /* \"#utility.yul\":1026:1038   */\n      revert\n        /* \"#utility.yul\":977:1040   */\n    tag_188:\n        /* \"#utility.yul\":924:1046   */\n      pop\n      jump\t// out\n        /* \"#utility.yul\":1052:1191   */\n    tag_123:\n        /* \"#utility.yul\":1098:1103   */\n      0x00\n        /* \"#utility.yul\":1136:1142   */\n      dup2\n        /* \"#utility.yul\":1123:1143   */\n      calldataload\n        /* \"#utility.yul\":1114:1143   */\n      swap1\n      pop\n        /* \"#utility.yul\":1152:1185   */\n      tag_190\n        /* \"#utility.yul\":1179:1184   */\n      dup2\n        /* \"#utility.yul\":1152:1185   */\n      tag_122\n      jump\t// in\n    tag_190:\n        /* \"#utility.yul\":1052:1191   */\n      swap3\n      swap2\n      pop\n      pop\n      jump\t// out\n        /* \"#utility.yul\":1197:1671   */\n    tag_16:\n        /* \"#utility.yul\":1265:1271   */\n      0x00\n        /* \"#utility.yul\":1273:1279   */\n      dup1\n        /* \"#utility.yul\":1322:1324   */\n      0x40\n        /* \"#utility.yul\":1310:1319   */\n      dup4\n        /* \"#utility.yul\":1301:1308   */\n      dup6\n        /* \"#utility.yul\":1297:1320   */\n      sub\n        /* \"#utility.yul\":1293:1325   */\n      slt\n        /* \"#utility.yul\":1290:1409   */\n      iszero\n      tag_192\n      jumpi\n        /* \"#utility.yul\":1328:1407   */\n      tag_193\n      tag_115\n      jump\t// in\n    tag_193:\n        /* \"#utility.yul\":1290:1409   */\n    tag_192:\n        /* \"#utility.yul\":1448:1449   */\n      0x00\n        /* \"#utility.yul\":1473:1526   */\n      tag_194\n        /* \"#utility.yul\":1518:1525   */\n      dup6\n        /* \"#utility.yul\":1509:1515   */\n      dup3\n        /* \"#utility.yul\":1498:1507   */\n      dup7\n        /* \"#utility.yul\":1494:1516   */\n      add\n        /* \"#utility.yul\":1473:1526   */\n      tag_120\n      jump\t// in\n    tag_194:\n        /* \"#utility.yul\":1463:1526   */\n      swap3\n      pop\n        /* \"#utility.yul\":1419:1536   */\n      pop\n        /* \"#utility.yul\":1575:1577   */\n      0x20\n        /* \"#utility.yul\":1601:1654   */\n      tag_195\n        /* \"#utility.yul\":1646:1653   */\n      dup6\n        /* \"#utility.yul\":1637:1643   */\n      dup3\n        /* \"#utility.yul\":1626:1635   */\n      dup7\n        /* \"#utility.yul\":1622:1644   */\n      add\n        /* \"#utility.yul\":1601:1654   */\n      tag_123\n      jump\t// in\n    tag_195:\n        /* \"#utility.yul\":1591:1654   */\n      swap2\n      pop\n        /* \"#utility.yul\":1546:1664   */\n      pop\n        /* \"#utility.yul\":1197:1671   */\n      swap3\n      pop\n      swap3\n      swap1\n      pop\n      jump\t// out\n        /* \"#utility.yul\":1677:1795   */\n    tag_124:\n        /* \"#utility.yul\":1764:1788   */\n      tag_197\n        /* \"#utility.yul\":1782:1787   */\n      dup2\n        /* \"#utility.yul\":1764:1788   */\n      tag_118\n      jump\t// in\n    tag_197:\n        /* \"#utility.yul\":1759:1762   */\n      dup3\n        /* \"#utility.yul\":1752:1789   */\n      mstore\n        /* \"#utility.yul\":1677:1795   */\n      pop\n      pop\n      jump\t// out\n        /* \"#utility.yul\":1801:1900   */\n    tag_125:\n        /* \"#utility.yul\":1853:1859   */\n      0x00\n        /* \"#utility.yul\":1887:1892   */\n      dup2\n        /* \"#utility.yul\":1881:1893   */\n      mload\n        /* \"#utility.yul\":1871:1893   */\n      swap1\n      pop\n        /* \"#utility.yul\":1801:1900   */\n      swap2\n      swap1\n      pop\n      jump\t// out\n        /* \"#utility.yul\":1906:2075   */\n    tag_126:\n        /* \"#utility.yul\":1990:2001   */\n      0x00\n        /* \"#utility.yul\":2024:2030   */\n      dup3\n        /* \"#utility.yul\":2019:2022   */\n      dup3\n        /* \"#utility.yul\":2012:2031   */\n      mstore\n        /* \"#utility.yul\":2064:2068   */\n      0x20\n        /* \"#utility.yul\":2059:2062   */\n      dup3\n        /* \"#utility.yul\":2055:2069   */\n      add\n        /* \"#utility.yul\":2040:2069   */\n      swap1\n      pop\n        /* \"#utility.yul\":1906:2075   */\n      swap3\n      swap2\n      pop\n      pop\n      jump\t// out\n        /* \"#utility.yul\":2081:2220   */\n    tag_127:\n        /* \"#utility.yul\":2170:2176   */\n      dup3\n        /* \"#utility.yul\":2165:2168   */\n      dup2\n        /* \"#utility.yul\":2160:2163   */\n      dup4\n        /* \"#utility.yul\":2154:2177   */\n      mcopy\n        /* \"#utility.yul\":2211:2212   */\n      0x00\n        /* \"#utility.yul\":2202:2208   */\n      dup4\n        /* \"#utility.yul\":2197:2200   */\n      dup4\n        /* \"#utility.yul\":2193:2209   */\n      add\n        /* \"#utility.yul\":2186:2213   */\n      mstore\n        /* \"#utility.yul\":2081:2220   */\n      pop\n      pop\n      pop\n      jump\t// out\n        /* \"#utility.yul\":2226:2328   */\n    tag_128:\n        /* \"#utility.yul\":2267:2273   */\n      0x00\n        /* \"#utility.yul\":2318:2320   */\n      0x1f\n        /* \"#utility.yul\":2314:2321   */\n      not\n        /* \"#utility.yul\":2309:2311   */\n      0x1f\n        /* \"#utility.yul\":2302:2307   */\n      dup4\n        /* \"#utility.yul\":2298:2312   */\n      add\n        /* \"#utility.yul\":2294:2322   */\n      and\n        /* \"#utility.yul\":2284:2322   */\n      swap1\n      pop\n        /* \"#utility.yul\":2226:2328   */\n      swap2\n      swap1\n      pop\n      jump\t// out\n        /* \"#utility.yul\":2334:2711   */\n    tag_129:\n        /* \"#utility.yul\":2422:2425   */\n      0x00\n        /* \"#utility.yul\":2450:2489   */\n      tag_203\n        /* \"#utility.yul\":2483:2488   */\n      dup3\n        /* \"#utility.yul\":2450:2489   */\n      tag_125\n      jump\t// in\n    tag_203:\n        /* \"#utility.yul\":2505:2576   */\n      tag_204\n        /* \"#utility.yul\":2569:2575   */\n      dup2\n        /* \"#utility.yul\":2564:2567   */\n      dup6\n        /* \"#utility.yul\":2505:2576   */\n      tag_126\n      jump\t// in\n    tag_204:\n        /* \"#utility.yul\":2498:2576   */\n      swap4\n      pop\n        /* \"#utility.yul\":2585:2650   */\n      tag_205\n        /* \"#utility.yul\":2643:2649   */\n      dup2\n        /* \"#utility.yul\":2638:2641   */\n      dup6\n        /* \"#utility.yul\":2631:2635   */\n      0x20\n        /* \"#utility.yul\":2624:2629   */\n      dup7\n        /* \"#utility.yul\":2620:2636   */\n      add\n        /* \"#utility.yul\":2585:2650   */\n      tag_127\n      jump\t// in\n    tag_205:\n        /* \"#utility.yul\":2675:2704   */\n      tag_206\n        /* \"#utility.yul\":2697:2703   */\n      dup2\n        /* \"#utility.yul\":2675:2704   */\n      tag_128\n      jump\t// in\n    tag_206:\n        /* \"#utility.yul\":2670:2673   */\n      dup5\n        /* \"#utility.yul\":2666:2705   */\n      add\n        /* \"#utility.yul\":2659:2705   */\n      swap2\n      pop\n        /* \"#utility.yul\":2426:2711   */\n      pop\n        /* \"#utility.yul\":2334:2711   */\n      swap3\n      swap2\n      pop\n      pop\n      jump\t// out\n        /* \"#utility.yul\":2717:2835   */\n    tag_130:\n        /* \"#utility.yul\":2804:2828   */\n      tag_208\n        /* \"#utility.yul\":2822:2827   */\n      dup2\n        /* \"#utility.yul\":2804:2828   */\n      tag_121\n      jump\t// in\n    tag_208:\n        /* \"#utility.yul\":2799:2802   */\n      dup3\n        /* \"#utility.yul\":2792:2829   */\n      mstore\n        /* \"#utility.yul\":2717:2835   */\n      pop\n      pop\n      jump\t// out\n        /* \"#utility.yul\":2841:3374   */\n    tag_19:\n        /* \"#utility.yul\":3010:3014   */\n      0x00\n        /* \"#utility.yul\":3048:3050   */\n      0x60\n        /* \"#utility.yul\":3037:3046   */\n      dup3\n        /* \"#utility.yul\":3033:3051   */\n      add\n        /* \"#utility.yul\":3025:3051   */\n      swap1\n      pop\n        /* \"#utility.yul\":3061:3132   */\n      tag_210\n        /* \"#utility.yul\":3129:3130   */\n      0x00\n        /* \"#utility.yul\":3118:3127   */\n      dup4\n        /* \"#utility.yul\":3114:3131   */\n      add\n        /* \"#utility.yul\":3105:3111   */\n      dup7\n        /* \"#utility.yul\":3061:3132   */\n      tag_124\n      jump\t// in\n    tag_210:\n        /* \"#utility.yul\":3179:3188   */\n      dup2\n        /* \"#utility.yul\":3173:3177   */\n      dup2\n        /* \"#utility.yul\":3169:3189   */\n      sub\n        /* \"#utility.yul\":3164:3166   */\n      0x20\n        /* \"#utility.yul\":3153:3162   */\n      dup4\n        /* \"#utility.yul\":3149:3167   */\n      add\n        /* \"#utility.yul\":3142:3190   */\n      mstore\n        /* \"#utility.yul\":3207:3285   */\n      tag_211\n        /* \"#utility.yul\":3280:3284   */\n      dup2\n        /* \"#utility.yul\":3271:3277   */\n      dup6\n        /* \"#utility.yul\":3207:3285   */\n      tag_129\n      jump\t// in\n    tag_211:\n        /* \"#utility.yul\":3199:3285   */\n      swap1\n      pop\n        /* \"#utility.yul\":3295:3367   */\n      tag_212\n        /* \"#utility.yul\":3363:3365   */\n      0x40\n        /* \"#utility.yul\":3352:3361   */\n      dup4\n        /* \"#utility.yul\":3348:3366   */\n      add\n        /* \"#utility.yul\":3339:3345   */\n      dup5\n        /* \"#utility.yul\":3295:3367   */\n      tag_130\n      jump\t// in\n    tag_212:\n        /* \"#utility.yul\":2841:3374   */\n      swap5\n      swap4\n      pop\n      pop\n      pop\n      pop\n      jump\t// out\n        /* \"#utility.yul\":3380:3497   */\n    tag_131:\n        /* \"#utility.yul\":3489:3490   */\n      0x00\n        /* \"#utility.yul\":3486:3487   */\n      dup1\n        /* \"#utility.yul\":3479:3491   */\n      revert\n        /* \"#utility.yul\":3503:3620   */\n    tag_132:\n        /* \"#utility.yul\":3612:3613   */\n      0x00\n        /* \"#utility.yul\":3609:3610   */\n      dup1\n        /* \"#utility.yul\":3602:3614   */\n      revert\n        /* \"#utility.yul\":3626:3806   */\n    tag_91:\n        /* \"#utility.yul\":3674:3751   */\n      0x4e487b7100000000000000000000000000000000000000000000000000000000\n        /* \"#utility.yul\":3671:3672   */\n      0x00\n        /* \"#utility.yul\":3664:3752   */\n      mstore\n        /* \"#utility.yul\":3771:3775   */\n      0x41\n        /* \"#utility.yul\":3768:3769   */\n      0x04\n        /* \"#utility.yul\":3761:3776   */\n      mstore\n        /* \"#utility.yul\":3795:3799   */\n      0x24\n        /* \"#utility.yul\":3792:3793   */\n      0x00\n        /* \"#utility.yul\":3785:3800   */\n      revert\n        /* \"#utility.yul\":3812:4093   */\n    tag_133:\n        /* \"#utility.yul\":3895:3922   */\n      tag_217\n        /* \"#utility.yul\":3917:3921   */\n      dup3\n        /* \"#utility.yul\":3895:3922   */\n      tag_128\n      jump\t// in\n    tag_217:\n        /* \"#utility.yul\":3887:3893   */\n      dup2\n        /* \"#utility.yul\":3883:3923   */\n      add\n        /* \"#utility.yul\":4025:4031   */\n      dup2\n        /* \"#utility.yul\":4013:4023   */\n      dup2\n        /* \"#utility.yul\":4010:4032   */\n      lt\n        /* \"#utility.yul\":3989:4007   */\n      0xffffffffffffffff\n        /* \"#utility.yul\":3977:3987   */\n      dup3\n        /* \"#utility.yul\":3974:4008   */\n      gt\n        /* \"#utility.yul\":3971:4033   */\n      or\n        /* \"#utility.yul\":3968:4056   */\n      iszero\n      tag_218\n      jumpi\n        /* \"#utility.yul\":4036:4054   */\n      tag_219\n      tag_91\n      jump\t// in\n    tag_219:\n        /* \"#utility.yul\":3968:4056   */\n    tag_218:\n        /* \"#utility.yul\":4076:4086   */\n      dup1\n        /* \"#utility.yul\":4072:4074   */\n      0x40\n        /* \"#utility.yul\":4065:4087   */\n      mstore\n        /* \"#utility.yul\":3855:4093   */\n      pop\n        /* \"#utility.yul\":3812:4093   */\n      pop\n      pop\n      jump\t// out\n        /* \"#utility.yul\":4099:4228   */\n    tag_134:\n        /* \"#utility.yul\":4133:4139   */\n      0x00\n        /* \"#utility.yul\":4160:4180   */\n      tag_221\n      tag_114\n      jump\t// in\n    tag_221:\n        /* \"#utility.yul\":4150:4180   */\n      swap1\n      pop\n        /* \"#utility.yul\":4189:4222   */\n      tag_222\n        /* \"#utility.yul\":4217:4221   */\n      dup3\n        /* \"#utility.yul\":4209:4215   */\n      dup3\n        /* \"#utility.yul\":4189:4222   */\n      tag_133\n      jump\t// in\n    tag_222:\n        /* \"#utility.yul\":4099:4228   */\n      swap2\n      swap1\n      pop\n      jump\t// out\n        /* \"#utility.yul\":4234:4542   */\n    tag_135:\n        /* \"#utility.yul\":4296:4300   */\n      0x00\n        /* \"#utility.yul\":4386:4404   */\n      0xffffffffffffffff\n        /* \"#utility.yul\":4378:4384   */\n      dup3\n        /* \"#utility.yul\":4375:4405   */\n      gt\n        /* \"#utility.yul\":4372:4428   */\n      iszero\n      tag_224\n      jumpi\n        /* \"#utility.yul\":4408:4426   */\n      tag_225\n      tag_91\n      jump\t// in\n    tag_225:\n        /* \"#utility.yul\":4372:4428   */\n    tag_224:\n        /* \"#utility.yul\":4446:4475   */\n      tag_226\n        /* \"#utility.yul\":4468:4474   */\n      dup3\n        /* \"#utility.yul\":4446:4475   */\n      tag_128\n      jump\t// in\n    tag_226:\n        /* \"#utility.yul\":4438:4475   */\n      swap1\n      pop\n        /* \"#utility.yul\":4530:4534   */\n      0x20\n        /* \"#utility.yul\":4524:4528   */\n      dup2\n        /* \"#utility.yul\":4520:4535   */\n      add\n        /* \"#utility.yul\":4512:4535   */\n      swap1\n      pop\n        /* \"#utility.yul\":4234:4542   */\n      swap2\n      swap1\n      pop\n      jump\t// out\n        /* \"#utility.yul\":4548:4696   */\n    tag_136:\n        /* \"#utility.yul\":4646:4652   */\n      dup3\n        /* \"#utility.yul\":4641:4644   */\n      dup2\n        /* \"#utility.yul\":4636:4639   */\n      dup4\n        /* \"#utility.yul\":4623:4653   */\n      calldatacopy\n        /* \"#utility.yul\":4687:4688   */\n      0x00\n        /* \"#utility.yul\":4678:4684   */\n      dup4\n        /* \"#utility.yul\":4673:4676   */\n      dup4\n        /* \"#utility.yul\":4669:4685   */\n      add\n        /* \"#utility.yul\":4662:4689   */\n      mstore\n        /* \"#utility.yul\":4548:4696   */\n      pop\n      pop\n      pop\n      jump\t// out\n        /* \"#utility.yul\":4702:5127   */\n    tag_137:\n        /* \"#utility.yul\":4780:4785   */\n      0x00\n        /* \"#utility.yul\":4805:4871   */\n      tag_229\n        /* \"#utility.yul\":4821:4870   */\n      tag_230\n        /* \"#utility.yul\":4863:4869   */\n      dup5\n        /* \"#utility.yul\":4821:4870   */\n      tag_135\n      jump\t// in\n    tag_230:\n        /* \"#utility.yul\":4805:4871   */\n      tag_134\n      jump\t// in\n    tag_229:\n        /* \"#utility.yul\":4796:4871   */\n      swap1\n      pop\n        /* \"#utility.yul\":4894:4900   */\n      dup3\n        /* \"#utility.yul\":4887:4892   */\n      dup2\n        /* \"#utility.yul\":4880:4901   */\n      mstore\n        /* \"#utility.yul\":4932:4936   */\n      0x20\n        /* \"#utility.yul\":4925:4930   */\n      dup2\n        /* \"#utility.yul\":4921:4937   */\n      add\n        /* \"#utility.yul\":4970:4973   */\n      dup5\n        /* \"#utility.yul\":4961:4967   */\n      dup5\n        /* \"#utility.yul\":4956:4959   */\n      dup5\n        /* \"#utility.yul\":4952:4968   */\n      add\n        /* \"#utility.yul\":4949:4974   */\n      gt\n        /* \"#utility.yul\":4946:5058   */\n      iszero\n      tag_231\n      jumpi\n        /* \"#utility.yul\":4977:5056   */\n      tag_232\n      tag_132\n      jump\t// in\n    tag_232:\n        /* \"#utility.yul\":4946:5058   */\n    tag_231:\n        /* \"#utility.yul\":5067:5121   */\n      tag_233\n        /* \"#utility.yul\":5114:5120   */\n      dup5\n        /* \"#utility.yul\":5109:5112   */\n      dup3\n        /* \"#utility.yul\":5104:5107   */\n      dup6\n        /* \"#utility.yul\":5067:5121   */\n      tag_136\n      jump\t// in\n    tag_233:\n        /* \"#utility.yul\":4786:5127   */\n      pop\n        /* \"#utility.yul\":4702:5127   */\n      swap4\n      swap3\n      pop\n      pop\n      pop\n      jump\t// out\n        /* \"#utility.yul\":5147:5487   */\n    tag_138:\n        /* \"#utility.yul\":5203:5208   */\n      0x00\n        /* \"#utility.yul\":5252:5255   */\n      dup3\n        /* \"#utility.yul\":5245:5249   */\n      0x1f\n        /* \"#utility.yul\":5237:5243   */\n      dup4\n        /* \"#utility.yul\":5233:5250   */\n      add\n        /* \"#utility.yul\":5229:5256   */\n      slt\n        /* \"#utility.yul\":5219:5341   */\n      tag_235\n      jumpi\n        /* \"#utility.yul\":5260:5339   */\n      tag_236\n      tag_131\n      jump\t// in\n    tag_236:\n        /* \"#utility.yul\":5219:5341   */\n    tag_235:\n        /* \"#utility.yul\":5377:5383   */\n      dup2\n        /* \"#utility.yul\":5364:5384   */\n      calldataload\n        /* \"#utility.yul\":5402:5481   */\n      tag_237\n        /* \"#utility.yul\":5477:5480   */\n      dup5\n        /* \"#utility.yul\":5469:5475   */\n      dup3\n        /* \"#utility.yul\":5462:5466   */\n      0x20\n        /* \"#utility.yul\":5454:5460   */\n      dup7\n        /* \"#utility.yul\":5450:5467   */\n      add\n        /* \"#utility.yul\":5402:5481   */\n      tag_137\n      jump\t// in\n    tag_237:\n        /* \"#utility.yul\":5393:5481   */\n      swap2\n      pop\n        /* \"#utility.yul\":5209:5487   */\n      pop\n        /* \"#utility.yul\":5147:5487   */\n      swap3\n      swap2\n      pop\n      pop\n      jump\t// out\n        /* \"#utility.yul\":5493:6002   */\n    tag_22:\n        /* \"#utility.yul\":5562:5568   */\n      0x00\n        /* \"#utility.yul\":5611:5613   */\n      0x20\n        /* \"#utility.yul\":5599:5608   */\n      dup3\n        /* \"#utility.yul\":5590:5597   */\n      dup5\n        /* \"#utility.yul\":5586:5609   */\n      sub\n        /* \"#utility.yul\":5582:5614   */\n      slt\n        /* \"#utility.yul\":5579:5698   */\n      iszero\n      tag_239\n      jumpi\n        /* \"#utility.yul\":5617:5696   */\n      tag_240\n      tag_115\n      jump\t// in\n    tag_240:\n        /* \"#utility.yul\":5579:5698   */\n    tag_239:\n        /* \"#utility.yul\":5765:5766   */\n      0x00\n        /* \"#utility.yul\":5754:5763   */\n      dup3\n        /* \"#utility.yul\":5750:5767   */\n      add\n        /* \"#utility.yul\":5737:5768   */\n      calldataload\n        /* \"#utility.yul\":5795:5813   */\n      0xffffffffffffffff\n        /* \"#utility.yul\":5787:5793   */\n      dup2\n        /* \"#utility.yul\":5784:5814   */\n      gt\n        /* \"#utility.yul\":5781:5898   */\n      iszero\n      tag_241\n      jumpi\n        /* \"#utility.yul\":5817:5896   */\n      tag_242\n      tag_116\n      jump\t// in\n    tag_242:\n        /* \"#utility.yul\":5781:5898   */\n    tag_241:\n        /* \"#utility.yul\":5922:5985   */\n      tag_243\n        /* \"#utility.yul\":5977:5984   */\n      dup5\n        /* \"#utility.yul\":5968:5974   */\n      dup3\n        /* \"#utility.yul\":5957:5966   */\n      dup6\n        /* \"#utility.yul\":5953:5975   */\n      add\n        /* \"#utility.yul\":5922:5985   */\n      tag_138\n      jump\t// in\n    tag_243:\n        /* \"#utility.yul\":5912:5985   */\n      swap2\n      pop\n        /* \"#utility.yul\":5708:5995   */\n      pop\n        /* \"#utility.yul\":5493:6002   */\n      swap3\n      swap2\n      pop\n      pop\n      jump\t// out\n        /* \"#utility.yul\":6008:6337   */\n    tag_26:\n        /* \"#utility.yul\":6067:6073   */\n      0x00\n        /* \"#utility.yul\":6116:6118   */\n      0x20\n        /* \"#utility.yul\":6104:6113   */\n      dup3\n        /* \"#utility.yul\":6095:6102   */\n      dup5\n        /* \"#utility.yul\":6091:6114   */\n      sub\n        /* \"#utility.yul\":6087:6119   */\n      slt\n        /* \"#utility.yul\":6084:6203   */\n      iszero\n      tag_245\n      jumpi\n        /* \"#utility.yul\":6122:6201   */\n      tag_246\n      tag_115\n      jump\t// in\n    tag_246:\n        /* \"#utility.yul\":6084:6203   */\n    tag_245:\n        /* \"#utility.yul\":6242:6243   */\n      0x00\n        /* \"#utility.yul\":6267:6320   */\n      tag_247\n        /* \"#utility.yul\":6312:6319   */\n      dup5\n        /* \"#utility.yul\":6303:6309   */\n      dup3\n        /* \"#utility.yul\":6292:6301   */\n      dup6\n        /* \"#utility.yul\":6288:6310   */\n      add\n        /* \"#utility.yul\":6267:6320   */\n      tag_123\n      jump\t// in\n    tag_247:\n        /* \"#utility.yul\":6257:6320   */\n      swap2\n      pop\n        /* \"#utility.yul\":6213:6330   */\n      pop\n        /* \"#utility.yul\":6008:6337   */\n      swap3\n      swap2\n      pop\n      pop\n      jump\t// out\n        /* \"#utility.yul\":6343:6477   */\n    tag_139:\n        /* \"#utility.yul\":6430:6436   */\n      0x00\n        /* \"#utility.yul\":6464:6469   */\n      dup2\n        /* \"#utility.yul\":6458:6470   */\n      mload\n        /* \"#utility.yul\":6448:6470   */\n      swap1\n      pop\n        /* \"#utility.yul\":6343:6477   */\n      swap2\n      swap1\n      pop\n      jump\t// out\n        /* \"#utility.yul\":6483:6687   */\n    tag_140:\n        /* \"#utility.yul\":6602:6613   */\n      0x00\n        /* \"#utility.yul\":6636:6642   */\n      dup3\n        /* \"#utility.yul\":6631:6634   */\n      dup3\n        /* \"#utility.yul\":6624:6643   */\n      mstore\n        /* \"#utility.yul\":6676:6680   */\n      0x20\n        /* \"#utility.yul\":6671:6674   */\n      dup3\n        /* \"#utility.yul\":6667:6681   */\n      add\n        /* \"#utility.yul\":6652:6681   */\n      swap1\n      pop\n        /* \"#utility.yul\":6483:6687   */\n      swap3\n      swap2\n      pop\n      pop\n      jump\t// out\n        /* \"#utility.yul\":6693:6845   */\n    tag_141:\n        /* \"#utility.yul\":6780:6784   */\n      0x00\n        /* \"#utility.yul\":6803:6806   */\n      dup2\n        /* \"#utility.yul\":6795:6806   */\n      swap1\n      pop\n        /* \"#utility.yul\":6833:6837   */\n      0x20\n        /* \"#utility.yul\":6828:6831   */\n      dup3\n        /* \"#utility.yul\":6824:6838   */\n      add\n        /* \"#utility.yul\":6816:6838   */\n      swap1\n      pop\n        /* \"#utility.yul\":6693:6845   */\n      swap2\n      swap1\n      pop\n      jump\t// out\n        /* \"#utility.yul\":6851:6959   */\n    tag_142:\n        /* \"#utility.yul\":6928:6952   */\n      tag_252\n        /* \"#utility.yul\":6946:6951   */\n      dup2\n        /* \"#utility.yul\":6928:6952   */\n      tag_118\n      jump\t// in\n    tag_252:\n        /* \"#utility.yul\":6923:6926   */\n      dup3\n        /* \"#utility.yul\":6916:6953   */\n      mstore\n        /* \"#utility.yul\":6851:6959   */\n      pop\n      pop\n      jump\t// out\n        /* \"#utility.yul\":6965:7124   */\n    tag_143:\n        /* \"#utility.yul\":7039:7050   */\n      0x00\n        /* \"#utility.yul\":7073:7079   */\n      dup3\n        /* \"#utility.yul\":7068:7071   */\n      dup3\n        /* \"#utility.yul\":7061:7080   */\n      mstore\n        /* \"#utility.yul\":7113:7117   */\n      0x20\n        /* \"#utility.yul\":7108:7111   */\n      dup3\n        /* \"#utility.yul\":7104:7118   */\n      add\n        /* \"#utility.yul\":7089:7118   */\n      swap1\n      pop\n        /* \"#utility.yul\":6965:7124   */\n      swap3\n      swap2\n      pop\n      pop\n      jump\t// out\n        /* \"#utility.yul\":7130:7487   */\n    tag_144:\n        /* \"#utility.yul\":7208:7211   */\n      0x00\n        /* \"#utility.yul\":7236:7275   */\n      tag_255\n        /* \"#utility.yul\":7269:7274   */\n      dup3\n        /* \"#utility.yul\":7236:7275   */\n      tag_125\n      jump\t// in\n    tag_255:\n        /* \"#utility.yul\":7291:7352   */\n      tag_256\n        /* \"#utility.yul\":7345:7351   */\n      dup2\n        /* \"#utility.yul\":7340:7343   */\n      dup6\n        /* \"#utility.yul\":7291:7352   */\n      tag_143\n      jump\t// in\n    tag_256:\n        /* \"#utility.yul\":7284:7352   */\n      swap4\n      pop\n        /* \"#utility.yul\":7361:7426   */\n      tag_257\n        /* \"#utility.yul\":7419:7425   */\n      dup2\n        /* \"#utility.yul\":7414:7417   */\n      dup6\n        /* \"#utility.yul\":7407:7411   */\n      0x20\n        /* \"#utility.yul\":7400:7405   */\n      dup7\n        /* \"#utility.yul\":7396:7412   */\n      add\n        /* \"#utility.yul\":7361:7426   */\n      tag_127\n      jump\t// in\n    tag_257:\n        /* \"#utility.yul\":7451:7480   */\n      tag_258\n        /* \"#utility.yul\":7473:7479   */\n      dup2\n        /* \"#utility.yul\":7451:7480   */\n      tag_128\n      jump\t// in\n    tag_258:\n        /* \"#utility.yul\":7446:7449   */\n      dup5\n        /* \"#utility.yul\":7442:7481   */\n      add\n        /* \"#utility.yul\":7435:7481   */\n      swap2\n      pop\n        /* \"#utility.yul\":7212:7487   */\n      pop\n        /* \"#utility.yul\":7130:7487   */\n      swap3\n      swap2\n      pop\n      pop\n      jump\t// out\n        /* \"#utility.yul\":7493:7601   */\n    tag_145:\n        /* \"#utility.yul\":7570:7594   */\n      tag_260\n        /* \"#utility.yul\":7588:7593   */\n      dup2\n        /* \"#utility.yul\":7570:7594   */\n      tag_121\n      jump\t// in\n    tag_260:\n        /* \"#utility.yul\":7565:7568   */\n      dup3\n        /* \"#utility.yul\":7558:7595   */\n      mstore\n        /* \"#utility.yul\":7493:7601   */\n      pop\n      pop\n      jump\t// out\n        /* \"#utility.yul\":7671:8441   */\n    tag_146:\n        /* \"#utility.yul\":7770:7773   */\n      0x00\n        /* \"#utility.yul\":7806:7810   */\n      0x60\n        /* \"#utility.yul\":7801:7804   */\n      dup4\n        /* \"#utility.yul\":7797:7811   */\n      add\n        /* \"#utility.yul\":7895:7899   */\n      0x00\n        /* \"#utility.yul\":7888:7893   */\n      dup4\n        /* \"#utility.yul\":7884:7900   */\n      add\n        /* \"#utility.yul\":7878:7901   */\n      mload\n        /* \"#utility.yul\":7914:7977   */\n      tag_262\n        /* \"#utility.yul\":7971:7975   */\n      0x00\n        /* \"#utility.yul\":7966:7969   */\n      dup7\n        /* \"#utility.yul\":7962:7976   */\n      add\n        /* \"#utility.yul\":7948:7960   */\n      dup3\n        /* \"#utility.yul\":7914:7977   */\n      tag_142\n      jump\t// in\n    tag_262:\n        /* \"#utility.yul\":7821:7987   */\n      pop\n        /* \"#utility.yul\":8072:8076   */\n      0x20\n        /* \"#utility.yul\":8065:8070   */\n      dup4\n        /* \"#utility.yul\":8061:8077   */\n      add\n        /* \"#utility.yul\":8055:8078   */\n      mload\n        /* \"#utility.yul\":8125:8128   */\n      dup5\n        /* \"#utility.yul\":8119:8123   */\n      dup3\n        /* \"#utility.yul\":8115:8129   */\n      sub\n        /* \"#utility.yul\":8108:8112   */\n      0x20\n        /* \"#utility.yul\":8103:8106   */\n      dup7\n        /* \"#utility.yul\":8099:8113   */\n      add\n        /* \"#utility.yul\":8092:8130   */\n      mstore\n        /* \"#utility.yul\":8151:8224   */\n      tag_263\n        /* \"#utility.yul\":8219:8223   */\n      dup3\n        /* \"#utility.yul\":8205:8217   */\n      dup3\n        /* \"#utility.yul\":8151:8224   */\n      tag_144\n      jump\t// in\n    tag_263:\n        /* \"#utility.yul\":8143:8224   */\n      swap2\n      pop\n        /* \"#utility.yul\":7997:8235   */\n      pop\n        /* \"#utility.yul\":8322:8326   */\n      0x40\n        /* \"#utility.yul\":8315:8320   */\n      dup4\n        /* \"#utility.yul\":8311:8327   */\n      add\n        /* \"#utility.yul\":8305:8328   */\n      mload\n        /* \"#utility.yul\":8341:8404   */\n      tag_264\n        /* \"#utility.yul\":8398:8402   */\n      0x40\n        /* \"#utility.yul\":8393:8396   */\n      dup7\n        /* \"#utility.yul\":8389:8403   */\n      add\n        /* \"#utility.yul\":8375:8387   */\n      dup3\n        /* \"#utility.yul\":8341:8404   */\n      tag_145\n      jump\t// in\n    tag_264:\n        /* \"#utility.yul\":8245:8414   */\n      pop\n        /* \"#utility.yul\":8431:8435   */\n      dup1\n        /* \"#utility.yul\":8424:8435   */\n      swap2\n      pop\n        /* \"#utility.yul\":7775:8441   */\n      pop\n        /* \"#utility.yul\":7671:8441   */\n      swap3\n      swap2\n      pop\n      pop\n      jump\t// out\n        /* \"#utility.yul\":8447:8683   */\n    tag_147:\n        /* \"#utility.yul\":8556:8566   */\n      0x00\n        /* \"#utility.yul\":8591:8677   */\n      tag_266\n        /* \"#utility.yul\":8673:8676   */\n      dup4\n        /* \"#utility.yul\":8665:8671   */\n      dup4\n        /* \"#utility.yul\":8591:8677   */\n      tag_146\n      jump\t// in\n    tag_266:\n        /* \"#utility.yul\":8577:8677   */\n      swap1\n      pop\n        /* \"#utility.yul\":8447:8683   */\n      swap3\n      swap2\n      pop\n      pop\n      jump\t// out\n        /* \"#utility.yul\":8689:8822   */\n    tag_148:\n        /* \"#utility.yul\":8779:8783   */\n      0x00\n        /* \"#utility.yul\":8811:8815   */\n      0x20\n        /* \"#utility.yul\":8806:8809   */\n      dup3\n        /* \"#utility.yul\":8802:8816   */\n      add\n        /* \"#utility.yul\":8794:8816   */\n      swap1\n      pop\n        /* \"#utility.yul\":8689:8822   */\n      swap2\n      swap1\n      pop\n      jump\t// out\n        /* \"#utility.yul\":8896:9967   */\n    tag_149:\n        /* \"#utility.yul\":9055:9058   */\n      0x00\n        /* \"#utility.yul\":9084:9158   */\n      tag_269\n        /* \"#utility.yul\":9152:9157   */\n      dup3\n        /* \"#utility.yul\":9084:9158   */\n      tag_139\n      jump\t// in\n    tag_269:\n        /* \"#utility.yul\":9174:9280   */\n      tag_270\n        /* \"#utility.yul\":9273:9279   */\n      dup2\n        /* \"#utility.yul\":9268:9271   */\n      dup6\n        /* \"#utility.yul\":9174:9280   */\n      tag_140\n      jump\t// in\n    tag_270:\n        /* \"#utility.yul\":9167:9280   */\n      swap4\n      pop\n        /* \"#utility.yul\":9306:9309   */\n      dup4\n        /* \"#utility.yul\":9351:9355   */\n      0x20\n        /* \"#utility.yul\":9343:9349   */\n      dup3\n        /* \"#utility.yul\":9339:9356   */\n      mul\n        /* \"#utility.yul\":9334:9337   */\n      dup6\n        /* \"#utility.yul\":9330:9357   */\n      add\n        /* \"#utility.yul\":9381:9457   */\n      tag_271\n        /* \"#utility.yul\":9451:9456   */\n      dup6\n        /* \"#utility.yul\":9381:9457   */\n      tag_141\n      jump\t// in\n    tag_271:\n        /* \"#utility.yul\":9480:9487   */\n      dup1\n        /* \"#utility.yul\":9511:9512   */\n      0x00\n        /* \"#utility.yul\":9496:9922   */\n    tag_272:\n        /* \"#utility.yul\":9521:9527   */\n      dup6\n        /* \"#utility.yul\":9518:9519   */\n      dup2\n        /* \"#utility.yul\":9515:9528   */\n      lt\n        /* \"#utility.yul\":9496:9922   */\n      iszero\n      tag_274\n      jumpi\n        /* \"#utility.yul\":9592:9601   */\n      dup5\n        /* \"#utility.yul\":9586:9590   */\n      dup5\n        /* \"#utility.yul\":9582:9602   */\n      sub\n        /* \"#utility.yul\":9577:9580   */\n      dup10\n        /* \"#utility.yul\":9570:9603   */\n      mstore\n        /* \"#utility.yul\":9643:9649   */\n      dup2\n        /* \"#utility.yul\":9637:9650   */\n      mload\n        /* \"#utility.yul\":9671:9775   */\n      tag_275\n        /* \"#utility.yul\":9770:9774   */\n      dup6\n        /* \"#utility.yul\":9755:9768   */\n      dup3\n        /* \"#utility.yul\":9671:9775   */\n      tag_147\n      jump\t// in\n    tag_275:\n        /* \"#utility.yul\":9663:9775   */\n      swap5\n      pop\n        /* \"#utility.yul\":9798:9878   */\n      tag_276\n        /* \"#utility.yul\":9871:9877   */\n      dup4\n        /* \"#utility.yul\":9798:9878   */\n      tag_148\n      jump\t// in\n    tag_276:\n        /* \"#utility.yul\":9788:9878   */\n      swap3\n      pop\n        /* \"#utility.yul\":9907:9911   */\n      0x20\n        /* \"#utility.yul\":9902:9905   */\n      dup11\n        /* \"#utility.yul\":9898:9912   */\n      add\n        /* \"#utility.yul\":9891:9912   */\n      swap10\n      pop\n        /* \"#utility.yul\":9556:9922   */\n      pop\n        /* \"#utility.yul\":9543:9544   */\n      0x01\n        /* \"#utility.yul\":9540:9541   */\n      dup2\n        /* \"#utility.yul\":9536:9545   */\n      add\n        /* \"#utility.yul\":9531:9545   */\n      swap1\n      pop\n        /* \"#utility.yul\":9496:9922   */\n      jump(tag_272)\n    tag_274:\n        /* \"#utility.yul\":9500:9514   */\n      pop\n        /* \"#utility.yul\":9938:9942   */\n      dup3\n        /* \"#utility.yul\":9931:9942   */\n      swap8\n      pop\n        /* \"#utility.yul\":9958:9961   */\n      dup8\n        /* \"#utility.yul\":9951:9961   */\n      swap6\n      pop\n        /* \"#utility.yul\":9060:9967   */\n      pop\n      pop\n      pop\n      pop\n      pop\n        /* \"#utility.yul\":8896:9967   */\n      swap3\n      swap2\n      pop\n      pop\n      jump\t// out\n        /* \"#utility.yul\":9973:10426   */\n    tag_29:\n        /* \"#utility.yul\":10156:10160   */\n      0x00\n        /* \"#utility.yul\":10194:10196   */\n      0x20\n        /* \"#utility.yul\":10183:10192   */\n      dup3\n        /* \"#utility.yul\":10179:10197   */\n      add\n        /* \"#utility.yul\":10171:10197   */\n      swap1\n      pop\n        /* \"#utility.yul\":10243:10252   */\n      dup2\n        /* \"#utility.yul\":10237:10241   */\n      dup2\n        /* \"#utility.yul\":10233:10253   */\n      sub\n        /* \"#utility.yul\":10229:10230   */\n      0x00\n        /* \"#utility.yul\":10218:10227   */\n      dup4\n        /* \"#utility.yul\":10214:10231   */\n      add\n        /* \"#utility.yul\":10207:10254   */\n      mstore\n        /* \"#utility.yul\":10271:10419   */\n      tag_278\n        /* \"#utility.yul\":10414:10418   */\n      dup2\n        /* \"#utility.yul\":10405:10411   */\n      dup5\n        /* \"#utility.yul\":10271:10419   */\n      tag_149\n      jump\t// in\n    tag_278:\n        /* \"#utility.yul\":10263:10419   */\n      swap1\n      pop\n        /* \"#utility.yul\":9973:10426   */\n      swap3\n      swap2\n      pop\n      pop\n      jump\t// out\n        /* \"#utility.yul\":10432:11086   */\n    tag_32:\n        /* \"#utility.yul\":10510:10516   */\n      0x00\n        /* \"#utility.yul\":10518:10524   */\n      dup1\n        /* \"#utility.yul\":10567:10569   */\n      0x40\n        /* \"#utility.yul\":10555:10564   */\n      dup4\n        /* \"#utility.yul\":10546:10553   */\n      dup6\n        /* \"#utility.yul\":10542:10565   */\n      sub\n        /* \"#utility.yul\":10538:10570   */\n      slt\n        /* \"#utility.yul\":10535:10654   */\n      iszero\n      tag_280\n      jumpi\n        /* \"#utility.yul\":10573:10652   */\n      tag_281\n      tag_115\n      jump\t// in\n    tag_281:\n        /* \"#utility.yul\":10535:10654   */\n    tag_280:\n        /* \"#utility.yul\":10721:10722   */\n      0x00\n        /* \"#utility.yul\":10710:10719   */\n      dup4\n        /* \"#utility.yul\":10706:10723   */\n      add\n        /* \"#utility.yul\":10693:10724   */\n      calldataload\n        /* \"#utility.yul\":10751:10769   */\n      0xffffffffffffffff\n        /* \"#utility.yul\":10743:10749   */\n      dup2\n        /* \"#utility.yul\":10740:10770   */\n      gt\n        /* \"#utility.yul\":10737:10854   */\n      iszero\n      tag_282\n      jumpi\n        /* \"#utility.yul\":10773:10852   */\n      tag_283\n      tag_116\n      jump\t// in\n    tag_283:\n        /* \"#utility.yul\":10737:10854   */\n    tag_282:\n        /* \"#utility.yul\":10878:10941   */\n      tag_284\n        /* \"#utility.yul\":10933:10940   */\n      dup6\n        /* \"#utility.yul\":10924:10930   */\n      dup3\n        /* \"#utility.yul\":10913:10922   */\n      dup7\n        /* \"#utility.yul\":10909:10931   */\n      add\n        /* \"#utility.yul\":10878:10941   */\n      tag_138\n      jump\t// in\n    tag_284:\n        /* \"#utility.yul\":10868:10941   */\n      swap3\n      pop\n        /* \"#utility.yul\":10664:10951   */\n      pop\n        /* \"#utility.yul\":10990:10992   */\n      0x20\n        /* \"#utility.yul\":11016:11069   */\n      tag_285\n        /* \"#utility.yul\":11061:11068   */\n      dup6\n        /* \"#utility.yul\":11052:11058   */\n      dup3\n        /* \"#utility.yul\":11041:11050   */\n      dup7\n        /* \"#utility.yul\":11037:11059   */\n      add\n        /* \"#utility.yul\":11016:11069   */\n      tag_120\n      jump\t// in\n    tag_285:\n        /* \"#utility.yul\":11006:11069   */\n      swap2\n      pop\n        /* \"#utility.yul\":10961:11079   */\n      pop\n        /* \"#utility.yul\":10432:11086   */\n      swap3\n      pop\n      swap3\n      swap1\n      pop\n      jump\t// out\n        /* \"#utility.yul\":11092:11421   */\n    tag_36:\n        /* \"#utility.yul\":11151:11157   */\n      0x00\n        /* \"#utility.yul\":11200:11202   */\n      0x20\n        /* \"#utility.yul\":11188:11197   */\n      dup3\n        /* \"#utility.yul\":11179:11186   */\n      dup5\n        /* \"#utility.yul\":11175:11198   */\n      sub\n        /* \"#utility.yul\":11171:11203   */\n      slt\n        /* \"#utility.yul\":11168:11287   */\n      iszero\n      tag_287\n      jumpi\n        /* \"#utility.yul\":11206:11285   */\n      tag_288\n      tag_115\n      jump\t// in\n    tag_288:\n        /* \"#utility.yul\":11168:11287   */\n    tag_287:\n        /* \"#utility.yul\":11326:11327   */\n      0x00\n        /* \"#utility.yul\":11351:11404   */\n      tag_289\n        /* \"#utility.yul\":11396:11403   */\n      dup5\n        /* \"#utility.yul\":11387:11393   */\n      dup3\n        /* \"#utility.yul\":11376:11385   */\n      dup6\n        /* \"#utility.yul\":11372:11394   */\n      add\n        /* \"#utility.yul\":11351:11404   */\n      tag_120\n      jump\t// in\n    tag_289:\n        /* \"#utility.yul\":11341:11404   */\n      swap2\n      pop\n        /* \"#utility.yul\":11297:11414   */\n      pop\n        /* \"#utility.yul\":11092:11421   */\n      swap3\n      swap2\n      pop\n      pop\n      jump\t// out\n        /* \"#utility.yul\":11427:11901   */\n    tag_40:\n        /* \"#utility.yul\":11495:11501   */\n      0x00\n        /* \"#utility.yul\":11503:11509   */\n      dup1\n        /* \"#utility.yul\":11552:11554   */\n      0x40\n        /* \"#utility.yul\":11540:11549   */\n      dup4\n        /* \"#utility.yul\":11531:11538   */\n      dup6\n        /* \"#utility.yul\":11527:11550   */\n      sub\n        /* \"#utility.yul\":11523:11555   */\n      slt\n        /* \"#utility.yul\":11520:11639   */\n      iszero\n      tag_291\n      jumpi\n        /* \"#utility.yul\":11558:11637   */\n      tag_292\n      tag_115\n      jump\t// in\n    tag_292:\n        /* \"#utility.yul\":11520:11639   */\n    tag_291:\n        /* \"#utility.yul\":11678:11679   */\n      0x00\n        /* \"#utility.yul\":11703:11756   */\n      tag_293\n        /* \"#utility.yul\":11748:11755   */\n      dup6\n        /* \"#utility.yul\":11739:11745   */\n      dup3\n        /* \"#utility.yul\":11728:11737   */\n      dup7\n        /* \"#utility.yul\":11724:11746   */\n      add\n        /* \"#utility.yul\":11703:11756   */\n      tag_120\n      jump\t// in\n    tag_293:\n        /* \"#utility.yul\":11693:11756   */\n      swap3\n      pop\n        /* \"#utility.yul\":11649:11766   */\n      pop\n        /* \"#utility.yul\":11805:11807   */\n      0x20\n        /* \"#utility.yul\":11831:11884   */\n      tag_294\n        /* \"#utility.yul\":11876:11883   */\n      dup6\n        /* \"#utility.yul\":11867:11873   */\n      dup3\n        /* \"#utility.yul\":11856:11865   */\n      dup7\n        /* \"#utility.yul\":11852:11874   */\n      add\n        /* \"#utility.yul\":11831:11884   */\n      tag_120\n      jump\t// in\n    tag_294:\n        /* \"#utility.yul\":11821:11884   */\n      swap2\n      pop\n        /* \"#utility.yul\":11776:11894   */\n      pop\n        /* \"#utility.yul\":11427:11901   */\n      swap3\n      pop\n      swap3\n      swap1\n      pop\n      jump\t// out\n        /* \"#utility.yul\":11907:11997   */\n    tag_150:\n        /* \"#utility.yul\":11941:11948   */\n      0x00\n        /* \"#utility.yul\":11984:11989   */\n      dup2\n        /* \"#utility.yul\":11977:11990   */\n      iszero\n        /* \"#utility.yul\":11970:11991   */\n      iszero\n        /* \"#utility.yul\":11959:11991   */\n      swap1\n      pop\n        /* \"#utility.yul\":11907:11997   */\n      swap2\n      swap1\n      pop\n      jump\t// out\n        /* \"#utility.yul\":12003:12112   */\n    tag_151:\n        /* \"#utility.yul\":12084:12105   */\n      tag_297\n        /* \"#utility.yul\":12099:12104   */\n      dup2\n        /* \"#utility.yul\":12084:12105   */\n      tag_150\n      jump\t// in\n    tag_297:\n        /* \"#utility.yul\":12079:12082   */\n      dup3\n        /* \"#utility.yul\":12072:12106   */\n      mstore\n        /* \"#utility.yul\":12003:12112   */\n      pop\n      pop\n      jump\t// out\n        /* \"#utility.yul\":12118:12328   */\n    tag_43:\n        /* \"#utility.yul\":12205:12209   */\n      0x00\n        /* \"#utility.yul\":12243:12245   */\n      0x20\n        /* \"#utility.yul\":12232:12241   */\n      dup3\n        /* \"#utility.yul\":12228:12246   */\n      add\n        /* \"#utility.yul\":12220:12246   */\n      swap1\n      pop\n        /* \"#utility.yul\":12256:12321   */\n      tag_299\n        /* \"#utility.yul\":12318:12319   */\n      0x00\n        /* \"#utility.yul\":12307:12316   */\n      dup4\n        /* \"#utility.yul\":12303:12320   */\n      add\n        /* \"#utility.yul\":12294:12300   */\n      dup5\n        /* \"#utility.yul\":12256:12321   */\n      tag_151\n      jump\t// in\n    tag_299:\n        /* \"#utility.yul\":12118:12328   */\n      swap3\n      swap2\n      pop\n      pop\n      jump\t// out\n        /* \"#utility.yul\":12334:12556   */\n    tag_48:\n        /* \"#utility.yul\":12427:12431   */\n      0x00\n        /* \"#utility.yul\":12465:12467   */\n      0x20\n        /* \"#utility.yul\":12454:12463   */\n      dup3\n        /* \"#utility.yul\":12450:12468   */\n      add\n        /* \"#utility.yul\":12442:12468   */\n      swap1\n      pop\n        /* \"#utility.yul\":12478:12549   */\n      tag_301\n        /* \"#utility.yul\":12546:12547   */\n      0x00\n        /* \"#utility.yul\":12535:12544   */\n      dup4\n        /* \"#utility.yul\":12531:12548   */\n      add\n        /* \"#utility.yul\":12522:12528   */\n      dup5\n        /* \"#utility.yul\":12478:12549   */\n      tag_124\n      jump\t// in\n    tag_301:\n        /* \"#utility.yul\":12334:12556   */\n      swap3\n      swap2\n      pop\n      pop\n      jump\t// out\n        /* \"#utility.yul\":12562:12742   */\n    tag_152:\n        /* \"#utility.yul\":12610:12687   */\n      0x4e487b7100000000000000000000000000000000000000000000000000000000\n        /* \"#utility.yul\":12607:12608   */\n      0x00\n        /* \"#utility.yul\":12600:12688   */\n      mstore\n        /* \"#utility.yul\":12707:12711   */\n      0x22\n        /* \"#utility.yul\":12704:12705   */\n      0x04\n        /* \"#utility.yul\":12697:12712   */\n      mstore\n        /* \"#utility.yul\":12731:12735   */\n      0x24\n        /* \"#utility.yul\":12728:12729   */\n      0x00\n        /* \"#utility.yul\":12721:12736   */\n      revert\n        /* \"#utility.yul\":12748:13068   */\n    tag_62:\n        /* \"#utility.yul\":12792:12798   */\n      0x00\n        /* \"#utility.yul\":12829:12830   */\n      0x02\n        /* \"#utility.yul\":12823:12827   */\n      dup3\n        /* \"#utility.yul\":12819:12831   */\n      div\n        /* \"#utility.yul\":12809:12831   */\n      swap1\n      pop\n        /* \"#utility.yul\":12876:12877   */\n      0x01\n        /* \"#utility.yul\":12870:12874   */\n      dup3\n        /* \"#utility.yul\":12866:12878   */\n      and\n        /* \"#utility.yul\":12897:12915   */\n      dup1\n        /* \"#utility.yul\":12887:12968   */\n      tag_304\n      jumpi\n        /* \"#utility.yul\":12953:12957   */\n      0x7f\n        /* \"#utility.yul\":12945:12951   */\n      dup3\n        /* \"#utility.yul\":12941:12958   */\n      and\n        /* \"#utility.yul\":12931:12958   */\n      swap2\n      pop\n        /* \"#utility.yul\":12887:12968   */\n    tag_304:\n        /* \"#utility.yul\":13015:13017   */\n      0x20\n        /* \"#utility.yul\":13007:13013   */\n      dup3\n        /* \"#utility.yul\":13004:13018   */\n      lt\n        /* \"#utility.yul\":12984:13002   */\n      dup2\n        /* \"#utility.yul\":12981:13019   */\n      sub\n        /* \"#utility.yul\":12978:13062   */\n      tag_305\n      jumpi\n        /* \"#utility.yul\":13034:13052   */\n      tag_306\n      tag_152\n      jump\t// in\n    tag_306:\n        /* \"#utility.yul\":12978:13062   */\n    tag_305:\n        /* \"#utility.yul\":12799:13068   */\n      pop\n        /* \"#utility.yul\":12748:13068   */\n      swap2\n      swap1\n      pop\n      jump\t// out\n        /* \"#utility.yul\":13074:13215   */\n    tag_153:\n        /* \"#utility.yul\":13123:13127   */\n      0x00\n        /* \"#utility.yul\":13146:13149   */\n      dup2\n        /* \"#utility.yul\":13138:13149   */\n      swap1\n      pop\n        /* \"#utility.yul\":13169:13172   */\n      dup2\n        /* \"#utility.yul\":13166:13167   */\n      0x00\n        /* \"#utility.yul\":13159:13173   */\n      mstore\n        /* \"#utility.yul\":13203:13207   */\n      0x20\n        /* \"#utility.yul\":13200:13201   */\n      0x00\n        /* \"#utility.yul\":13190:13208   */\n      keccak256\n        /* \"#utility.yul\":13182:13208   */\n      swap1\n      pop\n        /* \"#utility.yul\":13074:13215   */\n      swap2\n      swap1\n      pop\n      jump\t// out\n        /* \"#utility.yul\":13221:13314   */\n    tag_154:\n        /* \"#utility.yul\":13258:13264   */\n      0x00\n        /* \"#utility.yul\":13305:13307   */\n      0x20\n        /* \"#utility.yul\":13300:13302   */\n      0x1f\n        /* \"#utility.yul\":13293:13298   */\n      dup4\n        /* \"#utility.yul\":13289:13303   */\n      add\n        /* \"#utility.yul\":13285:13308   */\n      div\n        /* \"#utility.yul\":13275:13308   */\n      swap1\n      pop\n        /* \"#utility.yul\":13221:13314   */\n      swap2\n      swap1\n      pop\n      jump\t// out\n        /* \"#utility.yul\":13320:13427   */\n    tag_155:\n        /* \"#utility.yul\":13364:13372   */\n      0x00\n        /* \"#utility.yul\":13414:13419   */\n      dup3\n        /* \"#utility.yul\":13408:13412   */\n      dup3\n        /* \"#utility.yul\":13404:13420   */\n      shl\n        /* \"#utility.yul\":13383:13420   */\n      swap1\n      pop\n        /* \"#utility.yul\":13320:13427   */\n      swap3\n      swap2\n      pop\n      pop\n      jump\t// out\n        /* \"#utility.yul\":13433:13826   */\n    tag_156:\n        /* \"#utility.yul\":13502:13508   */\n      0x00\n        /* \"#utility.yul\":13552:13553   */\n      0x08\n        /* \"#utility.yul\":13540:13550   */\n      dup4\n        /* \"#utility.yul\":13536:13554   */\n      mul\n        /* \"#utility.yul\":13575:13672   */\n      tag_311\n        /* \"#utility.yul\":13605:13671   */\n      0xffffffffffffffffffffffffffffffffffffffffffffffffffffffffffffffff\n        /* \"#utility.yul\":13594:13603   */\n      dup3\n        /* \"#utility.yul\":13575:13672   */\n      tag_155\n      jump\t// in\n    tag_311:\n        /* \"#utility.yul\":13693:13732   */\n      tag_312\n        /* \"#utility.yul\":13723:13731   */\n      dup7\n        /* \"#utility.yul\":13712:13721   */\n      dup4\n        /* \"#utility.yul\":13693:13732   */\n      tag_155\n      jump\t// in\n    tag_312:\n        /* \"#utility.yul\":13681:13732   */\n      swap6\n      pop\n        /* \"#utility.yul\":13765:13769   */\n      dup1\n        /* \"#utility.yul\":13761:13770   */\n      not\n        /* \"#utility.yul\":13754:13759   */\n      dup5\n        /* \"#utility.yul\":13750:13771   */\n      and\n        /* \"#utility.yul\":13741:13771   */\n      swap4\n      pop\n        /* \"#utility.yul\":13814:13818   */\n      dup1\n        /* \"#utility.yul\":13804:13812   */\n      dup7\n        /* \"#utility.yul\":13800:13819   */\n      and\n        /* \"#utility.yul\":13793:13798   */\n      dup5\n        /* \"#utility.yul\":13790:13820   */\n      or\n        /* \"#utility.yul\":13780:13820   */\n      swap3\n      pop\n        /* \"#utility.yul\":13509:13826   */\n      pop\n      pop\n        /* \"#utility.yul\":13433:13826   */\n      swap4\n      swap3\n      pop\n      pop\n      pop\n      jump\t// out\n        /* \"#utility.yul\":13832:13892   */\n    tag_157:\n        /* \"#utility.yul\":13860:13863   */\n      0x00\n        /* \"#utility.yul\":13881:13886   */\n      dup2\n        /* \"#utility.yul\":13874:13886   */\n      swap1\n      pop\n        /* \"#utility.yul\":13832:13892   */\n      swap2\n      swap1\n      pop\n      jump\t// out\n        /* \"#utility.yul\":13898:14040   */\n    tag_158:\n        /* \"#utility.yul\":13948:13957   */\n      0x00\n        /* \"#utility.yul\":13981:14034   */\n      tag_315\n        /* \"#utility.yul\":13999:14033   */\n      tag_316\n        /* \"#utility.yul\":14008:14032   */\n      tag_317\n        /* \"#utility.yul\":14026:14031   */\n      dup5\n        /* \"#utility.yul\":14008:14032   */\n      tag_121\n      jump\t// in\n    tag_317:\n        /* \"#utility.yul\":13999:14033   */\n      tag_157\n      jump\t// in\n    tag_316:\n        /* \"#utility.yul\":13981:14034   */\n      tag_121\n      jump\t// in\n    tag_315:\n        /* \"#utility.yul\":13968:14034   */\n      swap1\n      pop\n        /* \"#utility.yul\":13898:14040   */\n      swap2\n      swap1\n      pop\n      jump\t// out\n        /* \"#utility.yul\":14046:14121   */\n    tag_159:\n        /* \"#utility.yul\":14089:14092   */\n      0x00\n        /* \"#utility.yul\":14110:14115   */\n      dup2\n        /* \"#utility.yul\":14103:14115   */\n      swap1\n      pop\n        /* \"#utility.yul\":14046:14121   */\n      swap2\n      swap1\n      pop\n      jump\t// out\n        /* \"#utility.yul\":14127:14396   */\n    tag_160:\n        /* \"#utility.yul\":14237:14276   */\n      tag_320\n        /* \"#utility.yul\":14268:14275   */\n      dup4\n        /* \"#utility.yul\":14237:14276   */\n      tag_158\n      jump\t// in\n    tag_320:\n        /* \"#utility.yul\":14298:14389   */\n      tag_321\n        /* \"#utility.yul\":14347:14388   */\n      tag_322\n        /* \"#utility.yul\":14371:14387   */\n      dup3\n        /* \"#utility.yul\":14347:14388   */\n      tag_159\n      jump\t// in\n    tag_322:\n        /* \"#utility.yul\":14339:14345   */\n      dup5\n        /* \"#utility.yul\":14332:14336   */\n      dup5\n        /* \"#utility.yul\":14326:14337   */\n      sload\n        /* \"#utility.yul\":14298:14389   */\n      tag_156\n      jump\t// in\n    tag_321:\n        /* \"#utility.yul\":14292:14296   */\n      dup3\n        /* \"#utility.yul\":14285:14390   */\n      sstore\n        /* \"#utility.yul\":14203:14396   */\n      pop\n        /* \"#utility.yul\":14127:14396   */\n      pop\n      pop\n      pop\n      jump\t// out\n        /* \"#utility.yul\":14402:14475   */\n    tag_161:\n        /* \"#utility.yul\":14447:14450   */\n      0x00\n        /* \"#utility.yul\":14402:14475   */\n      swap1\n      jump\t// out\n        /* \"#utility.yul\":14481:14670   */\n    tag_162:\n        /* \"#utility.yul\":14558:14590   */\n      tag_325\n      tag_161\n      jump\t// in\n    tag_325:\n        /* \"#utility.yul\":14599:14664   */\n      tag_326\n        /* \"#utility.yul\":14657:14663   */\n      dup2\n        /* \"#utility.yul\":14649:14655   */\n      dup5\n        /* \"#utility.yul\":14643:14647   */\n      dup5\n        /* \"#utility.yul\":14599:14664   */\n      tag_160\n      jump\t// in\n    tag_326:\n        /* \"#utility.yul\":14534:14670   */\n      pop\n        /* \"#utility.yul\":14481:14670   */\n      pop\n      pop\n      jump\t// out\n        /* \"#utility.yul\":14676:14862   */\n    tag_163:\n        /* \"#utility.yul\":14736:14856   */\n    tag_328:\n        /* \"#utility.yul\":14753:14756   */\n      dup2\n        /* \"#utility.yul\":14746:14751   */\n      dup2\n        /* \"#utility.yul\":14743:14757   */\n      lt\n        /* \"#utility.yul\":14736:14856   */\n      iszero\n      tag_330\n      jumpi\n        /* \"#utility.yul\":14807:14846   */\n      tag_331\n        /* \"#utility.yul\":14844:14845   */\n      0x00\n        /* \"#utility.yul\":14837:14842   */\n      dup3\n        /* \"#utility.yul\":14807:14846   */\n      tag_162\n      jump\t// in\n    tag_331:\n        /* \"#utility.yul\":14780:14781   */\n      0x01\n        /* \"#utility.yul\":14773:14778   */\n      dup2\n        /* \"#utility.yul\":14769:14782   */\n      add\n        /* \"#utility.yul\":14760:14782   */\n      swap1\n      pop\n        /* \"#utility.yul\":14736:14856   */\n      jump(tag_328)\n    tag_330:\n        /* \"#utility.yul\":14676:14862   */\n      pop\n      pop\n      jump\t// out\n        /* \"#utility.yul\":14868:15411   */\n    tag_164:\n        /* \"#utility.yul\":14969:14971   */\n      0x1f\n        /* \"#utility.yul\":14964:14967   */\n      dup3\n        /* \"#utility.yul\":14961:14972   */\n      gt\n        /* \"#utility.yul\":14958:15404   */\n      iszero\n      tag_333\n      jumpi\n        /* \"#utility.yul\":15003:15041   */\n      tag_334\n        /* \"#utility.yul\":15035:15040   */\n      dup2\n        /* \"#utility.yul\":15003:15041   */\n      tag_153\n      jump\t// in\n    tag_334:\n        /* \"#utility.yul\":15087:15116   */\n      tag_335\n        /* \"#utility.yul\":15105:15115   */\n      dup5\n        /* \"#utility.yul\":15087:15116   */\n      tag_154\n      jump\t// in\n    tag_335:\n        /* \"#utility.yul\":15077:15085   */\n      dup2\n        /* \"#utility.yul\":15073:15117   */\n      add\n        /* \"#utility.yul\":15270:15272   */\n      0x20\n        /* \"#utility.yul\":15258:15268   */\n      dup6\n        /* \"#utility.yul\":15255:15273   */\n      lt\n        /* \"#utility.yul\":15252:15301   */\n      iszero\n      tag_336\n      jumpi\n        /* \"#utility.yul\":15291:15299   */\n      dup2\n        /* \"#utility.yul\":15276:15299   */\n      swap1\n      pop\n        /* \"#utility.yul\":15252:15301   */\n    tag_336:\n        /* \"#utility.yul\":15314:15394   */\n      tag_337\n        /* \"#utility.yul\":15370:15392   */\n      tag_338\n        /* \"#utility.yul\":15388:15391   */\n      dup6\n        /* \"#utility.yul\":15370:15392   */\n      tag_154\n      jump\t// in\n    tag_338:\n        /* \"#utility.yul\":15360:15368   */\n      dup4\n        /* \"#utility.yul\":15356:15393   */\n      add\n        /* \"#utility.yul\":15343:15354   */\n      dup3\n        /* \"#utility.yul\":15314:15394   */\n      tag_163\n      jump\t// in\n    tag_337:\n        /* \"#utility.yul\":14973:15404   */\n      pop\n      pop\n        /* \"#utility.yul\":14958:15404   */\n    tag_333:\n        /* \"#utility.yul\":14868:15411   */\n      pop\n      pop\n      pop\n      jump\t// out\n        /* \"#utility.yul\":15417:15534   */\n    tag_165:\n        /* \"#utility.yul\":15471:15479   */\n      0x00\n        /* \"#utility.yul\":15521:15526   */\n      dup3\n        /* \"#utility.yul\":15515:15519   */\n      dup3\n        /* \"#utility.yul\":15511:15527   */\n      shr\n        /* \"#utility.yul\":15490:15527   */\n      swap1\n      pop\n        /* \"#utility.yul\":15417:15534   */\n      swap3\n      swap2\n      pop\n      pop\n      jump\t// out\n        /* \"#utility.yul\":15540:15709   */\n    tag_166:\n        /* \"#utility.yul\":15584:15590   */\n      0x00\n        /* \"#utility.yul\":15617:15668   */\n      tag_341\n        /* \"#utility.yul\":15665:15666   */\n      0x00\n        /* \"#utility.yul\":15661:15667   */\n      not\n        /* \"#utility.yul\":15653:15658   */\n      dup5\n        /* \"#utility.yul\":15650:15651   */\n      0x08\n        /* \"#utility.yul\":15646:15659   */\n      mul\n        /* \"#utility.yul\":15617:15668   */\n      tag_165\n      jump\t// in\n    tag_341:\n        /* \"#utility.yul\":15613:15669   */\n      not\n        /* \"#utility.yul\":15698:15702   */\n      dup1\n        /* \"#utility.yul\":15692:15696   */\n      dup4\n        /* \"#utility.yul\":15688:15703   */\n      and\n        /* \"#utility.yul\":15678:15703   */\n      swap2\n      pop\n        /* \"#utility.yul\":15591:15709   */\n      pop\n        /* \"#utility.yul\":15540:15709   */\n      swap3\n      swap2\n      pop\n      pop\n      jump\t// out\n        /* \"#utility.yul\":15714:16009   */\n    tag_167:\n        /* \"#utility.yul\":15790:15794   */\n      0x00\n        /* \"#utility.yul\":15936:15965   */\n      tag_343\n        /* \"#utility.yul\":15961:15964   */\n      dup4\n        /* \"#utility.yul\":15955:15959   */\n      dup4\n        /* \"#utility.yul\":15936:15965   */\n      tag_166\n      jump\t// in\n    tag_343:\n        /* \"#utility.yul\":15928:15965   */\n      swap2\n      pop\n        /* \"#utility.yul\":15998:16001   */\n      dup3\n        /* \"#utility.yul\":15995:15996   */\n      0x02\n        /* \"#utility.yul\":15991:16002   */\n      mul\n        /* \"#utility.yul\":15985:15989   */\n      dup3\n        /* \"#utility.yul\":15982:16003   */\n      or\n        /* \"#utility.yul\":15974:16003   */\n      swap1\n      pop\n        /* \"#utility.yul\":15714:16009   */\n      swap3\n      swap2\n      pop\n      pop\n      jump\t// out\n        /* \"#utility.yul\":16014:17409   */\n    tag_70:\n        /* \"#utility.yul\":16131:16168   */\n      tag_345\n        /* \"#utility.yul\":16164:16167   */\n      dup3\n        /* \"#utility.yul\":16131:16168   */\n      tag_125\n      jump\t// in\n    tag_345:\n        /* \"#utility.yul\":16233:16251   */\n      0xffffffffffffffff\n        /* \"#utility.yul\":16225:16231   */\n      dup2\n        /* \"#utility.yul\":16222:16252   */\n      gt\n        /* \"#utility.yul\":16219:16275   */\n      iszero\n      tag_346\n      jumpi\n        /* \"#utility.yul\":16255:16273   */\n      tag_347\n      tag_91\n      jump\t// in\n    tag_347:\n        /* \"#utility.yul\":16219:16275   */\n    tag_346:\n        /* \"#utility.yul\":16299:16337   */\n      tag_348\n        /* \"#utility.yul\":16331:16335   */\n      dup3\n        /* \"#utility.yul\":16325:16336   */\n      sload\n        /* \"#utility.yul\":16299:16337   */\n      tag_62\n      jump\t// in\n    tag_348:\n        /* \"#utility.yul\":16384:16451   */\n      tag_349\n        /* \"#utility.yul\":16444:16450   */\n      dup3\n        /* \"#utility.yul\":16436:16442   */\n      dup3\n        /* \"#utility.yul\":16430:16434   */\n      dup6\n        /* \"#utility.yul\":16384:16451   */\n      tag_164\n      jump\t// in\n    tag_349:\n        /* \"#utility.yul\":16478:16479   */\n      0x00\n        /* \"#utility.yul\":16502:16506   */\n      0x20\n        /* \"#utility.yul\":16489:16506   */\n      swap1\n      pop\n        /* \"#utility.yul\":16534:16536   */\n      0x1f\n        /* \"#utility.yul\":16526:16532   */\n      dup4\n        /* \"#utility.yul\":16523:16537   */\n      gt\n        /* \"#utility.yul\":16551:16552   */\n      0x01\n        /* \"#utility.yul\":16546:17164   */\n      dup2\n      eq\n      tag_351\n      jumpi\n        /* \"#utility.yul\":17208:17209   */\n      0x00\n        /* \"#utility.yul\":17225:17231   */\n      dup5\n        /* \"#utility.yul\":17222:17299   */\n      iszero\n      tag_352\n      jumpi\n        /* \"#utility.yul\":17274:17283   */\n      dup3\n        /* \"#utility.yul\":17269:17272   */\n      dup8\n        /* \"#utility.yul\":17265:17284   */\n      add\n        /* \"#utility.yul\":17259:17285   */\n      mload\n        /* \"#utility.yul\":17250:17285   */\n      swap1\n      pop\n        /* \"#utility.yul\":17222:17299   */\n    tag_352:\n        /* \"#utility.yul\":17325:17392   */\n      tag_353\n        /* \"#utility.yul\":17385:17391   */\n      dup6\n        /* \"#utility.yul\":17378:17383   */\n      dup3\n        /* \"#utility.yul\":17325:17392   */\n      tag_167\n      jump\t// in\n    tag_353:\n        /* \"#utility.yul\":17319:17323   */\n      dup7\n        /* \"#utility.yul\":17312:17393   */\n      sstore\n        /* \"#utility.yul\":17181:17403   */\n      pop\n        /* \"#utility.yul\":16516:17403   */\n      jump(tag_350)\n        /* \"#utility.yul\":16546:17164   */\n    tag_351:\n        /* \"#utility.yul\":16598:16602   */\n      0x1f\n        /* \"#utility.yul\":16594:16603   */\n      not\n        /* \"#utility.yul\":16586:16592   */\n      dup5\n        /* \"#utility.yul\":16582:16604   */\n      and\n        /* \"#utility.yul\":16632:16669   */\n      tag_354\n        /* \"#utility.yul\":16664:16668   */\n      dup7\n        /* \"#utility.yul\":16632:16669   */\n      tag_153\n      jump\t// in\n    tag_354:\n        /* \"#utility.yul\":16691:16692   */\n      0x00\n        /* \"#utility.yul\":16705:16913   */\n    tag_355:\n        /* \"#utility.yul\":16719:16726   */\n      dup3\n        /* \"#utility.yul\":16716:16717   */\n      dup2\n        /* \"#utility.yul\":16713:16727   */\n      lt\n        /* \"#utility.yul\":16705:16913   */\n      iszero\n      tag_357\n      jumpi\n        /* \"#utility.yul\":16798:16807   */\n      dup5\n        /* \"#utility.yul\":16793:16796   */\n      dup10\n        /* \"#utility.yul\":16789:16808   */\n      add\n        /* \"#utility.yul\":16783:16809   */\n      mload\n        /* \"#utility.yul\":16775:16781   */\n      dup3\n        /* \"#utility.yul\":16768:16810   */\n      sstore\n        /* \"#utility.yul\":16849:16850   */\n      0x01\n        /* \"#utility.yul\":16841:16847   */\n      dup3\n        /* \"#utility.yul\":16837:16851   */\n      add\n        /* \"#utility.yul\":16827:16851   */\n      swap2\n      pop\n        /* \"#utility.yul\":16896:16898   */\n      0x20\n        /* \"#utility.yul\":16885:16894   */\n      dup6\n        /* \"#utility.yul\":16881:16899   */\n      add\n        /* \"#utility.yul\":16868:16899   */\n      swap5\n      pop\n        /* \"#utility.yul\":16742:16746   */\n      0x20\n        /* \"#utility.yul\":16739:16740   */\n      dup2\n        /* \"#utility.yul\":16735:16747   */\n      add\n        /* \"#utility.yul\":16730:16747   */\n      swap1\n      pop\n        /* \"#utility.yul\":16705:16913   */\n      jump(tag_355)\n    tag_357:\n        /* \"#utility.yul\":16941:16947   */\n      dup7\n        /* \"#utility.yul\":16932:16939   */\n      dup4\n        /* \"#utility.yul\":16929:16948   */\n      lt\n        /* \"#utility.yul\":16926:17105   */\n      iszero\n      tag_358\n      jumpi\n        /* \"#utility.yul\":16999:17008   */\n      dup5\n        /* \"#utility.yul\":16994:16997   */\n      dup10\n        /* \"#utility.yul\":16990:17009   */\n      add\n        /* \"#utility.yul\":16984:17010   */\n      mload\n        /* \"#utility.yul\":17042:17090   */\n      tag_359\n        /* \"#utility.yul\":17084:17088   */\n      0x1f\n        /* \"#utility.yul\":17076:17082   */\n      dup10\n        /* \"#utility.yul\":17072:17089   */\n      and\n        /* \"#utility.yul\":17061:17070   */\n      dup3\n        /* \"#utility.yul\":17042:17090   */\n      tag_166\n      jump\t// in\n    tag_359:\n        /* \"#utility.yul\":17034:17040   */\n      dup4\n        /* \"#utility.yul\":17027:17091   */\n      sstore\n        /* \"#utility.yul\":16949:17105   */\n      pop\n        /* \"#utility.yul\":16926:17105   */\n    tag_358:\n        /* \"#utility.yul\":17151:17152   */\n      0x01\n        /* \"#utility.yul\":17147:17148   */\n      0x02\n        /* \"#utility.yul\":17139:17145   */\n      dup9\n        /* \"#utility.yul\":17135:17149   */\n      mul\n        /* \"#utility.yul\":17131:17153   */\n      add\n        /* \"#utility.yul\":17125:17129   */\n      dup9\n        /* \"#utility.yul\":17118:17154   */\n      sstore\n        /* \"#utility.yul\":16553:17164   */\n      pop\n      pop\n      pop\n        /* \"#utility.yul\":16516:17403   */\n    tag_350:\n      pop\n        /* \"#utility.yul\":16106:17409   */\n      pop\n      pop\n      pop\n        /* \"#utility.yul\":16014:17409   */\n      pop\n      pop\n      jump\t// out\n        /* \"#utility.yul\":17415:17597   */\n    tag_168:\n        /* \"#utility.yul\":17555:17589   */\n      0x4e6f7420617574686f72697a656420746f20706f7374206f6e20626568616c66\n        /* \"#utility.yul\":17551:17552   */\n      0x00\n        /* \"#utility.yul\":17543:17549   */\n      dup3\n        /* \"#utility.yul\":17539:17553   */\n      add\n        /* \"#utility.yul\":17532:17590   */\n      mstore\n        /* \"#utility.yul\":17415:17597   */\n      pop\n      jump\t// out\n        /* \"#utility.yul\":17603:17969   */\n    tag_169:\n        /* \"#utility.yul\":17745:17748   */\n      0x00\n        /* \"#utility.yul\":17766:17833   */\n      tag_362\n        /* \"#utility.yul\":17830:17832   */\n      0x20\n        /* \"#utility.yul\":17825:17828   */\n      dup4\n        /* \"#utility.yul\":17766:17833   */\n      tag_126\n      jump\t// in\n    tag_362:\n        /* \"#utility.yul\":17759:17833   */\n      swap2\n      pop\n        /* \"#utility.yul\":17842:17935   */\n      tag_363\n        /* \"#utility.yul\":17931:17934   */\n      dup3\n        /* \"#utility.yul\":17842:17935   */\n      tag_168\n      jump\t// in\n    tag_363:\n        /* \"#utility.yul\":17960:17962   */\n      0x20\n        /* \"#utility.yul\":17955:17958   */\n      dup3\n        /* \"#utility.yul\":17951:17963   */\n      add\n        /* \"#utility.yul\":17944:17963   */\n      swap1\n      pop\n        /* \"#utility.yul\":17603:17969   */\n      swap2\n      swap1\n      pop\n      jump\t// out\n        /* \"#utility.yul\":17975:18394   */\n    tag_76:\n        /* \"#utility.yul\":18141:18145   */\n      0x00\n        /* \"#utility.yul\":18179:18181   */\n      0x20\n        /* \"#utility.yul\":18168:18177   */\n      dup3\n        /* \"#utility.yul\":18164:18182   */\n      add\n        /* \"#utility.yul\":18156:18182   */\n      swap1\n      pop\n        /* \"#utility.yul\":18228:18237   */\n      dup2\n        /* \"#utility.yul\":18222:18226   */\n      dup2\n        /* \"#utility.yul\":18218:18238   */\n      sub\n        /* \"#utility.yul\":18214:18215   */\n      0x00\n        /* \"#utility.yul\":18203:18212   */\n      dup4\n        /* \"#utility.yul\":18199:18216   */\n      add\n        /* \"#utility.yul\":18192:18239   */\n      mstore\n        /* \"#utility.yul\":18256:18387   */\n      tag_365\n        /* \"#utility.yul\":18382:18386   */\n      dup2\n        /* \"#utility.yul\":18256:18387   */\n      tag_169\n      jump\t// in\n    tag_365:\n        /* \"#utility.yul\":18248:18387   */\n      swap1\n      pop\n        /* \"#utility.yul\":17975:18394   */\n      swap2\n      swap1\n      pop\n      jump\t// out\n        /* \"#utility.yul\":18400:18582   */\n    tag_170:\n        /* \"#utility.yul\":18540:18574   */\n      0x436f756e7420697320626969676572207468617420746f74616c547765657473\n        /* \"#utility.yul\":18536:18537   */\n      0x00\n        /* \"#utility.yul\":18528:18534   */\n      dup3\n        /* \"#utility.yul\":18524:18538   */\n      add\n        /* \"#utility.yul\":18517:18575   */\n      mstore\n        /* \"#utility.yul\":18400:18582   */\n      pop\n      jump\t// out\n        /* \"#utility.yul\":18588:18954   */\n    tag_171:\n        /* \"#utility.yul\":18730:18733   */\n      0x00\n        /* \"#utility.yul\":18751:18818   */\n      tag_368\n        /* \"#utility.yul\":18815:18817   */\n      0x20\n        /* \"#utility.yul\":18810:18813   */\n      dup4\n        /* \"#utility.yul\":18751:18818   */\n      tag_126\n      jump\t// in\n    tag_368:\n        /* \"#utility.yul\":18744:18818   */\n      swap2\n      pop\n        /* \"#utility.yul\":18827:18920   */\n      tag_369\n        /* \"#utility.yul\":18916:18919   */\n      dup3\n        /* \"#utility.yul\":18827:18920   */\n      tag_170\n      jump\t// in\n    tag_369:\n        /* \"#utility.yul\":18945:18947   */\n      0x20\n        /* \"#utility.yul\":18940:18943   */\n      dup3\n        /* \"#utility.yul\":18936:18948   */\n      add\n        /* \"#utility.yul\":18929:18948   */\n      swap1\n      pop\n        /* \"#utility.yul\":18588:18954   */\n      swap2\n      swap1\n      pop\n      jump\t// out\n        /* \"#utility.yul\":18960:19379   */\n    tag_88:\n        /* \"#utility.yul\":19126:19130   */\n      0x00\n        /* \"#utility.yul\":19164:19166   */\n      0x20\n        /* \"#utility.yul\":19153:19162   */\n      dup3\n        /* \"#utility.yul\":19149:19167   */\n      add\n        /* \"#utility.yul\":19141:19167   */\n      swap1\n      pop\n        /* \"#utility.yul\":19213:19222   */\n      dup2\n        /* \"#utility.yul\":19207:19211   */\n      dup2\n        /* \"#utility.yul\":19203:19223   */\n      sub\n        /* \"#utility.yul\":19199:19200   */\n      0x00\n        /* \"#utility.yul\":19188:19197   */\n      dup4\n        /* \"#utility.yul\":19184:19201   */\n      add\n        /* \"#utility.yul\":19177:19224   */\n      mstore\n        /* \"#utility.yul\":19241:19372   */\n      tag_371\n        /* \"#utility.yul\":19367:19371   */\n      dup2\n        /* \"#utility.yul\":19241:19372   */\n      tag_171\n      jump\t// in\n    tag_371:\n        /* \"#utility.yul\":19233:19372   */\n      swap1\n      pop\n        /* \"#utility.yul\":18960:19379   */\n      swap2\n      swap1\n      pop\n      jump\t// out\n        /* \"#utility.yul\":19385:19565   */\n    tag_172:\n        /* \"#utility.yul\":19433:19510   */\n      0x4e487b7100000000000000000000000000000000000000000000000000000000\n        /* \"#utility.yul\":19430:19431   */\n      0x00\n        /* \"#utility.yul\":19423:19511   */\n      mstore\n        /* \"#utility.yul\":19530:19534   */\n      0x11\n        /* \"#utility.yul\":19527:19528   */\n      0x04\n        /* \"#utility.yul\":19520:19535   */\n      mstore\n        /* \"#utility.yul\":19554:19558   */\n      0x24\n        /* \"#utility.yul\":19551:19552   */\n      0x00\n        /* \"#utility.yul\":19544:19559   */\n      revert\n        /* \"#utility.yul\":19571:19765   */\n    tag_100:\n        /* \"#utility.yul\":19611:19615   */\n      0x00\n        /* \"#utility.yul\":19631:19651   */\n      tag_374\n        /* \"#utility.yul\":19649:19650   */\n      dup3\n        /* \"#utility.yul\":19631:19651   */\n      tag_121\n      jump\t// in\n    tag_374:\n        /* \"#utility.yul\":19626:19651   */\n      swap2\n      pop\n        /* \"#utility.yul\":19665:19685   */\n      tag_375\n        /* \"#utility.yul\":19683:19684   */\n      dup4\n        /* \"#utility.yul\":19665:19685   */\n      tag_121\n      jump\t// in\n    tag_375:\n        /* \"#utility.yul\":19660:19685   */\n      swap3\n      pop\n        /* \"#utility.yul\":19709:19710   */\n      dup3\n        /* \"#utility.yul\":19706:19707   */\n      dup3\n        /* \"#utility.yul\":19702:19711   */\n      sub\n        /* \"#utility.yul\":19694:19711   */\n      swap1\n      pop\n        /* \"#utility.yul\":19733:19734   */\n      dup2\n        /* \"#utility.yul\":19727:19731   */\n      dup2\n        /* \"#utility.yul\":19724:19735   */\n      gt\n        /* \"#utility.yul\":19721:19758   */\n      iszero\n      tag_376\n      jumpi\n        /* \"#utility.yul\":19738:19756   */\n      tag_377\n      tag_172\n      jump\t// in\n    tag_377:\n        /* \"#utility.yul\":19721:19758   */\n    tag_376:\n        /* \"#utility.yul\":19571:19765   */\n      swap3\n      swap2\n      pop\n      pop\n      jump\t// out\n        /* \"#utility.yul\":19771:19962   */\n    tag_102:\n        /* \"#utility.yul\":19811:19814   */\n      0x00\n        /* \"#utility.yul\":19830:19850   */\n      tag_379\n        /* \"#utility.yul\":19848:19849   */\n      dup3\n        /* \"#utility.yul\":19830:19850   */\n      tag_121\n      jump\t// in\n    tag_379:\n        /* \"#utility.yul\":19825:19850   */\n      swap2\n      pop\n        /* \"#utility.yul\":19864:19884   */\n      tag_380\n        /* \"#utility.yul\":19882:19883   */\n      dup4\n        /* \"#utility.yul\":19864:19884   */\n      tag_121\n      jump\t// in\n    tag_380:\n        /* \"#utility.yul\":19859:19884   */\n      swap3\n      pop\n        /* \"#utility.yul\":19907:19908   */\n      dup3\n        /* \"#utility.yul\":19904:19905   */\n      dup3\n        /* \"#utility.yul\":19900:19909   */\n      add\n        /* \"#utility.yul\":19893:19909   */\n      swap1\n      pop\n        /* \"#utility.yul\":19928:19931   */\n      dup1\n        /* \"#utility.yul\":19925:19926   */\n      dup3\n        /* \"#utility.yul\":19922:19932   */\n      gt\n        /* \"#utility.yul\":19919:19955   */\n      iszero\n      tag_381\n      jumpi\n        /* \"#utility.yul\":19935:19953   */\n      tag_382\n      tag_172\n      jump\t// in\n    tag_382:\n        /* \"#utility.yul\":19919:19955   */\n    tag_381:\n        /* \"#utility.yul\":19771:19962   */\n      swap3\n      swap2\n      pop\n      pop\n      jump\t// out\n        /* \"#utility.yul\":19968:20148   */\n    tag_105:\n        /* \"#utility.yul\":20016:20093   */\n      0x4e487b7100000000000000000000000000000000000000000000000000000000\n        /* \"#utility.yul\":20013:20014   */\n      0x00\n        /* \"#utility.yul\":20006:20094   */\n      mstore\n        /* \"#utility.yul\":20113:20117   */\n      0x32\n        /* \"#utility.yul\":20110:20111   */\n      0x04\n        /* \"#utility.yul\":20103:20118   */\n      mstore\n        /* \"#utility.yul\":20137:20141   */\n      0x24\n        /* \"#utility.yul\":20134:20135   */\n      0x00\n        /* \"#utility.yul\":20127:20142   */\n      revert\n\n    auxdata: 0xa2646970667358221220d70a7db4145320c118b523d7273e5b36e969ca0ec7da8a11d052d42122bdec7664736f6c634300081a0033\n}\n",
				"bytecode": {
					"linkReferences": {},
					"object": "6080604052348015600e575f80fd5b506115358061001c5f395ff3fe608060405234801561000f575f80fd5b506004361061009c575f3560e01c806365e4ad9e1161006457806365e4ad9e146101565780639139cda514610186578063b48028e3146101b6578063ba0d3588146101d2578063bc286b00146101ee5761009c565b806305a1b4a9146100a05780630cbc3dc4146100d2578063173b0924146100ee5780633d48d9fb1461011e5780634dbf27cc1461013a575b5f80fd5b6100ba60048036038101906100b59190610b63565b61021e565b6040516100c993929190610c2f565b60405180910390f35b6100ec60048036038101906100e79190610d97565b610302565b005b61010860048036038101906101039190610dde565b6103fe565b6040516101159190610f77565b60405180910390f35b61013860048036038101906101339190610f97565b610411565b005b610154600480360381019061014f9190610ff1565b6105d2565b005b610170600480360381019061016b919061101c565b610670565b60405161017d9190611074565b60405180910390f35b6101a0600480360381019061019b9190610b63565b61069a565b6040516101ad919061108d565b60405180910390f35b6101d060048036038101906101cb9190610ff1565b6106e2565b005b6101ec60048036038101906101e79190610ff1565b610774565b005b61020860048036038101906102039190610b63565b610807565b6040516102159190610f77565b60405180910390f35b5f602052815f5260405f208181548110610236575f80fd5b905f5260205f2090600302015f9150915050805f015f9054906101000a900473ffffffffffffffffffffffffffffffffffffffff169080600101805461027b906110d3565b80601f01602080910402602001604051908101604052809291908181526020018280546102a7906110d3565b80156102f25780601f106102c9576101008083540402835291602001916102f2565b820191905f5260205f20905b8154815290600101906020018083116102d557829003601f168201915b5050505050908060020154905083565b5f803373ffffffffffffffffffffffffffffffffffffffff1673ffffffffffffffffffffffffffffffffffffffff1681526020019081526020015f2060405180606001604052803373ffffffffffffffffffffffffffffffffffffffff16815260200183815260200142815250908060018154018082558091505060019003905f5260205f2090600302015f909190919091505f820151815f015f6101000a81548173ffffffffffffffffffffffffffffffffffffffff021916908373ffffffffffffffffffffffffffffffffffffffff16021790555060208201518160010190816103ee91906112a0565b5060408201518160020155505050565b606061040a3383610807565b9050919050565b60025f8273ffffffffffffffffffffffffffffffffffffffff1673ffffffffffffffffffffffffffffffffffffffff1681526020019081526020015f205f3373ffffffffffffffffffffffffffffffffffffffff1673ffffffffffffffffffffffffffffffffffffffff1681526020019081526020015f205f9054906101000a900460ff166104d5576040517f08c379a00000000000000000000000000000000000000000000000000000000081526004016104cc906113b9565b60405180910390fd5b5f808273ffffffffffffffffffffffffffffffffffffffff1673ffffffffffffffffffffffffffffffffffffffff1681526020019081526020015f2060405180606001604052808373ffffffffffffffffffffffffffffffffffffffff16815260200184815260200142815250908060018154018082558091505060019003905f5260205f2090600302015f909190919091505f820151815f015f6101000a81548173ffffffffffffffffffffffffffffffffffffffff021916908373ffffffffffffffffffffffffffffffffffffffff16021790555060208201518160010190816105c191906112a0565b506040820151816002015550505050565b60015f3373ffffffffffffffffffffffffffffffffffffffff1673ffffffffffffffffffffffffffffffffffffffff1681526020019081526020015f2081908060018154018082558091505060019003905f5260205f20015f9091909190916101000a81548173ffffffffffffffffffffffffffffffffffffffff021916908373ffffffffffffffffffffffffffffffffffffffff16021790555050565b6002602052815f5260405f20602052805f5260405f205f915091509054906101000a900460ff1681565b6001602052815f5260405f2081815481106106b3575f80fd5b905f5260205f20015f915091509054906101000a900473ffffffffffffffffffffffffffffffffffffffff1681565b5f60025f3373ffffffffffffffffffffffffffffffffffffffff1673ffffffffffffffffffffffffffffffffffffffff1681526020019081526020015f205f8373ffffffffffffffffffffffffffffffffffffffff1673ffffffffffffffffffffffffffffffffffffffff1681526020019081526020015f205f6101000a81548160ff02191690831515021790555050565b600160025f3373ffffffffffffffffffffffffffffffffffffffff1673ffffffffffffffffffffffffffffffffffffffff1681526020019081526020015f205f8373ffffffffffffffffffffffffffffffffffffffff1673ffffffffffffffffffffffffffffffffffffffff1681526020019081526020015f205f6101000a81548160ff02191690831515021790555050565b60605f805f8573ffffffffffffffffffffffffffffffffffffffff1673ffffffffffffffffffffffffffffffffffffffff1681526020019081526020015f208054905090508083111561088f576040517f08c379a000000000000000000000000000000000000000000000000000000000815260040161088690611421565b60405180910390fd5b5f8367ffffffffffffffff8111156108aa576108a9610c73565b5b6040519080825280602002602001820160405280156108e357816020015b6108d0610a90565b8152602001906001900390816108c85790505b5090505f5b84811015610a84575f808773ffffffffffffffffffffffffffffffffffffffff1673ffffffffffffffffffffffffffffffffffffffff1681526020019081526020015f20818685610939919061146c565b610943919061149f565b81548110610954576109536114d2565b5b905f5260205f2090600302016040518060600160405290815f82015f9054906101000a900473ffffffffffffffffffffffffffffffffffffffff1673ffffffffffffffffffffffffffffffffffffffff1673ffffffffffffffffffffffffffffffffffffffff1681526020016001820180546109cf906110d3565b80601f01602080910402602001604051908101604052809291908181526020018280546109fb906110d3565b8015610a465780601f10610a1d57610100808354040283529160200191610a46565b820191905f5260205f20905b815481529060010190602001808311610a2957829003601f168201915b50505050508152602001600282015481525050828281518110610a6c57610a6b6114d2565b5b602002602001018190525080806001019150506108e8565b50809250505092915050565b60405180606001604052805f73ffffffffffffffffffffffffffffffffffffffff168152602001606081526020015f81525090565b5f604051905090565b5f80fd5b5f80fd5b5f73ffffffffffffffffffffffffffffffffffffffff82169050919050565b5f610aff82610ad6565b9050919050565b610b0f81610af5565b8114610b19575f80fd5b50565b5f81359050610b2a81610b06565b92915050565b5f819050919050565b610b4281610b30565b8114610b4c575f80fd5b50565b5f81359050610b5d81610b39565b92915050565b5f8060408385031215610b7957610b78610ace565b5b5f610b8685828601610b1c565b9250506020610b9785828601610b4f565b9150509250929050565b610baa81610af5565b82525050565b5f81519050919050565b5f82825260208201905092915050565b8281835e5f83830152505050565b5f601f19601f8301169050919050565b5f610bf282610bb0565b610bfc8185610bba565b9350610c0c818560208601610bca565b610c1581610bd8565b840191505092915050565b610c2981610b30565b82525050565b5f606082019050610c425f830186610ba1565b8181036020830152610c548185610be8565b9050610c636040830184610c20565b949350505050565b5f80fd5b5f80fd5b7f4e487b71000000000000000000000000000000000000000000000000000000005f52604160045260245ffd5b610ca982610bd8565b810181811067ffffffffffffffff82111715610cc857610cc7610c73565b5b80604052505050565b5f610cda610ac5565b9050610ce68282610ca0565b919050565b5f67ffffffffffffffff821115610d0557610d04610c73565b5b610d0e82610bd8565b9050602081019050919050565b828183375f83830152505050565b5f610d3b610d3684610ceb565b610cd1565b905082815260208101848484011115610d5757610d56610c6f565b5b610d62848285610d1b565b509392505050565b5f82601f830112610d7e57610d7d610c6b565b5b8135610d8e848260208601610d29565b91505092915050565b5f60208284031215610dac57610dab610ace565b5b5f82013567ffffffffffffffff811115610dc957610dc8610ad2565b5b610dd584828501610d6a565b91505092915050565b5f60208284031215610df357610df2610ace565b5b5f610e0084828501610b4f565b91505092915050565b5f81519050919050565b5f82825260208201905092915050565b5f819050602082019050919050565b610e3b81610af5565b82525050565b5f82825260208201905092915050565b5f610e5b82610bb0565b610e658185610e41565b9350610e75818560208601610bca565b610e7e81610bd8565b840191505092915050565b610e9281610b30565b82525050565b5f606083015f830151610ead5f860182610e32565b5060208301518482036020860152610ec58282610e51565b9150506040830151610eda6040860182610e89565b508091505092915050565b5f610ef08383610e98565b905092915050565b5f602082019050919050565b5f610f0e82610e09565b610f188185610e13565b935083602082028501610f2a85610e23565b805f5b85811015610f655784840389528151610f468582610ee5565b9450610f5183610ef8565b925060208a01995050600181019050610f2d565b50829750879550505050505092915050565b5f6020820190508181035f830152610f8f8184610f04565b905092915050565b5f8060408385031215610fad57610fac610ace565b5b5f83013567ffffffffffffffff811115610fca57610fc9610ad2565b5b610fd685828601610d6a565b9250506020610fe785828601610b1c565b9150509250929050565b5f6020828403121561100657611005610ace565b5b5f61101384828501610b1c565b91505092915050565b5f806040838503121561103257611031610ace565b5b5f61103f85828601610b1c565b925050602061105085828601610b1c565b9150509250929050565b5f8115159050919050565b61106e8161105a565b82525050565b5f6020820190506110875f830184611065565b92915050565b5f6020820190506110a05f830184610ba1565b92915050565b7f4e487b71000000000000000000000000000000000000000000000000000000005f52602260045260245ffd5b5f60028204905060018216806110ea57607f821691505b6020821081036110fd576110fc6110a6565b5b50919050565b5f819050815f5260205f209050919050565b5f6020601f8301049050919050565b5f82821b905092915050565b5f6008830261115f7fffffffffffffffffffffffffffffffffffffffffffffffffffffffffffffffff82611124565b6111698683611124565b95508019841693508086168417925050509392505050565b5f819050919050565b5f6111a461119f61119a84610b30565b611181565b610b30565b9050919050565b5f819050919050565b6111bd8361118a565b6111d16111c9826111ab565b848454611130565b825550505050565b5f90565b6111e56111d9565b6111f08184846111b4565b505050565b5b81811015611213576112085f826111dd565b6001810190506111f6565b5050565b601f8211156112585761122981611103565b61123284611115565b81016020851015611241578190505b61125561124d85611115565b8301826111f5565b50505b505050565b5f82821c905092915050565b5f6112785f198460080261125d565b1980831691505092915050565b5f6112908383611269565b9150826002028217905092915050565b6112a982610bb0565b67ffffffffffffffff8111156112c2576112c1610c73565b5b6112cc82546110d3565b6112d7828285611217565b5f60209050601f831160018114611308575f84156112f6578287015190505b6113008582611285565b865550611367565b601f19841661131686611103565b5f5b8281101561133d57848901518255600182019150602085019450602081019050611318565b8683101561135a5784890151611356601f891682611269565b8355505b6001600288020188555050505b505050505050565b7f4e6f7420617574686f72697a656420746f20706f7374206f6e20626568616c665f82015250565b5f6113a3602083610bba565b91506113ae8261136f565b602082019050919050565b5f6020820190508181035f8301526113d081611397565b9050919050565b7f436f756e7420697320626969676572207468617420746f74616c5477656574735f82015250565b5f61140b602083610bba565b9150611416826113d7565b602082019050919050565b5f6020820190508181035f830152611438816113ff565b9050919050565b7f4e487b71000000000000000000000000000000000000000000000000000000005f52601160045260245ffd5b5f61147682610b30565b915061148183610b30565b92508282039050818111156114995761149861143f565b5b92915050565b5f6114a982610b30565b91506114b483610b30565b92508282019050808211156114cc576114cb61143f565b5b92915050565b7f4e487b71000000000000000000000000000000000000000000000000000000005f52603260045260245ffdfea2646970667358221220d70a7db4145320c118b523d7273e5b36e969ca0ec7da8a11d052d42122bdec7664736f6c634300081a0033",
					"opcodes": "PUSH1 0x80 PUSH1 0x40 MSTORE CALLVALUE DUP1 ISZERO PUSH1 0xE JUMPI PUSH0 DUP1 REVERT JUMPDEST POP PUSH2 0x1535 DUP1 PUSH2 0x1C PUSH0 CODECOPY PUSH0 RETURN INVALID PUSH1 0x80 PUSH1 0x40 MSTORE CALLVALUE DUP1 ISZERO PUSH2 0xF JUMPI PUSH0 DUP1 REVERT JUMPDEST POP PUSH1 0x4 CALLDATASIZE LT PUSH2 0x9C JUMPI PUSH0 CALLDATALOAD PUSH1 0xE0 SHR DUP1 PUSH4 0x65E4AD9E GT PUSH2 0x64 JUMPI DUP1 PUSH4 0x65E4AD9E EQ PUSH2 0x156 JUMPI DUP1 PUSH4 0x9139CDA5 EQ PUSH2 0x186 JUMPI DUP1 PUSH4 0xB48028E3 EQ PUSH2 0x1B6 JUMPI DUP1 PUSH4 0xBA0D3588 EQ PUSH2 0x1D2 JUMPI DUP1 PUSH4 0xBC286B00 EQ PUSH2 0x1EE JUMPI PUSH2 0x9C JUMP JUMPDEST DUP1 PUSH4 0x5A1B4A9 EQ PUSH2 0xA0 JUMPI DUP1 PUSH4 0xCBC3DC4 EQ PUSH2 0xD2 JUMPI DUP1 PUSH4 0x173B0924 EQ PUSH2 0xEE JUMPI DUP1 PUSH4 0x3D48D9FB EQ PUSH2 0x11E JUMPI DUP1 PUSH4 0x4DBF27CC EQ PUSH2 0x13A JUMPI JUMPDEST PUSH0 DUP1 REVERT JUMPDEST PUSH2 0xBA PUSH1 0x4 DUP1 CALLDATASIZE SUB DUP2 ADD SWAP1 PUSH2 0xB5 SWAP2 SWAP1 PUSH2 0xB63 JUMP JUMPDEST PUSH2 0x21E JUMP JUMPDEST PUSH1 0x40 MLOAD PUSH2 0xC9 SWAP4 SWAP3 SWAP2 SWAP1 PUSH2 0xC2F JUMP JUMPDEST PUSH1 0x40 MLOAD DUP1 SWAP2 SUB SWAP1 RETURN JUMPDEST PUSH2 0xEC PUSH1 0x4 DUP1 CALLDATASIZE SUB DUP2 ADD SWAP1 PUSH2 0xE7 SWAP2 SWAP1 PUSH2 0xD97 JUMP JUMPDEST PUSH2 0x302 JUMP JUMPDEST STOP JUMPDEST PUSH2 0x108 PUSH1 0x4 DUP1 CALLDATASIZE SUB DUP2 ADD SWAP1 PUSH2 0x103 SWAP2 SWAP1 PUSH2 0xDDE JUMP JUMPDEST PUSH2 0x3FE JUMP JUMPDEST PUSH1 0x40 MLOAD PUSH2 0x115 SWAP2 SWAP1 PUSH2 0xF77 JUMP JUMPDEST PUSH1 0x40 MLOAD DUP1 SWAP2 SUB SWAP1 RETURN JUMPDEST PUSH2 0x138 PUSH1 0x4 DUP1 CALLDATASIZE SUB DUP2 ADD SWAP1 PUSH2 0x133 SWAP2 SWAP1 PUSH2 0xF97 JUMP JUMPDEST PUSH2 0x411 JUMP JUMPDEST STOP JUMPDEST PUSH2 0x154 PUSH1 0x4 DUP1 CALLDATASIZE SUB DUP2 ADD SWAP1 PUSH2 0x14F SWAP2 SWAP1 PUSH2 0xFF1 JUMP JUMPDEST PUSH2 0x5D2 JUMP JUMPDEST STOP JUMPDEST PUSH2 0x170 PUSH1 0x4 DUP1 CALLDATASIZE SUB DUP2 ADD SWAP1 PUSH2 0x16B SWAP2 SWAP1 PUSH2 0x101C JUMP JUMPDEST PUSH2 0x670 JUMP JUMPDEST PUSH1 0x40 MLOAD PUSH2 0x17D SWAP2 SWAP1 PUSH2 0x1074 JUMP JUMPDEST PUSH1 0x40 MLOAD DUP1 SWAP2 SUB SWAP1 RETURN JUMPDEST PUSH2 0x1A0 PUSH1 0x4 DUP1 CALLDATASIZE SUB DUP2 ADD SWAP1 PUSH2 0x19B SWAP2 SWAP1 PUSH2 0xB63 JUMP JUMPDEST PUSH2 0x69A JUMP JUMPDEST PUSH1 0x40 MLOAD PUSH2 0x1AD SWAP2 SWAP1 PUSH2 0x108D JUMP JUMPDEST PUSH1 0x40 MLOAD DUP1 SWAP2 SUB SWAP1 RETURN JUMPDEST PUSH2 0x1D0 PUSH1 0x4 DUP1 CALLDATASIZE SUB DUP2 ADD SWAP1 PUSH2 0x1CB SWAP2 SWAP1 PUSH2 0xFF1 JUMP JUMPDEST PUSH2 0x6E2 JUMP JUMPDEST STOP JUMPDEST PUSH2 0x1EC PUSH1 0x4 DUP1 CALLDATASIZE SUB DUP2 ADD SWAP1 PUSH2 0x1E7 SWAP2 SWAP1 PUSH2 0xFF1 JUMP JUMPDEST PUSH2 0x774 JUMP JUMPDEST STOP JUMPDEST PUSH2 0x208 PUSH1 0x4 DUP1 CALLDATASIZE SUB DUP2 ADD SWAP1 PUSH2 0x203 SWAP2 SWAP1 PUSH2 0xB63 JUMP JUMPDEST PUSH2 0x807 JUMP JUMPDEST PUSH1 0x40 MLOAD PUSH2 0x215 SWAP2 SWAP1 PUSH2 0xF77 JUMP JUMPDEST PUSH1 0x40 MLOAD DUP1 SWAP2 SUB SWAP1 RETURN JUMPDEST PUSH0 PUSH1 0x20 MSTORE DUP2 PUSH0 MSTORE PUSH1 0x40 PUSH0 KECCAK256 DUP2 DUP2 SLOAD DUP2 LT PUSH2 0x236 JUMPI PUSH0 DUP1 REVERT JUMPDEST SWAP1 PUSH0 MSTORE PUSH1 0x20 PUSH0 KECCAK256 SWAP1 PUSH1 0x3 MUL ADD PUSH0 SWAP2 POP SWAP2 POP POP DUP1 PUSH0 ADD PUSH0 SWAP1 SLOAD SWAP1 PUSH2 0x100 EXP SWAP1 DIV PUSH20 0xFFFFFFFFFFFFFFFFFFFFFFFFFFFFFFFFFFFFFFFF AND SWAP1 DUP1 PUSH1 0x1 ADD DUP1 SLOAD PUSH2 0x27B SWAP1 PUSH2 0x10D3 JUMP JUMPDEST DUP1 PUSH1 0x1F ADD PUSH1 0x20 DUP1 SWAP2 DIV MUL PUSH1 0x20 ADD PUSH1 0x40 MLOAD SWAP1 DUP2 ADD PUSH1 0x40 MSTORE DUP1 SWAP3 SWAP2 SWAP1 DUP2 DUP2 MSTORE PUSH1 0x20 ADD DUP3 DUP1 SLOAD PUSH2 0x2A7 SWAP1 PUSH2 0x10D3 JUMP JUMPDEST DUP1 ISZERO PUSH2 0x2F2 JUMPI DUP1 PUSH1 0x1F LT PUSH2 0x2C9 JUMPI PUSH2 0x100 DUP1 DUP4 SLOAD DIV MUL DUP4 MSTORE SWAP2 PUSH1 0x20 ADD SWAP2 PUSH2 0x2F2 JUMP JUMPDEST DUP3 ADD SWAP2 SWAP1 PUSH0 MSTORE PUSH1 0x20 PUSH0 KECCAK256 SWAP1 JUMPDEST DUP2 SLOAD DUP2 MSTORE SWAP1 PUSH1 0x1 ADD SWAP1 PUSH1 0x20 ADD DUP1 DUP4 GT PUSH2 0x2D5 JUMPI DUP3 SWAP1 SUB PUSH1 0x1F AND DUP3 ADD SWAP2 JUMPDEST POP POP POP POP POP SWAP1 DUP1 PUSH1 0x2 ADD SLOAD SWAP1 POP DUP4 JUMP JUMPDEST PUSH0 DUP1 CALLER PUSH20 0xFFFFFFFFFFFFFFFFFFFFFFFFFFFFFFFFFFFFFFFF AND PUSH20 0xFFFFFFFFFFFFFFFFFFFFFFFFFFFFFFFFFFFFFFFF AND DUP2 MSTORE PUSH1 0x20 ADD SWAP1 DUP2 MSTORE PUSH1 0x20 ADD PUSH0 KECCAK256 PUSH1 0x40 MLOAD DUP1 PUSH1 0x60 ADD PUSH1 0x40 MSTORE DUP1 CALLER PUSH20 0xFFFFFFFFFFFFFFFFFFFFFFFFFFFFFFFFFFFFFFFF AND DUP2 MSTORE PUSH1 0x20 ADD DUP4 DUP2 MSTORE PUSH1 0x20 ADD TIMESTAMP DUP2 MSTORE POP SWAP1 DUP1 PUSH1 0x1 DUP2 SLOAD ADD DUP1 DUP3 SSTORE DUP1 SWAP2 POP POP PUSH1 0x1 SWAP1 SUB SWAP1 PUSH0 MSTORE PUSH1 0x20 PUSH0 KECCAK256 SWAP1 PUSH1 0x3 MUL ADD PUSH0 SWAP1 SWAP2 SWAP1 SWAP2 SWAP1 SWAP2 POP PUSH0 DUP3 ADD MLOAD DUP2 PUSH0 ADD PUSH0 PUSH2 0x100 EXP DUP2 SLOAD DUP2 PUSH20 0xFFFFFFFFFFFFFFFFFFFFFFFFFFFFFFFFFFFFFFFF MUL NOT AND SWAP1 DUP4 PUSH20 0xFFFFFFFFFFFFFFFFFFFFFFFFFFFFFFFFFFFFFFFF AND MUL OR SWAP1 SSTORE POP PUSH1 0x20 DUP3 ADD MLOAD DUP2 PUSH1 0x1 ADD SWAP1 DUP2 PUSH2 0x3EE SWAP2 SWAP1 PUSH2 0x12A0 JUMP JUMPDEST POP PUSH1 0x40 DUP3 ADD MLOAD DUP2 PUSH1 0x2 ADD SSTORE POP POP POP JUMP JUMPDEST PUSH1 0x60 PUSH2 0x40A CALLER DUP4 PUSH2 0x807 JUMP JUMPDEST SWAP1 POP SWAP2 SWAP1 POP JUMP JUMPDEST PUSH1 0x2 PUSH0 DUP3 PUSH20 0xFFFFFFFFFFFFFFFFFFFFFFFFFFFFFFFFFFFFFFFF AND PUSH20 0xFFFFFFFFFFFFFFFFFFFFFFFFFFFFFFFFFFFFFFFF AND DUP2 MSTORE PUSH1 0x20 ADD SWAP1 DUP2 MSTORE PUSH1 0x20 ADD PUSH0 KECCAK256 PUSH0 CALLER PUSH20 0xFFFFFFFFFFFFFFFFFFFFFFFFFFFFFFFFFFFFFFFF AND PUSH20 0xFFFFFFFFFFFFFFFFFFFFFFFFFFFFFFFFFFFFFFFF AND DUP2 MSTORE PUSH1 0x20 ADD SWAP1 DUP2 MSTORE PUSH1 0x20 ADD PUSH0 KECCAK256 PUSH0 SWAP1 SLOAD SWAP1 PUSH2 0x100 EXP SWAP1 DIV PUSH1 0xFF AND PUSH2 0x4D5 JUMPI PUSH1 0x40 MLOAD PUSH32 0x8C379A000000000000000000000000000000000000000000000000000000000 DUP2 MSTORE PUSH1 0x4 ADD PUSH2 0x4CC SWAP1 PUSH2 0x13B9 JUMP JUMPDEST PUSH1 0x40 MLOAD DUP1 SWAP2 SUB SWAP1 REVERT JUMPDEST PUSH0 DUP1 DUP3 PUSH20 0xFFFFFFFFFFFFFFFFFFFFFFFFFFFFFFFFFFFFFFFF AND PUSH20 0xFFFFFFFFFFFFFFFFFFFFFFFFFFFFFFFFFFFFFFFF AND DUP2 MSTORE PUSH1 0x20 ADD SWAP1 DUP2 MSTORE PUSH1 0x20 ADD PUSH0 KECCAK256 PUSH1 0x40 MLOAD DUP1 PUSH1 0x60 ADD PUSH1 0x40 MSTORE DUP1 DUP4 PUSH20 0xFFFFFFFFFFFFFFFFFFFFFFFFFFFFFFFFFFFFFFFF AND DUP2 MSTORE PUSH1 0x20 ADD DUP5 DUP2 MSTORE PUSH1 0x20 ADD TIMESTAMP DUP2 MSTORE POP SWAP1 DUP1 PUSH1 0x1 DUP2 SLOAD ADD DUP1 DUP3 SSTORE DUP1 SWAP2 POP POP PUSH1 0x1 SWAP1 SUB SWAP1 PUSH0 MSTORE PUSH1 0x20 PUSH0 KECCAK256 SWAP1 PUSH1 0x3 MUL ADD PUSH0 SWAP1 SWAP2 SWAP1 SWAP2 SWAP1 SWAP2 POP PUSH0 DUP3 ADD MLOAD DUP2 PUSH0 ADD PUSH0 PUSH2 0x100 EXP DUP2 SLOAD DUP2 PUSH20 0xFFFFFFFFFFFFFFFFFFFFFFFFFFFFFFFFFFFFFFFF MUL NOT AND SWAP1 DUP4 PUSH20 0xFFFFFFFFFFFFFFFFFFFFFFFFFFFFFFFFFFFFFFFF AND MUL OR SWAP1 SSTORE POP PUSH1 0x20 DUP3 ADD MLOAD DUP2 PUSH1 0x1 ADD SWAP1 DUP2 PUSH2 0x5C1 SWAP2 SWAP1 PUSH2 0x12A0 JUMP JUMPDEST POP PUSH1 0x40 DUP3 ADD MLOAD DUP2 PUSH1 0x2 ADD SSTORE POP POP POP POP JUMP JUMPDEST PUSH1 0x1 PUSH0 CALLER PUSH20 0xFFFFFFFFFFFFFFFFFFFFFFFFFFFFFFFFFFFFFFFF AND PUSH20 0xFFFFFFFFFFFFFFFFFFFFFFFFFFFFFFFFFFFFFFFF AND DUP2 MSTORE PUSH1 0x20 ADD SWAP1 DUP2 MSTORE PUSH1 0x20 ADD PUSH0 KECCAK256 DUP2 SWAP1 DUP1 PUSH1 0x1 DUP2 SLOAD ADD DUP1 DUP3 SSTORE DUP1 SWAP2 POP POP PUSH1 0x1 SWAP1 SUB SWAP1 PUSH0 MSTORE PUSH1 0x20 PUSH0 KECCAK256 ADD PUSH0 SWAP1 SWAP2 SWAP1 SWAP2 SWAP1 SWAP2 PUSH2 0x100 EXP DUP2 SLOAD DUP2 PUSH20 0xFFFFFFFFFFFFFFFFFFFFFFFFFFFFFFFFFFFFFFFF MUL NOT AND SWAP1 DUP4 PUSH20 0xFFFFFFFFFFFFFFFFFFFFFFFFFFFFFFFFFFFFFFFF AND MUL OR SWAP1 SSTORE POP POP JUMP JUMPDEST PUSH1 0x2 PUSH1 0x20 MSTORE DUP2 PUSH0 MSTORE PUSH1 0x40 PUSH0 KECCAK256 PUSH1 0x20 MSTORE DUP1 PUSH0 MSTORE PUSH1 0x40 PUSH0 KECCAK256 PUSH0 SWAP2 POP SWAP2 POP SWAP1 SLOAD SWAP1 PUSH2 0x100 EXP SWAP1 DIV PUSH1 0xFF AND DUP2 JUMP JUMPDEST PUSH1 0x1 PUSH1 0x20 MSTORE DUP2 PUSH0 MSTORE PUSH1 0x40 PUSH0 KECCAK256 DUP2 DUP2 SLOAD DUP2 LT PUSH2 0x6B3 JUMPI PUSH0 DUP1 REVERT JUMPDEST SWAP1 PUSH0 MSTORE PUSH1 0x20 PUSH0 KECCAK256 ADD PUSH0 SWAP2 POP SWAP2 POP SWAP1 SLOAD SWAP1 PUSH2 0x100 EXP SWAP1 DIV PUSH20 0xFFFFFFFFFFFFFFFFFFFFFFFFFFFFFFFFFFFFFFFF AND DUP2 JUMP JUMPDEST PUSH0 PUSH1 0x2 PUSH0 CALLER PUSH20 0xFFFFFFFFFFFFFFFFFFFFFFFFFFFFFFFFFFFFFFFF AND PUSH20 0xFFFFFFFFFFFFFFFFFFFFFFFFFFFFFFFFFFFFFFFF AND DUP2 MSTORE PUSH1 0x20 ADD SWAP1 DUP2 MSTORE PUSH1 0x20 ADD PUSH0 KECCAK256 PUSH0 DUP4 PUSH20 0xFFFFFFFFFFFFFFFFFFFFFFFFFFFFFFFFFFFFFFFF AND PUSH20 0xFFFFFFFFFFFFFFFFFFFFFFFFFFFFFFFFFFFFFFFF AND DUP2 MSTORE PUSH1 0x20 ADD SWAP1 DUP2 MSTORE PUSH1 0x20 ADD PUSH0 KECCAK256 PUSH0 PUSH2 0x100 EXP DUP2 SLOAD DUP2 PUSH1 0xFF MUL NOT AND SWAP1 DUP4 ISZERO ISZERO MUL OR SWAP1 SSTORE POP POP JUMP JUMPDEST PUSH1 0x1 PUSH1 0x2 PUSH0 CALLER PUSH20 0xFFFFFFFFFFFFFFFFFFFFFFFFFFFFFFFFFFFFFFFF AND PUSH20 0xFFFFFFFFFFFFFFFFFFFFFFFFFFFFFFFFFFFFFFFF AND DUP2 MSTORE PUSH1 0x20 ADD SWAP1 DUP2 MSTORE PUSH1 0x20 ADD PUSH0 KECCAK256 PUSH0 DUP4 PUSH20 0xFFFFFFFFFFFFFFFFFFFFFFFFFFFFFFFFFFFFFFFF AND PUSH20 0xFFFFFFFFFFFFFFFFFFFFFFFFFFFFFFFFFFFFFFFF AND DUP2 MSTORE PUSH1 0x20 ADD SWAP1 DUP2 MSTORE PUSH1 0x20 ADD PUSH0 KECCAK256 PUSH0 PUSH2 0x100 EXP DUP2 SLOAD DUP2 PUSH1 0xFF MUL NOT AND SWAP1 DUP4 ISZERO ISZERO MUL OR SWAP1 SSTORE POP POP JUMP JUMPDEST PUSH1 0x60 PUSH0 DUP1 PUSH0 DUP6 PUSH20 0xFFFFFFFFFFFFFFFFFFFFFFFFFFFFFFFFFFFFFFFF AND PUSH20 0xFFFFFFFFFFFFFFFFFFFFFFFFFFFFFFFFFFFFFFFF AND DUP2 MSTORE PUSH1 0x20 ADD SWAP1 DUP2 MSTORE PUSH1 0x20 ADD PUSH0 KECCAK256 DUP1 SLOAD SWAP1 POP SWAP1 POP DUP1 DUP4 GT ISZERO PUSH2 0x88F JUMPI PUSH1 0x40 MLOAD PUSH32 0x8C379A000000000000000000000000000000000000000000000000000000000 DUP2 MSTORE PUSH1 0x4 ADD PUSH2 0x886 SWAP1 PUSH2 0x1421 JUMP JUMPDEST PUSH1 0x40 MLOAD DUP1 SWAP2 SUB SWAP1 REVERT JUMPDEST PUSH0 DUP4 PUSH8 0xFFFFFFFFFFFFFFFF DUP2 GT ISZERO PUSH2 0x8AA JUMPI PUSH2 0x8A9 PUSH2 0xC73 JUMP JUMPDEST JUMPDEST PUSH1 0x40 MLOAD SWAP1 DUP1 DUP3 MSTORE DUP1 PUSH1 0x20 MUL PUSH1 0x20 ADD DUP3 ADD PUSH1 0x40 MSTORE DUP1 ISZERO PUSH2 0x8E3 JUMPI DUP2 PUSH1 0x20 ADD JUMPDEST PUSH2 0x8D0 PUSH2 0xA90 JUMP JUMPDEST DUP2 MSTORE PUSH1 0x20 ADD SWAP1 PUSH1 0x1 SWAP1 SUB SWAP1 DUP2 PUSH2 0x8C8 JUMPI SWAP1 POP JUMPDEST POP SWAP1 POP PUSH0 JUMPDEST DUP5 DUP2 LT ISZERO PUSH2 0xA84 JUMPI PUSH0 DUP1 DUP8 PUSH20 0xFFFFFFFFFFFFFFFFFFFFFFFFFFFFFFFFFFFFFFFF AND PUSH20 0xFFFFFFFFFFFFFFFFFFFFFFFFFFFFFFFFFFFFFFFF AND DUP2 MSTORE PUSH1 0x20 ADD SWAP1 DUP2 MSTORE PUSH1 0x20 ADD PUSH0 KECCAK256 DUP2 DUP7 DUP6 PUSH2 0x939 SWAP2 SWAP1 PUSH2 0x146C JUMP JUMPDEST PUSH2 0x943 SWAP2 SWAP1 PUSH2 0x149F JUMP JUMPDEST DUP2 SLOAD DUP2 LT PUSH2 0x954 JUMPI PUSH2 0x953 PUSH2 0x14D2 JUMP JUMPDEST JUMPDEST SWAP1 PUSH0 MSTORE PUSH1 0x20 PUSH0 KECCAK256 SWAP1 PUSH1 0x3 MUL ADD PUSH1 0x40 MLOAD DUP1 PUSH1 0x60 ADD PUSH1 0x40 MSTORE SWAP1 DUP2 PUSH0 DUP3 ADD PUSH0 SWAP1 SLOAD SWAP1 PUSH2 0x100 EXP SWAP1 DIV PUSH20 0xFFFFFFFFFFFFFFFFFFFFFFFFFFFFFFFFFFFFFFFF AND PUSH20 0xFFFFFFFFFFFFFFFFFFFFFFFFFFFFFFFFFFFFFFFF AND PUSH20 0xFFFFFFFFFFFFFFFFFFFFFFFFFFFFFFFFFFFFFFFF AND DUP2 MSTORE PUSH1 0x20 ADD PUSH1 0x1 DUP3 ADD DUP1 SLOAD PUSH2 0x9CF SWAP1 PUSH2 0x10D3 JUMP JUMPDEST DUP1 PUSH1 0x1F ADD PUSH1 0x20 DUP1 SWAP2 DIV MUL PUSH1 0x20 ADD PUSH1 0x40 MLOAD SWAP1 DUP2 ADD PUSH1 0x40 MSTORE DUP1 SWAP3 SWAP2 SWAP1 DUP2 DUP2 MSTORE PUSH1 0x20 ADD DUP3 DUP1 SLOAD PUSH2 0x9FB SWAP1 PUSH2 0x10D3 JUMP JUMPDEST DUP1 ISZERO PUSH2 0xA46 JUMPI DUP1 PUSH1 0x1F LT PUSH2 0xA1D JUMPI PUSH2 0x100 DUP1 DUP4 SLOAD DIV MUL DUP4 MSTORE SWAP2 PUSH1 0x20 ADD SWAP2 PUSH2 0xA46 JUMP JUMPDEST DUP3 ADD SWAP2 SWAP1 PUSH0 MSTORE PUSH1 0x20 PUSH0 KECCAK256 SWAP1 JUMPDEST DUP2 SLOAD DUP2 MSTORE SWAP1 PUSH1 0x1 ADD SWAP1 PUSH1 0x20 ADD DUP1 DUP4 GT PUSH2 0xA29 JUMPI DUP3 SWAP1 SUB PUSH1 0x1F AND DUP3 ADD SWAP2 JUMPDEST POP POP POP POP POP DUP2 MSTORE PUSH1 0x20 ADD PUSH1 0x2 DUP3 ADD SLOAD DUP2 MSTORE POP POP DUP3 DUP3 DUP2 MLOAD DUP2 LT PUSH2 0xA6C JUMPI PUSH2 0xA6B PUSH2 0x14D2 JUMP JUMPDEST JUMPDEST PUSH1 0x20 MUL PUSH1 0x20 ADD ADD DUP2 SWAP1 MSTORE POP DUP1 DUP1 PUSH1 0x1 ADD SWAP2 POP POP PUSH2 0x8E8 JUMP JUMPDEST POP DUP1 SWAP3 POP POP POP SWAP3 SWAP2 POP POP JUMP JUMPDEST PUSH1 0x40 MLOAD DUP1 PUSH1 0x60 ADD PUSH1 0x40 MSTORE DUP1 PUSH0 PUSH20 0xFFFFFFFFFFFFFFFFFFFFFFFFFFFFFFFFFFFFFFFF AND DUP2 MSTORE PUSH1 0x20 ADD PUSH1 0x60 DUP2 MSTORE PUSH1 0x20 ADD PUSH0 DUP2 MSTORE POP SWAP1 JUMP JUMPDEST PUSH0 PUSH1 0x40 MLOAD SWAP1 POP SWAP1 JUMP JUMPDEST PUSH0 DUP1 REVERT JUMPDEST PUSH0 DUP1 REVERT JUMPDEST PUSH0 PUSH20 0xFFFFFFFFFFFFFFFFFFFFFFFFFFFFFFFFFFFFFFFF DUP3 AND SWAP1 POP SWAP2 SWAP1 POP JUMP JUMPDEST PUSH0 PUSH2 0xAFF DUP3 PUSH2 0xAD6 JUMP JUMPDEST SWAP1 POP SWAP2 SWAP1 POP JUMP JUMPDEST PUSH2 0xB0F DUP2 PUSH2 0xAF5 JUMP JUMPDEST DUP2 EQ PUSH2 0xB19 JUMPI PUSH0 DUP1 REVERT JUMPDEST POP JUMP JUMPDEST PUSH0 DUP2 CALLDATALOAD SWAP1 POP PUSH2 0xB2A DUP2 PUSH2 0xB06 JUMP JUMPDEST SWAP3 SWAP2 POP POP JUMP JUMPDEST PUSH0 DUP2 SWAP1 POP SWAP2 SWAP1 POP JUMP JUMPDEST PUSH2 0xB42 DUP2 PUSH2 0xB30 JUMP JUMPDEST DUP2 EQ PUSH2 0xB4C JUMPI PUSH0 DUP1 REVERT JUMPDEST POP JUMP JUMPDEST PUSH0 DUP2 CALLDATALOAD SWAP1 POP PUSH2 0xB5D DUP2 PUSH2 0xB39 JUMP JUMPDEST SWAP3 SWAP2 POP POP JUMP JUMPDEST PUSH0 DUP1 PUSH1 0x40 DUP4 DUP6 SUB SLT ISZERO PUSH2 0xB79 JUMPI PUSH2 0xB78 PUSH2 0xACE JUMP JUMPDEST JUMPDEST PUSH0 PUSH2 0xB86 DUP6 DUP3 DUP7 ADD PUSH2 0xB1C JUMP JUMPDEST SWAP3 POP POP PUSH1 0x20 PUSH2 0xB97 DUP6 DUP3 DUP7 ADD PUSH2 0xB4F JUMP JUMPDEST SWAP2 POP POP SWAP3 POP SWAP3 SWAP1 POP JUMP JUMPDEST PUSH2 0xBAA DUP2 PUSH2 0xAF5 JUMP JUMPDEST DUP3 MSTORE POP POP JUMP JUMPDEST PUSH0 DUP2 MLOAD SWAP1 POP SWAP2 SWAP1 POP JUMP JUMPDEST PUSH0 DUP3 DUP3 MSTORE PUSH1 0x20 DUP3 ADD SWAP1 POP SWAP3 SWAP2 POP POP JUMP JUMPDEST DUP3 DUP2 DUP4 MCOPY PUSH0 DUP4 DUP4 ADD MSTORE POP POP POP JUMP JUMPDEST PUSH0 PUSH1 0x1F NOT PUSH1 0x1F DUP4 ADD AND SWAP1 POP SWAP2 SWAP1 POP JUMP JUMPDEST PUSH0 PUSH2 0xBF2 DUP3 PUSH2 0xBB0 JUMP JUMPDEST PUSH2 0xBFC DUP2 DUP6 PUSH2 0xBBA JUMP JUMPDEST SWAP4 POP PUSH2 0xC0C DUP2 DUP6 PUSH1 0x20 DUP7 ADD PUSH2 0xBCA JUMP JUMPDEST PUSH2 0xC15 DUP2 PUSH2 0xBD8 JUMP JUMPDEST DUP5 ADD SWAP2 POP POP SWAP3 SWAP2 POP POP JUMP JUMPDEST PUSH2 0xC29 DUP2 PUSH2 0xB30 JUMP JUMPDEST DUP3 MSTORE POP POP JUMP JUMPDEST PUSH0 PUSH1 0x60 DUP3 ADD SWAP1 POP PUSH2 0xC42 PUSH0 DUP4 ADD DUP7 PUSH2 0xBA1 JUMP JUMPDEST DUP2 DUP2 SUB PUSH1 0x20 DUP4 ADD MSTORE PUSH2 0xC54 DUP2 DUP6 PUSH2 0xBE8 JUMP JUMPDEST SWAP1 POP PUSH2 0xC63 PUSH1 0x40 DUP4 ADD DUP5 PUSH2 0xC20 JUMP JUMPDEST SWAP5 SWAP4 POP POP POP POP JUMP JUMPDEST PUSH0 DUP1 REVERT JUMPDEST PUSH0 DUP1 REVERT JUMPDEST PUSH32 0x4E487B7100000000000000000000000000000000000000000000000000000000 PUSH0 MSTORE PUSH1 0x41 PUSH1 0x4 MSTORE PUSH1 0x24 PUSH0 REVERT JUMPDEST PUSH2 0xCA9 DUP3 PUSH2 0xBD8 JUMP JUMPDEST DUP2 ADD DUP2 DUP2 LT PUSH8 0xFFFFFFFFFFFFFFFF DUP3 GT OR ISZERO PUSH2 0xCC8 JUMPI PUSH2 0xCC7 PUSH2 0xC73 JUMP JUMPDEST JUMPDEST DUP1 PUSH1 0x40 MSTORE POP POP POP JUMP JUMPDEST PUSH0 PUSH2 0xCDA PUSH2 0xAC5 JUMP JUMPDEST SWAP1 POP PUSH2 0xCE6 DUP3 DUP3 PUSH2 0xCA0 JUMP JUMPDEST SWAP2 SWAP1 POP JUMP JUMPDEST PUSH0 PUSH8 0xFFFFFFFFFFFFFFFF DUP3 GT ISZERO PUSH2 0xD05 JUMPI PUSH2 0xD04 PUSH2 0xC73 JUMP JUMPDEST JUMPDEST PUSH2 0xD0E DUP3 PUSH2 0xBD8 JUMP JUMPDEST SWAP1 POP PUSH1 0x20 DUP2 ADD SWAP1 POP SWAP2 SWAP1 POP JUMP JUMPDEST DUP3 DUP2 DUP4 CALLDATACOPY PUSH0 DUP4 DUP4 ADD MSTORE POP POP POP JUMP JUMPDEST PUSH0 PUSH2 0xD3B PUSH2 0xD36 DUP5 PUSH2 0xCEB JUMP JUMPDEST PUSH2 0xCD1 JUMP JUMPDEST SWAP1 POP DUP3 DUP2 MSTORE PUSH1 0x20 DUP2 ADD DUP5 DUP5 DUP5 ADD GT ISZERO PUSH2 0xD57 JUMPI PUSH2 0xD56 PUSH2 0xC6F JUMP JUMPDEST JUMPDEST PUSH2 0xD62 DUP5 DUP3 DUP6 PUSH2 0xD1B JUMP JUMPDEST POP SWAP4 SWAP3 POP POP POP JUMP JUMPDEST PUSH0 DUP3 PUSH1 0x1F DUP4 ADD SLT PUSH2 0xD7E JUMPI PUSH2 0xD7D PUSH2 0xC6B JUMP JUMPDEST JUMPDEST DUP2 CALLDATALOAD PUSH2 0xD8E DUP5 DUP3 PUSH1 0x20 DUP7 ADD PUSH2 0xD29 JUMP JUMPDEST SWAP2 POP POP SWAP3 SWAP2 POP POP JUMP JUMPDEST PUSH0 PUSH1 0x20 DUP3 DUP5 SUB SLT ISZERO PUSH2 0xDAC JUMPI PUSH2 0xDAB PUSH2 0xACE JUMP JUMPDEST JUMPDEST PUSH0 DUP3 ADD CALLDATALOAD PUSH8 0xFFFFFFFFFFFFFFFF DUP2 GT ISZERO PUSH2 0xDC9 JUMPI PUSH2 0xDC8 PUSH2 0xAD2 JUMP JUMPDEST JUMPDEST PUSH2 0xDD5 DUP5 DUP3 DUP6 ADD PUSH2 0xD6A JUMP JUMPDEST SWAP2 POP POP SWAP3 SWAP2 POP POP JUMP JUMPDEST PUSH0 PUSH1 0x20 DUP3 DUP5 SUB SLT ISZERO PUSH2 0xDF3 JUMPI PUSH2 0xDF2 PUSH2 0xACE JUMP JUMPDEST JUMPDEST PUSH0 PUSH2 0xE00 DUP5 DUP3 DUP6 ADD PUSH2 0xB4F JUMP JUMPDEST SWAP2 POP POP SWAP3 SWAP2 POP POP JUMP JUMPDEST PUSH0 DUP2 MLOAD SWAP1 POP SWAP2 SWAP1 POP JUMP JUMPDEST PUSH0 DUP3 DUP3 MSTORE PUSH1 0x20 DUP3 ADD SWAP1 POP SWAP3 SWAP2 POP POP JUMP JUMPDEST PUSH0 DUP2 SWAP1 POP PUSH1 0x20 DUP3 ADD SWAP1 POP SWAP2 SWAP1 POP JUMP JUMPDEST PUSH2 0xE3B DUP2 PUSH2 0xAF5 JUMP JUMPDEST DUP3 MSTORE POP POP JUMP JUMPDEST PUSH0 DUP3 DUP3 MSTORE PUSH1 0x20 DUP3 ADD SWAP1 POP SWAP3 SWAP2 POP POP JUMP JUMPDEST PUSH0 PUSH2 0xE5B DUP3 PUSH2 0xBB0 JUMP JUMPDEST PUSH2 0xE65 DUP2 DUP6 PUSH2 0xE41 JUMP JUMPDEST SWAP4 POP PUSH2 0xE75 DUP2 DUP6 PUSH1 0x20 DUP7 ADD PUSH2 0xBCA JUMP JUMPDEST PUSH2 0xE7E DUP2 PUSH2 0xBD8 JUMP JUMPDEST DUP5 ADD SWAP2 POP POP SWAP3 SWAP2 POP POP JUMP JUMPDEST PUSH2 0xE92 DUP2 PUSH2 0xB30 JUMP JUMPDEST DUP3 MSTORE POP POP JUMP JUMPDEST PUSH0 PUSH1 0x60 DUP4 ADD PUSH0 DUP4 ADD MLOAD PUSH2 0xEAD PUSH0 DUP7 ADD DUP3 PUSH2 0xE32 JUMP JUMPDEST POP PUSH1 0x20 DUP4 ADD MLOAD DUP5 DUP3 SUB PUSH1 0x20 DUP7 ADD MSTORE PUSH2 0xEC5 DUP3 DUP3 PUSH2 0xE51 JUMP JUMPDEST SWAP2 POP POP PUSH1 0x40 DUP4 ADD MLOAD PUSH2 0xEDA PUSH1 0x40 DUP7 ADD DUP3 PUSH2 0xE89 JUMP JUMPDEST POP DUP1 SWAP2 POP POP SWAP3 SWAP2 POP POP JUMP JUMPDEST PUSH0 PUSH2 0xEF0 DUP4 DUP4 PUSH2 0xE98 JUMP JUMPDEST SWAP1 POP SWAP3 SWAP2 POP POP JUMP JUMPDEST PUSH0 PUSH1 0x20 DUP3 ADD SWAP1 POP SWAP2 SWAP1 POP JUMP JUMPDEST PUSH0 PUSH2 0xF0E DUP3 PUSH2 0xE09 JUMP JUMPDEST PUSH2 0xF18 DUP2 DUP6 PUSH2 0xE13 JUMP JUMPDEST SWAP4 POP DUP4 PUSH1 0x20 DUP3 MUL DUP6 ADD PUSH2 0xF2A DUP6 PUSH2 0xE23 JUMP JUMPDEST DUP1 PUSH0 JUMPDEST DUP6 DUP2 LT ISZERO PUSH2 0xF65 JUMPI DUP5 DUP5 SUB DUP10 MSTORE DUP2 MLOAD PUSH2 0xF46 DUP6 DUP3 PUSH2 0xEE5 JUMP JUMPDEST SWAP5 POP PUSH2 0xF51 DUP4 PUSH2 0xEF8 JUMP JUMPDEST SWAP3 POP PUSH1 0x20 DUP11 ADD SWAP10 POP POP PUSH1 0x1 DUP2 ADD SWAP1 POP PUSH2 0xF2D JUMP JUMPDEST POP DUP3 SWAP8 POP DUP8 SWAP6 POP POP POP POP POP POP SWAP3 SWAP2 POP POP JUMP JUMPDEST PUSH0 PUSH1 0x20 DUP3 ADD SWAP1 POP DUP2 DUP2 SUB PUSH0 DUP4 ADD MSTORE PUSH2 0xF8F DUP2 DUP5 PUSH2 0xF04 JUMP JUMPDEST SWAP1 POP SWAP3 SWAP2 POP POP JUMP JUMPDEST PUSH0 DUP1 PUSH1 0x40 DUP4 DUP6 SUB SLT ISZERO PUSH2 0xFAD JUMPI PUSH2 0xFAC PUSH2 0xACE JUMP JUMPDEST JUMPDEST PUSH0 DUP4 ADD CALLDATALOAD PUSH8 0xFFFFFFFFFFFFFFFF DUP2 GT ISZERO PUSH2 0xFCA JUMPI PUSH2 0xFC9 PUSH2 0xAD2 JUMP JUMPDEST JUMPDEST PUSH2 0xFD6 DUP6 DUP3 DUP7 ADD PUSH2 0xD6A JUMP JUMPDEST SWAP3 POP POP PUSH1 0x20 PUSH2 0xFE7 DUP6 DUP3 DUP7 ADD PUSH2 0xB1C JUMP JUMPDEST SWAP2 POP POP SWAP3 POP SWAP3 SWAP1 POP JUMP JUMPDEST PUSH0 PUSH1 0x20 DUP3 DUP5 SUB SLT ISZERO PUSH2 0x1006 JUMPI PUSH2 0x1005 PUSH2 0xACE JUMP JUMPDEST JUMPDEST PUSH0 PUSH2 0x1013 DUP5 DUP3 DUP6 ADD PUSH2 0xB1C JUMP JUMPDEST SWAP2 POP POP SWAP3 SWAP2 POP POP JUMP JUMPDEST PUSH0 DUP1 PUSH1 0x40 DUP4 DUP6 SUB SLT ISZERO PUSH2 0x1032 JUMPI PUSH2 0x1031 PUSH2 0xACE JUMP JUMPDEST JUMPDEST PUSH0 PUSH2 0x103F DUP6 DUP3 DUP7 ADD PUSH2 0xB1C JUMP JUMPDEST SWAP3 POP POP PUSH1 0x20 PUSH2 0x1050 DUP6 DUP3 DUP7 ADD PUSH2 0xB1C JUMP JUMPDEST SWAP2 POP POP SWAP3 POP SWAP3 SWAP1 POP JUMP JUMPDEST PUSH0 DUP2 ISZERO ISZERO SWAP1 POP SWAP2 SWAP1 POP JUMP JUMPDEST PUSH2 0x106E DUP2 PUSH2 0x105A JUMP JUMPDEST DUP3 MSTORE POP POP JUMP JUMPDEST PUSH0 PUSH1 0x20 DUP3 ADD SWAP1 POP PUSH2 0x1087 PUSH0 DUP4 ADD DUP5 PUSH2 0x1065 JUMP JUMPDEST SWAP3 SWAP2 POP POP JUMP JUMPDEST PUSH0 PUSH1 0x20 DUP3 ADD SWAP1 POP PUSH2 0x10A0 PUSH0 DUP4 ADD DUP5 PUSH2 0xBA1 JUMP JUMPDEST SWAP3 SWAP2 POP POP JUMP JUMPDEST PUSH32 0x4E487B7100000000000000000000000000000000000000000000000000000000 PUSH0 MSTORE PUSH1 0x22 PUSH1 0x4 MSTORE PUSH1 0x24 PUSH0 REVERT JUMPDEST PUSH0 PUSH1 0x2 DUP3 DIV SWAP1 POP PUSH1 0x1 DUP3 AND DUP1 PUSH2 0x10EA JUMPI PUSH1 0x7F DUP3 AND SWAP2 POP JUMPDEST PUSH1 0x20 DUP3 LT DUP2 SUB PUSH2 0x10FD JUMPI PUSH2 0x10FC PUSH2 0x10A6 JUMP JUMPDEST JUMPDEST POP SWAP2 SWAP1 POP JUMP JUMPDEST PUSH0 DUP2 SWAP1 POP DUP2 PUSH0 MSTORE PUSH1 0x20 PUSH0 KECCAK256 SWAP1 POP SWAP2 SWAP1 POP JUMP JUMPDEST PUSH0 PUSH1 0x20 PUSH1 0x1F DUP4 ADD DIV SWAP1 POP SWAP2 SWAP1 POP JUMP JUMPDEST PUSH0 DUP3 DUP3 SHL SWAP1 POP SWAP3 SWAP2 POP POP JUMP JUMPDEST PUSH0 PUSH1 0x8 DUP4 MUL PUSH2 0x115F PUSH32 0xFFFFFFFFFFFFFFFFFFFFFFFFFFFFFFFFFFFFFFFFFFFFFFFFFFFFFFFFFFFFFFFF DUP3 PUSH2 0x1124 JUMP JUMPDEST PUSH2 0x1169 DUP7 DUP4 PUSH2 0x1124 JUMP JUMPDEST SWAP6 POP DUP1 NOT DUP5 AND SWAP4 POP DUP1 DUP7 AND DUP5 OR SWAP3 POP POP POP SWAP4 SWAP3 POP POP POP JUMP JUMPDEST PUSH0 DUP2 SWAP1 POP SWAP2 SWAP1 POP JUMP JUMPDEST PUSH0 PUSH2 0x11A4 PUSH2 0x119F PUSH2 0x119A DUP5 PUSH2 0xB30 JUMP JUMPDEST PUSH2 0x1181 JUMP JUMPDEST PUSH2 0xB30 JUMP JUMPDEST SWAP1 POP SWAP2 SWAP1 POP JUMP JUMPDEST PUSH0 DUP2 SWAP1 POP SWAP2 SWAP1 POP JUMP JUMPDEST PUSH2 0x11BD DUP4 PUSH2 0x118A JUMP JUMPDEST PUSH2 0x11D1 PUSH2 0x11C9 DUP3 PUSH2 0x11AB JUMP JUMPDEST DUP5 DUP5 SLOAD PUSH2 0x1130 JUMP JUMPDEST DUP3 SSTORE POP POP POP POP JUMP JUMPDEST PUSH0 SWAP1 JUMP JUMPDEST PUSH2 0x11E5 PUSH2 0x11D9 JUMP JUMPDEST PUSH2 0x11F0 DUP2 DUP5 DUP5 PUSH2 0x11B4 JUMP JUMPDEST POP POP POP JUMP JUMPDEST JUMPDEST DUP2 DUP2 LT ISZERO PUSH2 0x1213 JUMPI PUSH2 0x1208 PUSH0 DUP3 PUSH2 0x11DD JUMP JUMPDEST PUSH1 0x1 DUP2 ADD SWAP1 POP PUSH2 0x11F6 JUMP JUMPDEST POP POP JUMP JUMPDEST PUSH1 0x1F DUP3 GT ISZERO PUSH2 0x1258 JUMPI PUSH2 0x1229 DUP2 PUSH2 0x1103 JUMP JUMPDEST PUSH2 0x1232 DUP5 PUSH2 0x1115 JUMP JUMPDEST DUP2 ADD PUSH1 0x20 DUP6 LT ISZERO PUSH2 0x1241 JUMPI DUP2 SWAP1 POP JUMPDEST PUSH2 0x1255 PUSH2 0x124D DUP6 PUSH2 0x1115 JUMP JUMPDEST DUP4 ADD DUP3 PUSH2 0x11F5 JUMP JUMPDEST POP POP JUMPDEST POP POP POP JUMP JUMPDEST PUSH0 DUP3 DUP3 SHR SWAP1 POP SWAP3 SWAP2 POP POP JUMP JUMPDEST PUSH0 PUSH2 0x1278 PUSH0 NOT DUP5 PUSH1 0x8 MUL PUSH2 0x125D JUMP JUMPDEST NOT DUP1 DUP4 AND SWAP2 POP POP SWAP3 SWAP2 POP POP JUMP JUMPDEST PUSH0 PUSH2 0x1290 DUP4 DUP4 PUSH2 0x1269 JUMP JUMPDEST SWAP2 POP DUP3 PUSH1 0x2 MUL DUP3 OR SWAP1 POP SWAP3 SWAP2 POP POP JUMP JUMPDEST PUSH2 0x12A9 DUP3 PUSH2 0xBB0 JUMP JUMPDEST PUSH8 0xFFFFFFFFFFFFFFFF DUP2 GT ISZERO PUSH2 0x12C2 JUMPI PUSH2 0x12C1 PUSH2 0xC73 JUMP JUMPDEST JUMPDEST PUSH2 0x12CC DUP3 SLOAD PUSH2 0x10D3 JUMP JUMPDEST PUSH2 0x12D7 DUP3 DUP3 DUP6 PUSH2 0x1217 JUMP JUMPDEST PUSH0 PUSH1 0x20 SWAP1 POP PUSH1 0x1F DUP4 GT PUSH1 0x1 DUP2 EQ PUSH2 0x1308 JUMPI PUSH0 DUP5 ISZERO PUSH2 0x12F6 JUMPI DUP3 DUP8 ADD MLOAD SWAP1 POP JUMPDEST PUSH2 0x1300 DUP6 DUP3 PUSH2 0x1285 JUMP JUMPDEST DUP7 SSTORE POP PUSH2 0x1367 JUMP JUMPDEST PUSH1 0x1F NOT DUP5 AND PUSH2 0x1316 DUP7 PUSH2 0x1103 JUMP JUMPDEST PUSH0 JUMPDEST DUP3 DUP2 LT ISZERO PUSH2 0x133D JUMPI DUP5 DUP10 ADD MLOAD DUP3 SSTORE PUSH1 0x1 DUP3 ADD SWAP2 POP PUSH1 0x20 DUP6 ADD SWAP5 POP PUSH1 0x20 DUP2 ADD SWAP1 POP PUSH2 0x1318 JUMP JUMPDEST DUP7 DUP4 LT ISZERO PUSH2 0x135A JUMPI DUP5 DUP10 ADD MLOAD PUSH2 0x1356 PUSH1 0x1F DUP10 AND DUP3 PUSH2 0x1269 JUMP JUMPDEST DUP4 SSTORE POP JUMPDEST PUSH1 0x1 PUSH1 0x2 DUP9 MUL ADD DUP9 SSTORE POP POP POP JUMPDEST POP POP POP POP POP POP JUMP JUMPDEST PUSH32 0x4E6F7420617574686F72697A656420746F20706F7374206F6E20626568616C66 PUSH0 DUP3 ADD MSTORE POP JUMP JUMPDEST PUSH0 PUSH2 0x13A3 PUSH1 0x20 DUP4 PUSH2 0xBBA JUMP JUMPDEST SWAP2 POP PUSH2 0x13AE DUP3 PUSH2 0x136F JUMP JUMPDEST PUSH1 0x20 DUP3 ADD SWAP1 POP SWAP2 SWAP1 POP JUMP JUMPDEST PUSH0 PUSH1 0x20 DUP3 ADD SWAP1 POP DUP2 DUP2 SUB PUSH0 DUP4 ADD MSTORE PUSH2 0x13D0 DUP2 PUSH2 0x1397 JUMP JUMPDEST SWAP1 POP SWAP2 SWAP1 POP JUMP JUMPDEST PUSH32 0x436F756E7420697320626969676572207468617420746F74616C547765657473 PUSH0 DUP3 ADD MSTORE POP JUMP JUMPDEST PUSH0 PUSH2 0x140B PUSH1 0x20 DUP4 PUSH2 0xBBA JUMP JUMPDEST SWAP2 POP PUSH2 0x1416 DUP3 PUSH2 0x13D7 JUMP JUMPDEST PUSH1 0x20 DUP3 ADD SWAP1 POP SWAP2 SWAP1 POP JUMP JUMPDEST PUSH0 PUSH1 0x20 DUP3 ADD SWAP1 POP DUP2 DUP2 SUB PUSH0 DUP4 ADD MSTORE PUSH2 0x1438 DUP2 PUSH2 0x13FF JUMP JUMPDEST SWAP1 POP SWAP2 SWAP1 POP JUMP JUMPDEST PUSH32 0x4E487B7100000000000000000000000000000000000000000000000000000000 PUSH0 MSTORE PUSH1 0x11 PUSH1 0x4 MSTORE PUSH1 0x24 PUSH0 REVERT JUMPDEST PUSH0 PUSH2 0x1476 DUP3 PUSH2 0xB30 JUMP JUMPDEST SWAP2 POP PUSH2 0x1481 DUP4 PUSH2 0xB30 JUMP JUMPDEST SWAP3 POP DUP3 DUP3 SUB SWAP1 POP DUP2 DUP2 GT ISZERO PUSH2 0x1499 JUMPI PUSH2 0x1498 PUSH2 0x143F JUMP JUMPDEST JUMPDEST SWAP3 SWAP2 POP POP JUMP JUMPDEST PUSH0 PUSH2 0x14A9 DUP3 PUSH2 0xB30 JUMP JUMPDEST SWAP2 POP PUSH2 0x14B4 DUP4 PUSH2 0xB30 JUMP JUMPDEST SWAP3 POP DUP3 DUP3 ADD SWAP1 POP DUP1 DUP3 GT ISZERO PUSH2 0x14CC JUMPI PUSH2 0x14CB PUSH2 0x143F JUMP JUMPDEST JUMPDEST SWAP3 SWAP2 POP POP JUMP JUMPDEST PUSH32 0x4E487B7100000000000000000000000000000000000000000000000000000000 PUSH0 MSTORE PUSH1 0x32 PUSH1 0x4 MSTORE PUSH1 0x24 PUSH0 REVERT INVALID LOG2 PUSH5 0x6970667358 0x22 SLT KECCAK256 0xD7 EXP PUSH30 0xB4145320C118B523D7273E5B36E969CA0EC7DA8A11D052D42122BDEC7664 PUSH20 0x6F6C634300081A00330000000000000000000000 "
				},
				"gasEstimates": {
					"creation": {
						"codeDepositCost": "1085800",
						"executionCost": "1125",
						"totalCost": "1086925"
					},
					"external": {
						"follow(address)": "49201",
						"following(address,uint256)": "infinite",
						"getOwnLatestTweet(uint256)": "infinite",
						"giveAuthorize(address)": "24956",
						"isAuthorized(address,address)": "infinite",
						"postTweet(string)": "infinite",
						"postTweetOnBehalf(string,address)": "infinite",
						"retrieveLatestTweet(address,uint256)": "infinite",
						"revokeAuthorization(address)": "24933",
						"tweets(address,uint256)": "infinite"
					}
				},
				"methodIdentifiers": {
					"follow(address)": "4dbf27cc",
					"following(address,uint256)": "9139cda5",
					"getOwnLatestTweet(uint256)": "173b0924",
					"giveAuthorize(address)": "ba0d3588",
					"isAuthorized(address,address)": "65e4ad9e",
					"postTweet(string)": "0cbc3dc4",
					"postTweetOnBehalf(string,address)": "3d48d9fb",
					"retrieveLatestTweet(address,uint256)": "bc286b00",
					"revokeAuthorization(address)": "b48028e3",
					"tweets(address,uint256)": "05a1b4a9"
				}
			},
			"storageLayout": {
				"storage": [
					{
						"astId": 14,
						"contract": "contracts/Twitter-Assignment/twitter_1.sol:TweetContract",
						"label": "tweets",
						"offset": 0,
						"slot": "0",
						"type": "t_mapping(t_address,t_array(t_struct(Tweet)8_storage)dyn_storage)"
					},
					{
						"astId": 39,
						"contract": "contracts/Twitter-Assignment/twitter_1.sol:TweetContract",
						"label": "following",
						"offset": 0,
						"slot": "1",
						"type": "t_mapping(t_address,t_array(t_address)dyn_storage)"
					},
					{
						"astId": 59,
						"contract": "contracts/Twitter-Assignment/twitter_1.sol:TweetContract",
						"label": "isAuthorized",
						"offset": 0,
						"slot": "2",
						"type": "t_mapping(t_address,t_mapping(t_address,t_bool))"
					}
				],
				"types": {
					"t_address": {
						"encoding": "inplace",
						"label": "address",
						"numberOfBytes": "20"
					},
					"t_array(t_address)dyn_storage": {
						"base": "t_address",
						"encoding": "dynamic_array",
						"label": "address[]",
						"numberOfBytes": "32"
					},
					"t_array(t_struct(Tweet)8_storage)dyn_storage": {
						"base": "t_struct(Tweet)8_storage",
						"encoding": "dynamic_array",
						"label": "struct TweetContract.Tweet[]",
						"numberOfBytes": "32"
					},
					"t_bool": {
						"encoding": "inplace",
						"label": "bool",
						"numberOfBytes": "1"
					},
					"t_mapping(t_address,t_array(t_address)dyn_storage)": {
						"encoding": "mapping",
						"key": "t_address",
						"label": "mapping(address => address[])",
						"numberOfBytes": "32",
						"value": "t_array(t_address)dyn_storage"
					},
					"t_mapping(t_address,t_array(t_struct(Tweet)8_storage)dyn_storage)": {
						"encoding": "mapping",
						"key": "t_address",
						"label": "mapping(address => struct TweetContract.Tweet[])",
						"numberOfBytes": "32",
						"value": "t_array(t_struct(Tweet)8_storage)dyn_storage"
					},
					"t_mapping(t_address,t_bool)": {
						"encoding": "mapping",
						"key": "t_address",
						"label": "mapping(address => bool)",
						"numberOfBytes": "32",
						"value": "t_bool"
					},
					"t_mapping(t_address,t_mapping(t_address,t_bool))": {
						"encoding": "mapping",
						"key": "t_address",
						"label": "mapping(address => mapping(address => bool))",
						"numberOfBytes": "32",
						"value": "t_mapping(t_address,t_bool)"
					},
					"t_string_storage": {
						"encoding": "bytes",
						"label": "string",
						"numberOfBytes": "32"
					},
					"t_struct(Tweet)8_storage": {
						"encoding": "inplace",
						"label": "struct TweetContract.Tweet",
						"members": [
							{
								"astId": 3,
								"contract": "contracts/Twitter-Assignment/twitter_1.sol:TweetContract",
								"label": "author",
								"offset": 0,
								"slot": "0",
								"type": "t_address"
							},
							{
								"astId": 5,
								"contract": "contracts/Twitter-Assignment/twitter_1.sol:TweetContract",
								"label": "content",
								"offset": 0,
								"slot": "1",
								"type": "t_string_storage"
							},
							{
								"astId": 7,
								"contract": "contracts/Twitter-Assignment/twitter_1.sol:TweetContract",
								"label": "createdAt",
								"offset": 0,
								"slot": "2",
								"type": "t_uint256"
							}
						],
						"numberOfBytes": "96"
					},
					"t_uint256": {
						"encoding": "inplace",
						"label": "uint256",
						"numberOfBytes": "32"
					}
				}
			},
			"userdoc": {
				"kind": "user",
				"methods": {},
				"version": 1
			}
		}
	}
}