{
	"contracts/Twitter-Assignment/twitter_3.sol": {
		"Twitter": {
			"abi": [
				{
					"inputs": [
						{
							"internalType": "address",
							"name": "_user",
							"type": "address"
						},
						{
							"internalType": "bool",
							"name": "_status",
							"type": "bool"
						}
					],
					"name": "authorize",
					"outputs": [],
					"stateMutability": "nonpayable",
					"type": "function"
				},
				{
					"inputs": [
						{
							"internalType": "address",
							"name": "",
							"type": "address"
						}
					],
					"name": "users",
					"outputs": [
						{
							"internalType": "address",
							"name": "user",
							"type": "address"
						},
						{
							"internalType": "bool",
							"name": "status",
							"type": "bool"
						}
					],
					"stateMutability": "view",
					"type": "function"
				}
			],
			"devdoc": {
				"kind": "dev",
				"methods": {},
				"version": 1
			},
			"evm": {
				"assembly": "    /* \"contracts/Twitter-Assignment/twitter_3.sol\":268:484  contract Twitter {... */\n  mstore(0x40, 0x80)\n  callvalue\n  dup1\n  iszero\n  tag_1\n  jumpi\n  0x00\n  dup1\n  revert\ntag_1:\n  pop\n  dataSize(sub_0)\n  dup1\n  dataOffset(sub_0)\n  0x00\n  codecopy\n  0x00\n  return\nstop\n\nsub_0: assembly {\n        /* \"contracts/Twitter-Assignment/twitter_3.sol\":268:484  contract Twitter {... */\n      mstore(0x40, 0x80)\n      callvalue\n      dup1\n      iszero\n      tag_1\n      jumpi\n      0x00\n      dup1\n      revert\n    tag_1:\n      pop\n      jumpi(tag_2, lt(calldatasize, 0x04))\n      shr(0xe0, calldataload(0x00))\n      dup1\n      0x2d1fb389\n      eq\n      tag_3\n      jumpi\n      dup1\n      0xa87430ba\n      eq\n      tag_4\n      jumpi\n    tag_2:\n      0x00\n      dup1\n      revert\n        /* \"contracts/Twitter-Assignment/twitter_3.sol\":411:482  function authorize(address _user, bool _status) public {... */\n    tag_3:\n      tag_5\n      0x04\n      dup1\n      calldatasize\n      sub\n      dup2\n      add\n      swap1\n      tag_6\n      swap2\n      swap1\n      tag_7\n      jump\t// in\n    tag_6:\n      tag_8\n      jump\t// in\n    tag_5:\n      stop\n        /* \"contracts/Twitter-Assignment/twitter_3.sol\":367:404  mapping(address => User) public users */\n    tag_4:\n      tag_9\n      0x04\n      dup1\n      calldatasize\n      sub\n      dup2\n      add\n      swap1\n      tag_10\n      swap2\n      swap1\n      tag_11\n      jump\t// in\n    tag_10:\n      tag_12\n      jump\t// in\n    tag_9:\n      mload(0x40)\n      tag_13\n      swap3\n      swap2\n      swap1\n      tag_14\n      jump\t// in\n    tag_13:\n      mload(0x40)\n      dup1\n      swap2\n      sub\n      swap1\n      return\n        /* \"contracts/Twitter-Assignment/twitter_3.sol\":411:482  function authorize(address _user, bool _status) public {... */\n    tag_8:\n      pop\n      pop\n      jump\t// out\n        /* \"contracts/Twitter-Assignment/twitter_3.sol\":367:404  mapping(address => User) public users */\n    tag_12:\n      mstore(0x20, 0x00)\n      dup1\n      0x00\n      mstore\n      keccak256(0x00, 0x40)\n      0x00\n      swap2\n      pop\n      swap1\n      pop\n      dup1\n      0x00\n      add\n      0x00\n      swap1\n      sload\n      swap1\n      0x0100\n      exp\n      swap1\n      div\n      0xffffffffffffffffffffffffffffffffffffffff\n      and\n      swap1\n      dup1\n      0x00\n      add\n      0x14\n      swap1\n      sload\n      swap1\n      0x0100\n      exp\n      swap1\n      div\n      0xff\n      and\n      swap1\n      pop\n      dup3\n      jump\t// out\n        /* \"#utility.yul\":88:205   */\n    tag_17:\n        /* \"#utility.yul\":197:198   */\n      0x00\n        /* \"#utility.yul\":194:195   */\n      dup1\n        /* \"#utility.yul\":187:199   */\n      revert\n        /* \"#utility.yul\":334:460   */\n    tag_19:\n        /* \"#utility.yul\":371:378   */\n      0x00\n        /* \"#utility.yul\":411:453   */\n      0xffffffffffffffffffffffffffffffffffffffff\n        /* \"#utility.yul\":404:409   */\n      dup3\n        /* \"#utility.yul\":400:454   */\n      and\n        /* \"#utility.yul\":389:454   */\n      swap1\n      pop\n        /* \"#utility.yul\":334:460   */\n      swap2\n      swap1\n      pop\n      jump\t// out\n        /* \"#utility.yul\":466:562   */\n    tag_20:\n        /* \"#utility.yul\":503:510   */\n      0x00\n        /* \"#utility.yul\":532:556   */\n      tag_34\n        /* \"#utility.yul\":550:555   */\n      dup3\n        /* \"#utility.yul\":532:556   */\n      tag_19\n      jump\t// in\n    tag_34:\n        /* \"#utility.yul\":521:556   */\n      swap1\n      pop\n        /* \"#utility.yul\":466:562   */\n      swap2\n      swap1\n      pop\n      jump\t// out\n        /* \"#utility.yul\":568:690   */\n    tag_21:\n        /* \"#utility.yul\":641:665   */\n      tag_36\n        /* \"#utility.yul\":659:664   */\n      dup2\n        /* \"#utility.yul\":641:665   */\n      tag_20\n      jump\t// in\n    tag_36:\n        /* \"#utility.yul\":634:639   */\n      dup2\n        /* \"#utility.yul\":631:666   */\n      eq\n        /* \"#utility.yul\":621:684   */\n      tag_37\n      jumpi\n        /* \"#utility.yul\":680:681   */\n      0x00\n        /* \"#utility.yul\":677:678   */\n      dup1\n        /* \"#utility.yul\":670:682   */\n      revert\n        /* \"#utility.yul\":621:684   */\n    tag_37:\n        /* \"#utility.yul\":568:690   */\n      pop\n      jump\t// out\n        /* \"#utility.yul\":696:835   */\n    tag_22:\n        /* \"#utility.yul\":742:747   */\n      0x00\n        /* \"#utility.yul\":780:786   */\n      dup2\n        /* \"#utility.yul\":767:787   */\n      calldataload\n        /* \"#utility.yul\":758:787   */\n      swap1\n      pop\n        /* \"#utility.yul\":796:829   */\n      tag_39\n        /* \"#utility.yul\":823:828   */\n      dup2\n        /* \"#utility.yul\":796:829   */\n      tag_21\n      jump\t// in\n    tag_39:\n        /* \"#utility.yul\":696:835   */\n      swap3\n      swap2\n      pop\n      pop\n      jump\t// out\n        /* \"#utility.yul\":841:931   */\n    tag_23:\n        /* \"#utility.yul\":875:882   */\n      0x00\n        /* \"#utility.yul\":918:923   */\n      dup2\n        /* \"#utility.yul\":911:924   */\n      iszero\n        /* \"#utility.yul\":904:925   */\n      iszero\n        /* \"#utility.yul\":893:925   */\n      swap1\n      pop\n        /* \"#utility.yul\":841:931   */\n      swap2\n      swap1\n      pop\n      jump\t// out\n        /* \"#utility.yul\":937:1053   */\n    tag_24:\n        /* \"#utility.yul\":1007:1028   */\n      tag_42\n        /* \"#utility.yul\":1022:1027   */\n      dup2\n        /* \"#utility.yul\":1007:1028   */\n      tag_23\n      jump\t// in\n    tag_42:\n        /* \"#utility.yul\":1000:1005   */\n      dup2\n        /* \"#utility.yul\":997:1029   */\n      eq\n        /* \"#utility.yul\":987:1047   */\n      tag_43\n      jumpi\n        /* \"#utility.yul\":1043:1044   */\n      0x00\n        /* \"#utility.yul\":1040:1041   */\n      dup1\n        /* \"#utility.yul\":1033:1045   */\n      revert\n        /* \"#utility.yul\":987:1047   */\n    tag_43:\n        /* \"#utility.yul\":937:1053   */\n      pop\n      jump\t// out\n        /* \"#utility.yul\":1059:1192   */\n    tag_25:\n        /* \"#utility.yul\":1102:1107   */\n      0x00\n        /* \"#utility.yul\":1140:1146   */\n      dup2\n        /* \"#utility.yul\":1127:1147   */\n      calldataload\n        /* \"#utility.yul\":1118:1147   */\n      swap1\n      pop\n        /* \"#utility.yul\":1156:1186   */\n      tag_45\n        /* \"#utility.yul\":1180:1185   */\n      dup2\n        /* \"#utility.yul\":1156:1186   */\n      tag_24\n      jump\t// in\n    tag_45:\n        /* \"#utility.yul\":1059:1192   */\n      swap3\n      swap2\n      pop\n      pop\n      jump\t// out\n        /* \"#utility.yul\":1198:1666   */\n    tag_7:\n        /* \"#utility.yul\":1263:1269   */\n      0x00\n        /* \"#utility.yul\":1271:1277   */\n      dup1\n        /* \"#utility.yul\":1320:1322   */\n      0x40\n        /* \"#utility.yul\":1308:1317   */\n      dup4\n        /* \"#utility.yul\":1299:1306   */\n      dup6\n        /* \"#utility.yul\":1295:1318   */\n      sub\n        /* \"#utility.yul\":1291:1323   */\n      slt\n        /* \"#utility.yul\":1288:1407   */\n      iszero\n      tag_47\n      jumpi\n        /* \"#utility.yul\":1326:1405   */\n      tag_48\n      tag_17\n      jump\t// in\n    tag_48:\n        /* \"#utility.yul\":1288:1407   */\n    tag_47:\n        /* \"#utility.yul\":1446:1447   */\n      0x00\n        /* \"#utility.yul\":1471:1524   */\n      tag_49\n        /* \"#utility.yul\":1516:1523   */\n      dup6\n        /* \"#utility.yul\":1507:1513   */\n      dup3\n        /* \"#utility.yul\":1496:1505   */\n      dup7\n        /* \"#utility.yul\":1492:1514   */\n      add\n        /* \"#utility.yul\":1471:1524   */\n      tag_22\n      jump\t// in\n    tag_49:\n        /* \"#utility.yul\":1461:1524   */\n      swap3\n      pop\n        /* \"#utility.yul\":1417:1534   */\n      pop\n        /* \"#utility.yul\":1573:1575   */\n      0x20\n        /* \"#utility.yul\":1599:1649   */\n      tag_50\n        /* \"#utility.yul\":1641:1648   */\n      dup6\n        /* \"#utility.yul\":1632:1638   */\n      dup3\n        /* \"#utility.yul\":1621:1630   */\n      dup7\n        /* \"#utility.yul\":1617:1639   */\n      add\n        /* \"#utility.yul\":1599:1649   */\n      tag_25\n      jump\t// in\n    tag_50:\n        /* \"#utility.yul\":1589:1649   */\n      swap2\n      pop\n        /* \"#utility.yul\":1544:1659   */\n      pop\n        /* \"#utility.yul\":1198:1666   */\n      swap3\n      pop\n      swap3\n      swap1\n      pop\n      jump\t// out\n        /* \"#utility.yul\":1672:2001   */\n    tag_11:\n        /* \"#utility.yul\":1731:1737   */\n      0x00\n        /* \"#utility.yul\":1780:1782   */\n      0x20\n        /* \"#utility.yul\":1768:1777   */\n      dup3\n        /* \"#utility.yul\":1759:1766   */\n      dup5\n        /* \"#utility.yul\":1755:1778   */\n      sub\n        /* \"#utility.yul\":1751:1783   */\n      slt\n        /* \"#utility.yul\":1748:1867   */\n      iszero\n      tag_52\n      jumpi\n        /* \"#utility.yul\":1786:1865   */\n      tag_53\n      tag_17\n      jump\t// in\n    tag_53:\n        /* \"#utility.yul\":1748:1867   */\n    tag_52:\n        /* \"#utility.yul\":1906:1907   */\n      0x00\n        /* \"#utility.yul\":1931:1984   */\n      tag_54\n        /* \"#utility.yul\":1976:1983   */\n      dup5\n        /* \"#utility.yul\":1967:1973   */\n      dup3\n        /* \"#utility.yul\":1956:1965   */\n      dup6\n        /* \"#utility.yul\":1952:1974   */\n      add\n        /* \"#utility.yul\":1931:1984   */\n      tag_22\n      jump\t// in\n    tag_54:\n        /* \"#utility.yul\":1921:1984   */\n      swap2\n      pop\n        /* \"#utility.yul\":1877:1994   */\n      pop\n        /* \"#utility.yul\":1672:2001   */\n      swap3\n      swap2\n      pop\n      pop\n      jump\t// out\n        /* \"#utility.yul\":2007:2125   */\n    tag_26:\n        /* \"#utility.yul\":2094:2118   */\n      tag_56\n        /* \"#utility.yul\":2112:2117   */\n      dup2\n        /* \"#utility.yul\":2094:2118   */\n      tag_20\n      jump\t// in\n    tag_56:\n        /* \"#utility.yul\":2089:2092   */\n      dup3\n        /* \"#utility.yul\":2082:2119   */\n      mstore\n        /* \"#utility.yul\":2007:2125   */\n      pop\n      pop\n      jump\t// out\n        /* \"#utility.yul\":2131:2240   */\n    tag_27:\n        /* \"#utility.yul\":2212:2233   */\n      tag_58\n        /* \"#utility.yul\":2227:2232   */\n      dup2\n        /* \"#utility.yul\":2212:2233   */\n      tag_23\n      jump\t// in\n    tag_58:\n        /* \"#utility.yul\":2207:2210   */\n      dup3\n        /* \"#utility.yul\":2200:2234   */\n      mstore\n        /* \"#utility.yul\":2131:2240   */\n      pop\n      pop\n      jump\t// out\n        /* \"#utility.yul\":2246:2566   */\n    tag_14:\n        /* \"#utility.yul\":2361:2365   */\n      0x00\n        /* \"#utility.yul\":2399:2401   */\n      0x40\n        /* \"#utility.yul\":2388:2397   */\n      dup3\n        /* \"#utility.yul\":2384:2402   */\n      add\n        /* \"#utility.yul\":2376:2402   */\n      swap1\n      pop\n        /* \"#utility.yul\":2412:2483   */\n      tag_60\n        /* \"#utility.yul\":2480:2481   */\n      0x00\n        /* \"#utility.yul\":2469:2478   */\n      dup4\n        /* \"#utility.yul\":2465:2482   */\n      add\n        /* \"#utility.yul\":2456:2462   */\n      dup6\n        /* \"#utility.yul\":2412:2483   */\n      tag_26\n      jump\t// in\n    tag_60:\n        /* \"#utility.yul\":2493:2559   */\n      tag_61\n        /* \"#utility.yul\":2555:2557   */\n      0x20\n        /* \"#utility.yul\":2544:2553   */\n      dup4\n        /* \"#utility.yul\":2540:2558   */\n      add\n        /* \"#utility.yul\":2531:2537   */\n      dup5\n        /* \"#utility.yul\":2493:2559   */\n      tag_27\n      jump\t// in\n    tag_61:\n        /* \"#utility.yul\":2246:2566   */\n      swap4\n      swap3\n      pop\n      pop\n      pop\n      jump\t// out\n\n    auxdata: 0xa2646970667358221220652e52672bb7d46c2dfe5f943b95a33ad5fef4869e3b0c6a3438590caa79151c64736f6c634300081a0033\n}\n",
				"bytecode": {
					"linkReferences": {},
					"object": "6080604052348015600e575f80fd5b5061024a8061001c5f395ff3fe608060405234801561000f575f80fd5b5060043610610034575f3560e01c80632d1fb38914610038578063a87430ba14610054575b5f80fd5b610052600480360381019061004d9190610166565b610085565b005b61006e600480360381019061006991906101a4565b610089565b60405161007c9291906101ed565b60405180910390f35b5050565b5f602052805f5260405f205f91509050805f015f9054906101000a900473ffffffffffffffffffffffffffffffffffffffff1690805f0160149054906101000a900460ff16905082565b5f80fd5b5f73ffffffffffffffffffffffffffffffffffffffff82169050919050565b5f610100826100d7565b9050919050565b610110816100f6565b811461011a575f80fd5b50565b5f8135905061012b81610107565b92915050565b5f8115159050919050565b61014581610131565b811461014f575f80fd5b50565b5f813590506101608161013c565b92915050565b5f806040838503121561017c5761017b6100d3565b5b5f6101898582860161011d565b925050602061019a85828601610152565b9150509250929050565b5f602082840312156101b9576101b86100d3565b5b5f6101c68482850161011d565b91505092915050565b6101d8816100f6565b82525050565b6101e781610131565b82525050565b5f6040820190506102005f8301856101cf565b61020d60208301846101de565b939250505056fea2646970667358221220652e52672bb7d46c2dfe5f943b95a33ad5fef4869e3b0c6a3438590caa79151c64736f6c634300081a0033",
					"opcodes": "PUSH1 0x80 PUSH1 0x40 MSTORE CALLVALUE DUP1 ISZERO PUSH1 0xE JUMPI PUSH0 DUP1 REVERT JUMPDEST POP PUSH2 0x24A DUP1 PUSH2 0x1C PUSH0 CODECOPY PUSH0 RETURN INVALID PUSH1 0x80 PUSH1 0x40 MSTORE CALLVALUE DUP1 ISZERO PUSH2 0xF JUMPI PUSH0 DUP1 REVERT JUMPDEST POP PUSH1 0x4 CALLDATASIZE LT PUSH2 0x34 JUMPI PUSH0 CALLDATALOAD PUSH1 0xE0 SHR DUP1 PUSH4 0x2D1FB389 EQ PUSH2 0x38 JUMPI DUP1 PUSH4 0xA87430BA EQ PUSH2 0x54 JUMPI JUMPDEST PUSH0 DUP1 REVERT JUMPDEST PUSH2 0x52 PUSH1 0x4 DUP1 CALLDATASIZE SUB DUP2 ADD SWAP1 PUSH2 0x4D SWAP2 SWAP1 PUSH2 0x166 JUMP JUMPDEST PUSH2 0x85 JUMP JUMPDEST STOP JUMPDEST PUSH2 0x6E PUSH1 0x4 DUP1 CALLDATASIZE SUB DUP2 ADD SWAP1 PUSH2 0x69 SWAP2 SWAP1 PUSH2 0x1A4 JUMP JUMPDEST PUSH2 0x89 JUMP JUMPDEST PUSH1 0x40 MLOAD PUSH2 0x7C SWAP3 SWAP2 SWAP1 PUSH2 0x1ED JUMP JUMPDEST PUSH1 0x40 MLOAD DUP1 SWAP2 SUB SWAP1 RETURN JUMPDEST POP POP JUMP JUMPDEST PUSH0 PUSH1 0x20 MSTORE DUP1 PUSH0 MSTORE PUSH1 0x40 PUSH0 KECCAK256 PUSH0 SWAP2 POP SWAP1 POP DUP1 PUSH0 ADD PUSH0 SWAP1 SLOAD SWAP1 PUSH2 0x100 EXP SWAP1 DIV PUSH20 0xFFFFFFFFFFFFFFFFFFFFFFFFFFFFFFFFFFFFFFFF AND SWAP1 DUP1 PUSH0 ADD PUSH1 0x14 SWAP1 SLOAD SWAP1 PUSH2 0x100 EXP SWAP1 DIV PUSH1 0xFF AND SWAP1 POP DUP3 JUMP JUMPDEST PUSH0 DUP1 REVERT JUMPDEST PUSH0 PUSH20 0xFFFFFFFFFFFFFFFFFFFFFFFFFFFFFFFFFFFFFFFF DUP3 AND SWAP1 POP SWAP2 SWAP1 POP JUMP JUMPDEST PUSH0 PUSH2 0x100 DUP3 PUSH2 0xD7 JUMP JUMPDEST SWAP1 POP SWAP2 SWAP1 POP JUMP JUMPDEST PUSH2 0x110 DUP2 PUSH2 0xF6 JUMP JUMPDEST DUP2 EQ PUSH2 0x11A JUMPI PUSH0 DUP1 REVERT JUMPDEST POP JUMP JUMPDEST PUSH0 DUP2 CALLDATALOAD SWAP1 POP PUSH2 0x12B DUP2 PUSH2 0x107 JUMP JUMPDEST SWAP3 SWAP2 POP POP JUMP JUMPDEST PUSH0 DUP2 ISZERO ISZERO SWAP1 POP SWAP2 SWAP1 POP JUMP JUMPDEST PUSH2 0x145 DUP2 PUSH2 0x131 JUMP JUMPDEST DUP2 EQ PUSH2 0x14F JUMPI PUSH0 DUP1 REVERT JUMPDEST POP JUMP JUMPDEST PUSH0 DUP2 CALLDATALOAD SWAP1 POP PUSH2 0x160 DUP2 PUSH2 0x13C JUMP JUMPDEST SWAP3 SWAP2 POP POP JUMP JUMPDEST PUSH0 DUP1 PUSH1 0x40 DUP4 DUP6 SUB SLT ISZERO PUSH2 0x17C JUMPI PUSH2 0x17B PUSH2 0xD3 JUMP JUMPDEST JUMPDEST PUSH0 PUSH2 0x189 DUP6 DUP3 DUP7 ADD PUSH2 0x11D JUMP JUMPDEST SWAP3 POP POP PUSH1 0x20 PUSH2 0x19A DUP6 DUP3 DUP7 ADD PUSH2 0x152 JUMP JUMPDEST SWAP2 POP POP SWAP3 POP SWAP3 SWAP1 POP JUMP JUMPDEST PUSH0 PUSH1 0x20 DUP3 DUP5 SUB SLT ISZERO PUSH2 0x1B9 JUMPI PUSH2 0x1B8 PUSH2 0xD3 JUMP JUMPDEST JUMPDEST PUSH0 PUSH2 0x1C6 DUP5 DUP3 DUP6 ADD PUSH2 0x11D JUMP JUMPDEST SWAP2 POP POP SWAP3 SWAP2 POP POP JUMP JUMPDEST PUSH2 0x1D8 DUP2 PUSH2 0xF6 JUMP JUMPDEST DUP3 MSTORE POP POP JUMP JUMPDEST PUSH2 0x1E7 DUP2 PUSH2 0x131 JUMP JUMPDEST DUP3 MSTORE POP POP JUMP JUMPDEST PUSH0 PUSH1 0x40 DUP3 ADD SWAP1 POP PUSH2 0x200 PUSH0 DUP4 ADD DUP6 PUSH2 0x1CF JUMP JUMPDEST PUSH2 0x20D PUSH1 0x20 DUP4 ADD DUP5 PUSH2 0x1DE JUMP JUMPDEST SWAP4 SWAP3 POP POP POP JUMP INVALID LOG2 PUSH5 0x6970667358 0x22 SLT KECCAK256 PUSH6 0x2E52672BB7D4 PUSH13 0x2DFE5F943B95A33AD5FEF4869E EXTCODESIZE 0xC PUSH11 0x3438590CAA79151C64736F PUSH13 0x634300081A0033000000000000 "
				},
				"gasEstimates": {
					"creation": {
						"codeDepositCost": "117200",
						"executionCost": "163",
						"totalCost": "117363"
					},
					"external": {
						"authorize(address,bool)": "604",
						"users(address)": "infinite"
					}
				},
				"methodIdentifiers": {
					"authorize(address,bool)": "2d1fb389",
					"users(address)": "a87430ba"
				}
			},
			"storageLayout": {
				"storage": [
					{
						"astId": 11,
						"contract": "contracts/Twitter-Assignment/twitter_3.sol:Twitter",
						"label": "users",
						"offset": 0,
						"slot": "0",
						"type": "t_mapping(t_address,t_struct(User)6_storage)"
					}
				],
				"types": {
					"t_address": {
						"encoding": "inplace",
						"label": "address",
						"numberOfBytes": "20"
					},
					"t_bool": {
						"encoding": "inplace",
						"label": "bool",
						"numberOfBytes": "1"
					},
					"t_mapping(t_address,t_struct(User)6_storage)": {
						"encoding": "mapping",
						"key": "t_address",
						"label": "mapping(address => struct Twitter.User)",
						"numberOfBytes": "32",
						"value": "t_struct(User)6_storage"
					},
					"t_struct(User)6_storage": {
						"encoding": "inplace",
						"label": "struct Twitter.User",
						"members": [
							{
								"astId": 3,
								"contract": "contracts/Twitter-Assignment/twitter_3.sol:Twitter",
								"label": "user",
								"offset": 0,
								"slot": "0",
								"type": "t_address"
							},
							{
								"astId": 5,
								"contract": "contracts/Twitter-Assignment/twitter_3.sol:Twitter",
								"label": "status",
								"offset": 20,
								"slot": "0",
								"type": "t_bool"
							}
						],
						"numberOfBytes": "32"
					}
				}
			},
			"userdoc": {
				"kind": "user",
				"methods": {},
				"version": 1
			}
		}
	}
}