{
	"contracts/Twitter-Assignment/twitter1.sol": {
		"Twitter": {
			"abi": [
				{
					"inputs": [
						{
							"internalType": "string",
							"name": "_post",
							"type": "string"
						},
						{
							"internalType": "address",
							"name": "_userAdd",
							"type": "address"
						}
					],
					"name": "Tweet",
					"outputs": [],
					"stateMutability": "nonpayable",
					"type": "function"
				},
				{
					"inputs": [
						{
							"internalType": "address",
							"name": "",
							"type": "address"
						}
					],
					"name": "users",
					"outputs": [
						{
							"internalType": "string",
							"name": "post",
							"type": "string"
						},
						{
							"internalType": "address",
							"name": "userAdd",
							"type": "address"
						},
						{
							"internalType": "uint256",
							"name": "time",
							"type": "uint256"
						}
					],
					"stateMutability": "view",
					"type": "function"
				}
			],
			"devdoc": {
				"kind": "dev",
				"methods": {},
				"version": 1
			},
			"evm": {
				"assembly": "    /* \"contracts/Twitter-Assignment/twitter1.sol\":72:650  contract Twitter {... */\n  mstore(0x40, 0x80)\n  callvalue\n  dup1\n  iszero\n  tag_1\n  jumpi\n  0x00\n  dup1\n  revert\ntag_1:\n  pop\n  dataSize(sub_0)\n  dup1\n  dataOffset(sub_0)\n  0x00\n  codecopy\n  0x00\n  return\nstop\n\nsub_0: assembly {\n        /* \"contracts/Twitter-Assignment/twitter1.sol\":72:650  contract Twitter {... */\n      mstore(0x40, 0x80)\n      callvalue\n      dup1\n      iszero\n      tag_1\n      jumpi\n      0x00\n      dup1\n      revert\n    tag_1:\n      pop\n      jumpi(tag_2, lt(calldatasize, 0x04))\n      shr(0xe0, calldataload(0x00))\n      dup1\n      0x5e6abd5f\n      eq\n      tag_3\n      jumpi\n      dup1\n      0xa87430ba\n      eq\n      tag_4\n      jumpi\n    tag_2:\n      0x00\n      dup1\n      revert\n        /* \"contracts/Twitter-Assignment/twitter1.sol\":425:633  function Tweet(string calldata _post, address _userAdd) public {... */\n    tag_3:\n      tag_5\n      0x04\n      dup1\n      calldatasize\n      sub\n      dup2\n      add\n      swap1\n      tag_6\n      swap2\n      swap1\n      tag_7\n      jump\t// in\n    tag_6:\n      tag_8\n      jump\t// in\n    tag_5:\n      stop\n        /* \"contracts/Twitter-Assignment/twitter1.sol\":380:416  mapping (address=>User) public users */\n    tag_4:\n      tag_9\n      0x04\n      dup1\n      calldatasize\n      sub\n      dup2\n      add\n      swap1\n      tag_10\n      swap2\n      swap1\n      tag_11\n      jump\t// in\n    tag_10:\n      tag_12\n      jump\t// in\n    tag_9:\n      mload(0x40)\n      tag_13\n      swap4\n      swap3\n      swap2\n      swap1\n      tag_14\n      jump\t// in\n    tag_13:\n      mload(0x40)\n      dup1\n      swap2\n      sub\n      swap1\n      return\n        /* \"contracts/Twitter-Assignment/twitter1.sol\":425:633  function Tweet(string calldata _post, address _userAdd) public {... */\n    tag_8:\n        /* \"contracts/Twitter-Assignment/twitter1.sol\":517:625  User({... */\n      mload(0x40)\n      dup1\n      0x60\n      add\n      0x40\n      mstore\n      dup1\n        /* \"contracts/Twitter-Assignment/twitter1.sol\":542:547  _post */\n      dup5\n      dup5\n        /* \"contracts/Twitter-Assignment/twitter1.sol\":517:625  User({... */\n      dup1\n      dup1\n      0x1f\n      add\n      0x20\n      dup1\n      swap2\n      div\n      mul\n      0x20\n      add\n      mload(0x40)\n      swap1\n      dup2\n      add\n      0x40\n      mstore\n      dup1\n      swap4\n      swap3\n      swap2\n      swap1\n      dup2\n      dup2\n      mstore\n      0x20\n      add\n      dup4\n      dup4\n      dup1\n      dup3\n      dup5\n      calldatacopy\n      0x00\n      dup2\n      dup5\n      add\n      mstore\n      not(0x1f)\n      0x1f\n      dup3\n      add\n      and\n      swap1\n      pop\n      dup1\n      dup4\n      add\n      swap3\n      pop\n      pop\n      pop\n      pop\n      pop\n      pop\n      pop\n      dup2\n      mstore\n      0x20\n      add\n        /* \"contracts/Twitter-Assignment/twitter1.sol\":570:578  _userAdd */\n      dup3\n        /* \"contracts/Twitter-Assignment/twitter1.sol\":517:625  User({... */\n      0xffffffffffffffffffffffffffffffffffffffff\n      and\n      dup2\n      mstore\n      0x20\n      add\n        /* \"contracts/Twitter-Assignment/twitter1.sol\":598:613  block.timestamp */\n      timestamp\n        /* \"contracts/Twitter-Assignment/twitter1.sol\":517:625  User({... */\n      dup2\n      mstore\n      pop\n        /* \"contracts/Twitter-Assignment/twitter1.sol\":499:504  users */\n      0x00\n        /* \"contracts/Twitter-Assignment/twitter1.sol\":499:514  users[_userAdd] */\n      dup1\n        /* \"contracts/Twitter-Assignment/twitter1.sol\":505:513  _userAdd */\n      dup4\n        /* \"contracts/Twitter-Assignment/twitter1.sol\":499:514  users[_userAdd] */\n      0xffffffffffffffffffffffffffffffffffffffff\n      and\n      0xffffffffffffffffffffffffffffffffffffffff\n      and\n      dup2\n      mstore\n      0x20\n      add\n      swap1\n      dup2\n      mstore\n      0x20\n      add\n      0x00\n      keccak256\n        /* \"contracts/Twitter-Assignment/twitter1.sol\":499:625  users[_userAdd] = User({... */\n      0x00\n      dup3\n      add\n      mload\n      dup2\n      0x00\n      add\n      swap1\n      dup2\n      tag_16\n      swap2\n      swap1\n      tag_17\n      jump\t// in\n    tag_16:\n      pop\n      0x20\n      dup3\n      add\n      mload\n      dup2\n      0x01\n      add\n      exp(0x0100, 0x00)\n      dup2\n      sload\n      dup2\n      0xffffffffffffffffffffffffffffffffffffffff\n      mul\n      not\n      and\n      swap1\n      dup4\n      0xffffffffffffffffffffffffffffffffffffffff\n      and\n      mul\n      or\n      swap1\n      sstore\n      pop\n      0x40\n      dup3\n      add\n      mload\n      dup2\n      0x02\n      add\n      sstore\n      swap1\n      pop\n      pop\n        /* \"contracts/Twitter-Assignment/twitter1.sol\":425:633  function Tweet(string calldata _post, address _userAdd) public {... */\n      pop\n      pop\n      pop\n      jump\t// out\n        /* \"contracts/Twitter-Assignment/twitter1.sol\":380:416  mapping (address=>User) public users */\n    tag_12:\n      mstore(0x20, 0x00)\n      dup1\n      0x00\n      mstore\n      keccak256(0x00, 0x40)\n      0x00\n      swap2\n      pop\n      swap1\n      pop\n      dup1\n      0x00\n      add\n      dup1\n      sload\n      tag_18\n      swap1\n      tag_19\n      jump\t// in\n    tag_18:\n      dup1\n      0x1f\n      add\n      0x20\n      dup1\n      swap2\n      div\n      mul\n      0x20\n      add\n      mload(0x40)\n      swap1\n      dup2\n      add\n      0x40\n      mstore\n      dup1\n      swap3\n      swap2\n      swap1\n      dup2\n      dup2\n      mstore\n      0x20\n      add\n      dup3\n      dup1\n      sload\n      tag_20\n      swap1\n      tag_19\n      jump\t// in\n    tag_20:\n      dup1\n      iszero\n      tag_21\n      jumpi\n      dup1\n      0x1f\n      lt\n      tag_22\n      jumpi\n      0x0100\n      dup1\n      dup4\n      sload\n      div\n      mul\n      dup4\n      mstore\n      swap2\n      0x20\n      add\n      swap2\n      jump(tag_21)\n    tag_22:\n      dup3\n      add\n      swap2\n      swap1\n      0x00\n      mstore\n      keccak256(0x00, 0x20)\n      swap1\n    tag_23:\n      dup2\n      sload\n      dup2\n      mstore\n      swap1\n      0x01\n      add\n      swap1\n      0x20\n      add\n      dup1\n      dup4\n      gt\n      tag_23\n      jumpi\n      dup3\n      swap1\n      sub\n      0x1f\n      and\n      dup3\n      add\n      swap2\n    tag_21:\n      pop\n      pop\n      pop\n      pop\n      pop\n      swap1\n      dup1\n      0x01\n      add\n      0x00\n      swap1\n      sload\n      swap1\n      0x0100\n      exp\n      swap1\n      div\n      0xffffffffffffffffffffffffffffffffffffffff\n      and\n      swap1\n      dup1\n      0x02\n      add\n      sload\n      swap1\n      pop\n      dup4\n      jump\t// out\n        /* \"#utility.yul\":88:205   */\n    tag_25:\n        /* \"#utility.yul\":197:198   */\n      0x00\n        /* \"#utility.yul\":194:195   */\n      dup1\n        /* \"#utility.yul\":187:199   */\n      revert\n        /* \"#utility.yul\":211:328   */\n    tag_26:\n        /* \"#utility.yul\":320:321   */\n      0x00\n        /* \"#utility.yul\":317:318   */\n      dup1\n        /* \"#utility.yul\":310:322   */\n      revert\n        /* \"#utility.yul\":334:451   */\n    tag_27:\n        /* \"#utility.yul\":443:444   */\n      0x00\n        /* \"#utility.yul\":440:441   */\n      dup1\n        /* \"#utility.yul\":433:445   */\n      revert\n        /* \"#utility.yul\":457:574   */\n    tag_28:\n        /* \"#utility.yul\":566:567   */\n      0x00\n        /* \"#utility.yul\":563:564   */\n      dup1\n        /* \"#utility.yul\":556:568   */\n      revert\n        /* \"#utility.yul\":580:697   */\n    tag_29:\n        /* \"#utility.yul\":689:690   */\n      0x00\n        /* \"#utility.yul\":686:687   */\n      dup1\n        /* \"#utility.yul\":679:691   */\n      revert\n        /* \"#utility.yul\":717:1270   */\n    tag_30:\n        /* \"#utility.yul\":775:783   */\n      0x00\n        /* \"#utility.yul\":785:791   */\n      dup1\n        /* \"#utility.yul\":835:838   */\n      dup4\n        /* \"#utility.yul\":828:832   */\n      0x1f\n        /* \"#utility.yul\":820:826   */\n      dup5\n        /* \"#utility.yul\":816:833   */\n      add\n        /* \"#utility.yul\":812:839   */\n      slt\n        /* \"#utility.yul\":802:924   */\n      tag_68\n      jumpi\n        /* \"#utility.yul\":843:922   */\n      tag_69\n      tag_27\n      jump\t// in\n    tag_69:\n        /* \"#utility.yul\":802:924   */\n    tag_68:\n        /* \"#utility.yul\":956:962   */\n      dup3\n        /* \"#utility.yul\":943:963   */\n      calldataload\n        /* \"#utility.yul\":933:963   */\n      swap1\n      pop\n        /* \"#utility.yul\":986:1004   */\n      0xffffffffffffffff\n        /* \"#utility.yul\":978:984   */\n      dup2\n        /* \"#utility.yul\":975:1005   */\n      gt\n        /* \"#utility.yul\":972:1089   */\n      iszero\n      tag_70\n      jumpi\n        /* \"#utility.yul\":1008:1087   */\n      tag_71\n      tag_28\n      jump\t// in\n    tag_71:\n        /* \"#utility.yul\":972:1089   */\n    tag_70:\n        /* \"#utility.yul\":1122:1126   */\n      0x20\n        /* \"#utility.yul\":1114:1120   */\n      dup4\n        /* \"#utility.yul\":1110:1127   */\n      add\n        /* \"#utility.yul\":1098:1127   */\n      swap2\n      pop\n        /* \"#utility.yul\":1176:1179   */\n      dup4\n        /* \"#utility.yul\":1168:1172   */\n      0x01\n        /* \"#utility.yul\":1160:1166   */\n      dup3\n        /* \"#utility.yul\":1156:1173   */\n      mul\n        /* \"#utility.yul\":1146:1154   */\n      dup4\n        /* \"#utility.yul\":1142:1174   */\n      add\n        /* \"#utility.yul\":1139:1180   */\n      gt\n        /* \"#utility.yul\":1136:1264   */\n      iszero\n      tag_72\n      jumpi\n        /* \"#utility.yul\":1183:1262   */\n      tag_73\n      tag_29\n      jump\t// in\n    tag_73:\n        /* \"#utility.yul\":1136:1264   */\n    tag_72:\n        /* \"#utility.yul\":717:1270   */\n      swap3\n      pop\n      swap3\n      swap1\n      pop\n      jump\t// out\n        /* \"#utility.yul\":1276:1402   */\n    tag_31:\n        /* \"#utility.yul\":1313:1320   */\n      0x00\n        /* \"#utility.yul\":1353:1395   */\n      0xffffffffffffffffffffffffffffffffffffffff\n        /* \"#utility.yul\":1346:1351   */\n      dup3\n        /* \"#utility.yul\":1342:1396   */\n      and\n        /* \"#utility.yul\":1331:1396   */\n      swap1\n      pop\n        /* \"#utility.yul\":1276:1402   */\n      swap2\n      swap1\n      pop\n      jump\t// out\n        /* \"#utility.yul\":1408:1504   */\n    tag_32:\n        /* \"#utility.yul\":1445:1452   */\n      0x00\n        /* \"#utility.yul\":1474:1498   */\n      tag_76\n        /* \"#utility.yul\":1492:1497   */\n      dup3\n        /* \"#utility.yul\":1474:1498   */\n      tag_31\n      jump\t// in\n    tag_76:\n        /* \"#utility.yul\":1463:1498   */\n      swap1\n      pop\n        /* \"#utility.yul\":1408:1504   */\n      swap2\n      swap1\n      pop\n      jump\t// out\n        /* \"#utility.yul\":1510:1632   */\n    tag_33:\n        /* \"#utility.yul\":1583:1607   */\n      tag_78\n        /* \"#utility.yul\":1601:1606   */\n      dup2\n        /* \"#utility.yul\":1583:1607   */\n      tag_32\n      jump\t// in\n    tag_78:\n        /* \"#utility.yul\":1576:1581   */\n      dup2\n        /* \"#utility.yul\":1573:1608   */\n      eq\n        /* \"#utility.yul\":1563:1626   */\n      tag_79\n      jumpi\n        /* \"#utility.yul\":1622:1623   */\n      0x00\n        /* \"#utility.yul\":1619:1620   */\n      dup1\n        /* \"#utility.yul\":1612:1624   */\n      revert\n        /* \"#utility.yul\":1563:1626   */\n    tag_79:\n        /* \"#utility.yul\":1510:1632   */\n      pop\n      jump\t// out\n        /* \"#utility.yul\":1638:1777   */\n    tag_34:\n        /* \"#utility.yul\":1684:1689   */\n      0x00\n        /* \"#utility.yul\":1722:1728   */\n      dup2\n        /* \"#utility.yul\":1709:1729   */\n      calldataload\n        /* \"#utility.yul\":1700:1729   */\n      swap1\n      pop\n        /* \"#utility.yul\":1738:1771   */\n      tag_81\n        /* \"#utility.yul\":1765:1770   */\n      dup2\n        /* \"#utility.yul\":1738:1771   */\n      tag_33\n      jump\t// in\n    tag_81:\n        /* \"#utility.yul\":1638:1777   */\n      swap3\n      swap2\n      pop\n      pop\n      jump\t// out\n        /* \"#utility.yul\":1783:2457   */\n    tag_7:\n        /* \"#utility.yul\":1863:1869   */\n      0x00\n        /* \"#utility.yul\":1871:1877   */\n      dup1\n        /* \"#utility.yul\":1879:1885   */\n      0x00\n        /* \"#utility.yul\":1928:1930   */\n      0x40\n        /* \"#utility.yul\":1916:1925   */\n      dup5\n        /* \"#utility.yul\":1907:1914   */\n      dup7\n        /* \"#utility.yul\":1903:1926   */\n      sub\n        /* \"#utility.yul\":1899:1931   */\n      slt\n        /* \"#utility.yul\":1896:2015   */\n      iszero\n      tag_83\n      jumpi\n        /* \"#utility.yul\":1934:2013   */\n      tag_84\n      tag_25\n      jump\t// in\n    tag_84:\n        /* \"#utility.yul\":1896:2015   */\n    tag_83:\n        /* \"#utility.yul\":2082:2083   */\n      0x00\n        /* \"#utility.yul\":2071:2080   */\n      dup5\n        /* \"#utility.yul\":2067:2084   */\n      add\n        /* \"#utility.yul\":2054:2085   */\n      calldataload\n        /* \"#utility.yul\":2112:2130   */\n      0xffffffffffffffff\n        /* \"#utility.yul\":2104:2110   */\n      dup2\n        /* \"#utility.yul\":2101:2131   */\n      gt\n        /* \"#utility.yul\":2098:2215   */\n      iszero\n      tag_85\n      jumpi\n        /* \"#utility.yul\":2134:2213   */\n      tag_86\n      tag_26\n      jump\t// in\n    tag_86:\n        /* \"#utility.yul\":2098:2215   */\n    tag_85:\n        /* \"#utility.yul\":2247:2312   */\n      tag_87\n        /* \"#utility.yul\":2304:2311   */\n      dup7\n        /* \"#utility.yul\":2295:2301   */\n      dup3\n        /* \"#utility.yul\":2284:2293   */\n      dup8\n        /* \"#utility.yul\":2280:2302   */\n      add\n        /* \"#utility.yul\":2247:2312   */\n      tag_30\n      jump\t// in\n    tag_87:\n        /* \"#utility.yul\":2229:2312   */\n      swap4\n      pop\n      swap4\n      pop\n        /* \"#utility.yul\":2025:2322   */\n      pop\n        /* \"#utility.yul\":2361:2363   */\n      0x20\n        /* \"#utility.yul\":2387:2440   */\n      tag_88\n        /* \"#utility.yul\":2432:2439   */\n      dup7\n        /* \"#utility.yul\":2423:2429   */\n      dup3\n        /* \"#utility.yul\":2412:2421   */\n      dup8\n        /* \"#utility.yul\":2408:2430   */\n      add\n        /* \"#utility.yul\":2387:2440   */\n      tag_34\n      jump\t// in\n    tag_88:\n        /* \"#utility.yul\":2377:2440   */\n      swap2\n      pop\n        /* \"#utility.yul\":2332:2450   */\n      pop\n        /* \"#utility.yul\":1783:2457   */\n      swap3\n      pop\n      swap3\n      pop\n      swap3\n      jump\t// out\n        /* \"#utility.yul\":2463:2792   */\n    tag_11:\n        /* \"#utility.yul\":2522:2528   */\n      0x00\n        /* \"#utility.yul\":2571:2573   */\n      0x20\n        /* \"#utility.yul\":2559:2568   */\n      dup3\n        /* \"#utility.yul\":2550:2557   */\n      dup5\n        /* \"#utility.yul\":2546:2569   */\n      sub\n        /* \"#utility.yul\":2542:2574   */\n      slt\n        /* \"#utility.yul\":2539:2658   */\n      iszero\n      tag_90\n      jumpi\n        /* \"#utility.yul\":2577:2656   */\n      tag_91\n      tag_25\n      jump\t// in\n    tag_91:\n        /* \"#utility.yul\":2539:2658   */\n    tag_90:\n        /* \"#utility.yul\":2697:2698   */\n      0x00\n        /* \"#utility.yul\":2722:2775   */\n      tag_92\n        /* \"#utility.yul\":2767:2774   */\n      dup5\n        /* \"#utility.yul\":2758:2764   */\n      dup3\n        /* \"#utility.yul\":2747:2756   */\n      dup6\n        /* \"#utility.yul\":2743:2765   */\n      add\n        /* \"#utility.yul\":2722:2775   */\n      tag_34\n      jump\t// in\n    tag_92:\n        /* \"#utility.yul\":2712:2775   */\n      swap2\n      pop\n        /* \"#utility.yul\":2668:2785   */\n      pop\n        /* \"#utility.yul\":2463:2792   */\n      swap3\n      swap2\n      pop\n      pop\n      jump\t// out\n        /* \"#utility.yul\":2798:2897   */\n    tag_35:\n        /* \"#utility.yul\":2850:2856   */\n      0x00\n        /* \"#utility.yul\":2884:2889   */\n      dup2\n        /* \"#utility.yul\":2878:2890   */\n      mload\n        /* \"#utility.yul\":2868:2890   */\n      swap1\n      pop\n        /* \"#utility.yul\":2798:2897   */\n      swap2\n      swap1\n      pop\n      jump\t// out\n        /* \"#utility.yul\":2903:3072   */\n    tag_36:\n        /* \"#utility.yul\":2987:2998   */\n      0x00\n        /* \"#utility.yul\":3021:3027   */\n      dup3\n        /* \"#utility.yul\":3016:3019   */\n      dup3\n        /* \"#utility.yul\":3009:3028   */\n      mstore\n        /* \"#utility.yul\":3061:3065   */\n      0x20\n        /* \"#utility.yul\":3056:3059   */\n      dup3\n        /* \"#utility.yul\":3052:3066   */\n      add\n        /* \"#utility.yul\":3037:3066   */\n      swap1\n      pop\n        /* \"#utility.yul\":2903:3072   */\n      swap3\n      swap2\n      pop\n      pop\n      jump\t// out\n        /* \"#utility.yul\":3078:3217   */\n    tag_37:\n        /* \"#utility.yul\":3167:3173   */\n      dup3\n        /* \"#utility.yul\":3162:3165   */\n      dup2\n        /* \"#utility.yul\":3157:3160   */\n      dup4\n        /* \"#utility.yul\":3151:3174   */\n      mcopy\n        /* \"#utility.yul\":3208:3209   */\n      0x00\n        /* \"#utility.yul\":3199:3205   */\n      dup4\n        /* \"#utility.yul\":3194:3197   */\n      dup4\n        /* \"#utility.yul\":3190:3206   */\n      add\n        /* \"#utility.yul\":3183:3210   */\n      mstore\n        /* \"#utility.yul\":3078:3217   */\n      pop\n      pop\n      pop\n      jump\t// out\n        /* \"#utility.yul\":3223:3325   */\n    tag_38:\n        /* \"#utility.yul\":3264:3270   */\n      0x00\n        /* \"#utility.yul\":3315:3317   */\n      0x1f\n        /* \"#utility.yul\":3311:3318   */\n      not\n        /* \"#utility.yul\":3306:3308   */\n      0x1f\n        /* \"#utility.yul\":3299:3304   */\n      dup4\n        /* \"#utility.yul\":3295:3309   */\n      add\n        /* \"#utility.yul\":3291:3319   */\n      and\n        /* \"#utility.yul\":3281:3319   */\n      swap1\n      pop\n        /* \"#utility.yul\":3223:3325   */\n      swap2\n      swap1\n      pop\n      jump\t// out\n        /* \"#utility.yul\":3331:3708   */\n    tag_39:\n        /* \"#utility.yul\":3419:3422   */\n      0x00\n        /* \"#utility.yul\":3447:3486   */\n      tag_98\n        /* \"#utility.yul\":3480:3485   */\n      dup3\n        /* \"#utility.yul\":3447:3486   */\n      tag_35\n      jump\t// in\n    tag_98:\n        /* \"#utility.yul\":3502:3573   */\n      tag_99\n        /* \"#utility.yul\":3566:3572   */\n      dup2\n        /* \"#utility.yul\":3561:3564   */\n      dup6\n        /* \"#utility.yul\":3502:3573   */\n      tag_36\n      jump\t// in\n    tag_99:\n        /* \"#utility.yul\":3495:3573   */\n      swap4\n      pop\n        /* \"#utility.yul\":3582:3647   */\n      tag_100\n        /* \"#utility.yul\":3640:3646   */\n      dup2\n        /* \"#utility.yul\":3635:3638   */\n      dup6\n        /* \"#utility.yul\":3628:3632   */\n      0x20\n        /* \"#utility.yul\":3621:3626   */\n      dup7\n        /* \"#utility.yul\":3617:3633   */\n      add\n        /* \"#utility.yul\":3582:3647   */\n      tag_37\n      jump\t// in\n    tag_100:\n        /* \"#utility.yul\":3672:3701   */\n      tag_101\n        /* \"#utility.yul\":3694:3700   */\n      dup2\n        /* \"#utility.yul\":3672:3701   */\n      tag_38\n      jump\t// in\n    tag_101:\n        /* \"#utility.yul\":3667:3670   */\n      dup5\n        /* \"#utility.yul\":3663:3702   */\n      add\n        /* \"#utility.yul\":3656:3702   */\n      swap2\n      pop\n        /* \"#utility.yul\":3423:3708   */\n      pop\n        /* \"#utility.yul\":3331:3708   */\n      swap3\n      swap2\n      pop\n      pop\n      jump\t// out\n        /* \"#utility.yul\":3714:3832   */\n    tag_40:\n        /* \"#utility.yul\":3801:3825   */\n      tag_103\n        /* \"#utility.yul\":3819:3824   */\n      dup2\n        /* \"#utility.yul\":3801:3825   */\n      tag_32\n      jump\t// in\n    tag_103:\n        /* \"#utility.yul\":3796:3799   */\n      dup3\n        /* \"#utility.yul\":3789:3826   */\n      mstore\n        /* \"#utility.yul\":3714:3832   */\n      pop\n      pop\n      jump\t// out\n        /* \"#utility.yul\":3838:3915   */\n    tag_41:\n        /* \"#utility.yul\":3875:3882   */\n      0x00\n        /* \"#utility.yul\":3904:3909   */\n      dup2\n        /* \"#utility.yul\":3893:3909   */\n      swap1\n      pop\n        /* \"#utility.yul\":3838:3915   */\n      swap2\n      swap1\n      pop\n      jump\t// out\n        /* \"#utility.yul\":3921:4039   */\n    tag_42:\n        /* \"#utility.yul\":4008:4032   */\n      tag_106\n        /* \"#utility.yul\":4026:4031   */\n      dup2\n        /* \"#utility.yul\":4008:4032   */\n      tag_41\n      jump\t// in\n    tag_106:\n        /* \"#utility.yul\":4003:4006   */\n      dup3\n        /* \"#utility.yul\":3996:4033   */\n      mstore\n        /* \"#utility.yul\":3921:4039   */\n      pop\n      pop\n      jump\t// out\n        /* \"#utility.yul\":4045:4578   */\n    tag_14:\n        /* \"#utility.yul\":4214:4218   */\n      0x00\n        /* \"#utility.yul\":4252:4254   */\n      0x60\n        /* \"#utility.yul\":4241:4250   */\n      dup3\n        /* \"#utility.yul\":4237:4255   */\n      add\n        /* \"#utility.yul\":4229:4255   */\n      swap1\n      pop\n        /* \"#utility.yul\":4301:4310   */\n      dup2\n        /* \"#utility.yul\":4295:4299   */\n      dup2\n        /* \"#utility.yul\":4291:4311   */\n      sub\n        /* \"#utility.yul\":4287:4288   */\n      0x00\n        /* \"#utility.yul\":4276:4285   */\n      dup4\n        /* \"#utility.yul\":4272:4289   */\n      add\n        /* \"#utility.yul\":4265:4312   */\n      mstore\n        /* \"#utility.yul\":4329:4407   */\n      tag_108\n        /* \"#utility.yul\":4402:4406   */\n      dup2\n        /* \"#utility.yul\":4393:4399   */\n      dup7\n        /* \"#utility.yul\":4329:4407   */\n      tag_39\n      jump\t// in\n    tag_108:\n        /* \"#utility.yul\":4321:4407   */\n      swap1\n      pop\n        /* \"#utility.yul\":4417:4489   */\n      tag_109\n        /* \"#utility.yul\":4485:4487   */\n      0x20\n        /* \"#utility.yul\":4474:4483   */\n      dup4\n        /* \"#utility.yul\":4470:4488   */\n      add\n        /* \"#utility.yul\":4461:4467   */\n      dup6\n        /* \"#utility.yul\":4417:4489   */\n      tag_40\n      jump\t// in\n    tag_109:\n        /* \"#utility.yul\":4499:4571   */\n      tag_110\n        /* \"#utility.yul\":4567:4569   */\n      0x40\n        /* \"#utility.yul\":4556:4565   */\n      dup4\n        /* \"#utility.yul\":4552:4570   */\n      add\n        /* \"#utility.yul\":4543:4549   */\n      dup5\n        /* \"#utility.yul\":4499:4571   */\n      tag_42\n      jump\t// in\n    tag_110:\n        /* \"#utility.yul\":4045:4578   */\n      swap5\n      swap4\n      pop\n      pop\n      pop\n      pop\n      jump\t// out\n        /* \"#utility.yul\":4584:4764   */\n    tag_43:\n        /* \"#utility.yul\":4632:4709   */\n      0x4e487b7100000000000000000000000000000000000000000000000000000000\n        /* \"#utility.yul\":4629:4630   */\n      0x00\n        /* \"#utility.yul\":4622:4710   */\n      mstore\n        /* \"#utility.yul\":4729:4733   */\n      0x41\n        /* \"#utility.yul\":4726:4727   */\n      0x04\n        /* \"#utility.yul\":4719:4734   */\n      mstore\n        /* \"#utility.yul\":4753:4757   */\n      0x24\n        /* \"#utility.yul\":4750:4751   */\n      0x00\n        /* \"#utility.yul\":4743:4758   */\n      revert\n        /* \"#utility.yul\":4770:4950   */\n    tag_44:\n        /* \"#utility.yul\":4818:4895   */\n      0x4e487b7100000000000000000000000000000000000000000000000000000000\n        /* \"#utility.yul\":4815:4816   */\n      0x00\n        /* \"#utility.yul\":4808:4896   */\n      mstore\n        /* \"#utility.yul\":4915:4919   */\n      0x22\n        /* \"#utility.yul\":4912:4913   */\n      0x04\n        /* \"#utility.yul\":4905:4920   */\n      mstore\n        /* \"#utility.yul\":4939:4943   */\n      0x24\n        /* \"#utility.yul\":4936:4937   */\n      0x00\n        /* \"#utility.yul\":4929:4944   */\n      revert\n        /* \"#utility.yul\":4956:5276   */\n    tag_19:\n        /* \"#utility.yul\":5000:5006   */\n      0x00\n        /* \"#utility.yul\":5037:5038   */\n      0x02\n        /* \"#utility.yul\":5031:5035   */\n      dup3\n        /* \"#utility.yul\":5027:5039   */\n      div\n        /* \"#utility.yul\":5017:5039   */\n      swap1\n      pop\n        /* \"#utility.yul\":5084:5085   */\n      0x01\n        /* \"#utility.yul\":5078:5082   */\n      dup3\n        /* \"#utility.yul\":5074:5086   */\n      and\n        /* \"#utility.yul\":5105:5123   */\n      dup1\n        /* \"#utility.yul\":5095:5176   */\n      tag_114\n      jumpi\n        /* \"#utility.yul\":5161:5165   */\n      0x7f\n        /* \"#utility.yul\":5153:5159   */\n      dup3\n        /* \"#utility.yul\":5149:5166   */\n      and\n        /* \"#utility.yul\":5139:5166   */\n      swap2\n      pop\n        /* \"#utility.yul\":5095:5176   */\n    tag_114:\n        /* \"#utility.yul\":5223:5225   */\n      0x20\n        /* \"#utility.yul\":5215:5221   */\n      dup3\n        /* \"#utility.yul\":5212:5226   */\n      lt\n        /* \"#utility.yul\":5192:5210   */\n      dup2\n        /* \"#utility.yul\":5189:5227   */\n      sub\n        /* \"#utility.yul\":5186:5270   */\n      tag_115\n      jumpi\n        /* \"#utility.yul\":5242:5260   */\n      tag_116\n      tag_44\n      jump\t// in\n    tag_116:\n        /* \"#utility.yul\":5186:5270   */\n    tag_115:\n        /* \"#utility.yul\":5007:5276   */\n      pop\n        /* \"#utility.yul\":4956:5276   */\n      swap2\n      swap1\n      pop\n      jump\t// out\n        /* \"#utility.yul\":5282:5423   */\n    tag_45:\n        /* \"#utility.yul\":5331:5335   */\n      0x00\n        /* \"#utility.yul\":5354:5357   */\n      dup2\n        /* \"#utility.yul\":5346:5357   */\n      swap1\n      pop\n        /* \"#utility.yul\":5377:5380   */\n      dup2\n        /* \"#utility.yul\":5374:5375   */\n      0x00\n        /* \"#utility.yul\":5367:5381   */\n      mstore\n        /* \"#utility.yul\":5411:5415   */\n      0x20\n        /* \"#utility.yul\":5408:5409   */\n      0x00\n        /* \"#utility.yul\":5398:5416   */\n      keccak256\n        /* \"#utility.yul\":5390:5416   */\n      swap1\n      pop\n        /* \"#utility.yul\":5282:5423   */\n      swap2\n      swap1\n      pop\n      jump\t// out\n        /* \"#utility.yul\":5429:5522   */\n    tag_46:\n        /* \"#utility.yul\":5466:5472   */\n      0x00\n        /* \"#utility.yul\":5513:5515   */\n      0x20\n        /* \"#utility.yul\":5508:5510   */\n      0x1f\n        /* \"#utility.yul\":5501:5506   */\n      dup4\n        /* \"#utility.yul\":5497:5511   */\n      add\n        /* \"#utility.yul\":5493:5516   */\n      div\n        /* \"#utility.yul\":5483:5516   */\n      swap1\n      pop\n        /* \"#utility.yul\":5429:5522   */\n      swap2\n      swap1\n      pop\n      jump\t// out\n        /* \"#utility.yul\":5528:5635   */\n    tag_47:\n        /* \"#utility.yul\":5572:5580   */\n      0x00\n        /* \"#utility.yul\":5622:5627   */\n      dup3\n        /* \"#utility.yul\":5616:5620   */\n      dup3\n        /* \"#utility.yul\":5612:5628   */\n      shl\n        /* \"#utility.yul\":5591:5628   */\n      swap1\n      pop\n        /* \"#utility.yul\":5528:5635   */\n      swap3\n      swap2\n      pop\n      pop\n      jump\t// out\n        /* \"#utility.yul\":5641:6034   */\n    tag_48:\n        /* \"#utility.yul\":5710:5716   */\n      0x00\n        /* \"#utility.yul\":5760:5761   */\n      0x08\n        /* \"#utility.yul\":5748:5758   */\n      dup4\n        /* \"#utility.yul\":5744:5762   */\n      mul\n        /* \"#utility.yul\":5783:5880   */\n      tag_121\n        /* \"#utility.yul\":5813:5879   */\n      0xffffffffffffffffffffffffffffffffffffffffffffffffffffffffffffffff\n        /* \"#utility.yul\":5802:5811   */\n      dup3\n        /* \"#utility.yul\":5783:5880   */\n      tag_47\n      jump\t// in\n    tag_121:\n        /* \"#utility.yul\":5901:5940   */\n      tag_122\n        /* \"#utility.yul\":5931:5939   */\n      dup7\n        /* \"#utility.yul\":5920:5929   */\n      dup4\n        /* \"#utility.yul\":5901:5940   */\n      tag_47\n      jump\t// in\n    tag_122:\n        /* \"#utility.yul\":5889:5940   */\n      swap6\n      pop\n        /* \"#utility.yul\":5973:5977   */\n      dup1\n        /* \"#utility.yul\":5969:5978   */\n      not\n        /* \"#utility.yul\":5962:5967   */\n      dup5\n        /* \"#utility.yul\":5958:5979   */\n      and\n        /* \"#utility.yul\":5949:5979   */\n      swap4\n      pop\n        /* \"#utility.yul\":6022:6026   */\n      dup1\n        /* \"#utility.yul\":6012:6020   */\n      dup7\n        /* \"#utility.yul\":6008:6027   */\n      and\n        /* \"#utility.yul\":6001:6006   */\n      dup5\n        /* \"#utility.yul\":5998:6028   */\n      or\n        /* \"#utility.yul\":5988:6028   */\n      swap3\n      pop\n        /* \"#utility.yul\":5717:6034   */\n      pop\n      pop\n        /* \"#utility.yul\":5641:6034   */\n      swap4\n      swap3\n      pop\n      pop\n      pop\n      jump\t// out\n        /* \"#utility.yul\":6040:6100   */\n    tag_49:\n        /* \"#utility.yul\":6068:6071   */\n      0x00\n        /* \"#utility.yul\":6089:6094   */\n      dup2\n        /* \"#utility.yul\":6082:6094   */\n      swap1\n      pop\n        /* \"#utility.yul\":6040:6100   */\n      swap2\n      swap1\n      pop\n      jump\t// out\n        /* \"#utility.yul\":6106:6248   */\n    tag_50:\n        /* \"#utility.yul\":6156:6165   */\n      0x00\n        /* \"#utility.yul\":6189:6242   */\n      tag_125\n        /* \"#utility.yul\":6207:6241   */\n      tag_126\n        /* \"#utility.yul\":6216:6240   */\n      tag_127\n        /* \"#utility.yul\":6234:6239   */\n      dup5\n        /* \"#utility.yul\":6216:6240   */\n      tag_41\n      jump\t// in\n    tag_127:\n        /* \"#utility.yul\":6207:6241   */\n      tag_49\n      jump\t// in\n    tag_126:\n        /* \"#utility.yul\":6189:6242   */\n      tag_41\n      jump\t// in\n    tag_125:\n        /* \"#utility.yul\":6176:6242   */\n      swap1\n      pop\n        /* \"#utility.yul\":6106:6248   */\n      swap2\n      swap1\n      pop\n      jump\t// out\n        /* \"#utility.yul\":6254:6329   */\n    tag_51:\n        /* \"#utility.yul\":6297:6300   */\n      0x00\n        /* \"#utility.yul\":6318:6323   */\n      dup2\n        /* \"#utility.yul\":6311:6323   */\n      swap1\n      pop\n        /* \"#utility.yul\":6254:6329   */\n      swap2\n      swap1\n      pop\n      jump\t// out\n        /* \"#utility.yul\":6335:6604   */\n    tag_52:\n        /* \"#utility.yul\":6445:6484   */\n      tag_130\n        /* \"#utility.yul\":6476:6483   */\n      dup4\n        /* \"#utility.yul\":6445:6484   */\n      tag_50\n      jump\t// in\n    tag_130:\n        /* \"#utility.yul\":6506:6597   */\n      tag_131\n        /* \"#utility.yul\":6555:6596   */\n      tag_132\n        /* \"#utility.yul\":6579:6595   */\n      dup3\n        /* \"#utility.yul\":6555:6596   */\n      tag_51\n      jump\t// in\n    tag_132:\n        /* \"#utility.yul\":6547:6553   */\n      dup5\n        /* \"#utility.yul\":6540:6544   */\n      dup5\n        /* \"#utility.yul\":6534:6545   */\n      sload\n        /* \"#utility.yul\":6506:6597   */\n      tag_48\n      jump\t// in\n    tag_131:\n        /* \"#utility.yul\":6500:6504   */\n      dup3\n        /* \"#utility.yul\":6493:6598   */\n      sstore\n        /* \"#utility.yul\":6411:6604   */\n      pop\n        /* \"#utility.yul\":6335:6604   */\n      pop\n      pop\n      pop\n      jump\t// out\n        /* \"#utility.yul\":6610:6683   */\n    tag_53:\n        /* \"#utility.yul\":6655:6658   */\n      0x00\n        /* \"#utility.yul\":6610:6683   */\n      swap1\n      jump\t// out\n        /* \"#utility.yul\":6689:6878   */\n    tag_54:\n        /* \"#utility.yul\":6766:6798   */\n      tag_135\n      tag_53\n      jump\t// in\n    tag_135:\n        /* \"#utility.yul\":6807:6872   */\n      tag_136\n        /* \"#utility.yul\":6865:6871   */\n      dup2\n        /* \"#utility.yul\":6857:6863   */\n      dup5\n        /* \"#utility.yul\":6851:6855   */\n      dup5\n        /* \"#utility.yul\":6807:6872   */\n      tag_52\n      jump\t// in\n    tag_136:\n        /* \"#utility.yul\":6742:6878   */\n      pop\n        /* \"#utility.yul\":6689:6878   */\n      pop\n      pop\n      jump\t// out\n        /* \"#utility.yul\":6884:7070   */\n    tag_55:\n        /* \"#utility.yul\":6944:7064   */\n    tag_138:\n        /* \"#utility.yul\":6961:6964   */\n      dup2\n        /* \"#utility.yul\":6954:6959   */\n      dup2\n        /* \"#utility.yul\":6951:6965   */\n      lt\n        /* \"#utility.yul\":6944:7064   */\n      iszero\n      tag_140\n      jumpi\n        /* \"#utility.yul\":7015:7054   */\n      tag_141\n        /* \"#utility.yul\":7052:7053   */\n      0x00\n        /* \"#utility.yul\":7045:7050   */\n      dup3\n        /* \"#utility.yul\":7015:7054   */\n      tag_54\n      jump\t// in\n    tag_141:\n        /* \"#utility.yul\":6988:6989   */\n      0x01\n        /* \"#utility.yul\":6981:6986   */\n      dup2\n        /* \"#utility.yul\":6977:6990   */\n      add\n        /* \"#utility.yul\":6968:6990   */\n      swap1\n      pop\n        /* \"#utility.yul\":6944:7064   */\n      jump(tag_138)\n    tag_140:\n        /* \"#utility.yul\":6884:7070   */\n      pop\n      pop\n      jump\t// out\n        /* \"#utility.yul\":7076:7619   */\n    tag_56:\n        /* \"#utility.yul\":7177:7179   */\n      0x1f\n        /* \"#utility.yul\":7172:7175   */\n      dup3\n        /* \"#utility.yul\":7169:7180   */\n      gt\n        /* \"#utility.yul\":7166:7612   */\n      iszero\n      tag_143\n      jumpi\n        /* \"#utility.yul\":7211:7249   */\n      tag_144\n        /* \"#utility.yul\":7243:7248   */\n      dup2\n        /* \"#utility.yul\":7211:7249   */\n      tag_45\n      jump\t// in\n    tag_144:\n        /* \"#utility.yul\":7295:7324   */\n      tag_145\n        /* \"#utility.yul\":7313:7323   */\n      dup5\n        /* \"#utility.yul\":7295:7324   */\n      tag_46\n      jump\t// in\n    tag_145:\n        /* \"#utility.yul\":7285:7293   */\n      dup2\n        /* \"#utility.yul\":7281:7325   */\n      add\n        /* \"#utility.yul\":7478:7480   */\n      0x20\n        /* \"#utility.yul\":7466:7476   */\n      dup6\n        /* \"#utility.yul\":7463:7481   */\n      lt\n        /* \"#utility.yul\":7460:7509   */\n      iszero\n      tag_146\n      jumpi\n        /* \"#utility.yul\":7499:7507   */\n      dup2\n        /* \"#utility.yul\":7484:7507   */\n      swap1\n      pop\n        /* \"#utility.yul\":7460:7509   */\n    tag_146:\n        /* \"#utility.yul\":7522:7602   */\n      tag_147\n        /* \"#utility.yul\":7578:7600   */\n      tag_148\n        /* \"#utility.yul\":7596:7599   */\n      dup6\n        /* \"#utility.yul\":7578:7600   */\n      tag_46\n      jump\t// in\n    tag_148:\n        /* \"#utility.yul\":7568:7576   */\n      dup4\n        /* \"#utility.yul\":7564:7601   */\n      add\n        /* \"#utility.yul\":7551:7562   */\n      dup3\n        /* \"#utility.yul\":7522:7602   */\n      tag_55\n      jump\t// in\n    tag_147:\n        /* \"#utility.yul\":7181:7612   */\n      pop\n      pop\n        /* \"#utility.yul\":7166:7612   */\n    tag_143:\n        /* \"#utility.yul\":7076:7619   */\n      pop\n      pop\n      pop\n      jump\t// out\n        /* \"#utility.yul\":7625:7742   */\n    tag_57:\n        /* \"#utility.yul\":7679:7687   */\n      0x00\n        /* \"#utility.yul\":7729:7734   */\n      dup3\n        /* \"#utility.yul\":7723:7727   */\n      dup3\n        /* \"#utility.yul\":7719:7735   */\n      shr\n        /* \"#utility.yul\":7698:7735   */\n      swap1\n      pop\n        /* \"#utility.yul\":7625:7742   */\n      swap3\n      swap2\n      pop\n      pop\n      jump\t// out\n        /* \"#utility.yul\":7748:7917   */\n    tag_58:\n        /* \"#utility.yul\":7792:7798   */\n      0x00\n        /* \"#utility.yul\":7825:7876   */\n      tag_151\n        /* \"#utility.yul\":7873:7874   */\n      0x00\n        /* \"#utility.yul\":7869:7875   */\n      not\n        /* \"#utility.yul\":7861:7866   */\n      dup5\n        /* \"#utility.yul\":7858:7859   */\n      0x08\n        /* \"#utility.yul\":7854:7867   */\n      mul\n        /* \"#utility.yul\":7825:7876   */\n      tag_57\n      jump\t// in\n    tag_151:\n        /* \"#utility.yul\":7821:7877   */\n      not\n        /* \"#utility.yul\":7906:7910   */\n      dup1\n        /* \"#utility.yul\":7900:7904   */\n      dup4\n        /* \"#utility.yul\":7896:7911   */\n      and\n        /* \"#utility.yul\":7886:7911   */\n      swap2\n      pop\n        /* \"#utility.yul\":7799:7917   */\n      pop\n        /* \"#utility.yul\":7748:7917   */\n      swap3\n      swap2\n      pop\n      pop\n      jump\t// out\n        /* \"#utility.yul\":7922:8217   */\n    tag_59:\n        /* \"#utility.yul\":7998:8002   */\n      0x00\n        /* \"#utility.yul\":8144:8173   */\n      tag_153\n        /* \"#utility.yul\":8169:8172   */\n      dup4\n        /* \"#utility.yul\":8163:8167   */\n      dup4\n        /* \"#utility.yul\":8144:8173   */\n      tag_58\n      jump\t// in\n    tag_153:\n        /* \"#utility.yul\":8136:8173   */\n      swap2\n      pop\n        /* \"#utility.yul\":8206:8209   */\n      dup3\n        /* \"#utility.yul\":8203:8204   */\n      0x02\n        /* \"#utility.yul\":8199:8210   */\n      mul\n        /* \"#utility.yul\":8193:8197   */\n      dup3\n        /* \"#utility.yul\":8190:8211   */\n      or\n        /* \"#utility.yul\":8182:8211   */\n      swap1\n      pop\n        /* \"#utility.yul\":7922:8217   */\n      swap3\n      swap2\n      pop\n      pop\n      jump\t// out\n        /* \"#utility.yul\":8222:9617   */\n    tag_17:\n        /* \"#utility.yul\":8339:8376   */\n      tag_155\n        /* \"#utility.yul\":8372:8375   */\n      dup3\n        /* \"#utility.yul\":8339:8376   */\n      tag_35\n      jump\t// in\n    tag_155:\n        /* \"#utility.yul\":8441:8459   */\n      0xffffffffffffffff\n        /* \"#utility.yul\":8433:8439   */\n      dup2\n        /* \"#utility.yul\":8430:8460   */\n      gt\n        /* \"#utility.yul\":8427:8483   */\n      iszero\n      tag_156\n      jumpi\n        /* \"#utility.yul\":8463:8481   */\n      tag_157\n      tag_43\n      jump\t// in\n    tag_157:\n        /* \"#utility.yul\":8427:8483   */\n    tag_156:\n        /* \"#utility.yul\":8507:8545   */\n      tag_158\n        /* \"#utility.yul\":8539:8543   */\n      dup3\n        /* \"#utility.yul\":8533:8544   */\n      sload\n        /* \"#utility.yul\":8507:8545   */\n      tag_19\n      jump\t// in\n    tag_158:\n        /* \"#utility.yul\":8592:8659   */\n      tag_159\n        /* \"#utility.yul\":8652:8658   */\n      dup3\n        /* \"#utility.yul\":8644:8650   */\n      dup3\n        /* \"#utility.yul\":8638:8642   */\n      dup6\n        /* \"#utility.yul\":8592:8659   */\n      tag_56\n      jump\t// in\n    tag_159:\n        /* \"#utility.yul\":8686:8687   */\n      0x00\n        /* \"#utility.yul\":8710:8714   */\n      0x20\n        /* \"#utility.yul\":8697:8714   */\n      swap1\n      pop\n        /* \"#utility.yul\":8742:8744   */\n      0x1f\n        /* \"#utility.yul\":8734:8740   */\n      dup4\n        /* \"#utility.yul\":8731:8745   */\n      gt\n        /* \"#utility.yul\":8759:8760   */\n      0x01\n        /* \"#utility.yul\":8754:9372   */\n      dup2\n      eq\n      tag_161\n      jumpi\n        /* \"#utility.yul\":9416:9417   */\n      0x00\n        /* \"#utility.yul\":9433:9439   */\n      dup5\n        /* \"#utility.yul\":9430:9507   */\n      iszero\n      tag_162\n      jumpi\n        /* \"#utility.yul\":9482:9491   */\n      dup3\n        /* \"#utility.yul\":9477:9480   */\n      dup8\n        /* \"#utility.yul\":9473:9492   */\n      add\n        /* \"#utility.yul\":9467:9493   */\n      mload\n        /* \"#utility.yul\":9458:9493   */\n      swap1\n      pop\n        /* \"#utility.yul\":9430:9507   */\n    tag_162:\n        /* \"#utility.yul\":9533:9600   */\n      tag_163\n        /* \"#utility.yul\":9593:9599   */\n      dup6\n        /* \"#utility.yul\":9586:9591   */\n      dup3\n        /* \"#utility.yul\":9533:9600   */\n      tag_59\n      jump\t// in\n    tag_163:\n        /* \"#utility.yul\":9527:9531   */\n      dup7\n        /* \"#utility.yul\":9520:9601   */\n      sstore\n        /* \"#utility.yul\":9389:9611   */\n      pop\n        /* \"#utility.yul\":8724:9611   */\n      jump(tag_160)\n        /* \"#utility.yul\":8754:9372   */\n    tag_161:\n        /* \"#utility.yul\":8806:8810   */\n      0x1f\n        /* \"#utility.yul\":8802:8811   */\n      not\n        /* \"#utility.yul\":8794:8800   */\n      dup5\n        /* \"#utility.yul\":8790:8812   */\n      and\n        /* \"#utility.yul\":8840:8877   */\n      tag_164\n        /* \"#utility.yul\":8872:8876   */\n      dup7\n        /* \"#utility.yul\":8840:8877   */\n      tag_45\n      jump\t// in\n    tag_164:\n        /* \"#utility.yul\":8899:8900   */\n      0x00\n        /* \"#utility.yul\":8913:9121   */\n    tag_165:\n        /* \"#utility.yul\":8927:8934   */\n      dup3\n        /* \"#utility.yul\":8924:8925   */\n      dup2\n        /* \"#utility.yul\":8921:8935   */\n      lt\n        /* \"#utility.yul\":8913:9121   */\n      iszero\n      tag_167\n      jumpi\n        /* \"#utility.yul\":9006:9015   */\n      dup5\n        /* \"#utility.yul\":9001:9004   */\n      dup10\n        /* \"#utility.yul\":8997:9016   */\n      add\n        /* \"#utility.yul\":8991:9017   */\n      mload\n        /* \"#utility.yul\":8983:8989   */\n      dup3\n        /* \"#utility.yul\":8976:9018   */\n      sstore\n        /* \"#utility.yul\":9057:9058   */\n      0x01\n        /* \"#utility.yul\":9049:9055   */\n      dup3\n        /* \"#utility.yul\":9045:9059   */\n      add\n        /* \"#utility.yul\":9035:9059   */\n      swap2\n      pop\n        /* \"#utility.yul\":9104:9106   */\n      0x20\n        /* \"#utility.yul\":9093:9102   */\n      dup6\n        /* \"#utility.yul\":9089:9107   */\n      add\n        /* \"#utility.yul\":9076:9107   */\n      swap5\n      pop\n        /* \"#utility.yul\":8950:8954   */\n      0x20\n        /* \"#utility.yul\":8947:8948   */\n      dup2\n        /* \"#utility.yul\":8943:8955   */\n      add\n        /* \"#utility.yul\":8938:8955   */\n      swap1\n      pop\n        /* \"#utility.yul\":8913:9121   */\n      jump(tag_165)\n    tag_167:\n        /* \"#utility.yul\":9149:9155   */\n      dup7\n        /* \"#utility.yul\":9140:9147   */\n      dup4\n        /* \"#utility.yul\":9137:9156   */\n      lt\n        /* \"#utility.yul\":9134:9313   */\n      iszero\n      tag_168\n      jumpi\n        /* \"#utility.yul\":9207:9216   */\n      dup5\n        /* \"#utility.yul\":9202:9205   */\n      dup10\n        /* \"#utility.yul\":9198:9217   */\n      add\n        /* \"#utility.yul\":9192:9218   */\n      mload\n        /* \"#utility.yul\":9250:9298   */\n      tag_169\n        /* \"#utility.yul\":9292:9296   */\n      0x1f\n        /* \"#utility.yul\":9284:9290   */\n      dup10\n        /* \"#utility.yul\":9280:9297   */\n      and\n        /* \"#utility.yul\":9269:9278   */\n      dup3\n        /* \"#utility.yul\":9250:9298   */\n      tag_58\n      jump\t// in\n    tag_169:\n        /* \"#utility.yul\":9242:9248   */\n      dup4\n        /* \"#utility.yul\":9235:9299   */\n      sstore\n        /* \"#utility.yul\":9157:9313   */\n      pop\n        /* \"#utility.yul\":9134:9313   */\n    tag_168:\n        /* \"#utility.yul\":9359:9360   */\n      0x01\n        /* \"#utility.yul\":9355:9356   */\n      0x02\n        /* \"#utility.yul\":9347:9353   */\n      dup9\n        /* \"#utility.yul\":9343:9357   */\n      mul\n        /* \"#utility.yul\":9339:9361   */\n      add\n        /* \"#utility.yul\":9333:9337   */\n      dup9\n        /* \"#utility.yul\":9326:9362   */\n      sstore\n        /* \"#utility.yul\":8761:9372   */\n      pop\n      pop\n      pop\n        /* \"#utility.yul\":8724:9611   */\n    tag_160:\n      pop\n        /* \"#utility.yul\":8314:9617   */\n      pop\n      pop\n      pop\n        /* \"#utility.yul\":8222:9617   */\n      pop\n      pop\n      jump\t// out\n\n    auxdata: 0xa2646970667358221220bb544ec4a424d6c2e7a698dc897155ddfcef87960fad18198298b43efc2df95f64736f6c634300081a0033\n}\n",
				"bytecode": {
					"linkReferences": {},
					"object": "6080604052348015600e575f80fd5b506107b68061001c5f395ff3fe608060405234801561000f575f80fd5b5060043610610034575f3560e01c80635e6abd5f14610038578063a87430ba14610054575b5f80fd5b610052600480360381019061004d919061032f565b610086565b005b61006e6004803603810190610069919061038c565b6101a2565b60405161007d9392919061044e565b60405180910390f35b604051806060016040528084848080601f0160208091040260200160405190810160405280939291908181526020018383808284375f81840152601f19601f8201169050808301925050505050505081526020018273ffffffffffffffffffffffffffffffffffffffff168152602001428152505f808373ffffffffffffffffffffffffffffffffffffffff1673ffffffffffffffffffffffffffffffffffffffff1681526020019081526020015f205f820151815f01908161014991906106b1565b506020820151816001015f6101000a81548173ffffffffffffffffffffffffffffffffffffffff021916908373ffffffffffffffffffffffffffffffffffffffff16021790555060408201518160020155905050505050565b5f602052805f5260405f205f91509050805f0180546101c0906104e4565b80601f01602080910402602001604051908101604052809291908181526020018280546101ec906104e4565b80156102375780601f1061020e57610100808354040283529160200191610237565b820191905f5260205f20905b81548152906001019060200180831161021a57829003601f168201915b505050505090806001015f9054906101000a900473ffffffffffffffffffffffffffffffffffffffff16908060020154905083565b5f80fd5b5f80fd5b5f80fd5b5f80fd5b5f80fd5b5f8083601f84011261029557610294610274565b5b8235905067ffffffffffffffff8111156102b2576102b1610278565b5b6020830191508360018202830111156102ce576102cd61027c565b5b9250929050565b5f73ffffffffffffffffffffffffffffffffffffffff82169050919050565b5f6102fe826102d5565b9050919050565b61030e816102f4565b8114610318575f80fd5b50565b5f8135905061032981610305565b92915050565b5f805f604084860312156103465761034561026c565b5b5f84013567ffffffffffffffff81111561036357610362610270565b5b61036f86828701610280565b935093505060206103828682870161031b565b9150509250925092565b5f602082840312156103a1576103a061026c565b5b5f6103ae8482850161031b565b91505092915050565b5f81519050919050565b5f82825260208201905092915050565b8281835e5f83830152505050565b5f601f19601f8301169050919050565b5f6103f9826103b7565b61040381856103c1565b93506104138185602086016103d1565b61041c816103df565b840191505092915050565b610430816102f4565b82525050565b5f819050919050565b61044881610436565b82525050565b5f6060820190508181035f83015261046681866103ef565b90506104756020830185610427565b610482604083018461043f565b949350505050565b7f4e487b71000000000000000000000000000000000000000000000000000000005f52604160045260245ffd5b7f4e487b71000000000000000000000000000000000000000000000000000000005f52602260045260245ffd5b5f60028204905060018216806104fb57607f821691505b60208210810361050e5761050d6104b7565b5b50919050565b5f819050815f5260205f209050919050565b5f6020601f8301049050919050565b5f82821b905092915050565b5f600883026105707fffffffffffffffffffffffffffffffffffffffffffffffffffffffffffffffff82610535565b61057a8683610535565b95508019841693508086168417925050509392505050565b5f819050919050565b5f6105b56105b06105ab84610436565b610592565b610436565b9050919050565b5f819050919050565b6105ce8361059b565b6105e26105da826105bc565b848454610541565b825550505050565b5f90565b6105f66105ea565b6106018184846105c5565b505050565b5b81811015610624576106195f826105ee565b600181019050610607565b5050565b601f8211156106695761063a81610514565b61064384610526565b81016020851015610652578190505b61066661065e85610526565b830182610606565b50505b505050565b5f82821c905092915050565b5f6106895f198460080261066e565b1980831691505092915050565b5f6106a1838361067a565b9150826002028217905092915050565b6106ba826103b7565b67ffffffffffffffff8111156106d3576106d261048a565b5b6106dd82546104e4565b6106e8828285610628565b5f60209050601f831160018114610719575f8415610707578287015190505b6107118582610696565b865550610778565b601f19841661072786610514565b5f5b8281101561074e57848901518255600182019150602085019450602081019050610729565b8683101561076b5784890151610767601f89168261067a565b8355505b6001600288020188555050505b50505050505056fea2646970667358221220bb544ec4a424d6c2e7a698dc897155ddfcef87960fad18198298b43efc2df95f64736f6c634300081a0033",
					"opcodes": "PUSH1 0x80 PUSH1 0x40 MSTORE CALLVALUE DUP1 ISZERO PUSH1 0xE JUMPI PUSH0 DUP1 REVERT JUMPDEST POP PUSH2 0x7B6 DUP1 PUSH2 0x1C PUSH0 CODECOPY PUSH0 RETURN INVALID PUSH1 0x80 PUSH1 0x40 MSTORE CALLVALUE DUP1 ISZERO PUSH2 0xF JUMPI PUSH0 DUP1 REVERT JUMPDEST POP PUSH1 0x4 CALLDATASIZE LT PUSH2 0x34 JUMPI PUSH0 CALLDATALOAD PUSH1 0xE0 SHR DUP1 PUSH4 0x5E6ABD5F EQ PUSH2 0x38 JUMPI DUP1 PUSH4 0xA87430BA EQ PUSH2 0x54 JUMPI JUMPDEST PUSH0 DUP1 REVERT JUMPDEST PUSH2 0x52 PUSH1 0x4 DUP1 CALLDATASIZE SUB DUP2 ADD SWAP1 PUSH2 0x4D SWAP2 SWAP1 PUSH2 0x32F JUMP JUMPDEST PUSH2 0x86 JUMP JUMPDEST STOP JUMPDEST PUSH2 0x6E PUSH1 0x4 DUP1 CALLDATASIZE SUB DUP2 ADD SWAP1 PUSH2 0x69 SWAP2 SWAP1 PUSH2 0x38C JUMP JUMPDEST PUSH2 0x1A2 JUMP JUMPDEST PUSH1 0x40 MLOAD PUSH2 0x7D SWAP4 SWAP3 SWAP2 SWAP1 PUSH2 0x44E JUMP JUMPDEST PUSH1 0x40 MLOAD DUP1 SWAP2 SUB SWAP1 RETURN JUMPDEST PUSH1 0x40 MLOAD DUP1 PUSH1 0x60 ADD PUSH1 0x40 MSTORE DUP1 DUP5 DUP5 DUP1 DUP1 PUSH1 0x1F ADD PUSH1 0x20 DUP1 SWAP2 DIV MUL PUSH1 0x20 ADD PUSH1 0x40 MLOAD SWAP1 DUP2 ADD PUSH1 0x40 MSTORE DUP1 SWAP4 SWAP3 SWAP2 SWAP1 DUP2 DUP2 MSTORE PUSH1 0x20 ADD DUP4 DUP4 DUP1 DUP3 DUP5 CALLDATACOPY PUSH0 DUP2 DUP5 ADD MSTORE PUSH1 0x1F NOT PUSH1 0x1F DUP3 ADD AND SWAP1 POP DUP1 DUP4 ADD SWAP3 POP POP POP POP POP POP POP DUP2 MSTORE PUSH1 0x20 ADD DUP3 PUSH20 0xFFFFFFFFFFFFFFFFFFFFFFFFFFFFFFFFFFFFFFFF AND DUP2 MSTORE PUSH1 0x20 ADD TIMESTAMP DUP2 MSTORE POP PUSH0 DUP1 DUP4 PUSH20 0xFFFFFFFFFFFFFFFFFFFFFFFFFFFFFFFFFFFFFFFF AND PUSH20 0xFFFFFFFFFFFFFFFFFFFFFFFFFFFFFFFFFFFFFFFF AND DUP2 MSTORE PUSH1 0x20 ADD SWAP1 DUP2 MSTORE PUSH1 0x20 ADD PUSH0 KECCAK256 PUSH0 DUP3 ADD MLOAD DUP2 PUSH0 ADD SWAP1 DUP2 PUSH2 0x149 SWAP2 SWAP1 PUSH2 0x6B1 JUMP JUMPDEST POP PUSH1 0x20 DUP3 ADD MLOAD DUP2 PUSH1 0x1 ADD PUSH0 PUSH2 0x100 EXP DUP2 SLOAD DUP2 PUSH20 0xFFFFFFFFFFFFFFFFFFFFFFFFFFFFFFFFFFFFFFFF MUL NOT AND SWAP1 DUP4 PUSH20 0xFFFFFFFFFFFFFFFFFFFFFFFFFFFFFFFFFFFFFFFF AND MUL OR SWAP1 SSTORE POP PUSH1 0x40 DUP3 ADD MLOAD DUP2 PUSH1 0x2 ADD SSTORE SWAP1 POP POP POP POP POP JUMP JUMPDEST PUSH0 PUSH1 0x20 MSTORE DUP1 PUSH0 MSTORE PUSH1 0x40 PUSH0 KECCAK256 PUSH0 SWAP2 POP SWAP1 POP DUP1 PUSH0 ADD DUP1 SLOAD PUSH2 0x1C0 SWAP1 PUSH2 0x4E4 JUMP JUMPDEST DUP1 PUSH1 0x1F ADD PUSH1 0x20 DUP1 SWAP2 DIV MUL PUSH1 0x20 ADD PUSH1 0x40 MLOAD SWAP1 DUP2 ADD PUSH1 0x40 MSTORE DUP1 SWAP3 SWAP2 SWAP1 DUP2 DUP2 MSTORE PUSH1 0x20 ADD DUP3 DUP1 SLOAD PUSH2 0x1EC SWAP1 PUSH2 0x4E4 JUMP JUMPDEST DUP1 ISZERO PUSH2 0x237 JUMPI DUP1 PUSH1 0x1F LT PUSH2 0x20E JUMPI PUSH2 0x100 DUP1 DUP4 SLOAD DIV MUL DUP4 MSTORE SWAP2 PUSH1 0x20 ADD SWAP2 PUSH2 0x237 JUMP JUMPDEST DUP3 ADD SWAP2 SWAP1 PUSH0 MSTORE PUSH1 0x20 PUSH0 KECCAK256 SWAP1 JUMPDEST DUP2 SLOAD DUP2 MSTORE SWAP1 PUSH1 0x1 ADD SWAP1 PUSH1 0x20 ADD DUP1 DUP4 GT PUSH2 0x21A JUMPI DUP3 SWAP1 SUB PUSH1 0x1F AND DUP3 ADD SWAP2 JUMPDEST POP POP POP POP POP SWAP1 DUP1 PUSH1 0x1 ADD PUSH0 SWAP1 SLOAD SWAP1 PUSH2 0x100 EXP SWAP1 DIV PUSH20 0xFFFFFFFFFFFFFFFFFFFFFFFFFFFFFFFFFFFFFFFF AND SWAP1 DUP1 PUSH1 0x2 ADD SLOAD SWAP1 POP DUP4 JUMP JUMPDEST PUSH0 DUP1 REVERT JUMPDEST PUSH0 DUP1 REVERT JUMPDEST PUSH0 DUP1 REVERT JUMPDEST PUSH0 DUP1 REVERT JUMPDEST PUSH0 DUP1 REVERT JUMPDEST PUSH0 DUP1 DUP4 PUSH1 0x1F DUP5 ADD SLT PUSH2 0x295 JUMPI PUSH2 0x294 PUSH2 0x274 JUMP JUMPDEST JUMPDEST DUP3 CALLDATALOAD SWAP1 POP PUSH8 0xFFFFFFFFFFFFFFFF DUP2 GT ISZERO PUSH2 0x2B2 JUMPI PUSH2 0x2B1 PUSH2 0x278 JUMP JUMPDEST JUMPDEST PUSH1 0x20 DUP4 ADD SWAP2 POP DUP4 PUSH1 0x1 DUP3 MUL DUP4 ADD GT ISZERO PUSH2 0x2CE JUMPI PUSH2 0x2CD PUSH2 0x27C JUMP JUMPDEST JUMPDEST SWAP3 POP SWAP3 SWAP1 POP JUMP JUMPDEST PUSH0 PUSH20 0xFFFFFFFFFFFFFFFFFFFFFFFFFFFFFFFFFFFFFFFF DUP3 AND SWAP1 POP SWAP2 SWAP1 POP JUMP JUMPDEST PUSH0 PUSH2 0x2FE DUP3 PUSH2 0x2D5 JUMP JUMPDEST SWAP1 POP SWAP2 SWAP1 POP JUMP JUMPDEST PUSH2 0x30E DUP2 PUSH2 0x2F4 JUMP JUMPDEST DUP2 EQ PUSH2 0x318 JUMPI PUSH0 DUP1 REVERT JUMPDEST POP JUMP JUMPDEST PUSH0 DUP2 CALLDATALOAD SWAP1 POP PUSH2 0x329 DUP2 PUSH2 0x305 JUMP JUMPDEST SWAP3 SWAP2 POP POP JUMP JUMPDEST PUSH0 DUP1 PUSH0 PUSH1 0x40 DUP5 DUP7 SUB SLT ISZERO PUSH2 0x346 JUMPI PUSH2 0x345 PUSH2 0x26C JUMP JUMPDEST JUMPDEST PUSH0 DUP5 ADD CALLDATALOAD PUSH8 0xFFFFFFFFFFFFFFFF DUP2 GT ISZERO PUSH2 0x363 JUMPI PUSH2 0x362 PUSH2 0x270 JUMP JUMPDEST JUMPDEST PUSH2 0x36F DUP7 DUP3 DUP8 ADD PUSH2 0x280 JUMP JUMPDEST SWAP4 POP SWAP4 POP POP PUSH1 0x20 PUSH2 0x382 DUP7 DUP3 DUP8 ADD PUSH2 0x31B JUMP JUMPDEST SWAP2 POP POP SWAP3 POP SWAP3 POP SWAP3 JUMP JUMPDEST PUSH0 PUSH1 0x20 DUP3 DUP5 SUB SLT ISZERO PUSH2 0x3A1 JUMPI PUSH2 0x3A0 PUSH2 0x26C JUMP JUMPDEST JUMPDEST PUSH0 PUSH2 0x3AE DUP5 DUP3 DUP6 ADD PUSH2 0x31B JUMP JUMPDEST SWAP2 POP POP SWAP3 SWAP2 POP POP JUMP JUMPDEST PUSH0 DUP2 MLOAD SWAP1 POP SWAP2 SWAP1 POP JUMP JUMPDEST PUSH0 DUP3 DUP3 MSTORE PUSH1 0x20 DUP3 ADD SWAP1 POP SWAP3 SWAP2 POP POP JUMP JUMPDEST DUP3 DUP2 DUP4 MCOPY PUSH0 DUP4 DUP4 ADD MSTORE POP POP POP JUMP JUMPDEST PUSH0 PUSH1 0x1F NOT PUSH1 0x1F DUP4 ADD AND SWAP1 POP SWAP2 SWAP1 POP JUMP JUMPDEST PUSH0 PUSH2 0x3F9 DUP3 PUSH2 0x3B7 JUMP JUMPDEST PUSH2 0x403 DUP2 DUP6 PUSH2 0x3C1 JUMP JUMPDEST SWAP4 POP PUSH2 0x413 DUP2 DUP6 PUSH1 0x20 DUP7 ADD PUSH2 0x3D1 JUMP JUMPDEST PUSH2 0x41C DUP2 PUSH2 0x3DF JUMP JUMPDEST DUP5 ADD SWAP2 POP POP SWAP3 SWAP2 POP POP JUMP JUMPDEST PUSH2 0x430 DUP2 PUSH2 0x2F4 JUMP JUMPDEST DUP3 MSTORE POP POP JUMP JUMPDEST PUSH0 DUP2 SWAP1 POP SWAP2 SWAP1 POP JUMP JUMPDEST PUSH2 0x448 DUP2 PUSH2 0x436 JUMP JUMPDEST DUP3 MSTORE POP POP JUMP JUMPDEST PUSH0 PUSH1 0x60 DUP3 ADD SWAP1 POP DUP2 DUP2 SUB PUSH0 DUP4 ADD MSTORE PUSH2 0x466 DUP2 DUP7 PUSH2 0x3EF JUMP JUMPDEST SWAP1 POP PUSH2 0x475 PUSH1 0x20 DUP4 ADD DUP6 PUSH2 0x427 JUMP JUMPDEST PUSH2 0x482 PUSH1 0x40 DUP4 ADD DUP5 PUSH2 0x43F JUMP JUMPDEST SWAP5 SWAP4 POP POP POP POP JUMP JUMPDEST PUSH32 0x4E487B7100000000000000000000000000000000000000000000000000000000 PUSH0 MSTORE PUSH1 0x41 PUSH1 0x4 MSTORE PUSH1 0x24 PUSH0 REVERT JUMPDEST PUSH32 0x4E487B7100000000000000000000000000000000000000000000000000000000 PUSH0 MSTORE PUSH1 0x22 PUSH1 0x4 MSTORE PUSH1 0x24 PUSH0 REVERT JUMPDEST PUSH0 PUSH1 0x2 DUP3 DIV SWAP1 POP PUSH1 0x1 DUP3 AND DUP1 PUSH2 0x4FB JUMPI PUSH1 0x7F DUP3 AND SWAP2 POP JUMPDEST PUSH1 0x20 DUP3 LT DUP2 SUB PUSH2 0x50E JUMPI PUSH2 0x50D PUSH2 0x4B7 JUMP JUMPDEST JUMPDEST POP SWAP2 SWAP1 POP JUMP JUMPDEST PUSH0 DUP2 SWAP1 POP DUP2 PUSH0 MSTORE PUSH1 0x20 PUSH0 KECCAK256 SWAP1 POP SWAP2 SWAP1 POP JUMP JUMPDEST PUSH0 PUSH1 0x20 PUSH1 0x1F DUP4 ADD DIV SWAP1 POP SWAP2 SWAP1 POP JUMP JUMPDEST PUSH0 DUP3 DUP3 SHL SWAP1 POP SWAP3 SWAP2 POP POP JUMP JUMPDEST PUSH0 PUSH1 0x8 DUP4 MUL PUSH2 0x570 PUSH32 0xFFFFFFFFFFFFFFFFFFFFFFFFFFFFFFFFFFFFFFFFFFFFFFFFFFFFFFFFFFFFFFFF DUP3 PUSH2 0x535 JUMP JUMPDEST PUSH2 0x57A DUP7 DUP4 PUSH2 0x535 JUMP JUMPDEST SWAP6 POP DUP1 NOT DUP5 AND SWAP4 POP DUP1 DUP7 AND DUP5 OR SWAP3 POP POP POP SWAP4 SWAP3 POP POP POP JUMP JUMPDEST PUSH0 DUP2 SWAP1 POP SWAP2 SWAP1 POP JUMP JUMPDEST PUSH0 PUSH2 0x5B5 PUSH2 0x5B0 PUSH2 0x5AB DUP5 PUSH2 0x436 JUMP JUMPDEST PUSH2 0x592 JUMP JUMPDEST PUSH2 0x436 JUMP JUMPDEST SWAP1 POP SWAP2 SWAP1 POP JUMP JUMPDEST PUSH0 DUP2 SWAP1 POP SWAP2 SWAP1 POP JUMP JUMPDEST PUSH2 0x5CE DUP4 PUSH2 0x59B JUMP JUMPDEST PUSH2 0x5E2 PUSH2 0x5DA DUP3 PUSH2 0x5BC JUMP JUMPDEST DUP5 DUP5 SLOAD PUSH2 0x541 JUMP JUMPDEST DUP3 SSTORE POP POP POP POP JUMP JUMPDEST PUSH0 SWAP1 JUMP JUMPDEST PUSH2 0x5F6 PUSH2 0x5EA JUMP JUMPDEST PUSH2 0x601 DUP2 DUP5 DUP5 PUSH2 0x5C5 JUMP JUMPDEST POP POP POP JUMP JUMPDEST JUMPDEST DUP2 DUP2 LT ISZERO PUSH2 0x624 JUMPI PUSH2 0x619 PUSH0 DUP3 PUSH2 0x5EE JUMP JUMPDEST PUSH1 0x1 DUP2 ADD SWAP1 POP PUSH2 0x607 JUMP JUMPDEST POP POP JUMP JUMPDEST PUSH1 0x1F DUP3 GT ISZERO PUSH2 0x669 JUMPI PUSH2 0x63A DUP2 PUSH2 0x514 JUMP JUMPDEST PUSH2 0x643 DUP5 PUSH2 0x526 JUMP JUMPDEST DUP2 ADD PUSH1 0x20 DUP6 LT ISZERO PUSH2 0x652 JUMPI DUP2 SWAP1 POP JUMPDEST PUSH2 0x666 PUSH2 0x65E DUP6 PUSH2 0x526 JUMP JUMPDEST DUP4 ADD DUP3 PUSH2 0x606 JUMP JUMPDEST POP POP JUMPDEST POP POP POP JUMP JUMPDEST PUSH0 DUP3 DUP3 SHR SWAP1 POP SWAP3 SWAP2 POP POP JUMP JUMPDEST PUSH0 PUSH2 0x689 PUSH0 NOT DUP5 PUSH1 0x8 MUL PUSH2 0x66E JUMP JUMPDEST NOT DUP1 DUP4 AND SWAP2 POP POP SWAP3 SWAP2 POP POP JUMP JUMPDEST PUSH0 PUSH2 0x6A1 DUP4 DUP4 PUSH2 0x67A JUMP JUMPDEST SWAP2 POP DUP3 PUSH1 0x2 MUL DUP3 OR SWAP1 POP SWAP3 SWAP2 POP POP JUMP JUMPDEST PUSH2 0x6BA DUP3 PUSH2 0x3B7 JUMP JUMPDEST PUSH8 0xFFFFFFFFFFFFFFFF DUP2 GT ISZERO PUSH2 0x6D3 JUMPI PUSH2 0x6D2 PUSH2 0x48A JUMP JUMPDEST JUMPDEST PUSH2 0x6DD DUP3 SLOAD PUSH2 0x4E4 JUMP JUMPDEST PUSH2 0x6E8 DUP3 DUP3 DUP6 PUSH2 0x628 JUMP JUMPDEST PUSH0 PUSH1 0x20 SWAP1 POP PUSH1 0x1F DUP4 GT PUSH1 0x1 DUP2 EQ PUSH2 0x719 JUMPI PUSH0 DUP5 ISZERO PUSH2 0x707 JUMPI DUP3 DUP8 ADD MLOAD SWAP1 POP JUMPDEST PUSH2 0x711 DUP6 DUP3 PUSH2 0x696 JUMP JUMPDEST DUP7 SSTORE POP PUSH2 0x778 JUMP JUMPDEST PUSH1 0x1F NOT DUP5 AND PUSH2 0x727 DUP7 PUSH2 0x514 JUMP JUMPDEST PUSH0 JUMPDEST DUP3 DUP2 LT ISZERO PUSH2 0x74E JUMPI DUP5 DUP10 ADD MLOAD DUP3 SSTORE PUSH1 0x1 DUP3 ADD SWAP2 POP PUSH1 0x20 DUP6 ADD SWAP5 POP PUSH1 0x20 DUP2 ADD SWAP1 POP PUSH2 0x729 JUMP JUMPDEST DUP7 DUP4 LT ISZERO PUSH2 0x76B JUMPI DUP5 DUP10 ADD MLOAD PUSH2 0x767 PUSH1 0x1F DUP10 AND DUP3 PUSH2 0x67A JUMP JUMPDEST DUP4 SSTORE POP JUMPDEST PUSH1 0x1 PUSH1 0x2 DUP9 MUL ADD DUP9 SSTORE POP POP POP JUMPDEST POP POP POP POP POP POP JUMP INVALID LOG2 PUSH5 0x6970667358 0x22 SLT KECCAK256 0xBB SLOAD 0x4E 0xC4 LOG4 0x24 0xD6 0xC2 0xE7 0xA6 SWAP9 0xDC DUP10 PUSH18 0x55DDFCEF87960FAD18198298B43EFC2DF95F PUSH5 0x736F6C6343 STOP ADDMOD BYTE STOP CALLER "
				},
				"gasEstimates": {
					"creation": {
						"codeDepositCost": "394800",
						"executionCost": "428",
						"totalCost": "395228"
					},
					"external": {
						"Tweet(string,address)": "infinite",
						"users(address)": "infinite"
					}
				},
				"methodIdentifiers": {
					"Tweet(string,address)": "5e6abd5f",
					"users(address)": "a87430ba"
				}
			},
			"storageLayout": {
				"storage": [
					{
						"astId": 13,
						"contract": "contracts/Twitter-Assignment/twitter1.sol:Twitter",
						"label": "users",
						"offset": 0,
						"slot": "0",
						"type": "t_mapping(t_address,t_struct(User)8_storage)"
					}
				],
				"types": {
					"t_address": {
						"encoding": "inplace",
						"label": "address",
						"numberOfBytes": "20"
					},
					"t_mapping(t_address,t_struct(User)8_storage)": {
						"encoding": "mapping",
						"key": "t_address",
						"label": "mapping(address => struct Twitter.User)",
						"numberOfBytes": "32",
						"value": "t_struct(User)8_storage"
					},
					"t_string_storage": {
						"encoding": "bytes",
						"label": "string",
						"numberOfBytes": "32"
					},
					"t_struct(User)8_storage": {
						"encoding": "inplace",
						"label": "struct Twitter.User",
						"members": [
							{
								"astId": 3,
								"contract": "contracts/Twitter-Assignment/twitter1.sol:Twitter",
								"label": "post",
								"offset": 0,
								"slot": "0",
								"type": "t_string_storage"
							},
							{
								"astId": 5,
								"contract": "contracts/Twitter-Assignment/twitter1.sol:Twitter",
								"label": "userAdd",
								"offset": 0,
								"slot": "1",
								"type": "t_address"
							},
							{
								"astId": 7,
								"contract": "contracts/Twitter-Assignment/twitter1.sol:Twitter",
								"label": "time",
								"offset": 0,
								"slot": "2",
								"type": "t_uint256"
							}
						],
						"numberOfBytes": "96"
					},
					"t_uint256": {
						"encoding": "inplace",
						"label": "uint256",
						"numberOfBytes": "32"
					}
				}
			},
			"userdoc": {
				"kind": "user",
				"methods": {},
				"version": 1
			}
		}
	}
}