{
	"contracts/Twitter-Assignment/twitter-example.sol": {
		"TweetContract": {
			"abi": [
				{
					"inputs": [
						{
							"internalType": "address",
							"name": "_operator",
							"type": "address"
						}
					],
					"name": "allow",
					"outputs": [],
					"stateMutability": "nonpayable",
					"type": "function"
				},
				{
					"inputs": [
						{
							"internalType": "address",
							"name": "",
							"type": "address"
						},
						{
							"internalType": "uint256",
							"name": "",
							"type": "uint256"
						}
					],
					"name": "conversations",
					"outputs": [
						{
							"internalType": "uint256",
							"name": "id",
							"type": "uint256"
						},
						{
							"internalType": "string",
							"name": "content",
							"type": "string"
						},
						{
							"internalType": "address",
							"name": "from",
							"type": "address"
						},
						{
							"internalType": "address",
							"name": "to",
							"type": "address"
						},
						{
							"internalType": "uint256",
							"name": "createdAt",
							"type": "uint256"
						}
					],
					"stateMutability": "view",
					"type": "function"
				},
				{
					"inputs": [
						{
							"internalType": "address",
							"name": "_operator",
							"type": "address"
						}
					],
					"name": "disallow",
					"outputs": [],
					"stateMutability": "nonpayable",
					"type": "function"
				},
				{
					"inputs": [
						{
							"internalType": "address",
							"name": "_followed",
							"type": "address"
						}
					],
					"name": "follow",
					"outputs": [],
					"stateMutability": "nonpayable",
					"type": "function"
				},
				{
					"inputs": [
						{
							"internalType": "address",
							"name": "",
							"type": "address"
						},
						{
							"internalType": "uint256",
							"name": "",
							"type": "uint256"
						}
					],
					"name": "following",
					"outputs": [
						{
							"internalType": "address",
							"name": "",
							"type": "address"
						}
					],
					"stateMutability": "view",
					"type": "function"
				},
				{
					"inputs": [
						{
							"internalType": "uint256",
							"name": "count",
							"type": "uint256"
						}
					],
					"name": "getLatestTweets",
					"outputs": [
						{
							"components": [
								{
									"internalType": "uint256",
									"name": "id",
									"type": "uint256"
								},
								{
									"internalType": "address",
									"name": "author",
									"type": "address"
								},
								{
									"internalType": "string",
									"name": "content",
									"type": "string"
								},
								{
									"internalType": "uint256",
									"name": "createdAt",
									"type": "uint256"
								}
							],
							"internalType": "struct TweetContract.Tweet[]",
							"name": "",
							"type": "tuple[]"
						}
					],
					"stateMutability": "view",
					"type": "function"
				},
				{
					"inputs": [
						{
							"internalType": "address",
							"name": "_user",
							"type": "address"
						},
						{
							"internalType": "uint256",
							"name": "count",
							"type": "uint256"
						}
					],
					"name": "getLatestofUser",
					"outputs": [
						{
							"components": [
								{
									"internalType": "uint256",
									"name": "id",
									"type": "uint256"
								},
								{
									"internalType": "address",
									"name": "author",
									"type": "address"
								},
								{
									"internalType": "string",
									"name": "content",
									"type": "string"
								},
								{
									"internalType": "uint256",
									"name": "createdAt",
									"type": "uint256"
								}
							],
							"internalType": "struct TweetContract.Tweet[]",
							"name": "",
							"type": "tuple[]"
						}
					],
					"stateMutability": "view",
					"type": "function"
				},
				{
					"inputs": [
						{
							"internalType": "address",
							"name": "",
							"type": "address"
						},
						{
							"internalType": "address",
							"name": "",
							"type": "address"
						}
					],
					"name": "operators",
					"outputs": [
						{
							"internalType": "bool",
							"name": "",
							"type": "bool"
						}
					],
					"stateMutability": "view",
					"type": "function"
				},
				{
					"inputs": [
						{
							"internalType": "address",
							"name": "_from",
							"type": "address"
						},
						{
							"internalType": "address",
							"name": "_to",
							"type": "address"
						},
						{
							"internalType": "string",
							"name": "_content",
							"type": "string"
						}
					],
					"name": "sendMessage",
					"outputs": [],
					"stateMutability": "nonpayable",
					"type": "function"
				},
				{
					"inputs": [
						{
							"internalType": "string",
							"name": "_content",
							"type": "string"
						},
						{
							"internalType": "address",
							"name": "_to",
							"type": "address"
						}
					],
					"name": "sendMessage",
					"outputs": [],
					"stateMutability": "nonpayable",
					"type": "function"
				},
				{
					"inputs": [
						{
							"internalType": "address",
							"name": "_from",
							"type": "address"
						},
						{
							"internalType": "string",
							"name": "_content",
							"type": "string"
						}
					],
					"name": "tweet",
					"outputs": [],
					"stateMutability": "nonpayable",
					"type": "function"
				},
				{
					"inputs": [
						{
							"internalType": "string",
							"name": "_content",
							"type": "string"
						}
					],
					"name": "tweet",
					"outputs": [],
					"stateMutability": "nonpayable",
					"type": "function"
				},
				{
					"inputs": [
						{
							"internalType": "uint256",
							"name": "",
							"type": "uint256"
						}
					],
					"name": "tweets",
					"outputs": [
						{
							"internalType": "uint256",
							"name": "id",
							"type": "uint256"
						},
						{
							"internalType": "address",
							"name": "author",
							"type": "address"
						},
						{
							"internalType": "string",
							"name": "content",
							"type": "string"
						},
						{
							"internalType": "uint256",
							"name": "createdAt",
							"type": "uint256"
						}
					],
					"stateMutability": "view",
					"type": "function"
				},
				{
					"inputs": [
						{
							"internalType": "address",
							"name": "",
							"type": "address"
						},
						{
							"internalType": "uint256",
							"name": "",
							"type": "uint256"
						}
					],
					"name": "tweetsOf",
					"outputs": [
						{
							"internalType": "uint256",
							"name": "",
							"type": "uint256"
						}
					],
					"stateMutability": "view",
					"type": "function"
				}
			],
			"devdoc": {
				"kind": "dev",
				"methods": {},
				"version": 1
			},
			"evm": {
				"assembly": "    /* \"contracts/Twitter-Assignment/twitter-example.sol\":66:4079  contract TweetContract {... */\n  mstore(0x40, 0x80)\n  callvalue\n  dup1\n  iszero\n  tag_1\n  jumpi\n  0x00\n  dup1\n  revert\ntag_1:\n  pop\n  dataSize(sub_0)\n  dup1\n  dataOffset(sub_0)\n  0x00\n  codecopy\n  0x00\n  return\nstop\n\nsub_0: assembly {\n        /* \"contracts/Twitter-Assignment/twitter-example.sol\":66:4079  contract TweetContract {... */\n      mstore(0x40, 0x80)\n      callvalue\n      dup1\n      iszero\n      tag_1\n      jumpi\n      0x00\n      dup1\n      revert\n    tag_1:\n      pop\n      jumpi(tag_2, lt(calldatasize, 0x04))\n      shr(0xe0, calldataload(0x00))\n      dup1\n      0xaf22bf94\n      gt\n      tag_17\n      jumpi\n      dup1\n      0xd21d1596\n      gt\n      tag_18\n      jumpi\n      dup1\n      0xd21d1596\n      eq\n      tag_13\n      jumpi\n      dup1\n      0xe8d857b0\n      eq\n      tag_14\n      jumpi\n      dup1\n      0xfb46d4c5\n      eq\n      tag_15\n      jumpi\n      dup1\n      0xff9913e8\n      eq\n      tag_16\n      jumpi\n      jump(tag_2)\n    tag_18:\n      dup1\n      0xaf22bf94\n      eq\n      tag_10\n      jumpi\n      dup1\n      0xb88e318d\n      eq\n      tag_11\n      jumpi\n      dup1\n      0xc48d6d5e\n      eq\n      tag_12\n      jumpi\n      jump(tag_2)\n    tag_17:\n      dup1\n      0x4dc0a687\n      gt\n      tag_19\n      jumpi\n      dup1\n      0x4dc0a687\n      eq\n      tag_6\n      jumpi\n      dup1\n      0x5284b64a\n      eq\n      tag_7\n      jumpi\n      dup1\n      0x9139cda5\n      eq\n      tag_8\n      jumpi\n      dup1\n      0xa9ed9cb8\n      eq\n      tag_9\n      jumpi\n      jump(tag_2)\n    tag_19:\n      dup1\n      0x2637588e\n      eq\n      tag_3\n      jumpi\n      dup1\n      0x3befea09\n      eq\n      tag_4\n      jumpi\n      dup1\n      0x4dbf27cc\n      eq\n      tag_5\n      jumpi\n    tag_2:\n      0x00\n      dup1\n      revert\n        /* \"contracts/Twitter-Assignment/twitter-example.sol\":539:600  mapping(address => mapping(address => bool)) public operators */\n    tag_3:\n      tag_20\n      0x04\n      dup1\n      calldatasize\n      sub\n      dup2\n      add\n      swap1\n      tag_21\n      swap2\n      swap1\n      tag_22\n      jump\t// in\n    tag_21:\n      tag_23\n      jump\t// in\n    tag_20:\n      mload(0x40)\n      tag_24\n      swap2\n      swap1\n      tag_25\n      jump\t// in\n    tag_24:\n      mload(0x40)\n      dup1\n      swap2\n      sub\n      swap1\n      return\n        /* \"contracts/Twitter-Assignment/twitter-example.sol\":482:532  mapping(address => Message[]) public conversations */\n    tag_4:\n      tag_26\n      0x04\n      dup1\n      calldatasize\n      sub\n      dup2\n      add\n      swap1\n      tag_27\n      swap2\n      swap1\n      tag_28\n      jump\t// in\n    tag_27:\n      tag_29\n      jump\t// in\n    tag_26:\n      mload(0x40)\n      tag_30\n      swap6\n      swap5\n      swap4\n      swap3\n      swap2\n      swap1\n      tag_31\n      jump\t// in\n    tag_30:\n      mload(0x40)\n      dup1\n      swap2\n      sub\n      swap1\n      return\n        /* \"contracts/Twitter-Assignment/twitter-example.sol\":2160:2285  function follow(address _followed) public {... */\n    tag_5:\n      tag_32\n      0x04\n      dup1\n      calldatasize\n      sub\n      dup2\n      add\n      swap1\n      tag_33\n      swap2\n      swap1\n      tag_34\n      jump\t// in\n    tag_33:\n      tag_35\n      jump\t// in\n    tag_32:\n      stop\n        /* \"contracts/Twitter-Assignment/twitter-example.sol\":2501:3186  function getLatestTweets(uint256 count)... */\n    tag_6:\n      tag_36\n      0x04\n      dup1\n      calldatasize\n      sub\n      dup2\n      add\n      swap1\n      tag_37\n      swap2\n      swap1\n      tag_38\n      jump\t// in\n    tag_37:\n      tag_39\n      jump\t// in\n    tag_36:\n      mload(0x40)\n      tag_40\n      swap2\n      swap1\n      tag_41\n      jump\t// in\n    tag_40:\n      mload(0x40)\n      dup1\n      swap2\n      sub\n      swap1\n      return\n        /* \"contracts/Twitter-Assignment/twitter-example.sol\":3192:4077  function getLatestofUser(address _user, uint256 count)... */\n    tag_7:\n      tag_42\n      0x04\n      dup1\n      calldatasize\n      sub\n      dup2\n      add\n      swap1\n      tag_43\n      swap2\n      swap1\n      tag_28\n      jump\t// in\n    tag_43:\n      tag_44\n      jump\t// in\n    tag_42:\n      mload(0x40)\n      tag_45\n      swap2\n      swap1\n      tag_41\n      jump\t// in\n    tag_45:\n      mload(0x40)\n      dup1\n      swap2\n      sub\n      swap1\n      return\n        /* \"contracts/Twitter-Assignment/twitter-example.sol\":607:653  mapping(address => address[]) public following */\n    tag_8:\n      tag_46\n      0x04\n      dup1\n      calldatasize\n      sub\n      dup2\n      add\n      swap1\n      tag_47\n      swap2\n      swap1\n      tag_28\n      jump\t// in\n    tag_47:\n      tag_48\n      jump\t// in\n    tag_46:\n      mload(0x40)\n      tag_49\n      swap2\n      swap1\n      tag_50\n      jump\t// in\n    tag_49:\n      mload(0x40)\n      dup1\n      swap2\n      sub\n      swap1\n      return\n        /* \"contracts/Twitter-Assignment/twitter-example.sol\":2394:2495  function disallow(address _operator) public {... */\n    tag_9:\n      tag_51\n      0x04\n      dup1\n      calldatasize\n      sub\n      dup2\n      add\n      swap1\n      tag_52\n      swap2\n      swap1\n      tag_34\n      jump\t// in\n    tag_52:\n      tag_53\n      jump\t// in\n    tag_51:\n      stop\n        /* \"contracts/Twitter-Assignment/twitter-example.sol\":403:448  mapping(address => uint256[]) public tweetsOf */\n    tag_10:\n      tag_54\n      0x04\n      dup1\n      calldatasize\n      sub\n      dup2\n      add\n      swap1\n      tag_55\n      swap2\n      swap1\n      tag_28\n      jump\t// in\n    tag_55:\n      tag_56\n      jump\t// in\n    tag_54:\n      mload(0x40)\n      tag_57\n      swap2\n      swap1\n      tag_58\n      jump\t// in\n    tag_57:\n      mload(0x40)\n      dup1\n      swap2\n      sub\n      swap1\n      return\n        /* \"contracts/Twitter-Assignment/twitter-example.sol\":1959:2154  function sendMessage(... */\n    tag_11:\n      tag_59\n      0x04\n      dup1\n      calldatasize\n      sub\n      dup2\n      add\n      swap1\n      tag_60\n      swap2\n      swap1\n      tag_61\n      jump\t// in\n    tag_60:\n      tag_62\n      jump\t// in\n    tag_59:\n      stop\n        /* \"contracts/Twitter-Assignment/twitter-example.sol\":1815:1953  function sendMessage(string memory _content, address _to) public {... */\n    tag_12:\n      tag_63\n      0x04\n      dup1\n      calldatasize\n      sub\n      dup2\n      add\n      swap1\n      tag_64\n      swap2\n      swap1\n      tag_65\n      jump\t// in\n    tag_64:\n      tag_66\n      jump\t// in\n    tag_63:\n      stop\n        /* \"contracts/Twitter-Assignment/twitter-example.sol\":1675:1809  function tweet(address _from, string memory _content) public {... */\n    tag_13:\n      tag_67\n      0x04\n      dup1\n      calldatasize\n      sub\n      dup2\n      add\n      swap1\n      tag_68\n      swap2\n      swap1\n      tag_69\n      jump\t// in\n    tag_68:\n      tag_70\n      jump\t// in\n    tag_67:\n      stop\n        /* \"contracts/Twitter-Assignment/twitter-example.sol\":357:396  mapping(uint256 => Tweet) public tweets */\n    tag_14:\n      tag_71\n      0x04\n      dup1\n      calldatasize\n      sub\n      dup2\n      add\n      swap1\n      tag_72\n      swap2\n      swap1\n      tag_38\n      jump\t// in\n    tag_72:\n      tag_73\n      jump\t// in\n    tag_71:\n      mload(0x40)\n      tag_74\n      swap5\n      swap4\n      swap3\n      swap2\n      swap1\n      tag_75\n      jump\t// in\n    tag_74:\n      mload(0x40)\n      dup1\n      swap2\n      sub\n      swap1\n      return\n        /* \"contracts/Twitter-Assignment/twitter-example.sol\":1561:1669  function tweet(string memory _content) public {... */\n    tag_15:\n      tag_76\n      0x04\n      dup1\n      calldatasize\n      sub\n      dup2\n      add\n      swap1\n      tag_77\n      swap2\n      swap1\n      tag_78\n      jump\t// in\n    tag_77:\n      tag_79\n      jump\t// in\n    tag_76:\n      stop\n        /* \"contracts/Twitter-Assignment/twitter-example.sol\":2291:2388  function allow(address _operator) public {... */\n    tag_16:\n      tag_80\n      0x04\n      dup1\n      calldatasize\n      sub\n      dup2\n      add\n      swap1\n      tag_81\n      swap2\n      swap1\n      tag_34\n      jump\t// in\n    tag_81:\n      tag_82\n      jump\t// in\n    tag_80:\n      stop\n        /* \"contracts/Twitter-Assignment/twitter-example.sol\":539:600  mapping(address => mapping(address => bool)) public operators */\n    tag_23:\n      mstore(0x20, 0x03)\n      dup2\n      0x00\n      mstore\n      mstore(0x20, keccak256(0x00, 0x40))\n      dup1\n      0x00\n      mstore\n      keccak256(0x00, 0x40)\n      0x00\n      swap2\n      pop\n      swap2\n      pop\n      swap1\n      sload\n      swap1\n      0x0100\n      exp\n      swap1\n      div\n      0xff\n      and\n      dup2\n      jump\t// out\n        /* \"contracts/Twitter-Assignment/twitter-example.sol\":482:532  mapping(address => Message[]) public conversations */\n    tag_29:\n      mstore(0x20, 0x02)\n      dup2\n      0x00\n      mstore\n      keccak256(0x00, 0x40)\n      dup2\n      dup2\n      sload\n      dup2\n      lt\n      tag_83\n      jumpi\n      0x00\n      dup1\n      revert\n    tag_83:\n      swap1\n      0x00\n      mstore\n      keccak256(0x00, 0x20)\n      swap1\n      0x05\n      mul\n      add\n      0x00\n      swap2\n      pop\n      swap2\n      pop\n      pop\n      dup1\n      0x00\n      add\n      sload\n      swap1\n      dup1\n      0x01\n      add\n      dup1\n      sload\n      tag_85\n      swap1\n      tag_86\n      jump\t// in\n    tag_85:\n      dup1\n      0x1f\n      add\n      0x20\n      dup1\n      swap2\n      div\n      mul\n      0x20\n      add\n      mload(0x40)\n      swap1\n      dup2\n      add\n      0x40\n      mstore\n      dup1\n      swap3\n      swap2\n      swap1\n      dup2\n      dup2\n      mstore\n      0x20\n      add\n      dup3\n      dup1\n      sload\n      tag_87\n      swap1\n      tag_86\n      jump\t// in\n    tag_87:\n      dup1\n      iszero\n      tag_88\n      jumpi\n      dup1\n      0x1f\n      lt\n      tag_89\n      jumpi\n      0x0100\n      dup1\n      dup4\n      sload\n      div\n      mul\n      dup4\n      mstore\n      swap2\n      0x20\n      add\n      swap2\n      jump(tag_88)\n    tag_89:\n      dup3\n      add\n      swap2\n      swap1\n      0x00\n      mstore\n      keccak256(0x00, 0x20)\n      swap1\n    tag_90:\n      dup2\n      sload\n      dup2\n      mstore\n      swap1\n      0x01\n      add\n      swap1\n      0x20\n      add\n      dup1\n      dup4\n      gt\n      tag_90\n      jumpi\n      dup3\n      swap1\n      sub\n      0x1f\n      and\n      dup3\n      add\n      swap2\n    tag_88:\n      pop\n      pop\n      pop\n      pop\n      pop\n      swap1\n      dup1\n      0x02\n      add\n      0x00\n      swap1\n      sload\n      swap1\n      0x0100\n      exp\n      swap1\n      div\n      0xffffffffffffffffffffffffffffffffffffffff\n      and\n      swap1\n      dup1\n      0x03\n      add\n      0x00\n      swap1\n      sload\n      swap1\n      0x0100\n      exp\n      swap1\n      div\n      0xffffffffffffffffffffffffffffffffffffffff\n      and\n      swap1\n      dup1\n      0x04\n      add\n      sload\n      swap1\n      pop\n      dup6\n      jump\t// out\n        /* \"contracts/Twitter-Assignment/twitter-example.sol\":2160:2285  function follow(address _followed) public {... */\n    tag_35:\n        /* \"contracts/Twitter-Assignment/twitter-example.sol\":2241:2250  following */\n      0x04\n        /* \"contracts/Twitter-Assignment/twitter-example.sol\":2241:2262  following[msg.sender] */\n      0x00\n        /* \"contracts/Twitter-Assignment/twitter-example.sol\":2251:2261  msg.sender */\n      caller\n        /* \"contracts/Twitter-Assignment/twitter-example.sol\":2241:2262  following[msg.sender] */\n      0xffffffffffffffffffffffffffffffffffffffff\n      and\n      0xffffffffffffffffffffffffffffffffffffffff\n      and\n      dup2\n      mstore\n      0x20\n      add\n      swap1\n      dup2\n      mstore\n      0x20\n      add\n      0x00\n      keccak256\n        /* \"contracts/Twitter-Assignment/twitter-example.sol\":2268:2277  _followed */\n      dup2\n        /* \"contracts/Twitter-Assignment/twitter-example.sol\":2241:2278  following[msg.sender].push(_followed) */\n      swap1\n      dup1\n      0x01\n      dup2\n      sload\n      add\n      dup1\n      dup3\n      sstore\n      dup1\n      swap2\n      pop\n      pop\n      0x01\n      swap1\n      sub\n      swap1\n      0x00\n      mstore\n      keccak256(0x00, 0x20)\n      add\n      0x00\n      swap1\n      swap2\n      swap1\n      swap2\n      swap1\n      swap2\n      0x0100\n      exp\n      dup2\n      sload\n      dup2\n      0xffffffffffffffffffffffffffffffffffffffff\n      mul\n      not\n      and\n      swap1\n      dup4\n      0xffffffffffffffffffffffffffffffffffffffff\n      and\n      mul\n      or\n      swap1\n      sstore\n      pop\n        /* \"contracts/Twitter-Assignment/twitter-example.sol\":2160:2285  function follow(address _followed) public {... */\n      pop\n      jump\t// out\n        /* \"contracts/Twitter-Assignment/twitter-example.sol\":2501:3186  function getLatestTweets(uint256 count)... */\n    tag_39:\n        /* \"contracts/Twitter-Assignment/twitter-example.sol\":2586:2600  Tweet[] memory */\n      0x60\n        /* \"contracts/Twitter-Assignment/twitter-example.sol\":2632:2633  0 */\n      0x00\n        /* \"contracts/Twitter-Assignment/twitter-example.sol\":2624:2629  count */\n      dup3\n        /* \"contracts/Twitter-Assignment/twitter-example.sol\":2624:2633  count > 0 */\n      gt\n        /* \"contracts/Twitter-Assignment/twitter-example.sol\":2624:2652  count > 0 && count <= nextId */\n      dup1\n      iszero\n      tag_94\n      jumpi\n      pop\n        /* \"contracts/Twitter-Assignment/twitter-example.sol\":2646:2652  nextId */\n      sload(0x05)\n        /* \"contracts/Twitter-Assignment/twitter-example.sol\":2637:2642  count */\n      dup3\n        /* \"contracts/Twitter-Assignment/twitter-example.sol\":2637:2652  count <= nextId */\n      gt\n      iszero\n        /* \"contracts/Twitter-Assignment/twitter-example.sol\":2624:2652  count > 0 && count <= nextId */\n    tag_94:\n        /* \"contracts/Twitter-Assignment/twitter-example.sol\":2616:2676  require(count > 0 && count <= nextId, \"Count is not proper\") */\n      tag_95\n      jumpi\n      mload(0x40)\n      0x08c379a000000000000000000000000000000000000000000000000000000000\n      dup2\n      mstore\n      0x04\n      add\n      tag_96\n      swap1\n      tag_97\n      jump\t// in\n    tag_96:\n      mload(0x40)\n      dup1\n      swap2\n      sub\n      swap1\n      revert\n    tag_95:\n        /* \"contracts/Twitter-Assignment/twitter-example.sol\":2687:2709  Tweet[] memory _tweets */\n      0x00\n        /* \"contracts/Twitter-Assignment/twitter-example.sol\":2724:2729  count */\n      dup3\n        /* \"contracts/Twitter-Assignment/twitter-example.sol\":2712:2730  new Tweet[](count) */\n      0xffffffffffffffff\n      dup2\n      gt\n      iszero\n      tag_98\n      jumpi\n      tag_99\n      tag_100\n      jump\t// in\n    tag_99:\n    tag_98:\n      mload(0x40)\n      swap1\n      dup1\n      dup3\n      mstore\n      dup1\n      0x20\n      mul\n      0x20\n      add\n      dup3\n      add\n      0x40\n      mstore\n      dup1\n      iszero\n      tag_101\n      jumpi\n      dup2\n      0x20\n      add\n    tag_102:\n      tag_103\n      tag_104\n      jump\t// in\n    tag_103:\n      dup2\n      mstore\n      0x20\n      add\n      swap1\n      0x01\n      swap1\n      sub\n      swap1\n      dup2\n      tag_102\n      jumpi\n      swap1\n      pop\n    tag_101:\n      pop\n        /* \"contracts/Twitter-Assignment/twitter-example.sol\":2687:2730  Tweet[] memory _tweets = new Tweet[](count) */\n      swap1\n      pop\n        /* \"contracts/Twitter-Assignment/twitter-example.sol\":2764:2773  uint256 j */\n      0x00\n        /* \"contracts/Twitter-Assignment/twitter-example.sol\":2789:2798  uint256 i */\n      dup1\n        /* \"contracts/Twitter-Assignment/twitter-example.sol\":2810:2815  count */\n      dup5\n        /* \"contracts/Twitter-Assignment/twitter-example.sol\":2801:2807  nextId */\n      sload(0x05)\n        /* \"contracts/Twitter-Assignment/twitter-example.sol\":2801:2815  nextId - count */\n      tag_108\n      swap2\n      swap1\n      tag_109\n      jump\t// in\n    tag_108:\n        /* \"contracts/Twitter-Assignment/twitter-example.sol\":2789:2815  uint256 i = nextId - count */\n      swap1\n      pop\n        /* \"contracts/Twitter-Assignment/twitter-example.sol\":2784:3155  for (uint256 i = nextId - count; i < nextId; i++) {... */\n    tag_105:\n        /* \"contracts/Twitter-Assignment/twitter-example.sol\":2821:2827  nextId */\n      sload(0x05)\n        /* \"contracts/Twitter-Assignment/twitter-example.sol\":2817:2818  i */\n      dup2\n        /* \"contracts/Twitter-Assignment/twitter-example.sol\":2817:2827  i < nextId */\n      lt\n        /* \"contracts/Twitter-Assignment/twitter-example.sol\":2784:3155  for (uint256 i = nextId - count; i < nextId; i++) {... */\n      iszero\n      tag_106\n      jumpi\n        /* \"contracts/Twitter-Assignment/twitter-example.sol\":2897:2921  Tweet storage _structure */\n      0x00\n        /* \"contracts/Twitter-Assignment/twitter-example.sol\":2924:2930  tweets */\n      dup1\n        /* \"contracts/Twitter-Assignment/twitter-example.sol\":2924:2933  tweets[i] */\n      0x00\n        /* \"contracts/Twitter-Assignment/twitter-example.sol\":2931:2932  i */\n      dup4\n        /* \"contracts/Twitter-Assignment/twitter-example.sol\":2924:2933  tweets[i] */\n      dup2\n      mstore\n      0x20\n      add\n      swap1\n      dup2\n      mstore\n      0x20\n      add\n      0x00\n      keccak256\n        /* \"contracts/Twitter-Assignment/twitter-example.sol\":2897:2933  Tweet storage _structure = tweets[i] */\n      swap1\n      pop\n        /* \"contracts/Twitter-Assignment/twitter-example.sol\":2961:3120  Tweet(... */\n      mload(0x40)\n      dup1\n      0x80\n      add\n      0x40\n      mstore\n      dup1\n        /* \"contracts/Twitter-Assignment/twitter-example.sol\":2984:2994  _structure */\n      dup3\n        /* \"contracts/Twitter-Assignment/twitter-example.sol\":2984:2997  _structure.id */\n      0x00\n      add\n      sload\n        /* \"contracts/Twitter-Assignment/twitter-example.sol\":2961:3120  Tweet(... */\n      dup2\n      mstore\n      0x20\n      add\n        /* \"contracts/Twitter-Assignment/twitter-example.sol\":3015:3025  _structure */\n      dup3\n        /* \"contracts/Twitter-Assignment/twitter-example.sol\":3015:3032  _structure.author */\n      0x01\n      add\n      0x00\n      swap1\n      sload\n      swap1\n      0x0100\n      exp\n      swap1\n      div\n      0xffffffffffffffffffffffffffffffffffffffff\n      and\n        /* \"contracts/Twitter-Assignment/twitter-example.sol\":2961:3120  Tweet(... */\n      0xffffffffffffffffffffffffffffffffffffffff\n      and\n      dup2\n      mstore\n      0x20\n      add\n        /* \"contracts/Twitter-Assignment/twitter-example.sol\":3050:3060  _structure */\n      dup3\n        /* \"contracts/Twitter-Assignment/twitter-example.sol\":3050:3068  _structure.content */\n      0x02\n      add\n        /* \"contracts/Twitter-Assignment/twitter-example.sol\":2961:3120  Tweet(... */\n      dup1\n      sload\n      tag_110\n      swap1\n      tag_86\n      jump\t// in\n    tag_110:\n      dup1\n      0x1f\n      add\n      0x20\n      dup1\n      swap2\n      div\n      mul\n      0x20\n      add\n      mload(0x40)\n      swap1\n      dup2\n      add\n      0x40\n      mstore\n      dup1\n      swap3\n      swap2\n      swap1\n      dup2\n      dup2\n      mstore\n      0x20\n      add\n      dup3\n      dup1\n      sload\n      tag_111\n      swap1\n      tag_86\n      jump\t// in\n    tag_111:\n      dup1\n      iszero\n      tag_112\n      jumpi\n      dup1\n      0x1f\n      lt\n      tag_113\n      jumpi\n      0x0100\n      dup1\n      dup4\n      sload\n      div\n      mul\n      dup4\n      mstore\n      swap2\n      0x20\n      add\n      swap2\n      jump(tag_112)\n    tag_113:\n      dup3\n      add\n      swap2\n      swap1\n      0x00\n      mstore\n      keccak256(0x00, 0x20)\n      swap1\n    tag_114:\n      dup2\n      sload\n      dup2\n      mstore\n      swap1\n      0x01\n      add\n      swap1\n      0x20\n      add\n      dup1\n      dup4\n      gt\n      tag_114\n      jumpi\n      dup3\n      swap1\n      sub\n      0x1f\n      and\n      dup3\n      add\n      swap2\n    tag_112:\n      pop\n      pop\n      pop\n      pop\n      pop\n      dup2\n      mstore\n      0x20\n      add\n        /* \"contracts/Twitter-Assignment/twitter-example.sol\":3086:3096  _structure */\n      dup3\n        /* \"contracts/Twitter-Assignment/twitter-example.sol\":3086:3106  _structure.createdAt */\n      0x03\n      add\n      sload\n        /* \"contracts/Twitter-Assignment/twitter-example.sol\":2961:3120  Tweet(... */\n      dup2\n      mstore\n      pop\n        /* \"contracts/Twitter-Assignment/twitter-example.sol\":2948:2955  _tweets */\n      dup5\n        /* \"contracts/Twitter-Assignment/twitter-example.sol\":2956:2957  j */\n      dup5\n        /* \"contracts/Twitter-Assignment/twitter-example.sol\":2948:2958  _tweets[j] */\n      dup2\n      mload\n      dup2\n      lt\n      tag_115\n      jumpi\n      tag_116\n      tag_117\n      jump\t// in\n    tag_116:\n    tag_115:\n      0x20\n      mul\n      0x20\n      add\n      add\n        /* \"contracts/Twitter-Assignment/twitter-example.sol\":2948:3120  _tweets[j] = Tweet(... */\n      dup2\n      swap1\n      mstore\n      pop\n        /* \"contracts/Twitter-Assignment/twitter-example.sol\":3143:3144  1 */\n      0x01\n        /* \"contracts/Twitter-Assignment/twitter-example.sol\":3139:3140  j */\n      dup4\n        /* \"contracts/Twitter-Assignment/twitter-example.sol\":3139:3144  j + 1 */\n      tag_118\n      swap2\n      swap1\n      tag_119\n      jump\t// in\n    tag_118:\n        /* \"contracts/Twitter-Assignment/twitter-example.sol\":3135:3144  j = j + 1 */\n      swap3\n      pop\n        /* \"contracts/Twitter-Assignment/twitter-example.sol\":2834:3155  {... */\n      pop\n        /* \"contracts/Twitter-Assignment/twitter-example.sol\":2829:2832  i++ */\n      dup1\n      dup1\n      0x01\n      add\n      swap2\n      pop\n      pop\n        /* \"contracts/Twitter-Assignment/twitter-example.sol\":2784:3155  for (uint256 i = nextId - count; i < nextId; i++) {... */\n      jump(tag_105)\n    tag_106:\n      pop\n        /* \"contracts/Twitter-Assignment/twitter-example.sol\":3172:3179  _tweets */\n      dup2\n        /* \"contracts/Twitter-Assignment/twitter-example.sol\":3165:3179  return _tweets */\n      swap3\n      pop\n      pop\n      pop\n        /* \"contracts/Twitter-Assignment/twitter-example.sol\":2501:3186  function getLatestTweets(uint256 count)... */\n      swap2\n      swap1\n      pop\n      jump\t// out\n        /* \"contracts/Twitter-Assignment/twitter-example.sol\":3192:4077  function getLatestofUser(address _user, uint256 count)... */\n    tag_44:\n        /* \"contracts/Twitter-Assignment/twitter-example.sol\":3292:3306  Tweet[] memory */\n      0x60\n        /* \"contracts/Twitter-Assignment/twitter-example.sol\":3335:3357  Tweet[] memory _tweets */\n      0x00\n        /* \"contracts/Twitter-Assignment/twitter-example.sol\":3372:3377  count */\n      dup3\n        /* \"contracts/Twitter-Assignment/twitter-example.sol\":3360:3378  new Tweet[](count) */\n      0xffffffffffffffff\n      dup2\n      gt\n      iszero\n      tag_121\n      jumpi\n      tag_122\n      tag_100\n      jump\t// in\n    tag_122:\n    tag_121:\n      mload(0x40)\n      swap1\n      dup1\n      dup3\n      mstore\n      dup1\n      0x20\n      mul\n      0x20\n      add\n      dup3\n      add\n      0x40\n      mstore\n      dup1\n      iszero\n      tag_123\n      jumpi\n      dup2\n      0x20\n      add\n    tag_124:\n      tag_125\n      tag_104\n      jump\t// in\n    tag_125:\n      dup2\n      mstore\n      0x20\n      add\n      swap1\n      0x01\n      swap1\n      sub\n      swap1\n      dup2\n      tag_124\n      jumpi\n      swap1\n      pop\n    tag_123:\n      pop\n        /* \"contracts/Twitter-Assignment/twitter-example.sol\":3335:3378  Tweet[] memory _tweets = new Tweet[](count) */\n      swap1\n      pop\n        /* \"contracts/Twitter-Assignment/twitter-example.sol\":3493:3513  uint256[] memory ids */\n      0x00\n        /* \"contracts/Twitter-Assignment/twitter-example.sol\":3516:3524  tweetsOf */\n      0x01\n        /* \"contracts/Twitter-Assignment/twitter-example.sol\":3516:3531  tweetsOf[_user] */\n      0x00\n        /* \"contracts/Twitter-Assignment/twitter-example.sol\":3525:3530  _user */\n      dup7\n        /* \"contracts/Twitter-Assignment/twitter-example.sol\":3516:3531  tweetsOf[_user] */\n      0xffffffffffffffffffffffffffffffffffffffff\n      and\n      0xffffffffffffffffffffffffffffffffffffffff\n      and\n      dup2\n      mstore\n      0x20\n      add\n      swap1\n      dup2\n      mstore\n      0x20\n      add\n      0x00\n      keccak256\n        /* \"contracts/Twitter-Assignment/twitter-example.sol\":3493:3531  uint256[] memory ids = tweetsOf[_user] */\n      dup1\n      sload\n      dup1\n      0x20\n      mul\n      0x20\n      add\n      mload(0x40)\n      swap1\n      dup2\n      add\n      0x40\n      mstore\n      dup1\n      swap3\n      swap2\n      swap1\n      dup2\n      dup2\n      mstore\n      0x20\n      add\n      dup3\n      dup1\n      sload\n      dup1\n      iszero\n      tag_126\n      jumpi\n      0x20\n      mul\n      dup3\n      add\n      swap2\n      swap1\n      0x00\n      mstore\n      keccak256(0x00, 0x20)\n      swap1\n    tag_127:\n      dup2\n      sload\n      dup2\n      mstore\n      0x20\n      add\n      swap1\n      0x01\n      add\n      swap1\n      dup1\n      dup4\n      gt\n      tag_127\n      jumpi\n    tag_126:\n      pop\n      pop\n      pop\n      pop\n      pop\n      swap1\n      pop\n        /* \"contracts/Twitter-Assignment/twitter-example.sol\":3577:3578  0 */\n      0x00\n        /* \"contracts/Twitter-Assignment/twitter-example.sol\":3569:3574  count */\n      dup5\n        /* \"contracts/Twitter-Assignment/twitter-example.sol\":3569:3578  count > 0 */\n      gt\n        /* \"contracts/Twitter-Assignment/twitter-example.sol\":3569:3601  count > 0 && count <= ids.length */\n      dup1\n      iszero\n      tag_128\n      jumpi\n      pop\n        /* \"contracts/Twitter-Assignment/twitter-example.sol\":3591:3594  ids */\n      dup1\n        /* \"contracts/Twitter-Assignment/twitter-example.sol\":3591:3601  ids.length */\n      mload\n        /* \"contracts/Twitter-Assignment/twitter-example.sol\":3582:3587  count */\n      dup5\n        /* \"contracts/Twitter-Assignment/twitter-example.sol\":3582:3601  count <= ids.length */\n      gt\n      iszero\n        /* \"contracts/Twitter-Assignment/twitter-example.sol\":3569:3601  count > 0 && count <= ids.length */\n    tag_128:\n        /* \"contracts/Twitter-Assignment/twitter-example.sol\":3561:3626  require(count > 0 && count <= ids.length, \"Count is not defined\") */\n      tag_129\n      jumpi\n      mload(0x40)\n      0x08c379a000000000000000000000000000000000000000000000000000000000\n      dup2\n      mstore\n      0x04\n      add\n      tag_130\n      swap1\n      tag_131\n      jump\t// in\n    tag_130:\n      mload(0x40)\n      dup1\n      swap2\n      sub\n      swap1\n      revert\n    tag_129:\n        /* \"contracts/Twitter-Assignment/twitter-example.sol\":3637:3646  uint256 j */\n      0x00\n        /* \"contracts/Twitter-Assignment/twitter-example.sol\":3662:3671  uint256 i */\n      dup1\n        /* \"contracts/Twitter-Assignment/twitter-example.sol\":3687:3692  count */\n      dup6\n        /* \"contracts/Twitter-Assignment/twitter-example.sol\":3674:3677  ids */\n      dup4\n        /* \"contracts/Twitter-Assignment/twitter-example.sol\":3674:3684  ids.length */\n      mload\n        /* \"contracts/Twitter-Assignment/twitter-example.sol\":3674:3692  ids.length - count */\n      tag_135\n      swap2\n      swap1\n      tag_109\n      jump\t// in\n    tag_135:\n        /* \"contracts/Twitter-Assignment/twitter-example.sol\":3662:3692  uint256 i = ids.length - count */\n      swap1\n      pop\n        /* \"contracts/Twitter-Assignment/twitter-example.sol\":3657:4046  for (uint256 i = ids.length - count; i < ids.length; i++) {... */\n    tag_132:\n        /* \"contracts/Twitter-Assignment/twitter-example.sol\":3698:3701  ids */\n      dup3\n        /* \"contracts/Twitter-Assignment/twitter-example.sol\":3698:3708  ids.length */\n      mload\n        /* \"contracts/Twitter-Assignment/twitter-example.sol\":3694:3695  i */\n      dup2\n        /* \"contracts/Twitter-Assignment/twitter-example.sol\":3694:3708  i < ids.length */\n      lt\n        /* \"contracts/Twitter-Assignment/twitter-example.sol\":3657:4046  for (uint256 i = ids.length - count; i < ids.length; i++) {... */\n      iszero\n      tag_133\n      jumpi\n        /* \"contracts/Twitter-Assignment/twitter-example.sol\":3757:3781  Tweet storage _structure */\n      0x00\n        /* \"contracts/Twitter-Assignment/twitter-example.sol\":3784:3790  tweets */\n      dup1\n        /* \"contracts/Twitter-Assignment/twitter-example.sol\":3784:3798  tweets[ids[i]] */\n      0x00\n        /* \"contracts/Twitter-Assignment/twitter-example.sol\":3791:3794  ids */\n      dup6\n        /* \"contracts/Twitter-Assignment/twitter-example.sol\":3795:3796  i */\n      dup5\n        /* \"contracts/Twitter-Assignment/twitter-example.sol\":3791:3797  ids[i] */\n      dup2\n      mload\n      dup2\n      lt\n      tag_136\n      jumpi\n      tag_137\n      tag_117\n      jump\t// in\n    tag_137:\n    tag_136:\n      0x20\n      mul\n      0x20\n      add\n      add\n      mload\n        /* \"contracts/Twitter-Assignment/twitter-example.sol\":3784:3798  tweets[ids[i]] */\n      dup2\n      mstore\n      0x20\n      add\n      swap1\n      dup2\n      mstore\n      0x20\n      add\n      0x00\n      keccak256\n        /* \"contracts/Twitter-Assignment/twitter-example.sol\":3757:3798  Tweet storage _structure = tweets[ids[i]] */\n      swap1\n      pop\n        /* \"contracts/Twitter-Assignment/twitter-example.sol\":3852:4011  Tweet(... */\n      mload(0x40)\n      dup1\n      0x80\n      add\n      0x40\n      mstore\n      dup1\n        /* \"contracts/Twitter-Assignment/twitter-example.sol\":3875:3885  _structure */\n      dup3\n        /* \"contracts/Twitter-Assignment/twitter-example.sol\":3875:3888  _structure.id */\n      0x00\n      add\n      sload\n        /* \"contracts/Twitter-Assignment/twitter-example.sol\":3852:4011  Tweet(... */\n      dup2\n      mstore\n      0x20\n      add\n        /* \"contracts/Twitter-Assignment/twitter-example.sol\":3906:3916  _structure */\n      dup3\n        /* \"contracts/Twitter-Assignment/twitter-example.sol\":3906:3923  _structure.author */\n      0x01\n      add\n      0x00\n      swap1\n      sload\n      swap1\n      0x0100\n      exp\n      swap1\n      div\n      0xffffffffffffffffffffffffffffffffffffffff\n      and\n        /* \"contracts/Twitter-Assignment/twitter-example.sol\":3852:4011  Tweet(... */\n      0xffffffffffffffffffffffffffffffffffffffff\n      and\n      dup2\n      mstore\n      0x20\n      add\n        /* \"contracts/Twitter-Assignment/twitter-example.sol\":3941:3951  _structure */\n      dup3\n        /* \"contracts/Twitter-Assignment/twitter-example.sol\":3941:3959  _structure.content */\n      0x02\n      add\n        /* \"contracts/Twitter-Assignment/twitter-example.sol\":3852:4011  Tweet(... */\n      dup1\n      sload\n      tag_138\n      swap1\n      tag_86\n      jump\t// in\n    tag_138:\n      dup1\n      0x1f\n      add\n      0x20\n      dup1\n      swap2\n      div\n      mul\n      0x20\n      add\n      mload(0x40)\n      swap1\n      dup2\n      add\n      0x40\n      mstore\n      dup1\n      swap3\n      swap2\n      swap1\n      dup2\n      dup2\n      mstore\n      0x20\n      add\n      dup3\n      dup1\n      sload\n      tag_139\n      swap1\n      tag_86\n      jump\t// in\n    tag_139:\n      dup1\n      iszero\n      tag_140\n      jumpi\n      dup1\n      0x1f\n      lt\n      tag_141\n      jumpi\n      0x0100\n      dup1\n      dup4\n      sload\n      div\n      mul\n      dup4\n      mstore\n      swap2\n      0x20\n      add\n      swap2\n      jump(tag_140)\n    tag_141:\n      dup3\n      add\n      swap2\n      swap1\n      0x00\n      mstore\n      keccak256(0x00, 0x20)\n      swap1\n    tag_142:\n      dup2\n      sload\n      dup2\n      mstore\n      swap1\n      0x01\n      add\n      swap1\n      0x20\n      add\n      dup1\n      dup4\n      gt\n      tag_142\n      jumpi\n      dup3\n      swap1\n      sub\n      0x1f\n      and\n      dup3\n      add\n      swap2\n    tag_140:\n      pop\n      pop\n      pop\n      pop\n      pop\n      dup2\n      mstore\n      0x20\n      add\n        /* \"contracts/Twitter-Assignment/twitter-example.sol\":3977:3987  _structure */\n      dup3\n        /* \"contracts/Twitter-Assignment/twitter-example.sol\":3977:3997  _structure.createdAt */\n      0x03\n      add\n      sload\n        /* \"contracts/Twitter-Assignment/twitter-example.sol\":3852:4011  Tweet(... */\n      dup2\n      mstore\n      pop\n        /* \"contracts/Twitter-Assignment/twitter-example.sol\":3839:3846  _tweets */\n      dup6\n        /* \"contracts/Twitter-Assignment/twitter-example.sol\":3847:3848  j */\n      dup5\n        /* \"contracts/Twitter-Assignment/twitter-example.sol\":3839:3849  _tweets[j] */\n      dup2\n      mload\n      dup2\n      lt\n      tag_143\n      jumpi\n      tag_144\n      tag_117\n      jump\t// in\n    tag_144:\n    tag_143:\n      0x20\n      mul\n      0x20\n      add\n      add\n        /* \"contracts/Twitter-Assignment/twitter-example.sol\":3839:4011  _tweets[j] = Tweet(... */\n      dup2\n      swap1\n      mstore\n      pop\n        /* \"contracts/Twitter-Assignment/twitter-example.sol\":4034:4035  1 */\n      0x01\n        /* \"contracts/Twitter-Assignment/twitter-example.sol\":4030:4031  j */\n      dup4\n        /* \"contracts/Twitter-Assignment/twitter-example.sol\":4030:4035  j + 1 */\n      tag_145\n      swap2\n      swap1\n      tag_119\n      jump\t// in\n    tag_145:\n        /* \"contracts/Twitter-Assignment/twitter-example.sol\":4026:4035  j = j + 1 */\n      swap3\n      pop\n        /* \"contracts/Twitter-Assignment/twitter-example.sol\":3715:4046  {... */\n      pop\n        /* \"contracts/Twitter-Assignment/twitter-example.sol\":3710:3713  i++ */\n      dup1\n      dup1\n      0x01\n      add\n      swap2\n      pop\n      pop\n        /* \"contracts/Twitter-Assignment/twitter-example.sol\":3657:4046  for (uint256 i = ids.length - count; i < ids.length; i++) {... */\n      jump(tag_132)\n    tag_133:\n      pop\n        /* \"contracts/Twitter-Assignment/twitter-example.sol\":4063:4070  _tweets */\n      dup3\n        /* \"contracts/Twitter-Assignment/twitter-example.sol\":4056:4070  return _tweets */\n      swap4\n      pop\n      pop\n      pop\n      pop\n        /* \"contracts/Twitter-Assignment/twitter-example.sol\":3192:4077  function getLatestofUser(address _user, uint256 count)... */\n      swap3\n      swap2\n      pop\n      pop\n      jump\t// out\n        /* \"contracts/Twitter-Assignment/twitter-example.sol\":607:653  mapping(address => address[]) public following */\n    tag_48:\n      mstore(0x20, 0x04)\n      dup2\n      0x00\n      mstore\n      keccak256(0x00, 0x40)\n      dup2\n      dup2\n      sload\n      dup2\n      lt\n      tag_146\n      jumpi\n      0x00\n      dup1\n      revert\n    tag_146:\n      swap1\n      0x00\n      mstore\n      keccak256(0x00, 0x20)\n      add\n      0x00\n      swap2\n      pop\n      swap2\n      pop\n      swap1\n      sload\n      swap1\n      0x0100\n      exp\n      swap1\n      div\n      0xffffffffffffffffffffffffffffffffffffffff\n      and\n      dup2\n      jump\t// out\n        /* \"contracts/Twitter-Assignment/twitter-example.sol\":2394:2495  function disallow(address _operator) public {... */\n    tag_53:\n        /* \"contracts/Twitter-Assignment/twitter-example.sol\":2483:2488  false */\n      0x00\n        /* \"contracts/Twitter-Assignment/twitter-example.sol\":2448:2457  operators */\n      0x03\n        /* \"contracts/Twitter-Assignment/twitter-example.sol\":2448:2469  operators[msg.sender] */\n      0x00\n        /* \"contracts/Twitter-Assignment/twitter-example.sol\":2458:2468  msg.sender */\n      caller\n        /* \"contracts/Twitter-Assignment/twitter-example.sol\":2448:2469  operators[msg.sender] */\n      0xffffffffffffffffffffffffffffffffffffffff\n      and\n      0xffffffffffffffffffffffffffffffffffffffff\n      and\n      dup2\n      mstore\n      0x20\n      add\n      swap1\n      dup2\n      mstore\n      0x20\n      add\n      0x00\n      keccak256\n        /* \"contracts/Twitter-Assignment/twitter-example.sol\":2448:2480  operators[msg.sender][_operator] */\n      0x00\n        /* \"contracts/Twitter-Assignment/twitter-example.sol\":2470:2479  _operator */\n      dup4\n        /* \"contracts/Twitter-Assignment/twitter-example.sol\":2448:2480  operators[msg.sender][_operator] */\n      0xffffffffffffffffffffffffffffffffffffffff\n      and\n      0xffffffffffffffffffffffffffffffffffffffff\n      and\n      dup2\n      mstore\n      0x20\n      add\n      swap1\n      dup2\n      mstore\n      0x20\n      add\n      0x00\n      keccak256\n      0x00\n        /* \"contracts/Twitter-Assignment/twitter-example.sol\":2448:2488  operators[msg.sender][_operator] = false */\n      0x0100\n      exp\n      dup2\n      sload\n      dup2\n      0xff\n      mul\n      not\n      and\n      swap1\n      dup4\n      iszero\n      iszero\n      mul\n      or\n      swap1\n      sstore\n      pop\n        /* \"contracts/Twitter-Assignment/twitter-example.sol\":2394:2495  function disallow(address _operator) public {... */\n      pop\n      jump\t// out\n        /* \"contracts/Twitter-Assignment/twitter-example.sol\":403:448  mapping(address => uint256[]) public tweetsOf */\n    tag_56:\n      mstore(0x20, 0x01)\n      dup2\n      0x00\n      mstore\n      keccak256(0x00, 0x40)\n      dup2\n      dup2\n      sload\n      dup2\n      lt\n      tag_149\n      jumpi\n      0x00\n      dup1\n      revert\n    tag_149:\n      swap1\n      0x00\n      mstore\n      keccak256(0x00, 0x20)\n      add\n      0x00\n      swap2\n      pop\n      swap2\n      pop\n      pop\n      sload\n      dup2\n      jump\t// out\n        /* \"contracts/Twitter-Assignment/twitter-example.sol\":1959:2154  function sendMessage(... */\n    tag_62:\n        /* \"contracts/Twitter-Assignment/twitter-example.sol\":2113:2147  _sendMessage(_from, _to, _content) */\n      tag_152\n        /* \"contracts/Twitter-Assignment/twitter-example.sol\":2126:2131  _from */\n      dup4\n        /* \"contracts/Twitter-Assignment/twitter-example.sol\":2133:2136  _to */\n      dup4\n        /* \"contracts/Twitter-Assignment/twitter-example.sol\":2138:2146  _content */\n      dup4\n        /* \"contracts/Twitter-Assignment/twitter-example.sol\":2113:2125  _sendMessage */\n      tag_153\n        /* \"contracts/Twitter-Assignment/twitter-example.sol\":2113:2147  _sendMessage(_from, _to, _content) */\n      jump\t// in\n    tag_152:\n        /* \"contracts/Twitter-Assignment/twitter-example.sol\":1959:2154  function sendMessage(... */\n      pop\n      pop\n      pop\n      jump\t// out\n        /* \"contracts/Twitter-Assignment/twitter-example.sol\":1815:1953  function sendMessage(string memory _content, address _to) public {... */\n    tag_66:\n        /* \"contracts/Twitter-Assignment/twitter-example.sol\":1907:1946  _sendMessage(msg.sender, _to, _content) */\n      tag_155\n        /* \"contracts/Twitter-Assignment/twitter-example.sol\":1920:1930  msg.sender */\n      caller\n        /* \"contracts/Twitter-Assignment/twitter-example.sol\":1932:1935  _to */\n      dup3\n        /* \"contracts/Twitter-Assignment/twitter-example.sol\":1937:1945  _content */\n      dup5\n        /* \"contracts/Twitter-Assignment/twitter-example.sol\":1907:1919  _sendMessage */\n      tag_153\n        /* \"contracts/Twitter-Assignment/twitter-example.sol\":1907:1946  _sendMessage(msg.sender, _to, _content) */\n      jump\t// in\n    tag_155:\n        /* \"contracts/Twitter-Assignment/twitter-example.sol\":1815:1953  function sendMessage(string memory _content, address _to) public {... */\n      pop\n      pop\n      jump\t// out\n        /* \"contracts/Twitter-Assignment/twitter-example.sol\":1675:1809  function tweet(address _from, string memory _content) public {... */\n    tag_70:\n        /* \"contracts/Twitter-Assignment/twitter-example.sol\":1779:1802  _tweet(_from, _content) */\n      tag_157\n        /* \"contracts/Twitter-Assignment/twitter-example.sol\":1786:1791  _from */\n      dup3\n        /* \"contracts/Twitter-Assignment/twitter-example.sol\":1793:1801  _content */\n      dup3\n        /* \"contracts/Twitter-Assignment/twitter-example.sol\":1779:1785  _tweet */\n      tag_158\n        /* \"contracts/Twitter-Assignment/twitter-example.sol\":1779:1802  _tweet(_from, _content) */\n      jump\t// in\n    tag_157:\n        /* \"contracts/Twitter-Assignment/twitter-example.sol\":1675:1809  function tweet(address _from, string memory _content) public {... */\n      pop\n      pop\n      jump\t// out\n        /* \"contracts/Twitter-Assignment/twitter-example.sol\":357:396  mapping(uint256 => Tweet) public tweets */\n    tag_73:\n      mstore(0x20, 0x00)\n      dup1\n      0x00\n      mstore\n      keccak256(0x00, 0x40)\n      0x00\n      swap2\n      pop\n      swap1\n      pop\n      dup1\n      0x00\n      add\n      sload\n      swap1\n      dup1\n      0x01\n      add\n      0x00\n      swap1\n      sload\n      swap1\n      0x0100\n      exp\n      swap1\n      div\n      0xffffffffffffffffffffffffffffffffffffffff\n      and\n      swap1\n      dup1\n      0x02\n      add\n      dup1\n      sload\n      tag_159\n      swap1\n      tag_86\n      jump\t// in\n    tag_159:\n      dup1\n      0x1f\n      add\n      0x20\n      dup1\n      swap2\n      div\n      mul\n      0x20\n      add\n      mload(0x40)\n      swap1\n      dup2\n      add\n      0x40\n      mstore\n      dup1\n      swap3\n      swap2\n      swap1\n      dup2\n      dup2\n      mstore\n      0x20\n      add\n      dup3\n      dup1\n      sload\n      tag_160\n      swap1\n      tag_86\n      jump\t// in\n    tag_160:\n      dup1\n      iszero\n      tag_161\n      jumpi\n      dup1\n      0x1f\n      lt\n      tag_162\n      jumpi\n      0x0100\n      dup1\n      dup4\n      sload\n      div\n      mul\n      dup4\n      mstore\n      swap2\n      0x20\n      add\n      swap2\n      jump(tag_161)\n    tag_162:\n      dup3\n      add\n      swap2\n      swap1\n      0x00\n      mstore\n      keccak256(0x00, 0x20)\n      swap1\n    tag_163:\n      dup2\n      sload\n      dup2\n      mstore\n      swap1\n      0x01\n      add\n      swap1\n      0x20\n      add\n      dup1\n      dup4\n      gt\n      tag_163\n      jumpi\n      dup3\n      swap1\n      sub\n      0x1f\n      and\n      dup3\n      add\n      swap2\n    tag_161:\n      pop\n      pop\n      pop\n      pop\n      pop\n      swap1\n      dup1\n      0x03\n      add\n      sload\n      swap1\n      pop\n      dup5\n      jump\t// out\n        /* \"contracts/Twitter-Assignment/twitter-example.sol\":1561:1669  function tweet(string memory _content) public {... */\n    tag_79:\n        /* \"contracts/Twitter-Assignment/twitter-example.sol\":1634:1662  _tweet(msg.sender, _content) */\n      tag_165\n        /* \"contracts/Twitter-Assignment/twitter-example.sol\":1641:1651  msg.sender */\n      caller\n        /* \"contracts/Twitter-Assignment/twitter-example.sol\":1653:1661  _content */\n      dup3\n        /* \"contracts/Twitter-Assignment/twitter-example.sol\":1634:1640  _tweet */\n      tag_158\n        /* \"contracts/Twitter-Assignment/twitter-example.sol\":1634:1662  _tweet(msg.sender, _content) */\n      jump\t// in\n    tag_165:\n        /* \"contracts/Twitter-Assignment/twitter-example.sol\":1561:1669  function tweet(string memory _content) public {... */\n      pop\n      jump\t// out\n        /* \"contracts/Twitter-Assignment/twitter-example.sol\":2291:2388  function allow(address _operator) public {... */\n    tag_82:\n        /* \"contracts/Twitter-Assignment/twitter-example.sol\":2377:2381  true */\n      0x01\n        /* \"contracts/Twitter-Assignment/twitter-example.sol\":2342:2351  operators */\n      0x03\n        /* \"contracts/Twitter-Assignment/twitter-example.sol\":2342:2363  operators[msg.sender] */\n      0x00\n        /* \"contracts/Twitter-Assignment/twitter-example.sol\":2352:2362  msg.sender */\n      caller\n        /* \"contracts/Twitter-Assignment/twitter-example.sol\":2342:2363  operators[msg.sender] */\n      0xffffffffffffffffffffffffffffffffffffffff\n      and\n      0xffffffffffffffffffffffffffffffffffffffff\n      and\n      dup2\n      mstore\n      0x20\n      add\n      swap1\n      dup2\n      mstore\n      0x20\n      add\n      0x00\n      keccak256\n        /* \"contracts/Twitter-Assignment/twitter-example.sol\":2342:2374  operators[msg.sender][_operator] */\n      0x00\n        /* \"contracts/Twitter-Assignment/twitter-example.sol\":2364:2373  _operator */\n      dup4\n        /* \"contracts/Twitter-Assignment/twitter-example.sol\":2342:2374  operators[msg.sender][_operator] */\n      0xffffffffffffffffffffffffffffffffffffffff\n      and\n      0xffffffffffffffffffffffffffffffffffffffff\n      and\n      dup2\n      mstore\n      0x20\n      add\n      swap1\n      dup2\n      mstore\n      0x20\n      add\n      0x00\n      keccak256\n      0x00\n        /* \"contracts/Twitter-Assignment/twitter-example.sol\":2342:2381  operators[msg.sender][_operator] = true */\n      0x0100\n      exp\n      dup2\n      sload\n      dup2\n      0xff\n      mul\n      not\n      and\n      swap1\n      dup4\n      iszero\n      iszero\n      mul\n      or\n      swap1\n      sstore\n      pop\n        /* \"contracts/Twitter-Assignment/twitter-example.sol\":2291:2388  function allow(address _operator) public {... */\n      pop\n      jump\t// out\n        /* \"contracts/Twitter-Assignment/twitter-example.sol\":1111:1555  function _sendMessage(... */\n    tag_153:\n        /* \"contracts/Twitter-Assignment/twitter-example.sol\":1312:1322  msg.sender */\n      caller\n        /* \"contracts/Twitter-Assignment/twitter-example.sol\":1303:1322  _from == msg.sender */\n      0xffffffffffffffffffffffffffffffffffffffff\n      and\n        /* \"contracts/Twitter-Assignment/twitter-example.sol\":1303:1308  _from */\n      dup4\n        /* \"contracts/Twitter-Assignment/twitter-example.sol\":1303:1322  _from == msg.sender */\n      0xffffffffffffffffffffffffffffffffffffffff\n      and\n      eq\n        /* \"contracts/Twitter-Assignment/twitter-example.sol\":1303:1354  _from == msg.sender || operators[_from][msg.sender] */\n      dup1\n      tag_168\n      jumpi\n      pop\n        /* \"contracts/Twitter-Assignment/twitter-example.sol\":1326:1335  operators */\n      0x03\n        /* \"contracts/Twitter-Assignment/twitter-example.sol\":1326:1342  operators[_from] */\n      0x00\n        /* \"contracts/Twitter-Assignment/twitter-example.sol\":1336:1341  _from */\n      dup5\n        /* \"contracts/Twitter-Assignment/twitter-example.sol\":1326:1342  operators[_from] */\n      0xffffffffffffffffffffffffffffffffffffffff\n      and\n      0xffffffffffffffffffffffffffffffffffffffff\n      and\n      dup2\n      mstore\n      0x20\n      add\n      swap1\n      dup2\n      mstore\n      0x20\n      add\n      0x00\n      keccak256\n        /* \"contracts/Twitter-Assignment/twitter-example.sol\":1326:1354  operators[_from][msg.sender] */\n      0x00\n        /* \"contracts/Twitter-Assignment/twitter-example.sol\":1343:1353  msg.sender */\n      caller\n        /* \"contracts/Twitter-Assignment/twitter-example.sol\":1326:1354  operators[_from][msg.sender] */\n      0xffffffffffffffffffffffffffffffffffffffff\n      and\n      0xffffffffffffffffffffffffffffffffffffffff\n      and\n      dup2\n      mstore\n      0x20\n      add\n      swap1\n      dup2\n      mstore\n      0x20\n      add\n      0x00\n      keccak256\n      0x00\n      swap1\n      sload\n      swap1\n      0x0100\n      exp\n      swap1\n      div\n      0xff\n      and\n        /* \"contracts/Twitter-Assignment/twitter-example.sol\":1303:1354  _from == msg.sender || operators[_from][msg.sender] */\n    tag_168:\n        /* \"contracts/Twitter-Assignment/twitter-example.sol\":1282:1401  require(... */\n      tag_169\n      jumpi\n      mload(0x40)\n      0x08c379a000000000000000000000000000000000000000000000000000000000\n      dup2\n      mstore\n      0x04\n      add\n      tag_170\n      swap1\n      tag_171\n      jump\t// in\n    tag_170:\n      mload(0x40)\n      dup1\n      swap2\n      sub\n      swap1\n      revert\n    tag_169:\n        /* \"contracts/Twitter-Assignment/twitter-example.sol\":1412:1425  conversations */\n      0x02\n        /* \"contracts/Twitter-Assignment/twitter-example.sol\":1412:1432  conversations[_from] */\n      0x00\n        /* \"contracts/Twitter-Assignment/twitter-example.sol\":1426:1431  _from */\n      dup5\n        /* \"contracts/Twitter-Assignment/twitter-example.sol\":1412:1432  conversations[_from] */\n      0xffffffffffffffffffffffffffffffffffffffff\n      and\n      0xffffffffffffffffffffffffffffffffffffffff\n      and\n      dup2\n      mstore\n      0x20\n      add\n      swap1\n      dup2\n      mstore\n      0x20\n      add\n      0x00\n      keccak256\n        /* \"contracts/Twitter-Assignment/twitter-example.sol\":1451:1512  Message(nextMessageId, _content, _from, _to, block.timestamp) */\n      mload(0x40)\n      dup1\n      0xa0\n      add\n      0x40\n      mstore\n      dup1\n        /* \"contracts/Twitter-Assignment/twitter-example.sol\":1459:1472  nextMessageId */\n      sload(0x06)\n        /* \"contracts/Twitter-Assignment/twitter-example.sol\":1451:1512  Message(nextMessageId, _content, _from, _to, block.timestamp) */\n      dup2\n      mstore\n      0x20\n      add\n        /* \"contracts/Twitter-Assignment/twitter-example.sol\":1474:1482  _content */\n      dup4\n        /* \"contracts/Twitter-Assignment/twitter-example.sol\":1451:1512  Message(nextMessageId, _content, _from, _to, block.timestamp) */\n      dup2\n      mstore\n      0x20\n      add\n        /* \"contracts/Twitter-Assignment/twitter-example.sol\":1484:1489  _from */\n      dup6\n        /* \"contracts/Twitter-Assignment/twitter-example.sol\":1451:1512  Message(nextMessageId, _content, _from, _to, block.timestamp) */\n      0xffffffffffffffffffffffffffffffffffffffff\n      and\n      dup2\n      mstore\n      0x20\n      add\n        /* \"contracts/Twitter-Assignment/twitter-example.sol\":1491:1494  _to */\n      dup5\n        /* \"contracts/Twitter-Assignment/twitter-example.sol\":1451:1512  Message(nextMessageId, _content, _from, _to, block.timestamp) */\n      0xffffffffffffffffffffffffffffffffffffffff\n      and\n      dup2\n      mstore\n      0x20\n      add\n        /* \"contracts/Twitter-Assignment/twitter-example.sol\":1496:1511  block.timestamp */\n      timestamp\n        /* \"contracts/Twitter-Assignment/twitter-example.sol\":1451:1512  Message(nextMessageId, _content, _from, _to, block.timestamp) */\n      dup2\n      mstore\n      pop\n        /* \"contracts/Twitter-Assignment/twitter-example.sol\":1412:1522  conversations[_from].push(... */\n      swap1\n      dup1\n      0x01\n      dup2\n      sload\n      add\n      dup1\n      dup3\n      sstore\n      dup1\n      swap2\n      pop\n      pop\n      0x01\n      swap1\n      sub\n      swap1\n      0x00\n      mstore\n      keccak256(0x00, 0x20)\n      swap1\n      0x05\n      mul\n      add\n      0x00\n      swap1\n      swap2\n      swap1\n      swap2\n      swap1\n      swap2\n      pop\n      0x00\n      dup3\n      add\n      mload\n      dup2\n      0x00\n      add\n      sstore\n      0x20\n      dup3\n      add\n      mload\n      dup2\n      0x01\n      add\n      swap1\n      dup2\n      tag_173\n      swap2\n      swap1\n      tag_174\n      jump\t// in\n    tag_173:\n      pop\n      0x40\n      dup3\n      add\n      mload\n      dup2\n      0x02\n      add\n      exp(0x0100, 0x00)\n      dup2\n      sload\n      dup2\n      0xffffffffffffffffffffffffffffffffffffffff\n      mul\n      not\n      and\n      swap1\n      dup4\n      0xffffffffffffffffffffffffffffffffffffffff\n      and\n      mul\n      or\n      swap1\n      sstore\n      pop\n      0x60\n      dup3\n      add\n      mload\n      dup2\n      0x03\n      add\n      exp(0x0100, 0x00)\n      dup2\n      sload\n      dup2\n      0xffffffffffffffffffffffffffffffffffffffff\n      mul\n      not\n      and\n      swap1\n      dup4\n      0xffffffffffffffffffffffffffffffffffffffff\n      and\n      mul\n      or\n      swap1\n      sstore\n      pop\n      0x80\n      dup3\n      add\n      mload\n      dup2\n      0x04\n      add\n      sstore\n      pop\n      pop\n        /* \"contracts/Twitter-Assignment/twitter-example.sol\":1533:1546  nextMessageId */\n      0x06\n      0x00\n        /* \"contracts/Twitter-Assignment/twitter-example.sol\":1533:1548  nextMessageId++ */\n      dup2\n      sload\n      dup1\n      swap3\n      swap2\n      swap1\n      tag_175\n      swap1\n      tag_176\n      jump\t// in\n    tag_175:\n      swap2\n      swap1\n      pop\n      sstore\n      pop\n        /* \"contracts/Twitter-Assignment/twitter-example.sol\":1111:1555  function _sendMessage(... */\n      pop\n      pop\n      pop\n      jump\t// out\n        /* \"contracts/Twitter-Assignment/twitter-example.sol\":713:1105  function _tweet(address _from, string memory _content) internal {... */\n    tag_158:\n        /* \"contracts/Twitter-Assignment/twitter-example.sol\":865:875  msg.sender */\n      caller\n        /* \"contracts/Twitter-Assignment/twitter-example.sol\":856:875  _from == msg.sender */\n      0xffffffffffffffffffffffffffffffffffffffff\n      and\n        /* \"contracts/Twitter-Assignment/twitter-example.sol\":856:861  _from */\n      dup3\n        /* \"contracts/Twitter-Assignment/twitter-example.sol\":856:875  _from == msg.sender */\n      0xffffffffffffffffffffffffffffffffffffffff\n      and\n      eq\n        /* \"contracts/Twitter-Assignment/twitter-example.sol\":856:907  _from == msg.sender || operators[_from][msg.sender] */\n      dup1\n      tag_178\n      jumpi\n      pop\n        /* \"contracts/Twitter-Assignment/twitter-example.sol\":879:888  operators */\n      0x03\n        /* \"contracts/Twitter-Assignment/twitter-example.sol\":879:895  operators[_from] */\n      0x00\n        /* \"contracts/Twitter-Assignment/twitter-example.sol\":889:894  _from */\n      dup4\n        /* \"contracts/Twitter-Assignment/twitter-example.sol\":879:895  operators[_from] */\n      0xffffffffffffffffffffffffffffffffffffffff\n      and\n      0xffffffffffffffffffffffffffffffffffffffff\n      and\n      dup2\n      mstore\n      0x20\n      add\n      swap1\n      dup2\n      mstore\n      0x20\n      add\n      0x00\n      keccak256\n        /* \"contracts/Twitter-Assignment/twitter-example.sol\":879:907  operators[_from][msg.sender] */\n      0x00\n        /* \"contracts/Twitter-Assignment/twitter-example.sol\":896:906  msg.sender */\n      caller\n        /* \"contracts/Twitter-Assignment/twitter-example.sol\":879:907  operators[_from][msg.sender] */\n      0xffffffffffffffffffffffffffffffffffffffff\n      and\n      0xffffffffffffffffffffffffffffffffffffffff\n      and\n      dup2\n      mstore\n      0x20\n      add\n      swap1\n      dup2\n      mstore\n      0x20\n      add\n      0x00\n      keccak256\n      0x00\n      swap1\n      sload\n      swap1\n      0x0100\n      exp\n      swap1\n      div\n      0xff\n      and\n        /* \"contracts/Twitter-Assignment/twitter-example.sol\":856:907  _from == msg.sender || operators[_from][msg.sender] */\n    tag_178:\n        /* \"contracts/Twitter-Assignment/twitter-example.sol\":835:954  require(... */\n      tag_179\n      jumpi\n      mload(0x40)\n      0x08c379a000000000000000000000000000000000000000000000000000000000\n      dup2\n      mstore\n      0x04\n      add\n      tag_180\n      swap1\n      tag_171\n      jump\t// in\n    tag_180:\n      mload(0x40)\n      dup1\n      swap2\n      sub\n      swap1\n      revert\n    tag_179:\n        /* \"contracts/Twitter-Assignment/twitter-example.sol\":982:1029  Tweet(nextId, _from, _content, block.timestamp) */\n      mload(0x40)\n      dup1\n      0x80\n      add\n      0x40\n      mstore\n      dup1\n        /* \"contracts/Twitter-Assignment/twitter-example.sol\":988:994  nextId */\n      sload(0x05)\n        /* \"contracts/Twitter-Assignment/twitter-example.sol\":982:1029  Tweet(nextId, _from, _content, block.timestamp) */\n      dup2\n      mstore\n      0x20\n      add\n        /* \"contracts/Twitter-Assignment/twitter-example.sol\":996:1001  _from */\n      dup4\n        /* \"contracts/Twitter-Assignment/twitter-example.sol\":982:1029  Tweet(nextId, _from, _content, block.timestamp) */\n      0xffffffffffffffffffffffffffffffffffffffff\n      and\n      dup2\n      mstore\n      0x20\n      add\n        /* \"contracts/Twitter-Assignment/twitter-example.sol\":1003:1011  _content */\n      dup3\n        /* \"contracts/Twitter-Assignment/twitter-example.sol\":982:1029  Tweet(nextId, _from, _content, block.timestamp) */\n      dup2\n      mstore\n      0x20\n      add\n        /* \"contracts/Twitter-Assignment/twitter-example.sol\":1013:1028  block.timestamp */\n      timestamp\n        /* \"contracts/Twitter-Assignment/twitter-example.sol\":982:1029  Tweet(nextId, _from, _content, block.timestamp) */\n      dup2\n      mstore\n      pop\n        /* \"contracts/Twitter-Assignment/twitter-example.sol\":965:971  tweets */\n      0x00\n        /* \"contracts/Twitter-Assignment/twitter-example.sol\":965:979  tweets[nextId] */\n      dup1\n        /* \"contracts/Twitter-Assignment/twitter-example.sol\":972:978  nextId */\n      sload(0x05)\n        /* \"contracts/Twitter-Assignment/twitter-example.sol\":965:979  tweets[nextId] */\n      dup2\n      mstore\n      0x20\n      add\n      swap1\n      dup2\n      mstore\n      0x20\n      add\n      0x00\n      keccak256\n        /* \"contracts/Twitter-Assignment/twitter-example.sol\":965:1029  tweets[nextId] = Tweet(nextId, _from, _content, block.timestamp) */\n      0x00\n      dup3\n      add\n      mload\n      dup2\n      0x00\n      add\n      sstore\n      0x20\n      dup3\n      add\n      mload\n      dup2\n      0x01\n      add\n      exp(0x0100, 0x00)\n      dup2\n      sload\n      dup2\n      0xffffffffffffffffffffffffffffffffffffffff\n      mul\n      not\n      and\n      swap1\n      dup4\n      0xffffffffffffffffffffffffffffffffffffffff\n      and\n      mul\n      or\n      swap1\n      sstore\n      pop\n      0x40\n      dup3\n      add\n      mload\n      dup2\n      0x02\n      add\n      swap1\n      dup2\n      tag_181\n      swap2\n      swap1\n      tag_174\n      jump\t// in\n    tag_181:\n      pop\n      0x60\n      dup3\n      add\n      mload\n      dup2\n      0x03\n      add\n      sstore\n      swap1\n      pop\n      pop\n        /* \"contracts/Twitter-Assignment/twitter-example.sol\":1040:1048  tweetsOf */\n      0x01\n        /* \"contracts/Twitter-Assignment/twitter-example.sol\":1040:1055  tweetsOf[_from] */\n      0x00\n        /* \"contracts/Twitter-Assignment/twitter-example.sol\":1049:1054  _from */\n      dup4\n        /* \"contracts/Twitter-Assignment/twitter-example.sol\":1040:1055  tweetsOf[_from] */\n      0xffffffffffffffffffffffffffffffffffffffff\n      and\n      0xffffffffffffffffffffffffffffffffffffffff\n      and\n      dup2\n      mstore\n      0x20\n      add\n      swap1\n      dup2\n      mstore\n      0x20\n      add\n      0x00\n      keccak256\n        /* \"contracts/Twitter-Assignment/twitter-example.sol\":1061:1067  nextId */\n      sload(0x05)\n        /* \"contracts/Twitter-Assignment/twitter-example.sol\":1040:1068  tweetsOf[_from].push(nextId) */\n      swap1\n      dup1\n      0x01\n      dup2\n      sload\n      add\n      dup1\n      dup3\n      sstore\n      dup1\n      swap2\n      pop\n      pop\n      0x01\n      swap1\n      sub\n      swap1\n      0x00\n      mstore\n      keccak256(0x00, 0x20)\n      add\n      0x00\n      swap1\n      swap2\n      swap1\n      swap2\n      swap1\n      swap2\n      pop\n      sstore\n        /* \"contracts/Twitter-Assignment/twitter-example.sol\":1097:1098  1 */\n      0x01\n        /* \"contracts/Twitter-Assignment/twitter-example.sol\":1088:1094  nextId */\n      sload(0x05)\n        /* \"contracts/Twitter-Assignment/twitter-example.sol\":1088:1098  nextId + 1 */\n      tag_183\n      swap2\n      swap1\n      tag_119\n      jump\t// in\n    tag_183:\n        /* \"contracts/Twitter-Assignment/twitter-example.sol\":1079:1085  nextId */\n      0x05\n        /* \"contracts/Twitter-Assignment/twitter-example.sol\":1079:1098  nextId = nextId + 1 */\n      dup2\n      swap1\n      sstore\n      pop\n        /* \"contracts/Twitter-Assignment/twitter-example.sol\":713:1105  function _tweet(address _from, string memory _content) internal {... */\n      pop\n      pop\n      jump\t// out\n    tag_104:\n      mload(0x40)\n      dup1\n      0x80\n      add\n      0x40\n      mstore\n      dup1\n      0x00\n      dup2\n      mstore\n      0x20\n      add\n      and(0xffffffffffffffffffffffffffffffffffffffff, 0x00)\n      dup2\n      mstore\n      0x20\n      add\n      0x60\n      dup2\n      mstore\n      0x20\n      add\n      0x00\n      dup2\n      mstore\n      pop\n      swap1\n      jump\t// out\n        /* \"#utility.yul\":7:82   */\n    tag_184:\n        /* \"#utility.yul\":40:46   */\n      0x00\n        /* \"#utility.yul\":73:75   */\n      0x40\n        /* \"#utility.yul\":67:76   */\n      mload\n        /* \"#utility.yul\":57:76   */\n      swap1\n      pop\n        /* \"#utility.yul\":7:82   */\n      swap1\n      jump\t// out\n        /* \"#utility.yul\":88:205   */\n    tag_185:\n        /* \"#utility.yul\":197:198   */\n      0x00\n        /* \"#utility.yul\":194:195   */\n      dup1\n        /* \"#utility.yul\":187:199   */\n      revert\n        /* \"#utility.yul\":211:328   */\n    tag_186:\n        /* \"#utility.yul\":320:321   */\n      0x00\n        /* \"#utility.yul\":317:318   */\n      dup1\n        /* \"#utility.yul\":310:322   */\n      revert\n        /* \"#utility.yul\":334:460   */\n    tag_187:\n        /* \"#utility.yul\":371:378   */\n      0x00\n        /* \"#utility.yul\":411:453   */\n      0xffffffffffffffffffffffffffffffffffffffff\n        /* \"#utility.yul\":404:409   */\n      dup3\n        /* \"#utility.yul\":400:454   */\n      and\n        /* \"#utility.yul\":389:454   */\n      swap1\n      pop\n        /* \"#utility.yul\":334:460   */\n      swap2\n      swap1\n      pop\n      jump\t// out\n        /* \"#utility.yul\":466:562   */\n    tag_188:\n        /* \"#utility.yul\":503:510   */\n      0x00\n        /* \"#utility.yul\":532:556   */\n      tag_251\n        /* \"#utility.yul\":550:555   */\n      dup3\n        /* \"#utility.yul\":532:556   */\n      tag_187\n      jump\t// in\n    tag_251:\n        /* \"#utility.yul\":521:556   */\n      swap1\n      pop\n        /* \"#utility.yul\":466:562   */\n      swap2\n      swap1\n      pop\n      jump\t// out\n        /* \"#utility.yul\":568:690   */\n    tag_189:\n        /* \"#utility.yul\":641:665   */\n      tag_253\n        /* \"#utility.yul\":659:664   */\n      dup2\n        /* \"#utility.yul\":641:665   */\n      tag_188\n      jump\t// in\n    tag_253:\n        /* \"#utility.yul\":634:639   */\n      dup2\n        /* \"#utility.yul\":631:666   */\n      eq\n        /* \"#utility.yul\":621:684   */\n      tag_254\n      jumpi\n        /* \"#utility.yul\":680:681   */\n      0x00\n        /* \"#utility.yul\":677:678   */\n      dup1\n        /* \"#utility.yul\":670:682   */\n      revert\n        /* \"#utility.yul\":621:684   */\n    tag_254:\n        /* \"#utility.yul\":568:690   */\n      pop\n      jump\t// out\n        /* \"#utility.yul\":696:835   */\n    tag_190:\n        /* \"#utility.yul\":742:747   */\n      0x00\n        /* \"#utility.yul\":780:786   */\n      dup2\n        /* \"#utility.yul\":767:787   */\n      calldataload\n        /* \"#utility.yul\":758:787   */\n      swap1\n      pop\n        /* \"#utility.yul\":796:829   */\n      tag_256\n        /* \"#utility.yul\":823:828   */\n      dup2\n        /* \"#utility.yul\":796:829   */\n      tag_189\n      jump\t// in\n    tag_256:\n        /* \"#utility.yul\":696:835   */\n      swap3\n      swap2\n      pop\n      pop\n      jump\t// out\n        /* \"#utility.yul\":841:1315   */\n    tag_22:\n        /* \"#utility.yul\":909:915   */\n      0x00\n        /* \"#utility.yul\":917:923   */\n      dup1\n        /* \"#utility.yul\":966:968   */\n      0x40\n        /* \"#utility.yul\":954:963   */\n      dup4\n        /* \"#utility.yul\":945:952   */\n      dup6\n        /* \"#utility.yul\":941:964   */\n      sub\n        /* \"#utility.yul\":937:969   */\n      slt\n        /* \"#utility.yul\":934:1053   */\n      iszero\n      tag_258\n      jumpi\n        /* \"#utility.yul\":972:1051   */\n      tag_259\n      tag_185\n      jump\t// in\n    tag_259:\n        /* \"#utility.yul\":934:1053   */\n    tag_258:\n        /* \"#utility.yul\":1092:1093   */\n      0x00\n        /* \"#utility.yul\":1117:1170   */\n      tag_260\n        /* \"#utility.yul\":1162:1169   */\n      dup6\n        /* \"#utility.yul\":1153:1159   */\n      dup3\n        /* \"#utility.yul\":1142:1151   */\n      dup7\n        /* \"#utility.yul\":1138:1160   */\n      add\n        /* \"#utility.yul\":1117:1170   */\n      tag_190\n      jump\t// in\n    tag_260:\n        /* \"#utility.yul\":1107:1170   */\n      swap3\n      pop\n        /* \"#utility.yul\":1063:1180   */\n      pop\n        /* \"#utility.yul\":1219:1221   */\n      0x20\n        /* \"#utility.yul\":1245:1298   */\n      tag_261\n        /* \"#utility.yul\":1290:1297   */\n      dup6\n        /* \"#utility.yul\":1281:1287   */\n      dup3\n        /* \"#utility.yul\":1270:1279   */\n      dup7\n        /* \"#utility.yul\":1266:1288   */\n      add\n        /* \"#utility.yul\":1245:1298   */\n      tag_190\n      jump\t// in\n    tag_261:\n        /* \"#utility.yul\":1235:1298   */\n      swap2\n      pop\n        /* \"#utility.yul\":1190:1308   */\n      pop\n        /* \"#utility.yul\":841:1315   */\n      swap3\n      pop\n      swap3\n      swap1\n      pop\n      jump\t// out\n        /* \"#utility.yul\":1321:1411   */\n    tag_191:\n        /* \"#utility.yul\":1355:1362   */\n      0x00\n        /* \"#utility.yul\":1398:1403   */\n      dup2\n        /* \"#utility.yul\":1391:1404   */\n      iszero\n        /* \"#utility.yul\":1384:1405   */\n      iszero\n        /* \"#utility.yul\":1373:1405   */\n      swap1\n      pop\n        /* \"#utility.yul\":1321:1411   */\n      swap2\n      swap1\n      pop\n      jump\t// out\n        /* \"#utility.yul\":1417:1526   */\n    tag_192:\n        /* \"#utility.yul\":1498:1519   */\n      tag_264\n        /* \"#utility.yul\":1513:1518   */\n      dup2\n        /* \"#utility.yul\":1498:1519   */\n      tag_191\n      jump\t// in\n    tag_264:\n        /* \"#utility.yul\":1493:1496   */\n      dup3\n        /* \"#utility.yul\":1486:1520   */\n      mstore\n        /* \"#utility.yul\":1417:1526   */\n      pop\n      pop\n      jump\t// out\n        /* \"#utility.yul\":1532:1742   */\n    tag_25:\n        /* \"#utility.yul\":1619:1623   */\n      0x00\n        /* \"#utility.yul\":1657:1659   */\n      0x20\n        /* \"#utility.yul\":1646:1655   */\n      dup3\n        /* \"#utility.yul\":1642:1660   */\n      add\n        /* \"#utility.yul\":1634:1660   */\n      swap1\n      pop\n        /* \"#utility.yul\":1670:1735   */\n      tag_266\n        /* \"#utility.yul\":1732:1733   */\n      0x00\n        /* \"#utility.yul\":1721:1730   */\n      dup4\n        /* \"#utility.yul\":1717:1734   */\n      add\n        /* \"#utility.yul\":1708:1714   */\n      dup5\n        /* \"#utility.yul\":1670:1735   */\n      tag_192\n      jump\t// in\n    tag_266:\n        /* \"#utility.yul\":1532:1742   */\n      swap3\n      swap2\n      pop\n      pop\n      jump\t// out\n        /* \"#utility.yul\":1748:1825   */\n    tag_193:\n        /* \"#utility.yul\":1785:1792   */\n      0x00\n        /* \"#utility.yul\":1814:1819   */\n      dup2\n        /* \"#utility.yul\":1803:1819   */\n      swap1\n      pop\n        /* \"#utility.yul\":1748:1825   */\n      swap2\n      swap1\n      pop\n      jump\t// out\n        /* \"#utility.yul\":1831:1953   */\n    tag_194:\n        /* \"#utility.yul\":1904:1928   */\n      tag_269\n        /* \"#utility.yul\":1922:1927   */\n      dup2\n        /* \"#utility.yul\":1904:1928   */\n      tag_193\n      jump\t// in\n    tag_269:\n        /* \"#utility.yul\":1897:1902   */\n      dup2\n        /* \"#utility.yul\":1894:1929   */\n      eq\n        /* \"#utility.yul\":1884:1947   */\n      tag_270\n      jumpi\n        /* \"#utility.yul\":1943:1944   */\n      0x00\n        /* \"#utility.yul\":1940:1941   */\n      dup1\n        /* \"#utility.yul\":1933:1945   */\n      revert\n        /* \"#utility.yul\":1884:1947   */\n    tag_270:\n        /* \"#utility.yul\":1831:1953   */\n      pop\n      jump\t// out\n        /* \"#utility.yul\":1959:2098   */\n    tag_195:\n        /* \"#utility.yul\":2005:2010   */\n      0x00\n        /* \"#utility.yul\":2043:2049   */\n      dup2\n        /* \"#utility.yul\":2030:2050   */\n      calldataload\n        /* \"#utility.yul\":2021:2050   */\n      swap1\n      pop\n        /* \"#utility.yul\":2059:2092   */\n      tag_272\n        /* \"#utility.yul\":2086:2091   */\n      dup2\n        /* \"#utility.yul\":2059:2092   */\n      tag_194\n      jump\t// in\n    tag_272:\n        /* \"#utility.yul\":1959:2098   */\n      swap3\n      swap2\n      pop\n      pop\n      jump\t// out\n        /* \"#utility.yul\":2104:2578   */\n    tag_28:\n        /* \"#utility.yul\":2172:2178   */\n      0x00\n        /* \"#utility.yul\":2180:2186   */\n      dup1\n        /* \"#utility.yul\":2229:2231   */\n      0x40\n        /* \"#utility.yul\":2217:2226   */\n      dup4\n        /* \"#utility.yul\":2208:2215   */\n      dup6\n        /* \"#utility.yul\":2204:2227   */\n      sub\n        /* \"#utility.yul\":2200:2232   */\n      slt\n        /* \"#utility.yul\":2197:2316   */\n      iszero\n      tag_274\n      jumpi\n        /* \"#utility.yul\":2235:2314   */\n      tag_275\n      tag_185\n      jump\t// in\n    tag_275:\n        /* \"#utility.yul\":2197:2316   */\n    tag_274:\n        /* \"#utility.yul\":2355:2356   */\n      0x00\n        /* \"#utility.yul\":2380:2433   */\n      tag_276\n        /* \"#utility.yul\":2425:2432   */\n      dup6\n        /* \"#utility.yul\":2416:2422   */\n      dup3\n        /* \"#utility.yul\":2405:2414   */\n      dup7\n        /* \"#utility.yul\":2401:2423   */\n      add\n        /* \"#utility.yul\":2380:2433   */\n      tag_190\n      jump\t// in\n    tag_276:\n        /* \"#utility.yul\":2370:2433   */\n      swap3\n      pop\n        /* \"#utility.yul\":2326:2443   */\n      pop\n        /* \"#utility.yul\":2482:2484   */\n      0x20\n        /* \"#utility.yul\":2508:2561   */\n      tag_277\n        /* \"#utility.yul\":2553:2560   */\n      dup6\n        /* \"#utility.yul\":2544:2550   */\n      dup3\n        /* \"#utility.yul\":2533:2542   */\n      dup7\n        /* \"#utility.yul\":2529:2551   */\n      add\n        /* \"#utility.yul\":2508:2561   */\n      tag_195\n      jump\t// in\n    tag_277:\n        /* \"#utility.yul\":2498:2561   */\n      swap2\n      pop\n        /* \"#utility.yul\":2453:2571   */\n      pop\n        /* \"#utility.yul\":2104:2578   */\n      swap3\n      pop\n      swap3\n      swap1\n      pop\n      jump\t// out\n        /* \"#utility.yul\":2584:2702   */\n    tag_196:\n        /* \"#utility.yul\":2671:2695   */\n      tag_279\n        /* \"#utility.yul\":2689:2694   */\n      dup2\n        /* \"#utility.yul\":2671:2695   */\n      tag_193\n      jump\t// in\n    tag_279:\n        /* \"#utility.yul\":2666:2669   */\n      dup3\n        /* \"#utility.yul\":2659:2696   */\n      mstore\n        /* \"#utility.yul\":2584:2702   */\n      pop\n      pop\n      jump\t// out\n        /* \"#utility.yul\":2708:2807   */\n    tag_197:\n        /* \"#utility.yul\":2760:2766   */\n      0x00\n        /* \"#utility.yul\":2794:2799   */\n      dup2\n        /* \"#utility.yul\":2788:2800   */\n      mload\n        /* \"#utility.yul\":2778:2800   */\n      swap1\n      pop\n        /* \"#utility.yul\":2708:2807   */\n      swap2\n      swap1\n      pop\n      jump\t// out\n        /* \"#utility.yul\":2813:2982   */\n    tag_198:\n        /* \"#utility.yul\":2897:2908   */\n      0x00\n        /* \"#utility.yul\":2931:2937   */\n      dup3\n        /* \"#utility.yul\":2926:2929   */\n      dup3\n        /* \"#utility.yul\":2919:2938   */\n      mstore\n        /* \"#utility.yul\":2971:2975   */\n      0x20\n        /* \"#utility.yul\":2966:2969   */\n      dup3\n        /* \"#utility.yul\":2962:2976   */\n      add\n        /* \"#utility.yul\":2947:2976   */\n      swap1\n      pop\n        /* \"#utility.yul\":2813:2982   */\n      swap3\n      swap2\n      pop\n      pop\n      jump\t// out\n        /* \"#utility.yul\":2988:3127   */\n    tag_199:\n        /* \"#utility.yul\":3077:3083   */\n      dup3\n        /* \"#utility.yul\":3072:3075   */\n      dup2\n        /* \"#utility.yul\":3067:3070   */\n      dup4\n        /* \"#utility.yul\":3061:3084   */\n      mcopy\n        /* \"#utility.yul\":3118:3119   */\n      0x00\n        /* \"#utility.yul\":3109:3115   */\n      dup4\n        /* \"#utility.yul\":3104:3107   */\n      dup4\n        /* \"#utility.yul\":3100:3116   */\n      add\n        /* \"#utility.yul\":3093:3120   */\n      mstore\n        /* \"#utility.yul\":2988:3127   */\n      pop\n      pop\n      pop\n      jump\t// out\n        /* \"#utility.yul\":3133:3235   */\n    tag_200:\n        /* \"#utility.yul\":3174:3180   */\n      0x00\n        /* \"#utility.yul\":3225:3227   */\n      0x1f\n        /* \"#utility.yul\":3221:3228   */\n      not\n        /* \"#utility.yul\":3216:3218   */\n      0x1f\n        /* \"#utility.yul\":3209:3214   */\n      dup4\n        /* \"#utility.yul\":3205:3219   */\n      add\n        /* \"#utility.yul\":3201:3229   */\n      and\n        /* \"#utility.yul\":3191:3229   */\n      swap1\n      pop\n        /* \"#utility.yul\":3133:3235   */\n      swap2\n      swap1\n      pop\n      jump\t// out\n        /* \"#utility.yul\":3241:3618   */\n    tag_201:\n        /* \"#utility.yul\":3329:3332   */\n      0x00\n        /* \"#utility.yul\":3357:3396   */\n      tag_285\n        /* \"#utility.yul\":3390:3395   */\n      dup3\n        /* \"#utility.yul\":3357:3396   */\n      tag_197\n      jump\t// in\n    tag_285:\n        /* \"#utility.yul\":3412:3483   */\n      tag_286\n        /* \"#utility.yul\":3476:3482   */\n      dup2\n        /* \"#utility.yul\":3471:3474   */\n      dup6\n        /* \"#utility.yul\":3412:3483   */\n      tag_198\n      jump\t// in\n    tag_286:\n        /* \"#utility.yul\":3405:3483   */\n      swap4\n      pop\n        /* \"#utility.yul\":3492:3557   */\n      tag_287\n        /* \"#utility.yul\":3550:3556   */\n      dup2\n        /* \"#utility.yul\":3545:3548   */\n      dup6\n        /* \"#utility.yul\":3538:3542   */\n      0x20\n        /* \"#utility.yul\":3531:3536   */\n      dup7\n        /* \"#utility.yul\":3527:3543   */\n      add\n        /* \"#utility.yul\":3492:3557   */\n      tag_199\n      jump\t// in\n    tag_287:\n        /* \"#utility.yul\":3582:3611   */\n      tag_288\n        /* \"#utility.yul\":3604:3610   */\n      dup2\n        /* \"#utility.yul\":3582:3611   */\n      tag_200\n      jump\t// in\n    tag_288:\n        /* \"#utility.yul\":3577:3580   */\n      dup5\n        /* \"#utility.yul\":3573:3612   */\n      add\n        /* \"#utility.yul\":3566:3612   */\n      swap2\n      pop\n        /* \"#utility.yul\":3333:3618   */\n      pop\n        /* \"#utility.yul\":3241:3618   */\n      swap3\n      swap2\n      pop\n      pop\n      jump\t// out\n        /* \"#utility.yul\":3624:3742   */\n    tag_202:\n        /* \"#utility.yul\":3711:3735   */\n      tag_290\n        /* \"#utility.yul\":3729:3734   */\n      dup2\n        /* \"#utility.yul\":3711:3735   */\n      tag_188\n      jump\t// in\n    tag_290:\n        /* \"#utility.yul\":3706:3709   */\n      dup3\n        /* \"#utility.yul\":3699:3736   */\n      mstore\n        /* \"#utility.yul\":3624:3742   */\n      pop\n      pop\n      jump\t// out\n        /* \"#utility.yul\":3748:4503   */\n    tag_31:\n        /* \"#utility.yul\":3973:3977   */\n      0x00\n        /* \"#utility.yul\":4011:4014   */\n      0xa0\n        /* \"#utility.yul\":4000:4009   */\n      dup3\n        /* \"#utility.yul\":3996:4015   */\n      add\n        /* \"#utility.yul\":3988:4015   */\n      swap1\n      pop\n        /* \"#utility.yul\":4025:4096   */\n      tag_292\n        /* \"#utility.yul\":4093:4094   */\n      0x00\n        /* \"#utility.yul\":4082:4091   */\n      dup4\n        /* \"#utility.yul\":4078:4095   */\n      add\n        /* \"#utility.yul\":4069:4075   */\n      dup9\n        /* \"#utility.yul\":4025:4096   */\n      tag_196\n      jump\t// in\n    tag_292:\n        /* \"#utility.yul\":4143:4152   */\n      dup2\n        /* \"#utility.yul\":4137:4141   */\n      dup2\n        /* \"#utility.yul\":4133:4153   */\n      sub\n        /* \"#utility.yul\":4128:4130   */\n      0x20\n        /* \"#utility.yul\":4117:4126   */\n      dup4\n        /* \"#utility.yul\":4113:4131   */\n      add\n        /* \"#utility.yul\":4106:4154   */\n      mstore\n        /* \"#utility.yul\":4171:4249   */\n      tag_293\n        /* \"#utility.yul\":4244:4248   */\n      dup2\n        /* \"#utility.yul\":4235:4241   */\n      dup8\n        /* \"#utility.yul\":4171:4249   */\n      tag_201\n      jump\t// in\n    tag_293:\n        /* \"#utility.yul\":4163:4249   */\n      swap1\n      pop\n        /* \"#utility.yul\":4259:4331   */\n      tag_294\n        /* \"#utility.yul\":4327:4329   */\n      0x40\n        /* \"#utility.yul\":4316:4325   */\n      dup4\n        /* \"#utility.yul\":4312:4330   */\n      add\n        /* \"#utility.yul\":4303:4309   */\n      dup7\n        /* \"#utility.yul\":4259:4331   */\n      tag_202\n      jump\t// in\n    tag_294:\n        /* \"#utility.yul\":4341:4413   */\n      tag_295\n        /* \"#utility.yul\":4409:4411   */\n      0x60\n        /* \"#utility.yul\":4398:4407   */\n      dup4\n        /* \"#utility.yul\":4394:4412   */\n      add\n        /* \"#utility.yul\":4385:4391   */\n      dup6\n        /* \"#utility.yul\":4341:4413   */\n      tag_202\n      jump\t// in\n    tag_295:\n        /* \"#utility.yul\":4423:4496   */\n      tag_296\n        /* \"#utility.yul\":4491:4494   */\n      0x80\n        /* \"#utility.yul\":4480:4489   */\n      dup4\n        /* \"#utility.yul\":4476:4495   */\n      add\n        /* \"#utility.yul\":4467:4473   */\n      dup5\n        /* \"#utility.yul\":4423:4496   */\n      tag_196\n      jump\t// in\n    tag_296:\n        /* \"#utility.yul\":3748:4503   */\n      swap7\n      swap6\n      pop\n      pop\n      pop\n      pop\n      pop\n      pop\n      jump\t// out\n        /* \"#utility.yul\":4509:4838   */\n    tag_34:\n        /* \"#utility.yul\":4568:4574   */\n      0x00\n        /* \"#utility.yul\":4617:4619   */\n      0x20\n        /* \"#utility.yul\":4605:4614   */\n      dup3\n        /* \"#utility.yul\":4596:4603   */\n      dup5\n        /* \"#utility.yul\":4592:4615   */\n      sub\n        /* \"#utility.yul\":4588:4620   */\n      slt\n        /* \"#utility.yul\":4585:4704   */\n      iszero\n      tag_298\n      jumpi\n        /* \"#utility.yul\":4623:4702   */\n      tag_299\n      tag_185\n      jump\t// in\n    tag_299:\n        /* \"#utility.yul\":4585:4704   */\n    tag_298:\n        /* \"#utility.yul\":4743:4744   */\n      0x00\n        /* \"#utility.yul\":4768:4821   */\n      tag_300\n        /* \"#utility.yul\":4813:4820   */\n      dup5\n        /* \"#utility.yul\":4804:4810   */\n      dup3\n        /* \"#utility.yul\":4793:4802   */\n      dup6\n        /* \"#utility.yul\":4789:4811   */\n      add\n        /* \"#utility.yul\":4768:4821   */\n      tag_190\n      jump\t// in\n    tag_300:\n        /* \"#utility.yul\":4758:4821   */\n      swap2\n      pop\n        /* \"#utility.yul\":4714:4831   */\n      pop\n        /* \"#utility.yul\":4509:4838   */\n      swap3\n      swap2\n      pop\n      pop\n      jump\t// out\n        /* \"#utility.yul\":4844:5173   */\n    tag_38:\n        /* \"#utility.yul\":4903:4909   */\n      0x00\n        /* \"#utility.yul\":4952:4954   */\n      0x20\n        /* \"#utility.yul\":4940:4949   */\n      dup3\n        /* \"#utility.yul\":4931:4938   */\n      dup5\n        /* \"#utility.yul\":4927:4950   */\n      sub\n        /* \"#utility.yul\":4923:4955   */\n      slt\n        /* \"#utility.yul\":4920:5039   */\n      iszero\n      tag_302\n      jumpi\n        /* \"#utility.yul\":4958:5037   */\n      tag_303\n      tag_185\n      jump\t// in\n    tag_303:\n        /* \"#utility.yul\":4920:5039   */\n    tag_302:\n        /* \"#utility.yul\":5078:5079   */\n      0x00\n        /* \"#utility.yul\":5103:5156   */\n      tag_304\n        /* \"#utility.yul\":5148:5155   */\n      dup5\n        /* \"#utility.yul\":5139:5145   */\n      dup3\n        /* \"#utility.yul\":5128:5137   */\n      dup6\n        /* \"#utility.yul\":5124:5146   */\n      add\n        /* \"#utility.yul\":5103:5156   */\n      tag_195\n      jump\t// in\n    tag_304:\n        /* \"#utility.yul\":5093:5156   */\n      swap2\n      pop\n        /* \"#utility.yul\":5049:5166   */\n      pop\n        /* \"#utility.yul\":4844:5173   */\n      swap3\n      swap2\n      pop\n      pop\n      jump\t// out\n        /* \"#utility.yul\":5179:5314   */\n    tag_203:\n        /* \"#utility.yul\":5267:5273   */\n      0x00\n        /* \"#utility.yul\":5301:5306   */\n      dup2\n        /* \"#utility.yul\":5295:5307   */\n      mload\n        /* \"#utility.yul\":5285:5307   */\n      swap1\n      pop\n        /* \"#utility.yul\":5179:5314   */\n      swap2\n      swap1\n      pop\n      jump\t// out\n        /* \"#utility.yul\":5320:5525   */\n    tag_204:\n        /* \"#utility.yul\":5440:5451   */\n      0x00\n        /* \"#utility.yul\":5474:5480   */\n      dup3\n        /* \"#utility.yul\":5469:5472   */\n      dup3\n        /* \"#utility.yul\":5462:5481   */\n      mstore\n        /* \"#utility.yul\":5514:5518   */\n      0x20\n        /* \"#utility.yul\":5509:5512   */\n      dup3\n        /* \"#utility.yul\":5505:5519   */\n      add\n        /* \"#utility.yul\":5490:5519   */\n      swap1\n      pop\n        /* \"#utility.yul\":5320:5525   */\n      swap3\n      swap2\n      pop\n      pop\n      jump\t// out\n        /* \"#utility.yul\":5531:5684   */\n    tag_205:\n        /* \"#utility.yul\":5619:5623   */\n      0x00\n        /* \"#utility.yul\":5642:5645   */\n      dup2\n        /* \"#utility.yul\":5634:5645   */\n      swap1\n      pop\n        /* \"#utility.yul\":5672:5676   */\n      0x20\n        /* \"#utility.yul\":5667:5670   */\n      dup3\n        /* \"#utility.yul\":5663:5677   */\n      add\n        /* \"#utility.yul\":5655:5677   */\n      swap1\n      pop\n        /* \"#utility.yul\":5531:5684   */\n      swap2\n      swap1\n      pop\n      jump\t// out\n        /* \"#utility.yul\":5690:5798   */\n    tag_206:\n        /* \"#utility.yul\":5767:5791   */\n      tag_309\n        /* \"#utility.yul\":5785:5790   */\n      dup2\n        /* \"#utility.yul\":5767:5791   */\n      tag_193\n      jump\t// in\n    tag_309:\n        /* \"#utility.yul\":5762:5765   */\n      dup3\n        /* \"#utility.yul\":5755:5792   */\n      mstore\n        /* \"#utility.yul\":5690:5798   */\n      pop\n      pop\n      jump\t// out\n        /* \"#utility.yul\":5804:5912   */\n    tag_207:\n        /* \"#utility.yul\":5881:5905   */\n      tag_311\n        /* \"#utility.yul\":5899:5904   */\n      dup2\n        /* \"#utility.yul\":5881:5905   */\n      tag_188\n      jump\t// in\n    tag_311:\n        /* \"#utility.yul\":5876:5879   */\n      dup3\n        /* \"#utility.yul\":5869:5906   */\n      mstore\n        /* \"#utility.yul\":5804:5912   */\n      pop\n      pop\n      jump\t// out\n        /* \"#utility.yul\":5918:6077   */\n    tag_208:\n        /* \"#utility.yul\":5992:6003   */\n      0x00\n        /* \"#utility.yul\":6026:6032   */\n      dup3\n        /* \"#utility.yul\":6021:6024   */\n      dup3\n        /* \"#utility.yul\":6014:6033   */\n      mstore\n        /* \"#utility.yul\":6066:6070   */\n      0x20\n        /* \"#utility.yul\":6061:6064   */\n      dup3\n        /* \"#utility.yul\":6057:6071   */\n      add\n        /* \"#utility.yul\":6042:6071   */\n      swap1\n      pop\n        /* \"#utility.yul\":5918:6077   */\n      swap3\n      swap2\n      pop\n      pop\n      jump\t// out\n        /* \"#utility.yul\":6083:6440   */\n    tag_209:\n        /* \"#utility.yul\":6161:6164   */\n      0x00\n        /* \"#utility.yul\":6189:6228   */\n      tag_314\n        /* \"#utility.yul\":6222:6227   */\n      dup3\n        /* \"#utility.yul\":6189:6228   */\n      tag_197\n      jump\t// in\n    tag_314:\n        /* \"#utility.yul\":6244:6305   */\n      tag_315\n        /* \"#utility.yul\":6298:6304   */\n      dup2\n        /* \"#utility.yul\":6293:6296   */\n      dup6\n        /* \"#utility.yul\":6244:6305   */\n      tag_208\n      jump\t// in\n    tag_315:\n        /* \"#utility.yul\":6237:6305   */\n      swap4\n      pop\n        /* \"#utility.yul\":6314:6379   */\n      tag_316\n        /* \"#utility.yul\":6372:6378   */\n      dup2\n        /* \"#utility.yul\":6367:6370   */\n      dup6\n        /* \"#utility.yul\":6360:6364   */\n      0x20\n        /* \"#utility.yul\":6353:6358   */\n      dup7\n        /* \"#utility.yul\":6349:6365   */\n      add\n        /* \"#utility.yul\":6314:6379   */\n      tag_199\n      jump\t// in\n    tag_316:\n        /* \"#utility.yul\":6404:6433   */\n      tag_317\n        /* \"#utility.yul\":6426:6432   */\n      dup2\n        /* \"#utility.yul\":6404:6433   */\n      tag_200\n      jump\t// in\n    tag_317:\n        /* \"#utility.yul\":6399:6402   */\n      dup5\n        /* \"#utility.yul\":6395:6434   */\n      add\n        /* \"#utility.yul\":6388:6434   */\n      swap2\n      pop\n        /* \"#utility.yul\":6165:6440   */\n      pop\n        /* \"#utility.yul\":6083:6440   */\n      swap3\n      swap2\n      pop\n      pop\n      jump\t// out\n        /* \"#utility.yul\":6510:7454   */\n    tag_210:\n        /* \"#utility.yul\":6611:6614   */\n      0x00\n        /* \"#utility.yul\":6647:6651   */\n      0x80\n        /* \"#utility.yul\":6642:6645   */\n      dup4\n        /* \"#utility.yul\":6638:6652   */\n      add\n        /* \"#utility.yul\":6732:6736   */\n      0x00\n        /* \"#utility.yul\":6725:6730   */\n      dup4\n        /* \"#utility.yul\":6721:6737   */\n      add\n        /* \"#utility.yul\":6715:6738   */\n      mload\n        /* \"#utility.yul\":6751:6814   */\n      tag_319\n        /* \"#utility.yul\":6808:6812   */\n      0x00\n        /* \"#utility.yul\":6803:6806   */\n      dup7\n        /* \"#utility.yul\":6799:6813   */\n      add\n        /* \"#utility.yul\":6785:6797   */\n      dup3\n        /* \"#utility.yul\":6751:6814   */\n      tag_206\n      jump\t// in\n    tag_319:\n        /* \"#utility.yul\":6662:6824   */\n      pop\n        /* \"#utility.yul\":6908:6912   */\n      0x20\n        /* \"#utility.yul\":6901:6906   */\n      dup4\n        /* \"#utility.yul\":6897:6913   */\n      add\n        /* \"#utility.yul\":6891:6914   */\n      mload\n        /* \"#utility.yul\":6927:6990   */\n      tag_320\n        /* \"#utility.yul\":6984:6988   */\n      0x20\n        /* \"#utility.yul\":6979:6982   */\n      dup7\n        /* \"#utility.yul\":6975:6989   */\n      add\n        /* \"#utility.yul\":6961:6973   */\n      dup3\n        /* \"#utility.yul\":6927:6990   */\n      tag_207\n      jump\t// in\n    tag_320:\n        /* \"#utility.yul\":6834:7000   */\n      pop\n        /* \"#utility.yul\":7085:7089   */\n      0x40\n        /* \"#utility.yul\":7078:7083   */\n      dup4\n        /* \"#utility.yul\":7074:7090   */\n      add\n        /* \"#utility.yul\":7068:7091   */\n      mload\n        /* \"#utility.yul\":7138:7141   */\n      dup5\n        /* \"#utility.yul\":7132:7136   */\n      dup3\n        /* \"#utility.yul\":7128:7142   */\n      sub\n        /* \"#utility.yul\":7121:7125   */\n      0x40\n        /* \"#utility.yul\":7116:7119   */\n      dup7\n        /* \"#utility.yul\":7112:7126   */\n      add\n        /* \"#utility.yul\":7105:7143   */\n      mstore\n        /* \"#utility.yul\":7164:7237   */\n      tag_321\n        /* \"#utility.yul\":7232:7236   */\n      dup3\n        /* \"#utility.yul\":7218:7230   */\n      dup3\n        /* \"#utility.yul\":7164:7237   */\n      tag_209\n      jump\t// in\n    tag_321:\n        /* \"#utility.yul\":7156:7237   */\n      swap2\n      pop\n        /* \"#utility.yul\":7010:7248   */\n      pop\n        /* \"#utility.yul\":7335:7339   */\n      0x60\n        /* \"#utility.yul\":7328:7333   */\n      dup4\n        /* \"#utility.yul\":7324:7340   */\n      add\n        /* \"#utility.yul\":7318:7341   */\n      mload\n        /* \"#utility.yul\":7354:7417   */\n      tag_322\n        /* \"#utility.yul\":7411:7415   */\n      0x60\n        /* \"#utility.yul\":7406:7409   */\n      dup7\n        /* \"#utility.yul\":7402:7416   */\n      add\n        /* \"#utility.yul\":7388:7400   */\n      dup3\n        /* \"#utility.yul\":7354:7417   */\n      tag_206\n      jump\t// in\n    tag_322:\n        /* \"#utility.yul\":7258:7427   */\n      pop\n        /* \"#utility.yul\":7444:7448   */\n      dup1\n        /* \"#utility.yul\":7437:7448   */\n      swap2\n      pop\n        /* \"#utility.yul\":6616:7454   */\n      pop\n        /* \"#utility.yul\":6510:7454   */\n      swap3\n      swap2\n      pop\n      pop\n      jump\t// out\n        /* \"#utility.yul\":7460:7700   */\n    tag_211:\n        /* \"#utility.yul\":7571:7581   */\n      0x00\n        /* \"#utility.yul\":7606:7694   */\n      tag_324\n        /* \"#utility.yul\":7690:7693   */\n      dup4\n        /* \"#utility.yul\":7682:7688   */\n      dup4\n        /* \"#utility.yul\":7606:7694   */\n      tag_210\n      jump\t// in\n    tag_324:\n        /* \"#utility.yul\":7592:7694   */\n      swap1\n      pop\n        /* \"#utility.yul\":7460:7700   */\n      swap3\n      swap2\n      pop\n      pop\n      jump\t// out\n        /* \"#utility.yul\":7706:7840   */\n    tag_212:\n        /* \"#utility.yul\":7797:7801   */\n      0x00\n        /* \"#utility.yul\":7829:7833   */\n      0x20\n        /* \"#utility.yul\":7824:7827   */\n      dup3\n        /* \"#utility.yul\":7820:7834   */\n      add\n        /* \"#utility.yul\":7812:7834   */\n      swap1\n      pop\n        /* \"#utility.yul\":7706:7840   */\n      swap2\n      swap1\n      pop\n      jump\t// out\n        /* \"#utility.yul\":7914:8993   */\n    tag_213:\n        /* \"#utility.yul\":8075:8078   */\n      0x00\n        /* \"#utility.yul\":8104:8179   */\n      tag_327\n        /* \"#utility.yul\":8173:8178   */\n      dup3\n        /* \"#utility.yul\":8104:8179   */\n      tag_203\n      jump\t// in\n    tag_327:\n        /* \"#utility.yul\":8195:8302   */\n      tag_328\n        /* \"#utility.yul\":8295:8301   */\n      dup2\n        /* \"#utility.yul\":8290:8293   */\n      dup6\n        /* \"#utility.yul\":8195:8302   */\n      tag_204\n      jump\t// in\n    tag_328:\n        /* \"#utility.yul\":8188:8302   */\n      swap4\n      pop\n        /* \"#utility.yul\":8328:8331   */\n      dup4\n        /* \"#utility.yul\":8373:8377   */\n      0x20\n        /* \"#utility.yul\":8365:8371   */\n      dup3\n        /* \"#utility.yul\":8361:8378   */\n      mul\n        /* \"#utility.yul\":8356:8359   */\n      dup6\n        /* \"#utility.yul\":8352:8379   */\n      add\n        /* \"#utility.yul\":8403:8480   */\n      tag_329\n        /* \"#utility.yul\":8474:8479   */\n      dup6\n        /* \"#utility.yul\":8403:8480   */\n      tag_205\n      jump\t// in\n    tag_329:\n        /* \"#utility.yul\":8503:8510   */\n      dup1\n        /* \"#utility.yul\":8534:8535   */\n      0x00\n        /* \"#utility.yul\":8519:8948   */\n    tag_330:\n        /* \"#utility.yul\":8544:8550   */\n      dup6\n        /* \"#utility.yul\":8541:8542   */\n      dup2\n        /* \"#utility.yul\":8538:8551   */\n      lt\n        /* \"#utility.yul\":8519:8948   */\n      iszero\n      tag_332\n      jumpi\n        /* \"#utility.yul\":8615:8624   */\n      dup5\n        /* \"#utility.yul\":8609:8613   */\n      dup5\n        /* \"#utility.yul\":8605:8625   */\n      sub\n        /* \"#utility.yul\":8600:8603   */\n      dup10\n        /* \"#utility.yul\":8593:8626   */\n      mstore\n        /* \"#utility.yul\":8666:8672   */\n      dup2\n        /* \"#utility.yul\":8660:8673   */\n      mload\n        /* \"#utility.yul\":8694:8800   */\n      tag_333\n        /* \"#utility.yul\":8795:8799   */\n      dup6\n        /* \"#utility.yul\":8780:8793   */\n      dup3\n        /* \"#utility.yul\":8694:8800   */\n      tag_211\n      jump\t// in\n    tag_333:\n        /* \"#utility.yul\":8686:8800   */\n      swap5\n      pop\n        /* \"#utility.yul\":8823:8904   */\n      tag_334\n        /* \"#utility.yul\":8897:8903   */\n      dup4\n        /* \"#utility.yul\":8823:8904   */\n      tag_212\n      jump\t// in\n    tag_334:\n        /* \"#utility.yul\":8813:8904   */\n      swap3\n      pop\n        /* \"#utility.yul\":8933:8937   */\n      0x20\n        /* \"#utility.yul\":8928:8931   */\n      dup11\n        /* \"#utility.yul\":8924:8938   */\n      add\n        /* \"#utility.yul\":8917:8938   */\n      swap10\n      pop\n        /* \"#utility.yul\":8579:8948   */\n      pop\n        /* \"#utility.yul\":8566:8567   */\n      0x01\n        /* \"#utility.yul\":8563:8564   */\n      dup2\n        /* \"#utility.yul\":8559:8568   */\n      add\n        /* \"#utility.yul\":8554:8568   */\n      swap1\n      pop\n        /* \"#utility.yul\":8519:8948   */\n      jump(tag_330)\n    tag_332:\n        /* \"#utility.yul\":8523:8537   */\n      pop\n        /* \"#utility.yul\":8964:8968   */\n      dup3\n        /* \"#utility.yul\":8957:8968   */\n      swap8\n      pop\n        /* \"#utility.yul\":8984:8987   */\n      dup8\n        /* \"#utility.yul\":8977:8987   */\n      swap6\n      pop\n        /* \"#utility.yul\":8080:8993   */\n      pop\n      pop\n      pop\n      pop\n      pop\n        /* \"#utility.yul\":7914:8993   */\n      swap3\n      swap2\n      pop\n      pop\n      jump\t// out\n        /* \"#utility.yul\":8999:9456   */\n    tag_41:\n        /* \"#utility.yul\":9184:9188   */\n      0x00\n        /* \"#utility.yul\":9222:9224   */\n      0x20\n        /* \"#utility.yul\":9211:9220   */\n      dup3\n        /* \"#utility.yul\":9207:9225   */\n      add\n        /* \"#utility.yul\":9199:9225   */\n      swap1\n      pop\n        /* \"#utility.yul\":9271:9280   */\n      dup2\n        /* \"#utility.yul\":9265:9269   */\n      dup2\n        /* \"#utility.yul\":9261:9281   */\n      sub\n        /* \"#utility.yul\":9257:9258   */\n      0x00\n        /* \"#utility.yul\":9246:9255   */\n      dup4\n        /* \"#utility.yul\":9242:9259   */\n      add\n        /* \"#utility.yul\":9235:9282   */\n      mstore\n        /* \"#utility.yul\":9299:9449   */\n      tag_336\n        /* \"#utility.yul\":9444:9448   */\n      dup2\n        /* \"#utility.yul\":9435:9441   */\n      dup5\n        /* \"#utility.yul\":9299:9449   */\n      tag_213\n      jump\t// in\n    tag_336:\n        /* \"#utility.yul\":9291:9449   */\n      swap1\n      pop\n        /* \"#utility.yul\":8999:9456   */\n      swap3\n      swap2\n      pop\n      pop\n      jump\t// out\n        /* \"#utility.yul\":9462:9684   */\n    tag_50:\n        /* \"#utility.yul\":9555:9559   */\n      0x00\n        /* \"#utility.yul\":9593:9595   */\n      0x20\n        /* \"#utility.yul\":9582:9591   */\n      dup3\n        /* \"#utility.yul\":9578:9596   */\n      add\n        /* \"#utility.yul\":9570:9596   */\n      swap1\n      pop\n        /* \"#utility.yul\":9606:9677   */\n      tag_338\n        /* \"#utility.yul\":9674:9675   */\n      0x00\n        /* \"#utility.yul\":9663:9672   */\n      dup4\n        /* \"#utility.yul\":9659:9676   */\n      add\n        /* \"#utility.yul\":9650:9656   */\n      dup5\n        /* \"#utility.yul\":9606:9677   */\n      tag_202\n      jump\t// in\n    tag_338:\n        /* \"#utility.yul\":9462:9684   */\n      swap3\n      swap2\n      pop\n      pop\n      jump\t// out\n        /* \"#utility.yul\":9690:9912   */\n    tag_58:\n        /* \"#utility.yul\":9783:9787   */\n      0x00\n        /* \"#utility.yul\":9821:9823   */\n      0x20\n        /* \"#utility.yul\":9810:9819   */\n      dup3\n        /* \"#utility.yul\":9806:9824   */\n      add\n        /* \"#utility.yul\":9798:9824   */\n      swap1\n      pop\n        /* \"#utility.yul\":9834:9905   */\n      tag_340\n        /* \"#utility.yul\":9902:9903   */\n      0x00\n        /* \"#utility.yul\":9891:9900   */\n      dup4\n        /* \"#utility.yul\":9887:9904   */\n      add\n        /* \"#utility.yul\":9878:9884   */\n      dup5\n        /* \"#utility.yul\":9834:9905   */\n      tag_196\n      jump\t// in\n    tag_340:\n        /* \"#utility.yul\":9690:9912   */\n      swap3\n      swap2\n      pop\n      pop\n      jump\t// out\n        /* \"#utility.yul\":9918:10035   */\n    tag_214:\n        /* \"#utility.yul\":10027:10028   */\n      0x00\n        /* \"#utility.yul\":10024:10025   */\n      dup1\n        /* \"#utility.yul\":10017:10029   */\n      revert\n        /* \"#utility.yul\":10041:10158   */\n    tag_215:\n        /* \"#utility.yul\":10150:10151   */\n      0x00\n        /* \"#utility.yul\":10147:10148   */\n      dup1\n        /* \"#utility.yul\":10140:10152   */\n      revert\n        /* \"#utility.yul\":10164:10344   */\n    tag_100:\n        /* \"#utility.yul\":10212:10289   */\n      0x4e487b7100000000000000000000000000000000000000000000000000000000\n        /* \"#utility.yul\":10209:10210   */\n      0x00\n        /* \"#utility.yul\":10202:10290   */\n      mstore\n        /* \"#utility.yul\":10309:10313   */\n      0x41\n        /* \"#utility.yul\":10306:10307   */\n      0x04\n        /* \"#utility.yul\":10299:10314   */\n      mstore\n        /* \"#utility.yul\":10333:10337   */\n      0x24\n        /* \"#utility.yul\":10330:10331   */\n      0x00\n        /* \"#utility.yul\":10323:10338   */\n      revert\n        /* \"#utility.yul\":10350:10631   */\n    tag_216:\n        /* \"#utility.yul\":10433:10460   */\n      tag_345\n        /* \"#utility.yul\":10455:10459   */\n      dup3\n        /* \"#utility.yul\":10433:10460   */\n      tag_200\n      jump\t// in\n    tag_345:\n        /* \"#utility.yul\":10425:10431   */\n      dup2\n        /* \"#utility.yul\":10421:10461   */\n      add\n        /* \"#utility.yul\":10563:10569   */\n      dup2\n        /* \"#utility.yul\":10551:10561   */\n      dup2\n        /* \"#utility.yul\":10548:10570   */\n      lt\n        /* \"#utility.yul\":10527:10545   */\n      0xffffffffffffffff\n        /* \"#utility.yul\":10515:10525   */\n      dup3\n        /* \"#utility.yul\":10512:10546   */\n      gt\n        /* \"#utility.yul\":10509:10571   */\n      or\n        /* \"#utility.yul\":10506:10594   */\n      iszero\n      tag_346\n      jumpi\n        /* \"#utility.yul\":10574:10592   */\n      tag_347\n      tag_100\n      jump\t// in\n    tag_347:\n        /* \"#utility.yul\":10506:10594   */\n    tag_346:\n        /* \"#utility.yul\":10614:10624   */\n      dup1\n        /* \"#utility.yul\":10610:10612   */\n      0x40\n        /* \"#utility.yul\":10603:10625   */\n      mstore\n        /* \"#utility.yul\":10393:10631   */\n      pop\n        /* \"#utility.yul\":10350:10631   */\n      pop\n      pop\n      jump\t// out\n        /* \"#utility.yul\":10637:10766   */\n    tag_217:\n        /* \"#utility.yul\":10671:10677   */\n      0x00\n        /* \"#utility.yul\":10698:10718   */\n      tag_349\n      tag_184\n      jump\t// in\n    tag_349:\n        /* \"#utility.yul\":10688:10718   */\n      swap1\n      pop\n        /* \"#utility.yul\":10727:10760   */\n      tag_350\n        /* \"#utility.yul\":10755:10759   */\n      dup3\n        /* \"#utility.yul\":10747:10753   */\n      dup3\n        /* \"#utility.yul\":10727:10760   */\n      tag_216\n      jump\t// in\n    tag_350:\n        /* \"#utility.yul\":10637:10766   */\n      swap2\n      swap1\n      pop\n      jump\t// out\n        /* \"#utility.yul\":10772:11080   */\n    tag_218:\n        /* \"#utility.yul\":10834:10838   */\n      0x00\n        /* \"#utility.yul\":10924:10942   */\n      0xffffffffffffffff\n        /* \"#utility.yul\":10916:10922   */\n      dup3\n        /* \"#utility.yul\":10913:10943   */\n      gt\n        /* \"#utility.yul\":10910:10966   */\n      iszero\n      tag_352\n      jumpi\n        /* \"#utility.yul\":10946:10964   */\n      tag_353\n      tag_100\n      jump\t// in\n    tag_353:\n        /* \"#utility.yul\":10910:10966   */\n    tag_352:\n        /* \"#utility.yul\":10984:11013   */\n      tag_354\n        /* \"#utility.yul\":11006:11012   */\n      dup3\n        /* \"#utility.yul\":10984:11013   */\n      tag_200\n      jump\t// in\n    tag_354:\n        /* \"#utility.yul\":10976:11013   */\n      swap1\n      pop\n        /* \"#utility.yul\":11068:11072   */\n      0x20\n        /* \"#utility.yul\":11062:11066   */\n      dup2\n        /* \"#utility.yul\":11058:11073   */\n      add\n        /* \"#utility.yul\":11050:11073   */\n      swap1\n      pop\n        /* \"#utility.yul\":10772:11080   */\n      swap2\n      swap1\n      pop\n      jump\t// out\n        /* \"#utility.yul\":11086:11234   */\n    tag_219:\n        /* \"#utility.yul\":11184:11190   */\n      dup3\n        /* \"#utility.yul\":11179:11182   */\n      dup2\n        /* \"#utility.yul\":11174:11177   */\n      dup4\n        /* \"#utility.yul\":11161:11191   */\n      calldatacopy\n        /* \"#utility.yul\":11225:11226   */\n      0x00\n        /* \"#utility.yul\":11216:11222   */\n      dup4\n        /* \"#utility.yul\":11211:11214   */\n      dup4\n        /* \"#utility.yul\":11207:11223   */\n      add\n        /* \"#utility.yul\":11200:11227   */\n      mstore\n        /* \"#utility.yul\":11086:11234   */\n      pop\n      pop\n      pop\n      jump\t// out\n        /* \"#utility.yul\":11240:11665   */\n    tag_220:\n        /* \"#utility.yul\":11318:11323   */\n      0x00\n        /* \"#utility.yul\":11343:11409   */\n      tag_357\n        /* \"#utility.yul\":11359:11408   */\n      tag_358\n        /* \"#utility.yul\":11401:11407   */\n      dup5\n        /* \"#utility.yul\":11359:11408   */\n      tag_218\n      jump\t// in\n    tag_358:\n        /* \"#utility.yul\":11343:11409   */\n      tag_217\n      jump\t// in\n    tag_357:\n        /* \"#utility.yul\":11334:11409   */\n      swap1\n      pop\n        /* \"#utility.yul\":11432:11438   */\n      dup3\n        /* \"#utility.yul\":11425:11430   */\n      dup2\n        /* \"#utility.yul\":11418:11439   */\n      mstore\n        /* \"#utility.yul\":11470:11474   */\n      0x20\n        /* \"#utility.yul\":11463:11468   */\n      dup2\n        /* \"#utility.yul\":11459:11475   */\n      add\n        /* \"#utility.yul\":11508:11511   */\n      dup5\n        /* \"#utility.yul\":11499:11505   */\n      dup5\n        /* \"#utility.yul\":11494:11497   */\n      dup5\n        /* \"#utility.yul\":11490:11506   */\n      add\n        /* \"#utility.yul\":11487:11512   */\n      gt\n        /* \"#utility.yul\":11484:11596   */\n      iszero\n      tag_359\n      jumpi\n        /* \"#utility.yul\":11515:11594   */\n      tag_360\n      tag_215\n      jump\t// in\n    tag_360:\n        /* \"#utility.yul\":11484:11596   */\n    tag_359:\n        /* \"#utility.yul\":11605:11659   */\n      tag_361\n        /* \"#utility.yul\":11652:11658   */\n      dup5\n        /* \"#utility.yul\":11647:11650   */\n      dup3\n        /* \"#utility.yul\":11642:11645   */\n      dup6\n        /* \"#utility.yul\":11605:11659   */\n      tag_219\n      jump\t// in\n    tag_361:\n        /* \"#utility.yul\":11324:11665   */\n      pop\n        /* \"#utility.yul\":11240:11665   */\n      swap4\n      swap3\n      pop\n      pop\n      pop\n      jump\t// out\n        /* \"#utility.yul\":11685:12025   */\n    tag_221:\n        /* \"#utility.yul\":11741:11746   */\n      0x00\n        /* \"#utility.yul\":11790:11793   */\n      dup3\n        /* \"#utility.yul\":11783:11787   */\n      0x1f\n        /* \"#utility.yul\":11775:11781   */\n      dup4\n        /* \"#utility.yul\":11771:11788   */\n      add\n        /* \"#utility.yul\":11767:11794   */\n      slt\n        /* \"#utility.yul\":11757:11879   */\n      tag_363\n      jumpi\n        /* \"#utility.yul\":11798:11877   */\n      tag_364\n      tag_214\n      jump\t// in\n    tag_364:\n        /* \"#utility.yul\":11757:11879   */\n    tag_363:\n        /* \"#utility.yul\":11915:11921   */\n      dup2\n        /* \"#utility.yul\":11902:11922   */\n      calldataload\n        /* \"#utility.yul\":11940:12019   */\n      tag_365\n        /* \"#utility.yul\":12015:12018   */\n      dup5\n        /* \"#utility.yul\":12007:12013   */\n      dup3\n        /* \"#utility.yul\":12000:12004   */\n      0x20\n        /* \"#utility.yul\":11992:11998   */\n      dup7\n        /* \"#utility.yul\":11988:12005   */\n      add\n        /* \"#utility.yul\":11940:12019   */\n      tag_220\n      jump\t// in\n    tag_365:\n        /* \"#utility.yul\":11931:12019   */\n      swap2\n      pop\n        /* \"#utility.yul\":11747:12025   */\n      pop\n        /* \"#utility.yul\":11685:12025   */\n      swap3\n      swap2\n      pop\n      pop\n      jump\t// out\n        /* \"#utility.yul\":12031:12830   */\n    tag_61:\n        /* \"#utility.yul\":12118:12124   */\n      0x00\n        /* \"#utility.yul\":12126:12132   */\n      dup1\n        /* \"#utility.yul\":12134:12140   */\n      0x00\n        /* \"#utility.yul\":12183:12185   */\n      0x60\n        /* \"#utility.yul\":12171:12180   */\n      dup5\n        /* \"#utility.yul\":12162:12169   */\n      dup7\n        /* \"#utility.yul\":12158:12181   */\n      sub\n        /* \"#utility.yul\":12154:12186   */\n      slt\n        /* \"#utility.yul\":12151:12270   */\n      iszero\n      tag_367\n      jumpi\n        /* \"#utility.yul\":12189:12268   */\n      tag_368\n      tag_185\n      jump\t// in\n    tag_368:\n        /* \"#utility.yul\":12151:12270   */\n    tag_367:\n        /* \"#utility.yul\":12309:12310   */\n      0x00\n        /* \"#utility.yul\":12334:12387   */\n      tag_369\n        /* \"#utility.yul\":12379:12386   */\n      dup7\n        /* \"#utility.yul\":12370:12376   */\n      dup3\n        /* \"#utility.yul\":12359:12368   */\n      dup8\n        /* \"#utility.yul\":12355:12377   */\n      add\n        /* \"#utility.yul\":12334:12387   */\n      tag_190\n      jump\t// in\n    tag_369:\n        /* \"#utility.yul\":12324:12387   */\n      swap4\n      pop\n        /* \"#utility.yul\":12280:12397   */\n      pop\n        /* \"#utility.yul\":12436:12438   */\n      0x20\n        /* \"#utility.yul\":12462:12515   */\n      tag_370\n        /* \"#utility.yul\":12507:12514   */\n      dup7\n        /* \"#utility.yul\":12498:12504   */\n      dup3\n        /* \"#utility.yul\":12487:12496   */\n      dup8\n        /* \"#utility.yul\":12483:12505   */\n      add\n        /* \"#utility.yul\":12462:12515   */\n      tag_190\n      jump\t// in\n    tag_370:\n        /* \"#utility.yul\":12452:12515   */\n      swap3\n      pop\n        /* \"#utility.yul\":12407:12525   */\n      pop\n        /* \"#utility.yul\":12592:12594   */\n      0x40\n        /* \"#utility.yul\":12581:12590   */\n      dup5\n        /* \"#utility.yul\":12577:12595   */\n      add\n        /* \"#utility.yul\":12564:12596   */\n      calldataload\n        /* \"#utility.yul\":12623:12641   */\n      0xffffffffffffffff\n        /* \"#utility.yul\":12615:12621   */\n      dup2\n        /* \"#utility.yul\":12612:12642   */\n      gt\n        /* \"#utility.yul\":12609:12726   */\n      iszero\n      tag_371\n      jumpi\n        /* \"#utility.yul\":12645:12724   */\n      tag_372\n      tag_186\n      jump\t// in\n    tag_372:\n        /* \"#utility.yul\":12609:12726   */\n    tag_371:\n        /* \"#utility.yul\":12750:12813   */\n      tag_373\n        /* \"#utility.yul\":12805:12812   */\n      dup7\n        /* \"#utility.yul\":12796:12802   */\n      dup3\n        /* \"#utility.yul\":12785:12794   */\n      dup8\n        /* \"#utility.yul\":12781:12803   */\n      add\n        /* \"#utility.yul\":12750:12813   */\n      tag_221\n      jump\t// in\n    tag_373:\n        /* \"#utility.yul\":12740:12813   */\n      swap2\n      pop\n        /* \"#utility.yul\":12535:12823   */\n      pop\n        /* \"#utility.yul\":12031:12830   */\n      swap3\n      pop\n      swap3\n      pop\n      swap3\n      jump\t// out\n        /* \"#utility.yul\":12836:13490   */\n    tag_65:\n        /* \"#utility.yul\":12914:12920   */\n      0x00\n        /* \"#utility.yul\":12922:12928   */\n      dup1\n        /* \"#utility.yul\":12971:12973   */\n      0x40\n        /* \"#utility.yul\":12959:12968   */\n      dup4\n        /* \"#utility.yul\":12950:12957   */\n      dup6\n        /* \"#utility.yul\":12946:12969   */\n      sub\n        /* \"#utility.yul\":12942:12974   */\n      slt\n        /* \"#utility.yul\":12939:13058   */\n      iszero\n      tag_375\n      jumpi\n        /* \"#utility.yul\":12977:13056   */\n      tag_376\n      tag_185\n      jump\t// in\n    tag_376:\n        /* \"#utility.yul\":12939:13058   */\n    tag_375:\n        /* \"#utility.yul\":13125:13126   */\n      0x00\n        /* \"#utility.yul\":13114:13123   */\n      dup4\n        /* \"#utility.yul\":13110:13127   */\n      add\n        /* \"#utility.yul\":13097:13128   */\n      calldataload\n        /* \"#utility.yul\":13155:13173   */\n      0xffffffffffffffff\n        /* \"#utility.yul\":13147:13153   */\n      dup2\n        /* \"#utility.yul\":13144:13174   */\n      gt\n        /* \"#utility.yul\":13141:13258   */\n      iszero\n      tag_377\n      jumpi\n        /* \"#utility.yul\":13177:13256   */\n      tag_378\n      tag_186\n      jump\t// in\n    tag_378:\n        /* \"#utility.yul\":13141:13258   */\n    tag_377:\n        /* \"#utility.yul\":13282:13345   */\n      tag_379\n        /* \"#utility.yul\":13337:13344   */\n      dup6\n        /* \"#utility.yul\":13328:13334   */\n      dup3\n        /* \"#utility.yul\":13317:13326   */\n      dup7\n        /* \"#utility.yul\":13313:13335   */\n      add\n        /* \"#utility.yul\":13282:13345   */\n      tag_221\n      jump\t// in\n    tag_379:\n        /* \"#utility.yul\":13272:13345   */\n      swap3\n      pop\n        /* \"#utility.yul\":13068:13355   */\n      pop\n        /* \"#utility.yul\":13394:13396   */\n      0x20\n        /* \"#utility.yul\":13420:13473   */\n      tag_380\n        /* \"#utility.yul\":13465:13472   */\n      dup6\n        /* \"#utility.yul\":13456:13462   */\n      dup3\n        /* \"#utility.yul\":13445:13454   */\n      dup7\n        /* \"#utility.yul\":13441:13463   */\n      add\n        /* \"#utility.yul\":13420:13473   */\n      tag_190\n      jump\t// in\n    tag_380:\n        /* \"#utility.yul\":13410:13473   */\n      swap2\n      pop\n        /* \"#utility.yul\":13365:13483   */\n      pop\n        /* \"#utility.yul\":12836:13490   */\n      swap3\n      pop\n      swap3\n      swap1\n      pop\n      jump\t// out\n        /* \"#utility.yul\":13496:14150   */\n    tag_69:\n        /* \"#utility.yul\":13574:13580   */\n      0x00\n        /* \"#utility.yul\":13582:13588   */\n      dup1\n        /* \"#utility.yul\":13631:13633   */\n      0x40\n        /* \"#utility.yul\":13619:13628   */\n      dup4\n        /* \"#utility.yul\":13610:13617   */\n      dup6\n        /* \"#utility.yul\":13606:13629   */\n      sub\n        /* \"#utility.yul\":13602:13634   */\n      slt\n        /* \"#utility.yul\":13599:13718   */\n      iszero\n      tag_382\n      jumpi\n        /* \"#utility.yul\":13637:13716   */\n      tag_383\n      tag_185\n      jump\t// in\n    tag_383:\n        /* \"#utility.yul\":13599:13718   */\n    tag_382:\n        /* \"#utility.yul\":13757:13758   */\n      0x00\n        /* \"#utility.yul\":13782:13835   */\n      tag_384\n        /* \"#utility.yul\":13827:13834   */\n      dup6\n        /* \"#utility.yul\":13818:13824   */\n      dup3\n        /* \"#utility.yul\":13807:13816   */\n      dup7\n        /* \"#utility.yul\":13803:13825   */\n      add\n        /* \"#utility.yul\":13782:13835   */\n      tag_190\n      jump\t// in\n    tag_384:\n        /* \"#utility.yul\":13772:13835   */\n      swap3\n      pop\n        /* \"#utility.yul\":13728:13845   */\n      pop\n        /* \"#utility.yul\":13912:13914   */\n      0x20\n        /* \"#utility.yul\":13901:13910   */\n      dup4\n        /* \"#utility.yul\":13897:13915   */\n      add\n        /* \"#utility.yul\":13884:13916   */\n      calldataload\n        /* \"#utility.yul\":13943:13961   */\n      0xffffffffffffffff\n        /* \"#utility.yul\":13935:13941   */\n      dup2\n        /* \"#utility.yul\":13932:13962   */\n      gt\n        /* \"#utility.yul\":13929:14046   */\n      iszero\n      tag_385\n      jumpi\n        /* \"#utility.yul\":13965:14044   */\n      tag_386\n      tag_186\n      jump\t// in\n    tag_386:\n        /* \"#utility.yul\":13929:14046   */\n    tag_385:\n        /* \"#utility.yul\":14070:14133   */\n      tag_387\n        /* \"#utility.yul\":14125:14132   */\n      dup6\n        /* \"#utility.yul\":14116:14122   */\n      dup3\n        /* \"#utility.yul\":14105:14114   */\n      dup7\n        /* \"#utility.yul\":14101:14123   */\n      add\n        /* \"#utility.yul\":14070:14133   */\n      tag_221\n      jump\t// in\n    tag_387:\n        /* \"#utility.yul\":14060:14133   */\n      swap2\n      pop\n        /* \"#utility.yul\":13855:14143   */\n      pop\n        /* \"#utility.yul\":13496:14150   */\n      swap3\n      pop\n      swap3\n      swap1\n      pop\n      jump\t// out\n        /* \"#utility.yul\":14156:14800   */\n    tag_75:\n        /* \"#utility.yul\":14353:14357   */\n      0x00\n        /* \"#utility.yul\":14391:14394   */\n      0x80\n        /* \"#utility.yul\":14380:14389   */\n      dup3\n        /* \"#utility.yul\":14376:14395   */\n      add\n        /* \"#utility.yul\":14368:14395   */\n      swap1\n      pop\n        /* \"#utility.yul\":14405:14476   */\n      tag_389\n        /* \"#utility.yul\":14473:14474   */\n      0x00\n        /* \"#utility.yul\":14462:14471   */\n      dup4\n        /* \"#utility.yul\":14458:14475   */\n      add\n        /* \"#utility.yul\":14449:14455   */\n      dup8\n        /* \"#utility.yul\":14405:14476   */\n      tag_196\n      jump\t// in\n    tag_389:\n        /* \"#utility.yul\":14486:14558   */\n      tag_390\n        /* \"#utility.yul\":14554:14556   */\n      0x20\n        /* \"#utility.yul\":14543:14552   */\n      dup4\n        /* \"#utility.yul\":14539:14557   */\n      add\n        /* \"#utility.yul\":14530:14536   */\n      dup7\n        /* \"#utility.yul\":14486:14558   */\n      tag_202\n      jump\t// in\n    tag_390:\n        /* \"#utility.yul\":14605:14614   */\n      dup2\n        /* \"#utility.yul\":14599:14603   */\n      dup2\n        /* \"#utility.yul\":14595:14615   */\n      sub\n        /* \"#utility.yul\":14590:14592   */\n      0x40\n        /* \"#utility.yul\":14579:14588   */\n      dup4\n        /* \"#utility.yul\":14575:14593   */\n      add\n        /* \"#utility.yul\":14568:14616   */\n      mstore\n        /* \"#utility.yul\":14633:14711   */\n      tag_391\n        /* \"#utility.yul\":14706:14710   */\n      dup2\n        /* \"#utility.yul\":14697:14703   */\n      dup6\n        /* \"#utility.yul\":14633:14711   */\n      tag_201\n      jump\t// in\n    tag_391:\n        /* \"#utility.yul\":14625:14711   */\n      swap1\n      pop\n        /* \"#utility.yul\":14721:14793   */\n      tag_392\n        /* \"#utility.yul\":14789:14791   */\n      0x60\n        /* \"#utility.yul\":14778:14787   */\n      dup4\n        /* \"#utility.yul\":14774:14792   */\n      add\n        /* \"#utility.yul\":14765:14771   */\n      dup5\n        /* \"#utility.yul\":14721:14793   */\n      tag_196\n      jump\t// in\n    tag_392:\n        /* \"#utility.yul\":14156:14800   */\n      swap6\n      swap5\n      pop\n      pop\n      pop\n      pop\n      pop\n      jump\t// out\n        /* \"#utility.yul\":14806:15315   */\n    tag_78:\n        /* \"#utility.yul\":14875:14881   */\n      0x00\n        /* \"#utility.yul\":14924:14926   */\n      0x20\n        /* \"#utility.yul\":14912:14921   */\n      dup3\n        /* \"#utility.yul\":14903:14910   */\n      dup5\n        /* \"#utility.yul\":14899:14922   */\n      sub\n        /* \"#utility.yul\":14895:14927   */\n      slt\n        /* \"#utility.yul\":14892:15011   */\n      iszero\n      tag_394\n      jumpi\n        /* \"#utility.yul\":14930:15009   */\n      tag_395\n      tag_185\n      jump\t// in\n    tag_395:\n        /* \"#utility.yul\":14892:15011   */\n    tag_394:\n        /* \"#utility.yul\":15078:15079   */\n      0x00\n        /* \"#utility.yul\":15067:15076   */\n      dup3\n        /* \"#utility.yul\":15063:15080   */\n      add\n        /* \"#utility.yul\":15050:15081   */\n      calldataload\n        /* \"#utility.yul\":15108:15126   */\n      0xffffffffffffffff\n        /* \"#utility.yul\":15100:15106   */\n      dup2\n        /* \"#utility.yul\":15097:15127   */\n      gt\n        /* \"#utility.yul\":15094:15211   */\n      iszero\n      tag_396\n      jumpi\n        /* \"#utility.yul\":15130:15209   */\n      tag_397\n      tag_186\n      jump\t// in\n    tag_397:\n        /* \"#utility.yul\":15094:15211   */\n    tag_396:\n        /* \"#utility.yul\":15235:15298   */\n      tag_398\n        /* \"#utility.yul\":15290:15297   */\n      dup5\n        /* \"#utility.yul\":15281:15287   */\n      dup3\n        /* \"#utility.yul\":15270:15279   */\n      dup6\n        /* \"#utility.yul\":15266:15288   */\n      add\n        /* \"#utility.yul\":15235:15298   */\n      tag_221\n      jump\t// in\n    tag_398:\n        /* \"#utility.yul\":15225:15298   */\n      swap2\n      pop\n        /* \"#utility.yul\":15021:15308   */\n      pop\n        /* \"#utility.yul\":14806:15315   */\n      swap3\n      swap2\n      pop\n      pop\n      jump\t// out\n        /* \"#utility.yul\":15321:15501   */\n    tag_222:\n        /* \"#utility.yul\":15369:15446   */\n      0x4e487b7100000000000000000000000000000000000000000000000000000000\n        /* \"#utility.yul\":15366:15367   */\n      0x00\n        /* \"#utility.yul\":15359:15447   */\n      mstore\n        /* \"#utility.yul\":15466:15470   */\n      0x22\n        /* \"#utility.yul\":15463:15464   */\n      0x04\n        /* \"#utility.yul\":15456:15471   */\n      mstore\n        /* \"#utility.yul\":15490:15494   */\n      0x24\n        /* \"#utility.yul\":15487:15488   */\n      0x00\n        /* \"#utility.yul\":15480:15495   */\n      revert\n        /* \"#utility.yul\":15507:15827   */\n    tag_86:\n        /* \"#utility.yul\":15551:15557   */\n      0x00\n        /* \"#utility.yul\":15588:15589   */\n      0x02\n        /* \"#utility.yul\":15582:15586   */\n      dup3\n        /* \"#utility.yul\":15578:15590   */\n      div\n        /* \"#utility.yul\":15568:15590   */\n      swap1\n      pop\n        /* \"#utility.yul\":15635:15636   */\n      0x01\n        /* \"#utility.yul\":15629:15633   */\n      dup3\n        /* \"#utility.yul\":15625:15637   */\n      and\n        /* \"#utility.yul\":15656:15674   */\n      dup1\n        /* \"#utility.yul\":15646:15727   */\n      tag_401\n      jumpi\n        /* \"#utility.yul\":15712:15716   */\n      0x7f\n        /* \"#utility.yul\":15704:15710   */\n      dup3\n        /* \"#utility.yul\":15700:15717   */\n      and\n        /* \"#utility.yul\":15690:15717   */\n      swap2\n      pop\n        /* \"#utility.yul\":15646:15727   */\n    tag_401:\n        /* \"#utility.yul\":15774:15776   */\n      0x20\n        /* \"#utility.yul\":15766:15772   */\n      dup3\n        /* \"#utility.yul\":15763:15777   */\n      lt\n        /* \"#utility.yul\":15743:15761   */\n      dup2\n        /* \"#utility.yul\":15740:15778   */\n      sub\n        /* \"#utility.yul\":15737:15821   */\n      tag_402\n      jumpi\n        /* \"#utility.yul\":15793:15811   */\n      tag_403\n      tag_222\n      jump\t// in\n    tag_403:\n        /* \"#utility.yul\":15737:15821   */\n    tag_402:\n        /* \"#utility.yul\":15558:15827   */\n      pop\n        /* \"#utility.yul\":15507:15827   */\n      swap2\n      swap1\n      pop\n      jump\t// out\n        /* \"#utility.yul\":15833:16002   */\n    tag_223:\n        /* \"#utility.yul\":15973:15994   */\n      0x436f756e74206973206e6f742070726f70657200000000000000000000000000\n        /* \"#utility.yul\":15969:15970   */\n      0x00\n        /* \"#utility.yul\":15961:15967   */\n      dup3\n        /* \"#utility.yul\":15957:15971   */\n      add\n        /* \"#utility.yul\":15950:15995   */\n      mstore\n        /* \"#utility.yul\":15833:16002   */\n      pop\n      jump\t// out\n        /* \"#utility.yul\":16008:16374   */\n    tag_224:\n        /* \"#utility.yul\":16150:16153   */\n      0x00\n        /* \"#utility.yul\":16171:16238   */\n      tag_406\n        /* \"#utility.yul\":16235:16237   */\n      0x13\n        /* \"#utility.yul\":16230:16233   */\n      dup4\n        /* \"#utility.yul\":16171:16238   */\n      tag_198\n      jump\t// in\n    tag_406:\n        /* \"#utility.yul\":16164:16238   */\n      swap2\n      pop\n        /* \"#utility.yul\":16247:16340   */\n      tag_407\n        /* \"#utility.yul\":16336:16339   */\n      dup3\n        /* \"#utility.yul\":16247:16340   */\n      tag_223\n      jump\t// in\n    tag_407:\n        /* \"#utility.yul\":16365:16367   */\n      0x20\n        /* \"#utility.yul\":16360:16363   */\n      dup3\n        /* \"#utility.yul\":16356:16368   */\n      add\n        /* \"#utility.yul\":16349:16368   */\n      swap1\n      pop\n        /* \"#utility.yul\":16008:16374   */\n      swap2\n      swap1\n      pop\n      jump\t// out\n        /* \"#utility.yul\":16380:16799   */\n    tag_97:\n        /* \"#utility.yul\":16546:16550   */\n      0x00\n        /* \"#utility.yul\":16584:16586   */\n      0x20\n        /* \"#utility.yul\":16573:16582   */\n      dup3\n        /* \"#utility.yul\":16569:16587   */\n      add\n        /* \"#utility.yul\":16561:16587   */\n      swap1\n      pop\n        /* \"#utility.yul\":16633:16642   */\n      dup2\n        /* \"#utility.yul\":16627:16631   */\n      dup2\n        /* \"#utility.yul\":16623:16643   */\n      sub\n        /* \"#utility.yul\":16619:16620   */\n      0x00\n        /* \"#utility.yul\":16608:16617   */\n      dup4\n        /* \"#utility.yul\":16604:16621   */\n      add\n        /* \"#utility.yul\":16597:16644   */\n      mstore\n        /* \"#utility.yul\":16661:16792   */\n      tag_409\n        /* \"#utility.yul\":16787:16791   */\n      dup2\n        /* \"#utility.yul\":16661:16792   */\n      tag_224\n      jump\t// in\n    tag_409:\n        /* \"#utility.yul\":16653:16792   */\n      swap1\n      pop\n        /* \"#utility.yul\":16380:16799   */\n      swap2\n      swap1\n      pop\n      jump\t// out\n        /* \"#utility.yul\":16805:16985   */\n    tag_225:\n        /* \"#utility.yul\":16853:16930   */\n      0x4e487b7100000000000000000000000000000000000000000000000000000000\n        /* \"#utility.yul\":16850:16851   */\n      0x00\n        /* \"#utility.yul\":16843:16931   */\n      mstore\n        /* \"#utility.yul\":16950:16954   */\n      0x11\n        /* \"#utility.yul\":16947:16948   */\n      0x04\n        /* \"#utility.yul\":16940:16955   */\n      mstore\n        /* \"#utility.yul\":16974:16978   */\n      0x24\n        /* \"#utility.yul\":16971:16972   */\n      0x00\n        /* \"#utility.yul\":16964:16979   */\n      revert\n        /* \"#utility.yul\":16991:17185   */\n    tag_109:\n        /* \"#utility.yul\":17031:17035   */\n      0x00\n        /* \"#utility.yul\":17051:17071   */\n      tag_412\n        /* \"#utility.yul\":17069:17070   */\n      dup3\n        /* \"#utility.yul\":17051:17071   */\n      tag_193\n      jump\t// in\n    tag_412:\n        /* \"#utility.yul\":17046:17071   */\n      swap2\n      pop\n        /* \"#utility.yul\":17085:17105   */\n      tag_413\n        /* \"#utility.yul\":17103:17104   */\n      dup4\n        /* \"#utility.yul\":17085:17105   */\n      tag_193\n      jump\t// in\n    tag_413:\n        /* \"#utility.yul\":17080:17105   */\n      swap3\n      pop\n        /* \"#utility.yul\":17129:17130   */\n      dup3\n        /* \"#utility.yul\":17126:17127   */\n      dup3\n        /* \"#utility.yul\":17122:17131   */\n      sub\n        /* \"#utility.yul\":17114:17131   */\n      swap1\n      pop\n        /* \"#utility.yul\":17153:17154   */\n      dup2\n        /* \"#utility.yul\":17147:17151   */\n      dup2\n        /* \"#utility.yul\":17144:17155   */\n      gt\n        /* \"#utility.yul\":17141:17178   */\n      iszero\n      tag_414\n      jumpi\n        /* \"#utility.yul\":17158:17176   */\n      tag_415\n      tag_225\n      jump\t// in\n    tag_415:\n        /* \"#utility.yul\":17141:17178   */\n    tag_414:\n        /* \"#utility.yul\":16991:17185   */\n      swap3\n      swap2\n      pop\n      pop\n      jump\t// out\n        /* \"#utility.yul\":17191:17371   */\n    tag_117:\n        /* \"#utility.yul\":17239:17316   */\n      0x4e487b7100000000000000000000000000000000000000000000000000000000\n        /* \"#utility.yul\":17236:17237   */\n      0x00\n        /* \"#utility.yul\":17229:17317   */\n      mstore\n        /* \"#utility.yul\":17336:17340   */\n      0x32\n        /* \"#utility.yul\":17333:17334   */\n      0x04\n        /* \"#utility.yul\":17326:17341   */\n      mstore\n        /* \"#utility.yul\":17360:17364   */\n      0x24\n        /* \"#utility.yul\":17357:17358   */\n      0x00\n        /* \"#utility.yul\":17350:17365   */\n      revert\n        /* \"#utility.yul\":17377:17568   */\n    tag_119:\n        /* \"#utility.yul\":17417:17420   */\n      0x00\n        /* \"#utility.yul\":17436:17456   */\n      tag_418\n        /* \"#utility.yul\":17454:17455   */\n      dup3\n        /* \"#utility.yul\":17436:17456   */\n      tag_193\n      jump\t// in\n    tag_418:\n        /* \"#utility.yul\":17431:17456   */\n      swap2\n      pop\n        /* \"#utility.yul\":17470:17490   */\n      tag_419\n        /* \"#utility.yul\":17488:17489   */\n      dup4\n        /* \"#utility.yul\":17470:17490   */\n      tag_193\n      jump\t// in\n    tag_419:\n        /* \"#utility.yul\":17465:17490   */\n      swap3\n      pop\n        /* \"#utility.yul\":17513:17514   */\n      dup3\n        /* \"#utility.yul\":17510:17511   */\n      dup3\n        /* \"#utility.yul\":17506:17515   */\n      add\n        /* \"#utility.yul\":17499:17515   */\n      swap1\n      pop\n        /* \"#utility.yul\":17534:17537   */\n      dup1\n        /* \"#utility.yul\":17531:17532   */\n      dup3\n        /* \"#utility.yul\":17528:17538   */\n      gt\n        /* \"#utility.yul\":17525:17561   */\n      iszero\n      tag_420\n      jumpi\n        /* \"#utility.yul\":17541:17559   */\n      tag_421\n      tag_225\n      jump\t// in\n    tag_421:\n        /* \"#utility.yul\":17525:17561   */\n    tag_420:\n        /* \"#utility.yul\":17377:17568   */\n      swap3\n      swap2\n      pop\n      pop\n      jump\t// out\n        /* \"#utility.yul\":17574:17744   */\n    tag_226:\n        /* \"#utility.yul\":17714:17736   */\n      0x436f756e74206973206e6f7420646566696e6564000000000000000000000000\n        /* \"#utility.yul\":17710:17711   */\n      0x00\n        /* \"#utility.yul\":17702:17708   */\n      dup3\n        /* \"#utility.yul\":17698:17712   */\n      add\n        /* \"#utility.yul\":17691:17737   */\n      mstore\n        /* \"#utility.yul\":17574:17744   */\n      pop\n      jump\t// out\n        /* \"#utility.yul\":17750:18116   */\n    tag_227:\n        /* \"#utility.yul\":17892:17895   */\n      0x00\n        /* \"#utility.yul\":17913:17980   */\n      tag_424\n        /* \"#utility.yul\":17977:17979   */\n      0x14\n        /* \"#utility.yul\":17972:17975   */\n      dup4\n        /* \"#utility.yul\":17913:17980   */\n      tag_198\n      jump\t// in\n    tag_424:\n        /* \"#utility.yul\":17906:17980   */\n      swap2\n      pop\n        /* \"#utility.yul\":17989:18082   */\n      tag_425\n        /* \"#utility.yul\":18078:18081   */\n      dup3\n        /* \"#utility.yul\":17989:18082   */\n      tag_226\n      jump\t// in\n    tag_425:\n        /* \"#utility.yul\":18107:18109   */\n      0x20\n        /* \"#utility.yul\":18102:18105   */\n      dup3\n        /* \"#utility.yul\":18098:18110   */\n      add\n        /* \"#utility.yul\":18091:18110   */\n      swap1\n      pop\n        /* \"#utility.yul\":17750:18116   */\n      swap2\n      swap1\n      pop\n      jump\t// out\n        /* \"#utility.yul\":18122:18541   */\n    tag_131:\n        /* \"#utility.yul\":18288:18292   */\n      0x00\n        /* \"#utility.yul\":18326:18328   */\n      0x20\n        /* \"#utility.yul\":18315:18324   */\n      dup3\n        /* \"#utility.yul\":18311:18329   */\n      add\n        /* \"#utility.yul\":18303:18329   */\n      swap1\n      pop\n        /* \"#utility.yul\":18375:18384   */\n      dup2\n        /* \"#utility.yul\":18369:18373   */\n      dup2\n        /* \"#utility.yul\":18365:18385   */\n      sub\n        /* \"#utility.yul\":18361:18362   */\n      0x00\n        /* \"#utility.yul\":18350:18359   */\n      dup4\n        /* \"#utility.yul\":18346:18363   */\n      add\n        /* \"#utility.yul\":18339:18386   */\n      mstore\n        /* \"#utility.yul\":18403:18534   */\n      tag_427\n        /* \"#utility.yul\":18529:18533   */\n      dup2\n        /* \"#utility.yul\":18403:18534   */\n      tag_227\n      jump\t// in\n    tag_427:\n        /* \"#utility.yul\":18395:18534   */\n      swap1\n      pop\n        /* \"#utility.yul\":18122:18541   */\n      swap2\n      swap1\n      pop\n      jump\t// out\n        /* \"#utility.yul\":18547:18718   */\n    tag_228:\n        /* \"#utility.yul\":18687:18710   */\n      0x596f7520646f6e27742068617665206163636573730000000000000000000000\n        /* \"#utility.yul\":18683:18684   */\n      0x00\n        /* \"#utility.yul\":18675:18681   */\n      dup3\n        /* \"#utility.yul\":18671:18685   */\n      add\n        /* \"#utility.yul\":18664:18711   */\n      mstore\n        /* \"#utility.yul\":18547:18718   */\n      pop\n      jump\t// out\n        /* \"#utility.yul\":18724:19090   */\n    tag_229:\n        /* \"#utility.yul\":18866:18869   */\n      0x00\n        /* \"#utility.yul\":18887:18954   */\n      tag_430\n        /* \"#utility.yul\":18951:18953   */\n      0x15\n        /* \"#utility.yul\":18946:18949   */\n      dup4\n        /* \"#utility.yul\":18887:18954   */\n      tag_198\n      jump\t// in\n    tag_430:\n        /* \"#utility.yul\":18880:18954   */\n      swap2\n      pop\n        /* \"#utility.yul\":18963:19056   */\n      tag_431\n        /* \"#utility.yul\":19052:19055   */\n      dup3\n        /* \"#utility.yul\":18963:19056   */\n      tag_228\n      jump\t// in\n    tag_431:\n        /* \"#utility.yul\":19081:19083   */\n      0x20\n        /* \"#utility.yul\":19076:19079   */\n      dup3\n        /* \"#utility.yul\":19072:19084   */\n      add\n        /* \"#utility.yul\":19065:19084   */\n      swap1\n      pop\n        /* \"#utility.yul\":18724:19090   */\n      swap2\n      swap1\n      pop\n      jump\t// out\n        /* \"#utility.yul\":19096:19515   */\n    tag_171:\n        /* \"#utility.yul\":19262:19266   */\n      0x00\n        /* \"#utility.yul\":19300:19302   */\n      0x20\n        /* \"#utility.yul\":19289:19298   */\n      dup3\n        /* \"#utility.yul\":19285:19303   */\n      add\n        /* \"#utility.yul\":19277:19303   */\n      swap1\n      pop\n        /* \"#utility.yul\":19349:19358   */\n      dup2\n        /* \"#utility.yul\":19343:19347   */\n      dup2\n        /* \"#utility.yul\":19339:19359   */\n      sub\n        /* \"#utility.yul\":19335:19336   */\n      0x00\n        /* \"#utility.yul\":19324:19333   */\n      dup4\n        /* \"#utility.yul\":19320:19337   */\n      add\n        /* \"#utility.yul\":19313:19360   */\n      mstore\n        /* \"#utility.yul\":19377:19508   */\n      tag_433\n        /* \"#utility.yul\":19503:19507   */\n      dup2\n        /* \"#utility.yul\":19377:19508   */\n      tag_229\n      jump\t// in\n    tag_433:\n        /* \"#utility.yul\":19369:19508   */\n      swap1\n      pop\n        /* \"#utility.yul\":19096:19515   */\n      swap2\n      swap1\n      pop\n      jump\t// out\n        /* \"#utility.yul\":19521:19662   */\n    tag_230:\n        /* \"#utility.yul\":19570:19574   */\n      0x00\n        /* \"#utility.yul\":19593:19596   */\n      dup2\n        /* \"#utility.yul\":19585:19596   */\n      swap1\n      pop\n        /* \"#utility.yul\":19616:19619   */\n      dup2\n        /* \"#utility.yul\":19613:19614   */\n      0x00\n        /* \"#utility.yul\":19606:19620   */\n      mstore\n        /* \"#utility.yul\":19650:19654   */\n      0x20\n        /* \"#utility.yul\":19647:19648   */\n      0x00\n        /* \"#utility.yul\":19637:19655   */\n      keccak256\n        /* \"#utility.yul\":19629:19655   */\n      swap1\n      pop\n        /* \"#utility.yul\":19521:19662   */\n      swap2\n      swap1\n      pop\n      jump\t// out\n        /* \"#utility.yul\":19668:19761   */\n    tag_231:\n        /* \"#utility.yul\":19705:19711   */\n      0x00\n        /* \"#utility.yul\":19752:19754   */\n      0x20\n        /* \"#utility.yul\":19747:19749   */\n      0x1f\n        /* \"#utility.yul\":19740:19745   */\n      dup4\n        /* \"#utility.yul\":19736:19750   */\n      add\n        /* \"#utility.yul\":19732:19755   */\n      div\n        /* \"#utility.yul\":19722:19755   */\n      swap1\n      pop\n        /* \"#utility.yul\":19668:19761   */\n      swap2\n      swap1\n      pop\n      jump\t// out\n        /* \"#utility.yul\":19767:19874   */\n    tag_232:\n        /* \"#utility.yul\":19811:19819   */\n      0x00\n        /* \"#utility.yul\":19861:19866   */\n      dup3\n        /* \"#utility.yul\":19855:19859   */\n      dup3\n        /* \"#utility.yul\":19851:19867   */\n      shl\n        /* \"#utility.yul\":19830:19867   */\n      swap1\n      pop\n        /* \"#utility.yul\":19767:19874   */\n      swap3\n      swap2\n      pop\n      pop\n      jump\t// out\n        /* \"#utility.yul\":19880:20273   */\n    tag_233:\n        /* \"#utility.yul\":19949:19955   */\n      0x00\n        /* \"#utility.yul\":19999:20000   */\n      0x08\n        /* \"#utility.yul\":19987:19997   */\n      dup4\n        /* \"#utility.yul\":19983:20001   */\n      mul\n        /* \"#utility.yul\":20022:20119   */\n      tag_438\n        /* \"#utility.yul\":20052:20118   */\n      0xffffffffffffffffffffffffffffffffffffffffffffffffffffffffffffffff\n        /* \"#utility.yul\":20041:20050   */\n      dup3\n        /* \"#utility.yul\":20022:20119   */\n      tag_232\n      jump\t// in\n    tag_438:\n        /* \"#utility.yul\":20140:20179   */\n      tag_439\n        /* \"#utility.yul\":20170:20178   */\n      dup7\n        /* \"#utility.yul\":20159:20168   */\n      dup4\n        /* \"#utility.yul\":20140:20179   */\n      tag_232\n      jump\t// in\n    tag_439:\n        /* \"#utility.yul\":20128:20179   */\n      swap6\n      pop\n        /* \"#utility.yul\":20212:20216   */\n      dup1\n        /* \"#utility.yul\":20208:20217   */\n      not\n        /* \"#utility.yul\":20201:20206   */\n      dup5\n        /* \"#utility.yul\":20197:20218   */\n      and\n        /* \"#utility.yul\":20188:20218   */\n      swap4\n      pop\n        /* \"#utility.yul\":20261:20265   */\n      dup1\n        /* \"#utility.yul\":20251:20259   */\n      dup7\n        /* \"#utility.yul\":20247:20266   */\n      and\n        /* \"#utility.yul\":20240:20245   */\n      dup5\n        /* \"#utility.yul\":20237:20267   */\n      or\n        /* \"#utility.yul\":20227:20267   */\n      swap3\n      pop\n        /* \"#utility.yul\":19956:20273   */\n      pop\n      pop\n        /* \"#utility.yul\":19880:20273   */\n      swap4\n      swap3\n      pop\n      pop\n      pop\n      jump\t// out\n        /* \"#utility.yul\":20279:20339   */\n    tag_234:\n        /* \"#utility.yul\":20307:20310   */\n      0x00\n        /* \"#utility.yul\":20328:20333   */\n      dup2\n        /* \"#utility.yul\":20321:20333   */\n      swap1\n      pop\n        /* \"#utility.yul\":20279:20339   */\n      swap2\n      swap1\n      pop\n      jump\t// out\n        /* \"#utility.yul\":20345:20487   */\n    tag_235:\n        /* \"#utility.yul\":20395:20404   */\n      0x00\n        /* \"#utility.yul\":20428:20481   */\n      tag_442\n        /* \"#utility.yul\":20446:20480   */\n      tag_443\n        /* \"#utility.yul\":20455:20479   */\n      tag_444\n        /* \"#utility.yul\":20473:20478   */\n      dup5\n        /* \"#utility.yul\":20455:20479   */\n      tag_193\n      jump\t// in\n    tag_444:\n        /* \"#utility.yul\":20446:20480   */\n      tag_234\n      jump\t// in\n    tag_443:\n        /* \"#utility.yul\":20428:20481   */\n      tag_193\n      jump\t// in\n    tag_442:\n        /* \"#utility.yul\":20415:20481   */\n      swap1\n      pop\n        /* \"#utility.yul\":20345:20487   */\n      swap2\n      swap1\n      pop\n      jump\t// out\n        /* \"#utility.yul\":20493:20568   */\n    tag_236:\n        /* \"#utility.yul\":20536:20539   */\n      0x00\n        /* \"#utility.yul\":20557:20562   */\n      dup2\n        /* \"#utility.yul\":20550:20562   */\n      swap1\n      pop\n        /* \"#utility.yul\":20493:20568   */\n      swap2\n      swap1\n      pop\n      jump\t// out\n        /* \"#utility.yul\":20574:20843   */\n    tag_237:\n        /* \"#utility.yul\":20684:20723   */\n      tag_447\n        /* \"#utility.yul\":20715:20722   */\n      dup4\n        /* \"#utility.yul\":20684:20723   */\n      tag_235\n      jump\t// in\n    tag_447:\n        /* \"#utility.yul\":20745:20836   */\n      tag_448\n        /* \"#utility.yul\":20794:20835   */\n      tag_449\n        /* \"#utility.yul\":20818:20834   */\n      dup3\n        /* \"#utility.yul\":20794:20835   */\n      tag_236\n      jump\t// in\n    tag_449:\n        /* \"#utility.yul\":20786:20792   */\n      dup5\n        /* \"#utility.yul\":20779:20783   */\n      dup5\n        /* \"#utility.yul\":20773:20784   */\n      sload\n        /* \"#utility.yul\":20745:20836   */\n      tag_233\n      jump\t// in\n    tag_448:\n        /* \"#utility.yul\":20739:20743   */\n      dup3\n        /* \"#utility.yul\":20732:20837   */\n      sstore\n        /* \"#utility.yul\":20650:20843   */\n      pop\n        /* \"#utility.yul\":20574:20843   */\n      pop\n      pop\n      pop\n      jump\t// out\n        /* \"#utility.yul\":20849:20922   */\n    tag_238:\n        /* \"#utility.yul\":20894:20897   */\n      0x00\n        /* \"#utility.yul\":20849:20922   */\n      swap1\n      jump\t// out\n        /* \"#utility.yul\":20928:21117   */\n    tag_239:\n        /* \"#utility.yul\":21005:21037   */\n      tag_452\n      tag_238\n      jump\t// in\n    tag_452:\n        /* \"#utility.yul\":21046:21111   */\n      tag_453\n        /* \"#utility.yul\":21104:21110   */\n      dup2\n        /* \"#utility.yul\":21096:21102   */\n      dup5\n        /* \"#utility.yul\":21090:21094   */\n      dup5\n        /* \"#utility.yul\":21046:21111   */\n      tag_237\n      jump\t// in\n    tag_453:\n        /* \"#utility.yul\":20981:21117   */\n      pop\n        /* \"#utility.yul\":20928:21117   */\n      pop\n      pop\n      jump\t// out\n        /* \"#utility.yul\":21123:21309   */\n    tag_240:\n        /* \"#utility.yul\":21183:21303   */\n    tag_455:\n        /* \"#utility.yul\":21200:21203   */\n      dup2\n        /* \"#utility.yul\":21193:21198   */\n      dup2\n        /* \"#utility.yul\":21190:21204   */\n      lt\n        /* \"#utility.yul\":21183:21303   */\n      iszero\n      tag_457\n      jumpi\n        /* \"#utility.yul\":21254:21293   */\n      tag_458\n        /* \"#utility.yul\":21291:21292   */\n      0x00\n        /* \"#utility.yul\":21284:21289   */\n      dup3\n        /* \"#utility.yul\":21254:21293   */\n      tag_239\n      jump\t// in\n    tag_458:\n        /* \"#utility.yul\":21227:21228   */\n      0x01\n        /* \"#utility.yul\":21220:21225   */\n      dup2\n        /* \"#utility.yul\":21216:21229   */\n      add\n        /* \"#utility.yul\":21207:21229   */\n      swap1\n      pop\n        /* \"#utility.yul\":21183:21303   */\n      jump(tag_455)\n    tag_457:\n        /* \"#utility.yul\":21123:21309   */\n      pop\n      pop\n      jump\t// out\n        /* \"#utility.yul\":21315:21858   */\n    tag_241:\n        /* \"#utility.yul\":21416:21418   */\n      0x1f\n        /* \"#utility.yul\":21411:21414   */\n      dup3\n        /* \"#utility.yul\":21408:21419   */\n      gt\n        /* \"#utility.yul\":21405:21851   */\n      iszero\n      tag_460\n      jumpi\n        /* \"#utility.yul\":21450:21488   */\n      tag_461\n        /* \"#utility.yul\":21482:21487   */\n      dup2\n        /* \"#utility.yul\":21450:21488   */\n      tag_230\n      jump\t// in\n    tag_461:\n        /* \"#utility.yul\":21534:21563   */\n      tag_462\n        /* \"#utility.yul\":21552:21562   */\n      dup5\n        /* \"#utility.yul\":21534:21563   */\n      tag_231\n      jump\t// in\n    tag_462:\n        /* \"#utility.yul\":21524:21532   */\n      dup2\n        /* \"#utility.yul\":21520:21564   */\n      add\n        /* \"#utility.yul\":21717:21719   */\n      0x20\n        /* \"#utility.yul\":21705:21715   */\n      dup6\n        /* \"#utility.yul\":21702:21720   */\n      lt\n        /* \"#utility.yul\":21699:21748   */\n      iszero\n      tag_463\n      jumpi\n        /* \"#utility.yul\":21738:21746   */\n      dup2\n        /* \"#utility.yul\":21723:21746   */\n      swap1\n      pop\n        /* \"#utility.yul\":21699:21748   */\n    tag_463:\n        /* \"#utility.yul\":21761:21841   */\n      tag_464\n        /* \"#utility.yul\":21817:21839   */\n      tag_465\n        /* \"#utility.yul\":21835:21838   */\n      dup6\n        /* \"#utility.yul\":21817:21839   */\n      tag_231\n      jump\t// in\n    tag_465:\n        /* \"#utility.yul\":21807:21815   */\n      dup4\n        /* \"#utility.yul\":21803:21840   */\n      add\n        /* \"#utility.yul\":21790:21801   */\n      dup3\n        /* \"#utility.yul\":21761:21841   */\n      tag_240\n      jump\t// in\n    tag_464:\n        /* \"#utility.yul\":21420:21851   */\n      pop\n      pop\n        /* \"#utility.yul\":21405:21851   */\n    tag_460:\n        /* \"#utility.yul\":21315:21858   */\n      pop\n      pop\n      pop\n      jump\t// out\n        /* \"#utility.yul\":21864:21981   */\n    tag_242:\n        /* \"#utility.yul\":21918:21926   */\n      0x00\n        /* \"#utility.yul\":21968:21973   */\n      dup3\n        /* \"#utility.yul\":21962:21966   */\n      dup3\n        /* \"#utility.yul\":21958:21974   */\n      shr\n        /* \"#utility.yul\":21937:21974   */\n      swap1\n      pop\n        /* \"#utility.yul\":21864:21981   */\n      swap3\n      swap2\n      pop\n      pop\n      jump\t// out\n        /* \"#utility.yul\":21987:22156   */\n    tag_243:\n        /* \"#utility.yul\":22031:22037   */\n      0x00\n        /* \"#utility.yul\":22064:22115   */\n      tag_468\n        /* \"#utility.yul\":22112:22113   */\n      0x00\n        /* \"#utility.yul\":22108:22114   */\n      not\n        /* \"#utility.yul\":22100:22105   */\n      dup5\n        /* \"#utility.yul\":22097:22098   */\n      0x08\n        /* \"#utility.yul\":22093:22106   */\n      mul\n        /* \"#utility.yul\":22064:22115   */\n      tag_242\n      jump\t// in\n    tag_468:\n        /* \"#utility.yul\":22060:22116   */\n      not\n        /* \"#utility.yul\":22145:22149   */\n      dup1\n        /* \"#utility.yul\":22139:22143   */\n      dup4\n        /* \"#utility.yul\":22135:22150   */\n      and\n        /* \"#utility.yul\":22125:22150   */\n      swap2\n      pop\n        /* \"#utility.yul\":22038:22156   */\n      pop\n        /* \"#utility.yul\":21987:22156   */\n      swap3\n      swap2\n      pop\n      pop\n      jump\t// out\n        /* \"#utility.yul\":22161:22456   */\n    tag_244:\n        /* \"#utility.yul\":22237:22241   */\n      0x00\n        /* \"#utility.yul\":22383:22412   */\n      tag_470\n        /* \"#utility.yul\":22408:22411   */\n      dup4\n        /* \"#utility.yul\":22402:22406   */\n      dup4\n        /* \"#utility.yul\":22383:22412   */\n      tag_243\n      jump\t// in\n    tag_470:\n        /* \"#utility.yul\":22375:22412   */\n      swap2\n      pop\n        /* \"#utility.yul\":22445:22448   */\n      dup3\n        /* \"#utility.yul\":22442:22443   */\n      0x02\n        /* \"#utility.yul\":22438:22449   */\n      mul\n        /* \"#utility.yul\":22432:22436   */\n      dup3\n        /* \"#utility.yul\":22429:22450   */\n      or\n        /* \"#utility.yul\":22421:22450   */\n      swap1\n      pop\n        /* \"#utility.yul\":22161:22456   */\n      swap3\n      swap2\n      pop\n      pop\n      jump\t// out\n        /* \"#utility.yul\":22461:23856   */\n    tag_174:\n        /* \"#utility.yul\":22578:22615   */\n      tag_472\n        /* \"#utility.yul\":22611:22614   */\n      dup3\n        /* \"#utility.yul\":22578:22615   */\n      tag_197\n      jump\t// in\n    tag_472:\n        /* \"#utility.yul\":22680:22698   */\n      0xffffffffffffffff\n        /* \"#utility.yul\":22672:22678   */\n      dup2\n        /* \"#utility.yul\":22669:22699   */\n      gt\n        /* \"#utility.yul\":22666:22722   */\n      iszero\n      tag_473\n      jumpi\n        /* \"#utility.yul\":22702:22720   */\n      tag_474\n      tag_100\n      jump\t// in\n    tag_474:\n        /* \"#utility.yul\":22666:22722   */\n    tag_473:\n        /* \"#utility.yul\":22746:22784   */\n      tag_475\n        /* \"#utility.yul\":22778:22782   */\n      dup3\n        /* \"#utility.yul\":22772:22783   */\n      sload\n        /* \"#utility.yul\":22746:22784   */\n      tag_86\n      jump\t// in\n    tag_475:\n        /* \"#utility.yul\":22831:22898   */\n      tag_476\n        /* \"#utility.yul\":22891:22897   */\n      dup3\n        /* \"#utility.yul\":22883:22889   */\n      dup3\n        /* \"#utility.yul\":22877:22881   */\n      dup6\n        /* \"#utility.yul\":22831:22898   */\n      tag_241\n      jump\t// in\n    tag_476:\n        /* \"#utility.yul\":22925:22926   */\n      0x00\n        /* \"#utility.yul\":22949:22953   */\n      0x20\n        /* \"#utility.yul\":22936:22953   */\n      swap1\n      pop\n        /* \"#utility.yul\":22981:22983   */\n      0x1f\n        /* \"#utility.yul\":22973:22979   */\n      dup4\n        /* \"#utility.yul\":22970:22984   */\n      gt\n        /* \"#utility.yul\":22998:22999   */\n      0x01\n        /* \"#utility.yul\":22993:23611   */\n      dup2\n      eq\n      tag_478\n      jumpi\n        /* \"#utility.yul\":23655:23656   */\n      0x00\n        /* \"#utility.yul\":23672:23678   */\n      dup5\n        /* \"#utility.yul\":23669:23746   */\n      iszero\n      tag_479\n      jumpi\n        /* \"#utility.yul\":23721:23730   */\n      dup3\n        /* \"#utility.yul\":23716:23719   */\n      dup8\n        /* \"#utility.yul\":23712:23731   */\n      add\n        /* \"#utility.yul\":23706:23732   */\n      mload\n        /* \"#utility.yul\":23697:23732   */\n      swap1\n      pop\n        /* \"#utility.yul\":23669:23746   */\n    tag_479:\n        /* \"#utility.yul\":23772:23839   */\n      tag_480\n        /* \"#utility.yul\":23832:23838   */\n      dup6\n        /* \"#utility.yul\":23825:23830   */\n      dup3\n        /* \"#utility.yul\":23772:23839   */\n      tag_244\n      jump\t// in\n    tag_480:\n        /* \"#utility.yul\":23766:23770   */\n      dup7\n        /* \"#utility.yul\":23759:23840   */\n      sstore\n        /* \"#utility.yul\":23628:23850   */\n      pop\n        /* \"#utility.yul\":22963:23850   */\n      jump(tag_477)\n        /* \"#utility.yul\":22993:23611   */\n    tag_478:\n        /* \"#utility.yul\":23045:23049   */\n      0x1f\n        /* \"#utility.yul\":23041:23050   */\n      not\n        /* \"#utility.yul\":23033:23039   */\n      dup5\n        /* \"#utility.yul\":23029:23051   */\n      and\n        /* \"#utility.yul\":23079:23116   */\n      tag_481\n        /* \"#utility.yul\":23111:23115   */\n      dup7\n        /* \"#utility.yul\":23079:23116   */\n      tag_230\n      jump\t// in\n    tag_481:\n        /* \"#utility.yul\":23138:23139   */\n      0x00\n        /* \"#utility.yul\":23152:23360   */\n    tag_482:\n        /* \"#utility.yul\":23166:23173   */\n      dup3\n        /* \"#utility.yul\":23163:23164   */\n      dup2\n        /* \"#utility.yul\":23160:23174   */\n      lt\n        /* \"#utility.yul\":23152:23360   */\n      iszero\n      tag_484\n      jumpi\n        /* \"#utility.yul\":23245:23254   */\n      dup5\n        /* \"#utility.yul\":23240:23243   */\n      dup10\n        /* \"#utility.yul\":23236:23255   */\n      add\n        /* \"#utility.yul\":23230:23256   */\n      mload\n        /* \"#utility.yul\":23222:23228   */\n      dup3\n        /* \"#utility.yul\":23215:23257   */\n      sstore\n        /* \"#utility.yul\":23296:23297   */\n      0x01\n        /* \"#utility.yul\":23288:23294   */\n      dup3\n        /* \"#utility.yul\":23284:23298   */\n      add\n        /* \"#utility.yul\":23274:23298   */\n      swap2\n      pop\n        /* \"#utility.yul\":23343:23345   */\n      0x20\n        /* \"#utility.yul\":23332:23341   */\n      dup6\n        /* \"#utility.yul\":23328:23346   */\n      add\n        /* \"#utility.yul\":23315:23346   */\n      swap5\n      pop\n        /* \"#utility.yul\":23189:23193   */\n      0x20\n        /* \"#utility.yul\":23186:23187   */\n      dup2\n        /* \"#utility.yul\":23182:23194   */\n      add\n        /* \"#utility.yul\":23177:23194   */\n      swap1\n      pop\n        /* \"#utility.yul\":23152:23360   */\n      jump(tag_482)\n    tag_484:\n        /* \"#utility.yul\":23388:23394   */\n      dup7\n        /* \"#utility.yul\":23379:23386   */\n      dup4\n        /* \"#utility.yul\":23376:23395   */\n      lt\n        /* \"#utility.yul\":23373:23552   */\n      iszero\n      tag_485\n      jumpi\n        /* \"#utility.yul\":23446:23455   */\n      dup5\n        /* \"#utility.yul\":23441:23444   */\n      dup10\n        /* \"#utility.yul\":23437:23456   */\n      add\n        /* \"#utility.yul\":23431:23457   */\n      mload\n        /* \"#utility.yul\":23489:23537   */\n      tag_486\n        /* \"#utility.yul\":23531:23535   */\n      0x1f\n        /* \"#utility.yul\":23523:23529   */\n      dup10\n        /* \"#utility.yul\":23519:23536   */\n      and\n        /* \"#utility.yul\":23508:23517   */\n      dup3\n        /* \"#utility.yul\":23489:23537   */\n      tag_243\n      jump\t// in\n    tag_486:\n        /* \"#utility.yul\":23481:23487   */\n      dup4\n        /* \"#utility.yul\":23474:23538   */\n      sstore\n        /* \"#utility.yul\":23396:23552   */\n      pop\n        /* \"#utility.yul\":23373:23552   */\n    tag_485:\n        /* \"#utility.yul\":23598:23599   */\n      0x01\n        /* \"#utility.yul\":23594:23595   */\n      0x02\n        /* \"#utility.yul\":23586:23592   */\n      dup9\n        /* \"#utility.yul\":23582:23596   */\n      mul\n        /* \"#utility.yul\":23578:23600   */\n      add\n        /* \"#utility.yul\":23572:23576   */\n      dup9\n        /* \"#utility.yul\":23565:23601   */\n      sstore\n        /* \"#utility.yul\":23000:23611   */\n      pop\n      pop\n      pop\n        /* \"#utility.yul\":22963:23850   */\n    tag_477:\n      pop\n        /* \"#utility.yul\":22553:23856   */\n      pop\n      pop\n      pop\n        /* \"#utility.yul\":22461:23856   */\n      pop\n      pop\n      jump\t// out\n        /* \"#utility.yul\":23862:24095   */\n    tag_176:\n        /* \"#utility.yul\":23901:23904   */\n      0x00\n        /* \"#utility.yul\":23924:23948   */\n      tag_488\n        /* \"#utility.yul\":23942:23947   */\n      dup3\n        /* \"#utility.yul\":23924:23948   */\n      tag_193\n      jump\t// in\n    tag_488:\n        /* \"#utility.yul\":23915:23948   */\n      swap2\n      pop\n        /* \"#utility.yul\":23970:24036   */\n      0xffffffffffffffffffffffffffffffffffffffffffffffffffffffffffffffff\n        /* \"#utility.yul\":23963:23968   */\n      dup3\n        /* \"#utility.yul\":23960:24037   */\n      sub\n        /* \"#utility.yul\":23957:24060   */\n      tag_489\n      jumpi\n        /* \"#utility.yul\":24040:24058   */\n      tag_490\n      tag_225\n      jump\t// in\n    tag_490:\n        /* \"#utility.yul\":23957:24060   */\n    tag_489:\n        /* \"#utility.yul\":24087:24088   */\n      0x01\n        /* \"#utility.yul\":24080:24085   */\n      dup3\n        /* \"#utility.yul\":24076:24089   */\n      add\n        /* \"#utility.yul\":24069:24089   */\n      swap1\n      pop\n        /* \"#utility.yul\":23862:24095   */\n      swap2\n      swap1\n      pop\n      jump\t// out\n\n    auxdata: 0xa26469706673582212208f00e3538a6720541cc9710aaa2b430296aeffdc0953ea4daca7f7cdf032fedb64736f6c634300081a0033\n}\n",
				"bytecode": {
					"linkReferences": {},
					"object": "6080604052348015600e575f80fd5b50611da38061001c5f395ff3fe608060405234801561000f575f80fd5b50600436106100e8575f3560e01c8063af22bf941161008a578063d21d159611610064578063d21d159614610280578063e8d857b01461029c578063fb46d4c5146102cf578063ff9913e8146102eb576100e8565b8063af22bf9414610218578063b88e318d14610248578063c48d6d5e14610264576100e8565b80634dc0a687116100c65780634dc0a6871461016c5780635284b64a1461019c5780639139cda5146101cc578063a9ed9cb8146101fc576100e8565b80632637588e146100ec5780633befea091461011c5780634dbf27cc14610150575b5f80fd5b61010660048036038101906101019190611197565b610307565b60405161011391906111ef565b60405180910390f35b6101366004803603810190610131919061123b565b610331565b604051610147959493929190611307565b60405180910390f35b61016a6004803603810190610165919061135f565b610441565b005b6101866004803603810190610181919061138a565b6104df565b6040516101939190611536565b60405180910390f35b6101b660048036038101906101b1919061123b565b6106e9565b6040516101c39190611536565b60405180910390f35b6101e660048036038101906101e1919061123b565b610999565b6040516101f39190611556565b60405180910390f35b6102166004803603810190610211919061135f565b6109e1565b005b610232600480360381019061022d919061123b565b610a73565b60405161023f919061156f565b60405180910390f35b610262600480360381019061025d91906116b4565b610a9e565b005b61027e60048036038101906102799190611720565b610aae565b005b61029a6004803603810190610295919061177a565b610abd565b005b6102b660048036038101906102b1919061138a565b610acb565b6040516102c694939291906117d4565b60405180910390f35b6102e960048036038101906102e4919061181e565b610b9b565b005b6103056004803603810190610300919061135f565b610ba8565b005b6003602052815f5260405f20602052805f5260405f205f915091509054906101000a900460ff1681565b6002602052815f5260405f20818154811061034a575f80fd5b905f5260205f2090600502015f9150915050805f01549080600101805461037090611892565b80601f016020809104026020016040519081016040528092919081815260200182805461039c90611892565b80156103e75780601f106103be576101008083540402835291602001916103e7565b820191905f5260205f20905b8154815290600101906020018083116103ca57829003601f168201915b505050505090806002015f9054906101000a900473ffffffffffffffffffffffffffffffffffffffff1690806003015f9054906101000a900473ffffffffffffffffffffffffffffffffffffffff16908060040154905085565b60045f3373ffffffffffffffffffffffffffffffffffffffff1673ffffffffffffffffffffffffffffffffffffffff1681526020019081526020015f2081908060018154018082558091505060019003905f5260205f20015f9091909190916101000a81548173ffffffffffffffffffffffffffffffffffffffff021916908373ffffffffffffffffffffffffffffffffffffffff16021790555050565b60605f821180156104f257506005548211155b610531576040517f08c379a00000000000000000000000000000000000000000000000000000000081526004016105289061190c565b60405180910390fd5b5f8267ffffffffffffffff81111561054c5761054b611590565b5b60405190808252806020026020018201604052801561058557816020015b6105726110f1565b81526020019060019003908161056a5790505b5090505f80846005546105989190611957565b90505b6005548110156106de575f805f8381526020019081526020015f2090506040518060800160405280825f01548152602001826001015f9054906101000a900473ffffffffffffffffffffffffffffffffffffffff1673ffffffffffffffffffffffffffffffffffffffff16815260200182600201805461061a90611892565b80601f016020809104026020016040519081016040528092919081815260200182805461064690611892565b80156106915780601f1061066857610100808354040283529160200191610691565b820191905f5260205f20905b81548152906001019060200180831161067457829003601f168201915b5050505050815260200182600301548152508484815181106106b6576106b561198a565b5b60200260200101819052506001836106ce91906119b7565b925050808060010191505061059b565b508192505050919050565b60605f8267ffffffffffffffff81111561070657610705611590565b5b60405190808252806020026020018201604052801561073f57816020015b61072c6110f1565b8152602001906001900390816107245790505b5090505f60015f8673ffffffffffffffffffffffffffffffffffffffff1673ffffffffffffffffffffffffffffffffffffffff1681526020019081526020015f208054806020026020016040519081016040528092919081815260200182805480156107c857602002820191905f5260205f20905b8154815260200190600101908083116107b4575b505050505090505f841180156107df575080518411155b61081e576040517f08c379a000000000000000000000000000000000000000000000000000000000815260040161081590611a34565b60405180910390fd5b5f8085835161082d9190611957565b90505b825181101561098c575f805f85848151811061084f5761084e61198a565b5b602002602001015181526020019081526020015f2090506040518060800160405280825f01548152602001826001015f9054906101000a900473ffffffffffffffffffffffffffffffffffffffff1673ffffffffffffffffffffffffffffffffffffffff1681526020018260020180546108c890611892565b80601f01602080910402602001604051908101604052809291908181526020018280546108f490611892565b801561093f5780601f106109165761010080835404028352916020019161093f565b820191905f5260205f20905b81548152906001019060200180831161092257829003601f168201915b5050505050815260200182600301548152508584815181106109645761096361198a565b5b602002602001018190525060018361097c91906119b7565b9250508080600101915050610830565b5082935050505092915050565b6004602052815f5260405f2081815481106109b2575f80fd5b905f5260205f20015f915091509054906101000a900473ffffffffffffffffffffffffffffffffffffffff1681565b5f60035f3373ffffffffffffffffffffffffffffffffffffffff1673ffffffffffffffffffffffffffffffffffffffff1681526020019081526020015f205f8373ffffffffffffffffffffffffffffffffffffffff1673ffffffffffffffffffffffffffffffffffffffff1681526020019081526020015f205f6101000a81548160ff02191690831515021790555050565b6001602052815f5260405f208181548110610a8c575f80fd5b905f5260205f20015f91509150505481565b610aa9838383610c3b565b505050565b610ab9338284610c3b565b5050565b610ac78282610ebf565b5050565b5f602052805f5260405f205f91509050805f015490806001015f9054906101000a900473ffffffffffffffffffffffffffffffffffffffff1690806002018054610b1490611892565b80601f0160208091040260200160405190810160405280929190818152602001828054610b4090611892565b8015610b8b5780601f10610b6257610100808354040283529160200191610b8b565b820191905f5260205f20905b815481529060010190602001808311610b6e57829003601f168201915b5050505050908060030154905084565b610ba53382610ebf565b50565b600160035f3373ffffffffffffffffffffffffffffffffffffffff1673ffffffffffffffffffffffffffffffffffffffff1681526020019081526020015f205f8373ffffffffffffffffffffffffffffffffffffffff1673ffffffffffffffffffffffffffffffffffffffff1681526020019081526020015f205f6101000a81548160ff02191690831515021790555050565b3373ffffffffffffffffffffffffffffffffffffffff168373ffffffffffffffffffffffffffffffffffffffff161480610cf6575060035f8473ffffffffffffffffffffffffffffffffffffffff1673ffffffffffffffffffffffffffffffffffffffff1681526020019081526020015f205f3373ffffffffffffffffffffffffffffffffffffffff1673ffffffffffffffffffffffffffffffffffffffff1681526020019081526020015f205f9054906101000a900460ff165b610d35576040517f08c379a0000000000000000000000000000000000000000000000000000000008152600401610d2c90611a9c565b60405180910390fd5b60025f8473ffffffffffffffffffffffffffffffffffffffff1673ffffffffffffffffffffffffffffffffffffffff1681526020019081526020015f206040518060a0016040528060065481526020018381526020018573ffffffffffffffffffffffffffffffffffffffff1681526020018473ffffffffffffffffffffffffffffffffffffffff16815260200142815250908060018154018082558091505060019003905f5260205f2090600502015f909190919091505f820151815f01556020820151816001019081610e0a9190611c57565b506040820151816002015f6101000a81548173ffffffffffffffffffffffffffffffffffffffff021916908373ffffffffffffffffffffffffffffffffffffffff1602179055506060820151816003015f6101000a81548173ffffffffffffffffffffffffffffffffffffffff021916908373ffffffffffffffffffffffffffffffffffffffff16021790555060808201518160040155505060065f815480929190610eb590611d26565b9190505550505050565b3373ffffffffffffffffffffffffffffffffffffffff168273ffffffffffffffffffffffffffffffffffffffff161480610f7a575060035f8373ffffffffffffffffffffffffffffffffffffffff1673ffffffffffffffffffffffffffffffffffffffff1681526020019081526020015f205f3373ffffffffffffffffffffffffffffffffffffffff1673ffffffffffffffffffffffffffffffffffffffff1681526020019081526020015f205f9054906101000a900460ff165b610fb9576040517f08c379a0000000000000000000000000000000000000000000000000000000008152600401610fb090611a9c565b60405180910390fd5b604051806080016040528060055481526020018373ffffffffffffffffffffffffffffffffffffffff168152602001828152602001428152505f8060055481526020019081526020015f205f820151815f01556020820151816001015f6101000a81548173ffffffffffffffffffffffffffffffffffffffff021916908373ffffffffffffffffffffffffffffffffffffffff16021790555060408201518160020190816110679190611c57565b506060820151816003015590505060015f8373ffffffffffffffffffffffffffffffffffffffff1673ffffffffffffffffffffffffffffffffffffffff1681526020019081526020015f20600554908060018154018082558091505060019003905f5260205f20015f909190919091505560016005546110e791906119b7565b6005819055505050565b60405180608001604052805f81526020015f73ffffffffffffffffffffffffffffffffffffffff168152602001606081526020015f81525090565b5f604051905090565b5f80fd5b5f80fd5b5f73ffffffffffffffffffffffffffffffffffffffff82169050919050565b5f6111668261113d565b9050919050565b6111768161115c565b8114611180575f80fd5b50565b5f813590506111918161116d565b92915050565b5f80604083850312156111ad576111ac611135565b5b5f6111ba85828601611183565b92505060206111cb85828601611183565b9150509250929050565b5f8115159050919050565b6111e9816111d5565b82525050565b5f6020820190506112025f8301846111e0565b92915050565b5f819050919050565b61121a81611208565b8114611224575f80fd5b50565b5f8135905061123581611211565b92915050565b5f806040838503121561125157611250611135565b5b5f61125e85828601611183565b925050602061126f85828601611227565b9150509250929050565b61128281611208565b82525050565b5f81519050919050565b5f82825260208201905092915050565b8281835e5f83830152505050565b5f601f19601f8301169050919050565b5f6112ca82611288565b6112d48185611292565b93506112e48185602086016112a2565b6112ed816112b0565b840191505092915050565b6113018161115c565b82525050565b5f60a08201905061131a5f830188611279565b818103602083015261132c81876112c0565b905061133b60408301866112f8565b61134860608301856112f8565b6113556080830184611279565b9695505050505050565b5f6020828403121561137457611373611135565b5b5f61138184828501611183565b91505092915050565b5f6020828403121561139f5761139e611135565b5b5f6113ac84828501611227565b91505092915050565b5f81519050919050565b5f82825260208201905092915050565b5f819050602082019050919050565b6113e781611208565b82525050565b6113f68161115c565b82525050565b5f82825260208201905092915050565b5f61141682611288565b61142081856113fc565b93506114308185602086016112a2565b611439816112b0565b840191505092915050565b5f608083015f8301516114595f8601826113de565b50602083015161146c60208601826113ed565b5060408301518482036040860152611484828261140c565b915050606083015161149960608601826113de565b508091505092915050565b5f6114af8383611444565b905092915050565b5f602082019050919050565b5f6114cd826113b5565b6114d781856113bf565b9350836020820285016114e9856113cf565b805f5b85811015611524578484038952815161150585826114a4565b9450611510836114b7565b925060208a019950506001810190506114ec565b50829750879550505050505092915050565b5f6020820190508181035f83015261154e81846114c3565b905092915050565b5f6020820190506115695f8301846112f8565b92915050565b5f6020820190506115825f830184611279565b92915050565b5f80fd5b5f80fd5b7f4e487b71000000000000000000000000000000000000000000000000000000005f52604160045260245ffd5b6115c6826112b0565b810181811067ffffffffffffffff821117156115e5576115e4611590565b5b80604052505050565b5f6115f761112c565b905061160382826115bd565b919050565b5f67ffffffffffffffff82111561162257611621611590565b5b61162b826112b0565b9050602081019050919050565b828183375f83830152505050565b5f61165861165384611608565b6115ee565b9050828152602081018484840111156116745761167361158c565b5b61167f848285611638565b509392505050565b5f82601f83011261169b5761169a611588565b5b81356116ab848260208601611646565b91505092915050565b5f805f606084860312156116cb576116ca611135565b5b5f6116d886828701611183565b93505060206116e986828701611183565b925050604084013567ffffffffffffffff81111561170a57611709611139565b5b61171686828701611687565b9150509250925092565b5f806040838503121561173657611735611135565b5b5f83013567ffffffffffffffff81111561175357611752611139565b5b61175f85828601611687565b925050602061177085828601611183565b9150509250929050565b5f80604083850312156117905761178f611135565b5b5f61179d85828601611183565b925050602083013567ffffffffffffffff8111156117be576117bd611139565b5b6117ca85828601611687565b9150509250929050565b5f6080820190506117e75f830187611279565b6117f460208301866112f8565b818103604083015261180681856112c0565b90506118156060830184611279565b95945050505050565b5f6020828403121561183357611832611135565b5b5f82013567ffffffffffffffff8111156118505761184f611139565b5b61185c84828501611687565b91505092915050565b7f4e487b71000000000000000000000000000000000000000000000000000000005f52602260045260245ffd5b5f60028204905060018216806118a957607f821691505b6020821081036118bc576118bb611865565b5b50919050565b7f436f756e74206973206e6f742070726f706572000000000000000000000000005f82015250565b5f6118f6601383611292565b9150611901826118c2565b602082019050919050565b5f6020820190508181035f830152611923816118ea565b9050919050565b7f4e487b71000000000000000000000000000000000000000000000000000000005f52601160045260245ffd5b5f61196182611208565b915061196c83611208565b92508282039050818111156119845761198361192a565b5b92915050565b7f4e487b71000000000000000000000000000000000000000000000000000000005f52603260045260245ffd5b5f6119c182611208565b91506119cc83611208565b92508282019050808211156119e4576119e361192a565b5b92915050565b7f436f756e74206973206e6f7420646566696e65640000000000000000000000005f82015250565b5f611a1e601483611292565b9150611a29826119ea565b602082019050919050565b5f6020820190508181035f830152611a4b81611a12565b9050919050565b7f596f7520646f6e277420686176652061636365737300000000000000000000005f82015250565b5f611a86601583611292565b9150611a9182611a52565b602082019050919050565b5f6020820190508181035f830152611ab381611a7a565b9050919050565b5f819050815f5260205f209050919050565b5f6020601f8301049050919050565b5f82821b905092915050565b5f60088302611b167fffffffffffffffffffffffffffffffffffffffffffffffffffffffffffffffff82611adb565b611b208683611adb565b95508019841693508086168417925050509392505050565b5f819050919050565b5f611b5b611b56611b5184611208565b611b38565b611208565b9050919050565b5f819050919050565b611b7483611b41565b611b88611b8082611b62565b848454611ae7565b825550505050565b5f90565b611b9c611b90565b611ba7818484611b6b565b505050565b5b81811015611bca57611bbf5f82611b94565b600181019050611bad565b5050565b601f821115611c0f57611be081611aba565b611be984611acc565b81016020851015611bf8578190505b611c0c611c0485611acc565b830182611bac565b50505b505050565b5f82821c905092915050565b5f611c2f5f1984600802611c14565b1980831691505092915050565b5f611c478383611c20565b9150826002028217905092915050565b611c6082611288565b67ffffffffffffffff811115611c7957611c78611590565b5b611c838254611892565b611c8e828285611bce565b5f60209050601f831160018114611cbf575f8415611cad578287015190505b611cb78582611c3c565b865550611d1e565b601f198416611ccd86611aba565b5f5b82811015611cf457848901518255600182019150602085019450602081019050611ccf565b86831015611d115784890151611d0d601f891682611c20565b8355505b6001600288020188555050505b505050505050565b5f611d3082611208565b91507fffffffffffffffffffffffffffffffffffffffffffffffffffffffffffffffff8203611d6257611d6161192a565b5b60018201905091905056fea26469706673582212208f00e3538a6720541cc9710aaa2b430296aeffdc0953ea4daca7f7cdf032fedb64736f6c634300081a0033",
					"opcodes": "PUSH1 0x80 PUSH1 0x40 MSTORE CALLVALUE DUP1 ISZERO PUSH1 0xE JUMPI PUSH0 DUP1 REVERT JUMPDEST POP PUSH2 0x1DA3 DUP1 PUSH2 0x1C PUSH0 CODECOPY PUSH0 RETURN INVALID PUSH1 0x80 PUSH1 0x40 MSTORE CALLVALUE DUP1 ISZERO PUSH2 0xF JUMPI PUSH0 DUP1 REVERT JUMPDEST POP PUSH1 0x4 CALLDATASIZE LT PUSH2 0xE8 JUMPI PUSH0 CALLDATALOAD PUSH1 0xE0 SHR DUP1 PUSH4 0xAF22BF94 GT PUSH2 0x8A JUMPI DUP1 PUSH4 0xD21D1596 GT PUSH2 0x64 JUMPI DUP1 PUSH4 0xD21D1596 EQ PUSH2 0x280 JUMPI DUP1 PUSH4 0xE8D857B0 EQ PUSH2 0x29C JUMPI DUP1 PUSH4 0xFB46D4C5 EQ PUSH2 0x2CF JUMPI DUP1 PUSH4 0xFF9913E8 EQ PUSH2 0x2EB JUMPI PUSH2 0xE8 JUMP JUMPDEST DUP1 PUSH4 0xAF22BF94 EQ PUSH2 0x218 JUMPI DUP1 PUSH4 0xB88E318D EQ PUSH2 0x248 JUMPI DUP1 PUSH4 0xC48D6D5E EQ PUSH2 0x264 JUMPI PUSH2 0xE8 JUMP JUMPDEST DUP1 PUSH4 0x4DC0A687 GT PUSH2 0xC6 JUMPI DUP1 PUSH4 0x4DC0A687 EQ PUSH2 0x16C JUMPI DUP1 PUSH4 0x5284B64A EQ PUSH2 0x19C JUMPI DUP1 PUSH4 0x9139CDA5 EQ PUSH2 0x1CC JUMPI DUP1 PUSH4 0xA9ED9CB8 EQ PUSH2 0x1FC JUMPI PUSH2 0xE8 JUMP JUMPDEST DUP1 PUSH4 0x2637588E EQ PUSH2 0xEC JUMPI DUP1 PUSH4 0x3BEFEA09 EQ PUSH2 0x11C JUMPI DUP1 PUSH4 0x4DBF27CC EQ PUSH2 0x150 JUMPI JUMPDEST PUSH0 DUP1 REVERT JUMPDEST PUSH2 0x106 PUSH1 0x4 DUP1 CALLDATASIZE SUB DUP2 ADD SWAP1 PUSH2 0x101 SWAP2 SWAP1 PUSH2 0x1197 JUMP JUMPDEST PUSH2 0x307 JUMP JUMPDEST PUSH1 0x40 MLOAD PUSH2 0x113 SWAP2 SWAP1 PUSH2 0x11EF JUMP JUMPDEST PUSH1 0x40 MLOAD DUP1 SWAP2 SUB SWAP1 RETURN JUMPDEST PUSH2 0x136 PUSH1 0x4 DUP1 CALLDATASIZE SUB DUP2 ADD SWAP1 PUSH2 0x131 SWAP2 SWAP1 PUSH2 0x123B JUMP JUMPDEST PUSH2 0x331 JUMP JUMPDEST PUSH1 0x40 MLOAD PUSH2 0x147 SWAP6 SWAP5 SWAP4 SWAP3 SWAP2 SWAP1 PUSH2 0x1307 JUMP JUMPDEST PUSH1 0x40 MLOAD DUP1 SWAP2 SUB SWAP1 RETURN JUMPDEST PUSH2 0x16A PUSH1 0x4 DUP1 CALLDATASIZE SUB DUP2 ADD SWAP1 PUSH2 0x165 SWAP2 SWAP1 PUSH2 0x135F JUMP JUMPDEST PUSH2 0x441 JUMP JUMPDEST STOP JUMPDEST PUSH2 0x186 PUSH1 0x4 DUP1 CALLDATASIZE SUB DUP2 ADD SWAP1 PUSH2 0x181 SWAP2 SWAP1 PUSH2 0x138A JUMP JUMPDEST PUSH2 0x4DF JUMP JUMPDEST PUSH1 0x40 MLOAD PUSH2 0x193 SWAP2 SWAP1 PUSH2 0x1536 JUMP JUMPDEST PUSH1 0x40 MLOAD DUP1 SWAP2 SUB SWAP1 RETURN JUMPDEST PUSH2 0x1B6 PUSH1 0x4 DUP1 CALLDATASIZE SUB DUP2 ADD SWAP1 PUSH2 0x1B1 SWAP2 SWAP1 PUSH2 0x123B JUMP JUMPDEST PUSH2 0x6E9 JUMP JUMPDEST PUSH1 0x40 MLOAD PUSH2 0x1C3 SWAP2 SWAP1 PUSH2 0x1536 JUMP JUMPDEST PUSH1 0x40 MLOAD DUP1 SWAP2 SUB SWAP1 RETURN JUMPDEST PUSH2 0x1E6 PUSH1 0x4 DUP1 CALLDATASIZE SUB DUP2 ADD SWAP1 PUSH2 0x1E1 SWAP2 SWAP1 PUSH2 0x123B JUMP JUMPDEST PUSH2 0x999 JUMP JUMPDEST PUSH1 0x40 MLOAD PUSH2 0x1F3 SWAP2 SWAP1 PUSH2 0x1556 JUMP JUMPDEST PUSH1 0x40 MLOAD DUP1 SWAP2 SUB SWAP1 RETURN JUMPDEST PUSH2 0x216 PUSH1 0x4 DUP1 CALLDATASIZE SUB DUP2 ADD SWAP1 PUSH2 0x211 SWAP2 SWAP1 PUSH2 0x135F JUMP JUMPDEST PUSH2 0x9E1 JUMP JUMPDEST STOP JUMPDEST PUSH2 0x232 PUSH1 0x4 DUP1 CALLDATASIZE SUB DUP2 ADD SWAP1 PUSH2 0x22D SWAP2 SWAP1 PUSH2 0x123B JUMP JUMPDEST PUSH2 0xA73 JUMP JUMPDEST PUSH1 0x40 MLOAD PUSH2 0x23F SWAP2 SWAP1 PUSH2 0x156F JUMP JUMPDEST PUSH1 0x40 MLOAD DUP1 SWAP2 SUB SWAP1 RETURN JUMPDEST PUSH2 0x262 PUSH1 0x4 DUP1 CALLDATASIZE SUB DUP2 ADD SWAP1 PUSH2 0x25D SWAP2 SWAP1 PUSH2 0x16B4 JUMP JUMPDEST PUSH2 0xA9E JUMP JUMPDEST STOP JUMPDEST PUSH2 0x27E PUSH1 0x4 DUP1 CALLDATASIZE SUB DUP2 ADD SWAP1 PUSH2 0x279 SWAP2 SWAP1 PUSH2 0x1720 JUMP JUMPDEST PUSH2 0xAAE JUMP JUMPDEST STOP JUMPDEST PUSH2 0x29A PUSH1 0x4 DUP1 CALLDATASIZE SUB DUP2 ADD SWAP1 PUSH2 0x295 SWAP2 SWAP1 PUSH2 0x177A JUMP JUMPDEST PUSH2 0xABD JUMP JUMPDEST STOP JUMPDEST PUSH2 0x2B6 PUSH1 0x4 DUP1 CALLDATASIZE SUB DUP2 ADD SWAP1 PUSH2 0x2B1 SWAP2 SWAP1 PUSH2 0x138A JUMP JUMPDEST PUSH2 0xACB JUMP JUMPDEST PUSH1 0x40 MLOAD PUSH2 0x2C6 SWAP5 SWAP4 SWAP3 SWAP2 SWAP1 PUSH2 0x17D4 JUMP JUMPDEST PUSH1 0x40 MLOAD DUP1 SWAP2 SUB SWAP1 RETURN JUMPDEST PUSH2 0x2E9 PUSH1 0x4 DUP1 CALLDATASIZE SUB DUP2 ADD SWAP1 PUSH2 0x2E4 SWAP2 SWAP1 PUSH2 0x181E JUMP JUMPDEST PUSH2 0xB9B JUMP JUMPDEST STOP JUMPDEST PUSH2 0x305 PUSH1 0x4 DUP1 CALLDATASIZE SUB DUP2 ADD SWAP1 PUSH2 0x300 SWAP2 SWAP1 PUSH2 0x135F JUMP JUMPDEST PUSH2 0xBA8 JUMP JUMPDEST STOP JUMPDEST PUSH1 0x3 PUSH1 0x20 MSTORE DUP2 PUSH0 MSTORE PUSH1 0x40 PUSH0 KECCAK256 PUSH1 0x20 MSTORE DUP1 PUSH0 MSTORE PUSH1 0x40 PUSH0 KECCAK256 PUSH0 SWAP2 POP SWAP2 POP SWAP1 SLOAD SWAP1 PUSH2 0x100 EXP SWAP1 DIV PUSH1 0xFF AND DUP2 JUMP JUMPDEST PUSH1 0x2 PUSH1 0x20 MSTORE DUP2 PUSH0 MSTORE PUSH1 0x40 PUSH0 KECCAK256 DUP2 DUP2 SLOAD DUP2 LT PUSH2 0x34A JUMPI PUSH0 DUP1 REVERT JUMPDEST SWAP1 PUSH0 MSTORE PUSH1 0x20 PUSH0 KECCAK256 SWAP1 PUSH1 0x5 MUL ADD PUSH0 SWAP2 POP SWAP2 POP POP DUP1 PUSH0 ADD SLOAD SWAP1 DUP1 PUSH1 0x1 ADD DUP1 SLOAD PUSH2 0x370 SWAP1 PUSH2 0x1892 JUMP JUMPDEST DUP1 PUSH1 0x1F ADD PUSH1 0x20 DUP1 SWAP2 DIV MUL PUSH1 0x20 ADD PUSH1 0x40 MLOAD SWAP1 DUP2 ADD PUSH1 0x40 MSTORE DUP1 SWAP3 SWAP2 SWAP1 DUP2 DUP2 MSTORE PUSH1 0x20 ADD DUP3 DUP1 SLOAD PUSH2 0x39C SWAP1 PUSH2 0x1892 JUMP JUMPDEST DUP1 ISZERO PUSH2 0x3E7 JUMPI DUP1 PUSH1 0x1F LT PUSH2 0x3BE JUMPI PUSH2 0x100 DUP1 DUP4 SLOAD DIV MUL DUP4 MSTORE SWAP2 PUSH1 0x20 ADD SWAP2 PUSH2 0x3E7 JUMP JUMPDEST DUP3 ADD SWAP2 SWAP1 PUSH0 MSTORE PUSH1 0x20 PUSH0 KECCAK256 SWAP1 JUMPDEST DUP2 SLOAD DUP2 MSTORE SWAP1 PUSH1 0x1 ADD SWAP1 PUSH1 0x20 ADD DUP1 DUP4 GT PUSH2 0x3CA JUMPI DUP3 SWAP1 SUB PUSH1 0x1F AND DUP3 ADD SWAP2 JUMPDEST POP POP POP POP POP SWAP1 DUP1 PUSH1 0x2 ADD PUSH0 SWAP1 SLOAD SWAP1 PUSH2 0x100 EXP SWAP1 DIV PUSH20 0xFFFFFFFFFFFFFFFFFFFFFFFFFFFFFFFFFFFFFFFF AND SWAP1 DUP1 PUSH1 0x3 ADD PUSH0 SWAP1 SLOAD SWAP1 PUSH2 0x100 EXP SWAP1 DIV PUSH20 0xFFFFFFFFFFFFFFFFFFFFFFFFFFFFFFFFFFFFFFFF AND SWAP1 DUP1 PUSH1 0x4 ADD SLOAD SWAP1 POP DUP6 JUMP JUMPDEST PUSH1 0x4 PUSH0 CALLER PUSH20 0xFFFFFFFFFFFFFFFFFFFFFFFFFFFFFFFFFFFFFFFF AND PUSH20 0xFFFFFFFFFFFFFFFFFFFFFFFFFFFFFFFFFFFFFFFF AND DUP2 MSTORE PUSH1 0x20 ADD SWAP1 DUP2 MSTORE PUSH1 0x20 ADD PUSH0 KECCAK256 DUP2 SWAP1 DUP1 PUSH1 0x1 DUP2 SLOAD ADD DUP1 DUP3 SSTORE DUP1 SWAP2 POP POP PUSH1 0x1 SWAP1 SUB SWAP1 PUSH0 MSTORE PUSH1 0x20 PUSH0 KECCAK256 ADD PUSH0 SWAP1 SWAP2 SWAP1 SWAP2 SWAP1 SWAP2 PUSH2 0x100 EXP DUP2 SLOAD DUP2 PUSH20 0xFFFFFFFFFFFFFFFFFFFFFFFFFFFFFFFFFFFFFFFF MUL NOT AND SWAP1 DUP4 PUSH20 0xFFFFFFFFFFFFFFFFFFFFFFFFFFFFFFFFFFFFFFFF AND MUL OR SWAP1 SSTORE POP POP JUMP JUMPDEST PUSH1 0x60 PUSH0 DUP3 GT DUP1 ISZERO PUSH2 0x4F2 JUMPI POP PUSH1 0x5 SLOAD DUP3 GT ISZERO JUMPDEST PUSH2 0x531 JUMPI PUSH1 0x40 MLOAD PUSH32 0x8C379A000000000000000000000000000000000000000000000000000000000 DUP2 MSTORE PUSH1 0x4 ADD PUSH2 0x528 SWAP1 PUSH2 0x190C JUMP JUMPDEST PUSH1 0x40 MLOAD DUP1 SWAP2 SUB SWAP1 REVERT JUMPDEST PUSH0 DUP3 PUSH8 0xFFFFFFFFFFFFFFFF DUP2 GT ISZERO PUSH2 0x54C JUMPI PUSH2 0x54B PUSH2 0x1590 JUMP JUMPDEST JUMPDEST PUSH1 0x40 MLOAD SWAP1 DUP1 DUP3 MSTORE DUP1 PUSH1 0x20 MUL PUSH1 0x20 ADD DUP3 ADD PUSH1 0x40 MSTORE DUP1 ISZERO PUSH2 0x585 JUMPI DUP2 PUSH1 0x20 ADD JUMPDEST PUSH2 0x572 PUSH2 0x10F1 JUMP JUMPDEST DUP2 MSTORE PUSH1 0x20 ADD SWAP1 PUSH1 0x1 SWAP1 SUB SWAP1 DUP2 PUSH2 0x56A JUMPI SWAP1 POP JUMPDEST POP SWAP1 POP PUSH0 DUP1 DUP5 PUSH1 0x5 SLOAD PUSH2 0x598 SWAP2 SWAP1 PUSH2 0x1957 JUMP JUMPDEST SWAP1 POP JUMPDEST PUSH1 0x5 SLOAD DUP2 LT ISZERO PUSH2 0x6DE JUMPI PUSH0 DUP1 PUSH0 DUP4 DUP2 MSTORE PUSH1 0x20 ADD SWAP1 DUP2 MSTORE PUSH1 0x20 ADD PUSH0 KECCAK256 SWAP1 POP PUSH1 0x40 MLOAD DUP1 PUSH1 0x80 ADD PUSH1 0x40 MSTORE DUP1 DUP3 PUSH0 ADD SLOAD DUP2 MSTORE PUSH1 0x20 ADD DUP3 PUSH1 0x1 ADD PUSH0 SWAP1 SLOAD SWAP1 PUSH2 0x100 EXP SWAP1 DIV PUSH20 0xFFFFFFFFFFFFFFFFFFFFFFFFFFFFFFFFFFFFFFFF AND PUSH20 0xFFFFFFFFFFFFFFFFFFFFFFFFFFFFFFFFFFFFFFFF AND DUP2 MSTORE PUSH1 0x20 ADD DUP3 PUSH1 0x2 ADD DUP1 SLOAD PUSH2 0x61A SWAP1 PUSH2 0x1892 JUMP JUMPDEST DUP1 PUSH1 0x1F ADD PUSH1 0x20 DUP1 SWAP2 DIV MUL PUSH1 0x20 ADD PUSH1 0x40 MLOAD SWAP1 DUP2 ADD PUSH1 0x40 MSTORE DUP1 SWAP3 SWAP2 SWAP1 DUP2 DUP2 MSTORE PUSH1 0x20 ADD DUP3 DUP1 SLOAD PUSH2 0x646 SWAP1 PUSH2 0x1892 JUMP JUMPDEST DUP1 ISZERO PUSH2 0x691 JUMPI DUP1 PUSH1 0x1F LT PUSH2 0x668 JUMPI PUSH2 0x100 DUP1 DUP4 SLOAD DIV MUL DUP4 MSTORE SWAP2 PUSH1 0x20 ADD SWAP2 PUSH2 0x691 JUMP JUMPDEST DUP3 ADD SWAP2 SWAP1 PUSH0 MSTORE PUSH1 0x20 PUSH0 KECCAK256 SWAP1 JUMPDEST DUP2 SLOAD DUP2 MSTORE SWAP1 PUSH1 0x1 ADD SWAP1 PUSH1 0x20 ADD DUP1 DUP4 GT PUSH2 0x674 JUMPI DUP3 SWAP1 SUB PUSH1 0x1F AND DUP3 ADD SWAP2 JUMPDEST POP POP POP POP POP DUP2 MSTORE PUSH1 0x20 ADD DUP3 PUSH1 0x3 ADD SLOAD DUP2 MSTORE POP DUP5 DUP5 DUP2 MLOAD DUP2 LT PUSH2 0x6B6 JUMPI PUSH2 0x6B5 PUSH2 0x198A JUMP JUMPDEST JUMPDEST PUSH1 0x20 MUL PUSH1 0x20 ADD ADD DUP2 SWAP1 MSTORE POP PUSH1 0x1 DUP4 PUSH2 0x6CE SWAP2 SWAP1 PUSH2 0x19B7 JUMP JUMPDEST SWAP3 POP POP DUP1 DUP1 PUSH1 0x1 ADD SWAP2 POP POP PUSH2 0x59B JUMP JUMPDEST POP DUP2 SWAP3 POP POP POP SWAP2 SWAP1 POP JUMP JUMPDEST PUSH1 0x60 PUSH0 DUP3 PUSH8 0xFFFFFFFFFFFFFFFF DUP2 GT ISZERO PUSH2 0x706 JUMPI PUSH2 0x705 PUSH2 0x1590 JUMP JUMPDEST JUMPDEST PUSH1 0x40 MLOAD SWAP1 DUP1 DUP3 MSTORE DUP1 PUSH1 0x20 MUL PUSH1 0x20 ADD DUP3 ADD PUSH1 0x40 MSTORE DUP1 ISZERO PUSH2 0x73F JUMPI DUP2 PUSH1 0x20 ADD JUMPDEST PUSH2 0x72C PUSH2 0x10F1 JUMP JUMPDEST DUP2 MSTORE PUSH1 0x20 ADD SWAP1 PUSH1 0x1 SWAP1 SUB SWAP1 DUP2 PUSH2 0x724 JUMPI SWAP1 POP JUMPDEST POP SWAP1 POP PUSH0 PUSH1 0x1 PUSH0 DUP7 PUSH20 0xFFFFFFFFFFFFFFFFFFFFFFFFFFFFFFFFFFFFFFFF AND PUSH20 0xFFFFFFFFFFFFFFFFFFFFFFFFFFFFFFFFFFFFFFFF AND DUP2 MSTORE PUSH1 0x20 ADD SWAP1 DUP2 MSTORE PUSH1 0x20 ADD PUSH0 KECCAK256 DUP1 SLOAD DUP1 PUSH1 0x20 MUL PUSH1 0x20 ADD PUSH1 0x40 MLOAD SWAP1 DUP2 ADD PUSH1 0x40 MSTORE DUP1 SWAP3 SWAP2 SWAP1 DUP2 DUP2 MSTORE PUSH1 0x20 ADD DUP3 DUP1 SLOAD DUP1 ISZERO PUSH2 0x7C8 JUMPI PUSH1 0x20 MUL DUP3 ADD SWAP2 SWAP1 PUSH0 MSTORE PUSH1 0x20 PUSH0 KECCAK256 SWAP1 JUMPDEST DUP2 SLOAD DUP2 MSTORE PUSH1 0x20 ADD SWAP1 PUSH1 0x1 ADD SWAP1 DUP1 DUP4 GT PUSH2 0x7B4 JUMPI JUMPDEST POP POP POP POP POP SWAP1 POP PUSH0 DUP5 GT DUP1 ISZERO PUSH2 0x7DF JUMPI POP DUP1 MLOAD DUP5 GT ISZERO JUMPDEST PUSH2 0x81E JUMPI PUSH1 0x40 MLOAD PUSH32 0x8C379A000000000000000000000000000000000000000000000000000000000 DUP2 MSTORE PUSH1 0x4 ADD PUSH2 0x815 SWAP1 PUSH2 0x1A34 JUMP JUMPDEST PUSH1 0x40 MLOAD DUP1 SWAP2 SUB SWAP1 REVERT JUMPDEST PUSH0 DUP1 DUP6 DUP4 MLOAD PUSH2 0x82D SWAP2 SWAP1 PUSH2 0x1957 JUMP JUMPDEST SWAP1 POP JUMPDEST DUP3 MLOAD DUP2 LT ISZERO PUSH2 0x98C JUMPI PUSH0 DUP1 PUSH0 DUP6 DUP5 DUP2 MLOAD DUP2 LT PUSH2 0x84F JUMPI PUSH2 0x84E PUSH2 0x198A JUMP JUMPDEST JUMPDEST PUSH1 0x20 MUL PUSH1 0x20 ADD ADD MLOAD DUP2 MSTORE PUSH1 0x20 ADD SWAP1 DUP2 MSTORE PUSH1 0x20 ADD PUSH0 KECCAK256 SWAP1 POP PUSH1 0x40 MLOAD DUP1 PUSH1 0x80 ADD PUSH1 0x40 MSTORE DUP1 DUP3 PUSH0 ADD SLOAD DUP2 MSTORE PUSH1 0x20 ADD DUP3 PUSH1 0x1 ADD PUSH0 SWAP1 SLOAD SWAP1 PUSH2 0x100 EXP SWAP1 DIV PUSH20 0xFFFFFFFFFFFFFFFFFFFFFFFFFFFFFFFFFFFFFFFF AND PUSH20 0xFFFFFFFFFFFFFFFFFFFFFFFFFFFFFFFFFFFFFFFF AND DUP2 MSTORE PUSH1 0x20 ADD DUP3 PUSH1 0x2 ADD DUP1 SLOAD PUSH2 0x8C8 SWAP1 PUSH2 0x1892 JUMP JUMPDEST DUP1 PUSH1 0x1F ADD PUSH1 0x20 DUP1 SWAP2 DIV MUL PUSH1 0x20 ADD PUSH1 0x40 MLOAD SWAP1 DUP2 ADD PUSH1 0x40 MSTORE DUP1 SWAP3 SWAP2 SWAP1 DUP2 DUP2 MSTORE PUSH1 0x20 ADD DUP3 DUP1 SLOAD PUSH2 0x8F4 SWAP1 PUSH2 0x1892 JUMP JUMPDEST DUP1 ISZERO PUSH2 0x93F JUMPI DUP1 PUSH1 0x1F LT PUSH2 0x916 JUMPI PUSH2 0x100 DUP1 DUP4 SLOAD DIV MUL DUP4 MSTORE SWAP2 PUSH1 0x20 ADD SWAP2 PUSH2 0x93F JUMP JUMPDEST DUP3 ADD SWAP2 SWAP1 PUSH0 MSTORE PUSH1 0x20 PUSH0 KECCAK256 SWAP1 JUMPDEST DUP2 SLOAD DUP2 MSTORE SWAP1 PUSH1 0x1 ADD SWAP1 PUSH1 0x20 ADD DUP1 DUP4 GT PUSH2 0x922 JUMPI DUP3 SWAP1 SUB PUSH1 0x1F AND DUP3 ADD SWAP2 JUMPDEST POP POP POP POP POP DUP2 MSTORE PUSH1 0x20 ADD DUP3 PUSH1 0x3 ADD SLOAD DUP2 MSTORE POP DUP6 DUP5 DUP2 MLOAD DUP2 LT PUSH2 0x964 JUMPI PUSH2 0x963 PUSH2 0x198A JUMP JUMPDEST JUMPDEST PUSH1 0x20 MUL PUSH1 0x20 ADD ADD DUP2 SWAP1 MSTORE POP PUSH1 0x1 DUP4 PUSH2 0x97C SWAP2 SWAP1 PUSH2 0x19B7 JUMP JUMPDEST SWAP3 POP POP DUP1 DUP1 PUSH1 0x1 ADD SWAP2 POP POP PUSH2 0x830 JUMP JUMPDEST POP DUP3 SWAP4 POP POP POP POP SWAP3 SWAP2 POP POP JUMP JUMPDEST PUSH1 0x4 PUSH1 0x20 MSTORE DUP2 PUSH0 MSTORE PUSH1 0x40 PUSH0 KECCAK256 DUP2 DUP2 SLOAD DUP2 LT PUSH2 0x9B2 JUMPI PUSH0 DUP1 REVERT JUMPDEST SWAP1 PUSH0 MSTORE PUSH1 0x20 PUSH0 KECCAK256 ADD PUSH0 SWAP2 POP SWAP2 POP SWAP1 SLOAD SWAP1 PUSH2 0x100 EXP SWAP1 DIV PUSH20 0xFFFFFFFFFFFFFFFFFFFFFFFFFFFFFFFFFFFFFFFF AND DUP2 JUMP JUMPDEST PUSH0 PUSH1 0x3 PUSH0 CALLER PUSH20 0xFFFFFFFFFFFFFFFFFFFFFFFFFFFFFFFFFFFFFFFF AND PUSH20 0xFFFFFFFFFFFFFFFFFFFFFFFFFFFFFFFFFFFFFFFF AND DUP2 MSTORE PUSH1 0x20 ADD SWAP1 DUP2 MSTORE PUSH1 0x20 ADD PUSH0 KECCAK256 PUSH0 DUP4 PUSH20 0xFFFFFFFFFFFFFFFFFFFFFFFFFFFFFFFFFFFFFFFF AND PUSH20 0xFFFFFFFFFFFFFFFFFFFFFFFFFFFFFFFFFFFFFFFF AND DUP2 MSTORE PUSH1 0x20 ADD SWAP1 DUP2 MSTORE PUSH1 0x20 ADD PUSH0 KECCAK256 PUSH0 PUSH2 0x100 EXP DUP2 SLOAD DUP2 PUSH1 0xFF MUL NOT AND SWAP1 DUP4 ISZERO ISZERO MUL OR SWAP1 SSTORE POP POP JUMP JUMPDEST PUSH1 0x1 PUSH1 0x20 MSTORE DUP2 PUSH0 MSTORE PUSH1 0x40 PUSH0 KECCAK256 DUP2 DUP2 SLOAD DUP2 LT PUSH2 0xA8C JUMPI PUSH0 DUP1 REVERT JUMPDEST SWAP1 PUSH0 MSTORE PUSH1 0x20 PUSH0 KECCAK256 ADD PUSH0 SWAP2 POP SWAP2 POP POP SLOAD DUP2 JUMP JUMPDEST PUSH2 0xAA9 DUP4 DUP4 DUP4 PUSH2 0xC3B JUMP JUMPDEST POP POP POP JUMP JUMPDEST PUSH2 0xAB9 CALLER DUP3 DUP5 PUSH2 0xC3B JUMP JUMPDEST POP POP JUMP JUMPDEST PUSH2 0xAC7 DUP3 DUP3 PUSH2 0xEBF JUMP JUMPDEST POP POP JUMP JUMPDEST PUSH0 PUSH1 0x20 MSTORE DUP1 PUSH0 MSTORE PUSH1 0x40 PUSH0 KECCAK256 PUSH0 SWAP2 POP SWAP1 POP DUP1 PUSH0 ADD SLOAD SWAP1 DUP1 PUSH1 0x1 ADD PUSH0 SWAP1 SLOAD SWAP1 PUSH2 0x100 EXP SWAP1 DIV PUSH20 0xFFFFFFFFFFFFFFFFFFFFFFFFFFFFFFFFFFFFFFFF AND SWAP1 DUP1 PUSH1 0x2 ADD DUP1 SLOAD PUSH2 0xB14 SWAP1 PUSH2 0x1892 JUMP JUMPDEST DUP1 PUSH1 0x1F ADD PUSH1 0x20 DUP1 SWAP2 DIV MUL PUSH1 0x20 ADD PUSH1 0x40 MLOAD SWAP1 DUP2 ADD PUSH1 0x40 MSTORE DUP1 SWAP3 SWAP2 SWAP1 DUP2 DUP2 MSTORE PUSH1 0x20 ADD DUP3 DUP1 SLOAD PUSH2 0xB40 SWAP1 PUSH2 0x1892 JUMP JUMPDEST DUP1 ISZERO PUSH2 0xB8B JUMPI DUP1 PUSH1 0x1F LT PUSH2 0xB62 JUMPI PUSH2 0x100 DUP1 DUP4 SLOAD DIV MUL DUP4 MSTORE SWAP2 PUSH1 0x20 ADD SWAP2 PUSH2 0xB8B JUMP JUMPDEST DUP3 ADD SWAP2 SWAP1 PUSH0 MSTORE PUSH1 0x20 PUSH0 KECCAK256 SWAP1 JUMPDEST DUP2 SLOAD DUP2 MSTORE SWAP1 PUSH1 0x1 ADD SWAP1 PUSH1 0x20 ADD DUP1 DUP4 GT PUSH2 0xB6E JUMPI DUP3 SWAP1 SUB PUSH1 0x1F AND DUP3 ADD SWAP2 JUMPDEST POP POP POP POP POP SWAP1 DUP1 PUSH1 0x3 ADD SLOAD SWAP1 POP DUP5 JUMP JUMPDEST PUSH2 0xBA5 CALLER DUP3 PUSH2 0xEBF JUMP JUMPDEST POP JUMP JUMPDEST PUSH1 0x1 PUSH1 0x3 PUSH0 CALLER PUSH20 0xFFFFFFFFFFFFFFFFFFFFFFFFFFFFFFFFFFFFFFFF AND PUSH20 0xFFFFFFFFFFFFFFFFFFFFFFFFFFFFFFFFFFFFFFFF AND DUP2 MSTORE PUSH1 0x20 ADD SWAP1 DUP2 MSTORE PUSH1 0x20 ADD PUSH0 KECCAK256 PUSH0 DUP4 PUSH20 0xFFFFFFFFFFFFFFFFFFFFFFFFFFFFFFFFFFFFFFFF AND PUSH20 0xFFFFFFFFFFFFFFFFFFFFFFFFFFFFFFFFFFFFFFFF AND DUP2 MSTORE PUSH1 0x20 ADD SWAP1 DUP2 MSTORE PUSH1 0x20 ADD PUSH0 KECCAK256 PUSH0 PUSH2 0x100 EXP DUP2 SLOAD DUP2 PUSH1 0xFF MUL NOT AND SWAP1 DUP4 ISZERO ISZERO MUL OR SWAP1 SSTORE POP POP JUMP JUMPDEST CALLER PUSH20 0xFFFFFFFFFFFFFFFFFFFFFFFFFFFFFFFFFFFFFFFF AND DUP4 PUSH20 0xFFFFFFFFFFFFFFFFFFFFFFFFFFFFFFFFFFFFFFFF AND EQ DUP1 PUSH2 0xCF6 JUMPI POP PUSH1 0x3 PUSH0 DUP5 PUSH20 0xFFFFFFFFFFFFFFFFFFFFFFFFFFFFFFFFFFFFFFFF AND PUSH20 0xFFFFFFFFFFFFFFFFFFFFFFFFFFFFFFFFFFFFFFFF AND DUP2 MSTORE PUSH1 0x20 ADD SWAP1 DUP2 MSTORE PUSH1 0x20 ADD PUSH0 KECCAK256 PUSH0 CALLER PUSH20 0xFFFFFFFFFFFFFFFFFFFFFFFFFFFFFFFFFFFFFFFF AND PUSH20 0xFFFFFFFFFFFFFFFFFFFFFFFFFFFFFFFFFFFFFFFF AND DUP2 MSTORE PUSH1 0x20 ADD SWAP1 DUP2 MSTORE PUSH1 0x20 ADD PUSH0 KECCAK256 PUSH0 SWAP1 SLOAD SWAP1 PUSH2 0x100 EXP SWAP1 DIV PUSH1 0xFF AND JUMPDEST PUSH2 0xD35 JUMPI PUSH1 0x40 MLOAD PUSH32 0x8C379A000000000000000000000000000000000000000000000000000000000 DUP2 MSTORE PUSH1 0x4 ADD PUSH2 0xD2C SWAP1 PUSH2 0x1A9C JUMP JUMPDEST PUSH1 0x40 MLOAD DUP1 SWAP2 SUB SWAP1 REVERT JUMPDEST PUSH1 0x2 PUSH0 DUP5 PUSH20 0xFFFFFFFFFFFFFFFFFFFFFFFFFFFFFFFFFFFFFFFF AND PUSH20 0xFFFFFFFFFFFFFFFFFFFFFFFFFFFFFFFFFFFFFFFF AND DUP2 MSTORE PUSH1 0x20 ADD SWAP1 DUP2 MSTORE PUSH1 0x20 ADD PUSH0 KECCAK256 PUSH1 0x40 MLOAD DUP1 PUSH1 0xA0 ADD PUSH1 0x40 MSTORE DUP1 PUSH1 0x6 SLOAD DUP2 MSTORE PUSH1 0x20 ADD DUP4 DUP2 MSTORE PUSH1 0x20 ADD DUP6 PUSH20 0xFFFFFFFFFFFFFFFFFFFFFFFFFFFFFFFFFFFFFFFF AND DUP2 MSTORE PUSH1 0x20 ADD DUP5 PUSH20 0xFFFFFFFFFFFFFFFFFFFFFFFFFFFFFFFFFFFFFFFF AND DUP2 MSTORE PUSH1 0x20 ADD TIMESTAMP DUP2 MSTORE POP SWAP1 DUP1 PUSH1 0x1 DUP2 SLOAD ADD DUP1 DUP3 SSTORE DUP1 SWAP2 POP POP PUSH1 0x1 SWAP1 SUB SWAP1 PUSH0 MSTORE PUSH1 0x20 PUSH0 KECCAK256 SWAP1 PUSH1 0x5 MUL ADD PUSH0 SWAP1 SWAP2 SWAP1 SWAP2 SWAP1 SWAP2 POP PUSH0 DUP3 ADD MLOAD DUP2 PUSH0 ADD SSTORE PUSH1 0x20 DUP3 ADD MLOAD DUP2 PUSH1 0x1 ADD SWAP1 DUP2 PUSH2 0xE0A SWAP2 SWAP1 PUSH2 0x1C57 JUMP JUMPDEST POP PUSH1 0x40 DUP3 ADD MLOAD DUP2 PUSH1 0x2 ADD PUSH0 PUSH2 0x100 EXP DUP2 SLOAD DUP2 PUSH20 0xFFFFFFFFFFFFFFFFFFFFFFFFFFFFFFFFFFFFFFFF MUL NOT AND SWAP1 DUP4 PUSH20 0xFFFFFFFFFFFFFFFFFFFFFFFFFFFFFFFFFFFFFFFF AND MUL OR SWAP1 SSTORE POP PUSH1 0x60 DUP3 ADD MLOAD DUP2 PUSH1 0x3 ADD PUSH0 PUSH2 0x100 EXP DUP2 SLOAD DUP2 PUSH20 0xFFFFFFFFFFFFFFFFFFFFFFFFFFFFFFFFFFFFFFFF MUL NOT AND SWAP1 DUP4 PUSH20 0xFFFFFFFFFFFFFFFFFFFFFFFFFFFFFFFFFFFFFFFF AND MUL OR SWAP1 SSTORE POP PUSH1 0x80 DUP3 ADD MLOAD DUP2 PUSH1 0x4 ADD SSTORE POP POP PUSH1 0x6 PUSH0 DUP2 SLOAD DUP1 SWAP3 SWAP2 SWAP1 PUSH2 0xEB5 SWAP1 PUSH2 0x1D26 JUMP JUMPDEST SWAP2 SWAP1 POP SSTORE POP POP POP POP JUMP JUMPDEST CALLER PUSH20 0xFFFFFFFFFFFFFFFFFFFFFFFFFFFFFFFFFFFFFFFF AND DUP3 PUSH20 0xFFFFFFFFFFFFFFFFFFFFFFFFFFFFFFFFFFFFFFFF AND EQ DUP1 PUSH2 0xF7A JUMPI POP PUSH1 0x3 PUSH0 DUP4 PUSH20 0xFFFFFFFFFFFFFFFFFFFFFFFFFFFFFFFFFFFFFFFF AND PUSH20 0xFFFFFFFFFFFFFFFFFFFFFFFFFFFFFFFFFFFFFFFF AND DUP2 MSTORE PUSH1 0x20 ADD SWAP1 DUP2 MSTORE PUSH1 0x20 ADD PUSH0 KECCAK256 PUSH0 CALLER PUSH20 0xFFFFFFFFFFFFFFFFFFFFFFFFFFFFFFFFFFFFFFFF AND PUSH20 0xFFFFFFFFFFFFFFFFFFFFFFFFFFFFFFFFFFFFFFFF AND DUP2 MSTORE PUSH1 0x20 ADD SWAP1 DUP2 MSTORE PUSH1 0x20 ADD PUSH0 KECCAK256 PUSH0 SWAP1 SLOAD SWAP1 PUSH2 0x100 EXP SWAP1 DIV PUSH1 0xFF AND JUMPDEST PUSH2 0xFB9 JUMPI PUSH1 0x40 MLOAD PUSH32 0x8C379A000000000000000000000000000000000000000000000000000000000 DUP2 MSTORE PUSH1 0x4 ADD PUSH2 0xFB0 SWAP1 PUSH2 0x1A9C JUMP JUMPDEST PUSH1 0x40 MLOAD DUP1 SWAP2 SUB SWAP1 REVERT JUMPDEST PUSH1 0x40 MLOAD DUP1 PUSH1 0x80 ADD PUSH1 0x40 MSTORE DUP1 PUSH1 0x5 SLOAD DUP2 MSTORE PUSH1 0x20 ADD DUP4 PUSH20 0xFFFFFFFFFFFFFFFFFFFFFFFFFFFFFFFFFFFFFFFF AND DUP2 MSTORE PUSH1 0x20 ADD DUP3 DUP2 MSTORE PUSH1 0x20 ADD TIMESTAMP DUP2 MSTORE POP PUSH0 DUP1 PUSH1 0x5 SLOAD DUP2 MSTORE PUSH1 0x20 ADD SWAP1 DUP2 MSTORE PUSH1 0x20 ADD PUSH0 KECCAK256 PUSH0 DUP3 ADD MLOAD DUP2 PUSH0 ADD SSTORE PUSH1 0x20 DUP3 ADD MLOAD DUP2 PUSH1 0x1 ADD PUSH0 PUSH2 0x100 EXP DUP2 SLOAD DUP2 PUSH20 0xFFFFFFFFFFFFFFFFFFFFFFFFFFFFFFFFFFFFFFFF MUL NOT AND SWAP1 DUP4 PUSH20 0xFFFFFFFFFFFFFFFFFFFFFFFFFFFFFFFFFFFFFFFF AND MUL OR SWAP1 SSTORE POP PUSH1 0x40 DUP3 ADD MLOAD DUP2 PUSH1 0x2 ADD SWAP1 DUP2 PUSH2 0x1067 SWAP2 SWAP1 PUSH2 0x1C57 JUMP JUMPDEST POP PUSH1 0x60 DUP3 ADD MLOAD DUP2 PUSH1 0x3 ADD SSTORE SWAP1 POP POP PUSH1 0x1 PUSH0 DUP4 PUSH20 0xFFFFFFFFFFFFFFFFFFFFFFFFFFFFFFFFFFFFFFFF AND PUSH20 0xFFFFFFFFFFFFFFFFFFFFFFFFFFFFFFFFFFFFFFFF AND DUP2 MSTORE PUSH1 0x20 ADD SWAP1 DUP2 MSTORE PUSH1 0x20 ADD PUSH0 KECCAK256 PUSH1 0x5 SLOAD SWAP1 DUP1 PUSH1 0x1 DUP2 SLOAD ADD DUP1 DUP3 SSTORE DUP1 SWAP2 POP POP PUSH1 0x1 SWAP1 SUB SWAP1 PUSH0 MSTORE PUSH1 0x20 PUSH0 KECCAK256 ADD PUSH0 SWAP1 SWAP2 SWAP1 SWAP2 SWAP1 SWAP2 POP SSTORE PUSH1 0x1 PUSH1 0x5 SLOAD PUSH2 0x10E7 SWAP2 SWAP1 PUSH2 0x19B7 JUMP JUMPDEST PUSH1 0x5 DUP2 SWAP1 SSTORE POP POP POP JUMP JUMPDEST PUSH1 0x40 MLOAD DUP1 PUSH1 0x80 ADD PUSH1 0x40 MSTORE DUP1 PUSH0 DUP2 MSTORE PUSH1 0x20 ADD PUSH0 PUSH20 0xFFFFFFFFFFFFFFFFFFFFFFFFFFFFFFFFFFFFFFFF AND DUP2 MSTORE PUSH1 0x20 ADD PUSH1 0x60 DUP2 MSTORE PUSH1 0x20 ADD PUSH0 DUP2 MSTORE POP SWAP1 JUMP JUMPDEST PUSH0 PUSH1 0x40 MLOAD SWAP1 POP SWAP1 JUMP JUMPDEST PUSH0 DUP1 REVERT JUMPDEST PUSH0 DUP1 REVERT JUMPDEST PUSH0 PUSH20 0xFFFFFFFFFFFFFFFFFFFFFFFFFFFFFFFFFFFFFFFF DUP3 AND SWAP1 POP SWAP2 SWAP1 POP JUMP JUMPDEST PUSH0 PUSH2 0x1166 DUP3 PUSH2 0x113D JUMP JUMPDEST SWAP1 POP SWAP2 SWAP1 POP JUMP JUMPDEST PUSH2 0x1176 DUP2 PUSH2 0x115C JUMP JUMPDEST DUP2 EQ PUSH2 0x1180 JUMPI PUSH0 DUP1 REVERT JUMPDEST POP JUMP JUMPDEST PUSH0 DUP2 CALLDATALOAD SWAP1 POP PUSH2 0x1191 DUP2 PUSH2 0x116D JUMP JUMPDEST SWAP3 SWAP2 POP POP JUMP JUMPDEST PUSH0 DUP1 PUSH1 0x40 DUP4 DUP6 SUB SLT ISZERO PUSH2 0x11AD JUMPI PUSH2 0x11AC PUSH2 0x1135 JUMP JUMPDEST JUMPDEST PUSH0 PUSH2 0x11BA DUP6 DUP3 DUP7 ADD PUSH2 0x1183 JUMP JUMPDEST SWAP3 POP POP PUSH1 0x20 PUSH2 0x11CB DUP6 DUP3 DUP7 ADD PUSH2 0x1183 JUMP JUMPDEST SWAP2 POP POP SWAP3 POP SWAP3 SWAP1 POP JUMP JUMPDEST PUSH0 DUP2 ISZERO ISZERO SWAP1 POP SWAP2 SWAP1 POP JUMP JUMPDEST PUSH2 0x11E9 DUP2 PUSH2 0x11D5 JUMP JUMPDEST DUP3 MSTORE POP POP JUMP JUMPDEST PUSH0 PUSH1 0x20 DUP3 ADD SWAP1 POP PUSH2 0x1202 PUSH0 DUP4 ADD DUP5 PUSH2 0x11E0 JUMP JUMPDEST SWAP3 SWAP2 POP POP JUMP JUMPDEST PUSH0 DUP2 SWAP1 POP SWAP2 SWAP1 POP JUMP JUMPDEST PUSH2 0x121A DUP2 PUSH2 0x1208 JUMP JUMPDEST DUP2 EQ PUSH2 0x1224 JUMPI PUSH0 DUP1 REVERT JUMPDEST POP JUMP JUMPDEST PUSH0 DUP2 CALLDATALOAD SWAP1 POP PUSH2 0x1235 DUP2 PUSH2 0x1211 JUMP JUMPDEST SWAP3 SWAP2 POP POP JUMP JUMPDEST PUSH0 DUP1 PUSH1 0x40 DUP4 DUP6 SUB SLT ISZERO PUSH2 0x1251 JUMPI PUSH2 0x1250 PUSH2 0x1135 JUMP JUMPDEST JUMPDEST PUSH0 PUSH2 0x125E DUP6 DUP3 DUP7 ADD PUSH2 0x1183 JUMP JUMPDEST SWAP3 POP POP PUSH1 0x20 PUSH2 0x126F DUP6 DUP3 DUP7 ADD PUSH2 0x1227 JUMP JUMPDEST SWAP2 POP POP SWAP3 POP SWAP3 SWAP1 POP JUMP JUMPDEST PUSH2 0x1282 DUP2 PUSH2 0x1208 JUMP JUMPDEST DUP3 MSTORE POP POP JUMP JUMPDEST PUSH0 DUP2 MLOAD SWAP1 POP SWAP2 SWAP1 POP JUMP JUMPDEST PUSH0 DUP3 DUP3 MSTORE PUSH1 0x20 DUP3 ADD SWAP1 POP SWAP3 SWAP2 POP POP JUMP JUMPDEST DUP3 DUP2 DUP4 MCOPY PUSH0 DUP4 DUP4 ADD MSTORE POP POP POP JUMP JUMPDEST PUSH0 PUSH1 0x1F NOT PUSH1 0x1F DUP4 ADD AND SWAP1 POP SWAP2 SWAP1 POP JUMP JUMPDEST PUSH0 PUSH2 0x12CA DUP3 PUSH2 0x1288 JUMP JUMPDEST PUSH2 0x12D4 DUP2 DUP6 PUSH2 0x1292 JUMP JUMPDEST SWAP4 POP PUSH2 0x12E4 DUP2 DUP6 PUSH1 0x20 DUP7 ADD PUSH2 0x12A2 JUMP JUMPDEST PUSH2 0x12ED DUP2 PUSH2 0x12B0 JUMP JUMPDEST DUP5 ADD SWAP2 POP POP SWAP3 SWAP2 POP POP JUMP JUMPDEST PUSH2 0x1301 DUP2 PUSH2 0x115C JUMP JUMPDEST DUP3 MSTORE POP POP JUMP JUMPDEST PUSH0 PUSH1 0xA0 DUP3 ADD SWAP1 POP PUSH2 0x131A PUSH0 DUP4 ADD DUP9 PUSH2 0x1279 JUMP JUMPDEST DUP2 DUP2 SUB PUSH1 0x20 DUP4 ADD MSTORE PUSH2 0x132C DUP2 DUP8 PUSH2 0x12C0 JUMP JUMPDEST SWAP1 POP PUSH2 0x133B PUSH1 0x40 DUP4 ADD DUP7 PUSH2 0x12F8 JUMP JUMPDEST PUSH2 0x1348 PUSH1 0x60 DUP4 ADD DUP6 PUSH2 0x12F8 JUMP JUMPDEST PUSH2 0x1355 PUSH1 0x80 DUP4 ADD DUP5 PUSH2 0x1279 JUMP JUMPDEST SWAP7 SWAP6 POP POP POP POP POP POP JUMP JUMPDEST PUSH0 PUSH1 0x20 DUP3 DUP5 SUB SLT ISZERO PUSH2 0x1374 JUMPI PUSH2 0x1373 PUSH2 0x1135 JUMP JUMPDEST JUMPDEST PUSH0 PUSH2 0x1381 DUP5 DUP3 DUP6 ADD PUSH2 0x1183 JUMP JUMPDEST SWAP2 POP POP SWAP3 SWAP2 POP POP JUMP JUMPDEST PUSH0 PUSH1 0x20 DUP3 DUP5 SUB SLT ISZERO PUSH2 0x139F JUMPI PUSH2 0x139E PUSH2 0x1135 JUMP JUMPDEST JUMPDEST PUSH0 PUSH2 0x13AC DUP5 DUP3 DUP6 ADD PUSH2 0x1227 JUMP JUMPDEST SWAP2 POP POP SWAP3 SWAP2 POP POP JUMP JUMPDEST PUSH0 DUP2 MLOAD SWAP1 POP SWAP2 SWAP1 POP JUMP JUMPDEST PUSH0 DUP3 DUP3 MSTORE PUSH1 0x20 DUP3 ADD SWAP1 POP SWAP3 SWAP2 POP POP JUMP JUMPDEST PUSH0 DUP2 SWAP1 POP PUSH1 0x20 DUP3 ADD SWAP1 POP SWAP2 SWAP1 POP JUMP JUMPDEST PUSH2 0x13E7 DUP2 PUSH2 0x1208 JUMP JUMPDEST DUP3 MSTORE POP POP JUMP JUMPDEST PUSH2 0x13F6 DUP2 PUSH2 0x115C JUMP JUMPDEST DUP3 MSTORE POP POP JUMP JUMPDEST PUSH0 DUP3 DUP3 MSTORE PUSH1 0x20 DUP3 ADD SWAP1 POP SWAP3 SWAP2 POP POP JUMP JUMPDEST PUSH0 PUSH2 0x1416 DUP3 PUSH2 0x1288 JUMP JUMPDEST PUSH2 0x1420 DUP2 DUP6 PUSH2 0x13FC JUMP JUMPDEST SWAP4 POP PUSH2 0x1430 DUP2 DUP6 PUSH1 0x20 DUP7 ADD PUSH2 0x12A2 JUMP JUMPDEST PUSH2 0x1439 DUP2 PUSH2 0x12B0 JUMP JUMPDEST DUP5 ADD SWAP2 POP POP SWAP3 SWAP2 POP POP JUMP JUMPDEST PUSH0 PUSH1 0x80 DUP4 ADD PUSH0 DUP4 ADD MLOAD PUSH2 0x1459 PUSH0 DUP7 ADD DUP3 PUSH2 0x13DE JUMP JUMPDEST POP PUSH1 0x20 DUP4 ADD MLOAD PUSH2 0x146C PUSH1 0x20 DUP7 ADD DUP3 PUSH2 0x13ED JUMP JUMPDEST POP PUSH1 0x40 DUP4 ADD MLOAD DUP5 DUP3 SUB PUSH1 0x40 DUP7 ADD MSTORE PUSH2 0x1484 DUP3 DUP3 PUSH2 0x140C JUMP JUMPDEST SWAP2 POP POP PUSH1 0x60 DUP4 ADD MLOAD PUSH2 0x1499 PUSH1 0x60 DUP7 ADD DUP3 PUSH2 0x13DE JUMP JUMPDEST POP DUP1 SWAP2 POP POP SWAP3 SWAP2 POP POP JUMP JUMPDEST PUSH0 PUSH2 0x14AF DUP4 DUP4 PUSH2 0x1444 JUMP JUMPDEST SWAP1 POP SWAP3 SWAP2 POP POP JUMP JUMPDEST PUSH0 PUSH1 0x20 DUP3 ADD SWAP1 POP SWAP2 SWAP1 POP JUMP JUMPDEST PUSH0 PUSH2 0x14CD DUP3 PUSH2 0x13B5 JUMP JUMPDEST PUSH2 0x14D7 DUP2 DUP6 PUSH2 0x13BF JUMP JUMPDEST SWAP4 POP DUP4 PUSH1 0x20 DUP3 MUL DUP6 ADD PUSH2 0x14E9 DUP6 PUSH2 0x13CF JUMP JUMPDEST DUP1 PUSH0 JUMPDEST DUP6 DUP2 LT ISZERO PUSH2 0x1524 JUMPI DUP5 DUP5 SUB DUP10 MSTORE DUP2 MLOAD PUSH2 0x1505 DUP6 DUP3 PUSH2 0x14A4 JUMP JUMPDEST SWAP5 POP PUSH2 0x1510 DUP4 PUSH2 0x14B7 JUMP JUMPDEST SWAP3 POP PUSH1 0x20 DUP11 ADD SWAP10 POP POP PUSH1 0x1 DUP2 ADD SWAP1 POP PUSH2 0x14EC JUMP JUMPDEST POP DUP3 SWAP8 POP DUP8 SWAP6 POP POP POP POP POP POP SWAP3 SWAP2 POP POP JUMP JUMPDEST PUSH0 PUSH1 0x20 DUP3 ADD SWAP1 POP DUP2 DUP2 SUB PUSH0 DUP4 ADD MSTORE PUSH2 0x154E DUP2 DUP5 PUSH2 0x14C3 JUMP JUMPDEST SWAP1 POP SWAP3 SWAP2 POP POP JUMP JUMPDEST PUSH0 PUSH1 0x20 DUP3 ADD SWAP1 POP PUSH2 0x1569 PUSH0 DUP4 ADD DUP5 PUSH2 0x12F8 JUMP JUMPDEST SWAP3 SWAP2 POP POP JUMP JUMPDEST PUSH0 PUSH1 0x20 DUP3 ADD SWAP1 POP PUSH2 0x1582 PUSH0 DUP4 ADD DUP5 PUSH2 0x1279 JUMP JUMPDEST SWAP3 SWAP2 POP POP JUMP JUMPDEST PUSH0 DUP1 REVERT JUMPDEST PUSH0 DUP1 REVERT JUMPDEST PUSH32 0x4E487B7100000000000000000000000000000000000000000000000000000000 PUSH0 MSTORE PUSH1 0x41 PUSH1 0x4 MSTORE PUSH1 0x24 PUSH0 REVERT JUMPDEST PUSH2 0x15C6 DUP3 PUSH2 0x12B0 JUMP JUMPDEST DUP2 ADD DUP2 DUP2 LT PUSH8 0xFFFFFFFFFFFFFFFF DUP3 GT OR ISZERO PUSH2 0x15E5 JUMPI PUSH2 0x15E4 PUSH2 0x1590 JUMP JUMPDEST JUMPDEST DUP1 PUSH1 0x40 MSTORE POP POP POP JUMP JUMPDEST PUSH0 PUSH2 0x15F7 PUSH2 0x112C JUMP JUMPDEST SWAP1 POP PUSH2 0x1603 DUP3 DUP3 PUSH2 0x15BD JUMP JUMPDEST SWAP2 SWAP1 POP JUMP JUMPDEST PUSH0 PUSH8 0xFFFFFFFFFFFFFFFF DUP3 GT ISZERO PUSH2 0x1622 JUMPI PUSH2 0x1621 PUSH2 0x1590 JUMP JUMPDEST JUMPDEST PUSH2 0x162B DUP3 PUSH2 0x12B0 JUMP JUMPDEST SWAP1 POP PUSH1 0x20 DUP2 ADD SWAP1 POP SWAP2 SWAP1 POP JUMP JUMPDEST DUP3 DUP2 DUP4 CALLDATACOPY PUSH0 DUP4 DUP4 ADD MSTORE POP POP POP JUMP JUMPDEST PUSH0 PUSH2 0x1658 PUSH2 0x1653 DUP5 PUSH2 0x1608 JUMP JUMPDEST PUSH2 0x15EE JUMP JUMPDEST SWAP1 POP DUP3 DUP2 MSTORE PUSH1 0x20 DUP2 ADD DUP5 DUP5 DUP5 ADD GT ISZERO PUSH2 0x1674 JUMPI PUSH2 0x1673 PUSH2 0x158C JUMP JUMPDEST JUMPDEST PUSH2 0x167F DUP5 DUP3 DUP6 PUSH2 0x1638 JUMP JUMPDEST POP SWAP4 SWAP3 POP POP POP JUMP JUMPDEST PUSH0 DUP3 PUSH1 0x1F DUP4 ADD SLT PUSH2 0x169B JUMPI PUSH2 0x169A PUSH2 0x1588 JUMP JUMPDEST JUMPDEST DUP2 CALLDATALOAD PUSH2 0x16AB DUP5 DUP3 PUSH1 0x20 DUP7 ADD PUSH2 0x1646 JUMP JUMPDEST SWAP2 POP POP SWAP3 SWAP2 POP POP JUMP JUMPDEST PUSH0 DUP1 PUSH0 PUSH1 0x60 DUP5 DUP7 SUB SLT ISZERO PUSH2 0x16CB JUMPI PUSH2 0x16CA PUSH2 0x1135 JUMP JUMPDEST JUMPDEST PUSH0 PUSH2 0x16D8 DUP7 DUP3 DUP8 ADD PUSH2 0x1183 JUMP JUMPDEST SWAP4 POP POP PUSH1 0x20 PUSH2 0x16E9 DUP7 DUP3 DUP8 ADD PUSH2 0x1183 JUMP JUMPDEST SWAP3 POP POP PUSH1 0x40 DUP5 ADD CALLDATALOAD PUSH8 0xFFFFFFFFFFFFFFFF DUP2 GT ISZERO PUSH2 0x170A JUMPI PUSH2 0x1709 PUSH2 0x1139 JUMP JUMPDEST JUMPDEST PUSH2 0x1716 DUP7 DUP3 DUP8 ADD PUSH2 0x1687 JUMP JUMPDEST SWAP2 POP POP SWAP3 POP SWAP3 POP SWAP3 JUMP JUMPDEST PUSH0 DUP1 PUSH1 0x40 DUP4 DUP6 SUB SLT ISZERO PUSH2 0x1736 JUMPI PUSH2 0x1735 PUSH2 0x1135 JUMP JUMPDEST JUMPDEST PUSH0 DUP4 ADD CALLDATALOAD PUSH8 0xFFFFFFFFFFFFFFFF DUP2 GT ISZERO PUSH2 0x1753 JUMPI PUSH2 0x1752 PUSH2 0x1139 JUMP JUMPDEST JUMPDEST PUSH2 0x175F DUP6 DUP3 DUP7 ADD PUSH2 0x1687 JUMP JUMPDEST SWAP3 POP POP PUSH1 0x20 PUSH2 0x1770 DUP6 DUP3 DUP7 ADD PUSH2 0x1183 JUMP JUMPDEST SWAP2 POP POP SWAP3 POP SWAP3 SWAP1 POP JUMP JUMPDEST PUSH0 DUP1 PUSH1 0x40 DUP4 DUP6 SUB SLT ISZERO PUSH2 0x1790 JUMPI PUSH2 0x178F PUSH2 0x1135 JUMP JUMPDEST JUMPDEST PUSH0 PUSH2 0x179D DUP6 DUP3 DUP7 ADD PUSH2 0x1183 JUMP JUMPDEST SWAP3 POP POP PUSH1 0x20 DUP4 ADD CALLDATALOAD PUSH8 0xFFFFFFFFFFFFFFFF DUP2 GT ISZERO PUSH2 0x17BE JUMPI PUSH2 0x17BD PUSH2 0x1139 JUMP JUMPDEST JUMPDEST PUSH2 0x17CA DUP6 DUP3 DUP7 ADD PUSH2 0x1687 JUMP JUMPDEST SWAP2 POP POP SWAP3 POP SWAP3 SWAP1 POP JUMP JUMPDEST PUSH0 PUSH1 0x80 DUP3 ADD SWAP1 POP PUSH2 0x17E7 PUSH0 DUP4 ADD DUP8 PUSH2 0x1279 JUMP JUMPDEST PUSH2 0x17F4 PUSH1 0x20 DUP4 ADD DUP7 PUSH2 0x12F8 JUMP JUMPDEST DUP2 DUP2 SUB PUSH1 0x40 DUP4 ADD MSTORE PUSH2 0x1806 DUP2 DUP6 PUSH2 0x12C0 JUMP JUMPDEST SWAP1 POP PUSH2 0x1815 PUSH1 0x60 DUP4 ADD DUP5 PUSH2 0x1279 JUMP JUMPDEST SWAP6 SWAP5 POP POP POP POP POP JUMP JUMPDEST PUSH0 PUSH1 0x20 DUP3 DUP5 SUB SLT ISZERO PUSH2 0x1833 JUMPI PUSH2 0x1832 PUSH2 0x1135 JUMP JUMPDEST JUMPDEST PUSH0 DUP3 ADD CALLDATALOAD PUSH8 0xFFFFFFFFFFFFFFFF DUP2 GT ISZERO PUSH2 0x1850 JUMPI PUSH2 0x184F PUSH2 0x1139 JUMP JUMPDEST JUMPDEST PUSH2 0x185C DUP5 DUP3 DUP6 ADD PUSH2 0x1687 JUMP JUMPDEST SWAP2 POP POP SWAP3 SWAP2 POP POP JUMP JUMPDEST PUSH32 0x4E487B7100000000000000000000000000000000000000000000000000000000 PUSH0 MSTORE PUSH1 0x22 PUSH1 0x4 MSTORE PUSH1 0x24 PUSH0 REVERT JUMPDEST PUSH0 PUSH1 0x2 DUP3 DIV SWAP1 POP PUSH1 0x1 DUP3 AND DUP1 PUSH2 0x18A9 JUMPI PUSH1 0x7F DUP3 AND SWAP2 POP JUMPDEST PUSH1 0x20 DUP3 LT DUP2 SUB PUSH2 0x18BC JUMPI PUSH2 0x18BB PUSH2 0x1865 JUMP JUMPDEST JUMPDEST POP SWAP2 SWAP1 POP JUMP JUMPDEST PUSH32 0x436F756E74206973206E6F742070726F70657200000000000000000000000000 PUSH0 DUP3 ADD MSTORE POP JUMP JUMPDEST PUSH0 PUSH2 0x18F6 PUSH1 0x13 DUP4 PUSH2 0x1292 JUMP JUMPDEST SWAP2 POP PUSH2 0x1901 DUP3 PUSH2 0x18C2 JUMP JUMPDEST PUSH1 0x20 DUP3 ADD SWAP1 POP SWAP2 SWAP1 POP JUMP JUMPDEST PUSH0 PUSH1 0x20 DUP3 ADD SWAP1 POP DUP2 DUP2 SUB PUSH0 DUP4 ADD MSTORE PUSH2 0x1923 DUP2 PUSH2 0x18EA JUMP JUMPDEST SWAP1 POP SWAP2 SWAP1 POP JUMP JUMPDEST PUSH32 0x4E487B7100000000000000000000000000000000000000000000000000000000 PUSH0 MSTORE PUSH1 0x11 PUSH1 0x4 MSTORE PUSH1 0x24 PUSH0 REVERT JUMPDEST PUSH0 PUSH2 0x1961 DUP3 PUSH2 0x1208 JUMP JUMPDEST SWAP2 POP PUSH2 0x196C DUP4 PUSH2 0x1208 JUMP JUMPDEST SWAP3 POP DUP3 DUP3 SUB SWAP1 POP DUP2 DUP2 GT ISZERO PUSH2 0x1984 JUMPI PUSH2 0x1983 PUSH2 0x192A JUMP JUMPDEST JUMPDEST SWAP3 SWAP2 POP POP JUMP JUMPDEST PUSH32 0x4E487B7100000000000000000000000000000000000000000000000000000000 PUSH0 MSTORE PUSH1 0x32 PUSH1 0x4 MSTORE PUSH1 0x24 PUSH0 REVERT JUMPDEST PUSH0 PUSH2 0x19C1 DUP3 PUSH2 0x1208 JUMP JUMPDEST SWAP2 POP PUSH2 0x19CC DUP4 PUSH2 0x1208 JUMP JUMPDEST SWAP3 POP DUP3 DUP3 ADD SWAP1 POP DUP1 DUP3 GT ISZERO PUSH2 0x19E4 JUMPI PUSH2 0x19E3 PUSH2 0x192A JUMP JUMPDEST JUMPDEST SWAP3 SWAP2 POP POP JUMP JUMPDEST PUSH32 0x436F756E74206973206E6F7420646566696E6564000000000000000000000000 PUSH0 DUP3 ADD MSTORE POP JUMP JUMPDEST PUSH0 PUSH2 0x1A1E PUSH1 0x14 DUP4 PUSH2 0x1292 JUMP JUMPDEST SWAP2 POP PUSH2 0x1A29 DUP3 PUSH2 0x19EA JUMP JUMPDEST PUSH1 0x20 DUP3 ADD SWAP1 POP SWAP2 SWAP1 POP JUMP JUMPDEST PUSH0 PUSH1 0x20 DUP3 ADD SWAP1 POP DUP2 DUP2 SUB PUSH0 DUP4 ADD MSTORE PUSH2 0x1A4B DUP2 PUSH2 0x1A12 JUMP JUMPDEST SWAP1 POP SWAP2 SWAP1 POP JUMP JUMPDEST PUSH32 0x596F7520646F6E27742068617665206163636573730000000000000000000000 PUSH0 DUP3 ADD MSTORE POP JUMP JUMPDEST PUSH0 PUSH2 0x1A86 PUSH1 0x15 DUP4 PUSH2 0x1292 JUMP JUMPDEST SWAP2 POP PUSH2 0x1A91 DUP3 PUSH2 0x1A52 JUMP JUMPDEST PUSH1 0x20 DUP3 ADD SWAP1 POP SWAP2 SWAP1 POP JUMP JUMPDEST PUSH0 PUSH1 0x20 DUP3 ADD SWAP1 POP DUP2 DUP2 SUB PUSH0 DUP4 ADD MSTORE PUSH2 0x1AB3 DUP2 PUSH2 0x1A7A JUMP JUMPDEST SWAP1 POP SWAP2 SWAP1 POP JUMP JUMPDEST PUSH0 DUP2 SWAP1 POP DUP2 PUSH0 MSTORE PUSH1 0x20 PUSH0 KECCAK256 SWAP1 POP SWAP2 SWAP1 POP JUMP JUMPDEST PUSH0 PUSH1 0x20 PUSH1 0x1F DUP4 ADD DIV SWAP1 POP SWAP2 SWAP1 POP JUMP JUMPDEST PUSH0 DUP3 DUP3 SHL SWAP1 POP SWAP3 SWAP2 POP POP JUMP JUMPDEST PUSH0 PUSH1 0x8 DUP4 MUL PUSH2 0x1B16 PUSH32 0xFFFFFFFFFFFFFFFFFFFFFFFFFFFFFFFFFFFFFFFFFFFFFFFFFFFFFFFFFFFFFFFF DUP3 PUSH2 0x1ADB JUMP JUMPDEST PUSH2 0x1B20 DUP7 DUP4 PUSH2 0x1ADB JUMP JUMPDEST SWAP6 POP DUP1 NOT DUP5 AND SWAP4 POP DUP1 DUP7 AND DUP5 OR SWAP3 POP POP POP SWAP4 SWAP3 POP POP POP JUMP JUMPDEST PUSH0 DUP2 SWAP1 POP SWAP2 SWAP1 POP JUMP JUMPDEST PUSH0 PUSH2 0x1B5B PUSH2 0x1B56 PUSH2 0x1B51 DUP5 PUSH2 0x1208 JUMP JUMPDEST PUSH2 0x1B38 JUMP JUMPDEST PUSH2 0x1208 JUMP JUMPDEST SWAP1 POP SWAP2 SWAP1 POP JUMP JUMPDEST PUSH0 DUP2 SWAP1 POP SWAP2 SWAP1 POP JUMP JUMPDEST PUSH2 0x1B74 DUP4 PUSH2 0x1B41 JUMP JUMPDEST PUSH2 0x1B88 PUSH2 0x1B80 DUP3 PUSH2 0x1B62 JUMP JUMPDEST DUP5 DUP5 SLOAD PUSH2 0x1AE7 JUMP JUMPDEST DUP3 SSTORE POP POP POP POP JUMP JUMPDEST PUSH0 SWAP1 JUMP JUMPDEST PUSH2 0x1B9C PUSH2 0x1B90 JUMP JUMPDEST PUSH2 0x1BA7 DUP2 DUP5 DUP5 PUSH2 0x1B6B JUMP JUMPDEST POP POP POP JUMP JUMPDEST JUMPDEST DUP2 DUP2 LT ISZERO PUSH2 0x1BCA JUMPI PUSH2 0x1BBF PUSH0 DUP3 PUSH2 0x1B94 JUMP JUMPDEST PUSH1 0x1 DUP2 ADD SWAP1 POP PUSH2 0x1BAD JUMP JUMPDEST POP POP JUMP JUMPDEST PUSH1 0x1F DUP3 GT ISZERO PUSH2 0x1C0F JUMPI PUSH2 0x1BE0 DUP2 PUSH2 0x1ABA JUMP JUMPDEST PUSH2 0x1BE9 DUP5 PUSH2 0x1ACC JUMP JUMPDEST DUP2 ADD PUSH1 0x20 DUP6 LT ISZERO PUSH2 0x1BF8 JUMPI DUP2 SWAP1 POP JUMPDEST PUSH2 0x1C0C PUSH2 0x1C04 DUP6 PUSH2 0x1ACC JUMP JUMPDEST DUP4 ADD DUP3 PUSH2 0x1BAC JUMP JUMPDEST POP POP JUMPDEST POP POP POP JUMP JUMPDEST PUSH0 DUP3 DUP3 SHR SWAP1 POP SWAP3 SWAP2 POP POP JUMP JUMPDEST PUSH0 PUSH2 0x1C2F PUSH0 NOT DUP5 PUSH1 0x8 MUL PUSH2 0x1C14 JUMP JUMPDEST NOT DUP1 DUP4 AND SWAP2 POP POP SWAP3 SWAP2 POP POP JUMP JUMPDEST PUSH0 PUSH2 0x1C47 DUP4 DUP4 PUSH2 0x1C20 JUMP JUMPDEST SWAP2 POP DUP3 PUSH1 0x2 MUL DUP3 OR SWAP1 POP SWAP3 SWAP2 POP POP JUMP JUMPDEST PUSH2 0x1C60 DUP3 PUSH2 0x1288 JUMP JUMPDEST PUSH8 0xFFFFFFFFFFFFFFFF DUP2 GT ISZERO PUSH2 0x1C79 JUMPI PUSH2 0x1C78 PUSH2 0x1590 JUMP JUMPDEST JUMPDEST PUSH2 0x1C83 DUP3 SLOAD PUSH2 0x1892 JUMP JUMPDEST PUSH2 0x1C8E DUP3 DUP3 DUP6 PUSH2 0x1BCE JUMP JUMPDEST PUSH0 PUSH1 0x20 SWAP1 POP PUSH1 0x1F DUP4 GT PUSH1 0x1 DUP2 EQ PUSH2 0x1CBF JUMPI PUSH0 DUP5 ISZERO PUSH2 0x1CAD JUMPI DUP3 DUP8 ADD MLOAD SWAP1 POP JUMPDEST PUSH2 0x1CB7 DUP6 DUP3 PUSH2 0x1C3C JUMP JUMPDEST DUP7 SSTORE POP PUSH2 0x1D1E JUMP JUMPDEST PUSH1 0x1F NOT DUP5 AND PUSH2 0x1CCD DUP7 PUSH2 0x1ABA JUMP JUMPDEST PUSH0 JUMPDEST DUP3 DUP2 LT ISZERO PUSH2 0x1CF4 JUMPI DUP5 DUP10 ADD MLOAD DUP3 SSTORE PUSH1 0x1 DUP3 ADD SWAP2 POP PUSH1 0x20 DUP6 ADD SWAP5 POP PUSH1 0x20 DUP2 ADD SWAP1 POP PUSH2 0x1CCF JUMP JUMPDEST DUP7 DUP4 LT ISZERO PUSH2 0x1D11 JUMPI DUP5 DUP10 ADD MLOAD PUSH2 0x1D0D PUSH1 0x1F DUP10 AND DUP3 PUSH2 0x1C20 JUMP JUMPDEST DUP4 SSTORE POP JUMPDEST PUSH1 0x1 PUSH1 0x2 DUP9 MUL ADD DUP9 SSTORE POP POP POP JUMPDEST POP POP POP POP POP POP JUMP JUMPDEST PUSH0 PUSH2 0x1D30 DUP3 PUSH2 0x1208 JUMP JUMPDEST SWAP2 POP PUSH32 0xFFFFFFFFFFFFFFFFFFFFFFFFFFFFFFFFFFFFFFFFFFFFFFFFFFFFFFFFFFFFFFFF DUP3 SUB PUSH2 0x1D62 JUMPI PUSH2 0x1D61 PUSH2 0x192A JUMP JUMPDEST JUMPDEST PUSH1 0x1 DUP3 ADD SWAP1 POP SWAP2 SWAP1 POP JUMP INVALID LOG2 PUSH5 0x6970667358 0x22 SLT KECCAK256 DUP16 STOP 0xE3 MSTORE8 DUP11 PUSH8 0x20541CC9710AAA2B NUMBER MUL SWAP7 0xAE SELFDESTRUCT 0xDC MULMOD MSTORE8 0xEA 0x4D 0xAC 0xA7 0xF7 0xCD CREATE ORIGIN INVALID 0xDB PUSH5 0x736F6C6343 STOP ADDMOD BYTE STOP CALLER "
				},
				"gasEstimates": {
					"creation": {
						"codeDepositCost": "1517400",
						"executionCost": "1587",
						"totalCost": "1518987"
					},
					"external": {
						"allow(address)": "24978",
						"conversations(address,uint256)": "infinite",
						"disallow(address)": "24978",
						"follow(address)": "49180",
						"following(address,uint256)": "infinite",
						"getLatestTweets(uint256)": "infinite",
						"getLatestofUser(address,uint256)": "infinite",
						"operators(address,address)": "infinite",
						"sendMessage(address,address,string)": "infinite",
						"sendMessage(string,address)": "infinite",
						"tweet(address,string)": "infinite",
						"tweet(string)": "infinite",
						"tweets(uint256)": "infinite",
						"tweetsOf(address,uint256)": "infinite"
					},
					"internal": {
						"_sendMessage(address,address,string memory)": "infinite",
						"_tweet(address,string memory)": "infinite"
					}
				},
				"methodIdentifiers": {
					"allow(address)": "ff9913e8",
					"conversations(address,uint256)": "3befea09",
					"disallow(address)": "a9ed9cb8",
					"follow(address)": "4dbf27cc",
					"following(address,uint256)": "9139cda5",
					"getLatestTweets(uint256)": "4dc0a687",
					"getLatestofUser(address,uint256)": "5284b64a",
					"operators(address,address)": "2637588e",
					"sendMessage(address,address,string)": "b88e318d",
					"sendMessage(string,address)": "c48d6d5e",
					"tweet(address,string)": "d21d1596",
					"tweet(string)": "fb46d4c5",
					"tweets(uint256)": "e8d857b0",
					"tweetsOf(address,uint256)": "af22bf94"
				}
			},
			"storageLayout": {
				"storage": [
					{
						"astId": 26,
						"contract": "contracts/Twitter-Assignment/twitter-example.sol:TweetContract",
						"label": "tweets",
						"offset": 0,
						"slot": "0",
						"type": "t_mapping(t_uint256,t_struct(Tweet)10_storage)"
					},
					{
						"astId": 31,
						"contract": "contracts/Twitter-Assignment/twitter-example.sol:TweetContract",
						"label": "tweetsOf",
						"offset": 0,
						"slot": "1",
						"type": "t_mapping(t_address,t_array(t_uint256)dyn_storage)"
					},
					{
						"astId": 37,
						"contract": "contracts/Twitter-Assignment/twitter-example.sol:TweetContract",
						"label": "conversations",
						"offset": 0,
						"slot": "2",
						"type": "t_mapping(t_address,t_array(t_struct(Message)21_storage)dyn_storage)"
					},
					{
						"astId": 43,
						"contract": "contracts/Twitter-Assignment/twitter-example.sol:TweetContract",
						"label": "operators",
						"offset": 0,
						"slot": "3",
						"type": "t_mapping(t_address,t_mapping(t_address,t_bool))"
					},
					{
						"astId": 48,
						"contract": "contracts/Twitter-Assignment/twitter-example.sol:TweetContract",
						"label": "following",
						"offset": 0,
						"slot": "4",
						"type": "t_mapping(t_address,t_array(t_address)dyn_storage)"
					},
					{
						"astId": 50,
						"contract": "contracts/Twitter-Assignment/twitter-example.sol:TweetContract",
						"label": "nextId",
						"offset": 0,
						"slot": "5",
						"type": "t_uint256"
					},
					{
						"astId": 52,
						"contract": "contracts/Twitter-Assignment/twitter-example.sol:TweetContract",
						"label": "nextMessageId",
						"offset": 0,
						"slot": "6",
						"type": "t_uint256"
					}
				],
				"types": {
					"t_address": {
						"encoding": "inplace",
						"label": "address",
						"numberOfBytes": "20"
					},
					"t_array(t_address)dyn_storage": {
						"base": "t_address",
						"encoding": "dynamic_array",
						"label": "address[]",
						"numberOfBytes": "32"
					},
					"t_array(t_struct(Message)21_storage)dyn_storage": {
						"base": "t_struct(Message)21_storage",
						"encoding": "dynamic_array",
						"label": "struct TweetContract.Message[]",
						"numberOfBytes": "32"
					},
					"t_array(t_uint256)dyn_storage": {
						"base": "t_uint256",
						"encoding": "dynamic_array",
						"label": "uint256[]",
						"numberOfBytes": "32"
					},
					"t_bool": {
						"encoding": "inplace",
						"label": "bool",
						"numberOfBytes": "1"
					},
					"t_mapping(t_address,t_array(t_address)dyn_storage)": {
						"encoding": "mapping",
						"key": "t_address",
						"label": "mapping(address => address[])",
						"numberOfBytes": "32",
						"value": "t_array(t_address)dyn_storage"
					},
					"t_mapping(t_address,t_array(t_struct(Message)21_storage)dyn_storage)": {
						"encoding": "mapping",
						"key": "t_address",
						"label": "mapping(address => struct TweetContract.Message[])",
						"numberOfBytes": "32",
						"value": "t_array(t_struct(Message)21_storage)dyn_storage"
					},
					"t_mapping(t_address,t_array(t_uint256)dyn_storage)": {
						"encoding": "mapping",
						"key": "t_address",
						"label": "mapping(address => uint256[])",
						"numberOfBytes": "32",
						"value": "t_array(t_uint256)dyn_storage"
					},
					"t_mapping(t_address,t_bool)": {
						"encoding": "mapping",
						"key": "t_address",
						"label": "mapping(address => bool)",
						"numberOfBytes": "32",
						"value": "t_bool"
					},
					"t_mapping(t_address,t_mapping(t_address,t_bool))": {
						"encoding": "mapping",
						"key": "t_address",
						"label": "mapping(address => mapping(address => bool))",
						"numberOfBytes": "32",
						"value": "t_mapping(t_address,t_bool)"
					},
					"t_mapping(t_uint256,t_struct(Tweet)10_storage)": {
						"encoding": "mapping",
						"key": "t_uint256",
						"label": "mapping(uint256 => struct TweetContract.Tweet)",
						"numberOfBytes": "32",
						"value": "t_struct(Tweet)10_storage"
					},
					"t_string_storage": {
						"encoding": "bytes",
						"label": "string",
						"numberOfBytes": "32"
					},
					"t_struct(Message)21_storage": {
						"encoding": "inplace",
						"label": "struct TweetContract.Message",
						"members": [
							{
								"astId": 12,
								"contract": "contracts/Twitter-Assignment/twitter-example.sol:TweetContract",
								"label": "id",
								"offset": 0,
								"slot": "0",
								"type": "t_uint256"
							},
							{
								"astId": 14,
								"contract": "contracts/Twitter-Assignment/twitter-example.sol:TweetContract",
								"label": "content",
								"offset": 0,
								"slot": "1",
								"type": "t_string_storage"
							},
							{
								"astId": 16,
								"contract": "contracts/Twitter-Assignment/twitter-example.sol:TweetContract",
								"label": "from",
								"offset": 0,
								"slot": "2",
								"type": "t_address"
							},
							{
								"astId": 18,
								"contract": "contracts/Twitter-Assignment/twitter-example.sol:TweetContract",
								"label": "to",
								"offset": 0,
								"slot": "3",
								"type": "t_address"
							},
							{
								"astId": 20,
								"contract": "contracts/Twitter-Assignment/twitter-example.sol:TweetContract",
								"label": "createdAt",
								"offset": 0,
								"slot": "4",
								"type": "t_uint256"
							}
						],
						"numberOfBytes": "160"
					},
					"t_struct(Tweet)10_storage": {
						"encoding": "inplace",
						"label": "struct TweetContract.Tweet",
						"members": [
							{
								"astId": 3,
								"contract": "contracts/Twitter-Assignment/twitter-example.sol:TweetContract",
								"label": "id",
								"offset": 0,
								"slot": "0",
								"type": "t_uint256"
							},
							{
								"astId": 5,
								"contract": "contracts/Twitter-Assignment/twitter-example.sol:TweetContract",
								"label": "author",
								"offset": 0,
								"slot": "1",
								"type": "t_address"
							},
							{
								"astId": 7,
								"contract": "contracts/Twitter-Assignment/twitter-example.sol:TweetContract",
								"label": "content",
								"offset": 0,
								"slot": "2",
								"type": "t_string_storage"
							},
							{
								"astId": 9,
								"contract": "contracts/Twitter-Assignment/twitter-example.sol:TweetContract",
								"label": "createdAt",
								"offset": 0,
								"slot": "3",
								"type": "t_uint256"
							}
						],
						"numberOfBytes": "128"
					},
					"t_uint256": {
						"encoding": "inplace",
						"label": "uint256",
						"numberOfBytes": "32"
					}
				}
			},
			"userdoc": {
				"kind": "user",
				"methods": {},
				"version": 1
			}
		}
	}
}