{
	"contracts/functions.sol": {
		"Functions": {
			"abi": [
				{
					"inputs": [],
					"name": "addition",
					"outputs": [],
					"stateMutability": "pure",
					"type": "function"
				},
				{
					"inputs": [],
					"name": "changeState",
					"outputs": [],
					"stateMutability": "nonpayable",
					"type": "function"
				},
				{
					"inputs": [],
					"name": "count",
					"outputs": [
						{
							"internalType": "uint256",
							"name": "",
							"type": "uint256"
						}
					],
					"stateMutability": "view",
					"type": "function"
				},
				{
					"inputs": [
						{
							"internalType": "int256",
							"name": "num1",
							"type": "int256"
						},
						{
							"internalType": "int256",
							"name": "num2",
							"type": "int256"
						}
					],
					"name": "division",
					"outputs": [
						{
							"internalType": "int256",
							"name": "",
							"type": "int256"
						}
					],
					"stateMutability": "pure",
					"type": "function"
				},
				{
					"inputs": [],
					"name": "greet",
					"outputs": [
						{
							"internalType": "string",
							"name": "",
							"type": "string"
						}
					],
					"stateMutability": "view",
					"type": "function"
				},
				{
					"inputs": [],
					"name": "multiplication",
					"outputs": [
						{
							"internalType": "int256",
							"name": "",
							"type": "int256"
						}
					],
					"stateMutability": "view",
					"type": "function"
				},
				{
					"inputs": [],
					"name": "substract",
					"outputs": [
						{
							"internalType": "int256",
							"name": "",
							"type": "int256"
						}
					],
					"stateMutability": "pure",
					"type": "function"
				}
			],
			"devdoc": {
				"kind": "dev",
				"methods": {},
				"version": 1
			},
			"evm": {
				"assembly": "    /* \"contracts/functions.sol\":70:1081  contract Functions {... */\n  mstore(0x40, 0x80)\n    /* \"contracts/functions.sol\":96:132  string public greet = \"Hello World!\" */\n  mload(0x40)\n  dup1\n  0x40\n  add\n  0x40\n  mstore\n  dup1\n  0x0c\n  dup2\n  mstore\n  0x20\n  add\n  0x48656c6c6f20576f726c64210000000000000000000000000000000000000000\n  dup2\n  mstore\n  pop\n  0x00\n  swap1\n  dup2\n  tag_1\n  swap2\n  swap1\n  tag_2\n  jump\t// in\ntag_1:\n  pop\n    /* \"contracts/functions.sol\":148:149  5 */\n  0x05\n    /* \"contracts/functions.sol\":141:149  int a =5 */\n  0x01\n  sstore\n    /* \"contracts/functions.sol\":163:165  10 */\n  0x0a\n    /* \"contracts/functions.sol\":156:165  int b= 10 */\n  0x02\n  sstore\n    /* \"contracts/functions.sol\":194:196  10 */\n  0x0a\n    /* \"contracts/functions.sol\":174:196  uint public count = 10 */\n  0x03\n  sstore\n    /* \"contracts/functions.sol\":70:1081  contract Functions {... */\n  callvalue\n  dup1\n  iszero\n  tag_3\n  jumpi\n  revert(0x00, 0x00)\ntag_3:\n  pop\n  jump(tag_4)\n    /* \"#utility.yul\":7:106   */\ntag_5:\n    /* \"#utility.yul\":59:65   */\n  0x00\n    /* \"#utility.yul\":93:98   */\n  dup2\n    /* \"#utility.yul\":87:99   */\n  mload\n    /* \"#utility.yul\":77:99   */\n  swap1\n  pop\n    /* \"#utility.yul\":7:106   */\n  swap2\n  swap1\n  pop\n  jump\t// out\n    /* \"#utility.yul\":112:292   */\ntag_6:\n    /* \"#utility.yul\":160:237   */\n  0x4e487b7100000000000000000000000000000000000000000000000000000000\n    /* \"#utility.yul\":157:158   */\n  0x00\n    /* \"#utility.yul\":150:238   */\n  mstore\n    /* \"#utility.yul\":257:261   */\n  0x41\n    /* \"#utility.yul\":254:255   */\n  0x04\n    /* \"#utility.yul\":247:262   */\n  mstore\n    /* \"#utility.yul\":281:285   */\n  0x24\n    /* \"#utility.yul\":278:279   */\n  0x00\n    /* \"#utility.yul\":271:286   */\n  revert\n    /* \"#utility.yul\":298:478   */\ntag_7:\n    /* \"#utility.yul\":346:423   */\n  0x4e487b7100000000000000000000000000000000000000000000000000000000\n    /* \"#utility.yul\":343:344   */\n  0x00\n    /* \"#utility.yul\":336:424   */\n  mstore\n    /* \"#utility.yul\":443:447   */\n  0x22\n    /* \"#utility.yul\":440:441   */\n  0x04\n    /* \"#utility.yul\":433:448   */\n  mstore\n    /* \"#utility.yul\":467:471   */\n  0x24\n    /* \"#utility.yul\":464:465   */\n  0x00\n    /* \"#utility.yul\":457:472   */\n  revert\n    /* \"#utility.yul\":484:804   */\ntag_8:\n    /* \"#utility.yul\":528:534   */\n  0x00\n    /* \"#utility.yul\":565:566   */\n  0x02\n    /* \"#utility.yul\":559:563   */\n  dup3\n    /* \"#utility.yul\":555:567   */\n  div\n    /* \"#utility.yul\":545:567   */\n  swap1\n  pop\n    /* \"#utility.yul\":612:613   */\n  0x01\n    /* \"#utility.yul\":606:610   */\n  dup3\n    /* \"#utility.yul\":602:614   */\n  and\n    /* \"#utility.yul\":633:651   */\n  dup1\n    /* \"#utility.yul\":623:704   */\n  tag_30\n  jumpi\n    /* \"#utility.yul\":689:693   */\n  0x7f\n    /* \"#utility.yul\":681:687   */\n  dup3\n    /* \"#utility.yul\":677:694   */\n  and\n    /* \"#utility.yul\":667:694   */\n  swap2\n  pop\n    /* \"#utility.yul\":623:704   */\ntag_30:\n    /* \"#utility.yul\":751:753   */\n  0x20\n    /* \"#utility.yul\":743:749   */\n  dup3\n    /* \"#utility.yul\":740:754   */\n  lt\n    /* \"#utility.yul\":720:738   */\n  dup2\n    /* \"#utility.yul\":717:755   */\n  sub\n    /* \"#utility.yul\":714:798   */\n  tag_31\n  jumpi\n    /* \"#utility.yul\":770:788   */\n  tag_32\n  tag_7\n  jump\t// in\ntag_32:\n    /* \"#utility.yul\":714:798   */\ntag_31:\n    /* \"#utility.yul\":535:804   */\n  pop\n    /* \"#utility.yul\":484:804   */\n  swap2\n  swap1\n  pop\n  jump\t// out\n    /* \"#utility.yul\":810:951   */\ntag_9:\n    /* \"#utility.yul\":859:863   */\n  0x00\n    /* \"#utility.yul\":882:885   */\n  dup2\n    /* \"#utility.yul\":874:885   */\n  swap1\n  pop\n    /* \"#utility.yul\":905:908   */\n  dup2\n    /* \"#utility.yul\":902:903   */\n  0x00\n    /* \"#utility.yul\":895:909   */\n  mstore\n    /* \"#utility.yul\":939:943   */\n  0x20\n    /* \"#utility.yul\":936:937   */\n  0x00\n    /* \"#utility.yul\":926:944   */\n  keccak256\n    /* \"#utility.yul\":918:944   */\n  swap1\n  pop\n    /* \"#utility.yul\":810:951   */\n  swap2\n  swap1\n  pop\n  jump\t// out\n    /* \"#utility.yul\":957:1050   */\ntag_10:\n    /* \"#utility.yul\":994:1000   */\n  0x00\n    /* \"#utility.yul\":1041:1043   */\n  0x20\n    /* \"#utility.yul\":1036:1038   */\n  0x1f\n    /* \"#utility.yul\":1029:1034   */\n  dup4\n    /* \"#utility.yul\":1025:1039   */\n  add\n    /* \"#utility.yul\":1021:1044   */\n  div\n    /* \"#utility.yul\":1011:1044   */\n  swap1\n  pop\n    /* \"#utility.yul\":957:1050   */\n  swap2\n  swap1\n  pop\n  jump\t// out\n    /* \"#utility.yul\":1056:1163   */\ntag_11:\n    /* \"#utility.yul\":1100:1108   */\n  0x00\n    /* \"#utility.yul\":1150:1155   */\n  dup3\n    /* \"#utility.yul\":1144:1148   */\n  dup3\n    /* \"#utility.yul\":1140:1156   */\n  shl\n    /* \"#utility.yul\":1119:1156   */\n  swap1\n  pop\n    /* \"#utility.yul\":1056:1163   */\n  swap3\n  swap2\n  pop\n  pop\n  jump\t// out\n    /* \"#utility.yul\":1169:1562   */\ntag_12:\n    /* \"#utility.yul\":1238:1244   */\n  0x00\n    /* \"#utility.yul\":1288:1289   */\n  0x08\n    /* \"#utility.yul\":1276:1286   */\n  dup4\n    /* \"#utility.yul\":1272:1290   */\n  mul\n    /* \"#utility.yul\":1311:1408   */\n  tag_37\n    /* \"#utility.yul\":1341:1407   */\n  0xffffffffffffffffffffffffffffffffffffffffffffffffffffffffffffffff\n    /* \"#utility.yul\":1330:1339   */\n  dup3\n    /* \"#utility.yul\":1311:1408   */\n  tag_11\n  jump\t// in\ntag_37:\n    /* \"#utility.yul\":1429:1468   */\n  tag_38\n    /* \"#utility.yul\":1459:1467   */\n  dup7\n    /* \"#utility.yul\":1448:1457   */\n  dup4\n    /* \"#utility.yul\":1429:1468   */\n  tag_11\n  jump\t// in\ntag_38:\n    /* \"#utility.yul\":1417:1468   */\n  swap6\n  pop\n    /* \"#utility.yul\":1501:1505   */\n  dup1\n    /* \"#utility.yul\":1497:1506   */\n  not\n    /* \"#utility.yul\":1490:1495   */\n  dup5\n    /* \"#utility.yul\":1486:1507   */\n  and\n    /* \"#utility.yul\":1477:1507   */\n  swap4\n  pop\n    /* \"#utility.yul\":1550:1554   */\n  dup1\n    /* \"#utility.yul\":1540:1548   */\n  dup7\n    /* \"#utility.yul\":1536:1555   */\n  and\n    /* \"#utility.yul\":1529:1534   */\n  dup5\n    /* \"#utility.yul\":1526:1556   */\n  or\n    /* \"#utility.yul\":1516:1556   */\n  swap3\n  pop\n    /* \"#utility.yul\":1245:1562   */\n  pop\n  pop\n    /* \"#utility.yul\":1169:1562   */\n  swap4\n  swap3\n  pop\n  pop\n  pop\n  jump\t// out\n    /* \"#utility.yul\":1568:1645   */\ntag_13:\n    /* \"#utility.yul\":1605:1612   */\n  0x00\n    /* \"#utility.yul\":1634:1639   */\n  dup2\n    /* \"#utility.yul\":1623:1639   */\n  swap1\n  pop\n    /* \"#utility.yul\":1568:1645   */\n  swap2\n  swap1\n  pop\n  jump\t// out\n    /* \"#utility.yul\":1651:1711   */\ntag_14:\n    /* \"#utility.yul\":1679:1682   */\n  0x00\n    /* \"#utility.yul\":1700:1705   */\n  dup2\n    /* \"#utility.yul\":1693:1705   */\n  swap1\n  pop\n    /* \"#utility.yul\":1651:1711   */\n  swap2\n  swap1\n  pop\n  jump\t// out\n    /* \"#utility.yul\":1717:1859   */\ntag_15:\n    /* \"#utility.yul\":1767:1776   */\n  0x00\n    /* \"#utility.yul\":1800:1853   */\n  tag_42\n    /* \"#utility.yul\":1818:1852   */\n  tag_43\n    /* \"#utility.yul\":1827:1851   */\n  tag_44\n    /* \"#utility.yul\":1845:1850   */\n  dup5\n    /* \"#utility.yul\":1827:1851   */\n  tag_13\n  jump\t// in\ntag_44:\n    /* \"#utility.yul\":1818:1852   */\n  tag_14\n  jump\t// in\ntag_43:\n    /* \"#utility.yul\":1800:1853   */\n  tag_13\n  jump\t// in\ntag_42:\n    /* \"#utility.yul\":1787:1853   */\n  swap1\n  pop\n    /* \"#utility.yul\":1717:1859   */\n  swap2\n  swap1\n  pop\n  jump\t// out\n    /* \"#utility.yul\":1865:1940   */\ntag_16:\n    /* \"#utility.yul\":1908:1911   */\n  0x00\n    /* \"#utility.yul\":1929:1934   */\n  dup2\n    /* \"#utility.yul\":1922:1934   */\n  swap1\n  pop\n    /* \"#utility.yul\":1865:1940   */\n  swap2\n  swap1\n  pop\n  jump\t// out\n    /* \"#utility.yul\":1946:2215   */\ntag_17:\n    /* \"#utility.yul\":2056:2095   */\n  tag_47\n    /* \"#utility.yul\":2087:2094   */\n  dup4\n    /* \"#utility.yul\":2056:2095   */\n  tag_15\n  jump\t// in\ntag_47:\n    /* \"#utility.yul\":2117:2208   */\n  tag_48\n    /* \"#utility.yul\":2166:2207   */\n  tag_49\n    /* \"#utility.yul\":2190:2206   */\n  dup3\n    /* \"#utility.yul\":2166:2207   */\n  tag_16\n  jump\t// in\ntag_49:\n    /* \"#utility.yul\":2158:2164   */\n  dup5\n    /* \"#utility.yul\":2151:2155   */\n  dup5\n    /* \"#utility.yul\":2145:2156   */\n  sload\n    /* \"#utility.yul\":2117:2208   */\n  tag_12\n  jump\t// in\ntag_48:\n    /* \"#utility.yul\":2111:2115   */\n  dup3\n    /* \"#utility.yul\":2104:2209   */\n  sstore\n    /* \"#utility.yul\":2022:2215   */\n  pop\n    /* \"#utility.yul\":1946:2215   */\n  pop\n  pop\n  pop\n  jump\t// out\n    /* \"#utility.yul\":2221:2294   */\ntag_18:\n    /* \"#utility.yul\":2266:2269   */\n  0x00\n    /* \"#utility.yul\":2287:2288   */\n  0x00\n    /* \"#utility.yul\":2280:2288   */\n  swap1\n  pop\n    /* \"#utility.yul\":2221:2294   */\n  swap1\n  jump\t// out\n    /* \"#utility.yul\":2300:2489   */\ntag_19:\n    /* \"#utility.yul\":2377:2409   */\n  tag_52\n  tag_18\n  jump\t// in\ntag_52:\n    /* \"#utility.yul\":2418:2483   */\n  tag_53\n    /* \"#utility.yul\":2476:2482   */\n  dup2\n    /* \"#utility.yul\":2468:2474   */\n  dup5\n    /* \"#utility.yul\":2462:2466   */\n  dup5\n    /* \"#utility.yul\":2418:2483   */\n  tag_17\n  jump\t// in\ntag_53:\n    /* \"#utility.yul\":2353:2489   */\n  pop\n    /* \"#utility.yul\":2300:2489   */\n  pop\n  pop\n  jump\t// out\n    /* \"#utility.yul\":2495:2681   */\ntag_20:\n    /* \"#utility.yul\":2555:2675   */\ntag_55:\n    /* \"#utility.yul\":2572:2575   */\n  dup2\n    /* \"#utility.yul\":2565:2570   */\n  dup2\n    /* \"#utility.yul\":2562:2576   */\n  lt\n    /* \"#utility.yul\":2555:2675   */\n  iszero\n  tag_57\n  jumpi\n    /* \"#utility.yul\":2626:2665   */\n  tag_58\n    /* \"#utility.yul\":2663:2664   */\n  0x00\n    /* \"#utility.yul\":2656:2661   */\n  dup3\n    /* \"#utility.yul\":2626:2665   */\n  tag_19\n  jump\t// in\ntag_58:\n    /* \"#utility.yul\":2599:2600   */\n  0x01\n    /* \"#utility.yul\":2592:2597   */\n  dup2\n    /* \"#utility.yul\":2588:2601   */\n  add\n    /* \"#utility.yul\":2579:2601   */\n  swap1\n  pop\n    /* \"#utility.yul\":2555:2675   */\n  jump(tag_55)\ntag_57:\n    /* \"#utility.yul\":2495:2681   */\n  pop\n  pop\n  jump\t// out\n    /* \"#utility.yul\":2687:3230   */\ntag_21:\n    /* \"#utility.yul\":2788:2790   */\n  0x1f\n    /* \"#utility.yul\":2783:2786   */\n  dup3\n    /* \"#utility.yul\":2780:2791   */\n  gt\n    /* \"#utility.yul\":2777:3223   */\n  iszero\n  tag_60\n  jumpi\n    /* \"#utility.yul\":2822:2860   */\n  tag_61\n    /* \"#utility.yul\":2854:2859   */\n  dup2\n    /* \"#utility.yul\":2822:2860   */\n  tag_9\n  jump\t// in\ntag_61:\n    /* \"#utility.yul\":2906:2935   */\n  tag_62\n    /* \"#utility.yul\":2924:2934   */\n  dup5\n    /* \"#utility.yul\":2906:2935   */\n  tag_10\n  jump\t// in\ntag_62:\n    /* \"#utility.yul\":2896:2904   */\n  dup2\n    /* \"#utility.yul\":2892:2936   */\n  add\n    /* \"#utility.yul\":3089:3091   */\n  0x20\n    /* \"#utility.yul\":3077:3087   */\n  dup6\n    /* \"#utility.yul\":3074:3092   */\n  lt\n    /* \"#utility.yul\":3071:3120   */\n  iszero\n  tag_63\n  jumpi\n    /* \"#utility.yul\":3110:3118   */\n  dup2\n    /* \"#utility.yul\":3095:3118   */\n  swap1\n  pop\n    /* \"#utility.yul\":3071:3120   */\ntag_63:\n    /* \"#utility.yul\":3133:3213   */\n  tag_64\n    /* \"#utility.yul\":3189:3211   */\n  tag_65\n    /* \"#utility.yul\":3207:3210   */\n  dup6\n    /* \"#utility.yul\":3189:3211   */\n  tag_10\n  jump\t// in\ntag_65:\n    /* \"#utility.yul\":3179:3187   */\n  dup4\n    /* \"#utility.yul\":3175:3212   */\n  add\n    /* \"#utility.yul\":3162:3173   */\n  dup3\n    /* \"#utility.yul\":3133:3213   */\n  tag_20\n  jump\t// in\ntag_64:\n    /* \"#utility.yul\":2792:3223   */\n  pop\n  pop\n    /* \"#utility.yul\":2777:3223   */\ntag_60:\n    /* \"#utility.yul\":2687:3230   */\n  pop\n  pop\n  pop\n  jump\t// out\n    /* \"#utility.yul\":3236:3353   */\ntag_22:\n    /* \"#utility.yul\":3290:3298   */\n  0x00\n    /* \"#utility.yul\":3340:3345   */\n  dup3\n    /* \"#utility.yul\":3334:3338   */\n  dup3\n    /* \"#utility.yul\":3330:3346   */\n  shr\n    /* \"#utility.yul\":3309:3346   */\n  swap1\n  pop\n    /* \"#utility.yul\":3236:3353   */\n  swap3\n  swap2\n  pop\n  pop\n  jump\t// out\n    /* \"#utility.yul\":3359:3528   */\ntag_23:\n    /* \"#utility.yul\":3403:3409   */\n  0x00\n    /* \"#utility.yul\":3436:3487   */\n  tag_68\n    /* \"#utility.yul\":3484:3485   */\n  0x00\n    /* \"#utility.yul\":3480:3486   */\n  not\n    /* \"#utility.yul\":3472:3477   */\n  dup5\n    /* \"#utility.yul\":3469:3470   */\n  0x08\n    /* \"#utility.yul\":3465:3478   */\n  mul\n    /* \"#utility.yul\":3436:3487   */\n  tag_22\n  jump\t// in\ntag_68:\n    /* \"#utility.yul\":3432:3488   */\n  not\n    /* \"#utility.yul\":3517:3521   */\n  dup1\n    /* \"#utility.yul\":3511:3515   */\n  dup4\n    /* \"#utility.yul\":3507:3522   */\n  and\n    /* \"#utility.yul\":3497:3522   */\n  swap2\n  pop\n    /* \"#utility.yul\":3410:3528   */\n  pop\n    /* \"#utility.yul\":3359:3528   */\n  swap3\n  swap2\n  pop\n  pop\n  jump\t// out\n    /* \"#utility.yul\":3533:3828   */\ntag_24:\n    /* \"#utility.yul\":3609:3613   */\n  0x00\n    /* \"#utility.yul\":3755:3784   */\n  tag_70\n    /* \"#utility.yul\":3780:3783   */\n  dup4\n    /* \"#utility.yul\":3774:3778   */\n  dup4\n    /* \"#utility.yul\":3755:3784   */\n  tag_23\n  jump\t// in\ntag_70:\n    /* \"#utility.yul\":3747:3784   */\n  swap2\n  pop\n    /* \"#utility.yul\":3817:3820   */\n  dup3\n    /* \"#utility.yul\":3814:3815   */\n  0x02\n    /* \"#utility.yul\":3810:3821   */\n  mul\n    /* \"#utility.yul\":3804:3808   */\n  dup3\n    /* \"#utility.yul\":3801:3822   */\n  or\n    /* \"#utility.yul\":3793:3822   */\n  swap1\n  pop\n    /* \"#utility.yul\":3533:3828   */\n  swap3\n  swap2\n  pop\n  pop\n  jump\t// out\n    /* \"#utility.yul\":3833:5228   */\ntag_2:\n    /* \"#utility.yul\":3950:3987   */\n  tag_72\n    /* \"#utility.yul\":3983:3986   */\n  dup3\n    /* \"#utility.yul\":3950:3987   */\n  tag_5\n  jump\t// in\ntag_72:\n    /* \"#utility.yul\":4052:4070   */\n  0xffffffffffffffff\n    /* \"#utility.yul\":4044:4050   */\n  dup2\n    /* \"#utility.yul\":4041:4071   */\n  gt\n    /* \"#utility.yul\":4038:4094   */\n  iszero\n  tag_73\n  jumpi\n    /* \"#utility.yul\":4074:4092   */\n  tag_74\n  tag_6\n  jump\t// in\ntag_74:\n    /* \"#utility.yul\":4038:4094   */\ntag_73:\n    /* \"#utility.yul\":4118:4156   */\n  tag_75\n    /* \"#utility.yul\":4150:4154   */\n  dup3\n    /* \"#utility.yul\":4144:4155   */\n  sload\n    /* \"#utility.yul\":4118:4156   */\n  tag_8\n  jump\t// in\ntag_75:\n    /* \"#utility.yul\":4203:4270   */\n  tag_76\n    /* \"#utility.yul\":4263:4269   */\n  dup3\n    /* \"#utility.yul\":4255:4261   */\n  dup3\n    /* \"#utility.yul\":4249:4253   */\n  dup6\n    /* \"#utility.yul\":4203:4270   */\n  tag_21\n  jump\t// in\ntag_76:\n    /* \"#utility.yul\":4297:4298   */\n  0x00\n    /* \"#utility.yul\":4321:4325   */\n  0x20\n    /* \"#utility.yul\":4308:4325   */\n  swap1\n  pop\n    /* \"#utility.yul\":4353:4355   */\n  0x1f\n    /* \"#utility.yul\":4345:4351   */\n  dup4\n    /* \"#utility.yul\":4342:4356   */\n  gt\n    /* \"#utility.yul\":4370:4371   */\n  0x01\n    /* \"#utility.yul\":4365:4983   */\n  dup2\n  eq\n  tag_78\n  jumpi\n    /* \"#utility.yul\":5027:5028   */\n  0x00\n    /* \"#utility.yul\":5044:5050   */\n  dup5\n    /* \"#utility.yul\":5041:5118   */\n  iszero\n  tag_79\n  jumpi\n    /* \"#utility.yul\":5093:5102   */\n  dup3\n    /* \"#utility.yul\":5088:5091   */\n  dup8\n    /* \"#utility.yul\":5084:5103   */\n  add\n    /* \"#utility.yul\":5078:5104   */\n  mload\n    /* \"#utility.yul\":5069:5104   */\n  swap1\n  pop\n    /* \"#utility.yul\":5041:5118   */\ntag_79:\n    /* \"#utility.yul\":5144:5211   */\n  tag_80\n    /* \"#utility.yul\":5204:5210   */\n  dup6\n    /* \"#utility.yul\":5197:5202   */\n  dup3\n    /* \"#utility.yul\":5144:5211   */\n  tag_24\n  jump\t// in\ntag_80:\n    /* \"#utility.yul\":5138:5142   */\n  dup7\n    /* \"#utility.yul\":5131:5212   */\n  sstore\n    /* \"#utility.yul\":5000:5222   */\n  pop\n    /* \"#utility.yul\":4335:5222   */\n  jump(tag_77)\n    /* \"#utility.yul\":4365:4983   */\ntag_78:\n    /* \"#utility.yul\":4417:4421   */\n  0x1f\n    /* \"#utility.yul\":4413:4422   */\n  not\n    /* \"#utility.yul\":4405:4411   */\n  dup5\n    /* \"#utility.yul\":4401:4423   */\n  and\n    /* \"#utility.yul\":4451:4488   */\n  tag_81\n    /* \"#utility.yul\":4483:4487   */\n  dup7\n    /* \"#utility.yul\":4451:4488   */\n  tag_9\n  jump\t// in\ntag_81:\n    /* \"#utility.yul\":4510:4511   */\n  0x00\n    /* \"#utility.yul\":4524:4732   */\ntag_82:\n    /* \"#utility.yul\":4538:4545   */\n  dup3\n    /* \"#utility.yul\":4535:4536   */\n  dup2\n    /* \"#utility.yul\":4532:4546   */\n  lt\n    /* \"#utility.yul\":4524:4732   */\n  iszero\n  tag_84\n  jumpi\n    /* \"#utility.yul\":4617:4626   */\n  dup5\n    /* \"#utility.yul\":4612:4615   */\n  dup10\n    /* \"#utility.yul\":4608:4627   */\n  add\n    /* \"#utility.yul\":4602:4628   */\n  mload\n    /* \"#utility.yul\":4594:4600   */\n  dup3\n    /* \"#utility.yul\":4587:4629   */\n  sstore\n    /* \"#utility.yul\":4668:4669   */\n  0x01\n    /* \"#utility.yul\":4660:4666   */\n  dup3\n    /* \"#utility.yul\":4656:4670   */\n  add\n    /* \"#utility.yul\":4646:4670   */\n  swap2\n  pop\n    /* \"#utility.yul\":4715:4717   */\n  0x20\n    /* \"#utility.yul\":4704:4713   */\n  dup6\n    /* \"#utility.yul\":4700:4718   */\n  add\n    /* \"#utility.yul\":4687:4718   */\n  swap5\n  pop\n    /* \"#utility.yul\":4561:4565   */\n  0x20\n    /* \"#utility.yul\":4558:4559   */\n  dup2\n    /* \"#utility.yul\":4554:4566   */\n  add\n    /* \"#utility.yul\":4549:4566   */\n  swap1\n  pop\n    /* \"#utility.yul\":4524:4732   */\n  jump(tag_82)\ntag_84:\n    /* \"#utility.yul\":4760:4766   */\n  dup7\n    /* \"#utility.yul\":4751:4758   */\n  dup4\n    /* \"#utility.yul\":4748:4767   */\n  lt\n    /* \"#utility.yul\":4745:4924   */\n  iszero\n  tag_85\n  jumpi\n    /* \"#utility.yul\":4818:4827   */\n  dup5\n    /* \"#utility.yul\":4813:4816   */\n  dup10\n    /* \"#utility.yul\":4809:4828   */\n  add\n    /* \"#utility.yul\":4803:4829   */\n  mload\n    /* \"#utility.yul\":4861:4909   */\n  tag_86\n    /* \"#utility.yul\":4903:4907   */\n  0x1f\n    /* \"#utility.yul\":4895:4901   */\n  dup10\n    /* \"#utility.yul\":4891:4908   */\n  and\n    /* \"#utility.yul\":4880:4889   */\n  dup3\n    /* \"#utility.yul\":4861:4909   */\n  tag_23\n  jump\t// in\ntag_86:\n    /* \"#utility.yul\":4853:4859   */\n  dup4\n    /* \"#utility.yul\":4846:4910   */\n  sstore\n    /* \"#utility.yul\":4768:4924   */\n  pop\n    /* \"#utility.yul\":4745:4924   */\ntag_85:\n    /* \"#utility.yul\":4970:4971   */\n  0x01\n    /* \"#utility.yul\":4966:4967   */\n  0x02\n    /* \"#utility.yul\":4958:4964   */\n  dup9\n    /* \"#utility.yul\":4954:4968   */\n  mul\n    /* \"#utility.yul\":4950:4972   */\n  add\n    /* \"#utility.yul\":4944:4948   */\n  dup9\n    /* \"#utility.yul\":4937:4973   */\n  sstore\n    /* \"#utility.yul\":4372:4983   */\n  pop\n  pop\n  pop\n    /* \"#utility.yul\":4335:5222   */\ntag_77:\n  pop\n    /* \"#utility.yul\":3925:5228   */\n  pop\n  pop\n  pop\n    /* \"#utility.yul\":3833:5228   */\n  pop\n  pop\n  jump\t// out\n    /* \"contracts/functions.sol\":70:1081  contract Functions {... */\ntag_4:\n  dataSize(sub_0)\n  dup1\n  dataOffset(sub_0)\n  0x00\n  codecopy\n  0x00\n  return\nstop\n\nsub_0: assembly {\n        /* \"contracts/functions.sol\":70:1081  contract Functions {... */\n      mstore(0x40, 0x80)\n      callvalue\n      dup1\n      iszero\n      tag_1\n      jumpi\n      revert(0x00, 0x00)\n    tag_1:\n      pop\n      jumpi(tag_2, lt(calldatasize, 0x04))\n      shr(0xe0, calldataload(0x00))\n      dup1\n      0x8412e667\n      gt\n      tag_10\n      jumpi\n      dup1\n      0x8412e667\n      eq\n      tag_6\n      jumpi\n      dup1\n      0xcfae3217\n      eq\n      tag_7\n      jumpi\n      dup1\n      0xdf09a2da\n      eq\n      tag_8\n      jumpi\n      dup1\n      0xec597128\n      eq\n      tag_9\n      jumpi\n      jump(tag_2)\n    tag_10:\n      dup1\n      0x011285da\n      eq\n      tag_3\n      jumpi\n      dup1\n      0x06661abd\n      eq\n      tag_4\n      jumpi\n      dup1\n      0x09b7cdda\n      eq\n      tag_5\n      jumpi\n    tag_2:\n      revert(0x00, 0x00)\n        /* \"contracts/functions.sol\":761:843  function multiplication() public view  returns (int) {... */\n    tag_3:\n      tag_11\n      tag_12\n      jump\t// in\n    tag_11:\n      mload(0x40)\n      tag_13\n      swap2\n      swap1\n      tag_14\n      jump\t// in\n    tag_13:\n      mload(0x40)\n      dup1\n      swap2\n      sub\n      swap1\n      return\n        /* \"contracts/functions.sol\":174:196  uint public count = 10 */\n    tag_4:\n      tag_15\n      tag_16\n      jump\t// in\n    tag_15:\n      mload(0x40)\n      tag_17\n      swap2\n      swap1\n      tag_18\n      jump\t// in\n    tag_17:\n      mload(0x40)\n      dup1\n      swap2\n      sub\n      swap1\n      return\n        /* \"contracts/functions.sol\":851:949  function division(int num1, int num2) public pure returns(int){... */\n    tag_5:\n      tag_19\n      0x04\n      dup1\n      calldatasize\n      sub\n      dup2\n      add\n      swap1\n      tag_20\n      swap2\n      swap1\n      tag_21\n      jump\t// in\n    tag_20:\n      tag_22\n      jump\t// in\n    tag_19:\n      mload(0x40)\n      tag_23\n      swap2\n      swap1\n      tag_14\n      jump\t// in\n    tag_23:\n      mload(0x40)\n      dup1\n      swap2\n      sub\n      swap1\n      return\n        /* \"contracts/functions.sol\":957:1076  function changeState() public  {... */\n    tag_6:\n      tag_24\n      tag_25\n      jump\t// in\n    tag_24:\n      stop\n        /* \"contracts/functions.sol\":96:132  string public greet = \"Hello World!\" */\n    tag_7:\n      tag_26\n      tag_27\n      jump\t// in\n    tag_26:\n      mload(0x40)\n      tag_28\n      swap2\n      swap1\n      tag_29\n      jump\t// in\n    tag_28:\n      mload(0x40)\n      dup1\n      swap2\n      sub\n      swap1\n      return\n        /* \"contracts/functions.sol\":590:753  function substract() public pure returns(int) { // this functiona is returing something.... */\n    tag_8:\n      tag_30\n      tag_31\n      jump\t// in\n    tag_30:\n      mload(0x40)\n      tag_32\n      swap2\n      swap1\n      tag_14\n      jump\t// in\n    tag_32:\n      mload(0x40)\n      dup1\n      swap2\n      sub\n      swap1\n      return\n        /* \"contracts/functions.sol\":315:582  function addition() public pure { // if it is not using any state variable then use \"pure\" keyword. It's means that it is pure function and not using any state variavble... */\n    tag_9:\n      tag_33\n      tag_34\n      jump\t// in\n    tag_33:\n      stop\n        /* \"contracts/functions.sol\":761:843  function multiplication() public view  returns (int) {... */\n    tag_12:\n        /* \"contracts/functions.sol\":809:812  int */\n      0x00\n        /* \"contracts/functions.sol\":834:835  b */\n      sload(0x02)\n        /* \"contracts/functions.sol\":832:833  a */\n      sload(0x01)\n        /* \"contracts/functions.sol\":832:835  a*b */\n      tag_36\n      swap2\n      swap1\n      tag_37\n      jump\t// in\n    tag_36:\n        /* \"contracts/functions.sol\":825:835  return a*b */\n      swap1\n      pop\n        /* \"contracts/functions.sol\":761:843  function multiplication() public view  returns (int) {... */\n      swap1\n      jump\t// out\n        /* \"contracts/functions.sol\":174:196  uint public count = 10 */\n    tag_16:\n      sload(0x03)\n      dup2\n      jump\t// out\n        /* \"contracts/functions.sol\":851:949  function division(int num1, int num2) public pure returns(int){... */\n    tag_22:\n        /* \"contracts/functions.sol\":909:912  int */\n      0x00\n        /* \"contracts/functions.sol\":937:941  num1 */\n      dup3\n        /* \"contracts/functions.sol\":932:936  num2 */\n      dup3\n        /* \"contracts/functions.sol\":932:941  num2/num1 */\n      tag_39\n      swap2\n      swap1\n      tag_40\n      jump\t// in\n    tag_39:\n        /* \"contracts/functions.sol\":924:941  return  num2/num1 */\n      swap1\n      pop\n        /* \"contracts/functions.sol\":851:949  function division(int num1, int num2) public pure returns(int){... */\n      swap3\n      swap2\n      pop\n      pop\n      jump\t// out\n        /* \"contracts/functions.sol\":957:1076  function changeState() public  {... */\n    tag_25:\n        /* \"contracts/functions.sol\":1003:1006  100 */\n      0x64\n        /* \"contracts/functions.sol\":999:1000  a */\n      0x01\n        /* \"contracts/functions.sol\":999:1006  a = 100 */\n      dup2\n      swap1\n      sstore\n      pop\n        /* \"contracts/functions.sol\":1017:1022  int x */\n      0x00\n        /* \"contracts/functions.sol\":1033:1038  int y */\n      0x00\n        /* \"contracts/functions.sol\":1041:1044  200 */\n      0xc8\n        /* \"contracts/functions.sol\":1033:1044  int y = 200 */\n      swap1\n      pop\n        /* \"contracts/functions.sol\":1065:1066  a */\n      sload(0x01)\n        /* \"contracts/functions.sol\":1061:1062  y */\n      dup2\n        /* \"contracts/functions.sol\":1061:1066  y - a */\n      tag_42\n      swap2\n      swap1\n      tag_43\n      jump\t// in\n    tag_42:\n        /* \"contracts/functions.sol\":1057:1066  x = y - a */\n      swap2\n      pop\n        /* \"contracts/functions.sol\":988:1076  {... */\n      pop\n      pop\n        /* \"contracts/functions.sol\":957:1076  function changeState() public  {... */\n      jump\t// out\n        /* \"contracts/functions.sol\":96:132  string public greet = \"Hello World!\" */\n    tag_27:\n      0x00\n      dup1\n      sload\n      tag_44\n      swap1\n      tag_45\n      jump\t// in\n    tag_44:\n      dup1\n      0x1f\n      add\n      0x20\n      dup1\n      swap2\n      div\n      mul\n      0x20\n      add\n      mload(0x40)\n      swap1\n      dup2\n      add\n      0x40\n      mstore\n      dup1\n      swap3\n      swap2\n      swap1\n      dup2\n      dup2\n      mstore\n      0x20\n      add\n      dup3\n      dup1\n      sload\n      tag_46\n      swap1\n      tag_45\n      jump\t// in\n    tag_46:\n      dup1\n      iszero\n      tag_47\n      jumpi\n      dup1\n      0x1f\n      lt\n      tag_48\n      jumpi\n      0x0100\n      dup1\n      dup4\n      sload\n      div\n      mul\n      dup4\n      mstore\n      swap2\n      0x20\n      add\n      swap2\n      jump(tag_47)\n    tag_48:\n      dup3\n      add\n      swap2\n      swap1\n      0x00\n      mstore\n      keccak256(0x00, 0x20)\n      swap1\n    tag_49:\n      dup2\n      sload\n      dup2\n      mstore\n      swap1\n      0x01\n      add\n      swap1\n      0x20\n      add\n      dup1\n      dup4\n      gt\n      tag_49\n      jumpi\n      dup3\n      swap1\n      sub\n      0x1f\n      and\n      dup3\n      add\n      swap2\n    tag_47:\n      pop\n      pop\n      pop\n      pop\n      pop\n      dup2\n      jump\t// out\n        /* \"contracts/functions.sol\":590:753  function substract() public pure returns(int) { // this functiona is returing something.... */\n    tag_31:\n        /* \"contracts/functions.sol\":631:634  int */\n      0x00\n        /* \"contracts/functions.sol\":688:693  int d */\n      0x00\n        /* \"contracts/functions.sol\":694:695  9 */\n      0x09\n        /* \"contracts/functions.sol\":688:695  int d=9 */\n      swap1\n      pop\n        /* \"contracts/functions.sol\":706:711  int e */\n      0x00\n        /* \"contracts/functions.sol\":713:714  7 */\n      0x07\n        /* \"contracts/functions.sol\":706:714  int e =7 */\n      swap1\n      pop\n        /* \"contracts/functions.sol\":744:745  e */\n      dup1\n        /* \"contracts/functions.sol\":742:743  d */\n      dup3\n        /* \"contracts/functions.sol\":742:745  d-e */\n      tag_51\n      swap2\n      swap1\n      tag_43\n      jump\t// in\n    tag_51:\n        /* \"contracts/functions.sol\":734:745  return  d-e */\n      swap3\n      pop\n      pop\n      pop\n        /* \"contracts/functions.sol\":590:753  function substract() public pure returns(int) { // this functiona is returing something.... */\n      swap1\n      jump\t// out\n        /* \"contracts/functions.sol\":315:582  function addition() public pure { // if it is not using any state variable then use \"pure\" keyword. It's means that it is pure function and not using any state variavble... */\n    tag_34:\n        /* \"contracts/functions.sol\":494:503  uint num1 */\n      0x00\n        /* \"contracts/functions.sol\":506:507  8 */\n      0x08\n        /* \"contracts/functions.sol\":494:507  uint num1 = 8 */\n      swap1\n      pop\n        /* \"contracts/functions.sol\":518:527  uint num2 */\n      0x00\n        /* \"contracts/functions.sol\":529:530  4 */\n      0x04\n        /* \"contracts/functions.sol\":518:530  uint num2 =4 */\n      swap1\n      pop\n        /* \"contracts/functions.sol\":541:547  uint c */\n      0x00\n        /* \"contracts/functions.sol\":570:574  num2 */\n      dup2\n        /* \"contracts/functions.sol\":563:567  num1 */\n      dup4\n        /* \"contracts/functions.sol\":563:574  num1 + num2 */\n      tag_53\n      swap2\n      swap1\n      tag_54\n      jump\t// in\n    tag_53:\n        /* \"contracts/functions.sol\":558:574  c =  num1 + num2 */\n      swap1\n      pop\n        /* \"contracts/functions.sol\":347:582  { // if it is not using any state variable then use \"pure\" keyword. It's means that it is pure function and not using any state variavble... */\n      pop\n      pop\n      pop\n        /* \"contracts/functions.sol\":315:582  function addition() public pure { // if it is not using any state variable then use \"pure\" keyword. It's means that it is pure function and not using any state variavble... */\n      jump\t// out\n        /* \"#utility.yul\":7:83   */\n    tag_55:\n        /* \"#utility.yul\":43:50   */\n      0x00\n        /* \"#utility.yul\":72:77   */\n      dup2\n        /* \"#utility.yul\":61:77   */\n      swap1\n      pop\n        /* \"#utility.yul\":7:83   */\n      swap2\n      swap1\n      pop\n      jump\t// out\n        /* \"#utility.yul\":89:204   */\n    tag_56:\n        /* \"#utility.yul\":174:197   */\n      tag_75\n        /* \"#utility.yul\":191:196   */\n      dup2\n        /* \"#utility.yul\":174:197   */\n      tag_55\n      jump\t// in\n    tag_75:\n        /* \"#utility.yul\":169:172   */\n      dup3\n        /* \"#utility.yul\":162:198   */\n      mstore\n        /* \"#utility.yul\":89:204   */\n      pop\n      pop\n      jump\t// out\n        /* \"#utility.yul\":210:428   */\n    tag_14:\n        /* \"#utility.yul\":301:305   */\n      0x00\n        /* \"#utility.yul\":339:341   */\n      0x20\n        /* \"#utility.yul\":328:337   */\n      dup3\n        /* \"#utility.yul\":324:342   */\n      add\n        /* \"#utility.yul\":316:342   */\n      swap1\n      pop\n        /* \"#utility.yul\":352:421   */\n      tag_77\n        /* \"#utility.yul\":418:419   */\n      0x00\n        /* \"#utility.yul\":407:416   */\n      dup4\n        /* \"#utility.yul\":403:420   */\n      add\n        /* \"#utility.yul\":394:400   */\n      dup5\n        /* \"#utility.yul\":352:421   */\n      tag_56\n      jump\t// in\n    tag_77:\n        /* \"#utility.yul\":210:428   */\n      swap3\n      swap2\n      pop\n      pop\n      jump\t// out\n        /* \"#utility.yul\":434:511   */\n    tag_57:\n        /* \"#utility.yul\":471:478   */\n      0x00\n        /* \"#utility.yul\":500:505   */\n      dup2\n        /* \"#utility.yul\":489:505   */\n      swap1\n      pop\n        /* \"#utility.yul\":434:511   */\n      swap2\n      swap1\n      pop\n      jump\t// out\n        /* \"#utility.yul\":517:635   */\n    tag_58:\n        /* \"#utility.yul\":604:628   */\n      tag_80\n        /* \"#utility.yul\":622:627   */\n      dup2\n        /* \"#utility.yul\":604:628   */\n      tag_57\n      jump\t// in\n    tag_80:\n        /* \"#utility.yul\":599:602   */\n      dup3\n        /* \"#utility.yul\":592:629   */\n      mstore\n        /* \"#utility.yul\":517:635   */\n      pop\n      pop\n      jump\t// out\n        /* \"#utility.yul\":641:863   */\n    tag_18:\n        /* \"#utility.yul\":734:738   */\n      0x00\n        /* \"#utility.yul\":772:774   */\n      0x20\n        /* \"#utility.yul\":761:770   */\n      dup3\n        /* \"#utility.yul\":757:775   */\n      add\n        /* \"#utility.yul\":749:775   */\n      swap1\n      pop\n        /* \"#utility.yul\":785:856   */\n      tag_82\n        /* \"#utility.yul\":853:854   */\n      0x00\n        /* \"#utility.yul\":842:851   */\n      dup4\n        /* \"#utility.yul\":838:855   */\n      add\n        /* \"#utility.yul\":829:835   */\n      dup5\n        /* \"#utility.yul\":785:856   */\n      tag_58\n      jump\t// in\n    tag_82:\n        /* \"#utility.yul\":641:863   */\n      swap3\n      swap2\n      pop\n      pop\n      jump\t// out\n        /* \"#utility.yul\":950:1067   */\n    tag_60:\n        /* \"#utility.yul\":1059:1060   */\n      0x00\n        /* \"#utility.yul\":1056:1057   */\n      0x00\n        /* \"#utility.yul\":1049:1061   */\n      revert\n        /* \"#utility.yul\":1196:1316   */\n    tag_62:\n        /* \"#utility.yul\":1268:1291   */\n      tag_87\n        /* \"#utility.yul\":1285:1290   */\n      dup2\n        /* \"#utility.yul\":1268:1291   */\n      tag_55\n      jump\t// in\n    tag_87:\n        /* \"#utility.yul\":1261:1266   */\n      dup2\n        /* \"#utility.yul\":1258:1292   */\n      eq\n        /* \"#utility.yul\":1248:1310   */\n      tag_88\n      jumpi\n        /* \"#utility.yul\":1306:1307   */\n      0x00\n        /* \"#utility.yul\":1303:1304   */\n      0x00\n        /* \"#utility.yul\":1296:1308   */\n      revert\n        /* \"#utility.yul\":1248:1310   */\n    tag_88:\n        /* \"#utility.yul\":1196:1316   */\n      pop\n      jump\t// out\n        /* \"#utility.yul\":1322:1459   */\n    tag_63:\n        /* \"#utility.yul\":1367:1372   */\n      0x00\n        /* \"#utility.yul\":1405:1411   */\n      dup2\n        /* \"#utility.yul\":1392:1412   */\n      calldataload\n        /* \"#utility.yul\":1383:1412   */\n      swap1\n      pop\n        /* \"#utility.yul\":1421:1453   */\n      tag_90\n        /* \"#utility.yul\":1447:1452   */\n      dup2\n        /* \"#utility.yul\":1421:1453   */\n      tag_62\n      jump\t// in\n    tag_90:\n        /* \"#utility.yul\":1322:1459   */\n      swap3\n      swap2\n      pop\n      pop\n      jump\t// out\n        /* \"#utility.yul\":1465:1935   */\n    tag_21:\n        /* \"#utility.yul\":1531:1537   */\n      0x00\n        /* \"#utility.yul\":1539:1545   */\n      0x00\n        /* \"#utility.yul\":1588:1590   */\n      0x40\n        /* \"#utility.yul\":1576:1585   */\n      dup4\n        /* \"#utility.yul\":1567:1574   */\n      dup6\n        /* \"#utility.yul\":1563:1586   */\n      sub\n        /* \"#utility.yul\":1559:1591   */\n      slt\n        /* \"#utility.yul\":1556:1675   */\n      iszero\n      tag_92\n      jumpi\n        /* \"#utility.yul\":1594:1673   */\n      tag_93\n      tag_60\n      jump\t// in\n    tag_93:\n        /* \"#utility.yul\":1556:1675   */\n    tag_92:\n        /* \"#utility.yul\":1714:1715   */\n      0x00\n        /* \"#utility.yul\":1739:1791   */\n      tag_94\n        /* \"#utility.yul\":1783:1790   */\n      dup6\n        /* \"#utility.yul\":1774:1780   */\n      dup3\n        /* \"#utility.yul\":1763:1772   */\n      dup7\n        /* \"#utility.yul\":1759:1781   */\n      add\n        /* \"#utility.yul\":1739:1791   */\n      tag_63\n      jump\t// in\n    tag_94:\n        /* \"#utility.yul\":1729:1791   */\n      swap3\n      pop\n        /* \"#utility.yul\":1685:1801   */\n      pop\n        /* \"#utility.yul\":1840:1842   */\n      0x20\n        /* \"#utility.yul\":1866:1918   */\n      tag_95\n        /* \"#utility.yul\":1910:1917   */\n      dup6\n        /* \"#utility.yul\":1901:1907   */\n      dup3\n        /* \"#utility.yul\":1890:1899   */\n      dup7\n        /* \"#utility.yul\":1886:1908   */\n      add\n        /* \"#utility.yul\":1866:1918   */\n      tag_63\n      jump\t// in\n    tag_95:\n        /* \"#utility.yul\":1856:1918   */\n      swap2\n      pop\n        /* \"#utility.yul\":1811:1928   */\n      pop\n        /* \"#utility.yul\":1465:1935   */\n      swap3\n      pop\n      swap3\n      swap1\n      pop\n      jump\t// out\n        /* \"#utility.yul\":1941:2040   */\n    tag_64:\n        /* \"#utility.yul\":1993:1999   */\n      0x00\n        /* \"#utility.yul\":2027:2032   */\n      dup2\n        /* \"#utility.yul\":2021:2033   */\n      mload\n        /* \"#utility.yul\":2011:2033   */\n      swap1\n      pop\n        /* \"#utility.yul\":1941:2040   */\n      swap2\n      swap1\n      pop\n      jump\t// out\n        /* \"#utility.yul\":2046:2215   */\n    tag_65:\n        /* \"#utility.yul\":2130:2141   */\n      0x00\n        /* \"#utility.yul\":2164:2170   */\n      dup3\n        /* \"#utility.yul\":2159:2162   */\n      dup3\n        /* \"#utility.yul\":2152:2171   */\n      mstore\n        /* \"#utility.yul\":2204:2208   */\n      0x20\n        /* \"#utility.yul\":2199:2202   */\n      dup3\n        /* \"#utility.yul\":2195:2209   */\n      add\n        /* \"#utility.yul\":2180:2209   */\n      swap1\n      pop\n        /* \"#utility.yul\":2046:2215   */\n      swap3\n      swap2\n      pop\n      pop\n      jump\t// out\n        /* \"#utility.yul\":2221:2360   */\n    tag_66:\n        /* \"#utility.yul\":2310:2316   */\n      dup3\n        /* \"#utility.yul\":2305:2308   */\n      dup2\n        /* \"#utility.yul\":2300:2303   */\n      dup4\n        /* \"#utility.yul\":2294:2317   */\n      mcopy\n        /* \"#utility.yul\":2351:2352   */\n      0x00\n        /* \"#utility.yul\":2342:2348   */\n      dup4\n        /* \"#utility.yul\":2337:2340   */\n      dup4\n        /* \"#utility.yul\":2333:2349   */\n      add\n        /* \"#utility.yul\":2326:2353   */\n      mstore\n        /* \"#utility.yul\":2221:2360   */\n      pop\n      pop\n      pop\n      jump\t// out\n        /* \"#utility.yul\":2366:2468   */\n    tag_67:\n        /* \"#utility.yul\":2407:2413   */\n      0x00\n        /* \"#utility.yul\":2458:2460   */\n      0x1f\n        /* \"#utility.yul\":2454:2461   */\n      not\n        /* \"#utility.yul\":2449:2451   */\n      0x1f\n        /* \"#utility.yul\":2442:2447   */\n      dup4\n        /* \"#utility.yul\":2438:2452   */\n      add\n        /* \"#utility.yul\":2434:2462   */\n      and\n        /* \"#utility.yul\":2424:2462   */\n      swap1\n      pop\n        /* \"#utility.yul\":2366:2468   */\n      swap2\n      swap1\n      pop\n      jump\t// out\n        /* \"#utility.yul\":2474:2851   */\n    tag_68:\n        /* \"#utility.yul\":2562:2565   */\n      0x00\n        /* \"#utility.yul\":2590:2629   */\n      tag_101\n        /* \"#utility.yul\":2623:2628   */\n      dup3\n        /* \"#utility.yul\":2590:2629   */\n      tag_64\n      jump\t// in\n    tag_101:\n        /* \"#utility.yul\":2645:2716   */\n      tag_102\n        /* \"#utility.yul\":2709:2715   */\n      dup2\n        /* \"#utility.yul\":2704:2707   */\n      dup6\n        /* \"#utility.yul\":2645:2716   */\n      tag_65\n      jump\t// in\n    tag_102:\n        /* \"#utility.yul\":2638:2716   */\n      swap4\n      pop\n        /* \"#utility.yul\":2725:2790   */\n      tag_103\n        /* \"#utility.yul\":2783:2789   */\n      dup2\n        /* \"#utility.yul\":2778:2781   */\n      dup6\n        /* \"#utility.yul\":2771:2775   */\n      0x20\n        /* \"#utility.yul\":2764:2769   */\n      dup7\n        /* \"#utility.yul\":2760:2776   */\n      add\n        /* \"#utility.yul\":2725:2790   */\n      tag_66\n      jump\t// in\n    tag_103:\n        /* \"#utility.yul\":2815:2844   */\n      tag_104\n        /* \"#utility.yul\":2837:2843   */\n      dup2\n        /* \"#utility.yul\":2815:2844   */\n      tag_67\n      jump\t// in\n    tag_104:\n        /* \"#utility.yul\":2810:2813   */\n      dup5\n        /* \"#utility.yul\":2806:2845   */\n      add\n        /* \"#utility.yul\":2799:2845   */\n      swap2\n      pop\n        /* \"#utility.yul\":2566:2851   */\n      pop\n        /* \"#utility.yul\":2474:2851   */\n      swap3\n      swap2\n      pop\n      pop\n      jump\t// out\n        /* \"#utility.yul\":2857:3170   */\n    tag_29:\n        /* \"#utility.yul\":2970:2974   */\n      0x00\n        /* \"#utility.yul\":3008:3010   */\n      0x20\n        /* \"#utility.yul\":2997:3006   */\n      dup3\n        /* \"#utility.yul\":2993:3011   */\n      add\n        /* \"#utility.yul\":2985:3011   */\n      swap1\n      pop\n        /* \"#utility.yul\":3057:3066   */\n      dup2\n        /* \"#utility.yul\":3051:3055   */\n      dup2\n        /* \"#utility.yul\":3047:3067   */\n      sub\n        /* \"#utility.yul\":3043:3044   */\n      0x00\n        /* \"#utility.yul\":3032:3041   */\n      dup4\n        /* \"#utility.yul\":3028:3045   */\n      add\n        /* \"#utility.yul\":3021:3068   */\n      mstore\n        /* \"#utility.yul\":3085:3163   */\n      tag_106\n        /* \"#utility.yul\":3158:3162   */\n      dup2\n        /* \"#utility.yul\":3149:3155   */\n      dup5\n        /* \"#utility.yul\":3085:3163   */\n      tag_68\n      jump\t// in\n    tag_106:\n        /* \"#utility.yul\":3077:3163   */\n      swap1\n      pop\n        /* \"#utility.yul\":2857:3170   */\n      swap3\n      swap2\n      pop\n      pop\n      jump\t// out\n        /* \"#utility.yul\":3176:3356   */\n    tag_69:\n        /* \"#utility.yul\":3224:3301   */\n      0x4e487b7100000000000000000000000000000000000000000000000000000000\n        /* \"#utility.yul\":3221:3222   */\n      0x00\n        /* \"#utility.yul\":3214:3302   */\n      mstore\n        /* \"#utility.yul\":3321:3325   */\n      0x11\n        /* \"#utility.yul\":3318:3319   */\n      0x04\n        /* \"#utility.yul\":3311:3326   */\n      mstore\n        /* \"#utility.yul\":3345:3349   */\n      0x24\n        /* \"#utility.yul\":3342:3343   */\n      0x00\n        /* \"#utility.yul\":3335:3350   */\n      revert\n        /* \"#utility.yul\":3362:3918   */\n    tag_37:\n        /* \"#utility.yul\":3401:3408   */\n      0x00\n        /* \"#utility.yul\":3424:3443   */\n      tag_109\n        /* \"#utility.yul\":3441:3442   */\n      dup3\n        /* \"#utility.yul\":3424:3443   */\n      tag_55\n      jump\t// in\n    tag_109:\n        /* \"#utility.yul\":3419:3443   */\n      swap2\n      pop\n        /* \"#utility.yul\":3457:3476   */\n      tag_110\n        /* \"#utility.yul\":3474:3475   */\n      dup4\n        /* \"#utility.yul\":3457:3476   */\n      tag_55\n      jump\t// in\n    tag_110:\n        /* \"#utility.yul\":3452:3476   */\n      swap3\n      pop\n        /* \"#utility.yul\":3511:3512   */\n      dup3\n        /* \"#utility.yul\":3508:3509   */\n      dup3\n        /* \"#utility.yul\":3504:3513   */\n      mul\n        /* \"#utility.yul\":3533:3562   */\n      tag_111\n        /* \"#utility.yul\":3550:3561   */\n      dup2\n        /* \"#utility.yul\":3533:3562   */\n      tag_55\n      jump\t// in\n    tag_111:\n        /* \"#utility.yul\":3522:3562   */\n      swap2\n      pop\n        /* \"#utility.yul\":3620:3686   */\n      0x8000000000000000000000000000000000000000000000000000000000000000\n        /* \"#utility.yul\":3617:3618   */\n      dup5\n        /* \"#utility.yul\":3614:3687   */\n      eq\n        /* \"#utility.yul\":3610:3611   */\n      0x00\n        /* \"#utility.yul\":3607:3608   */\n      dup5\n        /* \"#utility.yul\":3603:3612   */\n      slt\n        /* \"#utility.yul\":3599:3688   */\n      and\n        /* \"#utility.yul\":3596:3711   */\n      iszero\n      tag_112\n      jumpi\n        /* \"#utility.yul\":3691:3709   */\n      tag_113\n      tag_69\n      jump\t// in\n    tag_113:\n        /* \"#utility.yul\":3596:3711   */\n    tag_112:\n        /* \"#utility.yul\":3861:3862   */\n      dup3\n        /* \"#utility.yul\":3852:3859   */\n      dup3\n        /* \"#utility.yul\":3847:3863   */\n      sdiv\n        /* \"#utility.yul\":3844:3845   */\n      dup5\n        /* \"#utility.yul\":3841:3864   */\n      eq\n        /* \"#utility.yul\":3821:3822   */\n      dup4\n        /* \"#utility.yul\":3814:3823   */\n      iszero\n        /* \"#utility.yul\":3794:3878   */\n      or\n        /* \"#utility.yul\":3771:3911   */\n      tag_114\n      jumpi\n        /* \"#utility.yul\":3891:3909   */\n      tag_115\n      tag_69\n      jump\t// in\n    tag_115:\n        /* \"#utility.yul\":3771:3911   */\n    tag_114:\n        /* \"#utility.yul\":3409:3918   */\n      pop\n        /* \"#utility.yul\":3362:3918   */\n      swap3\n      swap2\n      pop\n      pop\n      jump\t// out\n        /* \"#utility.yul\":3924:4104   */\n    tag_70:\n        /* \"#utility.yul\":3972:4049   */\n      0x4e487b7100000000000000000000000000000000000000000000000000000000\n        /* \"#utility.yul\":3969:3970   */\n      0x00\n        /* \"#utility.yul\":3962:4050   */\n      mstore\n        /* \"#utility.yul\":4069:4073   */\n      0x12\n        /* \"#utility.yul\":4066:4067   */\n      0x04\n        /* \"#utility.yul\":4059:4074   */\n      mstore\n        /* \"#utility.yul\":4093:4097   */\n      0x24\n        /* \"#utility.yul\":4090:4091   */\n      0x00\n        /* \"#utility.yul\":4083:4098   */\n      revert\n        /* \"#utility.yul\":4110:4495   */\n    tag_40:\n        /* \"#utility.yul\":4149:4150   */\n      0x00\n        /* \"#utility.yul\":4166:4185   */\n      tag_118\n        /* \"#utility.yul\":4183:4184   */\n      dup3\n        /* \"#utility.yul\":4166:4185   */\n      tag_55\n      jump\t// in\n    tag_118:\n        /* \"#utility.yul\":4161:4185   */\n      swap2\n      pop\n        /* \"#utility.yul\":4199:4218   */\n      tag_119\n        /* \"#utility.yul\":4216:4217   */\n      dup4\n        /* \"#utility.yul\":4199:4218   */\n      tag_55\n      jump\t// in\n    tag_119:\n        /* \"#utility.yul\":4194:4218   */\n      swap3\n      pop\n        /* \"#utility.yul\":4237:4238   */\n      dup3\n        /* \"#utility.yul\":4227:4262   */\n      tag_120\n      jumpi\n        /* \"#utility.yul\":4242:4260   */\n      tag_121\n      tag_70\n      jump\t// in\n    tag_121:\n        /* \"#utility.yul\":4227:4262   */\n    tag_120:\n        /* \"#utility.yul\":4428:4429   */\n      0x01\n        /* \"#utility.yul\":4425:4426   */\n      0x00\n        /* \"#utility.yul\":4421:4430   */\n      sub\n        /* \"#utility.yul\":4418:4419   */\n      dup4\n        /* \"#utility.yul\":4415:4431   */\n      eq\n        /* \"#utility.yul\":4334:4400   */\n      0x8000000000000000000000000000000000000000000000000000000000000000\n        /* \"#utility.yul\":4331:4332   */\n      dup4\n        /* \"#utility.yul\":4328:4401   */\n      eq\n        /* \"#utility.yul\":4311:4441   */\n      and\n        /* \"#utility.yul\":4308:4464   */\n      iszero\n      tag_122\n      jumpi\n        /* \"#utility.yul\":4444:4462   */\n      tag_123\n      tag_69\n      jump\t// in\n    tag_123:\n        /* \"#utility.yul\":4308:4464   */\n    tag_122:\n        /* \"#utility.yul\":4487:4488   */\n      dup3\n        /* \"#utility.yul\":4484:4485   */\n      dup3\n        /* \"#utility.yul\":4479:4489   */\n      sdiv\n        /* \"#utility.yul\":4474:4489   */\n      swap1\n      pop\n        /* \"#utility.yul\":4110:4495   */\n      swap3\n      swap2\n      pop\n      pop\n      jump\t// out\n        /* \"#utility.yul\":4501:4873   */\n    tag_43:\n        /* \"#utility.yul\":4540:4544   */\n      0x00\n        /* \"#utility.yul\":4560:4579   */\n      tag_125\n        /* \"#utility.yul\":4577:4578   */\n      dup3\n        /* \"#utility.yul\":4560:4579   */\n      tag_55\n      jump\t// in\n    tag_125:\n        /* \"#utility.yul\":4555:4579   */\n      swap2\n      pop\n        /* \"#utility.yul\":4593:4612   */\n      tag_126\n        /* \"#utility.yul\":4610:4611   */\n      dup4\n        /* \"#utility.yul\":4593:4612   */\n      tag_55\n      jump\t// in\n    tag_126:\n        /* \"#utility.yul\":4588:4612   */\n      swap3\n      pop\n        /* \"#utility.yul\":4636:4637   */\n      dup3\n        /* \"#utility.yul\":4633:4634   */\n      dup3\n        /* \"#utility.yul\":4629:4638   */\n      sub\n        /* \"#utility.yul\":4621:4638   */\n      swap1\n      pop\n        /* \"#utility.yul\":4830:4831   */\n      dup2\n        /* \"#utility.yul\":4824:4828   */\n      dup2\n        /* \"#utility.yul\":4820:4832   */\n      slt\n        /* \"#utility.yul\":4816:4817   */\n      0x00\n        /* \"#utility.yul\":4813:4814   */\n      dup5\n        /* \"#utility.yul\":4809:4818   */\n      slt\n        /* \"#utility.yul\":4805:4833   */\n      and\n        /* \"#utility.yul\":4788:4789   */\n      dup3\n        /* \"#utility.yul\":4782:4786   */\n      dup3\n        /* \"#utility.yul\":4778:4790   */\n      sgt\n        /* \"#utility.yul\":4773:4774   */\n      0x00\n        /* \"#utility.yul\":4770:4771   */\n      dup6\n        /* \"#utility.yul\":4766:4775   */\n      slt\n        /* \"#utility.yul\":4759:4776   */\n      iszero\n        /* \"#utility.yul\":4755:4791   */\n      and\n        /* \"#utility.yul\":4739:4843   */\n      or\n        /* \"#utility.yul\":4736:4866   */\n      iszero\n      tag_127\n      jumpi\n        /* \"#utility.yul\":4846:4864   */\n      tag_128\n      tag_69\n      jump\t// in\n    tag_128:\n        /* \"#utility.yul\":4736:4866   */\n    tag_127:\n        /* \"#utility.yul\":4501:4873   */\n      swap3\n      swap2\n      pop\n      pop\n      jump\t// out\n        /* \"#utility.yul\":4879:5059   */\n    tag_71:\n        /* \"#utility.yul\":4927:5004   */\n      0x4e487b7100000000000000000000000000000000000000000000000000000000\n        /* \"#utility.yul\":4924:4925   */\n      0x00\n        /* \"#utility.yul\":4917:5005   */\n      mstore\n        /* \"#utility.yul\":5024:5028   */\n      0x22\n        /* \"#utility.yul\":5021:5022   */\n      0x04\n        /* \"#utility.yul\":5014:5029   */\n      mstore\n        /* \"#utility.yul\":5048:5052   */\n      0x24\n        /* \"#utility.yul\":5045:5046   */\n      0x00\n        /* \"#utility.yul\":5038:5053   */\n      revert\n        /* \"#utility.yul\":5065:5385   */\n    tag_45:\n        /* \"#utility.yul\":5109:5115   */\n      0x00\n        /* \"#utility.yul\":5146:5147   */\n      0x02\n        /* \"#utility.yul\":5140:5144   */\n      dup3\n        /* \"#utility.yul\":5136:5148   */\n      div\n        /* \"#utility.yul\":5126:5148   */\n      swap1\n      pop\n        /* \"#utility.yul\":5193:5194   */\n      0x01\n        /* \"#utility.yul\":5187:5191   */\n      dup3\n        /* \"#utility.yul\":5183:5195   */\n      and\n        /* \"#utility.yul\":5214:5232   */\n      dup1\n        /* \"#utility.yul\":5204:5285   */\n      tag_131\n      jumpi\n        /* \"#utility.yul\":5270:5274   */\n      0x7f\n        /* \"#utility.yul\":5262:5268   */\n      dup3\n        /* \"#utility.yul\":5258:5275   */\n      and\n        /* \"#utility.yul\":5248:5275   */\n      swap2\n      pop\n        /* \"#utility.yul\":5204:5285   */\n    tag_131:\n        /* \"#utility.yul\":5332:5334   */\n      0x20\n        /* \"#utility.yul\":5324:5330   */\n      dup3\n        /* \"#utility.yul\":5321:5335   */\n      lt\n        /* \"#utility.yul\":5301:5319   */\n      dup2\n        /* \"#utility.yul\":5298:5336   */\n      sub\n        /* \"#utility.yul\":5295:5379   */\n      tag_132\n      jumpi\n        /* \"#utility.yul\":5351:5369   */\n      tag_133\n      tag_71\n      jump\t// in\n    tag_133:\n        /* \"#utility.yul\":5295:5379   */\n    tag_132:\n        /* \"#utility.yul\":5116:5385   */\n      pop\n        /* \"#utility.yul\":5065:5385   */\n      swap2\n      swap1\n      pop\n      jump\t// out\n        /* \"#utility.yul\":5391:5582   */\n    tag_54:\n        /* \"#utility.yul\":5431:5434   */\n      0x00\n        /* \"#utility.yul\":5450:5470   */\n      tag_135\n        /* \"#utility.yul\":5468:5469   */\n      dup3\n        /* \"#utility.yul\":5450:5470   */\n      tag_57\n      jump\t// in\n    tag_135:\n        /* \"#utility.yul\":5445:5470   */\n      swap2\n      pop\n        /* \"#utility.yul\":5484:5504   */\n      tag_136\n        /* \"#utility.yul\":5502:5503   */\n      dup4\n        /* \"#utility.yul\":5484:5504   */\n      tag_57\n      jump\t// in\n    tag_136:\n        /* \"#utility.yul\":5479:5504   */\n      swap3\n      pop\n        /* \"#utility.yul\":5527:5528   */\n      dup3\n        /* \"#utility.yul\":5524:5525   */\n      dup3\n        /* \"#utility.yul\":5520:5529   */\n      add\n        /* \"#utility.yul\":5513:5529   */\n      swap1\n      pop\n        /* \"#utility.yul\":5548:5551   */\n      dup1\n        /* \"#utility.yul\":5545:5546   */\n      dup3\n        /* \"#utility.yul\":5542:5552   */\n      gt\n        /* \"#utility.yul\":5539:5575   */\n      iszero\n      tag_137\n      jumpi\n        /* \"#utility.yul\":5555:5573   */\n      tag_138\n      tag_69\n      jump\t// in\n    tag_138:\n        /* \"#utility.yul\":5539:5575   */\n    tag_137:\n        /* \"#utility.yul\":5391:5582   */\n      swap3\n      swap2\n      pop\n      pop\n      jump\t// out\n\n    auxdata: 0xa2646970667358221220de1c2294a7432839af09126e8cc7f13710e781010c9b0ec35d51fec736a05d3764736f6c634300081b0033\n}\n",
				"bytecode": {
					"linkReferences": {},
					"object": "60806040526040518060400160405280600c81526020017f48656c6c6f20576f726c642100000000000000000000000000000000000000008152505f908161004791906102a5565b506005600155600a600255600a600355348015610062575f5ffd5b50610374565b5f81519050919050565b7f4e487b71000000000000000000000000000000000000000000000000000000005f52604160045260245ffd5b7f4e487b71000000000000000000000000000000000000000000000000000000005f52602260045260245ffd5b5f60028204905060018216806100e357607f821691505b6020821081036100f6576100f561009f565b5b50919050565b5f819050815f5260205f209050919050565b5f6020601f8301049050919050565b5f82821b905092915050565b5f600883026101587fffffffffffffffffffffffffffffffffffffffffffffffffffffffffffffffff8261011d565b610162868361011d565b95508019841693508086168417925050509392505050565b5f819050919050565b5f819050919050565b5f6101a66101a161019c8461017a565b610183565b61017a565b9050919050565b5f819050919050565b6101bf8361018c565b6101d36101cb826101ad565b848454610129565b825550505050565b5f5f905090565b6101ea6101db565b6101f58184846101b6565b505050565b5b818110156102185761020d5f826101e2565b6001810190506101fb565b5050565b601f82111561025d5761022e816100fc565b6102378461010e565b81016020851015610246578190505b61025a6102528561010e565b8301826101fa565b50505b505050565b5f82821c905092915050565b5f61027d5f1984600802610262565b1980831691505092915050565b5f610295838361026e565b9150826002028217905092915050565b6102ae82610068565b67ffffffffffffffff8111156102c7576102c6610072565b5b6102d182546100cc565b6102dc82828561021c565b5f60209050601f83116001811461030d575f84156102fb578287015190505b610305858261028a565b86555061036c565b601f19841661031b866100fc565b5f5b828110156103425784890151825560018201915060208501945060208101905061031d565b8683101561035f578489015161035b601f89168261026e565b8355505b6001600288020188555050505b505050505050565b6105f1806103815f395ff3fe608060405234801561000f575f5ffd5b506004361061007b575f3560e01c80638412e667116100595780638412e667146100eb578063cfae3217146100f5578063df09a2da14610113578063ec597128146101315761007b565b8063011285da1461007f57806306661abd1461009d57806309b7cdda146100bb575b5f5ffd5b61008761013b565b604051610094919061026d565b60405180910390f35b6100a5610151565b6040516100b2919061029e565b60405180910390f35b6100d560048036038101906100d091906102e5565b610157565b6040516100e2919061026d565b60405180910390f35b6100f361016c565b005b6100fd61018e565b60405161010a9190610393565b60405180910390f35b61011b610219565b604051610128919061026d565b60405180910390f35b610139610237565b005b5f60025460015461014c91906103e0565b905090565b60035481565b5f82826101649190610483565b905092915050565b60646001819055505f5f60c890506001548161018891906104eb565b91505050565b5f805461019a90610558565b80601f01602080910402602001604051908101604052809291908181526020018280546101c690610558565b80156102115780601f106101e857610100808354040283529160200191610211565b820191905f5260205f20905b8154815290600101906020018083116101f457829003601f168201915b505050505081565b5f5f600990505f60079050808261023091906104eb565b9250505090565b5f600890505f600490505f818361024e9190610588565b9050505050565b5f819050919050565b61026781610255565b82525050565b5f6020820190506102805f83018461025e565b92915050565b5f819050919050565b61029881610286565b82525050565b5f6020820190506102b15f83018461028f565b92915050565b5f5ffd5b6102c481610255565b81146102ce575f5ffd5b50565b5f813590506102df816102bb565b92915050565b5f5f604083850312156102fb576102fa6102b7565b5b5f610308858286016102d1565b9250506020610319858286016102d1565b9150509250929050565b5f81519050919050565b5f82825260208201905092915050565b8281835e5f83830152505050565b5f601f19601f8301169050919050565b5f61036582610323565b61036f818561032d565b935061037f81856020860161033d565b6103888161034b565b840191505092915050565b5f6020820190508181035f8301526103ab818461035b565b905092915050565b7f4e487b71000000000000000000000000000000000000000000000000000000005f52601160045260245ffd5b5f6103ea82610255565b91506103f583610255565b925082820261040381610255565b91507f800000000000000000000000000000000000000000000000000000000000000084145f8412161561043a576104396103b3565b5b828205841483151761044f5761044e6103b3565b5b5092915050565b7f4e487b71000000000000000000000000000000000000000000000000000000005f52601260045260245ffd5b5f61048d82610255565b915061049883610255565b9250826104a8576104a7610456565b5b60015f0383147f8000000000000000000000000000000000000000000000000000000000000000831416156104e0576104df6103b3565b5b828205905092915050565b5f6104f582610255565b915061050083610255565b925082820390508181125f8412168282135f851215161715610525576105246103b3565b5b92915050565b7f4e487b71000000000000000000000000000000000000000000000000000000005f52602260045260245ffd5b5f600282049050600182168061056f57607f821691505b6020821081036105825761058161052b565b5b50919050565b5f61059282610286565b915061059d83610286565b92508282019050808211156105b5576105b46103b3565b5b9291505056fea2646970667358221220de1c2294a7432839af09126e8cc7f13710e781010c9b0ec35d51fec736a05d3764736f6c634300081b0033",
					"opcodes": "PUSH1 0x80 PUSH1 0x40 MSTORE PUSH1 0x40 MLOAD DUP1 PUSH1 0x40 ADD PUSH1 0x40 MSTORE DUP1 PUSH1 0xC DUP2 MSTORE PUSH1 0x20 ADD PUSH32 0x48656C6C6F20576F726C64210000000000000000000000000000000000000000 DUP2 MSTORE POP PUSH0 SWAP1 DUP2 PUSH2 0x47 SWAP2 SWAP1 PUSH2 0x2A5 JUMP JUMPDEST POP PUSH1 0x5 PUSH1 0x1 SSTORE PUSH1 0xA PUSH1 0x2 SSTORE PUSH1 0xA PUSH1 0x3 SSTORE CALLVALUE DUP1 ISZERO PUSH2 0x62 JUMPI PUSH0 PUSH0 REVERT JUMPDEST POP PUSH2 0x374 JUMP JUMPDEST PUSH0 DUP2 MLOAD SWAP1 POP SWAP2 SWAP1 POP JUMP JUMPDEST PUSH32 0x4E487B7100000000000000000000000000000000000000000000000000000000 PUSH0 MSTORE PUSH1 0x41 PUSH1 0x4 MSTORE PUSH1 0x24 PUSH0 REVERT JUMPDEST PUSH32 0x4E487B7100000000000000000000000000000000000000000000000000000000 PUSH0 MSTORE PUSH1 0x22 PUSH1 0x4 MSTORE PUSH1 0x24 PUSH0 REVERT JUMPDEST PUSH0 PUSH1 0x2 DUP3 DIV SWAP1 POP PUSH1 0x1 DUP3 AND DUP1 PUSH2 0xE3 JUMPI PUSH1 0x7F DUP3 AND SWAP2 POP JUMPDEST PUSH1 0x20 DUP3 LT DUP2 SUB PUSH2 0xF6 JUMPI PUSH2 0xF5 PUSH2 0x9F JUMP JUMPDEST JUMPDEST POP SWAP2 SWAP1 POP JUMP JUMPDEST PUSH0 DUP2 SWAP1 POP DUP2 PUSH0 MSTORE PUSH1 0x20 PUSH0 KECCAK256 SWAP1 POP SWAP2 SWAP1 POP JUMP JUMPDEST PUSH0 PUSH1 0x20 PUSH1 0x1F DUP4 ADD DIV SWAP1 POP SWAP2 SWAP1 POP JUMP JUMPDEST PUSH0 DUP3 DUP3 SHL SWAP1 POP SWAP3 SWAP2 POP POP JUMP JUMPDEST PUSH0 PUSH1 0x8 DUP4 MUL PUSH2 0x158 PUSH32 0xFFFFFFFFFFFFFFFFFFFFFFFFFFFFFFFFFFFFFFFFFFFFFFFFFFFFFFFFFFFFFFFF DUP3 PUSH2 0x11D JUMP JUMPDEST PUSH2 0x162 DUP7 DUP4 PUSH2 0x11D JUMP JUMPDEST SWAP6 POP DUP1 NOT DUP5 AND SWAP4 POP DUP1 DUP7 AND DUP5 OR SWAP3 POP POP POP SWAP4 SWAP3 POP POP POP JUMP JUMPDEST PUSH0 DUP2 SWAP1 POP SWAP2 SWAP1 POP JUMP JUMPDEST PUSH0 DUP2 SWAP1 POP SWAP2 SWAP1 POP JUMP JUMPDEST PUSH0 PUSH2 0x1A6 PUSH2 0x1A1 PUSH2 0x19C DUP5 PUSH2 0x17A JUMP JUMPDEST PUSH2 0x183 JUMP JUMPDEST PUSH2 0x17A JUMP JUMPDEST SWAP1 POP SWAP2 SWAP1 POP JUMP JUMPDEST PUSH0 DUP2 SWAP1 POP SWAP2 SWAP1 POP JUMP JUMPDEST PUSH2 0x1BF DUP4 PUSH2 0x18C JUMP JUMPDEST PUSH2 0x1D3 PUSH2 0x1CB DUP3 PUSH2 0x1AD JUMP JUMPDEST DUP5 DUP5 SLOAD PUSH2 0x129 JUMP JUMPDEST DUP3 SSTORE POP POP POP POP JUMP JUMPDEST PUSH0 PUSH0 SWAP1 POP SWAP1 JUMP JUMPDEST PUSH2 0x1EA PUSH2 0x1DB JUMP JUMPDEST PUSH2 0x1F5 DUP2 DUP5 DUP5 PUSH2 0x1B6 JUMP JUMPDEST POP POP POP JUMP JUMPDEST JUMPDEST DUP2 DUP2 LT ISZERO PUSH2 0x218 JUMPI PUSH2 0x20D PUSH0 DUP3 PUSH2 0x1E2 JUMP JUMPDEST PUSH1 0x1 DUP2 ADD SWAP1 POP PUSH2 0x1FB JUMP JUMPDEST POP POP JUMP JUMPDEST PUSH1 0x1F DUP3 GT ISZERO PUSH2 0x25D JUMPI PUSH2 0x22E DUP2 PUSH2 0xFC JUMP JUMPDEST PUSH2 0x237 DUP5 PUSH2 0x10E JUMP JUMPDEST DUP2 ADD PUSH1 0x20 DUP6 LT ISZERO PUSH2 0x246 JUMPI DUP2 SWAP1 POP JUMPDEST PUSH2 0x25A PUSH2 0x252 DUP6 PUSH2 0x10E JUMP JUMPDEST DUP4 ADD DUP3 PUSH2 0x1FA JUMP JUMPDEST POP POP JUMPDEST POP POP POP JUMP JUMPDEST PUSH0 DUP3 DUP3 SHR SWAP1 POP SWAP3 SWAP2 POP POP JUMP JUMPDEST PUSH0 PUSH2 0x27D PUSH0 NOT DUP5 PUSH1 0x8 MUL PUSH2 0x262 JUMP JUMPDEST NOT DUP1 DUP4 AND SWAP2 POP POP SWAP3 SWAP2 POP POP JUMP JUMPDEST PUSH0 PUSH2 0x295 DUP4 DUP4 PUSH2 0x26E JUMP JUMPDEST SWAP2 POP DUP3 PUSH1 0x2 MUL DUP3 OR SWAP1 POP SWAP3 SWAP2 POP POP JUMP JUMPDEST PUSH2 0x2AE DUP3 PUSH2 0x68 JUMP JUMPDEST PUSH8 0xFFFFFFFFFFFFFFFF DUP2 GT ISZERO PUSH2 0x2C7 JUMPI PUSH2 0x2C6 PUSH2 0x72 JUMP JUMPDEST JUMPDEST PUSH2 0x2D1 DUP3 SLOAD PUSH2 0xCC JUMP JUMPDEST PUSH2 0x2DC DUP3 DUP3 DUP6 PUSH2 0x21C JUMP JUMPDEST PUSH0 PUSH1 0x20 SWAP1 POP PUSH1 0x1F DUP4 GT PUSH1 0x1 DUP2 EQ PUSH2 0x30D JUMPI PUSH0 DUP5 ISZERO PUSH2 0x2FB JUMPI DUP3 DUP8 ADD MLOAD SWAP1 POP JUMPDEST PUSH2 0x305 DUP6 DUP3 PUSH2 0x28A JUMP JUMPDEST DUP7 SSTORE POP PUSH2 0x36C JUMP JUMPDEST PUSH1 0x1F NOT DUP5 AND PUSH2 0x31B DUP7 PUSH2 0xFC JUMP JUMPDEST PUSH0 JUMPDEST DUP3 DUP2 LT ISZERO PUSH2 0x342 JUMPI DUP5 DUP10 ADD MLOAD DUP3 SSTORE PUSH1 0x1 DUP3 ADD SWAP2 POP PUSH1 0x20 DUP6 ADD SWAP5 POP PUSH1 0x20 DUP2 ADD SWAP1 POP PUSH2 0x31D JUMP JUMPDEST DUP7 DUP4 LT ISZERO PUSH2 0x35F JUMPI DUP5 DUP10 ADD MLOAD PUSH2 0x35B PUSH1 0x1F DUP10 AND DUP3 PUSH2 0x26E JUMP JUMPDEST DUP4 SSTORE POP JUMPDEST PUSH1 0x1 PUSH1 0x2 DUP9 MUL ADD DUP9 SSTORE POP POP POP JUMPDEST POP POP POP POP POP POP JUMP JUMPDEST PUSH2 0x5F1 DUP1 PUSH2 0x381 PUSH0 CODECOPY PUSH0 RETURN INVALID PUSH1 0x80 PUSH1 0x40 MSTORE CALLVALUE DUP1 ISZERO PUSH2 0xF JUMPI PUSH0 PUSH0 REVERT JUMPDEST POP PUSH1 0x4 CALLDATASIZE LT PUSH2 0x7B JUMPI PUSH0 CALLDATALOAD PUSH1 0xE0 SHR DUP1 PUSH4 0x8412E667 GT PUSH2 0x59 JUMPI DUP1 PUSH4 0x8412E667 EQ PUSH2 0xEB JUMPI DUP1 PUSH4 0xCFAE3217 EQ PUSH2 0xF5 JUMPI DUP1 PUSH4 0xDF09A2DA EQ PUSH2 0x113 JUMPI DUP1 PUSH4 0xEC597128 EQ PUSH2 0x131 JUMPI PUSH2 0x7B JUMP JUMPDEST DUP1 PUSH4 0x11285DA EQ PUSH2 0x7F JUMPI DUP1 PUSH4 0x6661ABD EQ PUSH2 0x9D JUMPI DUP1 PUSH4 0x9B7CDDA EQ PUSH2 0xBB JUMPI JUMPDEST PUSH0 PUSH0 REVERT JUMPDEST PUSH2 0x87 PUSH2 0x13B JUMP JUMPDEST PUSH1 0x40 MLOAD PUSH2 0x94 SWAP2 SWAP1 PUSH2 0x26D JUMP JUMPDEST PUSH1 0x40 MLOAD DUP1 SWAP2 SUB SWAP1 RETURN JUMPDEST PUSH2 0xA5 PUSH2 0x151 JUMP JUMPDEST PUSH1 0x40 MLOAD PUSH2 0xB2 SWAP2 SWAP1 PUSH2 0x29E JUMP JUMPDEST PUSH1 0x40 MLOAD DUP1 SWAP2 SUB SWAP1 RETURN JUMPDEST PUSH2 0xD5 PUSH1 0x4 DUP1 CALLDATASIZE SUB DUP2 ADD SWAP1 PUSH2 0xD0 SWAP2 SWAP1 PUSH2 0x2E5 JUMP JUMPDEST PUSH2 0x157 JUMP JUMPDEST PUSH1 0x40 MLOAD PUSH2 0xE2 SWAP2 SWAP1 PUSH2 0x26D JUMP JUMPDEST PUSH1 0x40 MLOAD DUP1 SWAP2 SUB SWAP1 RETURN JUMPDEST PUSH2 0xF3 PUSH2 0x16C JUMP JUMPDEST STOP JUMPDEST PUSH2 0xFD PUSH2 0x18E JUMP JUMPDEST PUSH1 0x40 MLOAD PUSH2 0x10A SWAP2 SWAP1 PUSH2 0x393 JUMP JUMPDEST PUSH1 0x40 MLOAD DUP1 SWAP2 SUB SWAP1 RETURN JUMPDEST PUSH2 0x11B PUSH2 0x219 JUMP JUMPDEST PUSH1 0x40 MLOAD PUSH2 0x128 SWAP2 SWAP1 PUSH2 0x26D JUMP JUMPDEST PUSH1 0x40 MLOAD DUP1 SWAP2 SUB SWAP1 RETURN JUMPDEST PUSH2 0x139 PUSH2 0x237 JUMP JUMPDEST STOP JUMPDEST PUSH0 PUSH1 0x2 SLOAD PUSH1 0x1 SLOAD PUSH2 0x14C SWAP2 SWAP1 PUSH2 0x3E0 JUMP JUMPDEST SWAP1 POP SWAP1 JUMP JUMPDEST PUSH1 0x3 SLOAD DUP2 JUMP JUMPDEST PUSH0 DUP3 DUP3 PUSH2 0x164 SWAP2 SWAP1 PUSH2 0x483 JUMP JUMPDEST SWAP1 POP SWAP3 SWAP2 POP POP JUMP JUMPDEST PUSH1 0x64 PUSH1 0x1 DUP2 SWAP1 SSTORE POP PUSH0 PUSH0 PUSH1 0xC8 SWAP1 POP PUSH1 0x1 SLOAD DUP2 PUSH2 0x188 SWAP2 SWAP1 PUSH2 0x4EB JUMP JUMPDEST SWAP2 POP POP POP JUMP JUMPDEST PUSH0 DUP1 SLOAD PUSH2 0x19A SWAP1 PUSH2 0x558 JUMP JUMPDEST DUP1 PUSH1 0x1F ADD PUSH1 0x20 DUP1 SWAP2 DIV MUL PUSH1 0x20 ADD PUSH1 0x40 MLOAD SWAP1 DUP2 ADD PUSH1 0x40 MSTORE DUP1 SWAP3 SWAP2 SWAP1 DUP2 DUP2 MSTORE PUSH1 0x20 ADD DUP3 DUP1 SLOAD PUSH2 0x1C6 SWAP1 PUSH2 0x558 JUMP JUMPDEST DUP1 ISZERO PUSH2 0x211 JUMPI DUP1 PUSH1 0x1F LT PUSH2 0x1E8 JUMPI PUSH2 0x100 DUP1 DUP4 SLOAD DIV MUL DUP4 MSTORE SWAP2 PUSH1 0x20 ADD SWAP2 PUSH2 0x211 JUMP JUMPDEST DUP3 ADD SWAP2 SWAP1 PUSH0 MSTORE PUSH1 0x20 PUSH0 KECCAK256 SWAP1 JUMPDEST DUP2 SLOAD DUP2 MSTORE SWAP1 PUSH1 0x1 ADD SWAP1 PUSH1 0x20 ADD DUP1 DUP4 GT PUSH2 0x1F4 JUMPI DUP3 SWAP1 SUB PUSH1 0x1F AND DUP3 ADD SWAP2 JUMPDEST POP POP POP POP POP DUP2 JUMP JUMPDEST PUSH0 PUSH0 PUSH1 0x9 SWAP1 POP PUSH0 PUSH1 0x7 SWAP1 POP DUP1 DUP3 PUSH2 0x230 SWAP2 SWAP1 PUSH2 0x4EB JUMP JUMPDEST SWAP3 POP POP POP SWAP1 JUMP JUMPDEST PUSH0 PUSH1 0x8 SWAP1 POP PUSH0 PUSH1 0x4 SWAP1 POP PUSH0 DUP2 DUP4 PUSH2 0x24E SWAP2 SWAP1 PUSH2 0x588 JUMP JUMPDEST SWAP1 POP POP POP POP JUMP JUMPDEST PUSH0 DUP2 SWAP1 POP SWAP2 SWAP1 POP JUMP JUMPDEST PUSH2 0x267 DUP2 PUSH2 0x255 JUMP JUMPDEST DUP3 MSTORE POP POP JUMP JUMPDEST PUSH0 PUSH1 0x20 DUP3 ADD SWAP1 POP PUSH2 0x280 PUSH0 DUP4 ADD DUP5 PUSH2 0x25E JUMP JUMPDEST SWAP3 SWAP2 POP POP JUMP JUMPDEST PUSH0 DUP2 SWAP1 POP SWAP2 SWAP1 POP JUMP JUMPDEST PUSH2 0x298 DUP2 PUSH2 0x286 JUMP JUMPDEST DUP3 MSTORE POP POP JUMP JUMPDEST PUSH0 PUSH1 0x20 DUP3 ADD SWAP1 POP PUSH2 0x2B1 PUSH0 DUP4 ADD DUP5 PUSH2 0x28F JUMP JUMPDEST SWAP3 SWAP2 POP POP JUMP JUMPDEST PUSH0 PUSH0 REVERT JUMPDEST PUSH2 0x2C4 DUP2 PUSH2 0x255 JUMP JUMPDEST DUP2 EQ PUSH2 0x2CE JUMPI PUSH0 PUSH0 REVERT JUMPDEST POP JUMP JUMPDEST PUSH0 DUP2 CALLDATALOAD SWAP1 POP PUSH2 0x2DF DUP2 PUSH2 0x2BB JUMP JUMPDEST SWAP3 SWAP2 POP POP JUMP JUMPDEST PUSH0 PUSH0 PUSH1 0x40 DUP4 DUP6 SUB SLT ISZERO PUSH2 0x2FB JUMPI PUSH2 0x2FA PUSH2 0x2B7 JUMP JUMPDEST JUMPDEST PUSH0 PUSH2 0x308 DUP6 DUP3 DUP7 ADD PUSH2 0x2D1 JUMP JUMPDEST SWAP3 POP POP PUSH1 0x20 PUSH2 0x319 DUP6 DUP3 DUP7 ADD PUSH2 0x2D1 JUMP JUMPDEST SWAP2 POP POP SWAP3 POP SWAP3 SWAP1 POP JUMP JUMPDEST PUSH0 DUP2 MLOAD SWAP1 POP SWAP2 SWAP1 POP JUMP JUMPDEST PUSH0 DUP3 DUP3 MSTORE PUSH1 0x20 DUP3 ADD SWAP1 POP SWAP3 SWAP2 POP POP JUMP JUMPDEST DUP3 DUP2 DUP4 MCOPY PUSH0 DUP4 DUP4 ADD MSTORE POP POP POP JUMP JUMPDEST PUSH0 PUSH1 0x1F NOT PUSH1 0x1F DUP4 ADD AND SWAP1 POP SWAP2 SWAP1 POP JUMP JUMPDEST PUSH0 PUSH2 0x365 DUP3 PUSH2 0x323 JUMP JUMPDEST PUSH2 0x36F DUP2 DUP6 PUSH2 0x32D JUMP JUMPDEST SWAP4 POP PUSH2 0x37F DUP2 DUP6 PUSH1 0x20 DUP7 ADD PUSH2 0x33D JUMP JUMPDEST PUSH2 0x388 DUP2 PUSH2 0x34B JUMP JUMPDEST DUP5 ADD SWAP2 POP POP SWAP3 SWAP2 POP POP JUMP JUMPDEST PUSH0 PUSH1 0x20 DUP3 ADD SWAP1 POP DUP2 DUP2 SUB PUSH0 DUP4 ADD MSTORE PUSH2 0x3AB DUP2 DUP5 PUSH2 0x35B JUMP JUMPDEST SWAP1 POP SWAP3 SWAP2 POP POP JUMP JUMPDEST PUSH32 0x4E487B7100000000000000000000000000000000000000000000000000000000 PUSH0 MSTORE PUSH1 0x11 PUSH1 0x4 MSTORE PUSH1 0x24 PUSH0 REVERT JUMPDEST PUSH0 PUSH2 0x3EA DUP3 PUSH2 0x255 JUMP JUMPDEST SWAP2 POP PUSH2 0x3F5 DUP4 PUSH2 0x255 JUMP JUMPDEST SWAP3 POP DUP3 DUP3 MUL PUSH2 0x403 DUP2 PUSH2 0x255 JUMP JUMPDEST SWAP2 POP PUSH32 0x8000000000000000000000000000000000000000000000000000000000000000 DUP5 EQ PUSH0 DUP5 SLT AND ISZERO PUSH2 0x43A JUMPI PUSH2 0x439 PUSH2 0x3B3 JUMP JUMPDEST JUMPDEST DUP3 DUP3 SDIV DUP5 EQ DUP4 ISZERO OR PUSH2 0x44F JUMPI PUSH2 0x44E PUSH2 0x3B3 JUMP JUMPDEST JUMPDEST POP SWAP3 SWAP2 POP POP JUMP JUMPDEST PUSH32 0x4E487B7100000000000000000000000000000000000000000000000000000000 PUSH0 MSTORE PUSH1 0x12 PUSH1 0x4 MSTORE PUSH1 0x24 PUSH0 REVERT JUMPDEST PUSH0 PUSH2 0x48D DUP3 PUSH2 0x255 JUMP JUMPDEST SWAP2 POP PUSH2 0x498 DUP4 PUSH2 0x255 JUMP JUMPDEST SWAP3 POP DUP3 PUSH2 0x4A8 JUMPI PUSH2 0x4A7 PUSH2 0x456 JUMP JUMPDEST JUMPDEST PUSH1 0x1 PUSH0 SUB DUP4 EQ PUSH32 0x8000000000000000000000000000000000000000000000000000000000000000 DUP4 EQ AND ISZERO PUSH2 0x4E0 JUMPI PUSH2 0x4DF PUSH2 0x3B3 JUMP JUMPDEST JUMPDEST DUP3 DUP3 SDIV SWAP1 POP SWAP3 SWAP2 POP POP JUMP JUMPDEST PUSH0 PUSH2 0x4F5 DUP3 PUSH2 0x255 JUMP JUMPDEST SWAP2 POP PUSH2 0x500 DUP4 PUSH2 0x255 JUMP JUMPDEST SWAP3 POP DUP3 DUP3 SUB SWAP1 POP DUP2 DUP2 SLT PUSH0 DUP5 SLT AND DUP3 DUP3 SGT PUSH0 DUP6 SLT ISZERO AND OR ISZERO PUSH2 0x525 JUMPI PUSH2 0x524 PUSH2 0x3B3 JUMP JUMPDEST JUMPDEST SWAP3 SWAP2 POP POP JUMP JUMPDEST PUSH32 0x4E487B7100000000000000000000000000000000000000000000000000000000 PUSH0 MSTORE PUSH1 0x22 PUSH1 0x4 MSTORE PUSH1 0x24 PUSH0 REVERT JUMPDEST PUSH0 PUSH1 0x2 DUP3 DIV SWAP1 POP PUSH1 0x1 DUP3 AND DUP1 PUSH2 0x56F JUMPI PUSH1 0x7F DUP3 AND SWAP2 POP JUMPDEST PUSH1 0x20 DUP3 LT DUP2 SUB PUSH2 0x582 JUMPI PUSH2 0x581 PUSH2 0x52B JUMP JUMPDEST JUMPDEST POP SWAP2 SWAP1 POP JUMP JUMPDEST PUSH0 PUSH2 0x592 DUP3 PUSH2 0x286 JUMP JUMPDEST SWAP2 POP PUSH2 0x59D DUP4 PUSH2 0x286 JUMP JUMPDEST SWAP3 POP DUP3 DUP3 ADD SWAP1 POP DUP1 DUP3 GT ISZERO PUSH2 0x5B5 JUMPI PUSH2 0x5B4 PUSH2 0x3B3 JUMP JUMPDEST JUMPDEST SWAP3 SWAP2 POP POP JUMP INVALID LOG2 PUSH5 0x6970667358 0x22 SLT KECCAK256 0xDE SHR 0x22 SWAP5 0xA7 NUMBER 0x28 CODECOPY 0xAF MULMOD SLT PUSH15 0x8CC7F13710E781010C9B0EC35D51FE 0xC7 CALLDATASIZE LOG0 TSTORE CALLDATACOPY PUSH5 0x736F6C6343 STOP ADDMOD SHL STOP CALLER "
				},
				"gasEstimates": {
					"creation": {
						"codeDepositCost": "304200",
						"executionCost": "infinite",
						"totalCost": "infinite"
					},
					"external": {
						"addition()": "infinite",
						"changeState()": "infinite",
						"count()": "2448",
						"division(int256,int256)": "infinite",
						"greet()": "infinite",
						"multiplication()": "infinite",
						"substract()": "infinite"
					}
				},
				"methodIdentifiers": {
					"addition()": "ec597128",
					"changeState()": "8412e667",
					"count()": "06661abd",
					"division(int256,int256)": "09b7cdda",
					"greet()": "cfae3217",
					"multiplication()": "011285da",
					"substract()": "df09a2da"
				}
			},
			"storageLayout": {
				"storage": [
					{
						"astId": 4,
						"contract": "contracts/functions.sol:Functions",
						"label": "greet",
						"offset": 0,
						"slot": "0",
						"type": "t_string_storage"
					},
					{
						"astId": 7,
						"contract": "contracts/functions.sol:Functions",
						"label": "a",
						"offset": 0,
						"slot": "1",
						"type": "t_int256"
					},
					{
						"astId": 10,
						"contract": "contracts/functions.sol:Functions",
						"label": "b",
						"offset": 0,
						"slot": "2",
						"type": "t_int256"
					},
					{
						"astId": 13,
						"contract": "contracts/functions.sol:Functions",
						"label": "count",
						"offset": 0,
						"slot": "3",
						"type": "t_uint256"
					}
				],
				"types": {
					"t_int256": {
						"encoding": "inplace",
						"label": "int256",
						"numberOfBytes": "32"
					},
					"t_string_storage": {
						"encoding": "bytes",
						"label": "string",
						"numberOfBytes": "32"
					},
					"t_uint256": {
						"encoding": "inplace",
						"label": "uint256",
						"numberOfBytes": "32"
					}
				}
			},
			"userdoc": {
				"kind": "user",
				"methods": {},
				"version": 1
			}
		}
	}
}