{
	"contracts/Conditional.sol": {
		"Conditional": {
			"abi": [
				{
					"inputs": [
						{
							"internalType": "bool",
							"name": "value",
							"type": "bool"
						}
					],
					"name": "IfElse",
					"outputs": [
						{
							"internalType": "string",
							"name": "",
							"type": "string"
						}
					],
					"stateMutability": "nonpayable",
					"type": "function"
				},
				{
					"inputs": [
						{
							"internalType": "bool",
							"name": "value",
							"type": "bool"
						}
					],
					"name": "Require",
					"outputs": [],
					"stateMutability": "nonpayable",
					"type": "function"
				},
				{
					"inputs": [],
					"name": "num",
					"outputs": [
						{
							"internalType": "uint256",
							"name": "",
							"type": "uint256"
						}
					],
					"stateMutability": "view",
					"type": "function"
				}
			],
			"devdoc": {
				"kind": "dev",
				"methods": {},
				"version": 1
			},
			"evm": {
				"assembly": "    /* \"contracts/Conditional.sol\":68:462  contract Conditional {... */\n  mstore(0x40, 0x80)\n  callvalue\n  dup1\n  iszero\n  tag_1\n  jumpi\n  revert(0x00, 0x00)\ntag_1:\n  pop\n  dataSize(sub_0)\n  dup1\n  dataOffset(sub_0)\n  0x00\n  codecopy\n  0x00\n  return\nstop\n\nsub_0: assembly {\n        /* \"contracts/Conditional.sol\":68:462  contract Conditional {... */\n      mstore(0x40, 0x80)\n      callvalue\n      dup1\n      iszero\n      tag_1\n      jumpi\n      revert(0x00, 0x00)\n    tag_1:\n      pop\n      jumpi(tag_2, lt(calldatasize, 0x04))\n      shr(0xe0, calldataload(0x00))\n      dup1\n      0x018cc027\n      eq\n      tag_3\n      jumpi\n      dup1\n      0x12995cb8\n      eq\n      tag_4\n      jumpi\n      dup1\n      0x4e70b1dc\n      eq\n      tag_5\n      jumpi\n    tag_2:\n      revert(0x00, 0x00)\n        /* \"contracts/Conditional.sol\":249:453  function IfElse(bool value) public returns(string memory) {... */\n    tag_3:\n      tag_6\n      0x04\n      dup1\n      calldatasize\n      sub\n      dup2\n      add\n      swap1\n      tag_7\n      swap2\n      swap1\n      tag_8\n      jump\t// in\n    tag_7:\n      tag_9\n      jump\t// in\n    tag_6:\n      mload(0x40)\n      tag_10\n      swap2\n      swap1\n      tag_11\n      jump\t// in\n    tag_10:\n      mload(0x40)\n      dup1\n      swap2\n      sub\n      swap1\n      return\n        /* \"contracts/Conditional.sol\":122:241  function Require(bool value) public {... */\n    tag_4:\n      tag_12\n      0x04\n      dup1\n      calldatasize\n      sub\n      dup2\n      add\n      swap1\n      tag_13\n      swap2\n      swap1\n      tag_8\n      jump\t// in\n    tag_13:\n      tag_14\n      jump\t// in\n    tag_12:\n      stop\n        /* \"contracts/Conditional.sol\":98:113  uint public num */\n    tag_5:\n      tag_15\n      tag_16\n      jump\t// in\n    tag_15:\n      mload(0x40)\n      tag_17\n      swap2\n      swap1\n      tag_18\n      jump\t// in\n    tag_17:\n      mload(0x40)\n      dup1\n      swap2\n      sub\n      swap1\n      return\n        /* \"contracts/Conditional.sol\":249:453  function IfElse(bool value) public returns(string memory) {... */\n    tag_9:\n        /* \"contracts/Conditional.sol\":292:305  string memory */\n      0x60\n        /* \"contracts/Conditional.sol\":330:334  true */\n      0x01\n        /* \"contracts/Conditional.sol\":321:334  value == true */\n      iszero\n      iszero\n        /* \"contracts/Conditional.sol\":321:326  value */\n      dup3\n        /* \"contracts/Conditional.sol\":321:334  value == true */\n      iszero\n      iszero\n      sub\n        /* \"contracts/Conditional.sol\":318:446  if(value == true){... */\n      tag_20\n      jumpi\n        /* \"contracts/Conditional.sol\":356:359  200 */\n      0xc8\n        /* \"contracts/Conditional.sol\":350:353  num */\n      0x00\n        /* \"contracts/Conditional.sol\":350:359  num = 200 */\n      dup2\n      swap1\n      sstore\n      pop\n        /* \"contracts/Conditional.sol\":375:388  return \"true\" */\n      mload(0x40)\n      dup1\n      0x40\n      add\n      0x40\n      mstore\n      dup1\n      0x04\n      dup2\n      mstore\n      0x20\n      add\n      0x7472756500000000000000000000000000000000000000000000000000000000\n      dup2\n      mstore\n      pop\n      swap1\n      pop\n      jump(tag_19)\n        /* \"contracts/Conditional.sol\":318:446  if(value == true){... */\n    tag_20:\n        /* \"contracts/Conditional.sol\":420:434  return \"false\" */\n      mload(0x40)\n      dup1\n      0x40\n      add\n      0x40\n      mstore\n      dup1\n      0x05\n      dup2\n      mstore\n      0x20\n      add\n      0x66616c7365000000000000000000000000000000000000000000000000000000\n      dup2\n      mstore\n      pop\n      swap1\n      pop\n        /* \"contracts/Conditional.sol\":249:453  function IfElse(bool value) public returns(string memory) {... */\n    tag_19:\n      swap2\n      swap1\n      pop\n      jump\t// out\n        /* \"contracts/Conditional.sol\":122:241  function Require(bool value) public {... */\n    tag_14:\n        /* \"contracts/Conditional.sol\":185:190  value */\n      dup1\n        /* \"contracts/Conditional.sol\":179:190  true==value */\n      iszero\n      iszero\n        /* \"contracts/Conditional.sol\":179:183  true */\n      0x01\n        /* \"contracts/Conditional.sol\":179:190  true==value */\n      iszero\n      iszero\n      eq\n        /* \"contracts/Conditional.sol\":171:213  require(true==value, \"Transaction failed\") */\n      tag_23\n      jumpi\n      mload(0x40)\n      0x08c379a000000000000000000000000000000000000000000000000000000000\n      dup2\n      mstore\n      0x04\n      add\n      tag_24\n      swap1\n      tag_25\n      jump\t// in\n    tag_24:\n      mload(0x40)\n      dup1\n      swap2\n      sub\n      swap1\n      revert\n    tag_23:\n        /* \"contracts/Conditional.sol\":230:233  100 */\n      0x64\n        /* \"contracts/Conditional.sol\":224:227  num */\n      0x00\n        /* \"contracts/Conditional.sol\":224:233  num = 100 */\n      dup2\n      swap1\n      sstore\n      pop\n        /* \"contracts/Conditional.sol\":122:241  function Require(bool value) public {... */\n      pop\n      jump\t// out\n        /* \"contracts/Conditional.sol\":98:113  uint public num */\n    tag_16:\n      sload(0x00)\n      dup2\n      jump\t// out\n        /* \"#utility.yul\":88:205   */\n    tag_27:\n        /* \"#utility.yul\":197:198   */\n      0x00\n        /* \"#utility.yul\":194:195   */\n      0x00\n        /* \"#utility.yul\":187:199   */\n      revert\n        /* \"#utility.yul\":334:424   */\n    tag_29:\n        /* \"#utility.yul\":368:375   */\n      0x00\n        /* \"#utility.yul\":411:416   */\n      dup2\n        /* \"#utility.yul\":404:417   */\n      iszero\n        /* \"#utility.yul\":397:418   */\n      iszero\n        /* \"#utility.yul\":386:418   */\n      swap1\n      pop\n        /* \"#utility.yul\":334:424   */\n      swap2\n      swap1\n      pop\n      jump\t// out\n        /* \"#utility.yul\":430:546   */\n    tag_30:\n        /* \"#utility.yul\":500:521   */\n      tag_47\n        /* \"#utility.yul\":515:520   */\n      dup2\n        /* \"#utility.yul\":500:521   */\n      tag_29\n      jump\t// in\n    tag_47:\n        /* \"#utility.yul\":493:498   */\n      dup2\n        /* \"#utility.yul\":490:522   */\n      eq\n        /* \"#utility.yul\":480:540   */\n      tag_48\n      jumpi\n        /* \"#utility.yul\":536:537   */\n      0x00\n        /* \"#utility.yul\":533:534   */\n      0x00\n        /* \"#utility.yul\":526:538   */\n      revert\n        /* \"#utility.yul\":480:540   */\n    tag_48:\n        /* \"#utility.yul\":430:546   */\n      pop\n      jump\t// out\n        /* \"#utility.yul\":552:685   */\n    tag_31:\n        /* \"#utility.yul\":595:600   */\n      0x00\n        /* \"#utility.yul\":633:639   */\n      dup2\n        /* \"#utility.yul\":620:640   */\n      calldataload\n        /* \"#utility.yul\":611:640   */\n      swap1\n      pop\n        /* \"#utility.yul\":649:679   */\n      tag_50\n        /* \"#utility.yul\":673:678   */\n      dup2\n        /* \"#utility.yul\":649:679   */\n      tag_30\n      jump\t// in\n    tag_50:\n        /* \"#utility.yul\":552:685   */\n      swap3\n      swap2\n      pop\n      pop\n      jump\t// out\n        /* \"#utility.yul\":691:1014   */\n    tag_8:\n        /* \"#utility.yul\":747:753   */\n      0x00\n        /* \"#utility.yul\":796:798   */\n      0x20\n        /* \"#utility.yul\":784:793   */\n      dup3\n        /* \"#utility.yul\":775:782   */\n      dup5\n        /* \"#utility.yul\":771:794   */\n      sub\n        /* \"#utility.yul\":767:799   */\n      slt\n        /* \"#utility.yul\":764:883   */\n      iszero\n      tag_52\n      jumpi\n        /* \"#utility.yul\":802:881   */\n      tag_53\n      tag_27\n      jump\t// in\n    tag_53:\n        /* \"#utility.yul\":764:883   */\n    tag_52:\n        /* \"#utility.yul\":922:923   */\n      0x00\n        /* \"#utility.yul\":947:997   */\n      tag_54\n        /* \"#utility.yul\":989:996   */\n      dup5\n        /* \"#utility.yul\":980:986   */\n      dup3\n        /* \"#utility.yul\":969:978   */\n      dup6\n        /* \"#utility.yul\":965:987   */\n      add\n        /* \"#utility.yul\":947:997   */\n      tag_31\n      jump\t// in\n    tag_54:\n        /* \"#utility.yul\":937:997   */\n      swap2\n      pop\n        /* \"#utility.yul\":893:1007   */\n      pop\n        /* \"#utility.yul\":691:1014   */\n      swap3\n      swap2\n      pop\n      pop\n      jump\t// out\n        /* \"#utility.yul\":1020:1119   */\n    tag_32:\n        /* \"#utility.yul\":1072:1078   */\n      0x00\n        /* \"#utility.yul\":1106:1111   */\n      dup2\n        /* \"#utility.yul\":1100:1112   */\n      mload\n        /* \"#utility.yul\":1090:1112   */\n      swap1\n      pop\n        /* \"#utility.yul\":1020:1119   */\n      swap2\n      swap1\n      pop\n      jump\t// out\n        /* \"#utility.yul\":1125:1294   */\n    tag_33:\n        /* \"#utility.yul\":1209:1220   */\n      0x00\n        /* \"#utility.yul\":1243:1249   */\n      dup3\n        /* \"#utility.yul\":1238:1241   */\n      dup3\n        /* \"#utility.yul\":1231:1250   */\n      mstore\n        /* \"#utility.yul\":1283:1287   */\n      0x20\n        /* \"#utility.yul\":1278:1281   */\n      dup3\n        /* \"#utility.yul\":1274:1288   */\n      add\n        /* \"#utility.yul\":1259:1288   */\n      swap1\n      pop\n        /* \"#utility.yul\":1125:1294   */\n      swap3\n      swap2\n      pop\n      pop\n      jump\t// out\n        /* \"#utility.yul\":1300:1439   */\n    tag_34:\n        /* \"#utility.yul\":1389:1395   */\n      dup3\n        /* \"#utility.yul\":1384:1387   */\n      dup2\n        /* \"#utility.yul\":1379:1382   */\n      dup4\n        /* \"#utility.yul\":1373:1396   */\n      mcopy\n        /* \"#utility.yul\":1430:1431   */\n      0x00\n        /* \"#utility.yul\":1421:1427   */\n      dup4\n        /* \"#utility.yul\":1416:1419   */\n      dup4\n        /* \"#utility.yul\":1412:1428   */\n      add\n        /* \"#utility.yul\":1405:1432   */\n      mstore\n        /* \"#utility.yul\":1300:1439   */\n      pop\n      pop\n      pop\n      jump\t// out\n        /* \"#utility.yul\":1445:1547   */\n    tag_35:\n        /* \"#utility.yul\":1486:1492   */\n      0x00\n        /* \"#utility.yul\":1537:1539   */\n      0x1f\n        /* \"#utility.yul\":1533:1540   */\n      not\n        /* \"#utility.yul\":1528:1530   */\n      0x1f\n        /* \"#utility.yul\":1521:1526   */\n      dup4\n        /* \"#utility.yul\":1517:1531   */\n      add\n        /* \"#utility.yul\":1513:1541   */\n      and\n        /* \"#utility.yul\":1503:1541   */\n      swap1\n      pop\n        /* \"#utility.yul\":1445:1547   */\n      swap2\n      swap1\n      pop\n      jump\t// out\n        /* \"#utility.yul\":1553:1930   */\n    tag_36:\n        /* \"#utility.yul\":1641:1644   */\n      0x00\n        /* \"#utility.yul\":1669:1708   */\n      tag_60\n        /* \"#utility.yul\":1702:1707   */\n      dup3\n        /* \"#utility.yul\":1669:1708   */\n      tag_32\n      jump\t// in\n    tag_60:\n        /* \"#utility.yul\":1724:1795   */\n      tag_61\n        /* \"#utility.yul\":1788:1794   */\n      dup2\n        /* \"#utility.yul\":1783:1786   */\n      dup6\n        /* \"#utility.yul\":1724:1795   */\n      tag_33\n      jump\t// in\n    tag_61:\n        /* \"#utility.yul\":1717:1795   */\n      swap4\n      pop\n        /* \"#utility.yul\":1804:1869   */\n      tag_62\n        /* \"#utility.yul\":1862:1868   */\n      dup2\n        /* \"#utility.yul\":1857:1860   */\n      dup6\n        /* \"#utility.yul\":1850:1854   */\n      0x20\n        /* \"#utility.yul\":1843:1848   */\n      dup7\n        /* \"#utility.yul\":1839:1855   */\n      add\n        /* \"#utility.yul\":1804:1869   */\n      tag_34\n      jump\t// in\n    tag_62:\n        /* \"#utility.yul\":1894:1923   */\n      tag_63\n        /* \"#utility.yul\":1916:1922   */\n      dup2\n        /* \"#utility.yul\":1894:1923   */\n      tag_35\n      jump\t// in\n    tag_63:\n        /* \"#utility.yul\":1889:1892   */\n      dup5\n        /* \"#utility.yul\":1885:1924   */\n      add\n        /* \"#utility.yul\":1878:1924   */\n      swap2\n      pop\n        /* \"#utility.yul\":1645:1930   */\n      pop\n        /* \"#utility.yul\":1553:1930   */\n      swap3\n      swap2\n      pop\n      pop\n      jump\t// out\n        /* \"#utility.yul\":1936:2249   */\n    tag_11:\n        /* \"#utility.yul\":2049:2053   */\n      0x00\n        /* \"#utility.yul\":2087:2089   */\n      0x20\n        /* \"#utility.yul\":2076:2085   */\n      dup3\n        /* \"#utility.yul\":2072:2090   */\n      add\n        /* \"#utility.yul\":2064:2090   */\n      swap1\n      pop\n        /* \"#utility.yul\":2136:2145   */\n      dup2\n        /* \"#utility.yul\":2130:2134   */\n      dup2\n        /* \"#utility.yul\":2126:2146   */\n      sub\n        /* \"#utility.yul\":2122:2123   */\n      0x00\n        /* \"#utility.yul\":2111:2120   */\n      dup4\n        /* \"#utility.yul\":2107:2124   */\n      add\n        /* \"#utility.yul\":2100:2147   */\n      mstore\n        /* \"#utility.yul\":2164:2242   */\n      tag_65\n        /* \"#utility.yul\":2237:2241   */\n      dup2\n        /* \"#utility.yul\":2228:2234   */\n      dup5\n        /* \"#utility.yul\":2164:2242   */\n      tag_36\n      jump\t// in\n    tag_65:\n        /* \"#utility.yul\":2156:2242   */\n      swap1\n      pop\n        /* \"#utility.yul\":1936:2249   */\n      swap3\n      swap2\n      pop\n      pop\n      jump\t// out\n        /* \"#utility.yul\":2255:2332   */\n    tag_37:\n        /* \"#utility.yul\":2292:2299   */\n      0x00\n        /* \"#utility.yul\":2321:2326   */\n      dup2\n        /* \"#utility.yul\":2310:2326   */\n      swap1\n      pop\n        /* \"#utility.yul\":2255:2332   */\n      swap2\n      swap1\n      pop\n      jump\t// out\n        /* \"#utility.yul\":2338:2456   */\n    tag_38:\n        /* \"#utility.yul\":2425:2449   */\n      tag_68\n        /* \"#utility.yul\":2443:2448   */\n      dup2\n        /* \"#utility.yul\":2425:2449   */\n      tag_37\n      jump\t// in\n    tag_68:\n        /* \"#utility.yul\":2420:2423   */\n      dup3\n        /* \"#utility.yul\":2413:2450   */\n      mstore\n        /* \"#utility.yul\":2338:2456   */\n      pop\n      pop\n      jump\t// out\n        /* \"#utility.yul\":2462:2684   */\n    tag_18:\n        /* \"#utility.yul\":2555:2559   */\n      0x00\n        /* \"#utility.yul\":2593:2595   */\n      0x20\n        /* \"#utility.yul\":2582:2591   */\n      dup3\n        /* \"#utility.yul\":2578:2596   */\n      add\n        /* \"#utility.yul\":2570:2596   */\n      swap1\n      pop\n        /* \"#utility.yul\":2606:2677   */\n      tag_70\n        /* \"#utility.yul\":2674:2675   */\n      0x00\n        /* \"#utility.yul\":2663:2672   */\n      dup4\n        /* \"#utility.yul\":2659:2676   */\n      add\n        /* \"#utility.yul\":2650:2656   */\n      dup5\n        /* \"#utility.yul\":2606:2677   */\n      tag_38\n      jump\t// in\n    tag_70:\n        /* \"#utility.yul\":2462:2684   */\n      swap3\n      swap2\n      pop\n      pop\n      jump\t// out\n        /* \"#utility.yul\":2690:2858   */\n    tag_39:\n        /* \"#utility.yul\":2830:2850   */\n      0x5472616e73616374696f6e206661696c65640000000000000000000000000000\n        /* \"#utility.yul\":2826:2827   */\n      0x00\n        /* \"#utility.yul\":2818:2824   */\n      dup3\n        /* \"#utility.yul\":2814:2828   */\n      add\n        /* \"#utility.yul\":2807:2851   */\n      mstore\n        /* \"#utility.yul\":2690:2858   */\n      pop\n      jump\t// out\n        /* \"#utility.yul\":2864:3230   */\n    tag_40:\n        /* \"#utility.yul\":3006:3009   */\n      0x00\n        /* \"#utility.yul\":3027:3094   */\n      tag_73\n        /* \"#utility.yul\":3091:3093   */\n      0x12\n        /* \"#utility.yul\":3086:3089   */\n      dup4\n        /* \"#utility.yul\":3027:3094   */\n      tag_33\n      jump\t// in\n    tag_73:\n        /* \"#utility.yul\":3020:3094   */\n      swap2\n      pop\n        /* \"#utility.yul\":3103:3196   */\n      tag_74\n        /* \"#utility.yul\":3192:3195   */\n      dup3\n        /* \"#utility.yul\":3103:3196   */\n      tag_39\n      jump\t// in\n    tag_74:\n        /* \"#utility.yul\":3221:3223   */\n      0x20\n        /* \"#utility.yul\":3216:3219   */\n      dup3\n        /* \"#utility.yul\":3212:3224   */\n      add\n        /* \"#utility.yul\":3205:3224   */\n      swap1\n      pop\n        /* \"#utility.yul\":2864:3230   */\n      swap2\n      swap1\n      pop\n      jump\t// out\n        /* \"#utility.yul\":3236:3655   */\n    tag_25:\n        /* \"#utility.yul\":3402:3406   */\n      0x00\n        /* \"#utility.yul\":3440:3442   */\n      0x20\n        /* \"#utility.yul\":3429:3438   */\n      dup3\n        /* \"#utility.yul\":3425:3443   */\n      add\n        /* \"#utility.yul\":3417:3443   */\n      swap1\n      pop\n        /* \"#utility.yul\":3489:3498   */\n      dup2\n        /* \"#utility.yul\":3483:3487   */\n      dup2\n        /* \"#utility.yul\":3479:3499   */\n      sub\n        /* \"#utility.yul\":3475:3476   */\n      0x00\n        /* \"#utility.yul\":3464:3473   */\n      dup4\n        /* \"#utility.yul\":3460:3477   */\n      add\n        /* \"#utility.yul\":3453:3500   */\n      mstore\n        /* \"#utility.yul\":3517:3648   */\n      tag_76\n        /* \"#utility.yul\":3643:3647   */\n      dup2\n        /* \"#utility.yul\":3517:3648   */\n      tag_40\n      jump\t// in\n    tag_76:\n        /* \"#utility.yul\":3509:3648   */\n      swap1\n      pop\n        /* \"#utility.yul\":3236:3655   */\n      swap2\n      swap1\n      pop\n      jump\t// out\n\n    auxdata: 0xa2646970667358221220399650e041cff67bbd1f738036be171c8e26505c36a379f9ae51981dd839007e64736f6c634300081b0033\n}\n",
				"bytecode": {
					"linkReferences": {},
					"object": "6080604052348015600e575f5ffd5b506103568061001c5f395ff3fe608060405234801561000f575f5ffd5b506004361061003f575f3560e01c8063018cc0271461004357806312995cb8146100735780634e70b1dc1461008f575b5f5ffd5b61005d600480360381019061005891906101cc565b6100ad565b60405161006a9190610267565b60405180910390f35b61008d600480360381019061008891906101cc565b61013d565b005b61009761018e565b6040516100a4919061029f565b60405180910390f35b606060011515821515036100ff5760c85f819055506040518060400160405280600481526020017f74727565000000000000000000000000000000000000000000000000000000008152509050610138565b6040518060400160405280600581526020017f66616c736500000000000000000000000000000000000000000000000000000081525090505b919050565b8015156001151514610184576040517f08c379a000000000000000000000000000000000000000000000000000000000815260040161017b90610302565b60405180910390fd5b60645f8190555050565b5f5481565b5f5ffd5b5f8115159050919050565b6101ab81610197565b81146101b5575f5ffd5b50565b5f813590506101c6816101a2565b92915050565b5f602082840312156101e1576101e0610193565b5b5f6101ee848285016101b8565b91505092915050565b5f81519050919050565b5f82825260208201905092915050565b8281835e5f83830152505050565b5f601f19601f8301169050919050565b5f610239826101f7565b6102438185610201565b9350610253818560208601610211565b61025c8161021f565b840191505092915050565b5f6020820190508181035f83015261027f818461022f565b905092915050565b5f819050919050565b61029981610287565b82525050565b5f6020820190506102b25f830184610290565b92915050565b7f5472616e73616374696f6e206661696c656400000000000000000000000000005f82015250565b5f6102ec601283610201565b91506102f7826102b8565b602082019050919050565b5f6020820190508181035f830152610319816102e0565b905091905056fea2646970667358221220399650e041cff67bbd1f738036be171c8e26505c36a379f9ae51981dd839007e64736f6c634300081b0033",
					"opcodes": "PUSH1 0x80 PUSH1 0x40 MSTORE CALLVALUE DUP1 ISZERO PUSH1 0xE JUMPI PUSH0 PUSH0 REVERT JUMPDEST POP PUSH2 0x356 DUP1 PUSH2 0x1C PUSH0 CODECOPY PUSH0 RETURN INVALID PUSH1 0x80 PUSH1 0x40 MSTORE CALLVALUE DUP1 ISZERO PUSH2 0xF JUMPI PUSH0 PUSH0 REVERT JUMPDEST POP PUSH1 0x4 CALLDATASIZE LT PUSH2 0x3F JUMPI PUSH0 CALLDATALOAD PUSH1 0xE0 SHR DUP1 PUSH4 0x18CC027 EQ PUSH2 0x43 JUMPI DUP1 PUSH4 0x12995CB8 EQ PUSH2 0x73 JUMPI DUP1 PUSH4 0x4E70B1DC EQ PUSH2 0x8F JUMPI JUMPDEST PUSH0 PUSH0 REVERT JUMPDEST PUSH2 0x5D PUSH1 0x4 DUP1 CALLDATASIZE SUB DUP2 ADD SWAP1 PUSH2 0x58 SWAP2 SWAP1 PUSH2 0x1CC JUMP JUMPDEST PUSH2 0xAD JUMP JUMPDEST PUSH1 0x40 MLOAD PUSH2 0x6A SWAP2 SWAP1 PUSH2 0x267 JUMP JUMPDEST PUSH1 0x40 MLOAD DUP1 SWAP2 SUB SWAP1 RETURN JUMPDEST PUSH2 0x8D PUSH1 0x4 DUP1 CALLDATASIZE SUB DUP2 ADD SWAP1 PUSH2 0x88 SWAP2 SWAP1 PUSH2 0x1CC JUMP JUMPDEST PUSH2 0x13D JUMP JUMPDEST STOP JUMPDEST PUSH2 0x97 PUSH2 0x18E JUMP JUMPDEST PUSH1 0x40 MLOAD PUSH2 0xA4 SWAP2 SWAP1 PUSH2 0x29F JUMP JUMPDEST PUSH1 0x40 MLOAD DUP1 SWAP2 SUB SWAP1 RETURN JUMPDEST PUSH1 0x60 PUSH1 0x1 ISZERO ISZERO DUP3 ISZERO ISZERO SUB PUSH2 0xFF JUMPI PUSH1 0xC8 PUSH0 DUP2 SWAP1 SSTORE POP PUSH1 0x40 MLOAD DUP1 PUSH1 0x40 ADD PUSH1 0x40 MSTORE DUP1 PUSH1 0x4 DUP2 MSTORE PUSH1 0x20 ADD PUSH32 0x7472756500000000000000000000000000000000000000000000000000000000 DUP2 MSTORE POP SWAP1 POP PUSH2 0x138 JUMP JUMPDEST PUSH1 0x40 MLOAD DUP1 PUSH1 0x40 ADD PUSH1 0x40 MSTORE DUP1 PUSH1 0x5 DUP2 MSTORE PUSH1 0x20 ADD PUSH32 0x66616C7365000000000000000000000000000000000000000000000000000000 DUP2 MSTORE POP SWAP1 POP JUMPDEST SWAP2 SWAP1 POP JUMP JUMPDEST DUP1 ISZERO ISZERO PUSH1 0x1 ISZERO ISZERO EQ PUSH2 0x184 JUMPI PUSH1 0x40 MLOAD PUSH32 0x8C379A000000000000000000000000000000000000000000000000000000000 DUP2 MSTORE PUSH1 0x4 ADD PUSH2 0x17B SWAP1 PUSH2 0x302 JUMP JUMPDEST PUSH1 0x40 MLOAD DUP1 SWAP2 SUB SWAP1 REVERT JUMPDEST PUSH1 0x64 PUSH0 DUP2 SWAP1 SSTORE POP POP JUMP JUMPDEST PUSH0 SLOAD DUP2 JUMP JUMPDEST PUSH0 PUSH0 REVERT JUMPDEST PUSH0 DUP2 ISZERO ISZERO SWAP1 POP SWAP2 SWAP1 POP JUMP JUMPDEST PUSH2 0x1AB DUP2 PUSH2 0x197 JUMP JUMPDEST DUP2 EQ PUSH2 0x1B5 JUMPI PUSH0 PUSH0 REVERT JUMPDEST POP JUMP JUMPDEST PUSH0 DUP2 CALLDATALOAD SWAP1 POP PUSH2 0x1C6 DUP2 PUSH2 0x1A2 JUMP JUMPDEST SWAP3 SWAP2 POP POP JUMP JUMPDEST PUSH0 PUSH1 0x20 DUP3 DUP5 SUB SLT ISZERO PUSH2 0x1E1 JUMPI PUSH2 0x1E0 PUSH2 0x193 JUMP JUMPDEST JUMPDEST PUSH0 PUSH2 0x1EE DUP5 DUP3 DUP6 ADD PUSH2 0x1B8 JUMP JUMPDEST SWAP2 POP POP SWAP3 SWAP2 POP POP JUMP JUMPDEST PUSH0 DUP2 MLOAD SWAP1 POP SWAP2 SWAP1 POP JUMP JUMPDEST PUSH0 DUP3 DUP3 MSTORE PUSH1 0x20 DUP3 ADD SWAP1 POP SWAP3 SWAP2 POP POP JUMP JUMPDEST DUP3 DUP2 DUP4 MCOPY PUSH0 DUP4 DUP4 ADD MSTORE POP POP POP JUMP JUMPDEST PUSH0 PUSH1 0x1F NOT PUSH1 0x1F DUP4 ADD AND SWAP1 POP SWAP2 SWAP1 POP JUMP JUMPDEST PUSH0 PUSH2 0x239 DUP3 PUSH2 0x1F7 JUMP JUMPDEST PUSH2 0x243 DUP2 DUP6 PUSH2 0x201 JUMP JUMPDEST SWAP4 POP PUSH2 0x253 DUP2 DUP6 PUSH1 0x20 DUP7 ADD PUSH2 0x211 JUMP JUMPDEST PUSH2 0x25C DUP2 PUSH2 0x21F JUMP JUMPDEST DUP5 ADD SWAP2 POP POP SWAP3 SWAP2 POP POP JUMP JUMPDEST PUSH0 PUSH1 0x20 DUP3 ADD SWAP1 POP DUP2 DUP2 SUB PUSH0 DUP4 ADD MSTORE PUSH2 0x27F DUP2 DUP5 PUSH2 0x22F JUMP JUMPDEST SWAP1 POP SWAP3 SWAP2 POP POP JUMP JUMPDEST PUSH0 DUP2 SWAP1 POP SWAP2 SWAP1 POP JUMP JUMPDEST PUSH2 0x299 DUP2 PUSH2 0x287 JUMP JUMPDEST DUP3 MSTORE POP POP JUMP JUMPDEST PUSH0 PUSH1 0x20 DUP3 ADD SWAP1 POP PUSH2 0x2B2 PUSH0 DUP4 ADD DUP5 PUSH2 0x290 JUMP JUMPDEST SWAP3 SWAP2 POP POP JUMP JUMPDEST PUSH32 0x5472616E73616374696F6E206661696C65640000000000000000000000000000 PUSH0 DUP3 ADD MSTORE POP JUMP JUMPDEST PUSH0 PUSH2 0x2EC PUSH1 0x12 DUP4 PUSH2 0x201 JUMP JUMPDEST SWAP2 POP PUSH2 0x2F7 DUP3 PUSH2 0x2B8 JUMP JUMPDEST PUSH1 0x20 DUP3 ADD SWAP1 POP SWAP2 SWAP1 POP JUMP JUMPDEST PUSH0 PUSH1 0x20 DUP3 ADD SWAP1 POP DUP2 DUP2 SUB PUSH0 DUP4 ADD MSTORE PUSH2 0x319 DUP2 PUSH2 0x2E0 JUMP JUMPDEST SWAP1 POP SWAP2 SWAP1 POP JUMP INVALID LOG2 PUSH5 0x6970667358 0x22 SLT KECCAK256 CODECOPY SWAP7 POP 0xE0 COINBASE 0xCF 0xF6 PUSH28 0xBD1F738036BE171C8E26505C36A379F9AE51981DD839007E64736F6C PUSH4 0x4300081B STOP CALLER "
				},
				"gasEstimates": {
					"creation": {
						"codeDepositCost": "170800",
						"executionCost": "212",
						"totalCost": "171012"
					},
					"external": {
						"IfElse(bool)": "infinite",
						"Require(bool)": "22555",
						"num()": "2446"
					}
				},
				"methodIdentifiers": {
					"IfElse(bool)": "018cc027",
					"Require(bool)": "12995cb8",
					"num()": "4e70b1dc"
				}
			},
			"storageLayout": {
				"storage": [
					{
						"astId": 3,
						"contract": "contracts/Conditional.sol:Conditional",
						"label": "num",
						"offset": 0,
						"slot": "0",
						"type": "t_uint256"
					}
				],
				"types": {
					"t_uint256": {
						"encoding": "inplace",
						"label": "uint256",
						"numberOfBytes": "32"
					}
				}
			},
			"userdoc": {
				"kind": "user",
				"methods": {},
				"version": 1
			}
		}
	}
}