{
	"contracts/MemoryVsCallData.sol": {
		"MemoryVsCallData": {
			"abi": [
				{
					"inputs": [
						{
							"internalType": "uint256[]",
							"name": "num",
							"type": "uint256[]"
						}
					],
					"name": "CallDataEx",
					"outputs": [
						{
							"internalType": "uint256",
							"name": "",
							"type": "uint256"
						}
					],
					"stateMutability": "pure",
					"type": "function"
				},
				{
					"inputs": [
						{
							"internalType": "uint256[]",
							"name": "num",
							"type": "uint256[]"
						}
					],
					"name": "multiplyBy2",
					"outputs": [
						{
							"internalType": "uint256[]",
							"name": "",
							"type": "uint256[]"
						}
					],
					"stateMutability": "pure",
					"type": "function"
				}
			],
			"devdoc": {
				"kind": "dev",
				"methods": {},
				"version": 1
			},
			"evm": {
				"assembly": "    /* \"contracts/MemoryVsCallData.sol\":70:657  contract MemoryVsCallData {... */\n  mstore(0x40, 0x80)\n  callvalue\n  dup1\n  iszero\n  tag_1\n  jumpi\n  revert(0x00, 0x00)\ntag_1:\n  pop\n  dataSize(sub_0)\n  dup1\n  dataOffset(sub_0)\n  0x00\n  codecopy\n  0x00\n  return\nstop\n\nsub_0: assembly {\n        /* \"contracts/MemoryVsCallData.sol\":70:657  contract MemoryVsCallData {... */\n      mstore(0x40, 0x80)\n      callvalue\n      dup1\n      iszero\n      tag_1\n      jumpi\n      revert(0x00, 0x00)\n    tag_1:\n      pop\n      jumpi(tag_2, lt(calldatasize, 0x04))\n      shr(0xe0, calldataload(0x00))\n      dup1\n      0x7e0191c5\n      eq\n      tag_3\n      jumpi\n      dup1\n      0xdf14ca0c\n      eq\n      tag_4\n      jumpi\n    tag_2:\n      revert(0x00, 0x00)\n        /* \"contracts/MemoryVsCallData.sol\":471:639  function CallDataEx(uint[] calldata num) public pure returns(uint) {... */\n    tag_3:\n      tag_5\n      0x04\n      dup1\n      calldatasize\n      sub\n      dup2\n      add\n      swap1\n      tag_6\n      swap2\n      swap1\n      tag_7\n      jump\t// in\n    tag_6:\n      tag_8\n      jump\t// in\n    tag_5:\n      mload(0x40)\n      tag_9\n      swap2\n      swap1\n      tag_10\n      jump\t// in\n    tag_9:\n      mload(0x40)\n      dup1\n      swap2\n      sub\n      swap1\n      return\n        /* \"contracts/MemoryVsCallData.sol\":126:259  function multiplyBy2(uint[] memory num) public pure  returns(uint[] memory) {... */\n    tag_4:\n      tag_11\n      0x04\n      dup1\n      calldatasize\n      sub\n      dup2\n      add\n      swap1\n      tag_12\n      swap2\n      swap1\n      tag_13\n      jump\t// in\n    tag_12:\n      tag_14\n      jump\t// in\n    tag_11:\n      mload(0x40)\n      tag_15\n      swap2\n      swap1\n      tag_16\n      jump\t// in\n    tag_15:\n      mload(0x40)\n      dup1\n      swap2\n      sub\n      swap1\n      return\n        /* \"contracts/MemoryVsCallData.sol\":471:639  function CallDataEx(uint[] calldata num) public pure returns(uint) {... */\n    tag_8:\n        /* \"contracts/MemoryVsCallData.sol\":532:536  uint */\n      0x00\n        /* \"contracts/MemoryVsCallData.sol\":549:555  uint a */\n      0x00\n        /* \"contracts/MemoryVsCallData.sol\":566:572  uint b */\n      0x00\n        /* \"contracts/MemoryVsCallData.sol\":587:590  num */\n      dup5\n      dup5\n        /* \"contracts/MemoryVsCallData.sol\":591:592  0 */\n      0x00\n        /* \"contracts/MemoryVsCallData.sol\":587:593  num[0] */\n      dup2\n      dup2\n      lt\n      tag_18\n      jumpi\n      tag_19\n      tag_20\n      jump\t// in\n    tag_19:\n    tag_18:\n      swap1\n      pop\n      0x20\n      mul\n      add\n      calldataload\n        /* \"contracts/MemoryVsCallData.sol\":583:593  a = num[0] */\n      swap2\n      pop\n        /* \"contracts/MemoryVsCallData.sol\":610:612  10 */\n      0x0a\n        /* \"contracts/MemoryVsCallData.sol\":608:609  a */\n      dup3\n        /* \"contracts/MemoryVsCallData.sol\":608:612  a*10 */\n      tag_21\n      swap2\n      swap1\n      tag_22\n      jump\t// in\n    tag_21:\n        /* \"contracts/MemoryVsCallData.sol\":604:612  b = a*10 */\n      swap1\n      pop\n        /* \"contracts/MemoryVsCallData.sol\":630:631  b */\n      dup1\n        /* \"contracts/MemoryVsCallData.sol\":623:631  return b */\n      swap3\n      pop\n      pop\n      pop\n        /* \"contracts/MemoryVsCallData.sol\":471:639  function CallDataEx(uint[] calldata num) public pure returns(uint) {... */\n      swap3\n      swap2\n      pop\n      pop\n      jump\t// out\n        /* \"contracts/MemoryVsCallData.sol\":126:259  function multiplyBy2(uint[] memory num) public pure  returns(uint[] memory) {... */\n    tag_14:\n        /* \"contracts/MemoryVsCallData.sol\":187:200  uint[] memory */\n      0x60\n        /* \"contracts/MemoryVsCallData.sol\":225:228  num */\n      dup2\n        /* \"contracts/MemoryVsCallData.sol\":229:230  0 */\n      0x00\n        /* \"contracts/MemoryVsCallData.sol\":225:231  num[0] */\n      dup2\n      mload\n      dup2\n      lt\n      tag_24\n      jumpi\n      tag_25\n      tag_20\n      jump\t// in\n    tag_25:\n    tag_24:\n      0x20\n      mul\n      0x20\n      add\n      add\n      mload\n        /* \"contracts/MemoryVsCallData.sol\":221:222  2 */\n      0x02\n        /* \"contracts/MemoryVsCallData.sol\":221:231  2 * num[0] */\n      tag_26\n      swap2\n      swap1\n      tag_22\n      jump\t// in\n    tag_26:\n        /* \"contracts/MemoryVsCallData.sol\":212:215  num */\n      dup3\n        /* \"contracts/MemoryVsCallData.sol\":216:217  0 */\n      0x00\n        /* \"contracts/MemoryVsCallData.sol\":212:218  num[0] */\n      dup2\n      mload\n      dup2\n      lt\n      tag_27\n      jumpi\n      tag_28\n      tag_20\n      jump\t// in\n    tag_28:\n    tag_27:\n      0x20\n      mul\n      0x20\n      add\n      add\n        /* \"contracts/MemoryVsCallData.sol\":212:231  num[0] = 2 * num[0] */\n      dup2\n      dup2\n      mstore\n      pop\n      pop\n        /* \"contracts/MemoryVsCallData.sol\":248:251  num */\n      dup2\n        /* \"contracts/MemoryVsCallData.sol\":241:251  return num */\n      swap1\n      pop\n        /* \"contracts/MemoryVsCallData.sol\":126:259  function multiplyBy2(uint[] memory num) public pure  returns(uint[] memory) {... */\n      swap2\n      swap1\n      pop\n      jump\t// out\n        /* \"#utility.yul\":7:82   */\n    tag_29:\n        /* \"#utility.yul\":40:46   */\n      0x00\n        /* \"#utility.yul\":73:75   */\n      0x40\n        /* \"#utility.yul\":67:76   */\n      mload\n        /* \"#utility.yul\":57:76   */\n      swap1\n      pop\n        /* \"#utility.yul\":7:82   */\n      swap1\n      jump\t// out\n        /* \"#utility.yul\":88:205   */\n    tag_30:\n        /* \"#utility.yul\":197:198   */\n      0x00\n        /* \"#utility.yul\":194:195   */\n      0x00\n        /* \"#utility.yul\":187:199   */\n      revert\n        /* \"#utility.yul\":211:328   */\n    tag_31:\n        /* \"#utility.yul\":320:321   */\n      0x00\n        /* \"#utility.yul\":317:318   */\n      0x00\n        /* \"#utility.yul\":310:322   */\n      revert\n        /* \"#utility.yul\":334:451   */\n    tag_32:\n        /* \"#utility.yul\":443:444   */\n      0x00\n        /* \"#utility.yul\":440:441   */\n      0x00\n        /* \"#utility.yul\":433:445   */\n      revert\n        /* \"#utility.yul\":457:574   */\n    tag_33:\n        /* \"#utility.yul\":566:567   */\n      0x00\n        /* \"#utility.yul\":563:564   */\n      0x00\n        /* \"#utility.yul\":556:568   */\n      revert\n        /* \"#utility.yul\":580:697   */\n    tag_34:\n        /* \"#utility.yul\":689:690   */\n      0x00\n        /* \"#utility.yul\":686:687   */\n      0x00\n        /* \"#utility.yul\":679:691   */\n      revert\n        /* \"#utility.yul\":720:1288   */\n    tag_35:\n        /* \"#utility.yul\":793:801   */\n      0x00\n        /* \"#utility.yul\":803:809   */\n      0x00\n        /* \"#utility.yul\":853:856   */\n      dup4\n        /* \"#utility.yul\":846:850   */\n      0x1f\n        /* \"#utility.yul\":838:844   */\n      dup5\n        /* \"#utility.yul\":834:851   */\n      add\n        /* \"#utility.yul\":830:857   */\n      slt\n        /* \"#utility.yul\":820:942   */\n      tag_63\n      jumpi\n        /* \"#utility.yul\":861:940   */\n      tag_64\n      tag_32\n      jump\t// in\n    tag_64:\n        /* \"#utility.yul\":820:942   */\n    tag_63:\n        /* \"#utility.yul\":974:980   */\n      dup3\n        /* \"#utility.yul\":961:981   */\n      calldataload\n        /* \"#utility.yul\":951:981   */\n      swap1\n      pop\n        /* \"#utility.yul\":1004:1022   */\n      0xffffffffffffffff\n        /* \"#utility.yul\":996:1002   */\n      dup2\n        /* \"#utility.yul\":993:1023   */\n      gt\n        /* \"#utility.yul\":990:1107   */\n      iszero\n      tag_65\n      jumpi\n        /* \"#utility.yul\":1026:1105   */\n      tag_66\n      tag_33\n      jump\t// in\n    tag_66:\n        /* \"#utility.yul\":990:1107   */\n    tag_65:\n        /* \"#utility.yul\":1140:1144   */\n      0x20\n        /* \"#utility.yul\":1132:1138   */\n      dup4\n        /* \"#utility.yul\":1128:1145   */\n      add\n        /* \"#utility.yul\":1116:1145   */\n      swap2\n      pop\n        /* \"#utility.yul\":1194:1197   */\n      dup4\n        /* \"#utility.yul\":1186:1190   */\n      0x20\n        /* \"#utility.yul\":1178:1184   */\n      dup3\n        /* \"#utility.yul\":1174:1191   */\n      mul\n        /* \"#utility.yul\":1164:1172   */\n      dup4\n        /* \"#utility.yul\":1160:1192   */\n      add\n        /* \"#utility.yul\":1157:1198   */\n      gt\n        /* \"#utility.yul\":1154:1282   */\n      iszero\n      tag_67\n      jumpi\n        /* \"#utility.yul\":1201:1280   */\n      tag_68\n      tag_34\n      jump\t// in\n    tag_68:\n        /* \"#utility.yul\":1154:1282   */\n    tag_67:\n        /* \"#utility.yul\":720:1288   */\n      swap3\n      pop\n      swap3\n      swap1\n      pop\n      jump\t// out\n        /* \"#utility.yul\":1294:1853   */\n    tag_7:\n        /* \"#utility.yul\":1380:1386   */\n      0x00\n        /* \"#utility.yul\":1388:1394   */\n      0x00\n        /* \"#utility.yul\":1437:1439   */\n      0x20\n        /* \"#utility.yul\":1425:1434   */\n      dup4\n        /* \"#utility.yul\":1416:1423   */\n      dup6\n        /* \"#utility.yul\":1412:1435   */\n      sub\n        /* \"#utility.yul\":1408:1440   */\n      slt\n        /* \"#utility.yul\":1405:1524   */\n      iszero\n      tag_70\n      jumpi\n        /* \"#utility.yul\":1443:1522   */\n      tag_71\n      tag_30\n      jump\t// in\n    tag_71:\n        /* \"#utility.yul\":1405:1524   */\n    tag_70:\n        /* \"#utility.yul\":1591:1592   */\n      0x00\n        /* \"#utility.yul\":1580:1589   */\n      dup4\n        /* \"#utility.yul\":1576:1593   */\n      add\n        /* \"#utility.yul\":1563:1594   */\n      calldataload\n        /* \"#utility.yul\":1621:1639   */\n      0xffffffffffffffff\n        /* \"#utility.yul\":1613:1619   */\n      dup2\n        /* \"#utility.yul\":1610:1640   */\n      gt\n        /* \"#utility.yul\":1607:1724   */\n      iszero\n      tag_72\n      jumpi\n        /* \"#utility.yul\":1643:1722   */\n      tag_73\n      tag_31\n      jump\t// in\n    tag_73:\n        /* \"#utility.yul\":1607:1724   */\n    tag_72:\n        /* \"#utility.yul\":1756:1836   */\n      tag_74\n        /* \"#utility.yul\":1828:1835   */\n      dup6\n        /* \"#utility.yul\":1819:1825   */\n      dup3\n        /* \"#utility.yul\":1808:1817   */\n      dup7\n        /* \"#utility.yul\":1804:1826   */\n      add\n        /* \"#utility.yul\":1756:1836   */\n      tag_35\n      jump\t// in\n    tag_74:\n        /* \"#utility.yul\":1738:1836   */\n      swap3\n      pop\n      swap3\n      pop\n        /* \"#utility.yul\":1534:1846   */\n      pop\n        /* \"#utility.yul\":1294:1853   */\n      swap3\n      pop\n      swap3\n      swap1\n      pop\n      jump\t// out\n        /* \"#utility.yul\":1859:1936   */\n    tag_36:\n        /* \"#utility.yul\":1896:1903   */\n      0x00\n        /* \"#utility.yul\":1925:1930   */\n      dup2\n        /* \"#utility.yul\":1914:1930   */\n      swap1\n      pop\n        /* \"#utility.yul\":1859:1936   */\n      swap2\n      swap1\n      pop\n      jump\t// out\n        /* \"#utility.yul\":1942:2060   */\n    tag_37:\n        /* \"#utility.yul\":2029:2053   */\n      tag_77\n        /* \"#utility.yul\":2047:2052   */\n      dup2\n        /* \"#utility.yul\":2029:2053   */\n      tag_36\n      jump\t// in\n    tag_77:\n        /* \"#utility.yul\":2024:2027   */\n      dup3\n        /* \"#utility.yul\":2017:2054   */\n      mstore\n        /* \"#utility.yul\":1942:2060   */\n      pop\n      pop\n      jump\t// out\n        /* \"#utility.yul\":2066:2288   */\n    tag_10:\n        /* \"#utility.yul\":2159:2163   */\n      0x00\n        /* \"#utility.yul\":2197:2199   */\n      0x20\n        /* \"#utility.yul\":2186:2195   */\n      dup3\n        /* \"#utility.yul\":2182:2200   */\n      add\n        /* \"#utility.yul\":2174:2200   */\n      swap1\n      pop\n        /* \"#utility.yul\":2210:2281   */\n      tag_79\n        /* \"#utility.yul\":2278:2279   */\n      0x00\n        /* \"#utility.yul\":2267:2276   */\n      dup4\n        /* \"#utility.yul\":2263:2280   */\n      add\n        /* \"#utility.yul\":2254:2260   */\n      dup5\n        /* \"#utility.yul\":2210:2281   */\n      tag_37\n      jump\t// in\n    tag_79:\n        /* \"#utility.yul\":2066:2288   */\n      swap3\n      swap2\n      pop\n      pop\n      jump\t// out\n        /* \"#utility.yul\":2294:2396   */\n    tag_38:\n        /* \"#utility.yul\":2335:2341   */\n      0x00\n        /* \"#utility.yul\":2386:2388   */\n      0x1f\n        /* \"#utility.yul\":2382:2389   */\n      not\n        /* \"#utility.yul\":2377:2379   */\n      0x1f\n        /* \"#utility.yul\":2370:2375   */\n      dup4\n        /* \"#utility.yul\":2366:2380   */\n      add\n        /* \"#utility.yul\":2362:2390   */\n      and\n        /* \"#utility.yul\":2352:2390   */\n      swap1\n      pop\n        /* \"#utility.yul\":2294:2396   */\n      swap2\n      swap1\n      pop\n      jump\t// out\n        /* \"#utility.yul\":2402:2582   */\n    tag_39:\n        /* \"#utility.yul\":2450:2527   */\n      0x4e487b7100000000000000000000000000000000000000000000000000000000\n        /* \"#utility.yul\":2447:2448   */\n      0x00\n        /* \"#utility.yul\":2440:2528   */\n      mstore\n        /* \"#utility.yul\":2547:2551   */\n      0x41\n        /* \"#utility.yul\":2544:2545   */\n      0x04\n        /* \"#utility.yul\":2537:2552   */\n      mstore\n        /* \"#utility.yul\":2571:2575   */\n      0x24\n        /* \"#utility.yul\":2568:2569   */\n      0x00\n        /* \"#utility.yul\":2561:2576   */\n      revert\n        /* \"#utility.yul\":2588:2869   */\n    tag_40:\n        /* \"#utility.yul\":2671:2698   */\n      tag_83\n        /* \"#utility.yul\":2693:2697   */\n      dup3\n        /* \"#utility.yul\":2671:2698   */\n      tag_38\n      jump\t// in\n    tag_83:\n        /* \"#utility.yul\":2663:2669   */\n      dup2\n        /* \"#utility.yul\":2659:2699   */\n      add\n        /* \"#utility.yul\":2801:2807   */\n      dup2\n        /* \"#utility.yul\":2789:2799   */\n      dup2\n        /* \"#utility.yul\":2786:2808   */\n      lt\n        /* \"#utility.yul\":2765:2783   */\n      0xffffffffffffffff\n        /* \"#utility.yul\":2753:2763   */\n      dup3\n        /* \"#utility.yul\":2750:2784   */\n      gt\n        /* \"#utility.yul\":2747:2809   */\n      or\n        /* \"#utility.yul\":2744:2832   */\n      iszero\n      tag_84\n      jumpi\n        /* \"#utility.yul\":2812:2830   */\n      tag_85\n      tag_39\n      jump\t// in\n    tag_85:\n        /* \"#utility.yul\":2744:2832   */\n    tag_84:\n        /* \"#utility.yul\":2852:2862   */\n      dup1\n        /* \"#utility.yul\":2848:2850   */\n      0x40\n        /* \"#utility.yul\":2841:2863   */\n      mstore\n        /* \"#utility.yul\":2631:2869   */\n      pop\n        /* \"#utility.yul\":2588:2869   */\n      pop\n      pop\n      jump\t// out\n        /* \"#utility.yul\":2875:3004   */\n    tag_41:\n        /* \"#utility.yul\":2909:2915   */\n      0x00\n        /* \"#utility.yul\":2936:2956   */\n      tag_87\n      tag_29\n      jump\t// in\n    tag_87:\n        /* \"#utility.yul\":2926:2956   */\n      swap1\n      pop\n        /* \"#utility.yul\":2965:2998   */\n      tag_88\n        /* \"#utility.yul\":2993:2997   */\n      dup3\n        /* \"#utility.yul\":2985:2991   */\n      dup3\n        /* \"#utility.yul\":2965:2998   */\n      tag_40\n      jump\t// in\n    tag_88:\n        /* \"#utility.yul\":2875:3004   */\n      swap2\n      swap1\n      pop\n      jump\t// out\n        /* \"#utility.yul\":3010:3321   */\n    tag_42:\n        /* \"#utility.yul\":3087:3091   */\n      0x00\n        /* \"#utility.yul\":3177:3195   */\n      0xffffffffffffffff\n        /* \"#utility.yul\":3169:3175   */\n      dup3\n        /* \"#utility.yul\":3166:3196   */\n      gt\n        /* \"#utility.yul\":3163:3219   */\n      iszero\n      tag_90\n      jumpi\n        /* \"#utility.yul\":3199:3217   */\n      tag_91\n      tag_39\n      jump\t// in\n    tag_91:\n        /* \"#utility.yul\":3163:3219   */\n    tag_90:\n        /* \"#utility.yul\":3249:3253   */\n      0x20\n        /* \"#utility.yul\":3241:3247   */\n      dup3\n        /* \"#utility.yul\":3237:3254   */\n      mul\n        /* \"#utility.yul\":3229:3254   */\n      swap1\n      pop\n        /* \"#utility.yul\":3309:3313   */\n      0x20\n        /* \"#utility.yul\":3303:3307   */\n      dup2\n        /* \"#utility.yul\":3299:3314   */\n      add\n        /* \"#utility.yul\":3291:3314   */\n      swap1\n      pop\n        /* \"#utility.yul\":3010:3321   */\n      swap2\n      swap1\n      pop\n      jump\t// out\n        /* \"#utility.yul\":3327:3449   */\n    tag_43:\n        /* \"#utility.yul\":3400:3424   */\n      tag_93\n        /* \"#utility.yul\":3418:3423   */\n      dup2\n        /* \"#utility.yul\":3400:3424   */\n      tag_36\n      jump\t// in\n    tag_93:\n        /* \"#utility.yul\":3393:3398   */\n      dup2\n        /* \"#utility.yul\":3390:3425   */\n      eq\n        /* \"#utility.yul\":3380:3443   */\n      tag_94\n      jumpi\n        /* \"#utility.yul\":3439:3440   */\n      0x00\n        /* \"#utility.yul\":3436:3437   */\n      0x00\n        /* \"#utility.yul\":3429:3441   */\n      revert\n        /* \"#utility.yul\":3380:3443   */\n    tag_94:\n        /* \"#utility.yul\":3327:3449   */\n      pop\n      jump\t// out\n        /* \"#utility.yul\":3455:3594   */\n    tag_44:\n        /* \"#utility.yul\":3501:3506   */\n      0x00\n        /* \"#utility.yul\":3539:3545   */\n      dup2\n        /* \"#utility.yul\":3526:3546   */\n      calldataload\n        /* \"#utility.yul\":3517:3546   */\n      swap1\n      pop\n        /* \"#utility.yul\":3555:3588   */\n      tag_96\n        /* \"#utility.yul\":3582:3587   */\n      dup2\n        /* \"#utility.yul\":3555:3588   */\n      tag_43\n      jump\t// in\n    tag_96:\n        /* \"#utility.yul\":3455:3594   */\n      swap3\n      swap2\n      pop\n      pop\n      jump\t// out\n        /* \"#utility.yul\":3617:4327   */\n    tag_45:\n        /* \"#utility.yul\":3713:3718   */\n      0x00\n        /* \"#utility.yul\":3738:3819   */\n      tag_98\n        /* \"#utility.yul\":3754:3818   */\n      tag_99\n        /* \"#utility.yul\":3811:3817   */\n      dup5\n        /* \"#utility.yul\":3754:3818   */\n      tag_42\n      jump\t// in\n    tag_99:\n        /* \"#utility.yul\":3738:3819   */\n      tag_41\n      jump\t// in\n    tag_98:\n        /* \"#utility.yul\":3729:3819   */\n      swap1\n      pop\n        /* \"#utility.yul\":3839:3844   */\n      dup1\n        /* \"#utility.yul\":3868:3874   */\n      dup4\n        /* \"#utility.yul\":3861:3866   */\n      dup3\n        /* \"#utility.yul\":3854:3875   */\n      mstore\n        /* \"#utility.yul\":3902:3906   */\n      0x20\n        /* \"#utility.yul\":3895:3900   */\n      dup3\n        /* \"#utility.yul\":3891:3907   */\n      add\n        /* \"#utility.yul\":3884:3907   */\n      swap1\n      pop\n        /* \"#utility.yul\":3955:3959   */\n      0x20\n        /* \"#utility.yul\":3947:3953   */\n      dup5\n        /* \"#utility.yul\":3943:3960   */\n      mul\n        /* \"#utility.yul\":3935:3941   */\n      dup4\n        /* \"#utility.yul\":3931:3961   */\n      add\n        /* \"#utility.yul\":3984:3987   */\n      dup6\n        /* \"#utility.yul\":3976:3982   */\n      dup2\n        /* \"#utility.yul\":3973:3988   */\n      gt\n        /* \"#utility.yul\":3970:4092   */\n      iszero\n      tag_100\n      jumpi\n        /* \"#utility.yul\":4003:4082   */\n      tag_101\n      tag_34\n      jump\t// in\n    tag_101:\n        /* \"#utility.yul\":3970:4092   */\n    tag_100:\n        /* \"#utility.yul\":4118:4124   */\n      dup4\n        /* \"#utility.yul\":4101:4321   */\n    tag_102:\n        /* \"#utility.yul\":4135:4141   */\n      dup2\n        /* \"#utility.yul\":4130:4133   */\n      dup2\n        /* \"#utility.yul\":4127:4142   */\n      lt\n        /* \"#utility.yul\":4101:4321   */\n      iszero\n      tag_104\n      jumpi\n        /* \"#utility.yul\":4210:4213   */\n      dup1\n        /* \"#utility.yul\":4239:4276   */\n      tag_105\n        /* \"#utility.yul\":4272:4275   */\n      dup9\n        /* \"#utility.yul\":4260:4270   */\n      dup3\n        /* \"#utility.yul\":4239:4276   */\n      tag_44\n      jump\t// in\n    tag_105:\n        /* \"#utility.yul\":4234:4237   */\n      dup5\n        /* \"#utility.yul\":4227:4277   */\n      mstore\n        /* \"#utility.yul\":4306:4310   */\n      0x20\n        /* \"#utility.yul\":4301:4304   */\n      dup5\n        /* \"#utility.yul\":4297:4311   */\n      add\n        /* \"#utility.yul\":4290:4311   */\n      swap4\n      pop\n        /* \"#utility.yul\":4177:4321   */\n      pop\n        /* \"#utility.yul\":4161:4165   */\n      0x20\n        /* \"#utility.yul\":4156:4159   */\n      dup2\n        /* \"#utility.yul\":4152:4166   */\n      add\n        /* \"#utility.yul\":4145:4166   */\n      swap1\n      pop\n        /* \"#utility.yul\":4101:4321   */\n      jump(tag_102)\n    tag_104:\n        /* \"#utility.yul\":4105:4126   */\n      pop\n        /* \"#utility.yul\":3719:4327   */\n      pop\n      pop\n        /* \"#utility.yul\":3617:4327   */\n      swap4\n      swap3\n      pop\n      pop\n      pop\n      jump\t// out\n        /* \"#utility.yul\":4350:4720   */\n    tag_46:\n        /* \"#utility.yul\":4421:4426   */\n      0x00\n        /* \"#utility.yul\":4470:4473   */\n      dup3\n        /* \"#utility.yul\":4463:4467   */\n      0x1f\n        /* \"#utility.yul\":4455:4461   */\n      dup4\n        /* \"#utility.yul\":4451:4468   */\n      add\n        /* \"#utility.yul\":4447:4474   */\n      slt\n        /* \"#utility.yul\":4437:4559   */\n      tag_107\n      jumpi\n        /* \"#utility.yul\":4478:4557   */\n      tag_108\n      tag_32\n      jump\t// in\n    tag_108:\n        /* \"#utility.yul\":4437:4559   */\n    tag_107:\n        /* \"#utility.yul\":4595:4601   */\n      dup2\n        /* \"#utility.yul\":4582:4602   */\n      calldataload\n        /* \"#utility.yul\":4620:4714   */\n      tag_109\n        /* \"#utility.yul\":4710:4713   */\n      dup5\n        /* \"#utility.yul\":4702:4708   */\n      dup3\n        /* \"#utility.yul\":4695:4699   */\n      0x20\n        /* \"#utility.yul\":4687:4693   */\n      dup7\n        /* \"#utility.yul\":4683:4700   */\n      add\n        /* \"#utility.yul\":4620:4714   */\n      tag_45\n      jump\t// in\n    tag_109:\n        /* \"#utility.yul\":4611:4714   */\n      swap2\n      pop\n        /* \"#utility.yul\":4427:4720   */\n      pop\n        /* \"#utility.yul\":4350:4720   */\n      swap3\n      swap2\n      pop\n      pop\n      jump\t// out\n        /* \"#utility.yul\":4726:5265   */\n    tag_13:\n        /* \"#utility.yul\":4810:4816   */\n      0x00\n        /* \"#utility.yul\":4859:4861   */\n      0x20\n        /* \"#utility.yul\":4847:4856   */\n      dup3\n        /* \"#utility.yul\":4838:4845   */\n      dup5\n        /* \"#utility.yul\":4834:4857   */\n      sub\n        /* \"#utility.yul\":4830:4862   */\n      slt\n        /* \"#utility.yul\":4827:4946   */\n      iszero\n      tag_111\n      jumpi\n        /* \"#utility.yul\":4865:4944   */\n      tag_112\n      tag_30\n      jump\t// in\n    tag_112:\n        /* \"#utility.yul\":4827:4946   */\n    tag_111:\n        /* \"#utility.yul\":5013:5014   */\n      0x00\n        /* \"#utility.yul\":5002:5011   */\n      dup3\n        /* \"#utility.yul\":4998:5015   */\n      add\n        /* \"#utility.yul\":4985:5016   */\n      calldataload\n        /* \"#utility.yul\":5043:5061   */\n      0xffffffffffffffff\n        /* \"#utility.yul\":5035:5041   */\n      dup2\n        /* \"#utility.yul\":5032:5062   */\n      gt\n        /* \"#utility.yul\":5029:5146   */\n      iszero\n      tag_113\n      jumpi\n        /* \"#utility.yul\":5065:5144   */\n      tag_114\n      tag_31\n      jump\t// in\n    tag_114:\n        /* \"#utility.yul\":5029:5146   */\n    tag_113:\n        /* \"#utility.yul\":5170:5248   */\n      tag_115\n        /* \"#utility.yul\":5240:5247   */\n      dup5\n        /* \"#utility.yul\":5231:5237   */\n      dup3\n        /* \"#utility.yul\":5220:5229   */\n      dup6\n        /* \"#utility.yul\":5216:5238   */\n      add\n        /* \"#utility.yul\":5170:5248   */\n      tag_46\n      jump\t// in\n    tag_115:\n        /* \"#utility.yul\":5160:5248   */\n      swap2\n      pop\n        /* \"#utility.yul\":4956:5258   */\n      pop\n        /* \"#utility.yul\":4726:5265   */\n      swap3\n      swap2\n      pop\n      pop\n      jump\t// out\n        /* \"#utility.yul\":5271:5385   */\n    tag_47:\n        /* \"#utility.yul\":5338:5344   */\n      0x00\n        /* \"#utility.yul\":5372:5377   */\n      dup2\n        /* \"#utility.yul\":5366:5378   */\n      mload\n        /* \"#utility.yul\":5356:5378   */\n      swap1\n      pop\n        /* \"#utility.yul\":5271:5385   */\n      swap2\n      swap1\n      pop\n      jump\t// out\n        /* \"#utility.yul\":5391:5575   */\n    tag_48:\n        /* \"#utility.yul\":5490:5501   */\n      0x00\n        /* \"#utility.yul\":5524:5530   */\n      dup3\n        /* \"#utility.yul\":5519:5522   */\n      dup3\n        /* \"#utility.yul\":5512:5531   */\n      mstore\n        /* \"#utility.yul\":5564:5568   */\n      0x20\n        /* \"#utility.yul\":5559:5562   */\n      dup3\n        /* \"#utility.yul\":5555:5569   */\n      add\n        /* \"#utility.yul\":5540:5569   */\n      swap1\n      pop\n        /* \"#utility.yul\":5391:5575   */\n      swap3\n      swap2\n      pop\n      pop\n      jump\t// out\n        /* \"#utility.yul\":5581:5713   */\n    tag_49:\n        /* \"#utility.yul\":5648:5652   */\n      0x00\n        /* \"#utility.yul\":5671:5674   */\n      dup2\n        /* \"#utility.yul\":5663:5674   */\n      swap1\n      pop\n        /* \"#utility.yul\":5701:5705   */\n      0x20\n        /* \"#utility.yul\":5696:5699   */\n      dup3\n        /* \"#utility.yul\":5692:5706   */\n      add\n        /* \"#utility.yul\":5684:5706   */\n      swap1\n      pop\n        /* \"#utility.yul\":5581:5713   */\n      swap2\n      swap1\n      pop\n      jump\t// out\n        /* \"#utility.yul\":5719:5827   */\n    tag_50:\n        /* \"#utility.yul\":5796:5820   */\n      tag_120\n        /* \"#utility.yul\":5814:5819   */\n      dup2\n        /* \"#utility.yul\":5796:5820   */\n      tag_36\n      jump\t// in\n    tag_120:\n        /* \"#utility.yul\":5791:5794   */\n      dup3\n        /* \"#utility.yul\":5784:5821   */\n      mstore\n        /* \"#utility.yul\":5719:5827   */\n      pop\n      pop\n      jump\t// out\n        /* \"#utility.yul\":5833:6012   */\n    tag_51:\n        /* \"#utility.yul\":5902:5912   */\n      0x00\n        /* \"#utility.yul\":5923:5969   */\n      tag_122\n        /* \"#utility.yul\":5965:5968   */\n      dup4\n        /* \"#utility.yul\":5957:5963   */\n      dup4\n        /* \"#utility.yul\":5923:5969   */\n      tag_50\n      jump\t// in\n    tag_122:\n        /* \"#utility.yul\":6001:6005   */\n      0x20\n        /* \"#utility.yul\":5996:5999   */\n      dup4\n        /* \"#utility.yul\":5992:6006   */\n      add\n        /* \"#utility.yul\":5978:6006   */\n      swap1\n      pop\n        /* \"#utility.yul\":5833:6012   */\n      swap3\n      swap2\n      pop\n      pop\n      jump\t// out\n        /* \"#utility.yul\":6018:6131   */\n    tag_52:\n        /* \"#utility.yul\":6088:6092   */\n      0x00\n        /* \"#utility.yul\":6120:6124   */\n      0x20\n        /* \"#utility.yul\":6115:6118   */\n      dup3\n        /* \"#utility.yul\":6111:6125   */\n      add\n        /* \"#utility.yul\":6103:6125   */\n      swap1\n      pop\n        /* \"#utility.yul\":6018:6131   */\n      swap2\n      swap1\n      pop\n      jump\t// out\n        /* \"#utility.yul\":6167:6899   */\n    tag_53:\n        /* \"#utility.yul\":6286:6289   */\n      0x00\n        /* \"#utility.yul\":6315:6369   */\n      tag_125\n        /* \"#utility.yul\":6363:6368   */\n      dup3\n        /* \"#utility.yul\":6315:6369   */\n      tag_47\n      jump\t// in\n    tag_125:\n        /* \"#utility.yul\":6385:6471   */\n      tag_126\n        /* \"#utility.yul\":6464:6470   */\n      dup2\n        /* \"#utility.yul\":6459:6462   */\n      dup6\n        /* \"#utility.yul\":6385:6471   */\n      tag_48\n      jump\t// in\n    tag_126:\n        /* \"#utility.yul\":6378:6471   */\n      swap4\n      pop\n        /* \"#utility.yul\":6495:6551   */\n      tag_127\n        /* \"#utility.yul\":6545:6550   */\n      dup4\n        /* \"#utility.yul\":6495:6551   */\n      tag_49\n      jump\t// in\n    tag_127:\n        /* \"#utility.yul\":6574:6581   */\n      dup1\n        /* \"#utility.yul\":6605:6606   */\n      0x00\n        /* \"#utility.yul\":6590:6874   */\n    tag_128:\n        /* \"#utility.yul\":6615:6621   */\n      dup4\n        /* \"#utility.yul\":6612:6613   */\n      dup2\n        /* \"#utility.yul\":6609:6622   */\n      lt\n        /* \"#utility.yul\":6590:6874   */\n      iszero\n      tag_130\n      jumpi\n        /* \"#utility.yul\":6691:6697   */\n      dup2\n        /* \"#utility.yul\":6685:6698   */\n      mload\n        /* \"#utility.yul\":6718:6781   */\n      tag_131\n        /* \"#utility.yul\":6777:6780   */\n      dup9\n        /* \"#utility.yul\":6762:6775   */\n      dup3\n        /* \"#utility.yul\":6718:6781   */\n      tag_51\n      jump\t// in\n    tag_131:\n        /* \"#utility.yul\":6711:6781   */\n      swap8\n      pop\n        /* \"#utility.yul\":6804:6864   */\n      tag_132\n        /* \"#utility.yul\":6857:6863   */\n      dup4\n        /* \"#utility.yul\":6804:6864   */\n      tag_52\n      jump\t// in\n    tag_132:\n        /* \"#utility.yul\":6794:6864   */\n      swap3\n      pop\n        /* \"#utility.yul\":6650:6874   */\n      pop\n        /* \"#utility.yul\":6637:6638   */\n      0x01\n        /* \"#utility.yul\":6634:6635   */\n      dup2\n        /* \"#utility.yul\":6630:6639   */\n      add\n        /* \"#utility.yul\":6625:6639   */\n      swap1\n      pop\n        /* \"#utility.yul\":6590:6874   */\n      jump(tag_128)\n    tag_130:\n        /* \"#utility.yul\":6594:6608   */\n      pop\n        /* \"#utility.yul\":6890:6893   */\n      dup6\n        /* \"#utility.yul\":6883:6893   */\n      swap4\n      pop\n        /* \"#utility.yul\":6291:6899   */\n      pop\n      pop\n      pop\n        /* \"#utility.yul\":6167:6899   */\n      swap3\n      swap2\n      pop\n      pop\n      jump\t// out\n        /* \"#utility.yul\":6905:7278   */\n    tag_16:\n        /* \"#utility.yul\":7048:7052   */\n      0x00\n        /* \"#utility.yul\":7086:7088   */\n      0x20\n        /* \"#utility.yul\":7075:7084   */\n      dup3\n        /* \"#utility.yul\":7071:7089   */\n      add\n        /* \"#utility.yul\":7063:7089   */\n      swap1\n      pop\n        /* \"#utility.yul\":7135:7144   */\n      dup2\n        /* \"#utility.yul\":7129:7133   */\n      dup2\n        /* \"#utility.yul\":7125:7145   */\n      sub\n        /* \"#utility.yul\":7121:7122   */\n      0x00\n        /* \"#utility.yul\":7110:7119   */\n      dup4\n        /* \"#utility.yul\":7106:7123   */\n      add\n        /* \"#utility.yul\":7099:7146   */\n      mstore\n        /* \"#utility.yul\":7163:7271   */\n      tag_134\n        /* \"#utility.yul\":7266:7270   */\n      dup2\n        /* \"#utility.yul\":7257:7263   */\n      dup5\n        /* \"#utility.yul\":7163:7271   */\n      tag_53\n      jump\t// in\n    tag_134:\n        /* \"#utility.yul\":7155:7271   */\n      swap1\n      pop\n        /* \"#utility.yul\":6905:7278   */\n      swap3\n      swap2\n      pop\n      pop\n      jump\t// out\n        /* \"#utility.yul\":7284:7464   */\n    tag_20:\n        /* \"#utility.yul\":7332:7409   */\n      0x4e487b7100000000000000000000000000000000000000000000000000000000\n        /* \"#utility.yul\":7329:7330   */\n      0x00\n        /* \"#utility.yul\":7322:7410   */\n      mstore\n        /* \"#utility.yul\":7429:7433   */\n      0x32\n        /* \"#utility.yul\":7426:7427   */\n      0x04\n        /* \"#utility.yul\":7419:7434   */\n      mstore\n        /* \"#utility.yul\":7453:7457   */\n      0x24\n        /* \"#utility.yul\":7450:7451   */\n      0x00\n        /* \"#utility.yul\":7443:7458   */\n      revert\n        /* \"#utility.yul\":7470:7650   */\n    tag_54:\n        /* \"#utility.yul\":7518:7595   */\n      0x4e487b7100000000000000000000000000000000000000000000000000000000\n        /* \"#utility.yul\":7515:7516   */\n      0x00\n        /* \"#utility.yul\":7508:7596   */\n      mstore\n        /* \"#utility.yul\":7615:7619   */\n      0x11\n        /* \"#utility.yul\":7612:7613   */\n      0x04\n        /* \"#utility.yul\":7605:7620   */\n      mstore\n        /* \"#utility.yul\":7639:7643   */\n      0x24\n        /* \"#utility.yul\":7636:7637   */\n      0x00\n        /* \"#utility.yul\":7629:7644   */\n      revert\n        /* \"#utility.yul\":7656:8066   */\n    tag_22:\n        /* \"#utility.yul\":7696:7703   */\n      0x00\n        /* \"#utility.yul\":7719:7739   */\n      tag_138\n        /* \"#utility.yul\":7737:7738   */\n      dup3\n        /* \"#utility.yul\":7719:7739   */\n      tag_36\n      jump\t// in\n    tag_138:\n        /* \"#utility.yul\":7714:7739   */\n      swap2\n      pop\n        /* \"#utility.yul\":7753:7773   */\n      tag_139\n        /* \"#utility.yul\":7771:7772   */\n      dup4\n        /* \"#utility.yul\":7753:7773   */\n      tag_36\n      jump\t// in\n    tag_139:\n        /* \"#utility.yul\":7748:7773   */\n      swap3\n      pop\n        /* \"#utility.yul\":7808:7809   */\n      dup3\n        /* \"#utility.yul\":7805:7806   */\n      dup3\n        /* \"#utility.yul\":7801:7810   */\n      mul\n        /* \"#utility.yul\":7830:7860   */\n      tag_140\n        /* \"#utility.yul\":7848:7859   */\n      dup2\n        /* \"#utility.yul\":7830:7860   */\n      tag_36\n      jump\t// in\n    tag_140:\n        /* \"#utility.yul\":7819:7860   */\n      swap2\n      pop\n        /* \"#utility.yul\":8009:8010   */\n      dup3\n        /* \"#utility.yul\":8000:8007   */\n      dup3\n        /* \"#utility.yul\":7996:8011   */\n      div\n        /* \"#utility.yul\":7993:7994   */\n      dup5\n        /* \"#utility.yul\":7990:8012   */\n      eq\n        /* \"#utility.yul\":7970:7971   */\n      dup4\n        /* \"#utility.yul\":7963:7972   */\n      iszero\n        /* \"#utility.yul\":7943:8026   */\n      or\n        /* \"#utility.yul\":7920:8059   */\n      tag_141\n      jumpi\n        /* \"#utility.yul\":8039:8057   */\n      tag_142\n      tag_54\n      jump\t// in\n    tag_142:\n        /* \"#utility.yul\":7920:8059   */\n    tag_141:\n        /* \"#utility.yul\":7704:8066   */\n      pop\n        /* \"#utility.yul\":7656:8066   */\n      swap3\n      swap2\n      pop\n      pop\n      jump\t// out\n\n    auxdata: 0xa26469706673582212204e7e4a0b09e3d3c2ae4a0b69d3eb789af1e7b0b8b9ef69190162f245b81fd16d64736f6c634300081b0033\n}\n",
				"bytecode": {
					"linkReferences": {},
					"object": "6080604052348015600e575f5ffd5b506105708061001c5f395ff3fe608060405234801561000f575f5ffd5b5060043610610034575f3560e01c80637e0191c514610038578063df14ca0c14610068575b5f5ffd5b610052600480360381019061004d9190610193565b610098565b60405161005f91906101f6565b60405180910390f35b610082600480360381019061007d9190610381565b6100d1565b60405161008f919061047f565b60405180910390f35b5f5f5f84845f8181106100ae576100ad61049f565b5b905060200201359150600a826100c491906104f9565b9050809250505092915050565b6060815f815181106100e6576100e561049f565b5b602002602001015160026100fa91906104f9565b825f8151811061010d5761010c61049f565b5b602002602001018181525050819050919050565b5f604051905090565b5f5ffd5b5f5ffd5b5f5ffd5b5f5ffd5b5f5ffd5b5f5f83601f84011261015357610152610132565b5b8235905067ffffffffffffffff8111156101705761016f610136565b5b60208301915083602082028301111561018c5761018b61013a565b5b9250929050565b5f5f602083850312156101a9576101a861012a565b5b5f83013567ffffffffffffffff8111156101c6576101c561012e565b5b6101d28582860161013e565b92509250509250929050565b5f819050919050565b6101f0816101de565b82525050565b5f6020820190506102095f8301846101e7565b92915050565b5f601f19601f8301169050919050565b7f4e487b71000000000000000000000000000000000000000000000000000000005f52604160045260245ffd5b6102558261020f565b810181811067ffffffffffffffff821117156102745761027361021f565b5b80604052505050565b5f610286610121565b9050610292828261024c565b919050565b5f67ffffffffffffffff8211156102b1576102b061021f565b5b602082029050602081019050919050565b6102cb816101de565b81146102d5575f5ffd5b50565b5f813590506102e6816102c2565b92915050565b5f6102fe6102f984610297565b61027d565b905080838252602082019050602084028301858111156103215761032061013a565b5b835b8181101561034a578061033688826102d8565b845260208401935050602081019050610323565b5050509392505050565b5f82601f83011261036857610367610132565b5b81356103788482602086016102ec565b91505092915050565b5f602082840312156103965761039561012a565b5b5f82013567ffffffffffffffff8111156103b3576103b261012e565b5b6103bf84828501610354565b91505092915050565b5f81519050919050565b5f82825260208201905092915050565b5f819050602082019050919050565b6103fa816101de565b82525050565b5f61040b83836103f1565b60208301905092915050565b5f602082019050919050565b5f61042d826103c8565b61043781856103d2565b9350610442836103e2565b805f5b838110156104725781516104598882610400565b975061046483610417565b925050600181019050610445565b5085935050505092915050565b5f6020820190508181035f8301526104978184610423565b905092915050565b7f4e487b71000000000000000000000000000000000000000000000000000000005f52603260045260245ffd5b7f4e487b71000000000000000000000000000000000000000000000000000000005f52601160045260245ffd5b5f610503826101de565b915061050e836101de565b925082820261051c816101de565b91508282048414831517610533576105326104cc565b5b509291505056fea26469706673582212204e7e4a0b09e3d3c2ae4a0b69d3eb789af1e7b0b8b9ef69190162f245b81fd16d64736f6c634300081b0033",
					"opcodes": "PUSH1 0x80 PUSH1 0x40 MSTORE CALLVALUE DUP1 ISZERO PUSH1 0xE JUMPI PUSH0 PUSH0 REVERT JUMPDEST POP PUSH2 0x570 DUP1 PUSH2 0x1C PUSH0 CODECOPY PUSH0 RETURN INVALID PUSH1 0x80 PUSH1 0x40 MSTORE CALLVALUE DUP1 ISZERO PUSH2 0xF JUMPI PUSH0 PUSH0 REVERT JUMPDEST POP PUSH1 0x4 CALLDATASIZE LT PUSH2 0x34 JUMPI PUSH0 CALLDATALOAD PUSH1 0xE0 SHR DUP1 PUSH4 0x7E0191C5 EQ PUSH2 0x38 JUMPI DUP1 PUSH4 0xDF14CA0C EQ PUSH2 0x68 JUMPI JUMPDEST PUSH0 PUSH0 REVERT JUMPDEST PUSH2 0x52 PUSH1 0x4 DUP1 CALLDATASIZE SUB DUP2 ADD SWAP1 PUSH2 0x4D SWAP2 SWAP1 PUSH2 0x193 JUMP JUMPDEST PUSH2 0x98 JUMP JUMPDEST PUSH1 0x40 MLOAD PUSH2 0x5F SWAP2 SWAP1 PUSH2 0x1F6 JUMP JUMPDEST PUSH1 0x40 MLOAD DUP1 SWAP2 SUB SWAP1 RETURN JUMPDEST PUSH2 0x82 PUSH1 0x4 DUP1 CALLDATASIZE SUB DUP2 ADD SWAP1 PUSH2 0x7D SWAP2 SWAP1 PUSH2 0x381 JUMP JUMPDEST PUSH2 0xD1 JUMP JUMPDEST PUSH1 0x40 MLOAD PUSH2 0x8F SWAP2 SWAP1 PUSH2 0x47F JUMP JUMPDEST PUSH1 0x40 MLOAD DUP1 SWAP2 SUB SWAP1 RETURN JUMPDEST PUSH0 PUSH0 PUSH0 DUP5 DUP5 PUSH0 DUP2 DUP2 LT PUSH2 0xAE JUMPI PUSH2 0xAD PUSH2 0x49F JUMP JUMPDEST JUMPDEST SWAP1 POP PUSH1 0x20 MUL ADD CALLDATALOAD SWAP2 POP PUSH1 0xA DUP3 PUSH2 0xC4 SWAP2 SWAP1 PUSH2 0x4F9 JUMP JUMPDEST SWAP1 POP DUP1 SWAP3 POP POP POP SWAP3 SWAP2 POP POP JUMP JUMPDEST PUSH1 0x60 DUP2 PUSH0 DUP2 MLOAD DUP2 LT PUSH2 0xE6 JUMPI PUSH2 0xE5 PUSH2 0x49F JUMP JUMPDEST JUMPDEST PUSH1 0x20 MUL PUSH1 0x20 ADD ADD MLOAD PUSH1 0x2 PUSH2 0xFA SWAP2 SWAP1 PUSH2 0x4F9 JUMP JUMPDEST DUP3 PUSH0 DUP2 MLOAD DUP2 LT PUSH2 0x10D JUMPI PUSH2 0x10C PUSH2 0x49F JUMP JUMPDEST JUMPDEST PUSH1 0x20 MUL PUSH1 0x20 ADD ADD DUP2 DUP2 MSTORE POP POP DUP2 SWAP1 POP SWAP2 SWAP1 POP JUMP JUMPDEST PUSH0 PUSH1 0x40 MLOAD SWAP1 POP SWAP1 JUMP JUMPDEST PUSH0 PUSH0 REVERT JUMPDEST PUSH0 PUSH0 REVERT JUMPDEST PUSH0 PUSH0 REVERT JUMPDEST PUSH0 PUSH0 REVERT JUMPDEST PUSH0 PUSH0 REVERT JUMPDEST PUSH0 PUSH0 DUP4 PUSH1 0x1F DUP5 ADD SLT PUSH2 0x153 JUMPI PUSH2 0x152 PUSH2 0x132 JUMP JUMPDEST JUMPDEST DUP3 CALLDATALOAD SWAP1 POP PUSH8 0xFFFFFFFFFFFFFFFF DUP2 GT ISZERO PUSH2 0x170 JUMPI PUSH2 0x16F PUSH2 0x136 JUMP JUMPDEST JUMPDEST PUSH1 0x20 DUP4 ADD SWAP2 POP DUP4 PUSH1 0x20 DUP3 MUL DUP4 ADD GT ISZERO PUSH2 0x18C JUMPI PUSH2 0x18B PUSH2 0x13A JUMP JUMPDEST JUMPDEST SWAP3 POP SWAP3 SWAP1 POP JUMP JUMPDEST PUSH0 PUSH0 PUSH1 0x20 DUP4 DUP6 SUB SLT ISZERO PUSH2 0x1A9 JUMPI PUSH2 0x1A8 PUSH2 0x12A JUMP JUMPDEST JUMPDEST PUSH0 DUP4 ADD CALLDATALOAD PUSH8 0xFFFFFFFFFFFFFFFF DUP2 GT ISZERO PUSH2 0x1C6 JUMPI PUSH2 0x1C5 PUSH2 0x12E JUMP JUMPDEST JUMPDEST PUSH2 0x1D2 DUP6 DUP3 DUP7 ADD PUSH2 0x13E JUMP JUMPDEST SWAP3 POP SWAP3 POP POP SWAP3 POP SWAP3 SWAP1 POP JUMP JUMPDEST PUSH0 DUP2 SWAP1 POP SWAP2 SWAP1 POP JUMP JUMPDEST PUSH2 0x1F0 DUP2 PUSH2 0x1DE JUMP JUMPDEST DUP3 MSTORE POP POP JUMP JUMPDEST PUSH0 PUSH1 0x20 DUP3 ADD SWAP1 POP PUSH2 0x209 PUSH0 DUP4 ADD DUP5 PUSH2 0x1E7 JUMP JUMPDEST SWAP3 SWAP2 POP POP JUMP JUMPDEST PUSH0 PUSH1 0x1F NOT PUSH1 0x1F DUP4 ADD AND SWAP1 POP SWAP2 SWAP1 POP JUMP JUMPDEST PUSH32 0x4E487B7100000000000000000000000000000000000000000000000000000000 PUSH0 MSTORE PUSH1 0x41 PUSH1 0x4 MSTORE PUSH1 0x24 PUSH0 REVERT JUMPDEST PUSH2 0x255 DUP3 PUSH2 0x20F JUMP JUMPDEST DUP2 ADD DUP2 DUP2 LT PUSH8 0xFFFFFFFFFFFFFFFF DUP3 GT OR ISZERO PUSH2 0x274 JUMPI PUSH2 0x273 PUSH2 0x21F JUMP JUMPDEST JUMPDEST DUP1 PUSH1 0x40 MSTORE POP POP POP JUMP JUMPDEST PUSH0 PUSH2 0x286 PUSH2 0x121 JUMP JUMPDEST SWAP1 POP PUSH2 0x292 DUP3 DUP3 PUSH2 0x24C JUMP JUMPDEST SWAP2 SWAP1 POP JUMP JUMPDEST PUSH0 PUSH8 0xFFFFFFFFFFFFFFFF DUP3 GT ISZERO PUSH2 0x2B1 JUMPI PUSH2 0x2B0 PUSH2 0x21F JUMP JUMPDEST JUMPDEST PUSH1 0x20 DUP3 MUL SWAP1 POP PUSH1 0x20 DUP2 ADD SWAP1 POP SWAP2 SWAP1 POP JUMP JUMPDEST PUSH2 0x2CB DUP2 PUSH2 0x1DE JUMP JUMPDEST DUP2 EQ PUSH2 0x2D5 JUMPI PUSH0 PUSH0 REVERT JUMPDEST POP JUMP JUMPDEST PUSH0 DUP2 CALLDATALOAD SWAP1 POP PUSH2 0x2E6 DUP2 PUSH2 0x2C2 JUMP JUMPDEST SWAP3 SWAP2 POP POP JUMP JUMPDEST PUSH0 PUSH2 0x2FE PUSH2 0x2F9 DUP5 PUSH2 0x297 JUMP JUMPDEST PUSH2 0x27D JUMP JUMPDEST SWAP1 POP DUP1 DUP4 DUP3 MSTORE PUSH1 0x20 DUP3 ADD SWAP1 POP PUSH1 0x20 DUP5 MUL DUP4 ADD DUP6 DUP2 GT ISZERO PUSH2 0x321 JUMPI PUSH2 0x320 PUSH2 0x13A JUMP JUMPDEST JUMPDEST DUP4 JUMPDEST DUP2 DUP2 LT ISZERO PUSH2 0x34A JUMPI DUP1 PUSH2 0x336 DUP9 DUP3 PUSH2 0x2D8 JUMP JUMPDEST DUP5 MSTORE PUSH1 0x20 DUP5 ADD SWAP4 POP POP PUSH1 0x20 DUP2 ADD SWAP1 POP PUSH2 0x323 JUMP JUMPDEST POP POP POP SWAP4 SWAP3 POP POP POP JUMP JUMPDEST PUSH0 DUP3 PUSH1 0x1F DUP4 ADD SLT PUSH2 0x368 JUMPI PUSH2 0x367 PUSH2 0x132 JUMP JUMPDEST JUMPDEST DUP2 CALLDATALOAD PUSH2 0x378 DUP5 DUP3 PUSH1 0x20 DUP7 ADD PUSH2 0x2EC JUMP JUMPDEST SWAP2 POP POP SWAP3 SWAP2 POP POP JUMP JUMPDEST PUSH0 PUSH1 0x20 DUP3 DUP5 SUB SLT ISZERO PUSH2 0x396 JUMPI PUSH2 0x395 PUSH2 0x12A JUMP JUMPDEST JUMPDEST PUSH0 DUP3 ADD CALLDATALOAD PUSH8 0xFFFFFFFFFFFFFFFF DUP2 GT ISZERO PUSH2 0x3B3 JUMPI PUSH2 0x3B2 PUSH2 0x12E JUMP JUMPDEST JUMPDEST PUSH2 0x3BF DUP5 DUP3 DUP6 ADD PUSH2 0x354 JUMP JUMPDEST SWAP2 POP POP SWAP3 SWAP2 POP POP JUMP JUMPDEST PUSH0 DUP2 MLOAD SWAP1 POP SWAP2 SWAP1 POP JUMP JUMPDEST PUSH0 DUP3 DUP3 MSTORE PUSH1 0x20 DUP3 ADD SWAP1 POP SWAP3 SWAP2 POP POP JUMP JUMPDEST PUSH0 DUP2 SWAP1 POP PUSH1 0x20 DUP3 ADD SWAP1 POP SWAP2 SWAP1 POP JUMP JUMPDEST PUSH2 0x3FA DUP2 PUSH2 0x1DE JUMP JUMPDEST DUP3 MSTORE POP POP JUMP JUMPDEST PUSH0 PUSH2 0x40B DUP4 DUP4 PUSH2 0x3F1 JUMP JUMPDEST PUSH1 0x20 DUP4 ADD SWAP1 POP SWAP3 SWAP2 POP POP JUMP JUMPDEST PUSH0 PUSH1 0x20 DUP3 ADD SWAP1 POP SWAP2 SWAP1 POP JUMP JUMPDEST PUSH0 PUSH2 0x42D DUP3 PUSH2 0x3C8 JUMP JUMPDEST PUSH2 0x437 DUP2 DUP6 PUSH2 0x3D2 JUMP JUMPDEST SWAP4 POP PUSH2 0x442 DUP4 PUSH2 0x3E2 JUMP JUMPDEST DUP1 PUSH0 JUMPDEST DUP4 DUP2 LT ISZERO PUSH2 0x472 JUMPI DUP2 MLOAD PUSH2 0x459 DUP9 DUP3 PUSH2 0x400 JUMP JUMPDEST SWAP8 POP PUSH2 0x464 DUP4 PUSH2 0x417 JUMP JUMPDEST SWAP3 POP POP PUSH1 0x1 DUP2 ADD SWAP1 POP PUSH2 0x445 JUMP JUMPDEST POP DUP6 SWAP4 POP POP POP POP SWAP3 SWAP2 POP POP JUMP JUMPDEST PUSH0 PUSH1 0x20 DUP3 ADD SWAP1 POP DUP2 DUP2 SUB PUSH0 DUP4 ADD MSTORE PUSH2 0x497 DUP2 DUP5 PUSH2 0x423 JUMP JUMPDEST SWAP1 POP SWAP3 SWAP2 POP POP JUMP JUMPDEST PUSH32 0x4E487B7100000000000000000000000000000000000000000000000000000000 PUSH0 MSTORE PUSH1 0x32 PUSH1 0x4 MSTORE PUSH1 0x24 PUSH0 REVERT JUMPDEST PUSH32 0x4E487B7100000000000000000000000000000000000000000000000000000000 PUSH0 MSTORE PUSH1 0x11 PUSH1 0x4 MSTORE PUSH1 0x24 PUSH0 REVERT JUMPDEST PUSH0 PUSH2 0x503 DUP3 PUSH2 0x1DE JUMP JUMPDEST SWAP2 POP PUSH2 0x50E DUP4 PUSH2 0x1DE JUMP JUMPDEST SWAP3 POP DUP3 DUP3 MUL PUSH2 0x51C DUP2 PUSH2 0x1DE JUMP JUMPDEST SWAP2 POP DUP3 DUP3 DIV DUP5 EQ DUP4 ISZERO OR PUSH2 0x533 JUMPI PUSH2 0x532 PUSH2 0x4CC JUMP JUMPDEST JUMPDEST POP SWAP3 SWAP2 POP POP JUMP INVALID LOG2 PUSH5 0x6970667358 0x22 SLT KECCAK256 0x4E PUSH31 0x4A0B09E3D3C2AE4A0B69D3EB789AF1E7B0B8B9EF69190162F245B81FD16D64 PUSH20 0x6F6C634300081B00330000000000000000000000 "
				},
				"gasEstimates": {
					"creation": {
						"codeDepositCost": "278400",
						"executionCost": "316",
						"totalCost": "278716"
					},
					"external": {
						"CallDataEx(uint256[])": "infinite",
						"multiplyBy2(uint256[])": "infinite"
					}
				},
				"methodIdentifiers": {
					"CallDataEx(uint256[])": "7e0191c5",
					"multiplyBy2(uint256[])": "df14ca0c"
				}
			},
			"storageLayout": {
				"storage": [],
				"types": null
			},
			"userdoc": {
				"kind": "user",
				"methods": {},
				"version": 1
			}
		}
	}
}