{
	"contracts/Modifier.sol": {
		"Modifier": {
			"abi": [
				{
					"inputs": [],
					"name": "num",
					"outputs": [
						{
							"internalType": "uint256",
							"name": "",
							"type": "uint256"
						}
					],
					"stateMutability": "view",
					"type": "function"
				},
				{
					"inputs": [
						{
							"internalType": "bool",
							"name": "val",
							"type": "bool"
						}
					],
					"name": "value",
					"outputs": [],
					"stateMutability": "nonpayable",
					"type": "function"
				},
				{
					"inputs": [
						{
							"internalType": "bool",
							"name": "val",
							"type": "bool"
						}
					],
					"name": "value2",
					"outputs": [],
					"stateMutability": "nonpayable",
					"type": "function"
				},
				{
					"inputs": [
						{
							"internalType": "bool",
							"name": "val",
							"type": "bool"
						}
					],
					"name": "value3",
					"outputs": [],
					"stateMutability": "nonpayable",
					"type": "function"
				}
			],
			"devdoc": {
				"kind": "dev",
				"methods": {},
				"version": 1
			},
			"evm": {
				"assembly": "    /* \"contracts/Modifier.sol\":65:598  contract Modifier {... */\n  mstore(0x40, 0x80)\n    /* \"contracts/Modifier.sol\":110:112  10 */\n  0x0a\n    /* \"contracts/Modifier.sol\":89:112  uint256 public num = 10 */\n  0x00\n  sstore\n    /* \"contracts/Modifier.sol\":65:598  contract Modifier {... */\n  callvalue\n  dup1\n  iszero\n  tag_1\n  jumpi\n  revert(0x00, 0x00)\ntag_1:\n  pop\n  dataSize(sub_0)\n  dup1\n  dataOffset(sub_0)\n  0x00\n  codecopy\n  0x00\n  return\nstop\n\nsub_0: assembly {\n        /* \"contracts/Modifier.sol\":65:598  contract Modifier {... */\n      mstore(0x40, 0x80)\n      callvalue\n      dup1\n      iszero\n      tag_1\n      jumpi\n      revert(0x00, 0x00)\n    tag_1:\n      pop\n      jumpi(tag_2, lt(calldatasize, 0x04))\n      shr(0xe0, calldataload(0x00))\n      dup1\n      0x07249153\n      eq\n      tag_3\n      jumpi\n      dup1\n      0x30c0fd6c\n      eq\n      tag_4\n      jumpi\n      dup1\n      0x4e70b1dc\n      eq\n      tag_5\n      jumpi\n      dup1\n      0xc4d47ed1\n      eq\n      tag_6\n      jumpi\n    tag_2:\n      revert(0x00, 0x00)\n        /* \"contracts/Modifier.sol\":354:473  function value2(bool val) public newVal(val) {... */\n    tag_3:\n      tag_7\n      0x04\n      dup1\n      calldatasize\n      sub\n      dup2\n      add\n      swap1\n      tag_8\n      swap2\n      swap1\n      tag_9\n      jump\t// in\n    tag_8:\n      tag_10\n      jump\t// in\n    tag_7:\n      stop\n        /* \"contracts/Modifier.sol\":479:596  function value3(bool val) public newVal(val){... */\n    tag_4:\n      tag_11\n      0x04\n      dup1\n      calldatasize\n      sub\n      dup2\n      add\n      swap1\n      tag_12\n      swap2\n      swap1\n      tag_9\n      jump\t// in\n    tag_12:\n      tag_13\n      jump\t// in\n    tag_11:\n      stop\n        /* \"contracts/Modifier.sol\":89:112  uint256 public num = 10 */\n    tag_5:\n      tag_14\n      tag_15\n      jump\t// in\n    tag_14:\n      mload(0x40)\n      tag_16\n      swap2\n      swap1\n      tag_17\n      jump\t// in\n    tag_16:\n      mload(0x40)\n      dup1\n      swap2\n      sub\n      swap1\n      return\n        /* \"contracts/Modifier.sol\":231:348  function value(bool val) public newVal(val) {... */\n    tag_6:\n      tag_18\n      0x04\n      dup1\n      calldatasize\n      sub\n      dup2\n      add\n      swap1\n      tag_19\n      swap2\n      swap1\n      tag_9\n      jump\t// in\n    tag_19:\n      tag_20\n      jump\t// in\n    tag_18:\n      stop\n        /* \"contracts/Modifier.sol\":354:473  function value2(bool val) public newVal(val) {... */\n    tag_10:\n        /* \"contracts/Modifier.sol\":394:397  val */\n      dup1\n        /* \"contracts/Modifier.sol\":169:172  val */\n      dup1\n        /* \"contracts/Modifier.sol\":163:172  true==val */\n      iszero\n      iszero\n        /* \"contracts/Modifier.sol\":163:167  true */\n      0x01\n        /* \"contracts/Modifier.sol\":163:172  true==val */\n      iszero\n      iszero\n      eq\n        /* \"contracts/Modifier.sol\":155:190  require(true==val, \"Not valid num\") */\n      tag_22\n      jumpi\n      mload(0x40)\n      0x08c379a000000000000000000000000000000000000000000000000000000000\n      dup2\n      mstore\n      0x04\n      add\n      tag_23\n      swap1\n      tag_24\n      jump\t// in\n    tag_23:\n      mload(0x40)\n      dup1\n      swap2\n      sub\n      swap1\n      revert\n    tag_22:\n        /* \"contracts/Modifier.sol\":204:207  400 */\n      0x0190\n        /* \"contracts/Modifier.sol\":200:203  num */\n      0x00\n        /* \"contracts/Modifier.sol\":200:207  num=400 */\n      dup2\n      swap1\n      sstore\n      pop\n        /* \"contracts/Modifier.sol\":463:466  200 */\n      0xc8\n        /* \"contracts/Modifier.sol\":457:460  num */\n      0x00\n        /* \"contracts/Modifier.sol\":457:466  num = 200 */\n      dup2\n      swap1\n      sstore\n      pop\n        /* \"contracts/Modifier.sol\":354:473  function value2(bool val) public newVal(val) {... */\n      pop\n      pop\n      jump\t// out\n        /* \"contracts/Modifier.sol\":479:596  function value3(bool val) public newVal(val){... */\n    tag_13:\n        /* \"contracts/Modifier.sol\":519:522  val */\n      dup1\n        /* \"contracts/Modifier.sol\":169:172  val */\n      dup1\n        /* \"contracts/Modifier.sol\":163:172  true==val */\n      iszero\n      iszero\n        /* \"contracts/Modifier.sol\":163:167  true */\n      0x01\n        /* \"contracts/Modifier.sol\":163:172  true==val */\n      iszero\n      iszero\n      eq\n        /* \"contracts/Modifier.sol\":155:190  require(true==val, \"Not valid num\") */\n      tag_27\n      jumpi\n      mload(0x40)\n      0x08c379a000000000000000000000000000000000000000000000000000000000\n      dup2\n      mstore\n      0x04\n      add\n      tag_28\n      swap1\n      tag_24\n      jump\t// in\n    tag_28:\n      mload(0x40)\n      dup1\n      swap2\n      sub\n      swap1\n      revert\n    tag_27:\n        /* \"contracts/Modifier.sol\":204:207  400 */\n      0x0190\n        /* \"contracts/Modifier.sol\":200:203  num */\n      0x00\n        /* \"contracts/Modifier.sol\":200:207  num=400 */\n      dup2\n      swap1\n      sstore\n      pop\n        /* \"contracts/Modifier.sol\":586:589  300 */\n      0x012c\n        /* \"contracts/Modifier.sol\":580:583  num */\n      0x00\n        /* \"contracts/Modifier.sol\":580:589  num = 300 */\n      dup2\n      swap1\n      sstore\n      pop\n        /* \"contracts/Modifier.sol\":479:596  function value3(bool val) public newVal(val){... */\n      pop\n      pop\n      jump\t// out\n        /* \"contracts/Modifier.sol\":89:112  uint256 public num = 10 */\n    tag_15:\n      sload(0x00)\n      dup2\n      jump\t// out\n        /* \"contracts/Modifier.sol\":231:348  function value(bool val) public newVal(val) {... */\n    tag_20:\n        /* \"contracts/Modifier.sol\":270:273  val */\n      dup1\n        /* \"contracts/Modifier.sol\":169:172  val */\n      dup1\n        /* \"contracts/Modifier.sol\":163:172  true==val */\n      iszero\n      iszero\n        /* \"contracts/Modifier.sol\":163:167  true */\n      0x01\n        /* \"contracts/Modifier.sol\":163:172  true==val */\n      iszero\n      iszero\n      eq\n        /* \"contracts/Modifier.sol\":155:190  require(true==val, \"Not valid num\") */\n      tag_31\n      jumpi\n      mload(0x40)\n      0x08c379a000000000000000000000000000000000000000000000000000000000\n      dup2\n      mstore\n      0x04\n      add\n      tag_32\n      swap1\n      tag_24\n      jump\t// in\n    tag_32:\n      mload(0x40)\n      dup1\n      swap2\n      sub\n      swap1\n      revert\n    tag_31:\n        /* \"contracts/Modifier.sol\":204:207  400 */\n      0x0190\n        /* \"contracts/Modifier.sol\":200:203  num */\n      0x00\n        /* \"contracts/Modifier.sol\":200:207  num=400 */\n      dup2\n      swap1\n      sstore\n      pop\n        /* \"contracts/Modifier.sol\":338:341  100 */\n      0x64\n        /* \"contracts/Modifier.sol\":332:335  num */\n      0x00\n        /* \"contracts/Modifier.sol\":332:341  num = 100 */\n      dup2\n      swap1\n      sstore\n      pop\n        /* \"contracts/Modifier.sol\":231:348  function value(bool val) public newVal(val) {... */\n      pop\n      pop\n      jump\t// out\n        /* \"#utility.yul\":88:205   */\n    tag_35:\n        /* \"#utility.yul\":197:198   */\n      0x00\n        /* \"#utility.yul\":194:195   */\n      0x00\n        /* \"#utility.yul\":187:199   */\n      revert\n        /* \"#utility.yul\":334:424   */\n    tag_37:\n        /* \"#utility.yul\":368:375   */\n      0x00\n        /* \"#utility.yul\":411:416   */\n      dup2\n        /* \"#utility.yul\":404:417   */\n      iszero\n        /* \"#utility.yul\":397:418   */\n      iszero\n        /* \"#utility.yul\":386:418   */\n      swap1\n      pop\n        /* \"#utility.yul\":334:424   */\n      swap2\n      swap1\n      pop\n      jump\t// out\n        /* \"#utility.yul\":430:546   */\n    tag_38:\n        /* \"#utility.yul\":500:521   */\n      tag_51\n        /* \"#utility.yul\":515:520   */\n      dup2\n        /* \"#utility.yul\":500:521   */\n      tag_37\n      jump\t// in\n    tag_51:\n        /* \"#utility.yul\":493:498   */\n      dup2\n        /* \"#utility.yul\":490:522   */\n      eq\n        /* \"#utility.yul\":480:540   */\n      tag_52\n      jumpi\n        /* \"#utility.yul\":536:537   */\n      0x00\n        /* \"#utility.yul\":533:534   */\n      0x00\n        /* \"#utility.yul\":526:538   */\n      revert\n        /* \"#utility.yul\":480:540   */\n    tag_52:\n        /* \"#utility.yul\":430:546   */\n      pop\n      jump\t// out\n        /* \"#utility.yul\":552:685   */\n    tag_39:\n        /* \"#utility.yul\":595:600   */\n      0x00\n        /* \"#utility.yul\":633:639   */\n      dup2\n        /* \"#utility.yul\":620:640   */\n      calldataload\n        /* \"#utility.yul\":611:640   */\n      swap1\n      pop\n        /* \"#utility.yul\":649:679   */\n      tag_54\n        /* \"#utility.yul\":673:678   */\n      dup2\n        /* \"#utility.yul\":649:679   */\n      tag_38\n      jump\t// in\n    tag_54:\n        /* \"#utility.yul\":552:685   */\n      swap3\n      swap2\n      pop\n      pop\n      jump\t// out\n        /* \"#utility.yul\":691:1014   */\n    tag_9:\n        /* \"#utility.yul\":747:753   */\n      0x00\n        /* \"#utility.yul\":796:798   */\n      0x20\n        /* \"#utility.yul\":784:793   */\n      dup3\n        /* \"#utility.yul\":775:782   */\n      dup5\n        /* \"#utility.yul\":771:794   */\n      sub\n        /* \"#utility.yul\":767:799   */\n      slt\n        /* \"#utility.yul\":764:883   */\n      iszero\n      tag_56\n      jumpi\n        /* \"#utility.yul\":802:881   */\n      tag_57\n      tag_35\n      jump\t// in\n    tag_57:\n        /* \"#utility.yul\":764:883   */\n    tag_56:\n        /* \"#utility.yul\":922:923   */\n      0x00\n        /* \"#utility.yul\":947:997   */\n      tag_58\n        /* \"#utility.yul\":989:996   */\n      dup5\n        /* \"#utility.yul\":980:986   */\n      dup3\n        /* \"#utility.yul\":969:978   */\n      dup6\n        /* \"#utility.yul\":965:987   */\n      add\n        /* \"#utility.yul\":947:997   */\n      tag_39\n      jump\t// in\n    tag_58:\n        /* \"#utility.yul\":937:997   */\n      swap2\n      pop\n        /* \"#utility.yul\":893:1007   */\n      pop\n        /* \"#utility.yul\":691:1014   */\n      swap3\n      swap2\n      pop\n      pop\n      jump\t// out\n        /* \"#utility.yul\":1020:1097   */\n    tag_40:\n        /* \"#utility.yul\":1057:1064   */\n      0x00\n        /* \"#utility.yul\":1086:1091   */\n      dup2\n        /* \"#utility.yul\":1075:1091   */\n      swap1\n      pop\n        /* \"#utility.yul\":1020:1097   */\n      swap2\n      swap1\n      pop\n      jump\t// out\n        /* \"#utility.yul\":1103:1221   */\n    tag_41:\n        /* \"#utility.yul\":1190:1214   */\n      tag_61\n        /* \"#utility.yul\":1208:1213   */\n      dup2\n        /* \"#utility.yul\":1190:1214   */\n      tag_40\n      jump\t// in\n    tag_61:\n        /* \"#utility.yul\":1185:1188   */\n      dup3\n        /* \"#utility.yul\":1178:1215   */\n      mstore\n        /* \"#utility.yul\":1103:1221   */\n      pop\n      pop\n      jump\t// out\n        /* \"#utility.yul\":1227:1449   */\n    tag_17:\n        /* \"#utility.yul\":1320:1324   */\n      0x00\n        /* \"#utility.yul\":1358:1360   */\n      0x20\n        /* \"#utility.yul\":1347:1356   */\n      dup3\n        /* \"#utility.yul\":1343:1361   */\n      add\n        /* \"#utility.yul\":1335:1361   */\n      swap1\n      pop\n        /* \"#utility.yul\":1371:1442   */\n      tag_63\n        /* \"#utility.yul\":1439:1440   */\n      0x00\n        /* \"#utility.yul\":1428:1437   */\n      dup4\n        /* \"#utility.yul\":1424:1441   */\n      add\n        /* \"#utility.yul\":1415:1421   */\n      dup5\n        /* \"#utility.yul\":1371:1442   */\n      tag_41\n      jump\t// in\n    tag_63:\n        /* \"#utility.yul\":1227:1449   */\n      swap3\n      swap2\n      pop\n      pop\n      jump\t// out\n        /* \"#utility.yul\":1455:1624   */\n    tag_42:\n        /* \"#utility.yul\":1539:1550   */\n      0x00\n        /* \"#utility.yul\":1573:1579   */\n      dup3\n        /* \"#utility.yul\":1568:1571   */\n      dup3\n        /* \"#utility.yul\":1561:1580   */\n      mstore\n        /* \"#utility.yul\":1613:1617   */\n      0x20\n        /* \"#utility.yul\":1608:1611   */\n      dup3\n        /* \"#utility.yul\":1604:1618   */\n      add\n        /* \"#utility.yul\":1589:1618   */\n      swap1\n      pop\n        /* \"#utility.yul\":1455:1624   */\n      swap3\n      swap2\n      pop\n      pop\n      jump\t// out\n        /* \"#utility.yul\":1630:1793   */\n    tag_43:\n        /* \"#utility.yul\":1770:1785   */\n      0x4e6f742076616c6964206e756d00000000000000000000000000000000000000\n        /* \"#utility.yul\":1766:1767   */\n      0x00\n        /* \"#utility.yul\":1758:1764   */\n      dup3\n        /* \"#utility.yul\":1754:1768   */\n      add\n        /* \"#utility.yul\":1747:1786   */\n      mstore\n        /* \"#utility.yul\":1630:1793   */\n      pop\n      jump\t// out\n        /* \"#utility.yul\":1799:2165   */\n    tag_44:\n        /* \"#utility.yul\":1941:1944   */\n      0x00\n        /* \"#utility.yul\":1962:2029   */\n      tag_67\n        /* \"#utility.yul\":2026:2028   */\n      0x0d\n        /* \"#utility.yul\":2021:2024   */\n      dup4\n        /* \"#utility.yul\":1962:2029   */\n      tag_42\n      jump\t// in\n    tag_67:\n        /* \"#utility.yul\":1955:2029   */\n      swap2\n      pop\n        /* \"#utility.yul\":2038:2131   */\n      tag_68\n        /* \"#utility.yul\":2127:2130   */\n      dup3\n        /* \"#utility.yul\":2038:2131   */\n      tag_43\n      jump\t// in\n    tag_68:\n        /* \"#utility.yul\":2156:2158   */\n      0x20\n        /* \"#utility.yul\":2151:2154   */\n      dup3\n        /* \"#utility.yul\":2147:2159   */\n      add\n        /* \"#utility.yul\":2140:2159   */\n      swap1\n      pop\n        /* \"#utility.yul\":1799:2165   */\n      swap2\n      swap1\n      pop\n      jump\t// out\n        /* \"#utility.yul\":2171:2590   */\n    tag_24:\n        /* \"#utility.yul\":2337:2341   */\n      0x00\n        /* \"#utility.yul\":2375:2377   */\n      0x20\n        /* \"#utility.yul\":2364:2373   */\n      dup3\n        /* \"#utility.yul\":2360:2378   */\n      add\n        /* \"#utility.yul\":2352:2378   */\n      swap1\n      pop\n        /* \"#utility.yul\":2424:2433   */\n      dup2\n        /* \"#utility.yul\":2418:2422   */\n      dup2\n        /* \"#utility.yul\":2414:2434   */\n      sub\n        /* \"#utility.yul\":2410:2411   */\n      0x00\n        /* \"#utility.yul\":2399:2408   */\n      dup4\n        /* \"#utility.yul\":2395:2412   */\n      add\n        /* \"#utility.yul\":2388:2435   */\n      mstore\n        /* \"#utility.yul\":2452:2583   */\n      tag_70\n        /* \"#utility.yul\":2578:2582   */\n      dup2\n        /* \"#utility.yul\":2452:2583   */\n      tag_44\n      jump\t// in\n    tag_70:\n        /* \"#utility.yul\":2444:2583   */\n      swap1\n      pop\n        /* \"#utility.yul\":2171:2590   */\n      swap2\n      swap1\n      pop\n      jump\t// out\n\n    auxdata: 0xa26469706673582212205891e06f6f483203d91e6a9602dfd6467dabd1ce6def94694c5922e299908a9e64736f6c634300081b0033\n}\n",
				"bytecode": {
					"linkReferences": {},
					"object": "6080604052600a5f553480156012575f5ffd5b5061031a806100205f395ff3fe608060405234801561000f575f5ffd5b506004361061004a575f3560e01c8063072491531461004e57806330c0fd6c1461006a5780634e70b1dc14610086578063c4d47ed1146100a4575b5f5ffd5b61006860048036038101906100639190610210565b6100c0565b005b610084600480360381019061007f9190610210565b61011b565b005b61008e610177565b60405161009b9190610253565b60405180910390f35b6100be60048036038101906100b99190610210565b61017c565b005b808015156001151514610108576040517f08c379a00000000000000000000000000000000000000000000000000000000081526004016100ff906102c6565b60405180910390fd5b6101905f8190555060c85f819055505050565b808015156001151514610163576040517f08c379a000000000000000000000000000000000000000000000000000000000815260040161015a906102c6565b60405180910390fd5b6101905f8190555061012c5f819055505050565b5f5481565b8080151560011515146101c4576040517f08c379a00000000000000000000000000000000000000000000000000000000081526004016101bb906102c6565b60405180910390fd5b6101905f8190555060645f819055505050565b5f5ffd5b5f8115159050919050565b6101ef816101db565b81146101f9575f5ffd5b50565b5f8135905061020a816101e6565b92915050565b5f60208284031215610225576102246101d7565b5b5f610232848285016101fc565b91505092915050565b5f819050919050565b61024d8161023b565b82525050565b5f6020820190506102665f830184610244565b92915050565b5f82825260208201905092915050565b7f4e6f742076616c6964206e756d000000000000000000000000000000000000005f82015250565b5f6102b0600d8361026c565b91506102bb8261027c565b602082019050919050565b5f6020820190508181035f8301526102dd816102a4565b905091905056fea26469706673582212205891e06f6f483203d91e6a9602dfd6467dabd1ce6def94694c5922e299908a9e64736f6c634300081b0033",
					"opcodes": "PUSH1 0x80 PUSH1 0x40 MSTORE PUSH1 0xA PUSH0 SSTORE CALLVALUE DUP1 ISZERO PUSH1 0x12 JUMPI PUSH0 PUSH0 REVERT JUMPDEST POP PUSH2 0x31A DUP1 PUSH2 0x20 PUSH0 CODECOPY PUSH0 RETURN INVALID PUSH1 0x80 PUSH1 0x40 MSTORE CALLVALUE DUP1 ISZERO PUSH2 0xF JUMPI PUSH0 PUSH0 REVERT JUMPDEST POP PUSH1 0x4 CALLDATASIZE LT PUSH2 0x4A JUMPI PUSH0 CALLDATALOAD PUSH1 0xE0 SHR DUP1 PUSH4 0x7249153 EQ PUSH2 0x4E JUMPI DUP1 PUSH4 0x30C0FD6C EQ PUSH2 0x6A JUMPI DUP1 PUSH4 0x4E70B1DC EQ PUSH2 0x86 JUMPI DUP1 PUSH4 0xC4D47ED1 EQ PUSH2 0xA4 JUMPI JUMPDEST PUSH0 PUSH0 REVERT JUMPDEST PUSH2 0x68 PUSH1 0x4 DUP1 CALLDATASIZE SUB DUP2 ADD SWAP1 PUSH2 0x63 SWAP2 SWAP1 PUSH2 0x210 JUMP JUMPDEST PUSH2 0xC0 JUMP JUMPDEST STOP JUMPDEST PUSH2 0x84 PUSH1 0x4 DUP1 CALLDATASIZE SUB DUP2 ADD SWAP1 PUSH2 0x7F SWAP2 SWAP1 PUSH2 0x210 JUMP JUMPDEST PUSH2 0x11B JUMP JUMPDEST STOP JUMPDEST PUSH2 0x8E PUSH2 0x177 JUMP JUMPDEST PUSH1 0x40 MLOAD PUSH2 0x9B SWAP2 SWAP1 PUSH2 0x253 JUMP JUMPDEST PUSH1 0x40 MLOAD DUP1 SWAP2 SUB SWAP1 RETURN JUMPDEST PUSH2 0xBE PUSH1 0x4 DUP1 CALLDATASIZE SUB DUP2 ADD SWAP1 PUSH2 0xB9 SWAP2 SWAP1 PUSH2 0x210 JUMP JUMPDEST PUSH2 0x17C JUMP JUMPDEST STOP JUMPDEST DUP1 DUP1 ISZERO ISZERO PUSH1 0x1 ISZERO ISZERO EQ PUSH2 0x108 JUMPI PUSH1 0x40 MLOAD PUSH32 0x8C379A000000000000000000000000000000000000000000000000000000000 DUP2 MSTORE PUSH1 0x4 ADD PUSH2 0xFF SWAP1 PUSH2 0x2C6 JUMP JUMPDEST PUSH1 0x40 MLOAD DUP1 SWAP2 SUB SWAP1 REVERT JUMPDEST PUSH2 0x190 PUSH0 DUP2 SWAP1 SSTORE POP PUSH1 0xC8 PUSH0 DUP2 SWAP1 SSTORE POP POP POP JUMP JUMPDEST DUP1 DUP1 ISZERO ISZERO PUSH1 0x1 ISZERO ISZERO EQ PUSH2 0x163 JUMPI PUSH1 0x40 MLOAD PUSH32 0x8C379A000000000000000000000000000000000000000000000000000000000 DUP2 MSTORE PUSH1 0x4 ADD PUSH2 0x15A SWAP1 PUSH2 0x2C6 JUMP JUMPDEST PUSH1 0x40 MLOAD DUP1 SWAP2 SUB SWAP1 REVERT JUMPDEST PUSH2 0x190 PUSH0 DUP2 SWAP1 SSTORE POP PUSH2 0x12C PUSH0 DUP2 SWAP1 SSTORE POP POP POP JUMP JUMPDEST PUSH0 SLOAD DUP2 JUMP JUMPDEST DUP1 DUP1 ISZERO ISZERO PUSH1 0x1 ISZERO ISZERO EQ PUSH2 0x1C4 JUMPI PUSH1 0x40 MLOAD PUSH32 0x8C379A000000000000000000000000000000000000000000000000000000000 DUP2 MSTORE PUSH1 0x4 ADD PUSH2 0x1BB SWAP1 PUSH2 0x2C6 JUMP JUMPDEST PUSH1 0x40 MLOAD DUP1 SWAP2 SUB SWAP1 REVERT JUMPDEST PUSH2 0x190 PUSH0 DUP2 SWAP1 SSTORE POP PUSH1 0x64 PUSH0 DUP2 SWAP1 SSTORE POP POP POP JUMP JUMPDEST PUSH0 PUSH0 REVERT JUMPDEST PUSH0 DUP2 ISZERO ISZERO SWAP1 POP SWAP2 SWAP1 POP JUMP JUMPDEST PUSH2 0x1EF DUP2 PUSH2 0x1DB JUMP JUMPDEST DUP2 EQ PUSH2 0x1F9 JUMPI PUSH0 PUSH0 REVERT JUMPDEST POP JUMP JUMPDEST PUSH0 DUP2 CALLDATALOAD SWAP1 POP PUSH2 0x20A DUP2 PUSH2 0x1E6 JUMP JUMPDEST SWAP3 SWAP2 POP POP JUMP JUMPDEST PUSH0 PUSH1 0x20 DUP3 DUP5 SUB SLT ISZERO PUSH2 0x225 JUMPI PUSH2 0x224 PUSH2 0x1D7 JUMP JUMPDEST JUMPDEST PUSH0 PUSH2 0x232 DUP5 DUP3 DUP6 ADD PUSH2 0x1FC JUMP JUMPDEST SWAP2 POP POP SWAP3 SWAP2 POP POP JUMP JUMPDEST PUSH0 DUP2 SWAP1 POP SWAP2 SWAP1 POP JUMP JUMPDEST PUSH2 0x24D DUP2 PUSH2 0x23B JUMP JUMPDEST DUP3 MSTORE POP POP JUMP JUMPDEST PUSH0 PUSH1 0x20 DUP3 ADD SWAP1 POP PUSH2 0x266 PUSH0 DUP4 ADD DUP5 PUSH2 0x244 JUMP JUMPDEST SWAP3 SWAP2 POP POP JUMP JUMPDEST PUSH0 DUP3 DUP3 MSTORE PUSH1 0x20 DUP3 ADD SWAP1 POP SWAP3 SWAP2 POP POP JUMP JUMPDEST PUSH32 0x4E6F742076616C6964206E756D00000000000000000000000000000000000000 PUSH0 DUP3 ADD MSTORE POP JUMP JUMPDEST PUSH0 PUSH2 0x2B0 PUSH1 0xD DUP4 PUSH2 0x26C JUMP JUMPDEST SWAP2 POP PUSH2 0x2BB DUP3 PUSH2 0x27C JUMP JUMPDEST PUSH1 0x20 DUP3 ADD SWAP1 POP SWAP2 SWAP1 POP JUMP JUMPDEST PUSH0 PUSH1 0x20 DUP3 ADD SWAP1 POP DUP2 DUP2 SUB PUSH0 DUP4 ADD MSTORE PUSH2 0x2DD DUP2 PUSH2 0x2A4 JUMP JUMPDEST SWAP1 POP SWAP2 SWAP1 POP JUMP INVALID LOG2 PUSH5 0x6970667358 0x22 SLT KECCAK256 PC SWAP2 0xE0 PUSH16 0x6F483203D91E6A9602DFD6467DABD1CE PUSH14 0xEF94694C5922E299908A9E64736F PUSH13 0x634300081B0033000000000000 "
				},
				"gasEstimates": {
					"creation": {
						"codeDepositCost": "158800",
						"executionCost": "22305",
						"totalCost": "181105"
					},
					"external": {
						"num()": "2446",
						"value(bool)": "27617",
						"value2(bool)": "27551",
						"value3(bool)": "27573"
					}
				},
				"methodIdentifiers": {
					"num()": "4e70b1dc",
					"value(bool)": "c4d47ed1",
					"value2(bool)": "07249153",
					"value3(bool)": "30c0fd6c"
				}
			},
			"storageLayout": {
				"storage": [
					{
						"astId": 4,
						"contract": "contracts/Modifier.sol:Modifier",
						"label": "num",
						"offset": 0,
						"slot": "0",
						"type": "t_uint256"
					}
				],
				"types": {
					"t_uint256": {
						"encoding": "inplace",
						"label": "uint256",
						"numberOfBytes": "32"
					}
				}
			},
			"userdoc": {
				"kind": "user",
				"methods": {},
				"version": 1
			}
		}
	}
}