{
	"contracts/newContract.sol": {
		"HelloWorld": {
			"abi": [
				{
					"inputs": [],
					"name": "addition",
					"outputs": [],
					"stateMutability": "pure",
					"type": "function"
				},
				{
					"inputs": [],
					"name": "count",
					"outputs": [
						{
							"internalType": "uint256",
							"name": "",
							"type": "uint256"
						}
					],
					"stateMutability": "view",
					"type": "function"
				},
				{
					"inputs": [
						{
							"internalType": "int256",
							"name": "num1",
							"type": "int256"
						},
						{
							"internalType": "int256",
							"name": "num2",
							"type": "int256"
						}
					],
					"name": "division",
					"outputs": [
						{
							"internalType": "int256",
							"name": "",
							"type": "int256"
						}
					],
					"stateMutability": "pure",
					"type": "function"
				},
				{
					"inputs": [],
					"name": "greet",
					"outputs": [
						{
							"internalType": "string",
							"name": "",
							"type": "string"
						}
					],
					"stateMutability": "view",
					"type": "function"
				},
				{
					"inputs": [],
					"name": "multiplication",
					"outputs": [
						{
							"internalType": "int256",
							"name": "",
							"type": "int256"
						}
					],
					"stateMutability": "view",
					"type": "function"
				},
				{
					"inputs": [],
					"name": "substract",
					"outputs": [
						{
							"internalType": "int256",
							"name": "",
							"type": "int256"
						}
					],
					"stateMutability": "pure",
					"type": "function"
				}
			],
			"devdoc": {
				"kind": "dev",
				"methods": {},
				"version": 1
			},
			"evm": {
				"assembly": "    /* \"contracts/newContract.sol\":60:945  contract HelloWorld {\r... */\n  mstore(0x40, 0x80)\n    /* \"contracts/newContract.sol\":87:123  string public greet = \"Hello World!\" */\n  mload(0x40)\n  dup1\n  0x40\n  add\n  0x40\n  mstore\n  dup1\n  0x0c\n  dup2\n  mstore\n  0x20\n  add\n  0x48656c6c6f20576f726c64210000000000000000000000000000000000000000\n  dup2\n  mstore\n  pop\n  0x00\n  swap1\n  dup1\n  mload\n  swap1\n  0x20\n  add\n  swap1\n  tag_1\n  swap3\n  swap2\n  swap1\n  tag_2\n  jump\t// in\ntag_1:\n  pop\n    /* \"contracts/newContract.sol\":139:140  5 */\n  0x05\n    /* \"contracts/newContract.sol\":132:140  int a =5 */\n  0x01\n  sstore\n    /* \"contracts/newContract.sol\":154:156  10 */\n  0x0a\n    /* \"contracts/newContract.sol\":147:156  int b= 10 */\n  0x02\n  sstore\n    /* \"contracts/newContract.sol\":185:187  10 */\n  0x0a\n    /* \"contracts/newContract.sol\":165:187  uint public count = 10 */\n  0x03\n  sstore\n    /* \"contracts/newContract.sol\":60:945  contract HelloWorld {\r... */\n  callvalue\n  dup1\n  iszero\n  tag_3\n  jumpi\n  0x00\n  dup1\n  revert\ntag_3:\n  pop\n  jump(tag_4)\ntag_2:\n  dup3\n  dup1\n  sload\n  tag_5\n  swap1\n  tag_6\n  jump\t// in\ntag_5:\n  swap1\n  0x00\n  mstore\n  keccak256(0x00, 0x20)\n  swap1\n  0x1f\n  add\n  0x20\n  swap1\n  div\n  dup2\n  add\n  swap3\n  dup3\n  tag_8\n  jumpi\n  0x00\n  dup6\n  sstore\n  jump(tag_7)\ntag_8:\n  dup3\n  0x1f\n  lt\n  tag_9\n  jumpi\n  dup1\n  mload\n  not(0xff)\n  and\n  dup4\n  dup1\n  add\n  or\n  dup6\n  sstore\n  jump(tag_7)\ntag_9:\n  dup3\n  dup1\n  add\n  0x01\n  add\n  dup6\n  sstore\n  dup3\n  iszero\n  tag_7\n  jumpi\n  swap2\n  dup3\n  add\ntag_10:\n  dup3\n  dup2\n  gt\n  iszero\n  tag_11\n  jumpi\n  dup3\n  mload\n  dup3\n  sstore\n  swap2\n  0x20\n  add\n  swap2\n  swap1\n  0x01\n  add\n  swap1\n  jump(tag_10)\ntag_11:\ntag_7:\n  pop\n  swap1\n  pop\n  tag_12\n  swap2\n  swap1\n  tag_13\n  jump\t// in\ntag_12:\n  pop\n  swap1\n  jump\t// out\ntag_13:\ntag_14:\n  dup1\n  dup3\n  gt\n  iszero\n  tag_15\n  jumpi\n  0x00\n  dup2\n  0x00\n  swap1\n  sstore\n  pop\n  0x01\n  add\n  jump(tag_14)\ntag_15:\n  pop\n  swap1\n  jump\t// out\n    /* \"#utility.yul\":7:327   */\ntag_6:\n  0x00\n    /* \"#utility.yul\":88:89   */\n  0x02\n    /* \"#utility.yul\":82:86   */\n  dup3\n    /* \"#utility.yul\":78:90   */\n  div\n    /* \"#utility.yul\":68:90   */\n  swap1\n  pop\n    /* \"#utility.yul\":135:136   */\n  0x01\n    /* \"#utility.yul\":129:133   */\n  dup3\n    /* \"#utility.yul\":125:137   */\n  and\n    /* \"#utility.yul\":156:174   */\n  dup1\n    /* \"#utility.yul\":146:148   */\n  tag_18\n  jumpi\n    /* \"#utility.yul\":212:216   */\n  0x7f\n    /* \"#utility.yul\":204:210   */\n  dup3\n    /* \"#utility.yul\":200:217   */\n  and\n    /* \"#utility.yul\":190:217   */\n  swap2\n  pop\n    /* \"#utility.yul\":146:148   */\ntag_18:\n    /* \"#utility.yul\":274:276   */\n  0x20\n    /* \"#utility.yul\":266:272   */\n  dup3\n    /* \"#utility.yul\":263:277   */\n  lt\n    /* \"#utility.yul\":243:261   */\n  dup2\n    /* \"#utility.yul\":240:278   */\n  eq\n    /* \"#utility.yul\":237:239   */\n  iszero\n  tag_19\n  jumpi\n    /* \"#utility.yul\":293:311   */\n  tag_20\n  tag_21\n  jump\t// in\ntag_20:\n    /* \"#utility.yul\":237:239   */\ntag_19:\n    /* \"#utility.yul\":58:327   */\n  pop\n  swap2\n  swap1\n  pop\n  jump\t// out\n    /* \"#utility.yul\":333:513   */\ntag_21:\n    /* \"#utility.yul\":381:458   */\n  0x4e487b7100000000000000000000000000000000000000000000000000000000\n    /* \"#utility.yul\":378:379   */\n  0x00\n    /* \"#utility.yul\":371:459   */\n  mstore\n    /* \"#utility.yul\":478:482   */\n  0x22\n    /* \"#utility.yul\":475:476   */\n  0x04\n    /* \"#utility.yul\":468:483   */\n  mstore\n    /* \"#utility.yul\":502:506   */\n  0x24\n    /* \"#utility.yul\":499:500   */\n  0x00\n    /* \"#utility.yul\":492:507   */\n  revert\n    /* \"contracts/newContract.sol\":60:945  contract HelloWorld {\r... */\ntag_4:\n  dataSize(sub_0)\n  dup1\n  dataOffset(sub_0)\n  0x00\n  codecopy\n  0x00\n  return\nstop\n\nsub_0: assembly {\n        /* \"contracts/newContract.sol\":60:945  contract HelloWorld {\r... */\n      mstore(0x40, 0x80)\n      callvalue\n      dup1\n      iszero\n      tag_1\n      jumpi\n      0x00\n      dup1\n      revert\n    tag_1:\n      pop\n      jumpi(tag_2, lt(calldatasize, 0x04))\n      shr(0xe0, calldataload(0x00))\n      dup1\n      0x011285da\n      eq\n      tag_3\n      jumpi\n      dup1\n      0x06661abd\n      eq\n      tag_4\n      jumpi\n      dup1\n      0x09b7cdda\n      eq\n      tag_5\n      jumpi\n      dup1\n      0xcfae3217\n      eq\n      tag_6\n      jumpi\n      dup1\n      0xdf09a2da\n      eq\n      tag_7\n      jumpi\n      dup1\n      0xec597128\n      eq\n      tag_8\n      jumpi\n    tag_2:\n      0x00\n      dup1\n      revert\n        /* \"contracts/newContract.sol\":752:834  function multiplication() public view  returns (int) {\r... */\n    tag_3:\n      tag_9\n      tag_10\n      jump\t// in\n    tag_9:\n      mload(0x40)\n      tag_11\n      swap2\n      swap1\n      tag_12\n      jump\t// in\n    tag_11:\n      mload(0x40)\n      dup1\n      swap2\n      sub\n      swap1\n      return\n        /* \"contracts/newContract.sol\":165:187  uint public count = 10 */\n    tag_4:\n      tag_13\n      tag_14\n      jump\t// in\n    tag_13:\n      mload(0x40)\n      tag_15\n      swap2\n      swap1\n      tag_16\n      jump\t// in\n    tag_15:\n      mload(0x40)\n      dup1\n      swap2\n      sub\n      swap1\n      return\n        /* \"contracts/newContract.sol\":842:940  function division(int num1, int num2) public pure returns(int){\r... */\n    tag_5:\n      tag_17\n      0x04\n      dup1\n      calldatasize\n      sub\n      dup2\n      add\n      swap1\n      tag_18\n      swap2\n      swap1\n      tag_19\n      jump\t// in\n    tag_18:\n      tag_20\n      jump\t// in\n    tag_17:\n      mload(0x40)\n      tag_21\n      swap2\n      swap1\n      tag_12\n      jump\t// in\n    tag_21:\n      mload(0x40)\n      dup1\n      swap2\n      sub\n      swap1\n      return\n        /* \"contracts/newContract.sol\":87:123  string public greet = \"Hello World!\" */\n    tag_6:\n      tag_22\n      tag_23\n      jump\t// in\n    tag_22:\n      mload(0x40)\n      tag_24\n      swap2\n      swap1\n      tag_25\n      jump\t// in\n    tag_24:\n      mload(0x40)\n      dup1\n      swap2\n      sub\n      swap1\n      return\n        /* \"contracts/newContract.sol\":581:744  function substract() public pure returns(int) { // this functiona is returing something.\r... */\n    tag_7:\n      tag_26\n      tag_27\n      jump\t// in\n    tag_26:\n      mload(0x40)\n      tag_28\n      swap2\n      swap1\n      tag_12\n      jump\t// in\n    tag_28:\n      mload(0x40)\n      dup1\n      swap2\n      sub\n      swap1\n      return\n        /* \"contracts/newContract.sol\":306:573  function addition() public pure { // if it is not using any state variable then use \"pure\" keyword. It's means that it is pure function and not using any state variavble\r... */\n    tag_8:\n      tag_29\n      tag_30\n      jump\t// in\n    tag_29:\n      stop\n        /* \"contracts/newContract.sol\":752:834  function multiplication() public view  returns (int) {\r... */\n    tag_10:\n        /* \"contracts/newContract.sol\":800:803  int */\n      0x00\n        /* \"contracts/newContract.sol\":825:826  b */\n      sload(0x02)\n        /* \"contracts/newContract.sol\":823:824  a */\n      sload(0x01)\n        /* \"contracts/newContract.sol\":823:826  a*b */\n      tag_32\n      swap2\n      swap1\n      tag_33\n      jump\t// in\n    tag_32:\n        /* \"contracts/newContract.sol\":816:826  return a*b */\n      swap1\n      pop\n        /* \"contracts/newContract.sol\":752:834  function multiplication() public view  returns (int) {\r... */\n      swap1\n      jump\t// out\n        /* \"contracts/newContract.sol\":165:187  uint public count = 10 */\n    tag_14:\n      sload(0x03)\n      dup2\n      jump\t// out\n        /* \"contracts/newContract.sol\":842:940  function division(int num1, int num2) public pure returns(int){\r... */\n    tag_20:\n        /* \"contracts/newContract.sol\":900:903  int */\n      0x00\n        /* \"contracts/newContract.sol\":928:932  num1 */\n      dup3\n        /* \"contracts/newContract.sol\":923:927  num2 */\n      dup3\n        /* \"contracts/newContract.sol\":923:932  num2/num1 */\n      tag_35\n      swap2\n      swap1\n      tag_36\n      jump\t// in\n    tag_35:\n        /* \"contracts/newContract.sol\":915:932  return  num2/num1 */\n      swap1\n      pop\n        /* \"contracts/newContract.sol\":842:940  function division(int num1, int num2) public pure returns(int){\r... */\n      swap3\n      swap2\n      pop\n      pop\n      jump\t// out\n        /* \"contracts/newContract.sol\":87:123  string public greet = \"Hello World!\" */\n    tag_23:\n      0x00\n      dup1\n      sload\n      tag_37\n      swap1\n      tag_38\n      jump\t// in\n    tag_37:\n      dup1\n      0x1f\n      add\n      0x20\n      dup1\n      swap2\n      div\n      mul\n      0x20\n      add\n      mload(0x40)\n      swap1\n      dup2\n      add\n      0x40\n      mstore\n      dup1\n      swap3\n      swap2\n      swap1\n      dup2\n      dup2\n      mstore\n      0x20\n      add\n      dup3\n      dup1\n      sload\n      tag_39\n      swap1\n      tag_38\n      jump\t// in\n    tag_39:\n      dup1\n      iszero\n      tag_40\n      jumpi\n      dup1\n      0x1f\n      lt\n      tag_41\n      jumpi\n      0x0100\n      dup1\n      dup4\n      sload\n      div\n      mul\n      dup4\n      mstore\n      swap2\n      0x20\n      add\n      swap2\n      jump(tag_40)\n    tag_41:\n      dup3\n      add\n      swap2\n      swap1\n      0x00\n      mstore\n      keccak256(0x00, 0x20)\n      swap1\n    tag_42:\n      dup2\n      sload\n      dup2\n      mstore\n      swap1\n      0x01\n      add\n      swap1\n      0x20\n      add\n      dup1\n      dup4\n      gt\n      tag_42\n      jumpi\n      dup3\n      swap1\n      sub\n      0x1f\n      and\n      dup3\n      add\n      swap2\n    tag_40:\n      pop\n      pop\n      pop\n      pop\n      pop\n      dup2\n      jump\t// out\n        /* \"contracts/newContract.sol\":581:744  function substract() public pure returns(int) { // this functiona is returing something.\r... */\n    tag_27:\n        /* \"contracts/newContract.sol\":622:625  int */\n      0x00\n        /* \"contracts/newContract.sol\":679:684  int d */\n      dup1\n        /* \"contracts/newContract.sol\":685:686  9 */\n      0x09\n        /* \"contracts/newContract.sol\":679:686  int d=9 */\n      swap1\n      pop\n        /* \"contracts/newContract.sol\":697:702  int e */\n      0x00\n        /* \"contracts/newContract.sol\":704:705  7 */\n      0x07\n        /* \"contracts/newContract.sol\":697:705  int e =7 */\n      swap1\n      pop\n        /* \"contracts/newContract.sol\":735:736  e */\n      dup1\n        /* \"contracts/newContract.sol\":733:734  d */\n      dup3\n        /* \"contracts/newContract.sol\":733:736  d-e */\n      tag_44\n      swap2\n      swap1\n      tag_45\n      jump\t// in\n    tag_44:\n        /* \"contracts/newContract.sol\":725:736  return  d-e */\n      swap3\n      pop\n      pop\n      pop\n        /* \"contracts/newContract.sol\":581:744  function substract() public pure returns(int) { // this functiona is returing something.\r... */\n      swap1\n      jump\t// out\n        /* \"contracts/newContract.sol\":306:573  function addition() public pure { // if it is not using any state variable then use \"pure\" keyword. It's means that it is pure function and not using any state variavble\r... */\n    tag_30:\n        /* \"contracts/newContract.sol\":485:494  uint num1 */\n      0x00\n        /* \"contracts/newContract.sol\":497:498  8 */\n      0x08\n        /* \"contracts/newContract.sol\":485:498  uint num1 = 8 */\n      swap1\n      pop\n        /* \"contracts/newContract.sol\":509:518  uint num2 */\n      0x00\n        /* \"contracts/newContract.sol\":520:521  4 */\n      0x04\n        /* \"contracts/newContract.sol\":509:521  uint num2 =4 */\n      swap1\n      pop\n        /* \"contracts/newContract.sol\":532:538  uint c */\n      0x00\n        /* \"contracts/newContract.sol\":561:565  num2 */\n      dup2\n        /* \"contracts/newContract.sol\":554:558  num1 */\n      dup4\n        /* \"contracts/newContract.sol\":554:565  num1 + num2 */\n      tag_47\n      swap2\n      swap1\n      tag_48\n      jump\t// in\n    tag_47:\n        /* \"contracts/newContract.sol\":549:565  c =  num1 + num2 */\n      swap1\n      pop\n        /* \"contracts/newContract.sol\":306:573  function addition() public pure { // if it is not using any state variable then use \"pure\" keyword. It's means that it is pure function and not using any state variavble\r... */\n      pop\n      pop\n      pop\n      jump\t// out\n        /* \"#utility.yul\":7:144   */\n    tag_50:\n      0x00\n        /* \"#utility.yul\":90:96   */\n      dup2\n        /* \"#utility.yul\":77:97   */\n      calldataload\n        /* \"#utility.yul\":68:97   */\n      swap1\n      pop\n        /* \"#utility.yul\":106:138   */\n      tag_52\n        /* \"#utility.yul\":132:137   */\n      dup2\n        /* \"#utility.yul\":106:138   */\n      tag_53\n      jump\t// in\n    tag_52:\n        /* \"#utility.yul\":58:144   */\n      swap3\n      swap2\n      pop\n      pop\n      jump\t// out\n        /* \"#utility.yul\":150:553   */\n    tag_19:\n      0x00\n      dup1\n        /* \"#utility.yul\":273:275   */\n      0x40\n        /* \"#utility.yul\":261:270   */\n      dup4\n        /* \"#utility.yul\":252:259   */\n      dup6\n        /* \"#utility.yul\":248:271   */\n      sub\n        /* \"#utility.yul\":244:276   */\n      slt\n        /* \"#utility.yul\":241:243   */\n      iszero\n      tag_55\n      jumpi\n        /* \"#utility.yul\":289:290   */\n      0x00\n        /* \"#utility.yul\":286:287   */\n      dup1\n        /* \"#utility.yul\":279:291   */\n      revert\n        /* \"#utility.yul\":241:243   */\n    tag_55:\n        /* \"#utility.yul\":332:333   */\n      0x00\n        /* \"#utility.yul\":357:409   */\n      tag_56\n        /* \"#utility.yul\":401:408   */\n      dup6\n        /* \"#utility.yul\":392:398   */\n      dup3\n        /* \"#utility.yul\":381:390   */\n      dup7\n        /* \"#utility.yul\":377:399   */\n      add\n        /* \"#utility.yul\":357:409   */\n      tag_50\n      jump\t// in\n    tag_56:\n        /* \"#utility.yul\":347:409   */\n      swap3\n      pop\n        /* \"#utility.yul\":303:419   */\n      pop\n        /* \"#utility.yul\":458:460   */\n      0x20\n        /* \"#utility.yul\":484:536   */\n      tag_57\n        /* \"#utility.yul\":528:535   */\n      dup6\n        /* \"#utility.yul\":519:525   */\n      dup3\n        /* \"#utility.yul\":508:517   */\n      dup7\n        /* \"#utility.yul\":504:526   */\n      add\n        /* \"#utility.yul\":484:536   */\n      tag_50\n      jump\t// in\n    tag_57:\n        /* \"#utility.yul\":474:536   */\n      swap2\n      pop\n        /* \"#utility.yul\":429:546   */\n      pop\n        /* \"#utility.yul\":231:553   */\n      swap3\n      pop\n      swap3\n      swap1\n      pop\n      jump\t// out\n        /* \"#utility.yul\":559:674   */\n    tag_58:\n        /* \"#utility.yul\":644:667   */\n      tag_60\n        /* \"#utility.yul\":661:666   */\n      dup2\n        /* \"#utility.yul\":644:667   */\n      tag_61\n      jump\t// in\n    tag_60:\n        /* \"#utility.yul\":639:642   */\n      dup3\n        /* \"#utility.yul\":632:668   */\n      mstore\n        /* \"#utility.yul\":622:674   */\n      pop\n      pop\n      jump\t// out\n        /* \"#utility.yul\":680:1044   */\n    tag_62:\n      0x00\n        /* \"#utility.yul\":796:835   */\n      tag_64\n        /* \"#utility.yul\":829:834   */\n      dup3\n        /* \"#utility.yul\":796:835   */\n      tag_65\n      jump\t// in\n    tag_64:\n        /* \"#utility.yul\":851:922   */\n      tag_66\n        /* \"#utility.yul\":915:921   */\n      dup2\n        /* \"#utility.yul\":910:913   */\n      dup6\n        /* \"#utility.yul\":851:922   */\n      tag_67\n      jump\t// in\n    tag_66:\n        /* \"#utility.yul\":844:922   */\n      swap4\n      pop\n        /* \"#utility.yul\":931:983   */\n      tag_68\n        /* \"#utility.yul\":976:982   */\n      dup2\n        /* \"#utility.yul\":971:974   */\n      dup6\n        /* \"#utility.yul\":964:968   */\n      0x20\n        /* \"#utility.yul\":957:962   */\n      dup7\n        /* \"#utility.yul\":953:969   */\n      add\n        /* \"#utility.yul\":931:983   */\n      tag_69\n      jump\t// in\n    tag_68:\n        /* \"#utility.yul\":1008:1037   */\n      tag_70\n        /* \"#utility.yul\":1030:1036   */\n      dup2\n        /* \"#utility.yul\":1008:1037   */\n      tag_71\n      jump\t// in\n    tag_70:\n        /* \"#utility.yul\":1003:1006   */\n      dup5\n        /* \"#utility.yul\":999:1038   */\n      add\n        /* \"#utility.yul\":992:1038   */\n      swap2\n      pop\n        /* \"#utility.yul\":772:1044   */\n      pop\n      swap3\n      swap2\n      pop\n      pop\n      jump\t// out\n        /* \"#utility.yul\":1050:1168   */\n    tag_72:\n        /* \"#utility.yul\":1137:1161   */\n      tag_74\n        /* \"#utility.yul\":1155:1160   */\n      dup2\n        /* \"#utility.yul\":1137:1161   */\n      tag_75\n      jump\t// in\n    tag_74:\n        /* \"#utility.yul\":1132:1135   */\n      dup3\n        /* \"#utility.yul\":1125:1162   */\n      mstore\n        /* \"#utility.yul\":1115:1168   */\n      pop\n      pop\n      jump\t// out\n        /* \"#utility.yul\":1174:1392   */\n    tag_12:\n      0x00\n        /* \"#utility.yul\":1303:1305   */\n      0x20\n        /* \"#utility.yul\":1292:1301   */\n      dup3\n        /* \"#utility.yul\":1288:1306   */\n      add\n        /* \"#utility.yul\":1280:1306   */\n      swap1\n      pop\n        /* \"#utility.yul\":1316:1385   */\n      tag_77\n        /* \"#utility.yul\":1382:1383   */\n      0x00\n        /* \"#utility.yul\":1371:1380   */\n      dup4\n        /* \"#utility.yul\":1367:1384   */\n      add\n        /* \"#utility.yul\":1358:1364   */\n      dup5\n        /* \"#utility.yul\":1316:1385   */\n      tag_58\n      jump\t// in\n    tag_77:\n        /* \"#utility.yul\":1270:1392   */\n      swap3\n      swap2\n      pop\n      pop\n      jump\t// out\n        /* \"#utility.yul\":1398:1711   */\n    tag_25:\n      0x00\n        /* \"#utility.yul\":1549:1551   */\n      0x20\n        /* \"#utility.yul\":1538:1547   */\n      dup3\n        /* \"#utility.yul\":1534:1552   */\n      add\n        /* \"#utility.yul\":1526:1552   */\n      swap1\n      pop\n        /* \"#utility.yul\":1598:1607   */\n      dup2\n        /* \"#utility.yul\":1592:1596   */\n      dup2\n        /* \"#utility.yul\":1588:1608   */\n      sub\n        /* \"#utility.yul\":1584:1585   */\n      0x00\n        /* \"#utility.yul\":1573:1582   */\n      dup4\n        /* \"#utility.yul\":1569:1586   */\n      add\n        /* \"#utility.yul\":1562:1609   */\n      mstore\n        /* \"#utility.yul\":1626:1704   */\n      tag_79\n        /* \"#utility.yul\":1699:1703   */\n      dup2\n        /* \"#utility.yul\":1690:1696   */\n      dup5\n        /* \"#utility.yul\":1626:1704   */\n      tag_62\n      jump\t// in\n    tag_79:\n        /* \"#utility.yul\":1618:1704   */\n      swap1\n      pop\n        /* \"#utility.yul\":1516:1711   */\n      swap3\n      swap2\n      pop\n      pop\n      jump\t// out\n        /* \"#utility.yul\":1717:1939   */\n    tag_16:\n      0x00\n        /* \"#utility.yul\":1848:1850   */\n      0x20\n        /* \"#utility.yul\":1837:1846   */\n      dup3\n        /* \"#utility.yul\":1833:1851   */\n      add\n        /* \"#utility.yul\":1825:1851   */\n      swap1\n      pop\n        /* \"#utility.yul\":1861:1932   */\n      tag_81\n        /* \"#utility.yul\":1929:1930   */\n      0x00\n        /* \"#utility.yul\":1918:1927   */\n      dup4\n        /* \"#utility.yul\":1914:1931   */\n      add\n        /* \"#utility.yul\":1905:1911   */\n      dup5\n        /* \"#utility.yul\":1861:1932   */\n      tag_72\n      jump\t// in\n    tag_81:\n        /* \"#utility.yul\":1815:1939   */\n      swap3\n      swap2\n      pop\n      pop\n      jump\t// out\n        /* \"#utility.yul\":1945:2044   */\n    tag_65:\n      0x00\n        /* \"#utility.yul\":2031:2036   */\n      dup2\n        /* \"#utility.yul\":2025:2037   */\n      mload\n        /* \"#utility.yul\":2015:2037   */\n      swap1\n      pop\n        /* \"#utility.yul\":2004:2044   */\n      swap2\n      swap1\n      pop\n      jump\t// out\n        /* \"#utility.yul\":2050:2219   */\n    tag_67:\n      0x00\n        /* \"#utility.yul\":2168:2174   */\n      dup3\n        /* \"#utility.yul\":2163:2166   */\n      dup3\n        /* \"#utility.yul\":2156:2175   */\n      mstore\n        /* \"#utility.yul\":2208:2212   */\n      0x20\n        /* \"#utility.yul\":2203:2206   */\n      dup3\n        /* \"#utility.yul\":2199:2213   */\n      add\n        /* \"#utility.yul\":2184:2213   */\n      swap1\n      pop\n        /* \"#utility.yul\":2146:2219   */\n      swap3\n      swap2\n      pop\n      pop\n      jump\t// out\n        /* \"#utility.yul\":2225:2530   */\n    tag_48:\n      0x00\n        /* \"#utility.yul\":2284:2304   */\n      tag_85\n        /* \"#utility.yul\":2302:2303   */\n      dup3\n        /* \"#utility.yul\":2284:2304   */\n      tag_75\n      jump\t// in\n    tag_85:\n        /* \"#utility.yul\":2279:2304   */\n      swap2\n      pop\n        /* \"#utility.yul\":2318:2338   */\n      tag_86\n        /* \"#utility.yul\":2336:2337   */\n      dup4\n        /* \"#utility.yul\":2318:2338   */\n      tag_75\n      jump\t// in\n    tag_86:\n        /* \"#utility.yul\":2313:2338   */\n      swap3\n      pop\n        /* \"#utility.yul\":2472:2473   */\n      dup3\n        /* \"#utility.yul\":2404:2470   */\n      0xffffffffffffffffffffffffffffffffffffffffffffffffffffffffffffffff\n        /* \"#utility.yul\":2400:2474   */\n      sub\n        /* \"#utility.yul\":2397:2398   */\n      dup3\n        /* \"#utility.yul\":2394:2475   */\n      gt\n        /* \"#utility.yul\":2391:2393   */\n      iszero\n      tag_87\n      jumpi\n        /* \"#utility.yul\":2478:2496   */\n      tag_88\n      tag_89\n      jump\t// in\n    tag_88:\n        /* \"#utility.yul\":2391:2393   */\n    tag_87:\n        /* \"#utility.yul\":2522:2523   */\n      dup3\n        /* \"#utility.yul\":2519:2520   */\n      dup3\n        /* \"#utility.yul\":2515:2524   */\n      add\n        /* \"#utility.yul\":2508:2524   */\n      swap1\n      pop\n        /* \"#utility.yul\":2269:2530   */\n      swap3\n      swap2\n      pop\n      pop\n      jump\t// out\n        /* \"#utility.yul\":2536:2921   */\n    tag_36:\n      0x00\n        /* \"#utility.yul\":2592:2611   */\n      tag_91\n        /* \"#utility.yul\":2609:2610   */\n      dup3\n        /* \"#utility.yul\":2592:2611   */\n      tag_61\n      jump\t// in\n    tag_91:\n        /* \"#utility.yul\":2587:2611   */\n      swap2\n      pop\n        /* \"#utility.yul\":2625:2644   */\n      tag_92\n        /* \"#utility.yul\":2642:2643   */\n      dup4\n        /* \"#utility.yul\":2625:2644   */\n      tag_61\n      jump\t// in\n    tag_92:\n        /* \"#utility.yul\":2620:2644   */\n      swap3\n      pop\n        /* \"#utility.yul\":2663:2664   */\n      dup3\n        /* \"#utility.yul\":2653:2655   */\n      tag_93\n      jumpi\n        /* \"#utility.yul\":2668:2686   */\n      tag_94\n      tag_95\n      jump\t// in\n    tag_94:\n        /* \"#utility.yul\":2653:2655   */\n    tag_93:\n        /* \"#utility.yul\":2854:2855   */\n      0x01\n        /* \"#utility.yul\":2851:2852   */\n      0x00\n        /* \"#utility.yul\":2847:2856   */\n      sub\n        /* \"#utility.yul\":2844:2845   */\n      dup4\n        /* \"#utility.yul\":2841:2857   */\n      eq\n        /* \"#utility.yul\":2760:2826   */\n      0x8000000000000000000000000000000000000000000000000000000000000000\n        /* \"#utility.yul\":2757:2758   */\n      dup4\n        /* \"#utility.yul\":2754:2827   */\n      eq\n        /* \"#utility.yul\":2737:2867   */\n      and\n        /* \"#utility.yul\":2734:2736   */\n      iszero\n      tag_96\n      jumpi\n        /* \"#utility.yul\":2870:2888   */\n      tag_97\n      tag_89\n      jump\t// in\n    tag_97:\n        /* \"#utility.yul\":2734:2736   */\n    tag_96:\n        /* \"#utility.yul\":2913:2914   */\n      dup3\n        /* \"#utility.yul\":2910:2911   */\n      dup3\n        /* \"#utility.yul\":2905:2915   */\n      sdiv\n        /* \"#utility.yul\":2900:2915   */\n      swap1\n      pop\n        /* \"#utility.yul\":2577:2921   */\n      swap3\n      swap2\n      pop\n      pop\n      jump\t// out\n        /* \"#utility.yul\":2927:3918   */\n    tag_33:\n      0x00\n        /* \"#utility.yul\":2989:3008   */\n      tag_99\n        /* \"#utility.yul\":3006:3007   */\n      dup3\n        /* \"#utility.yul\":2989:3008   */\n      tag_61\n      jump\t// in\n    tag_99:\n        /* \"#utility.yul\":2984:3008   */\n      swap2\n      pop\n        /* \"#utility.yul\":3022:3041   */\n      tag_100\n        /* \"#utility.yul\":3039:3040   */\n      dup4\n        /* \"#utility.yul\":3022:3041   */\n      tag_61\n      jump\t// in\n    tag_100:\n        /* \"#utility.yul\":3017:3041   */\n      swap3\n      pop\n        /* \"#utility.yul\":3223:3224   */\n      dup3\n        /* \"#utility.yul\":3155:3221   */\n      0x7fffffffffffffffffffffffffffffffffffffffffffffffffffffffffffffff\n        /* \"#utility.yul\":3151:3225   */\n      div\n        /* \"#utility.yul\":3148:3149   */\n      dup3\n        /* \"#utility.yul\":3145:3226   */\n      gt\n        /* \"#utility.yul\":3140:3141   */\n      0x00\n        /* \"#utility.yul\":3137:3138   */\n      dup5\n        /* \"#utility.yul\":3133:3142   */\n      sgt\n        /* \"#utility.yul\":3129:3130   */\n      0x00\n        /* \"#utility.yul\":3126:3127   */\n      dup5\n        /* \"#utility.yul\":3122:3131   */\n      sgt\n        /* \"#utility.yul\":3118:3143   */\n      and\n        /* \"#utility.yul\":3114:3227   */\n      and\n        /* \"#utility.yul\":3111:3113   */\n      iszero\n      tag_101\n      jumpi\n        /* \"#utility.yul\":3230:3248   */\n      tag_102\n      tag_89\n      jump\t// in\n    tag_102:\n        /* \"#utility.yul\":3111:3113   */\n    tag_101:\n        /* \"#utility.yul\":3434:3435   */\n      dup2\n        /* \"#utility.yul\":3366:3432   */\n      0x8000000000000000000000000000000000000000000000000000000000000000\n        /* \"#utility.yul\":3361:3436   */\n      sdiv\n        /* \"#utility.yul\":3358:3359   */\n      dup4\n        /* \"#utility.yul\":3354:3437   */\n      slt\n        /* \"#utility.yul\":3349:3350   */\n      0x00\n        /* \"#utility.yul\":3346:3347   */\n      dup5\n        /* \"#utility.yul\":3342:3351   */\n      slt\n        /* \"#utility.yul\":3338:3339   */\n      0x00\n        /* \"#utility.yul\":3335:3336   */\n      dup5\n        /* \"#utility.yul\":3331:3340   */\n      sgt\n        /* \"#utility.yul\":3327:3352   */\n      and\n        /* \"#utility.yul\":3323:3438   */\n      and\n        /* \"#utility.yul\":3320:3322   */\n      iszero\n      tag_103\n      jumpi\n        /* \"#utility.yul\":3441:3459   */\n      tag_104\n      tag_89\n      jump\t// in\n    tag_104:\n        /* \"#utility.yul\":3320:3322   */\n    tag_103:\n        /* \"#utility.yul\":3645:3646   */\n      dup3\n        /* \"#utility.yul\":3577:3643   */\n      0x8000000000000000000000000000000000000000000000000000000000000000\n        /* \"#utility.yul\":3572:3647   */\n      sdiv\n        /* \"#utility.yul\":3569:3570   */\n      dup3\n        /* \"#utility.yul\":3565:3648   */\n      slt\n        /* \"#utility.yul\":3560:3561   */\n      0x00\n        /* \"#utility.yul\":3557:3558   */\n      dup5\n        /* \"#utility.yul\":3553:3562   */\n      sgt\n        /* \"#utility.yul\":3549:3550   */\n      0x00\n        /* \"#utility.yul\":3546:3547   */\n      dup5\n        /* \"#utility.yul\":3542:3551   */\n      slt\n        /* \"#utility.yul\":3538:3563   */\n      and\n        /* \"#utility.yul\":3534:3649   */\n      and\n        /* \"#utility.yul\":3531:3533   */\n      iszero\n      tag_105\n      jumpi\n        /* \"#utility.yul\":3652:3670   */\n      tag_106\n      tag_89\n      jump\t// in\n    tag_106:\n        /* \"#utility.yul\":3531:3533   */\n    tag_105:\n        /* \"#utility.yul\":3855:3856   */\n      dup3\n        /* \"#utility.yul\":3787:3853   */\n      0x7fffffffffffffffffffffffffffffffffffffffffffffffffffffffffffffff\n        /* \"#utility.yul\":3782:3857   */\n      sdiv\n        /* \"#utility.yul\":3779:3780   */\n      dup3\n        /* \"#utility.yul\":3775:3858   */\n      slt\n        /* \"#utility.yul\":3770:3771   */\n      0x00\n        /* \"#utility.yul\":3767:3768   */\n      dup5\n        /* \"#utility.yul\":3763:3772   */\n      slt\n        /* \"#utility.yul\":3759:3760   */\n      0x00\n        /* \"#utility.yul\":3756:3757   */\n      dup5\n        /* \"#utility.yul\":3752:3761   */\n      slt\n        /* \"#utility.yul\":3748:3773   */\n      and\n        /* \"#utility.yul\":3744:3859   */\n      and\n        /* \"#utility.yul\":3741:3743   */\n      iszero\n      tag_107\n      jumpi\n        /* \"#utility.yul\":3862:3880   */\n      tag_108\n      tag_89\n      jump\t// in\n    tag_108:\n        /* \"#utility.yul\":3741:3743   */\n    tag_107:\n        /* \"#utility.yul\":3910:3911   */\n      dup3\n        /* \"#utility.yul\":3907:3908   */\n      dup3\n        /* \"#utility.yul\":3903:3912   */\n      mul\n        /* \"#utility.yul\":3892:3912   */\n      swap1\n      pop\n        /* \"#utility.yul\":2974:3918   */\n      swap3\n      swap2\n      pop\n      pop\n      jump\t// out\n        /* \"#utility.yul\":3924:4451   */\n    tag_45:\n      0x00\n        /* \"#utility.yul\":3983:4002   */\n      tag_110\n        /* \"#utility.yul\":4000:4001   */\n      dup3\n        /* \"#utility.yul\":3983:4002   */\n      tag_61\n      jump\t// in\n    tag_110:\n        /* \"#utility.yul\":3978:4002   */\n      swap2\n      pop\n        /* \"#utility.yul\":4016:4035   */\n      tag_111\n        /* \"#utility.yul\":4033:4034   */\n      dup4\n        /* \"#utility.yul\":4016:4035   */\n      tag_61\n      jump\t// in\n    tag_111:\n        /* \"#utility.yul\":4011:4035   */\n      swap3\n      pop\n        /* \"#utility.yul\":4205:4206   */\n      dup3\n        /* \"#utility.yul\":4137:4203   */\n      0x8000000000000000000000000000000000000000000000000000000000000000\n        /* \"#utility.yul\":4133:4207   */\n      add\n        /* \"#utility.yul\":4130:4131   */\n      dup3\n        /* \"#utility.yul\":4126:4208   */\n      slt\n        /* \"#utility.yul\":4121:4122   */\n      0x00\n        /* \"#utility.yul\":4118:4119   */\n      dup5\n        /* \"#utility.yul\":4114:4123   */\n      slt\n        /* \"#utility.yul\":4107:4124   */\n      iszero\n        /* \"#utility.yul\":4103:4209   */\n      and\n        /* \"#utility.yul\":4100:4102   */\n      iszero\n      tag_112\n      jumpi\n        /* \"#utility.yul\":4212:4230   */\n      tag_113\n      tag_89\n      jump\t// in\n    tag_113:\n        /* \"#utility.yul\":4100:4102   */\n    tag_112:\n        /* \"#utility.yul\":4391:4392   */\n      dup3\n        /* \"#utility.yul\":4323:4389   */\n      0x7fffffffffffffffffffffffffffffffffffffffffffffffffffffffffffffff\n        /* \"#utility.yul\":4319:4393   */\n      add\n        /* \"#utility.yul\":4316:4317   */\n      dup3\n        /* \"#utility.yul\":4312:4394   */\n      sgt\n        /* \"#utility.yul\":4308:4309   */\n      0x00\n        /* \"#utility.yul\":4305:4306   */\n      dup5\n        /* \"#utility.yul\":4301:4310   */\n      slt\n        /* \"#utility.yul\":4297:4395   */\n      and\n        /* \"#utility.yul\":4294:4296   */\n      iszero\n      tag_114\n      jumpi\n        /* \"#utility.yul\":4398:4416   */\n      tag_115\n      tag_89\n      jump\t// in\n    tag_115:\n        /* \"#utility.yul\":4294:4296   */\n    tag_114:\n        /* \"#utility.yul\":4443:4444   */\n      dup3\n        /* \"#utility.yul\":4440:4441   */\n      dup3\n        /* \"#utility.yul\":4436:4445   */\n      sub\n        /* \"#utility.yul\":4428:4445   */\n      swap1\n      pop\n        /* \"#utility.yul\":3968:4451   */\n      swap3\n      swap2\n      pop\n      pop\n      jump\t// out\n        /* \"#utility.yul\":4457:4533   */\n    tag_61:\n      0x00\n        /* \"#utility.yul\":4522:4527   */\n      dup2\n        /* \"#utility.yul\":4511:4527   */\n      swap1\n      pop\n        /* \"#utility.yul\":4501:4533   */\n      swap2\n      swap1\n      pop\n      jump\t// out\n        /* \"#utility.yul\":4539:4616   */\n    tag_75:\n      0x00\n        /* \"#utility.yul\":4605:4610   */\n      dup2\n        /* \"#utility.yul\":4594:4610   */\n      swap1\n      pop\n        /* \"#utility.yul\":4584:4616   */\n      swap2\n      swap1\n      pop\n      jump\t// out\n        /* \"#utility.yul\":4622:4929   */\n    tag_69:\n        /* \"#utility.yul\":4690:4691   */\n      0x00\n        /* \"#utility.yul\":4700:4813   */\n    tag_119:\n        /* \"#utility.yul\":4714:4720   */\n      dup4\n        /* \"#utility.yul\":4711:4712   */\n      dup2\n        /* \"#utility.yul\":4708:4721   */\n      lt\n        /* \"#utility.yul\":4700:4813   */\n      iszero\n      tag_121\n      jumpi\n        /* \"#utility.yul\":4799:4800   */\n      dup1\n        /* \"#utility.yul\":4794:4797   */\n      dup3\n        /* \"#utility.yul\":4790:4801   */\n      add\n        /* \"#utility.yul\":4784:4802   */\n      mload\n        /* \"#utility.yul\":4780:4781   */\n      dup2\n        /* \"#utility.yul\":4775:4778   */\n      dup5\n        /* \"#utility.yul\":4771:4782   */\n      add\n        /* \"#utility.yul\":4764:4803   */\n      mstore\n        /* \"#utility.yul\":4736:4738   */\n      0x20\n        /* \"#utility.yul\":4733:4734   */\n      dup2\n        /* \"#utility.yul\":4729:4739   */\n      add\n        /* \"#utility.yul\":4724:4739   */\n      swap1\n      pop\n        /* \"#utility.yul\":4700:4813   */\n      jump(tag_119)\n    tag_121:\n        /* \"#utility.yul\":4831:4837   */\n      dup4\n        /* \"#utility.yul\":4828:4829   */\n      dup2\n        /* \"#utility.yul\":4825:4838   */\n      gt\n        /* \"#utility.yul\":4822:4824   */\n      iszero\n      tag_122\n      jumpi\n        /* \"#utility.yul\":4911:4912   */\n      0x00\n        /* \"#utility.yul\":4902:4908   */\n      dup5\n        /* \"#utility.yul\":4897:4900   */\n      dup5\n        /* \"#utility.yul\":4893:4909   */\n      add\n        /* \"#utility.yul\":4886:4913   */\n      mstore\n        /* \"#utility.yul\":4822:4824   */\n    tag_122:\n        /* \"#utility.yul\":4671:4929   */\n      pop\n      pop\n      pop\n      pop\n      jump\t// out\n        /* \"#utility.yul\":4935:5255   */\n    tag_38:\n      0x00\n        /* \"#utility.yul\":5016:5017   */\n      0x02\n        /* \"#utility.yul\":5010:5014   */\n      dup3\n        /* \"#utility.yul\":5006:5018   */\n      div\n        /* \"#utility.yul\":4996:5018   */\n      swap1\n      pop\n        /* \"#utility.yul\":5063:5064   */\n      0x01\n        /* \"#utility.yul\":5057:5061   */\n      dup3\n        /* \"#utility.yul\":5053:5065   */\n      and\n        /* \"#utility.yul\":5084:5102   */\n      dup1\n        /* \"#utility.yul\":5074:5076   */\n      tag_124\n      jumpi\n        /* \"#utility.yul\":5140:5144   */\n      0x7f\n        /* \"#utility.yul\":5132:5138   */\n      dup3\n        /* \"#utility.yul\":5128:5145   */\n      and\n        /* \"#utility.yul\":5118:5145   */\n      swap2\n      pop\n        /* \"#utility.yul\":5074:5076   */\n    tag_124:\n        /* \"#utility.yul\":5202:5204   */\n      0x20\n        /* \"#utility.yul\":5194:5200   */\n      dup3\n        /* \"#utility.yul\":5191:5205   */\n      lt\n        /* \"#utility.yul\":5171:5189   */\n      dup2\n        /* \"#utility.yul\":5168:5206   */\n      eq\n        /* \"#utility.yul\":5165:5167   */\n      iszero\n      tag_125\n      jumpi\n        /* \"#utility.yul\":5221:5239   */\n      tag_126\n      tag_127\n      jump\t// in\n    tag_126:\n        /* \"#utility.yul\":5165:5167   */\n    tag_125:\n        /* \"#utility.yul\":4986:5255   */\n      pop\n      swap2\n      swap1\n      pop\n      jump\t// out\n        /* \"#utility.yul\":5261:5441   */\n    tag_89:\n        /* \"#utility.yul\":5309:5386   */\n      0x4e487b7100000000000000000000000000000000000000000000000000000000\n        /* \"#utility.yul\":5306:5307   */\n      0x00\n        /* \"#utility.yul\":5299:5387   */\n      mstore\n        /* \"#utility.yul\":5406:5410   */\n      0x11\n        /* \"#utility.yul\":5403:5404   */\n      0x04\n        /* \"#utility.yul\":5396:5411   */\n      mstore\n        /* \"#utility.yul\":5430:5434   */\n      0x24\n        /* \"#utility.yul\":5427:5428   */\n      0x00\n        /* \"#utility.yul\":5420:5435   */\n      revert\n        /* \"#utility.yul\":5447:5627   */\n    tag_95:\n        /* \"#utility.yul\":5495:5572   */\n      0x4e487b7100000000000000000000000000000000000000000000000000000000\n        /* \"#utility.yul\":5492:5493   */\n      0x00\n        /* \"#utility.yul\":5485:5573   */\n      mstore\n        /* \"#utility.yul\":5592:5596   */\n      0x12\n        /* \"#utility.yul\":5589:5590   */\n      0x04\n        /* \"#utility.yul\":5582:5597   */\n      mstore\n        /* \"#utility.yul\":5616:5620   */\n      0x24\n        /* \"#utility.yul\":5613:5614   */\n      0x00\n        /* \"#utility.yul\":5606:5621   */\n      revert\n        /* \"#utility.yul\":5633:5813   */\n    tag_127:\n        /* \"#utility.yul\":5681:5758   */\n      0x4e487b7100000000000000000000000000000000000000000000000000000000\n        /* \"#utility.yul\":5678:5679   */\n      0x00\n        /* \"#utility.yul\":5671:5759   */\n      mstore\n        /* \"#utility.yul\":5778:5782   */\n      0x22\n        /* \"#utility.yul\":5775:5776   */\n      0x04\n        /* \"#utility.yul\":5768:5783   */\n      mstore\n        /* \"#utility.yul\":5802:5806   */\n      0x24\n        /* \"#utility.yul\":5799:5800   */\n      0x00\n        /* \"#utility.yul\":5792:5807   */\n      revert\n        /* \"#utility.yul\":5819:5921   */\n    tag_71:\n      0x00\n        /* \"#utility.yul\":5911:5913   */\n      0x1f\n        /* \"#utility.yul\":5907:5914   */\n      not\n        /* \"#utility.yul\":5902:5904   */\n      0x1f\n        /* \"#utility.yul\":5895:5900   */\n      dup4\n        /* \"#utility.yul\":5891:5905   */\n      add\n        /* \"#utility.yul\":5887:5915   */\n      and\n        /* \"#utility.yul\":5877:5915   */\n      swap1\n      pop\n        /* \"#utility.yul\":5867:5921   */\n      swap2\n      swap1\n      pop\n      jump\t// out\n        /* \"#utility.yul\":5927:6047   */\n    tag_53:\n        /* \"#utility.yul\":5999:6022   */\n      tag_133\n        /* \"#utility.yul\":6016:6021   */\n      dup2\n        /* \"#utility.yul\":5999:6022   */\n      tag_61\n      jump\t// in\n    tag_133:\n        /* \"#utility.yul\":5992:5997   */\n      dup2\n        /* \"#utility.yul\":5989:6023   */\n      eq\n        /* \"#utility.yul\":5979:5981   */\n      tag_134\n      jumpi\n        /* \"#utility.yul\":6037:6038   */\n      0x00\n        /* \"#utility.yul\":6034:6035   */\n      dup1\n        /* \"#utility.yul\":6027:6039   */\n      revert\n        /* \"#utility.yul\":5979:5981   */\n    tag_134:\n        /* \"#utility.yul\":5969:6047   */\n      pop\n      jump\t// out\n\n    auxdata: 0xa2646970667358221220650b46dcaace287fb51d7f2e85bc76c285a251b75f97f5414ed3eeb453810aa864736f6c63430008000033\n}\n",
				"bytecode": {
					"linkReferences": {},
					"object": "60806040526040518060400160405280600c81526020017f48656c6c6f20576f726c642100000000000000000000000000000000000000008152506000908051906020019061004f929190610071565b506005600155600a600255600a60035534801561006b57600080fd5b50610175565b82805461007d90610114565b90600052602060002090601f01602090048101928261009f57600085556100e6565b82601f106100b857805160ff19168380011785556100e6565b828001600101855582156100e6579182015b828111156100e55782518255916020019190600101906100ca565b5b5090506100f391906100f7565b5090565b5b808211156101105760008160009055506001016100f8565b5090565b6000600282049050600182168061012c57607f821691505b602082108114156101405761013f610146565b5b50919050565b7f4e487b7100000000000000000000000000000000000000000000000000000000600052602260045260246000fd5b610706806101846000396000f3fe608060405234801561001057600080fd5b50600436106100625760003560e01c8063011285da1461006757806306661abd1461008557806309b7cdda146100a3578063cfae3217146100d3578063df09a2da146100f1578063ec5971281461010f575b600080fd5b61006f610119565b60405161007c91906102c3565b60405180910390f35b61008d610130565b60405161009a9190610300565b60405180910390f35b6100bd60048036038101906100b89190610230565b610136565b6040516100ca91906102c3565b60405180910390f35b6100db61014c565b6040516100e891906102de565b60405180910390f35b6100f96101da565b60405161010691906102c3565b60405180910390f35b6101176101fa565b005b600060025460015461012b91906103f7565b905090565b60035481565b60008282610144919061038d565b905092915050565b60008054610159906105e9565b80601f0160208091040260200160405190810160405280929190818152602001828054610185906105e9565b80156101d25780601f106101a7576101008083540402835291602001916101d2565b820191906000526020600020905b8154815290600101906020018083116101b557829003601f168201915b505050505081565b6000806009905060006007905080826101f3919061050e565b9250505090565b600060089050600060049050600081836102149190610337565b9050505050565b60008135905061022a816106b9565b92915050565b6000806040838503121561024357600080fd5b60006102518582860161021b565b92505060206102628582860161021b565b9150509250929050565b610275816105a2565b82525050565b60006102868261031b565b6102908185610326565b93506102a08185602086016105b6565b6102a9816106a8565b840191505092915050565b6102bd816105ac565b82525050565b60006020820190506102d8600083018461026c565b92915050565b600060208201905081810360008301526102f8818461027b565b905092915050565b600060208201905061031560008301846102b4565b92915050565b600081519050919050565b600082825260208201905092915050565b6000610342826105ac565b915061034d836105ac565b9250827fffffffffffffffffffffffffffffffffffffffffffffffffffffffffffffffff038211156103825761038161061b565b5b828201905092915050565b6000610398826105a2565b91506103a3836105a2565b9250826103b3576103b261064a565b5b600160000383147f8000000000000000000000000000000000000000000000000000000000000000831416156103ec576103eb61061b565b5b828205905092915050565b6000610402826105a2565b915061040d836105a2565b9250827f7fffffffffffffffffffffffffffffffffffffffffffffffffffffffffffffff048211600084136000841316161561044c5761044b61061b565b5b817f800000000000000000000000000000000000000000000000000000000000000005831260008412600084131616156104895761048861061b565b5b827f800000000000000000000000000000000000000000000000000000000000000005821260008413600084121616156104c6576104c561061b565b5b827f7fffffffffffffffffffffffffffffffffffffffffffffffffffffffffffffff05821260008412600084121616156105035761050261061b565b5b828202905092915050565b6000610519826105a2565b9150610524836105a2565b9250827f80000000000000000000000000000000000000000000000000000000000000000182126000841215161561055f5761055e61061b565b5b827f7fffffffffffffffffffffffffffffffffffffffffffffffffffffffffffffff0182136000841216156105975761059661061b565b5b828203905092915050565b6000819050919050565b6000819050919050565b60005b838110156105d45780820151818401526020810190506105b9565b838111156105e3576000848401525b50505050565b6000600282049050600182168061060157607f821691505b6020821081141561061557610614610679565b5b50919050565b7f4e487b7100000000000000000000000000000000000000000000000000000000600052601160045260246000fd5b7f4e487b7100000000000000000000000000000000000000000000000000000000600052601260045260246000fd5b7f4e487b7100000000000000000000000000000000000000000000000000000000600052602260045260246000fd5b6000601f19601f8301169050919050565b6106c2816105a2565b81146106cd57600080fd5b5056fea2646970667358221220650b46dcaace287fb51d7f2e85bc76c285a251b75f97f5414ed3eeb453810aa864736f6c63430008000033",
					"opcodes": "PUSH1 0x80 PUSH1 0x40 MSTORE PUSH1 0x40 MLOAD DUP1 PUSH1 0x40 ADD PUSH1 0x40 MSTORE DUP1 PUSH1 0xC DUP2 MSTORE PUSH1 0x20 ADD PUSH32 0x48656C6C6F20576F726C64210000000000000000000000000000000000000000 DUP2 MSTORE POP PUSH1 0x0 SWAP1 DUP1 MLOAD SWAP1 PUSH1 0x20 ADD SWAP1 PUSH2 0x4F SWAP3 SWAP2 SWAP1 PUSH2 0x71 JUMP JUMPDEST POP PUSH1 0x5 PUSH1 0x1 SSTORE PUSH1 0xA PUSH1 0x2 SSTORE PUSH1 0xA PUSH1 0x3 SSTORE CALLVALUE DUP1 ISZERO PUSH2 0x6B JUMPI PUSH1 0x0 DUP1 REVERT JUMPDEST POP PUSH2 0x175 JUMP JUMPDEST DUP3 DUP1 SLOAD PUSH2 0x7D SWAP1 PUSH2 0x114 JUMP JUMPDEST SWAP1 PUSH1 0x0 MSTORE PUSH1 0x20 PUSH1 0x0 KECCAK256 SWAP1 PUSH1 0x1F ADD PUSH1 0x20 SWAP1 DIV DUP2 ADD SWAP3 DUP3 PUSH2 0x9F JUMPI PUSH1 0x0 DUP6 SSTORE PUSH2 0xE6 JUMP JUMPDEST DUP3 PUSH1 0x1F LT PUSH2 0xB8 JUMPI DUP1 MLOAD PUSH1 0xFF NOT AND DUP4 DUP1 ADD OR DUP6 SSTORE PUSH2 0xE6 JUMP JUMPDEST DUP3 DUP1 ADD PUSH1 0x1 ADD DUP6 SSTORE DUP3 ISZERO PUSH2 0xE6 JUMPI SWAP2 DUP3 ADD JUMPDEST DUP3 DUP2 GT ISZERO PUSH2 0xE5 JUMPI DUP3 MLOAD DUP3 SSTORE SWAP2 PUSH1 0x20 ADD SWAP2 SWAP1 PUSH1 0x1 ADD SWAP1 PUSH2 0xCA JUMP JUMPDEST JUMPDEST POP SWAP1 POP PUSH2 0xF3 SWAP2 SWAP1 PUSH2 0xF7 JUMP JUMPDEST POP SWAP1 JUMP JUMPDEST JUMPDEST DUP1 DUP3 GT ISZERO PUSH2 0x110 JUMPI PUSH1 0x0 DUP2 PUSH1 0x0 SWAP1 SSTORE POP PUSH1 0x1 ADD PUSH2 0xF8 JUMP JUMPDEST POP SWAP1 JUMP JUMPDEST PUSH1 0x0 PUSH1 0x2 DUP3 DIV SWAP1 POP PUSH1 0x1 DUP3 AND DUP1 PUSH2 0x12C JUMPI PUSH1 0x7F DUP3 AND SWAP2 POP JUMPDEST PUSH1 0x20 DUP3 LT DUP2 EQ ISZERO PUSH2 0x140 JUMPI PUSH2 0x13F PUSH2 0x146 JUMP JUMPDEST JUMPDEST POP SWAP2 SWAP1 POP JUMP JUMPDEST PUSH32 0x4E487B7100000000000000000000000000000000000000000000000000000000 PUSH1 0x0 MSTORE PUSH1 0x22 PUSH1 0x4 MSTORE PUSH1 0x24 PUSH1 0x0 REVERT JUMPDEST PUSH2 0x706 DUP1 PUSH2 0x184 PUSH1 0x0 CODECOPY PUSH1 0x0 RETURN INVALID PUSH1 0x80 PUSH1 0x40 MSTORE CALLVALUE DUP1 ISZERO PUSH2 0x10 JUMPI PUSH1 0x0 DUP1 REVERT JUMPDEST POP PUSH1 0x4 CALLDATASIZE LT PUSH2 0x62 JUMPI PUSH1 0x0 CALLDATALOAD PUSH1 0xE0 SHR DUP1 PUSH4 0x11285DA EQ PUSH2 0x67 JUMPI DUP1 PUSH4 0x6661ABD EQ PUSH2 0x85 JUMPI DUP1 PUSH4 0x9B7CDDA EQ PUSH2 0xA3 JUMPI DUP1 PUSH4 0xCFAE3217 EQ PUSH2 0xD3 JUMPI DUP1 PUSH4 0xDF09A2DA EQ PUSH2 0xF1 JUMPI DUP1 PUSH4 0xEC597128 EQ PUSH2 0x10F JUMPI JUMPDEST PUSH1 0x0 DUP1 REVERT JUMPDEST PUSH2 0x6F PUSH2 0x119 JUMP JUMPDEST PUSH1 0x40 MLOAD PUSH2 0x7C SWAP2 SWAP1 PUSH2 0x2C3 JUMP JUMPDEST PUSH1 0x40 MLOAD DUP1 SWAP2 SUB SWAP1 RETURN JUMPDEST PUSH2 0x8D PUSH2 0x130 JUMP JUMPDEST PUSH1 0x40 MLOAD PUSH2 0x9A SWAP2 SWAP1 PUSH2 0x300 JUMP JUMPDEST PUSH1 0x40 MLOAD DUP1 SWAP2 SUB SWAP1 RETURN JUMPDEST PUSH2 0xBD PUSH1 0x4 DUP1 CALLDATASIZE SUB DUP2 ADD SWAP1 PUSH2 0xB8 SWAP2 SWAP1 PUSH2 0x230 JUMP JUMPDEST PUSH2 0x136 JUMP JUMPDEST PUSH1 0x40 MLOAD PUSH2 0xCA SWAP2 SWAP1 PUSH2 0x2C3 JUMP JUMPDEST PUSH1 0x40 MLOAD DUP1 SWAP2 SUB SWAP1 RETURN JUMPDEST PUSH2 0xDB PUSH2 0x14C JUMP JUMPDEST PUSH1 0x40 MLOAD PUSH2 0xE8 SWAP2 SWAP1 PUSH2 0x2DE JUMP JUMPDEST PUSH1 0x40 MLOAD DUP1 SWAP2 SUB SWAP1 RETURN JUMPDEST PUSH2 0xF9 PUSH2 0x1DA JUMP JUMPDEST PUSH1 0x40 MLOAD PUSH2 0x106 SWAP2 SWAP1 PUSH2 0x2C3 JUMP JUMPDEST PUSH1 0x40 MLOAD DUP1 SWAP2 SUB SWAP1 RETURN JUMPDEST PUSH2 0x117 PUSH2 0x1FA JUMP JUMPDEST STOP JUMPDEST PUSH1 0x0 PUSH1 0x2 SLOAD PUSH1 0x1 SLOAD PUSH2 0x12B SWAP2 SWAP1 PUSH2 0x3F7 JUMP JUMPDEST SWAP1 POP SWAP1 JUMP JUMPDEST PUSH1 0x3 SLOAD DUP2 JUMP JUMPDEST PUSH1 0x0 DUP3 DUP3 PUSH2 0x144 SWAP2 SWAP1 PUSH2 0x38D JUMP JUMPDEST SWAP1 POP SWAP3 SWAP2 POP POP JUMP JUMPDEST PUSH1 0x0 DUP1 SLOAD PUSH2 0x159 SWAP1 PUSH2 0x5E9 JUMP JUMPDEST DUP1 PUSH1 0x1F ADD PUSH1 0x20 DUP1 SWAP2 DIV MUL PUSH1 0x20 ADD PUSH1 0x40 MLOAD SWAP1 DUP2 ADD PUSH1 0x40 MSTORE DUP1 SWAP3 SWAP2 SWAP1 DUP2 DUP2 MSTORE PUSH1 0x20 ADD DUP3 DUP1 SLOAD PUSH2 0x185 SWAP1 PUSH2 0x5E9 JUMP JUMPDEST DUP1 ISZERO PUSH2 0x1D2 JUMPI DUP1 PUSH1 0x1F LT PUSH2 0x1A7 JUMPI PUSH2 0x100 DUP1 DUP4 SLOAD DIV MUL DUP4 MSTORE SWAP2 PUSH1 0x20 ADD SWAP2 PUSH2 0x1D2 JUMP JUMPDEST DUP3 ADD SWAP2 SWAP1 PUSH1 0x0 MSTORE PUSH1 0x20 PUSH1 0x0 KECCAK256 SWAP1 JUMPDEST DUP2 SLOAD DUP2 MSTORE SWAP1 PUSH1 0x1 ADD SWAP1 PUSH1 0x20 ADD DUP1 DUP4 GT PUSH2 0x1B5 JUMPI DUP3 SWAP1 SUB PUSH1 0x1F AND DUP3 ADD SWAP2 JUMPDEST POP POP POP POP POP DUP2 JUMP JUMPDEST PUSH1 0x0 DUP1 PUSH1 0x9 SWAP1 POP PUSH1 0x0 PUSH1 0x7 SWAP1 POP DUP1 DUP3 PUSH2 0x1F3 SWAP2 SWAP1 PUSH2 0x50E JUMP JUMPDEST SWAP3 POP POP POP SWAP1 JUMP JUMPDEST PUSH1 0x0 PUSH1 0x8 SWAP1 POP PUSH1 0x0 PUSH1 0x4 SWAP1 POP PUSH1 0x0 DUP2 DUP4 PUSH2 0x214 SWAP2 SWAP1 PUSH2 0x337 JUMP JUMPDEST SWAP1 POP POP POP POP JUMP JUMPDEST PUSH1 0x0 DUP2 CALLDATALOAD SWAP1 POP PUSH2 0x22A DUP2 PUSH2 0x6B9 JUMP JUMPDEST SWAP3 SWAP2 POP POP JUMP JUMPDEST PUSH1 0x0 DUP1 PUSH1 0x40 DUP4 DUP6 SUB SLT ISZERO PUSH2 0x243 JUMPI PUSH1 0x0 DUP1 REVERT JUMPDEST PUSH1 0x0 PUSH2 0x251 DUP6 DUP3 DUP7 ADD PUSH2 0x21B JUMP JUMPDEST SWAP3 POP POP PUSH1 0x20 PUSH2 0x262 DUP6 DUP3 DUP7 ADD PUSH2 0x21B JUMP JUMPDEST SWAP2 POP POP SWAP3 POP SWAP3 SWAP1 POP JUMP JUMPDEST PUSH2 0x275 DUP2 PUSH2 0x5A2 JUMP JUMPDEST DUP3 MSTORE POP POP JUMP JUMPDEST PUSH1 0x0 PUSH2 0x286 DUP3 PUSH2 0x31B JUMP JUMPDEST PUSH2 0x290 DUP2 DUP6 PUSH2 0x326 JUMP JUMPDEST SWAP4 POP PUSH2 0x2A0 DUP2 DUP6 PUSH1 0x20 DUP7 ADD PUSH2 0x5B6 JUMP JUMPDEST PUSH2 0x2A9 DUP2 PUSH2 0x6A8 JUMP JUMPDEST DUP5 ADD SWAP2 POP POP SWAP3 SWAP2 POP POP JUMP JUMPDEST PUSH2 0x2BD DUP2 PUSH2 0x5AC JUMP JUMPDEST DUP3 MSTORE POP POP JUMP JUMPDEST PUSH1 0x0 PUSH1 0x20 DUP3 ADD SWAP1 POP PUSH2 0x2D8 PUSH1 0x0 DUP4 ADD DUP5 PUSH2 0x26C JUMP JUMPDEST SWAP3 SWAP2 POP POP JUMP JUMPDEST PUSH1 0x0 PUSH1 0x20 DUP3 ADD SWAP1 POP DUP2 DUP2 SUB PUSH1 0x0 DUP4 ADD MSTORE PUSH2 0x2F8 DUP2 DUP5 PUSH2 0x27B JUMP JUMPDEST SWAP1 POP SWAP3 SWAP2 POP POP JUMP JUMPDEST PUSH1 0x0 PUSH1 0x20 DUP3 ADD SWAP1 POP PUSH2 0x315 PUSH1 0x0 DUP4 ADD DUP5 PUSH2 0x2B4 JUMP JUMPDEST SWAP3 SWAP2 POP POP JUMP JUMPDEST PUSH1 0x0 DUP2 MLOAD SWAP1 POP SWAP2 SWAP1 POP JUMP JUMPDEST PUSH1 0x0 DUP3 DUP3 MSTORE PUSH1 0x20 DUP3 ADD SWAP1 POP SWAP3 SWAP2 POP POP JUMP JUMPDEST PUSH1 0x0 PUSH2 0x342 DUP3 PUSH2 0x5AC JUMP JUMPDEST SWAP2 POP PUSH2 0x34D DUP4 PUSH2 0x5AC JUMP JUMPDEST SWAP3 POP DUP3 PUSH32 0xFFFFFFFFFFFFFFFFFFFFFFFFFFFFFFFFFFFFFFFFFFFFFFFFFFFFFFFFFFFFFFFF SUB DUP3 GT ISZERO PUSH2 0x382 JUMPI PUSH2 0x381 PUSH2 0x61B JUMP JUMPDEST JUMPDEST DUP3 DUP3 ADD SWAP1 POP SWAP3 SWAP2 POP POP JUMP JUMPDEST PUSH1 0x0 PUSH2 0x398 DUP3 PUSH2 0x5A2 JUMP JUMPDEST SWAP2 POP PUSH2 0x3A3 DUP4 PUSH2 0x5A2 JUMP JUMPDEST SWAP3 POP DUP3 PUSH2 0x3B3 JUMPI PUSH2 0x3B2 PUSH2 0x64A JUMP JUMPDEST JUMPDEST PUSH1 0x1 PUSH1 0x0 SUB DUP4 EQ PUSH32 0x8000000000000000000000000000000000000000000000000000000000000000 DUP4 EQ AND ISZERO PUSH2 0x3EC JUMPI PUSH2 0x3EB PUSH2 0x61B JUMP JUMPDEST JUMPDEST DUP3 DUP3 SDIV SWAP1 POP SWAP3 SWAP2 POP POP JUMP JUMPDEST PUSH1 0x0 PUSH2 0x402 DUP3 PUSH2 0x5A2 JUMP JUMPDEST SWAP2 POP PUSH2 0x40D DUP4 PUSH2 0x5A2 JUMP JUMPDEST SWAP3 POP DUP3 PUSH32 0x7FFFFFFFFFFFFFFFFFFFFFFFFFFFFFFFFFFFFFFFFFFFFFFFFFFFFFFFFFFFFFFF DIV DUP3 GT PUSH1 0x0 DUP5 SGT PUSH1 0x0 DUP5 SGT AND AND ISZERO PUSH2 0x44C JUMPI PUSH2 0x44B PUSH2 0x61B JUMP JUMPDEST JUMPDEST DUP2 PUSH32 0x8000000000000000000000000000000000000000000000000000000000000000 SDIV DUP4 SLT PUSH1 0x0 DUP5 SLT PUSH1 0x0 DUP5 SGT AND AND ISZERO PUSH2 0x489 JUMPI PUSH2 0x488 PUSH2 0x61B JUMP JUMPDEST JUMPDEST DUP3 PUSH32 0x8000000000000000000000000000000000000000000000000000000000000000 SDIV DUP3 SLT PUSH1 0x0 DUP5 SGT PUSH1 0x0 DUP5 SLT AND AND ISZERO PUSH2 0x4C6 JUMPI PUSH2 0x4C5 PUSH2 0x61B JUMP JUMPDEST JUMPDEST DUP3 PUSH32 0x7FFFFFFFFFFFFFFFFFFFFFFFFFFFFFFFFFFFFFFFFFFFFFFFFFFFFFFFFFFFFFFF SDIV DUP3 SLT PUSH1 0x0 DUP5 SLT PUSH1 0x0 DUP5 SLT AND AND ISZERO PUSH2 0x503 JUMPI PUSH2 0x502 PUSH2 0x61B JUMP JUMPDEST JUMPDEST DUP3 DUP3 MUL SWAP1 POP SWAP3 SWAP2 POP POP JUMP JUMPDEST PUSH1 0x0 PUSH2 0x519 DUP3 PUSH2 0x5A2 JUMP JUMPDEST SWAP2 POP PUSH2 0x524 DUP4 PUSH2 0x5A2 JUMP JUMPDEST SWAP3 POP DUP3 PUSH32 0x8000000000000000000000000000000000000000000000000000000000000000 ADD DUP3 SLT PUSH1 0x0 DUP5 SLT ISZERO AND ISZERO PUSH2 0x55F JUMPI PUSH2 0x55E PUSH2 0x61B JUMP JUMPDEST JUMPDEST DUP3 PUSH32 0x7FFFFFFFFFFFFFFFFFFFFFFFFFFFFFFFFFFFFFFFFFFFFFFFFFFFFFFFFFFFFFFF ADD DUP3 SGT PUSH1 0x0 DUP5 SLT AND ISZERO PUSH2 0x597 JUMPI PUSH2 0x596 PUSH2 0x61B JUMP JUMPDEST JUMPDEST DUP3 DUP3 SUB SWAP1 POP SWAP3 SWAP2 POP POP JUMP JUMPDEST PUSH1 0x0 DUP2 SWAP1 POP SWAP2 SWAP1 POP JUMP JUMPDEST PUSH1 0x0 DUP2 SWAP1 POP SWAP2 SWAP1 POP JUMP JUMPDEST PUSH1 0x0 JUMPDEST DUP4 DUP2 LT ISZERO PUSH2 0x5D4 JUMPI DUP1 DUP3 ADD MLOAD DUP2 DUP5 ADD MSTORE PUSH1 0x20 DUP2 ADD SWAP1 POP PUSH2 0x5B9 JUMP JUMPDEST DUP4 DUP2 GT ISZERO PUSH2 0x5E3 JUMPI PUSH1 0x0 DUP5 DUP5 ADD MSTORE JUMPDEST POP POP POP POP JUMP JUMPDEST PUSH1 0x0 PUSH1 0x2 DUP3 DIV SWAP1 POP PUSH1 0x1 DUP3 AND DUP1 PUSH2 0x601 JUMPI PUSH1 0x7F DUP3 AND SWAP2 POP JUMPDEST PUSH1 0x20 DUP3 LT DUP2 EQ ISZERO PUSH2 0x615 JUMPI PUSH2 0x614 PUSH2 0x679 JUMP JUMPDEST JUMPDEST POP SWAP2 SWAP1 POP JUMP JUMPDEST PUSH32 0x4E487B7100000000000000000000000000000000000000000000000000000000 PUSH1 0x0 MSTORE PUSH1 0x11 PUSH1 0x4 MSTORE PUSH1 0x24 PUSH1 0x0 REVERT JUMPDEST PUSH32 0x4E487B7100000000000000000000000000000000000000000000000000000000 PUSH1 0x0 MSTORE PUSH1 0x12 PUSH1 0x4 MSTORE PUSH1 0x24 PUSH1 0x0 REVERT JUMPDEST PUSH32 0x4E487B7100000000000000000000000000000000000000000000000000000000 PUSH1 0x0 MSTORE PUSH1 0x22 PUSH1 0x4 MSTORE PUSH1 0x24 PUSH1 0x0 REVERT JUMPDEST PUSH1 0x0 PUSH1 0x1F NOT PUSH1 0x1F DUP4 ADD AND SWAP1 POP SWAP2 SWAP1 POP JUMP JUMPDEST PUSH2 0x6C2 DUP2 PUSH2 0x5A2 JUMP JUMPDEST DUP2 EQ PUSH2 0x6CD JUMPI PUSH1 0x0 DUP1 REVERT JUMPDEST POP JUMP INVALID LOG2 PUSH5 0x6970667358 0x22 SLT KECCAK256 PUSH6 0xB46DCAACE28 PUSH32 0xB51D7F2E85BC76C285A251B75F97F5414ED3EEB453810AA864736F6C63430008 STOP STOP CALLER "
				},
				"gasEstimates": {
					"creation": {
						"codeDepositCost": "359600",
						"executionCost": "infinite",
						"totalCost": "infinite"
					},
					"external": {
						"addition()": "infinite",
						"count()": "1129",
						"division(int256,int256)": "infinite",
						"greet()": "infinite",
						"multiplication()": "infinite",
						"substract()": "infinite"
					}
				},
				"methodIdentifiers": {
					"addition()": "ec597128",
					"count()": "06661abd",
					"division(int256,int256)": "09b7cdda",
					"greet()": "cfae3217",
					"multiplication()": "011285da",
					"substract()": "df09a2da"
				}
			},
			"storageLayout": {
				"storage": [
					{
						"astId": 4,
						"contract": "contracts/newContract.sol:HelloWorld",
						"label": "greet",
						"offset": 0,
						"slot": "0",
						"type": "t_string_storage"
					},
					{
						"astId": 7,
						"contract": "contracts/newContract.sol:HelloWorld",
						"label": "a",
						"offset": 0,
						"slot": "1",
						"type": "t_int256"
					},
					{
						"astId": 10,
						"contract": "contracts/newContract.sol:HelloWorld",
						"label": "b",
						"offset": 0,
						"slot": "2",
						"type": "t_int256"
					},
					{
						"astId": 13,
						"contract": "contracts/newContract.sol:HelloWorld",
						"label": "count",
						"offset": 0,
						"slot": "3",
						"type": "t_uint256"
					}
				],
				"types": {
					"t_int256": {
						"encoding": "inplace",
						"label": "int256",
						"numberOfBytes": "32"
					},
					"t_string_storage": {
						"encoding": "bytes",
						"label": "string",
						"numberOfBytes": "32"
					},
					"t_uint256": {
						"encoding": "inplace",
						"label": "uint256",
						"numberOfBytes": "32"
					}
				}
			},
			"userdoc": {
				"kind": "user",
				"methods": {},
				"version": 1
			}
		}
	}
}