{
	"contracts/OOPs/Inheritence.sol": {
		"OhterCalc": {
			"abi": [
				{
					"inputs": [
						{
							"internalType": "uint256",
							"name": "a",
							"type": "uint256"
						},
						{
							"internalType": "uint256",
							"name": "b",
							"type": "uint256"
						}
					],
					"name": "add",
					"outputs": [
						{
							"internalType": "uint256",
							"name": "",
							"type": "uint256"
						}
					],
					"stateMutability": "pure",
					"type": "function"
				},
				{
					"inputs": [
						{
							"internalType": "uint256",
							"name": "a",
							"type": "uint256"
						},
						{
							"internalType": "uint256",
							"name": "b",
							"type": "uint256"
						}
					],
					"name": "div",
					"outputs": [
						{
							"internalType": "uint256",
							"name": "",
							"type": "uint256"
						}
					],
					"stateMutability": "pure",
					"type": "function"
				},
				{
					"inputs": [
						{
							"internalType": "uint256",
							"name": "_a",
							"type": "uint256"
						}
					],
					"name": "isEven",
					"outputs": [
						{
							"internalType": "bool",
							"name": "",
							"type": "bool"
						}
					],
					"stateMutability": "pure",
					"type": "function"
				},
				{
					"inputs": [],
					"name": "manager",
					"outputs": [
						{
							"internalType": "address",
							"name": "",
							"type": "address"
						}
					],
					"stateMutability": "view",
					"type": "function"
				},
				{
					"inputs": [
						{
							"internalType": "uint256",
							"name": "a",
							"type": "uint256"
						},
						{
							"internalType": "uint256",
							"name": "b",
							"type": "uint256"
						}
					],
					"name": "mul",
					"outputs": [
						{
							"internalType": "uint256",
							"name": "",
							"type": "uint256"
						}
					],
					"stateMutability": "pure",
					"type": "function"
				}
			],
			"devdoc": {
				"kind": "dev",
				"methods": {},
				"version": 1
			},
			"evm": {
				"assembly": "    /* \"contracts/OOPs/Inheritence.sol\":173:478  contract OhterCalc is Calculator {... */\n  mstore(0x40, 0x80)\n  callvalue\n  dup1\n  iszero\n  tag_1\n  jumpi\n  0x00\n  dup1\n  revert\ntag_1:\n  pop\n    /* \"contracts/OOPs/Calculator.sol\":152:162  msg.sender */\n  caller\n    /* \"contracts/OOPs/Calculator.sol\":142:149  manager */\n  0x00\n  dup1\n    /* \"contracts/OOPs/Calculator.sol\":142:162  manager = msg.sender */\n  0x0100\n  exp\n  dup2\n  sload\n  dup2\n  0xffffffffffffffffffffffffffffffffffffffff\n  mul\n  not\n  and\n  swap1\n  dup4\n  0xffffffffffffffffffffffffffffffffffffffff\n  and\n  mul\n  or\n  swap1\n  sstore\n  pop\n    /* \"contracts/OOPs/Inheritence.sol\":173:478  contract OhterCalc is Calculator {... */\n  dataSize(sub_0)\n  dup1\n  dataOffset(sub_0)\n  0x00\n  codecopy\n  0x00\n  return\nstop\n\nsub_0: assembly {\n        /* \"contracts/OOPs/Inheritence.sol\":173:478  contract OhterCalc is Calculator {... */\n      mstore(0x40, 0x80)\n      callvalue\n      dup1\n      iszero\n      tag_1\n      jumpi\n      0x00\n      dup1\n      revert\n    tag_1:\n      pop\n      jumpi(tag_2, lt(calldatasize, 0x04))\n      shr(0xe0, calldataload(0x00))\n      dup1\n      0x2a2e1320\n      eq\n      tag_3\n      jumpi\n      dup1\n      0x481c6a75\n      eq\n      tag_4\n      jumpi\n      dup1\n      0x771602f7\n      eq\n      tag_5\n      jumpi\n      dup1\n      0xa391c15b\n      eq\n      tag_6\n      jumpi\n      dup1\n      0xc8a4ac9c\n      eq\n      tag_7\n      jumpi\n    tag_2:\n      0x00\n      dup1\n      revert\n        /* \"contracts/OOPs/Inheritence.sol\":307:469  function isEven(uint _a) public pure returns(bool) {... */\n    tag_3:\n      tag_8\n      0x04\n      dup1\n      calldatasize\n      sub\n      dup2\n      add\n      swap1\n      tag_9\n      swap2\n      swap1\n      tag_10\n      jump\t// in\n    tag_9:\n      tag_11\n      jump\t// in\n    tag_8:\n      mload(0x40)\n      tag_12\n      swap2\n      swap1\n      tag_13\n      jump\t// in\n    tag_12:\n      mload(0x40)\n      dup1\n      swap2\n      sub\n      swap1\n      return\n        /* \"contracts/OOPs/Calculator.sol\":94:116  address public manager */\n    tag_4:\n      tag_14\n      tag_15\n      jump\t// in\n    tag_14:\n      mload(0x40)\n      tag_16\n      swap2\n      swap1\n      tag_17\n      jump\t// in\n    tag_16:\n      mload(0x40)\n      dup1\n      swap2\n      sub\n      swap1\n      return\n        /* \"contracts/OOPs/Calculator.sol\":182:263  function add(uint a, uint b) public pure  returns (uint) {... */\n    tag_5:\n      tag_18\n      0x04\n      dup1\n      calldatasize\n      sub\n      dup2\n      add\n      swap1\n      tag_19\n      swap2\n      swap1\n      tag_20\n      jump\t// in\n    tag_19:\n      tag_21\n      jump\t// in\n    tag_18:\n      mload(0x40)\n      tag_22\n      swap2\n      swap1\n      tag_23\n      jump\t// in\n    tag_22:\n      mload(0x40)\n      dup1\n      swap2\n      sub\n      swap1\n      return\n        /* \"contracts/OOPs/Calculator.sol\":267:350  function div(uint a, uint b) public   pure  returns (uint) {... */\n    tag_6:\n      tag_24\n      0x04\n      dup1\n      calldatasize\n      sub\n      dup2\n      add\n      swap1\n      tag_25\n      swap2\n      swap1\n      tag_20\n      jump\t// in\n    tag_25:\n      tag_26\n      jump\t// in\n    tag_24:\n      mload(0x40)\n      tag_27\n      swap2\n      swap1\n      tag_23\n      jump\t// in\n    tag_27:\n      mload(0x40)\n      dup1\n      swap2\n      sub\n      swap1\n      return\n        /* \"contracts/OOPs/Calculator.sol\":354:436  function mul(uint a, uint b) public  pure  returns (uint) {... */\n    tag_7:\n      tag_28\n      0x04\n      dup1\n      calldatasize\n      sub\n      dup2\n      add\n      swap1\n      tag_29\n      swap2\n      swap1\n      tag_20\n      jump\t// in\n    tag_29:\n      tag_30\n      jump\t// in\n    tag_28:\n      mload(0x40)\n      tag_31\n      swap2\n      swap1\n      tag_23\n      jump\t// in\n    tag_31:\n      mload(0x40)\n      dup1\n      swap2\n      sub\n      swap1\n      return\n        /* \"contracts/OOPs/Inheritence.sol\":307:469  function isEven(uint _a) public pure returns(bool) {... */\n    tag_11:\n        /* \"contracts/OOPs/Inheritence.sol\":352:356  bool */\n      0x00\n        /* \"contracts/OOPs/Inheritence.sol\":378:379  0 */\n      dup1\n        /* \"contracts/OOPs/Inheritence.sol\":375:376  2 */\n      0x02\n        /* \"contracts/OOPs/Inheritence.sol\":372:374  _a */\n      dup4\n        /* \"contracts/OOPs/Inheritence.sol\":372:376  _a%2 */\n      tag_33\n      swap2\n      swap1\n      tag_34\n      jump\t// in\n    tag_33:\n        /* \"contracts/OOPs/Inheritence.sol\":372:379  _a%2==0 */\n      sub\n        /* \"contracts/OOPs/Inheritence.sol\":369:462  if(_a%2==0){... */\n      tag_35\n      jumpi\n        /* \"contracts/OOPs/Inheritence.sol\":403:407  true */\n      0x01\n        /* \"contracts/OOPs/Inheritence.sol\":395:407  return  true */\n      swap1\n      pop\n      jump(tag_32)\n        /* \"contracts/OOPs/Inheritence.sol\":369:462  if(_a%2==0){... */\n    tag_35:\n        /* \"contracts/OOPs/Inheritence.sol\":445:450  false */\n      0x00\n        /* \"contracts/OOPs/Inheritence.sol\":438:450  return false */\n      swap1\n      pop\n        /* \"contracts/OOPs/Inheritence.sol\":307:469  function isEven(uint _a) public pure returns(bool) {... */\n    tag_32:\n      swap2\n      swap1\n      pop\n      jump\t// out\n        /* \"contracts/OOPs/Calculator.sol\":94:116  address public manager */\n    tag_15:\n      0x00\n      dup1\n      sload\n      swap1\n      0x0100\n      exp\n      swap1\n      div\n      0xffffffffffffffffffffffffffffffffffffffff\n      and\n      dup2\n      jump\t// out\n        /* \"contracts/OOPs/Calculator.sol\":182:263  function add(uint a, uint b) public pure  returns (uint) {... */\n    tag_21:\n        /* \"contracts/OOPs/Calculator.sol\":233:237  uint */\n      0x00\n        /* \"contracts/OOPs/Calculator.sol\":256:257  b */\n      dup2\n        /* \"contracts/OOPs/Calculator.sol\":253:254  a */\n      dup4\n        /* \"contracts/OOPs/Calculator.sol\":253:257  a +b */\n      tag_38\n      swap2\n      swap1\n      tag_39\n      jump\t// in\n    tag_38:\n        /* \"contracts/OOPs/Calculator.sol\":245:257  return  a +b */\n      swap1\n      pop\n        /* \"contracts/OOPs/Calculator.sol\":182:263  function add(uint a, uint b) public pure  returns (uint) {... */\n      swap3\n      swap2\n      pop\n      pop\n      jump\t// out\n        /* \"contracts/OOPs/Calculator.sol\":267:350  function div(uint a, uint b) public   pure  returns (uint) {... */\n    tag_26:\n        /* \"contracts/OOPs/Calculator.sol\":320:324  uint */\n      0x00\n        /* \"contracts/OOPs/Calculator.sol\":343:344  b */\n      dup2\n        /* \"contracts/OOPs/Calculator.sol\":339:340  a */\n      dup4\n        /* \"contracts/OOPs/Calculator.sol\":339:344  a - b */\n      tag_41\n      swap2\n      swap1\n      tag_42\n      jump\t// in\n    tag_41:\n        /* \"contracts/OOPs/Calculator.sol\":332:344  return a - b */\n      swap1\n      pop\n        /* \"contracts/OOPs/Calculator.sol\":267:350  function div(uint a, uint b) public   pure  returns (uint) {... */\n      swap3\n      swap2\n      pop\n      pop\n      jump\t// out\n        /* \"contracts/OOPs/Calculator.sol\":354:436  function mul(uint a, uint b) public  pure  returns (uint) {... */\n    tag_30:\n        /* \"contracts/OOPs/Calculator.sol\":406:410  uint */\n      0x00\n        /* \"contracts/OOPs/Calculator.sol\":429:430  b */\n      dup2\n        /* \"contracts/OOPs/Calculator.sol\":425:426  a */\n      dup4\n        /* \"contracts/OOPs/Calculator.sol\":425:430  a * b */\n      tag_44\n      swap2\n      swap1\n      tag_45\n      jump\t// in\n    tag_44:\n        /* \"contracts/OOPs/Calculator.sol\":418:430  return a * b */\n      swap1\n      pop\n        /* \"contracts/OOPs/Calculator.sol\":354:436  function mul(uint a, uint b) public  pure  returns (uint) {... */\n      swap3\n      swap2\n      pop\n      pop\n      jump\t// out\n        /* \"#utility.yul\":88:205   */\n    tag_47:\n        /* \"#utility.yul\":197:198   */\n      0x00\n        /* \"#utility.yul\":194:195   */\n      dup1\n        /* \"#utility.yul\":187:199   */\n      revert\n        /* \"#utility.yul\":334:411   */\n    tag_49:\n        /* \"#utility.yul\":371:378   */\n      0x00\n        /* \"#utility.yul\":400:405   */\n      dup2\n        /* \"#utility.yul\":389:405   */\n      swap1\n      pop\n        /* \"#utility.yul\":334:411   */\n      swap2\n      swap1\n      pop\n      jump\t// out\n        /* \"#utility.yul\":417:539   */\n    tag_50:\n        /* \"#utility.yul\":490:514   */\n      tag_66\n        /* \"#utility.yul\":508:513   */\n      dup2\n        /* \"#utility.yul\":490:514   */\n      tag_49\n      jump\t// in\n    tag_66:\n        /* \"#utility.yul\":483:488   */\n      dup2\n        /* \"#utility.yul\":480:515   */\n      eq\n        /* \"#utility.yul\":470:533   */\n      tag_67\n      jumpi\n        /* \"#utility.yul\":529:530   */\n      0x00\n        /* \"#utility.yul\":526:527   */\n      dup1\n        /* \"#utility.yul\":519:531   */\n      revert\n        /* \"#utility.yul\":470:533   */\n    tag_67:\n        /* \"#utility.yul\":417:539   */\n      pop\n      jump\t// out\n        /* \"#utility.yul\":545:684   */\n    tag_51:\n        /* \"#utility.yul\":591:596   */\n      0x00\n        /* \"#utility.yul\":629:635   */\n      dup2\n        /* \"#utility.yul\":616:636   */\n      calldataload\n        /* \"#utility.yul\":607:636   */\n      swap1\n      pop\n        /* \"#utility.yul\":645:678   */\n      tag_69\n        /* \"#utility.yul\":672:677   */\n      dup2\n        /* \"#utility.yul\":645:678   */\n      tag_50\n      jump\t// in\n    tag_69:\n        /* \"#utility.yul\":545:684   */\n      swap3\n      swap2\n      pop\n      pop\n      jump\t// out\n        /* \"#utility.yul\":690:1019   */\n    tag_10:\n        /* \"#utility.yul\":749:755   */\n      0x00\n        /* \"#utility.yul\":798:800   */\n      0x20\n        /* \"#utility.yul\":786:795   */\n      dup3\n        /* \"#utility.yul\":777:784   */\n      dup5\n        /* \"#utility.yul\":773:796   */\n      sub\n        /* \"#utility.yul\":769:801   */\n      slt\n        /* \"#utility.yul\":766:885   */\n      iszero\n      tag_71\n      jumpi\n        /* \"#utility.yul\":804:883   */\n      tag_72\n      tag_47\n      jump\t// in\n    tag_72:\n        /* \"#utility.yul\":766:885   */\n    tag_71:\n        /* \"#utility.yul\":924:925   */\n      0x00\n        /* \"#utility.yul\":949:1002   */\n      tag_73\n        /* \"#utility.yul\":994:1001   */\n      dup5\n        /* \"#utility.yul\":985:991   */\n      dup3\n        /* \"#utility.yul\":974:983   */\n      dup6\n        /* \"#utility.yul\":970:992   */\n      add\n        /* \"#utility.yul\":949:1002   */\n      tag_51\n      jump\t// in\n    tag_73:\n        /* \"#utility.yul\":939:1002   */\n      swap2\n      pop\n        /* \"#utility.yul\":895:1012   */\n      pop\n        /* \"#utility.yul\":690:1019   */\n      swap3\n      swap2\n      pop\n      pop\n      jump\t// out\n        /* \"#utility.yul\":1025:1115   */\n    tag_52:\n        /* \"#utility.yul\":1059:1066   */\n      0x00\n        /* \"#utility.yul\":1102:1107   */\n      dup2\n        /* \"#utility.yul\":1095:1108   */\n      iszero\n        /* \"#utility.yul\":1088:1109   */\n      iszero\n        /* \"#utility.yul\":1077:1109   */\n      swap1\n      pop\n        /* \"#utility.yul\":1025:1115   */\n      swap2\n      swap1\n      pop\n      jump\t// out\n        /* \"#utility.yul\":1121:1230   */\n    tag_53:\n        /* \"#utility.yul\":1202:1223   */\n      tag_76\n        /* \"#utility.yul\":1217:1222   */\n      dup2\n        /* \"#utility.yul\":1202:1223   */\n      tag_52\n      jump\t// in\n    tag_76:\n        /* \"#utility.yul\":1197:1200   */\n      dup3\n        /* \"#utility.yul\":1190:1224   */\n      mstore\n        /* \"#utility.yul\":1121:1230   */\n      pop\n      pop\n      jump\t// out\n        /* \"#utility.yul\":1236:1446   */\n    tag_13:\n        /* \"#utility.yul\":1323:1327   */\n      0x00\n        /* \"#utility.yul\":1361:1363   */\n      0x20\n        /* \"#utility.yul\":1350:1359   */\n      dup3\n        /* \"#utility.yul\":1346:1364   */\n      add\n        /* \"#utility.yul\":1338:1364   */\n      swap1\n      pop\n        /* \"#utility.yul\":1374:1439   */\n      tag_78\n        /* \"#utility.yul\":1436:1437   */\n      0x00\n        /* \"#utility.yul\":1425:1434   */\n      dup4\n        /* \"#utility.yul\":1421:1438   */\n      add\n        /* \"#utility.yul\":1412:1418   */\n      dup5\n        /* \"#utility.yul\":1374:1439   */\n      tag_53\n      jump\t// in\n    tag_78:\n        /* \"#utility.yul\":1236:1446   */\n      swap3\n      swap2\n      pop\n      pop\n      jump\t// out\n        /* \"#utility.yul\":1452:1578   */\n    tag_54:\n        /* \"#utility.yul\":1489:1496   */\n      0x00\n        /* \"#utility.yul\":1529:1571   */\n      0xffffffffffffffffffffffffffffffffffffffff\n        /* \"#utility.yul\":1522:1527   */\n      dup3\n        /* \"#utility.yul\":1518:1572   */\n      and\n        /* \"#utility.yul\":1507:1572   */\n      swap1\n      pop\n        /* \"#utility.yul\":1452:1578   */\n      swap2\n      swap1\n      pop\n      jump\t// out\n        /* \"#utility.yul\":1584:1680   */\n    tag_55:\n        /* \"#utility.yul\":1621:1628   */\n      0x00\n        /* \"#utility.yul\":1650:1674   */\n      tag_81\n        /* \"#utility.yul\":1668:1673   */\n      dup3\n        /* \"#utility.yul\":1650:1674   */\n      tag_54\n      jump\t// in\n    tag_81:\n        /* \"#utility.yul\":1639:1674   */\n      swap1\n      pop\n        /* \"#utility.yul\":1584:1680   */\n      swap2\n      swap1\n      pop\n      jump\t// out\n        /* \"#utility.yul\":1686:1804   */\n    tag_56:\n        /* \"#utility.yul\":1773:1797   */\n      tag_83\n        /* \"#utility.yul\":1791:1796   */\n      dup2\n        /* \"#utility.yul\":1773:1797   */\n      tag_55\n      jump\t// in\n    tag_83:\n        /* \"#utility.yul\":1768:1771   */\n      dup3\n        /* \"#utility.yul\":1761:1798   */\n      mstore\n        /* \"#utility.yul\":1686:1804   */\n      pop\n      pop\n      jump\t// out\n        /* \"#utility.yul\":1810:2032   */\n    tag_17:\n        /* \"#utility.yul\":1903:1907   */\n      0x00\n        /* \"#utility.yul\":1941:1943   */\n      0x20\n        /* \"#utility.yul\":1930:1939   */\n      dup3\n        /* \"#utility.yul\":1926:1944   */\n      add\n        /* \"#utility.yul\":1918:1944   */\n      swap1\n      pop\n        /* \"#utility.yul\":1954:2025   */\n      tag_85\n        /* \"#utility.yul\":2022:2023   */\n      0x00\n        /* \"#utility.yul\":2011:2020   */\n      dup4\n        /* \"#utility.yul\":2007:2024   */\n      add\n        /* \"#utility.yul\":1998:2004   */\n      dup5\n        /* \"#utility.yul\":1954:2025   */\n      tag_56\n      jump\t// in\n    tag_85:\n        /* \"#utility.yul\":1810:2032   */\n      swap3\n      swap2\n      pop\n      pop\n      jump\t// out\n        /* \"#utility.yul\":2038:2512   */\n    tag_20:\n        /* \"#utility.yul\":2106:2112   */\n      0x00\n        /* \"#utility.yul\":2114:2120   */\n      dup1\n        /* \"#utility.yul\":2163:2165   */\n      0x40\n        /* \"#utility.yul\":2151:2160   */\n      dup4\n        /* \"#utility.yul\":2142:2149   */\n      dup6\n        /* \"#utility.yul\":2138:2161   */\n      sub\n        /* \"#utility.yul\":2134:2166   */\n      slt\n        /* \"#utility.yul\":2131:2250   */\n      iszero\n      tag_87\n      jumpi\n        /* \"#utility.yul\":2169:2248   */\n      tag_88\n      tag_47\n      jump\t// in\n    tag_88:\n        /* \"#utility.yul\":2131:2250   */\n    tag_87:\n        /* \"#utility.yul\":2289:2290   */\n      0x00\n        /* \"#utility.yul\":2314:2367   */\n      tag_89\n        /* \"#utility.yul\":2359:2366   */\n      dup6\n        /* \"#utility.yul\":2350:2356   */\n      dup3\n        /* \"#utility.yul\":2339:2348   */\n      dup7\n        /* \"#utility.yul\":2335:2357   */\n      add\n        /* \"#utility.yul\":2314:2367   */\n      tag_51\n      jump\t// in\n    tag_89:\n        /* \"#utility.yul\":2304:2367   */\n      swap3\n      pop\n        /* \"#utility.yul\":2260:2377   */\n      pop\n        /* \"#utility.yul\":2416:2418   */\n      0x20\n        /* \"#utility.yul\":2442:2495   */\n      tag_90\n        /* \"#utility.yul\":2487:2494   */\n      dup6\n        /* \"#utility.yul\":2478:2484   */\n      dup3\n        /* \"#utility.yul\":2467:2476   */\n      dup7\n        /* \"#utility.yul\":2463:2485   */\n      add\n        /* \"#utility.yul\":2442:2495   */\n      tag_51\n      jump\t// in\n    tag_90:\n        /* \"#utility.yul\":2432:2495   */\n      swap2\n      pop\n        /* \"#utility.yul\":2387:2505   */\n      pop\n        /* \"#utility.yul\":2038:2512   */\n      swap3\n      pop\n      swap3\n      swap1\n      pop\n      jump\t// out\n        /* \"#utility.yul\":2518:2636   */\n    tag_57:\n        /* \"#utility.yul\":2605:2629   */\n      tag_92\n        /* \"#utility.yul\":2623:2628   */\n      dup2\n        /* \"#utility.yul\":2605:2629   */\n      tag_49\n      jump\t// in\n    tag_92:\n        /* \"#utility.yul\":2600:2603   */\n      dup3\n        /* \"#utility.yul\":2593:2630   */\n      mstore\n        /* \"#utility.yul\":2518:2636   */\n      pop\n      pop\n      jump\t// out\n        /* \"#utility.yul\":2642:2864   */\n    tag_23:\n        /* \"#utility.yul\":2735:2739   */\n      0x00\n        /* \"#utility.yul\":2773:2775   */\n      0x20\n        /* \"#utility.yul\":2762:2771   */\n      dup3\n        /* \"#utility.yul\":2758:2776   */\n      add\n        /* \"#utility.yul\":2750:2776   */\n      swap1\n      pop\n        /* \"#utility.yul\":2786:2857   */\n      tag_94\n        /* \"#utility.yul\":2854:2855   */\n      0x00\n        /* \"#utility.yul\":2843:2852   */\n      dup4\n        /* \"#utility.yul\":2839:2856   */\n      add\n        /* \"#utility.yul\":2830:2836   */\n      dup5\n        /* \"#utility.yul\":2786:2857   */\n      tag_57\n      jump\t// in\n    tag_94:\n        /* \"#utility.yul\":2642:2864   */\n      swap3\n      swap2\n      pop\n      pop\n      jump\t// out\n        /* \"#utility.yul\":2870:3050   */\n    tag_58:\n        /* \"#utility.yul\":2918:2995   */\n      0x4e487b7100000000000000000000000000000000000000000000000000000000\n        /* \"#utility.yul\":2915:2916   */\n      0x00\n        /* \"#utility.yul\":2908:2996   */\n      mstore\n        /* \"#utility.yul\":3015:3019   */\n      0x12\n        /* \"#utility.yul\":3012:3013   */\n      0x04\n        /* \"#utility.yul\":3005:3020   */\n      mstore\n        /* \"#utility.yul\":3039:3043   */\n      0x24\n        /* \"#utility.yul\":3036:3037   */\n      0x00\n        /* \"#utility.yul\":3029:3044   */\n      revert\n        /* \"#utility.yul\":3056:3232   */\n    tag_34:\n        /* \"#utility.yul\":3088:3089   */\n      0x00\n        /* \"#utility.yul\":3105:3125   */\n      tag_97\n        /* \"#utility.yul\":3123:3124   */\n      dup3\n        /* \"#utility.yul\":3105:3125   */\n      tag_49\n      jump\t// in\n    tag_97:\n        /* \"#utility.yul\":3100:3125   */\n      swap2\n      pop\n        /* \"#utility.yul\":3139:3159   */\n      tag_98\n        /* \"#utility.yul\":3157:3158   */\n      dup4\n        /* \"#utility.yul\":3139:3159   */\n      tag_49\n      jump\t// in\n    tag_98:\n        /* \"#utility.yul\":3134:3159   */\n      swap3\n      pop\n        /* \"#utility.yul\":3178:3179   */\n      dup3\n        /* \"#utility.yul\":3168:3203   */\n      tag_99\n      jumpi\n        /* \"#utility.yul\":3183:3201   */\n      tag_100\n      tag_58\n      jump\t// in\n    tag_100:\n        /* \"#utility.yul\":3168:3203   */\n    tag_99:\n        /* \"#utility.yul\":3224:3225   */\n      dup3\n        /* \"#utility.yul\":3221:3222   */\n      dup3\n        /* \"#utility.yul\":3217:3226   */\n      mod\n        /* \"#utility.yul\":3212:3226   */\n      swap1\n      pop\n        /* \"#utility.yul\":3056:3232   */\n      swap3\n      swap2\n      pop\n      pop\n      jump\t// out\n        /* \"#utility.yul\":3238:3418   */\n    tag_59:\n        /* \"#utility.yul\":3286:3363   */\n      0x4e487b7100000000000000000000000000000000000000000000000000000000\n        /* \"#utility.yul\":3283:3284   */\n      0x00\n        /* \"#utility.yul\":3276:3364   */\n      mstore\n        /* \"#utility.yul\":3383:3387   */\n      0x11\n        /* \"#utility.yul\":3380:3381   */\n      0x04\n        /* \"#utility.yul\":3373:3388   */\n      mstore\n        /* \"#utility.yul\":3407:3411   */\n      0x24\n        /* \"#utility.yul\":3404:3405   */\n      0x00\n        /* \"#utility.yul\":3397:3412   */\n      revert\n        /* \"#utility.yul\":3424:3615   */\n    tag_39:\n        /* \"#utility.yul\":3464:3467   */\n      0x00\n        /* \"#utility.yul\":3483:3503   */\n      tag_103\n        /* \"#utility.yul\":3501:3502   */\n      dup3\n        /* \"#utility.yul\":3483:3503   */\n      tag_49\n      jump\t// in\n    tag_103:\n        /* \"#utility.yul\":3478:3503   */\n      swap2\n      pop\n        /* \"#utility.yul\":3517:3537   */\n      tag_104\n        /* \"#utility.yul\":3535:3536   */\n      dup4\n        /* \"#utility.yul\":3517:3537   */\n      tag_49\n      jump\t// in\n    tag_104:\n        /* \"#utility.yul\":3512:3537   */\n      swap3\n      pop\n        /* \"#utility.yul\":3560:3561   */\n      dup3\n        /* \"#utility.yul\":3557:3558   */\n      dup3\n        /* \"#utility.yul\":3553:3562   */\n      add\n        /* \"#utility.yul\":3546:3562   */\n      swap1\n      pop\n        /* \"#utility.yul\":3581:3584   */\n      dup1\n        /* \"#utility.yul\":3578:3579   */\n      dup3\n        /* \"#utility.yul\":3575:3585   */\n      gt\n        /* \"#utility.yul\":3572:3608   */\n      iszero\n      tag_105\n      jumpi\n        /* \"#utility.yul\":3588:3606   */\n      tag_106\n      tag_59\n      jump\t// in\n    tag_106:\n        /* \"#utility.yul\":3572:3608   */\n    tag_105:\n        /* \"#utility.yul\":3424:3615   */\n      swap3\n      swap2\n      pop\n      pop\n      jump\t// out\n        /* \"#utility.yul\":3621:3815   */\n    tag_42:\n        /* \"#utility.yul\":3661:3665   */\n      0x00\n        /* \"#utility.yul\":3681:3701   */\n      tag_108\n        /* \"#utility.yul\":3699:3700   */\n      dup3\n        /* \"#utility.yul\":3681:3701   */\n      tag_49\n      jump\t// in\n    tag_108:\n        /* \"#utility.yul\":3676:3701   */\n      swap2\n      pop\n        /* \"#utility.yul\":3715:3735   */\n      tag_109\n        /* \"#utility.yul\":3733:3734   */\n      dup4\n        /* \"#utility.yul\":3715:3735   */\n      tag_49\n      jump\t// in\n    tag_109:\n        /* \"#utility.yul\":3710:3735   */\n      swap3\n      pop\n        /* \"#utility.yul\":3759:3760   */\n      dup3\n        /* \"#utility.yul\":3756:3757   */\n      dup3\n        /* \"#utility.yul\":3752:3761   */\n      sub\n        /* \"#utility.yul\":3744:3761   */\n      swap1\n      pop\n        /* \"#utility.yul\":3783:3784   */\n      dup2\n        /* \"#utility.yul\":3777:3781   */\n      dup2\n        /* \"#utility.yul\":3774:3785   */\n      gt\n        /* \"#utility.yul\":3771:3808   */\n      iszero\n      tag_110\n      jumpi\n        /* \"#utility.yul\":3788:3806   */\n      tag_111\n      tag_59\n      jump\t// in\n    tag_111:\n        /* \"#utility.yul\":3771:3808   */\n    tag_110:\n        /* \"#utility.yul\":3621:3815   */\n      swap3\n      swap2\n      pop\n      pop\n      jump\t// out\n        /* \"#utility.yul\":3821:4231   */\n    tag_45:\n        /* \"#utility.yul\":3861:3868   */\n      0x00\n        /* \"#utility.yul\":3884:3904   */\n      tag_113\n        /* \"#utility.yul\":3902:3903   */\n      dup3\n        /* \"#utility.yul\":3884:3904   */\n      tag_49\n      jump\t// in\n    tag_113:\n        /* \"#utility.yul\":3879:3904   */\n      swap2\n      pop\n        /* \"#utility.yul\":3918:3938   */\n      tag_114\n        /* \"#utility.yul\":3936:3937   */\n      dup4\n        /* \"#utility.yul\":3918:3938   */\n      tag_49\n      jump\t// in\n    tag_114:\n        /* \"#utility.yul\":3913:3938   */\n      swap3\n      pop\n        /* \"#utility.yul\":3973:3974   */\n      dup3\n        /* \"#utility.yul\":3970:3971   */\n      dup3\n        /* \"#utility.yul\":3966:3975   */\n      mul\n        /* \"#utility.yul\":3995:4025   */\n      tag_115\n        /* \"#utility.yul\":4013:4024   */\n      dup2\n        /* \"#utility.yul\":3995:4025   */\n      tag_49\n      jump\t// in\n    tag_115:\n        /* \"#utility.yul\":3984:4025   */\n      swap2\n      pop\n        /* \"#utility.yul\":4174:4175   */\n      dup3\n        /* \"#utility.yul\":4165:4172   */\n      dup3\n        /* \"#utility.yul\":4161:4176   */\n      div\n        /* \"#utility.yul\":4158:4159   */\n      dup5\n        /* \"#utility.yul\":4155:4177   */\n      eq\n        /* \"#utility.yul\":4135:4136   */\n      dup4\n        /* \"#utility.yul\":4128:4137   */\n      iszero\n        /* \"#utility.yul\":4108:4191   */\n      or\n        /* \"#utility.yul\":4085:4224   */\n      tag_116\n      jumpi\n        /* \"#utility.yul\":4204:4222   */\n      tag_117\n      tag_59\n      jump\t// in\n    tag_117:\n        /* \"#utility.yul\":4085:4224   */\n    tag_116:\n        /* \"#utility.yul\":3869:4231   */\n      pop\n        /* \"#utility.yul\":3821:4231   */\n      swap3\n      swap2\n      pop\n      pop\n      jump\t// out\n\n    auxdata: 0xa264697066735822122086cb602601c01873ec09865adc028a536538a922515abeab558360abb4e7348a64736f6c634300081a0033\n}\n",
				"bytecode": {
					"linkReferences": {},
					"object": "6080604052348015600e575f80fd5b50335f806101000a81548173ffffffffffffffffffffffffffffffffffffffff021916908373ffffffffffffffffffffffffffffffffffffffff1602179055506104798061005b5f395ff3fe608060405234801561000f575f80fd5b5060043610610055575f3560e01c80632a2e132014610059578063481c6a7514610089578063771602f7146100a7578063a391c15b146100d7578063c8a4ac9c14610107575b5f80fd5b610073600480360381019061006e91906101f6565b610137565b604051610080919061023b565b60405180910390f35b61009161015d565b60405161009e9190610293565b60405180910390f35b6100c160048036038101906100bc91906102ac565b610180565b6040516100ce91906102f9565b60405180910390f35b6100f160048036038101906100ec91906102ac565b610195565b6040516100fe91906102f9565b60405180910390f35b610121600480360381019061011c91906102ac565b6101aa565b60405161012e91906102f9565b60405180910390f35b5f80600283610146919061033f565b036101545760019050610158565b5f90505b919050565b5f8054906101000a900473ffffffffffffffffffffffffffffffffffffffff1681565b5f818361018d919061039c565b905092915050565b5f81836101a291906103cf565b905092915050565b5f81836101b79190610402565b905092915050565b5f80fd5b5f819050919050565b6101d5816101c3565b81146101df575f80fd5b50565b5f813590506101f0816101cc565b92915050565b5f6020828403121561020b5761020a6101bf565b5b5f610218848285016101e2565b91505092915050565b5f8115159050919050565b61023581610221565b82525050565b5f60208201905061024e5f83018461022c565b92915050565b5f73ffffffffffffffffffffffffffffffffffffffff82169050919050565b5f61027d82610254565b9050919050565b61028d81610273565b82525050565b5f6020820190506102a65f830184610284565b92915050565b5f80604083850312156102c2576102c16101bf565b5b5f6102cf858286016101e2565b92505060206102e0858286016101e2565b9150509250929050565b6102f3816101c3565b82525050565b5f60208201905061030c5f8301846102ea565b92915050565b7f4e487b71000000000000000000000000000000000000000000000000000000005f52601260045260245ffd5b5f610349826101c3565b9150610354836101c3565b92508261036457610363610312565b5b828206905092915050565b7f4e487b71000000000000000000000000000000000000000000000000000000005f52601160045260245ffd5b5f6103a6826101c3565b91506103b1836101c3565b92508282019050808211156103c9576103c861036f565b5b92915050565b5f6103d9826101c3565b91506103e4836101c3565b92508282039050818111156103fc576103fb61036f565b5b92915050565b5f61040c826101c3565b9150610417836101c3565b9250828202610425816101c3565b9150828204841483151761043c5761043b61036f565b5b509291505056fea264697066735822122086cb602601c01873ec09865adc028a536538a922515abeab558360abb4e7348a64736f6c634300081a0033",
					"opcodes": "PUSH1 0x80 PUSH1 0x40 MSTORE CALLVALUE DUP1 ISZERO PUSH1 0xE JUMPI PUSH0 DUP1 REVERT JUMPDEST POP CALLER PUSH0 DUP1 PUSH2 0x100 EXP DUP2 SLOAD DUP2 PUSH20 0xFFFFFFFFFFFFFFFFFFFFFFFFFFFFFFFFFFFFFFFF MUL NOT AND SWAP1 DUP4 PUSH20 0xFFFFFFFFFFFFFFFFFFFFFFFFFFFFFFFFFFFFFFFF AND MUL OR SWAP1 SSTORE POP PUSH2 0x479 DUP1 PUSH2 0x5B PUSH0 CODECOPY PUSH0 RETURN INVALID PUSH1 0x80 PUSH1 0x40 MSTORE CALLVALUE DUP1 ISZERO PUSH2 0xF JUMPI PUSH0 DUP1 REVERT JUMPDEST POP PUSH1 0x4 CALLDATASIZE LT PUSH2 0x55 JUMPI PUSH0 CALLDATALOAD PUSH1 0xE0 SHR DUP1 PUSH4 0x2A2E1320 EQ PUSH2 0x59 JUMPI DUP1 PUSH4 0x481C6A75 EQ PUSH2 0x89 JUMPI DUP1 PUSH4 0x771602F7 EQ PUSH2 0xA7 JUMPI DUP1 PUSH4 0xA391C15B EQ PUSH2 0xD7 JUMPI DUP1 PUSH4 0xC8A4AC9C EQ PUSH2 0x107 JUMPI JUMPDEST PUSH0 DUP1 REVERT JUMPDEST PUSH2 0x73 PUSH1 0x4 DUP1 CALLDATASIZE SUB DUP2 ADD SWAP1 PUSH2 0x6E SWAP2 SWAP1 PUSH2 0x1F6 JUMP JUMPDEST PUSH2 0x137 JUMP JUMPDEST PUSH1 0x40 MLOAD PUSH2 0x80 SWAP2 SWAP1 PUSH2 0x23B JUMP JUMPDEST PUSH1 0x40 MLOAD DUP1 SWAP2 SUB SWAP1 RETURN JUMPDEST PUSH2 0x91 PUSH2 0x15D JUMP JUMPDEST PUSH1 0x40 MLOAD PUSH2 0x9E SWAP2 SWAP1 PUSH2 0x293 JUMP JUMPDEST PUSH1 0x40 MLOAD DUP1 SWAP2 SUB SWAP1 RETURN JUMPDEST PUSH2 0xC1 PUSH1 0x4 DUP1 CALLDATASIZE SUB DUP2 ADD SWAP1 PUSH2 0xBC SWAP2 SWAP1 PUSH2 0x2AC JUMP JUMPDEST PUSH2 0x180 JUMP JUMPDEST PUSH1 0x40 MLOAD PUSH2 0xCE SWAP2 SWAP1 PUSH2 0x2F9 JUMP JUMPDEST PUSH1 0x40 MLOAD DUP1 SWAP2 SUB SWAP1 RETURN JUMPDEST PUSH2 0xF1 PUSH1 0x4 DUP1 CALLDATASIZE SUB DUP2 ADD SWAP1 PUSH2 0xEC SWAP2 SWAP1 PUSH2 0x2AC JUMP JUMPDEST PUSH2 0x195 JUMP JUMPDEST PUSH1 0x40 MLOAD PUSH2 0xFE SWAP2 SWAP1 PUSH2 0x2F9 JUMP JUMPDEST PUSH1 0x40 MLOAD DUP1 SWAP2 SUB SWAP1 RETURN JUMPDEST PUSH2 0x121 PUSH1 0x4 DUP1 CALLDATASIZE SUB DUP2 ADD SWAP1 PUSH2 0x11C SWAP2 SWAP1 PUSH2 0x2AC JUMP JUMPDEST PUSH2 0x1AA JUMP JUMPDEST PUSH1 0x40 MLOAD PUSH2 0x12E SWAP2 SWAP1 PUSH2 0x2F9 JUMP JUMPDEST PUSH1 0x40 MLOAD DUP1 SWAP2 SUB SWAP1 RETURN JUMPDEST PUSH0 DUP1 PUSH1 0x2 DUP4 PUSH2 0x146 SWAP2 SWAP1 PUSH2 0x33F JUMP JUMPDEST SUB PUSH2 0x154 JUMPI PUSH1 0x1 SWAP1 POP PUSH2 0x158 JUMP JUMPDEST PUSH0 SWAP1 POP JUMPDEST SWAP2 SWAP1 POP JUMP JUMPDEST PUSH0 DUP1 SLOAD SWAP1 PUSH2 0x100 EXP SWAP1 DIV PUSH20 0xFFFFFFFFFFFFFFFFFFFFFFFFFFFFFFFFFFFFFFFF AND DUP2 JUMP JUMPDEST PUSH0 DUP2 DUP4 PUSH2 0x18D SWAP2 SWAP1 PUSH2 0x39C JUMP JUMPDEST SWAP1 POP SWAP3 SWAP2 POP POP JUMP JUMPDEST PUSH0 DUP2 DUP4 PUSH2 0x1A2 SWAP2 SWAP1 PUSH2 0x3CF JUMP JUMPDEST SWAP1 POP SWAP3 SWAP2 POP POP JUMP JUMPDEST PUSH0 DUP2 DUP4 PUSH2 0x1B7 SWAP2 SWAP1 PUSH2 0x402 JUMP JUMPDEST SWAP1 POP SWAP3 SWAP2 POP POP JUMP JUMPDEST PUSH0 DUP1 REVERT JUMPDEST PUSH0 DUP2 SWAP1 POP SWAP2 SWAP1 POP JUMP JUMPDEST PUSH2 0x1D5 DUP2 PUSH2 0x1C3 JUMP JUMPDEST DUP2 EQ PUSH2 0x1DF JUMPI PUSH0 DUP1 REVERT JUMPDEST POP JUMP JUMPDEST PUSH0 DUP2 CALLDATALOAD SWAP1 POP PUSH2 0x1F0 DUP2 PUSH2 0x1CC JUMP JUMPDEST SWAP3 SWAP2 POP POP JUMP JUMPDEST PUSH0 PUSH1 0x20 DUP3 DUP5 SUB SLT ISZERO PUSH2 0x20B JUMPI PUSH2 0x20A PUSH2 0x1BF JUMP JUMPDEST JUMPDEST PUSH0 PUSH2 0x218 DUP5 DUP3 DUP6 ADD PUSH2 0x1E2 JUMP JUMPDEST SWAP2 POP POP SWAP3 SWAP2 POP POP JUMP JUMPDEST PUSH0 DUP2 ISZERO ISZERO SWAP1 POP SWAP2 SWAP1 POP JUMP JUMPDEST PUSH2 0x235 DUP2 PUSH2 0x221 JUMP JUMPDEST DUP3 MSTORE POP POP JUMP JUMPDEST PUSH0 PUSH1 0x20 DUP3 ADD SWAP1 POP PUSH2 0x24E PUSH0 DUP4 ADD DUP5 PUSH2 0x22C JUMP JUMPDEST SWAP3 SWAP2 POP POP JUMP JUMPDEST PUSH0 PUSH20 0xFFFFFFFFFFFFFFFFFFFFFFFFFFFFFFFFFFFFFFFF DUP3 AND SWAP1 POP SWAP2 SWAP1 POP JUMP JUMPDEST PUSH0 PUSH2 0x27D DUP3 PUSH2 0x254 JUMP JUMPDEST SWAP1 POP SWAP2 SWAP1 POP JUMP JUMPDEST PUSH2 0x28D DUP2 PUSH2 0x273 JUMP JUMPDEST DUP3 MSTORE POP POP JUMP JUMPDEST PUSH0 PUSH1 0x20 DUP3 ADD SWAP1 POP PUSH2 0x2A6 PUSH0 DUP4 ADD DUP5 PUSH2 0x284 JUMP JUMPDEST SWAP3 SWAP2 POP POP JUMP JUMPDEST PUSH0 DUP1 PUSH1 0x40 DUP4 DUP6 SUB SLT ISZERO PUSH2 0x2C2 JUMPI PUSH2 0x2C1 PUSH2 0x1BF JUMP JUMPDEST JUMPDEST PUSH0 PUSH2 0x2CF DUP6 DUP3 DUP7 ADD PUSH2 0x1E2 JUMP JUMPDEST SWAP3 POP POP PUSH1 0x20 PUSH2 0x2E0 DUP6 DUP3 DUP7 ADD PUSH2 0x1E2 JUMP JUMPDEST SWAP2 POP POP SWAP3 POP SWAP3 SWAP1 POP JUMP JUMPDEST PUSH2 0x2F3 DUP2 PUSH2 0x1C3 JUMP JUMPDEST DUP3 MSTORE POP POP JUMP JUMPDEST PUSH0 PUSH1 0x20 DUP3 ADD SWAP1 POP PUSH2 0x30C PUSH0 DUP4 ADD DUP5 PUSH2 0x2EA JUMP JUMPDEST SWAP3 SWAP2 POP POP JUMP JUMPDEST PUSH32 0x4E487B7100000000000000000000000000000000000000000000000000000000 PUSH0 MSTORE PUSH1 0x12 PUSH1 0x4 MSTORE PUSH1 0x24 PUSH0 REVERT JUMPDEST PUSH0 PUSH2 0x349 DUP3 PUSH2 0x1C3 JUMP JUMPDEST SWAP2 POP PUSH2 0x354 DUP4 PUSH2 0x1C3 JUMP JUMPDEST SWAP3 POP DUP3 PUSH2 0x364 JUMPI PUSH2 0x363 PUSH2 0x312 JUMP JUMPDEST JUMPDEST DUP3 DUP3 MOD SWAP1 POP SWAP3 SWAP2 POP POP JUMP JUMPDEST PUSH32 0x4E487B7100000000000000000000000000000000000000000000000000000000 PUSH0 MSTORE PUSH1 0x11 PUSH1 0x4 MSTORE PUSH1 0x24 PUSH0 REVERT JUMPDEST PUSH0 PUSH2 0x3A6 DUP3 PUSH2 0x1C3 JUMP JUMPDEST SWAP2 POP PUSH2 0x3B1 DUP4 PUSH2 0x1C3 JUMP JUMPDEST SWAP3 POP DUP3 DUP3 ADD SWAP1 POP DUP1 DUP3 GT ISZERO PUSH2 0x3C9 JUMPI PUSH2 0x3C8 PUSH2 0x36F JUMP JUMPDEST JUMPDEST SWAP3 SWAP2 POP POP JUMP JUMPDEST PUSH0 PUSH2 0x3D9 DUP3 PUSH2 0x1C3 JUMP JUMPDEST SWAP2 POP PUSH2 0x3E4 DUP4 PUSH2 0x1C3 JUMP JUMPDEST SWAP3 POP DUP3 DUP3 SUB SWAP1 POP DUP2 DUP2 GT ISZERO PUSH2 0x3FC JUMPI PUSH2 0x3FB PUSH2 0x36F JUMP JUMPDEST JUMPDEST SWAP3 SWAP2 POP POP JUMP JUMPDEST PUSH0 PUSH2 0x40C DUP3 PUSH2 0x1C3 JUMP JUMPDEST SWAP2 POP PUSH2 0x417 DUP4 PUSH2 0x1C3 JUMP JUMPDEST SWAP3 POP DUP3 DUP3 MUL PUSH2 0x425 DUP2 PUSH2 0x1C3 JUMP JUMPDEST SWAP2 POP DUP3 DUP3 DIV DUP5 EQ DUP4 ISZERO OR PUSH2 0x43C JUMPI PUSH2 0x43B PUSH2 0x36F JUMP JUMPDEST JUMPDEST POP SWAP3 SWAP2 POP POP JUMP INVALID LOG2 PUSH5 0x6970667358 0x22 SLT KECCAK256 DUP7 0xCB PUSH1 0x26 ADD 0xC0 XOR PUSH20 0xEC09865ADC028A536538A922515ABEAB558360AB 0xB4 0xE7 CALLVALUE DUP11 PUSH5 0x736F6C6343 STOP ADDMOD BYTE STOP CALLER "
				},
				"gasEstimates": {
					"creation": {
						"codeDepositCost": "229000",
						"executionCost": "24532",
						"totalCost": "253532"
					},
					"external": {
						"add(uint256,uint256)": "infinite",
						"div(uint256,uint256)": "infinite",
						"isEven(uint256)": "infinite",
						"manager()": "2505",
						"mul(uint256,uint256)": "infinite"
					}
				},
				"methodIdentifiers": {
					"add(uint256,uint256)": "771602f7",
					"div(uint256,uint256)": "a391c15b",
					"isEven(uint256)": "2a2e1320",
					"manager()": "481c6a75",
					"mul(uint256,uint256)": "c8a4ac9c"
				}
			},
			"storageLayout": {
				"storage": [
					{
						"astId": 3,
						"contract": "contracts/OOPs/Inheritence.sol:OhterCalc",
						"label": "manager",
						"offset": 0,
						"slot": "0",
						"type": "t_address"
					}
				],
				"types": {
					"t_address": {
						"encoding": "inplace",
						"label": "address",
						"numberOfBytes": "20"
					}
				}
			},
			"userdoc": {
				"kind": "user",
				"methods": {},
				"version": 1
			}
		}
	}
}