{
	"contracts/OOPs/OOPa2.sol": {
		"anotherContract": {
			"abi": [
				{
					"inputs": [
						{
							"internalType": "uint256",
							"name": "a",
							"type": "uint256"
						},
						{
							"internalType": "uint256",
							"name": "b",
							"type": "uint256"
						}
					],
					"name": "gettingNum",
					"outputs": [
						{
							"internalType": "uint256",
							"name": "",
							"type": "uint256"
						}
					],
					"stateMutability": "view",
					"type": "function"
				},
				{
					"inputs": [],
					"name": "manager",
					"outputs": [
						{
							"internalType": "address",
							"name": "",
							"type": "address"
						}
					],
					"stateMutability": "view",
					"type": "function"
				}
			],
			"devdoc": {
				"kind": "dev",
				"methods": {},
				"version": 1
			},
			"evm": {
				"assembly": "    /* \"contracts/OOPs/OOPa2.sol\":467:785  contract anotherContract {... */\n  mstore(0x40, 0x80)\n    /* \"contracts/OOPs/OOPa2.sol\":519:535  new Calculator() */\n  mload(0x40)\n  tag_1\n  swap1\n  tag_2\n  jump\t// in\ntag_1:\n  mload(0x40)\n  dup1\n  swap2\n  sub\n  swap1\n  0x00\n  create\n  dup1\n  iszero\n  dup1\n  iszero\n  tag_3\n  jumpi\n  returndatasize\n  0x00\n  dup1\n  returndatacopy\n  revert(0x00, returndatasize)\ntag_3:\n  pop\n    /* \"contracts/OOPs/OOPa2.sol\":501:535  Calculator calc = new Calculator() */\n  0x00\n  dup1\n  0x0100\n  exp\n  dup2\n  sload\n  dup2\n  0xffffffffffffffffffffffffffffffffffffffff\n  mul\n  not\n  and\n  swap1\n  dup4\n  0xffffffffffffffffffffffffffffffffffffffff\n  and\n  mul\n  or\n  swap1\n  sstore\n  pop\n    /* \"contracts/OOPs/OOPa2.sol\":655:659  calc */\n  0x00\n  dup1\n  sload\n  swap1\n  0x0100\n  exp\n  swap1\n  div\n  0xffffffffffffffffffffffffffffffffffffffff\n  and\n    /* \"contracts/OOPs/OOPa2.sol\":655:667  calc.manager */\n  0xffffffffffffffffffffffffffffffffffffffff\n  and\n  0x481c6a75\n    /* \"contracts/OOPs/OOPa2.sol\":655:669  calc.manager() */\n  mload(0x40)\n  dup2\n  0xffffffff\n  and\n  0xe0\n  shl\n  dup2\n  mstore\n  0x04\n  add\n  0x20\n  mload(0x40)\n  dup1\n  dup4\n  sub\n  dup2\n  dup7\n  gas\n  staticcall\n  iszero\n  dup1\n  iszero\n  tag_5\n  jumpi\n  returndatasize\n  0x00\n  dup1\n  returndatacopy\n  revert(0x00, returndatasize)\ntag_5:\n  pop\n  pop\n  pop\n  pop\n  mload(0x40)\n  returndatasize\n  not(0x1f)\n  0x1f\n  dup3\n  add\n  and\n  dup3\n  add\n  dup1\n  0x40\n  mstore\n  pop\n  dup2\n  add\n  swap1\n  tag_6\n  swap2\n  swap1\n  tag_7\n  jump\t// in\ntag_6:\n    /* \"contracts/OOPs/OOPa2.sol\":630:669  address public manager = calc.manager() */\n  0x01\n  exp(0x0100, 0x00)\n  dup2\n  sload\n  dup2\n  0xffffffffffffffffffffffffffffffffffffffff\n  mul\n  not\n  and\n  swap1\n  dup4\n  0xffffffffffffffffffffffffffffffffffffffff\n  and\n  mul\n  or\n  swap1\n  sstore\n  pop\n    /* \"contracts/OOPs/OOPa2.sol\":467:785  contract anotherContract {... */\n  callvalue\n  dup1\n  iszero\n  tag_8\n  jumpi\n  0x00\n  dup1\n  revert\ntag_8:\n  pop\n  jump(tag_9)\ntag_2:\n  dataSize(sub_1)\n  dup1\n  dataOffset(sub_1)\n  dup4\n  codecopy\n  add\n  swap1\n  jump\t// out\n    /* \"#utility.yul\":88:205   */\ntag_11:\n    /* \"#utility.yul\":197:198   */\n  0x00\n    /* \"#utility.yul\":194:195   */\n  dup1\n    /* \"#utility.yul\":187:199   */\n  revert\n    /* \"#utility.yul\":334:460   */\ntag_13:\n    /* \"#utility.yul\":371:378   */\n  0x00\n    /* \"#utility.yul\":411:453   */\n  0xffffffffffffffffffffffffffffffffffffffff\n    /* \"#utility.yul\":404:409   */\n  dup3\n    /* \"#utility.yul\":400:454   */\n  and\n    /* \"#utility.yul\":389:454   */\n  swap1\n  pop\n    /* \"#utility.yul\":334:460   */\n  swap2\n  swap1\n  pop\n  jump\t// out\n    /* \"#utility.yul\":466:562   */\ntag_14:\n    /* \"#utility.yul\":503:510   */\n  0x00\n    /* \"#utility.yul\":532:556   */\n  tag_23\n    /* \"#utility.yul\":550:555   */\n  dup3\n    /* \"#utility.yul\":532:556   */\n  tag_13\n  jump\t// in\ntag_23:\n    /* \"#utility.yul\":521:556   */\n  swap1\n  pop\n    /* \"#utility.yul\":466:562   */\n  swap2\n  swap1\n  pop\n  jump\t// out\n    /* \"#utility.yul\":568:690   */\ntag_15:\n    /* \"#utility.yul\":641:665   */\n  tag_25\n    /* \"#utility.yul\":659:664   */\n  dup2\n    /* \"#utility.yul\":641:665   */\n  tag_14\n  jump\t// in\ntag_25:\n    /* \"#utility.yul\":634:639   */\n  dup2\n    /* \"#utility.yul\":631:666   */\n  eq\n    /* \"#utility.yul\":621:684   */\n  tag_26\n  jumpi\n    /* \"#utility.yul\":680:681   */\n  0x00\n    /* \"#utility.yul\":677:678   */\n  dup1\n    /* \"#utility.yul\":670:682   */\n  revert\n    /* \"#utility.yul\":621:684   */\ntag_26:\n    /* \"#utility.yul\":568:690   */\n  pop\n  jump\t// out\n    /* \"#utility.yul\":696:839   */\ntag_16:\n    /* \"#utility.yul\":753:758   */\n  0x00\n    /* \"#utility.yul\":784:790   */\n  dup2\n    /* \"#utility.yul\":778:791   */\n  mload\n    /* \"#utility.yul\":769:791   */\n  swap1\n  pop\n    /* \"#utility.yul\":800:833   */\n  tag_28\n    /* \"#utility.yul\":827:832   */\n  dup2\n    /* \"#utility.yul\":800:833   */\n  tag_15\n  jump\t// in\ntag_28:\n    /* \"#utility.yul\":696:839   */\n  swap3\n  swap2\n  pop\n  pop\n  jump\t// out\n    /* \"#utility.yul\":845:1196   */\ntag_7:\n    /* \"#utility.yul\":915:921   */\n  0x00\n    /* \"#utility.yul\":964:966   */\n  0x20\n    /* \"#utility.yul\":952:961   */\n  dup3\n    /* \"#utility.yul\":943:950   */\n  dup5\n    /* \"#utility.yul\":939:962   */\n  sub\n    /* \"#utility.yul\":935:967   */\n  slt\n    /* \"#utility.yul\":932:1051   */\n  iszero\n  tag_30\n  jumpi\n    /* \"#utility.yul\":970:1049   */\n  tag_31\n  tag_11\n  jump\t// in\ntag_31:\n    /* \"#utility.yul\":932:1051   */\ntag_30:\n    /* \"#utility.yul\":1090:1091   */\n  0x00\n    /* \"#utility.yul\":1115:1179   */\n  tag_32\n    /* \"#utility.yul\":1171:1178   */\n  dup5\n    /* \"#utility.yul\":1162:1168   */\n  dup3\n    /* \"#utility.yul\":1151:1160   */\n  dup6\n    /* \"#utility.yul\":1147:1169   */\n  add\n    /* \"#utility.yul\":1115:1179   */\n  tag_16\n  jump\t// in\ntag_32:\n    /* \"#utility.yul\":1105:1179   */\n  swap2\n  pop\n    /* \"#utility.yul\":1061:1189   */\n  pop\n    /* \"#utility.yul\":845:1196   */\n  swap3\n  swap2\n  pop\n  pop\n  jump\t// out\n    /* \"contracts/OOPs/OOPa2.sol\":467:785  contract anotherContract {... */\ntag_9:\n  dataSize(sub_0)\n  dup1\n  dataOffset(sub_0)\n  0x00\n  codecopy\n  0x00\n  return\nstop\n\nsub_0: assembly {\n        /* \"contracts/OOPs/OOPa2.sol\":467:785  contract anotherContract {... */\n      mstore(0x40, 0x80)\n      callvalue\n      dup1\n      iszero\n      tag_1\n      jumpi\n      0x00\n      dup1\n      revert\n    tag_1:\n      pop\n      jumpi(tag_2, lt(calldatasize, 0x04))\n      shr(0xe0, calldataload(0x00))\n      dup1\n      0x33a0a3f6\n      eq\n      tag_3\n      jumpi\n      dup1\n      0x481c6a75\n      eq\n      tag_4\n      jumpi\n    tag_2:\n      0x00\n      dup1\n      revert\n        /* \"contracts/OOPs/OOPa2.sol\":675:776  function gettingNum(uint a, uint b) public view returns (uint) {... */\n    tag_3:\n      tag_5\n      0x04\n      dup1\n      calldatasize\n      sub\n      dup2\n      add\n      swap1\n      tag_6\n      swap2\n      swap1\n      tag_7\n      jump\t// in\n    tag_6:\n      tag_8\n      jump\t// in\n    tag_5:\n      mload(0x40)\n      tag_9\n      swap2\n      swap1\n      tag_10\n      jump\t// in\n    tag_9:\n      mload(0x40)\n      dup1\n      swap2\n      sub\n      swap1\n      return\n        /* \"contracts/OOPs/OOPa2.sol\":630:669  address public manager = calc.manager() */\n    tag_4:\n      tag_11\n      tag_12\n      jump\t// in\n    tag_11:\n      mload(0x40)\n      tag_13\n      swap2\n      swap1\n      tag_14\n      jump\t// in\n    tag_13:\n      mload(0x40)\n      dup1\n      swap2\n      sub\n      swap1\n      return\n        /* \"contracts/OOPs/OOPa2.sol\":675:776  function gettingNum(uint a, uint b) public view returns (uint) {... */\n    tag_8:\n        /* \"contracts/OOPs/OOPa2.sol\":732:736  uint */\n      0x00\n        /* \"contracts/OOPs/OOPa2.sol\":756:760  calc */\n      dup1\n      0x00\n      swap1\n      sload\n      swap1\n      0x0100\n      exp\n      swap1\n      div\n      0xffffffffffffffffffffffffffffffffffffffff\n      and\n        /* \"contracts/OOPs/OOPa2.sol\":756:764  calc.add */\n      0xffffffffffffffffffffffffffffffffffffffff\n      and\n      0x771602f7\n        /* \"contracts/OOPs/OOPa2.sol\":765:766  a */\n      dup5\n        /* \"contracts/OOPs/OOPa2.sol\":767:768  b */\n      dup5\n        /* \"contracts/OOPs/OOPa2.sol\":756:769  calc.add(a,b) */\n      mload(0x40)\n      dup4\n      0xffffffff\n      and\n      0xe0\n      shl\n      dup2\n      mstore\n      0x04\n      add\n      tag_16\n      swap3\n      swap2\n      swap1\n      tag_17\n      jump\t// in\n    tag_16:\n      0x20\n      mload(0x40)\n      dup1\n      dup4\n      sub\n      dup2\n      dup7\n      gas\n      staticcall\n      iszero\n      dup1\n      iszero\n      tag_19\n      jumpi\n      returndatasize\n      0x00\n      dup1\n      returndatacopy\n      revert(0x00, returndatasize)\n    tag_19:\n      pop\n      pop\n      pop\n      pop\n      mload(0x40)\n      returndatasize\n      not(0x1f)\n      0x1f\n      dup3\n      add\n      and\n      dup3\n      add\n      dup1\n      0x40\n      mstore\n      pop\n      dup2\n      add\n      swap1\n      tag_20\n      swap2\n      swap1\n      tag_21\n      jump\t// in\n    tag_20:\n        /* \"contracts/OOPs/OOPa2.sol\":749:769  return calc.add(a,b) */\n      swap1\n      pop\n        /* \"contracts/OOPs/OOPa2.sol\":675:776  function gettingNum(uint a, uint b) public view returns (uint) {... */\n      swap3\n      swap2\n      pop\n      pop\n      jump\t// out\n        /* \"contracts/OOPs/OOPa2.sol\":630:669  address public manager = calc.manager() */\n    tag_12:\n      0x01\n      0x00\n      swap1\n      sload\n      swap1\n      0x0100\n      exp\n      swap1\n      div\n      0xffffffffffffffffffffffffffffffffffffffff\n      and\n      dup2\n      jump\t// out\n        /* \"#utility.yul\":88:205   */\n    tag_23:\n        /* \"#utility.yul\":197:198   */\n      0x00\n        /* \"#utility.yul\":194:195   */\n      dup1\n        /* \"#utility.yul\":187:199   */\n      revert\n        /* \"#utility.yul\":334:411   */\n    tag_25:\n        /* \"#utility.yul\":371:378   */\n      0x00\n        /* \"#utility.yul\":400:405   */\n      dup2\n        /* \"#utility.yul\":389:405   */\n      swap1\n      pop\n        /* \"#utility.yul\":334:411   */\n      swap2\n      swap1\n      pop\n      jump\t// out\n        /* \"#utility.yul\":417:539   */\n    tag_26:\n        /* \"#utility.yul\":490:514   */\n      tag_39\n        /* \"#utility.yul\":508:513   */\n      dup2\n        /* \"#utility.yul\":490:514   */\n      tag_25\n      jump\t// in\n    tag_39:\n        /* \"#utility.yul\":483:488   */\n      dup2\n        /* \"#utility.yul\":480:515   */\n      eq\n        /* \"#utility.yul\":470:533   */\n      tag_40\n      jumpi\n        /* \"#utility.yul\":529:530   */\n      0x00\n        /* \"#utility.yul\":526:527   */\n      dup1\n        /* \"#utility.yul\":519:531   */\n      revert\n        /* \"#utility.yul\":470:533   */\n    tag_40:\n        /* \"#utility.yul\":417:539   */\n      pop\n      jump\t// out\n        /* \"#utility.yul\":545:684   */\n    tag_27:\n        /* \"#utility.yul\":591:596   */\n      0x00\n        /* \"#utility.yul\":629:635   */\n      dup2\n        /* \"#utility.yul\":616:636   */\n      calldataload\n        /* \"#utility.yul\":607:636   */\n      swap1\n      pop\n        /* \"#utility.yul\":645:678   */\n      tag_42\n        /* \"#utility.yul\":672:677   */\n      dup2\n        /* \"#utility.yul\":645:678   */\n      tag_26\n      jump\t// in\n    tag_42:\n        /* \"#utility.yul\":545:684   */\n      swap3\n      swap2\n      pop\n      pop\n      jump\t// out\n        /* \"#utility.yul\":690:1164   */\n    tag_7:\n        /* \"#utility.yul\":758:764   */\n      0x00\n        /* \"#utility.yul\":766:772   */\n      dup1\n        /* \"#utility.yul\":815:817   */\n      0x40\n        /* \"#utility.yul\":803:812   */\n      dup4\n        /* \"#utility.yul\":794:801   */\n      dup6\n        /* \"#utility.yul\":790:813   */\n      sub\n        /* \"#utility.yul\":786:818   */\n      slt\n        /* \"#utility.yul\":783:902   */\n      iszero\n      tag_44\n      jumpi\n        /* \"#utility.yul\":821:900   */\n      tag_45\n      tag_23\n      jump\t// in\n    tag_45:\n        /* \"#utility.yul\":783:902   */\n    tag_44:\n        /* \"#utility.yul\":941:942   */\n      0x00\n        /* \"#utility.yul\":966:1019   */\n      tag_46\n        /* \"#utility.yul\":1011:1018   */\n      dup6\n        /* \"#utility.yul\":1002:1008   */\n      dup3\n        /* \"#utility.yul\":991:1000   */\n      dup7\n        /* \"#utility.yul\":987:1009   */\n      add\n        /* \"#utility.yul\":966:1019   */\n      tag_27\n      jump\t// in\n    tag_46:\n        /* \"#utility.yul\":956:1019   */\n      swap3\n      pop\n        /* \"#utility.yul\":912:1029   */\n      pop\n        /* \"#utility.yul\":1068:1070   */\n      0x20\n        /* \"#utility.yul\":1094:1147   */\n      tag_47\n        /* \"#utility.yul\":1139:1146   */\n      dup6\n        /* \"#utility.yul\":1130:1136   */\n      dup3\n        /* \"#utility.yul\":1119:1128   */\n      dup7\n        /* \"#utility.yul\":1115:1137   */\n      add\n        /* \"#utility.yul\":1094:1147   */\n      tag_27\n      jump\t// in\n    tag_47:\n        /* \"#utility.yul\":1084:1147   */\n      swap2\n      pop\n        /* \"#utility.yul\":1039:1157   */\n      pop\n        /* \"#utility.yul\":690:1164   */\n      swap3\n      pop\n      swap3\n      swap1\n      pop\n      jump\t// out\n        /* \"#utility.yul\":1170:1288   */\n    tag_28:\n        /* \"#utility.yul\":1257:1281   */\n      tag_49\n        /* \"#utility.yul\":1275:1280   */\n      dup2\n        /* \"#utility.yul\":1257:1281   */\n      tag_25\n      jump\t// in\n    tag_49:\n        /* \"#utility.yul\":1252:1255   */\n      dup3\n        /* \"#utility.yul\":1245:1282   */\n      mstore\n        /* \"#utility.yul\":1170:1288   */\n      pop\n      pop\n      jump\t// out\n        /* \"#utility.yul\":1294:1516   */\n    tag_10:\n        /* \"#utility.yul\":1387:1391   */\n      0x00\n        /* \"#utility.yul\":1425:1427   */\n      0x20\n        /* \"#utility.yul\":1414:1423   */\n      dup3\n        /* \"#utility.yul\":1410:1428   */\n      add\n        /* \"#utility.yul\":1402:1428   */\n      swap1\n      pop\n        /* \"#utility.yul\":1438:1509   */\n      tag_51\n        /* \"#utility.yul\":1506:1507   */\n      0x00\n        /* \"#utility.yul\":1495:1504   */\n      dup4\n        /* \"#utility.yul\":1491:1508   */\n      add\n        /* \"#utility.yul\":1482:1488   */\n      dup5\n        /* \"#utility.yul\":1438:1509   */\n      tag_28\n      jump\t// in\n    tag_51:\n        /* \"#utility.yul\":1294:1516   */\n      swap3\n      swap2\n      pop\n      pop\n      jump\t// out\n        /* \"#utility.yul\":1522:1648   */\n    tag_29:\n        /* \"#utility.yul\":1559:1566   */\n      0x00\n        /* \"#utility.yul\":1599:1641   */\n      0xffffffffffffffffffffffffffffffffffffffff\n        /* \"#utility.yul\":1592:1597   */\n      dup3\n        /* \"#utility.yul\":1588:1642   */\n      and\n        /* \"#utility.yul\":1577:1642   */\n      swap1\n      pop\n        /* \"#utility.yul\":1522:1648   */\n      swap2\n      swap1\n      pop\n      jump\t// out\n        /* \"#utility.yul\":1654:1750   */\n    tag_30:\n        /* \"#utility.yul\":1691:1698   */\n      0x00\n        /* \"#utility.yul\":1720:1744   */\n      tag_54\n        /* \"#utility.yul\":1738:1743   */\n      dup3\n        /* \"#utility.yul\":1720:1744   */\n      tag_29\n      jump\t// in\n    tag_54:\n        /* \"#utility.yul\":1709:1744   */\n      swap1\n      pop\n        /* \"#utility.yul\":1654:1750   */\n      swap2\n      swap1\n      pop\n      jump\t// out\n        /* \"#utility.yul\":1756:1874   */\n    tag_31:\n        /* \"#utility.yul\":1843:1867   */\n      tag_56\n        /* \"#utility.yul\":1861:1866   */\n      dup2\n        /* \"#utility.yul\":1843:1867   */\n      tag_30\n      jump\t// in\n    tag_56:\n        /* \"#utility.yul\":1838:1841   */\n      dup3\n        /* \"#utility.yul\":1831:1868   */\n      mstore\n        /* \"#utility.yul\":1756:1874   */\n      pop\n      pop\n      jump\t// out\n        /* \"#utility.yul\":1880:2102   */\n    tag_14:\n        /* \"#utility.yul\":1973:1977   */\n      0x00\n        /* \"#utility.yul\":2011:2013   */\n      0x20\n        /* \"#utility.yul\":2000:2009   */\n      dup3\n        /* \"#utility.yul\":1996:2014   */\n      add\n        /* \"#utility.yul\":1988:2014   */\n      swap1\n      pop\n        /* \"#utility.yul\":2024:2095   */\n      tag_58\n        /* \"#utility.yul\":2092:2093   */\n      0x00\n        /* \"#utility.yul\":2081:2090   */\n      dup4\n        /* \"#utility.yul\":2077:2094   */\n      add\n        /* \"#utility.yul\":2068:2074   */\n      dup5\n        /* \"#utility.yul\":2024:2095   */\n      tag_31\n      jump\t// in\n    tag_58:\n        /* \"#utility.yul\":1880:2102   */\n      swap3\n      swap2\n      pop\n      pop\n      jump\t// out\n        /* \"#utility.yul\":2108:2440   */\n    tag_17:\n        /* \"#utility.yul\":2229:2233   */\n      0x00\n        /* \"#utility.yul\":2267:2269   */\n      0x40\n        /* \"#utility.yul\":2256:2265   */\n      dup3\n        /* \"#utility.yul\":2252:2270   */\n      add\n        /* \"#utility.yul\":2244:2270   */\n      swap1\n      pop\n        /* \"#utility.yul\":2280:2351   */\n      tag_60\n        /* \"#utility.yul\":2348:2349   */\n      0x00\n        /* \"#utility.yul\":2337:2346   */\n      dup4\n        /* \"#utility.yul\":2333:2350   */\n      add\n        /* \"#utility.yul\":2324:2330   */\n      dup6\n        /* \"#utility.yul\":2280:2351   */\n      tag_28\n      jump\t// in\n    tag_60:\n        /* \"#utility.yul\":2361:2433   */\n      tag_61\n        /* \"#utility.yul\":2429:2431   */\n      0x20\n        /* \"#utility.yul\":2418:2427   */\n      dup4\n        /* \"#utility.yul\":2414:2432   */\n      add\n        /* \"#utility.yul\":2405:2411   */\n      dup5\n        /* \"#utility.yul\":2361:2433   */\n      tag_28\n      jump\t// in\n    tag_61:\n        /* \"#utility.yul\":2108:2440   */\n      swap4\n      swap3\n      pop\n      pop\n      pop\n      jump\t// out\n        /* \"#utility.yul\":2446:2589   */\n    tag_32:\n        /* \"#utility.yul\":2503:2508   */\n      0x00\n        /* \"#utility.yul\":2534:2540   */\n      dup2\n        /* \"#utility.yul\":2528:2541   */\n      mload\n        /* \"#utility.yul\":2519:2541   */\n      swap1\n      pop\n        /* \"#utility.yul\":2550:2583   */\n      tag_63\n        /* \"#utility.yul\":2577:2582   */\n      dup2\n        /* \"#utility.yul\":2550:2583   */\n      tag_26\n      jump\t// in\n    tag_63:\n        /* \"#utility.yul\":2446:2589   */\n      swap3\n      swap2\n      pop\n      pop\n      jump\t// out\n        /* \"#utility.yul\":2595:2946   */\n    tag_21:\n        /* \"#utility.yul\":2665:2671   */\n      0x00\n        /* \"#utility.yul\":2714:2716   */\n      0x20\n        /* \"#utility.yul\":2702:2711   */\n      dup3\n        /* \"#utility.yul\":2693:2700   */\n      dup5\n        /* \"#utility.yul\":2689:2712   */\n      sub\n        /* \"#utility.yul\":2685:2717   */\n      slt\n        /* \"#utility.yul\":2682:2801   */\n      iszero\n      tag_65\n      jumpi\n        /* \"#utility.yul\":2720:2799   */\n      tag_66\n      tag_23\n      jump\t// in\n    tag_66:\n        /* \"#utility.yul\":2682:2801   */\n    tag_65:\n        /* \"#utility.yul\":2840:2841   */\n      0x00\n        /* \"#utility.yul\":2865:2929   */\n      tag_67\n        /* \"#utility.yul\":2921:2928   */\n      dup5\n        /* \"#utility.yul\":2912:2918   */\n      dup3\n        /* \"#utility.yul\":2901:2910   */\n      dup6\n        /* \"#utility.yul\":2897:2919   */\n      add\n        /* \"#utility.yul\":2865:2929   */\n      tag_32\n      jump\t// in\n    tag_67:\n        /* \"#utility.yul\":2855:2929   */\n      swap2\n      pop\n        /* \"#utility.yul\":2811:2939   */\n      pop\n        /* \"#utility.yul\":2595:2946   */\n      swap3\n      swap2\n      pop\n      pop\n      jump\t// out\n\n    auxdata: 0xa26469706673582212207e6924e2c891a6d5d32d104b55217711dc910f65c00efc5f326869abd6599b0264736f6c634300081a0033\n}\n\nsub_1: assembly {\n        /* \"contracts/OOPs/OOPa2.sol\":70:461  contract Calculator{... */\n      mstore(0x40, 0x80)\n        /* \"contracts/OOPs/OOPa2.sol\":121:198  constructor() {... */\n      callvalue\n      dup1\n      iszero\n      tag_1\n      jumpi\n      0x00\n      dup1\n      revert\n    tag_1:\n      pop\n        /* \"contracts/OOPs/OOPa2.sol\":152:162  msg.sender */\n      caller\n        /* \"contracts/OOPs/OOPa2.sol\":142:149  manager */\n      0x00\n      dup1\n        /* \"contracts/OOPs/OOPa2.sol\":142:162  manager = msg.sender */\n      0x0100\n      exp\n      dup2\n      sload\n      dup2\n      0xffffffffffffffffffffffffffffffffffffffff\n      mul\n      not\n      and\n      swap1\n      dup4\n      0xffffffffffffffffffffffffffffffffffffffff\n      and\n      mul\n      or\n      swap1\n      sstore\n      pop\n        /* \"contracts/OOPs/OOPa2.sol\":70:461  contract Calculator{... */\n      dataSize(sub_0)\n      dup1\n      dataOffset(sub_0)\n      0x00\n      codecopy\n      0x00\n      return\n    stop\n\n    sub_0: assembly {\n            /* \"contracts/OOPs/OOPa2.sol\":70:461  contract Calculator{... */\n          mstore(0x40, 0x80)\n          callvalue\n          dup1\n          iszero\n          tag_1\n          jumpi\n          0x00\n          dup1\n          revert\n        tag_1:\n          pop\n          jumpi(tag_2, lt(calldatasize, 0x04))\n          shr(0xe0, calldataload(0x00))\n          dup1\n          0x481c6a75\n          eq\n          tag_3\n          jumpi\n          dup1\n          0x771602f7\n          eq\n          tag_4\n          jumpi\n          dup1\n          0xa391c15b\n          eq\n          tag_5\n          jumpi\n          dup1\n          0xc8a4ac9c\n          eq\n          tag_6\n          jumpi\n        tag_2:\n          0x00\n          dup1\n          revert\n            /* \"contracts/OOPs/OOPa2.sol\":94:116  address public manager */\n        tag_3:\n          tag_7\n          tag_8\n          jump\t// in\n        tag_7:\n          mload(0x40)\n          tag_9\n          swap2\n          swap1\n          tag_10\n          jump\t// in\n        tag_9:\n          mload(0x40)\n          dup1\n          swap2\n          sub\n          swap1\n          return\n            /* \"contracts/OOPs/OOPa2.sol\":204:285  function add(uint a, uint b) public pure  returns (uint) {... */\n        tag_4:\n          tag_11\n          0x04\n          dup1\n          calldatasize\n          sub\n          dup2\n          add\n          swap1\n          tag_12\n          swap2\n          swap1\n          tag_13\n          jump\t// in\n        tag_12:\n          tag_14\n          jump\t// in\n        tag_11:\n          mload(0x40)\n          tag_15\n          swap2\n          swap1\n          tag_16\n          jump\t// in\n        tag_15:\n          mload(0x40)\n          dup1\n          swap2\n          sub\n          swap1\n          return\n            /* \"contracts/OOPs/OOPa2.sol\":289:372  function div(uint a, uint b) public   pure  returns (uint) {... */\n        tag_5:\n          tag_17\n          0x04\n          dup1\n          calldatasize\n          sub\n          dup2\n          add\n          swap1\n          tag_18\n          swap2\n          swap1\n          tag_13\n          jump\t// in\n        tag_18:\n          tag_19\n          jump\t// in\n        tag_17:\n          mload(0x40)\n          tag_20\n          swap2\n          swap1\n          tag_16\n          jump\t// in\n        tag_20:\n          mload(0x40)\n          dup1\n          swap2\n          sub\n          swap1\n          return\n            /* \"contracts/OOPs/OOPa2.sol\":376:458  function mul(uint a, uint b) public  pure  returns (uint) {... */\n        tag_6:\n          tag_21\n          0x04\n          dup1\n          calldatasize\n          sub\n          dup2\n          add\n          swap1\n          tag_22\n          swap2\n          swap1\n          tag_13\n          jump\t// in\n        tag_22:\n          tag_23\n          jump\t// in\n        tag_21:\n          mload(0x40)\n          tag_24\n          swap2\n          swap1\n          tag_16\n          jump\t// in\n        tag_24:\n          mload(0x40)\n          dup1\n          swap2\n          sub\n          swap1\n          return\n            /* \"contracts/OOPs/OOPa2.sol\":94:116  address public manager */\n        tag_8:\n          0x00\n          dup1\n          sload\n          swap1\n          0x0100\n          exp\n          swap1\n          div\n          0xffffffffffffffffffffffffffffffffffffffff\n          and\n          dup2\n          jump\t// out\n            /* \"contracts/OOPs/OOPa2.sol\":204:285  function add(uint a, uint b) public pure  returns (uint) {... */\n        tag_14:\n            /* \"contracts/OOPs/OOPa2.sol\":255:259  uint */\n          0x00\n            /* \"contracts/OOPs/OOPa2.sol\":278:279  b */\n          dup2\n            /* \"contracts/OOPs/OOPa2.sol\":275:276  a */\n          dup4\n            /* \"contracts/OOPs/OOPa2.sol\":275:279  a +b */\n          tag_26\n          swap2\n          swap1\n          tag_27\n          jump\t// in\n        tag_26:\n            /* \"contracts/OOPs/OOPa2.sol\":267:279  return  a +b */\n          swap1\n          pop\n            /* \"contracts/OOPs/OOPa2.sol\":204:285  function add(uint a, uint b) public pure  returns (uint) {... */\n          swap3\n          swap2\n          pop\n          pop\n          jump\t// out\n            /* \"contracts/OOPs/OOPa2.sol\":289:372  function div(uint a, uint b) public   pure  returns (uint) {... */\n        tag_19:\n            /* \"contracts/OOPs/OOPa2.sol\":342:346  uint */\n          0x00\n            /* \"contracts/OOPs/OOPa2.sol\":365:366  b */\n          dup2\n            /* \"contracts/OOPs/OOPa2.sol\":361:362  a */\n          dup4\n            /* \"contracts/OOPs/OOPa2.sol\":361:366  a - b */\n          tag_29\n          swap2\n          swap1\n          tag_30\n          jump\t// in\n        tag_29:\n            /* \"contracts/OOPs/OOPa2.sol\":354:366  return a - b */\n          swap1\n          pop\n            /* \"contracts/OOPs/OOPa2.sol\":289:372  function div(uint a, uint b) public   pure  returns (uint) {... */\n          swap3\n          swap2\n          pop\n          pop\n          jump\t// out\n            /* \"contracts/OOPs/OOPa2.sol\":376:458  function mul(uint a, uint b) public  pure  returns (uint) {... */\n        tag_23:\n            /* \"contracts/OOPs/OOPa2.sol\":428:432  uint */\n          0x00\n            /* \"contracts/OOPs/OOPa2.sol\":451:452  b */\n          dup2\n            /* \"contracts/OOPs/OOPa2.sol\":447:448  a */\n          dup4\n            /* \"contracts/OOPs/OOPa2.sol\":447:452  a * b */\n          tag_32\n          swap2\n          swap1\n          tag_33\n          jump\t// in\n        tag_32:\n            /* \"contracts/OOPs/OOPa2.sol\":440:452  return a * b */\n          swap1\n          pop\n            /* \"contracts/OOPs/OOPa2.sol\":376:458  function mul(uint a, uint b) public  pure  returns (uint) {... */\n          swap3\n          swap2\n          pop\n          pop\n          jump\t// out\n            /* \"#utility.yul\":7:133   */\n        tag_34:\n            /* \"#utility.yul\":44:51   */\n          0x00\n            /* \"#utility.yul\":84:126   */\n          0xffffffffffffffffffffffffffffffffffffffff\n            /* \"#utility.yul\":77:82   */\n          dup3\n            /* \"#utility.yul\":73:127   */\n          and\n            /* \"#utility.yul\":62:127   */\n          swap1\n          pop\n            /* \"#utility.yul\":7:133   */\n          swap2\n          swap1\n          pop\n          jump\t// out\n            /* \"#utility.yul\":139:235   */\n        tag_35:\n            /* \"#utility.yul\":176:183   */\n          0x00\n            /* \"#utility.yul\":205:229   */\n          tag_48\n            /* \"#utility.yul\":223:228   */\n          dup3\n            /* \"#utility.yul\":205:229   */\n          tag_34\n          jump\t// in\n        tag_48:\n            /* \"#utility.yul\":194:229   */\n          swap1\n          pop\n            /* \"#utility.yul\":139:235   */\n          swap2\n          swap1\n          pop\n          jump\t// out\n            /* \"#utility.yul\":241:359   */\n        tag_36:\n            /* \"#utility.yul\":328:352   */\n          tag_50\n            /* \"#utility.yul\":346:351   */\n          dup2\n            /* \"#utility.yul\":328:352   */\n          tag_35\n          jump\t// in\n        tag_50:\n            /* \"#utility.yul\":323:326   */\n          dup3\n            /* \"#utility.yul\":316:353   */\n          mstore\n            /* \"#utility.yul\":241:359   */\n          pop\n          pop\n          jump\t// out\n            /* \"#utility.yul\":365:587   */\n        tag_10:\n            /* \"#utility.yul\":458:462   */\n          0x00\n            /* \"#utility.yul\":496:498   */\n          0x20\n            /* \"#utility.yul\":485:494   */\n          dup3\n            /* \"#utility.yul\":481:499   */\n          add\n            /* \"#utility.yul\":473:499   */\n          swap1\n          pop\n            /* \"#utility.yul\":509:580   */\n          tag_52\n            /* \"#utility.yul\":577:578   */\n          0x00\n            /* \"#utility.yul\":566:575   */\n          dup4\n            /* \"#utility.yul\":562:579   */\n          add\n            /* \"#utility.yul\":553:559   */\n          dup5\n            /* \"#utility.yul\":509:580   */\n          tag_36\n          jump\t// in\n        tag_52:\n            /* \"#utility.yul\":365:587   */\n          swap3\n          swap2\n          pop\n          pop\n          jump\t// out\n            /* \"#utility.yul\":674:791   */\n        tag_38:\n            /* \"#utility.yul\":783:784   */\n          0x00\n            /* \"#utility.yul\":780:781   */\n          dup1\n            /* \"#utility.yul\":773:785   */\n          revert\n            /* \"#utility.yul\":920:997   */\n        tag_40:\n            /* \"#utility.yul\":957:964   */\n          0x00\n            /* \"#utility.yul\":986:991   */\n          dup2\n            /* \"#utility.yul\":975:991   */\n          swap1\n          pop\n            /* \"#utility.yul\":920:997   */\n          swap2\n          swap1\n          pop\n          jump\t// out\n            /* \"#utility.yul\":1003:1125   */\n        tag_41:\n            /* \"#utility.yul\":1076:1100   */\n          tag_58\n            /* \"#utility.yul\":1094:1099   */\n          dup2\n            /* \"#utility.yul\":1076:1100   */\n          tag_40\n          jump\t// in\n        tag_58:\n            /* \"#utility.yul\":1069:1074   */\n          dup2\n            /* \"#utility.yul\":1066:1101   */\n          eq\n            /* \"#utility.yul\":1056:1119   */\n          tag_59\n          jumpi\n            /* \"#utility.yul\":1115:1116   */\n          0x00\n            /* \"#utility.yul\":1112:1113   */\n          dup1\n            /* \"#utility.yul\":1105:1117   */\n          revert\n            /* \"#utility.yul\":1056:1119   */\n        tag_59:\n            /* \"#utility.yul\":1003:1125   */\n          pop\n          jump\t// out\n            /* \"#utility.yul\":1131:1270   */\n        tag_42:\n            /* \"#utility.yul\":1177:1182   */\n          0x00\n            /* \"#utility.yul\":1215:1221   */\n          dup2\n            /* \"#utility.yul\":1202:1222   */\n          calldataload\n            /* \"#utility.yul\":1193:1222   */\n          swap1\n          pop\n            /* \"#utility.yul\":1231:1264   */\n          tag_61\n            /* \"#utility.yul\":1258:1263   */\n          dup2\n            /* \"#utility.yul\":1231:1264   */\n          tag_41\n          jump\t// in\n        tag_61:\n            /* \"#utility.yul\":1131:1270   */\n          swap3\n          swap2\n          pop\n          pop\n          jump\t// out\n            /* \"#utility.yul\":1276:1750   */\n        tag_13:\n            /* \"#utility.yul\":1344:1350   */\n          0x00\n            /* \"#utility.yul\":1352:1358   */\n          dup1\n            /* \"#utility.yul\":1401:1403   */\n          0x40\n            /* \"#utility.yul\":1389:1398   */\n          dup4\n            /* \"#utility.yul\":1380:1387   */\n          dup6\n            /* \"#utility.yul\":1376:1399   */\n          sub\n            /* \"#utility.yul\":1372:1404   */\n          slt\n            /* \"#utility.yul\":1369:1488   */\n          iszero\n          tag_63\n          jumpi\n            /* \"#utility.yul\":1407:1486   */\n          tag_64\n          tag_38\n          jump\t// in\n        tag_64:\n            /* \"#utility.yul\":1369:1488   */\n        tag_63:\n            /* \"#utility.yul\":1527:1528   */\n          0x00\n            /* \"#utility.yul\":1552:1605   */\n          tag_65\n            /* \"#utility.yul\":1597:1604   */\n          dup6\n            /* \"#utility.yul\":1588:1594   */\n          dup3\n            /* \"#utility.yul\":1577:1586   */\n          dup7\n            /* \"#utility.yul\":1573:1595   */\n          add\n            /* \"#utility.yul\":1552:1605   */\n          tag_42\n          jump\t// in\n        tag_65:\n            /* \"#utility.yul\":1542:1605   */\n          swap3\n          pop\n            /* \"#utility.yul\":1498:1615   */\n          pop\n            /* \"#utility.yul\":1654:1656   */\n          0x20\n            /* \"#utility.yul\":1680:1733   */\n          tag_66\n            /* \"#utility.yul\":1725:1732   */\n          dup6\n            /* \"#utility.yul\":1716:1722   */\n          dup3\n            /* \"#utility.yul\":1705:1714   */\n          dup7\n            /* \"#utility.yul\":1701:1723   */\n          add\n            /* \"#utility.yul\":1680:1733   */\n          tag_42\n          jump\t// in\n        tag_66:\n            /* \"#utility.yul\":1670:1733   */\n          swap2\n          pop\n            /* \"#utility.yul\":1625:1743   */\n          pop\n            /* \"#utility.yul\":1276:1750   */\n          swap3\n          pop\n          swap3\n          swap1\n          pop\n          jump\t// out\n            /* \"#utility.yul\":1756:1874   */\n        tag_43:\n            /* \"#utility.yul\":1843:1867   */\n          tag_68\n            /* \"#utility.yul\":1861:1866   */\n          dup2\n            /* \"#utility.yul\":1843:1867   */\n          tag_40\n          jump\t// in\n        tag_68:\n            /* \"#utility.yul\":1838:1841   */\n          dup3\n            /* \"#utility.yul\":1831:1868   */\n          mstore\n            /* \"#utility.yul\":1756:1874   */\n          pop\n          pop\n          jump\t// out\n            /* \"#utility.yul\":1880:2102   */\n        tag_16:\n            /* \"#utility.yul\":1973:1977   */\n          0x00\n            /* \"#utility.yul\":2011:2013   */\n          0x20\n            /* \"#utility.yul\":2000:2009   */\n          dup3\n            /* \"#utility.yul\":1996:2014   */\n          add\n            /* \"#utility.yul\":1988:2014   */\n          swap1\n          pop\n            /* \"#utility.yul\":2024:2095   */\n          tag_70\n            /* \"#utility.yul\":2092:2093   */\n          0x00\n            /* \"#utility.yul\":2081:2090   */\n          dup4\n            /* \"#utility.yul\":2077:2094   */\n          add\n            /* \"#utility.yul\":2068:2074   */\n          dup5\n            /* \"#utility.yul\":2024:2095   */\n          tag_43\n          jump\t// in\n        tag_70:\n            /* \"#utility.yul\":1880:2102   */\n          swap3\n          swap2\n          pop\n          pop\n          jump\t// out\n            /* \"#utility.yul\":2108:2288   */\n        tag_44:\n            /* \"#utility.yul\":2156:2233   */\n          0x4e487b7100000000000000000000000000000000000000000000000000000000\n            /* \"#utility.yul\":2153:2154   */\n          0x00\n            /* \"#utility.yul\":2146:2234   */\n          mstore\n            /* \"#utility.yul\":2253:2257   */\n          0x11\n            /* \"#utility.yul\":2250:2251   */\n          0x04\n            /* \"#utility.yul\":2243:2258   */\n          mstore\n            /* \"#utility.yul\":2277:2281   */\n          0x24\n            /* \"#utility.yul\":2274:2275   */\n          0x00\n            /* \"#utility.yul\":2267:2282   */\n          revert\n            /* \"#utility.yul\":2294:2485   */\n        tag_27:\n            /* \"#utility.yul\":2334:2337   */\n          0x00\n            /* \"#utility.yul\":2353:2373   */\n          tag_73\n            /* \"#utility.yul\":2371:2372   */\n          dup3\n            /* \"#utility.yul\":2353:2373   */\n          tag_40\n          jump\t// in\n        tag_73:\n            /* \"#utility.yul\":2348:2373   */\n          swap2\n          pop\n            /* \"#utility.yul\":2387:2407   */\n          tag_74\n            /* \"#utility.yul\":2405:2406   */\n          dup4\n            /* \"#utility.yul\":2387:2407   */\n          tag_40\n          jump\t// in\n        tag_74:\n            /* \"#utility.yul\":2382:2407   */\n          swap3\n          pop\n            /* \"#utility.yul\":2430:2431   */\n          dup3\n            /* \"#utility.yul\":2427:2428   */\n          dup3\n            /* \"#utility.yul\":2423:2432   */\n          add\n            /* \"#utility.yul\":2416:2432   */\n          swap1\n          pop\n            /* \"#utility.yul\":2451:2454   */\n          dup1\n            /* \"#utility.yul\":2448:2449   */\n          dup3\n            /* \"#utility.yul\":2445:2455   */\n          gt\n            /* \"#utility.yul\":2442:2478   */\n          iszero\n          tag_75\n          jumpi\n            /* \"#utility.yul\":2458:2476   */\n          tag_76\n          tag_44\n          jump\t// in\n        tag_76:\n            /* \"#utility.yul\":2442:2478   */\n        tag_75:\n            /* \"#utility.yul\":2294:2485   */\n          swap3\n          swap2\n          pop\n          pop\n          jump\t// out\n            /* \"#utility.yul\":2491:2685   */\n        tag_30:\n            /* \"#utility.yul\":2531:2535   */\n          0x00\n            /* \"#utility.yul\":2551:2571   */\n          tag_78\n            /* \"#utility.yul\":2569:2570   */\n          dup3\n            /* \"#utility.yul\":2551:2571   */\n          tag_40\n          jump\t// in\n        tag_78:\n            /* \"#utility.yul\":2546:2571   */\n          swap2\n          pop\n            /* \"#utility.yul\":2585:2605   */\n          tag_79\n            /* \"#utility.yul\":2603:2604   */\n          dup4\n            /* \"#utility.yul\":2585:2605   */\n          tag_40\n          jump\t// in\n        tag_79:\n            /* \"#utility.yul\":2580:2605   */\n          swap3\n          pop\n            /* \"#utility.yul\":2629:2630   */\n          dup3\n            /* \"#utility.yul\":2626:2627   */\n          dup3\n            /* \"#utility.yul\":2622:2631   */\n          sub\n            /* \"#utility.yul\":2614:2631   */\n          swap1\n          pop\n            /* \"#utility.yul\":2653:2654   */\n          dup2\n            /* \"#utility.yul\":2647:2651   */\n          dup2\n            /* \"#utility.yul\":2644:2655   */\n          gt\n            /* \"#utility.yul\":2641:2678   */\n          iszero\n          tag_80\n          jumpi\n            /* \"#utility.yul\":2658:2676   */\n          tag_81\n          tag_44\n          jump\t// in\n        tag_81:\n            /* \"#utility.yul\":2641:2678   */\n        tag_80:\n            /* \"#utility.yul\":2491:2685   */\n          swap3\n          swap2\n          pop\n          pop\n          jump\t// out\n            /* \"#utility.yul\":2691:3101   */\n        tag_33:\n            /* \"#utility.yul\":2731:2738   */\n          0x00\n            /* \"#utility.yul\":2754:2774   */\n          tag_83\n            /* \"#utility.yul\":2772:2773   */\n          dup3\n            /* \"#utility.yul\":2754:2774   */\n          tag_40\n          jump\t// in\n        tag_83:\n            /* \"#utility.yul\":2749:2774   */\n          swap2\n          pop\n            /* \"#utility.yul\":2788:2808   */\n          tag_84\n            /* \"#utility.yul\":2806:2807   */\n          dup4\n            /* \"#utility.yul\":2788:2808   */\n          tag_40\n          jump\t// in\n        tag_84:\n            /* \"#utility.yul\":2783:2808   */\n          swap3\n          pop\n            /* \"#utility.yul\":2843:2844   */\n          dup3\n            /* \"#utility.yul\":2840:2841   */\n          dup3\n            /* \"#utility.yul\":2836:2845   */\n          mul\n            /* \"#utility.yul\":2865:2895   */\n          tag_85\n            /* \"#utility.yul\":2883:2894   */\n          dup2\n            /* \"#utility.yul\":2865:2895   */\n          tag_40\n          jump\t// in\n        tag_85:\n            /* \"#utility.yul\":2854:2895   */\n          swap2\n          pop\n            /* \"#utility.yul\":3044:3045   */\n          dup3\n            /* \"#utility.yul\":3035:3042   */\n          dup3\n            /* \"#utility.yul\":3031:3046   */\n          div\n            /* \"#utility.yul\":3028:3029   */\n          dup5\n            /* \"#utility.yul\":3025:3047   */\n          eq\n            /* \"#utility.yul\":3005:3006   */\n          dup4\n            /* \"#utility.yul\":2998:3007   */\n          iszero\n            /* \"#utility.yul\":2978:3061   */\n          or\n            /* \"#utility.yul\":2955:3094   */\n          tag_86\n          jumpi\n            /* \"#utility.yul\":3074:3092   */\n          tag_87\n          tag_44\n          jump\t// in\n        tag_87:\n            /* \"#utility.yul\":2955:3094   */\n        tag_86:\n            /* \"#utility.yul\":2739:3101   */\n          pop\n            /* \"#utility.yul\":2691:3101   */\n          swap3\n          swap2\n          pop\n          pop\n          jump\t// out\n\n        auxdata: 0xa2646970667358221220185361af34f0ab7cc69dad06bdc6ca66092f9962bcbced986e2c46be5155453464736f6c634300081a0033\n    }\n}\n",
				"bytecode": {
					"linkReferences": {},
					"object": "608060405260405161001090610144565b604051809103905ff080158015610029573d5f803e3d5ffd5b505f806101000a81548173ffffffffffffffffffffffffffffffffffffffff021916908373ffffffffffffffffffffffffffffffffffffffff1602179055505f8054906101000a900473ffffffffffffffffffffffffffffffffffffffff1673ffffffffffffffffffffffffffffffffffffffff1663481c6a756040518163ffffffff1660e01b8152600401602060405180830381865afa1580156100d0573d5f803e3d5ffd5b505050506040513d601f19601f820116820180604052508101906100f491906101af565b60015f6101000a81548173ffffffffffffffffffffffffffffffffffffffff021916908373ffffffffffffffffffffffffffffffffffffffff16021790555034801561013e575f80fd5b506101da565b6103b8806104c683390190565b5f80fd5b5f73ffffffffffffffffffffffffffffffffffffffff82169050919050565b5f61017e82610155565b9050919050565b61018e81610174565b8114610198575f80fd5b50565b5f815190506101a981610185565b92915050565b5f602082840312156101c4576101c3610151565b5b5f6101d18482850161019b565b91505092915050565b6102df806101e75f395ff3fe608060405234801561000f575f80fd5b5060043610610034575f3560e01c806333a0a3f614610038578063481c6a7514610068575b5f80fd5b610052600480360381019061004d9190610185565b610086565b60405161005f91906101d2565b60405180910390f35b610070610129565b60405161007d919061022a565b60405180910390f35b5f805f9054906101000a900473ffffffffffffffffffffffffffffffffffffffff1673ffffffffffffffffffffffffffffffffffffffff1663771602f784846040518363ffffffff1660e01b81526004016100e2929190610243565b602060405180830381865afa1580156100fd573d5f803e3d5ffd5b505050506040513d601f19601f82011682018060405250810190610121919061027e565b905092915050565b60015f9054906101000a900473ffffffffffffffffffffffffffffffffffffffff1681565b5f80fd5b5f819050919050565b61016481610152565b811461016e575f80fd5b50565b5f8135905061017f8161015b565b92915050565b5f806040838503121561019b5761019a61014e565b5b5f6101a885828601610171565b92505060206101b985828601610171565b9150509250929050565b6101cc81610152565b82525050565b5f6020820190506101e55f8301846101c3565b92915050565b5f73ffffffffffffffffffffffffffffffffffffffff82169050919050565b5f610214826101eb565b9050919050565b6102248161020a565b82525050565b5f60208201905061023d5f83018461021b565b92915050565b5f6040820190506102565f8301856101c3565b61026360208301846101c3565b9392505050565b5f815190506102788161015b565b92915050565b5f602082840312156102935761029261014e565b5b5f6102a08482850161026a565b9150509291505056fea26469706673582212207e6924e2c891a6d5d32d104b55217711dc910f65c00efc5f326869abd6599b0264736f6c634300081a00336080604052348015600e575f80fd5b50335f806101000a81548173ffffffffffffffffffffffffffffffffffffffff021916908373ffffffffffffffffffffffffffffffffffffffff16021790555061035d8061005b5f395ff3fe608060405234801561000f575f80fd5b506004361061004a575f3560e01c8063481c6a751461004e578063771602f71461006c578063a391c15b1461009c578063c8a4ac9c146100cc575b5f80fd5b6100566100fc565b604051610063919061019d565b60405180910390f35b610086600480360381019061008191906101ed565b61011f565b604051610093919061023a565b60405180910390f35b6100b660048036038101906100b191906101ed565b610134565b6040516100c3919061023a565b60405180910390f35b6100e660048036038101906100e191906101ed565b610149565b6040516100f3919061023a565b60405180910390f35b5f8054906101000a900473ffffffffffffffffffffffffffffffffffffffff1681565b5f818361012c9190610280565b905092915050565b5f818361014191906102b3565b905092915050565b5f818361015691906102e6565b905092915050565b5f73ffffffffffffffffffffffffffffffffffffffff82169050919050565b5f6101878261015e565b9050919050565b6101978161017d565b82525050565b5f6020820190506101b05f83018461018e565b92915050565b5f80fd5b5f819050919050565b6101cc816101ba565b81146101d6575f80fd5b50565b5f813590506101e7816101c3565b92915050565b5f8060408385031215610203576102026101b6565b5b5f610210858286016101d9565b9250506020610221858286016101d9565b9150509250929050565b610234816101ba565b82525050565b5f60208201905061024d5f83018461022b565b92915050565b7f4e487b71000000000000000000000000000000000000000000000000000000005f52601160045260245ffd5b5f61028a826101ba565b9150610295836101ba565b92508282019050808211156102ad576102ac610253565b5b92915050565b5f6102bd826101ba565b91506102c8836101ba565b92508282039050818111156102e0576102df610253565b5b92915050565b5f6102f0826101ba565b91506102fb836101ba565b9250828202610309816101ba565b915082820484148315176103205761031f610253565b5b509291505056fea2646970667358221220185361af34f0ab7cc69dad06bdc6ca66092f9962bcbced986e2c46be5155453464736f6c634300081a0033",
					"opcodes": "PUSH1 0x80 PUSH1 0x40 MSTORE PUSH1 0x40 MLOAD PUSH2 0x10 SWAP1 PUSH2 0x144 JUMP JUMPDEST PUSH1 0x40 MLOAD DUP1 SWAP2 SUB SWAP1 PUSH0 CREATE DUP1 ISZERO DUP1 ISZERO PUSH2 0x29 JUMPI RETURNDATASIZE PUSH0 DUP1 RETURNDATACOPY RETURNDATASIZE PUSH0 REVERT JUMPDEST POP PUSH0 DUP1 PUSH2 0x100 EXP DUP2 SLOAD DUP2 PUSH20 0xFFFFFFFFFFFFFFFFFFFFFFFFFFFFFFFFFFFFFFFF MUL NOT AND SWAP1 DUP4 PUSH20 0xFFFFFFFFFFFFFFFFFFFFFFFFFFFFFFFFFFFFFFFF AND MUL OR SWAP1 SSTORE POP PUSH0 DUP1 SLOAD SWAP1 PUSH2 0x100 EXP SWAP1 DIV PUSH20 0xFFFFFFFFFFFFFFFFFFFFFFFFFFFFFFFFFFFFFFFF AND PUSH20 0xFFFFFFFFFFFFFFFFFFFFFFFFFFFFFFFFFFFFFFFF AND PUSH4 0x481C6A75 PUSH1 0x40 MLOAD DUP2 PUSH4 0xFFFFFFFF AND PUSH1 0xE0 SHL DUP2 MSTORE PUSH1 0x4 ADD PUSH1 0x20 PUSH1 0x40 MLOAD DUP1 DUP4 SUB DUP2 DUP7 GAS STATICCALL ISZERO DUP1 ISZERO PUSH2 0xD0 JUMPI RETURNDATASIZE PUSH0 DUP1 RETURNDATACOPY RETURNDATASIZE PUSH0 REVERT JUMPDEST POP POP POP POP PUSH1 0x40 MLOAD RETURNDATASIZE PUSH1 0x1F NOT PUSH1 0x1F DUP3 ADD AND DUP3 ADD DUP1 PUSH1 0x40 MSTORE POP DUP2 ADD SWAP1 PUSH2 0xF4 SWAP2 SWAP1 PUSH2 0x1AF JUMP JUMPDEST PUSH1 0x1 PUSH0 PUSH2 0x100 EXP DUP2 SLOAD DUP2 PUSH20 0xFFFFFFFFFFFFFFFFFFFFFFFFFFFFFFFFFFFFFFFF MUL NOT AND SWAP1 DUP4 PUSH20 0xFFFFFFFFFFFFFFFFFFFFFFFFFFFFFFFFFFFFFFFF AND MUL OR SWAP1 SSTORE POP CALLVALUE DUP1 ISZERO PUSH2 0x13E JUMPI PUSH0 DUP1 REVERT JUMPDEST POP PUSH2 0x1DA JUMP JUMPDEST PUSH2 0x3B8 DUP1 PUSH2 0x4C6 DUP4 CODECOPY ADD SWAP1 JUMP JUMPDEST PUSH0 DUP1 REVERT JUMPDEST PUSH0 PUSH20 0xFFFFFFFFFFFFFFFFFFFFFFFFFFFFFFFFFFFFFFFF DUP3 AND SWAP1 POP SWAP2 SWAP1 POP JUMP JUMPDEST PUSH0 PUSH2 0x17E DUP3 PUSH2 0x155 JUMP JUMPDEST SWAP1 POP SWAP2 SWAP1 POP JUMP JUMPDEST PUSH2 0x18E DUP2 PUSH2 0x174 JUMP JUMPDEST DUP2 EQ PUSH2 0x198 JUMPI PUSH0 DUP1 REVERT JUMPDEST POP JUMP JUMPDEST PUSH0 DUP2 MLOAD SWAP1 POP PUSH2 0x1A9 DUP2 PUSH2 0x185 JUMP JUMPDEST SWAP3 SWAP2 POP POP JUMP JUMPDEST PUSH0 PUSH1 0x20 DUP3 DUP5 SUB SLT ISZERO PUSH2 0x1C4 JUMPI PUSH2 0x1C3 PUSH2 0x151 JUMP JUMPDEST JUMPDEST PUSH0 PUSH2 0x1D1 DUP5 DUP3 DUP6 ADD PUSH2 0x19B JUMP JUMPDEST SWAP2 POP POP SWAP3 SWAP2 POP POP JUMP JUMPDEST PUSH2 0x2DF DUP1 PUSH2 0x1E7 PUSH0 CODECOPY PUSH0 RETURN INVALID PUSH1 0x80 PUSH1 0x40 MSTORE CALLVALUE DUP1 ISZERO PUSH2 0xF JUMPI PUSH0 DUP1 REVERT JUMPDEST POP PUSH1 0x4 CALLDATASIZE LT PUSH2 0x34 JUMPI PUSH0 CALLDATALOAD PUSH1 0xE0 SHR DUP1 PUSH4 0x33A0A3F6 EQ PUSH2 0x38 JUMPI DUP1 PUSH4 0x481C6A75 EQ PUSH2 0x68 JUMPI JUMPDEST PUSH0 DUP1 REVERT JUMPDEST PUSH2 0x52 PUSH1 0x4 DUP1 CALLDATASIZE SUB DUP2 ADD SWAP1 PUSH2 0x4D SWAP2 SWAP1 PUSH2 0x185 JUMP JUMPDEST PUSH2 0x86 JUMP JUMPDEST PUSH1 0x40 MLOAD PUSH2 0x5F SWAP2 SWAP1 PUSH2 0x1D2 JUMP JUMPDEST PUSH1 0x40 MLOAD DUP1 SWAP2 SUB SWAP1 RETURN JUMPDEST PUSH2 0x70 PUSH2 0x129 JUMP JUMPDEST PUSH1 0x40 MLOAD PUSH2 0x7D SWAP2 SWAP1 PUSH2 0x22A JUMP JUMPDEST PUSH1 0x40 MLOAD DUP1 SWAP2 SUB SWAP1 RETURN JUMPDEST PUSH0 DUP1 PUSH0 SWAP1 SLOAD SWAP1 PUSH2 0x100 EXP SWAP1 DIV PUSH20 0xFFFFFFFFFFFFFFFFFFFFFFFFFFFFFFFFFFFFFFFF AND PUSH20 0xFFFFFFFFFFFFFFFFFFFFFFFFFFFFFFFFFFFFFFFF AND PUSH4 0x771602F7 DUP5 DUP5 PUSH1 0x40 MLOAD DUP4 PUSH4 0xFFFFFFFF AND PUSH1 0xE0 SHL DUP2 MSTORE PUSH1 0x4 ADD PUSH2 0xE2 SWAP3 SWAP2 SWAP1 PUSH2 0x243 JUMP JUMPDEST PUSH1 0x20 PUSH1 0x40 MLOAD DUP1 DUP4 SUB DUP2 DUP7 GAS STATICCALL ISZERO DUP1 ISZERO PUSH2 0xFD JUMPI RETURNDATASIZE PUSH0 DUP1 RETURNDATACOPY RETURNDATASIZE PUSH0 REVERT JUMPDEST POP POP POP POP PUSH1 0x40 MLOAD RETURNDATASIZE PUSH1 0x1F NOT PUSH1 0x1F DUP3 ADD AND DUP3 ADD DUP1 PUSH1 0x40 MSTORE POP DUP2 ADD SWAP1 PUSH2 0x121 SWAP2 SWAP1 PUSH2 0x27E JUMP JUMPDEST SWAP1 POP SWAP3 SWAP2 POP POP JUMP JUMPDEST PUSH1 0x1 PUSH0 SWAP1 SLOAD SWAP1 PUSH2 0x100 EXP SWAP1 DIV PUSH20 0xFFFFFFFFFFFFFFFFFFFFFFFFFFFFFFFFFFFFFFFF AND DUP2 JUMP JUMPDEST PUSH0 DUP1 REVERT JUMPDEST PUSH0 DUP2 SWAP1 POP SWAP2 SWAP1 POP JUMP JUMPDEST PUSH2 0x164 DUP2 PUSH2 0x152 JUMP JUMPDEST DUP2 EQ PUSH2 0x16E JUMPI PUSH0 DUP1 REVERT JUMPDEST POP JUMP JUMPDEST PUSH0 DUP2 CALLDATALOAD SWAP1 POP PUSH2 0x17F DUP2 PUSH2 0x15B JUMP JUMPDEST SWAP3 SWAP2 POP POP JUMP JUMPDEST PUSH0 DUP1 PUSH1 0x40 DUP4 DUP6 SUB SLT ISZERO PUSH2 0x19B JUMPI PUSH2 0x19A PUSH2 0x14E JUMP JUMPDEST JUMPDEST PUSH0 PUSH2 0x1A8 DUP6 DUP3 DUP7 ADD PUSH2 0x171 JUMP JUMPDEST SWAP3 POP POP PUSH1 0x20 PUSH2 0x1B9 DUP6 DUP3 DUP7 ADD PUSH2 0x171 JUMP JUMPDEST SWAP2 POP POP SWAP3 POP SWAP3 SWAP1 POP JUMP JUMPDEST PUSH2 0x1CC DUP2 PUSH2 0x152 JUMP JUMPDEST DUP3 MSTORE POP POP JUMP JUMPDEST PUSH0 PUSH1 0x20 DUP3 ADD SWAP1 POP PUSH2 0x1E5 PUSH0 DUP4 ADD DUP5 PUSH2 0x1C3 JUMP JUMPDEST SWAP3 SWAP2 POP POP JUMP JUMPDEST PUSH0 PUSH20 0xFFFFFFFFFFFFFFFFFFFFFFFFFFFFFFFFFFFFFFFF DUP3 AND SWAP1 POP SWAP2 SWAP1 POP JUMP JUMPDEST PUSH0 PUSH2 0x214 DUP3 PUSH2 0x1EB JUMP JUMPDEST SWAP1 POP SWAP2 SWAP1 POP JUMP JUMPDEST PUSH2 0x224 DUP2 PUSH2 0x20A JUMP JUMPDEST DUP3 MSTORE POP POP JUMP JUMPDEST PUSH0 PUSH1 0x20 DUP3 ADD SWAP1 POP PUSH2 0x23D PUSH0 DUP4 ADD DUP5 PUSH2 0x21B JUMP JUMPDEST SWAP3 SWAP2 POP POP JUMP JUMPDEST PUSH0 PUSH1 0x40 DUP3 ADD SWAP1 POP PUSH2 0x256 PUSH0 DUP4 ADD DUP6 PUSH2 0x1C3 JUMP JUMPDEST PUSH2 0x263 PUSH1 0x20 DUP4 ADD DUP5 PUSH2 0x1C3 JUMP JUMPDEST SWAP4 SWAP3 POP POP POP JUMP JUMPDEST PUSH0 DUP2 MLOAD SWAP1 POP PUSH2 0x278 DUP2 PUSH2 0x15B JUMP JUMPDEST SWAP3 SWAP2 POP POP JUMP JUMPDEST PUSH0 PUSH1 0x20 DUP3 DUP5 SUB SLT ISZERO PUSH2 0x293 JUMPI PUSH2 0x292 PUSH2 0x14E JUMP JUMPDEST JUMPDEST PUSH0 PUSH2 0x2A0 DUP5 DUP3 DUP6 ADD PUSH2 0x26A JUMP JUMPDEST SWAP2 POP POP SWAP3 SWAP2 POP POP JUMP INVALID LOG2 PUSH5 0x6970667358 0x22 SLT KECCAK256 PUSH31 0x6924E2C891A6D5D32D104B55217711DC910F65C00EFC5F326869ABD6599B02 PUSH5 0x736F6C6343 STOP ADDMOD BYTE STOP CALLER PUSH1 0x80 PUSH1 0x40 MSTORE CALLVALUE DUP1 ISZERO PUSH1 0xE JUMPI PUSH0 DUP1 REVERT JUMPDEST POP CALLER PUSH0 DUP1 PUSH2 0x100 EXP DUP2 SLOAD DUP2 PUSH20 0xFFFFFFFFFFFFFFFFFFFFFFFFFFFFFFFFFFFFFFFF MUL NOT AND SWAP1 DUP4 PUSH20 0xFFFFFFFFFFFFFFFFFFFFFFFFFFFFFFFFFFFFFFFF AND MUL OR SWAP1 SSTORE POP PUSH2 0x35D DUP1 PUSH2 0x5B PUSH0 CODECOPY PUSH0 RETURN INVALID PUSH1 0x80 PUSH1 0x40 MSTORE CALLVALUE DUP1 ISZERO PUSH2 0xF JUMPI PUSH0 DUP1 REVERT JUMPDEST POP PUSH1 0x4 CALLDATASIZE LT PUSH2 0x4A JUMPI PUSH0 CALLDATALOAD PUSH1 0xE0 SHR DUP1 PUSH4 0x481C6A75 EQ PUSH2 0x4E JUMPI DUP1 PUSH4 0x771602F7 EQ PUSH2 0x6C JUMPI DUP1 PUSH4 0xA391C15B EQ PUSH2 0x9C JUMPI DUP1 PUSH4 0xC8A4AC9C EQ PUSH2 0xCC JUMPI JUMPDEST PUSH0 DUP1 REVERT JUMPDEST PUSH2 0x56 PUSH2 0xFC JUMP JUMPDEST PUSH1 0x40 MLOAD PUSH2 0x63 SWAP2 SWAP1 PUSH2 0x19D JUMP JUMPDEST PUSH1 0x40 MLOAD DUP1 SWAP2 SUB SWAP1 RETURN JUMPDEST PUSH2 0x86 PUSH1 0x4 DUP1 CALLDATASIZE SUB DUP2 ADD SWAP1 PUSH2 0x81 SWAP2 SWAP1 PUSH2 0x1ED JUMP JUMPDEST PUSH2 0x11F JUMP JUMPDEST PUSH1 0x40 MLOAD PUSH2 0x93 SWAP2 SWAP1 PUSH2 0x23A JUMP JUMPDEST PUSH1 0x40 MLOAD DUP1 SWAP2 SUB SWAP1 RETURN JUMPDEST PUSH2 0xB6 PUSH1 0x4 DUP1 CALLDATASIZE SUB DUP2 ADD SWAP1 PUSH2 0xB1 SWAP2 SWAP1 PUSH2 0x1ED JUMP JUMPDEST PUSH2 0x134 JUMP JUMPDEST PUSH1 0x40 MLOAD PUSH2 0xC3 SWAP2 SWAP1 PUSH2 0x23A JUMP JUMPDEST PUSH1 0x40 MLOAD DUP1 SWAP2 SUB SWAP1 RETURN JUMPDEST PUSH2 0xE6 PUSH1 0x4 DUP1 CALLDATASIZE SUB DUP2 ADD SWAP1 PUSH2 0xE1 SWAP2 SWAP1 PUSH2 0x1ED JUMP JUMPDEST PUSH2 0x149 JUMP JUMPDEST PUSH1 0x40 MLOAD PUSH2 0xF3 SWAP2 SWAP1 PUSH2 0x23A JUMP JUMPDEST PUSH1 0x40 MLOAD DUP1 SWAP2 SUB SWAP1 RETURN JUMPDEST PUSH0 DUP1 SLOAD SWAP1 PUSH2 0x100 EXP SWAP1 DIV PUSH20 0xFFFFFFFFFFFFFFFFFFFFFFFFFFFFFFFFFFFFFFFF AND DUP2 JUMP JUMPDEST PUSH0 DUP2 DUP4 PUSH2 0x12C SWAP2 SWAP1 PUSH2 0x280 JUMP JUMPDEST SWAP1 POP SWAP3 SWAP2 POP POP JUMP JUMPDEST PUSH0 DUP2 DUP4 PUSH2 0x141 SWAP2 SWAP1 PUSH2 0x2B3 JUMP JUMPDEST SWAP1 POP SWAP3 SWAP2 POP POP JUMP JUMPDEST PUSH0 DUP2 DUP4 PUSH2 0x156 SWAP2 SWAP1 PUSH2 0x2E6 JUMP JUMPDEST SWAP1 POP SWAP3 SWAP2 POP POP JUMP JUMPDEST PUSH0 PUSH20 0xFFFFFFFFFFFFFFFFFFFFFFFFFFFFFFFFFFFFFFFF DUP3 AND SWAP1 POP SWAP2 SWAP1 POP JUMP JUMPDEST PUSH0 PUSH2 0x187 DUP3 PUSH2 0x15E JUMP JUMPDEST SWAP1 POP SWAP2 SWAP1 POP JUMP JUMPDEST PUSH2 0x197 DUP2 PUSH2 0x17D JUMP JUMPDEST DUP3 MSTORE POP POP JUMP JUMPDEST PUSH0 PUSH1 0x20 DUP3 ADD SWAP1 POP PUSH2 0x1B0 PUSH0 DUP4 ADD DUP5 PUSH2 0x18E JUMP JUMPDEST SWAP3 SWAP2 POP POP JUMP JUMPDEST PUSH0 DUP1 REVERT JUMPDEST PUSH0 DUP2 SWAP1 POP SWAP2 SWAP1 POP JUMP JUMPDEST PUSH2 0x1CC DUP2 PUSH2 0x1BA JUMP JUMPDEST DUP2 EQ PUSH2 0x1D6 JUMPI PUSH0 DUP1 REVERT JUMPDEST POP JUMP JUMPDEST PUSH0 DUP2 CALLDATALOAD SWAP1 POP PUSH2 0x1E7 DUP2 PUSH2 0x1C3 JUMP JUMPDEST SWAP3 SWAP2 POP POP JUMP JUMPDEST PUSH0 DUP1 PUSH1 0x40 DUP4 DUP6 SUB SLT ISZERO PUSH2 0x203 JUMPI PUSH2 0x202 PUSH2 0x1B6 JUMP JUMPDEST JUMPDEST PUSH0 PUSH2 0x210 DUP6 DUP3 DUP7 ADD PUSH2 0x1D9 JUMP JUMPDEST SWAP3 POP POP PUSH1 0x20 PUSH2 0x221 DUP6 DUP3 DUP7 ADD PUSH2 0x1D9 JUMP JUMPDEST SWAP2 POP POP SWAP3 POP SWAP3 SWAP1 POP JUMP JUMPDEST PUSH2 0x234 DUP2 PUSH2 0x1BA JUMP JUMPDEST DUP3 MSTORE POP POP JUMP JUMPDEST PUSH0 PUSH1 0x20 DUP3 ADD SWAP1 POP PUSH2 0x24D PUSH0 DUP4 ADD DUP5 PUSH2 0x22B JUMP JUMPDEST SWAP3 SWAP2 POP POP JUMP JUMPDEST PUSH32 0x4E487B7100000000000000000000000000000000000000000000000000000000 PUSH0 MSTORE PUSH1 0x11 PUSH1 0x4 MSTORE PUSH1 0x24 PUSH0 REVERT JUMPDEST PUSH0 PUSH2 0x28A DUP3 PUSH2 0x1BA JUMP JUMPDEST SWAP2 POP PUSH2 0x295 DUP4 PUSH2 0x1BA JUMP JUMPDEST SWAP3 POP DUP3 DUP3 ADD SWAP1 POP DUP1 DUP3 GT ISZERO PUSH2 0x2AD JUMPI PUSH2 0x2AC PUSH2 0x253 JUMP JUMPDEST JUMPDEST SWAP3 SWAP2 POP POP JUMP JUMPDEST PUSH0 PUSH2 0x2BD DUP3 PUSH2 0x1BA JUMP JUMPDEST SWAP2 POP PUSH2 0x2C8 DUP4 PUSH2 0x1BA JUMP JUMPDEST SWAP3 POP DUP3 DUP3 SUB SWAP1 POP DUP2 DUP2 GT ISZERO PUSH2 0x2E0 JUMPI PUSH2 0x2DF PUSH2 0x253 JUMP JUMPDEST JUMPDEST SWAP3 SWAP2 POP POP JUMP JUMPDEST PUSH0 PUSH2 0x2F0 DUP3 PUSH2 0x1BA JUMP JUMPDEST SWAP2 POP PUSH2 0x2FB DUP4 PUSH2 0x1BA JUMP JUMPDEST SWAP3 POP DUP3 DUP3 MUL PUSH2 0x309 DUP2 PUSH2 0x1BA JUMP JUMPDEST SWAP2 POP DUP3 DUP3 DIV DUP5 EQ DUP4 ISZERO OR PUSH2 0x320 JUMPI PUSH2 0x31F PUSH2 0x253 JUMP JUMPDEST JUMPDEST POP SWAP3 SWAP2 POP POP JUMP INVALID LOG2 PUSH5 0x6970667358 0x22 SLT KECCAK256 XOR MSTORE8 PUSH2 0xAF34 CREATE 0xAB PUSH29 0xC69DAD06BDC6CA66092F9962BCBCED986E2C46BE5155453464736F6C63 NUMBER STOP ADDMOD BYTE STOP CALLER "
				},
				"gasEstimates": {
					"creation": {
						"codeDepositCost": "147000",
						"executionCost": "infinite",
						"totalCost": "infinite"
					},
					"external": {
						"gettingNum(uint256,uint256)": "infinite",
						"manager()": "2508"
					}
				},
				"methodIdentifiers": {
					"gettingNum(uint256,uint256)": "33a0a3f6",
					"manager()": "481c6a75"
				}
			},
			"storageLayout": {
				"storage": [
					{
						"astId": 62,
						"contract": "contracts/OOPs/OOPa2.sol:anotherContract",
						"label": "calc",
						"offset": 0,
						"slot": "0",
						"type": "t_contract(Calculator)55"
					},
					{
						"astId": 67,
						"contract": "contracts/OOPs/OOPa2.sol:anotherContract",
						"label": "manager",
						"offset": 0,
						"slot": "1",
						"type": "t_address"
					}
				],
				"types": {
					"t_address": {
						"encoding": "inplace",
						"label": "address",
						"numberOfBytes": "20"
					},
					"t_contract(Calculator)55": {
						"encoding": "inplace",
						"label": "contract Calculator",
						"numberOfBytes": "20"
					}
				}
			},
			"userdoc": {
				"kind": "user",
				"methods": {},
				"version": 1
			}
		}
	}
}