{
	"contracts/OOPs/OOPs1.sol": {
		"anotherContract": {
			"abi": [
				{
					"inputs": [],
					"name": "gettingNum",
					"outputs": [
						{
							"internalType": "uint256",
							"name": "",
							"type": "uint256"
						}
					],
					"stateMutability": "view",
					"type": "function"
				}
			],
			"devdoc": {
				"kind": "dev",
				"methods": {},
				"version": 1
			},
			"evm": {
				"assembly": "    /* \"contracts/OOPs/OOPs1.sol\":277:444  contract anotherContract {... */\n  mstore(0x40, 0x80)\n    /* \"contracts/OOPs/OOPs1.sol\":325:338  new Storage() */\n  mload(0x40)\n  tag_1\n  swap1\n  tag_2\n  jump\t// in\ntag_1:\n  mload(0x40)\n  dup1\n  swap2\n  sub\n  swap1\n  0x00\n  create\n  dup1\n  iszero\n  dup1\n  iszero\n  tag_3\n  jumpi\n  returndatasize\n  0x00\n  dup1\n  returndatacopy\n  revert(0x00, returndatasize)\ntag_3:\n  pop\n    /* \"contracts/OOPs/OOPs1.sol\":311:338  Storage obj = new Storage() */\n  0x00\n  dup1\n  0x0100\n  exp\n  dup2\n  sload\n  dup2\n  0xffffffffffffffffffffffffffffffffffffffff\n  mul\n  not\n  and\n  swap1\n  dup4\n  0xffffffffffffffffffffffffffffffffffffffff\n  and\n  mul\n  or\n  swap1\n  sstore\n  pop\n    /* \"contracts/OOPs/OOPs1.sol\":277:444  contract anotherContract {... */\n  callvalue\n  dup1\n  iszero\n  tag_4\n  jumpi\n  0x00\n  dup1\n  revert\ntag_4:\n  pop\n  jump(tag_5)\ntag_2:\n  dataSize(sub_1)\n  dup1\n  dataOffset(sub_1)\n  dup4\n  codecopy\n  add\n  swap1\n  jump\t// out\ntag_5:\n  dataSize(sub_0)\n  dup1\n  dataOffset(sub_0)\n  0x00\n  codecopy\n  0x00\n  return\nstop\n\nsub_0: assembly {\n        /* \"contracts/OOPs/OOPs1.sol\":277:444  contract anotherContract {... */\n      mstore(0x40, 0x80)\n      callvalue\n      dup1\n      iszero\n      tag_1\n      jumpi\n      0x00\n      dup1\n      revert\n    tag_1:\n      pop\n      jumpi(tag_2, lt(calldatasize, 0x04))\n      shr(0xe0, calldataload(0x00))\n      dup1\n      0x8fe22b1a\n      eq\n      tag_3\n      jumpi\n    tag_2:\n      0x00\n      dup1\n      revert\n        /* \"contracts/OOPs/OOPs1.sol\":346:435  function gettingNum() public view returns (uint) {... */\n    tag_3:\n      tag_4\n      tag_5\n      jump\t// in\n    tag_4:\n      mload(0x40)\n      tag_6\n      swap2\n      swap1\n      tag_7\n      jump\t// in\n    tag_6:\n      mload(0x40)\n      dup1\n      swap2\n      sub\n      swap1\n      return\n    tag_5:\n        /* \"contracts/OOPs/OOPs1.sol\":389:393  uint */\n      0x00\n        /* \"contracts/OOPs/OOPs1.sol\":413:416  obj */\n      dup1\n      0x00\n      swap1\n      sload\n      swap1\n      0x0100\n      exp\n      swap1\n      div\n      0xffffffffffffffffffffffffffffffffffffffff\n      and\n        /* \"contracts/OOPs/OOPs1.sol\":413:426  obj.returnNum */\n      0xffffffffffffffffffffffffffffffffffffffff\n      and\n      0x6ee77baa\n        /* \"contracts/OOPs/OOPs1.sol\":413:428  obj.returnNum() */\n      mload(0x40)\n      dup2\n      0xffffffff\n      and\n      0xe0\n      shl\n      dup2\n      mstore\n      0x04\n      add\n      0x20\n      mload(0x40)\n      dup1\n      dup4\n      sub\n      dup2\n      dup7\n      gas\n      staticcall\n      iszero\n      dup1\n      iszero\n      tag_10\n      jumpi\n      returndatasize\n      0x00\n      dup1\n      returndatacopy\n      revert(0x00, returndatasize)\n    tag_10:\n      pop\n      pop\n      pop\n      pop\n      mload(0x40)\n      returndatasize\n      not(0x1f)\n      0x1f\n      dup3\n      add\n      and\n      dup3\n      add\n      dup1\n      0x40\n      mstore\n      pop\n      dup2\n      add\n      swap1\n      tag_11\n      swap2\n      swap1\n      tag_12\n      jump\t// in\n    tag_11:\n        /* \"contracts/OOPs/OOPs1.sol\":406:428  return obj.returnNum() */\n      swap1\n      pop\n        /* \"contracts/OOPs/OOPs1.sol\":346:435  function gettingNum() public view returns (uint) {... */\n      swap1\n      jump\t// out\n        /* \"#utility.yul\":7:84   */\n    tag_13:\n        /* \"#utility.yul\":44:51   */\n      0x00\n        /* \"#utility.yul\":73:78   */\n      dup2\n        /* \"#utility.yul\":62:78   */\n      swap1\n      pop\n        /* \"#utility.yul\":7:84   */\n      swap2\n      swap1\n      pop\n      jump\t// out\n        /* \"#utility.yul\":90:208   */\n    tag_14:\n        /* \"#utility.yul\":177:201   */\n      tag_23\n        /* \"#utility.yul\":195:200   */\n      dup2\n        /* \"#utility.yul\":177:201   */\n      tag_13\n      jump\t// in\n    tag_23:\n        /* \"#utility.yul\":172:175   */\n      dup3\n        /* \"#utility.yul\":165:202   */\n      mstore\n        /* \"#utility.yul\":90:208   */\n      pop\n      pop\n      jump\t// out\n        /* \"#utility.yul\":214:436   */\n    tag_7:\n        /* \"#utility.yul\":307:311   */\n      0x00\n        /* \"#utility.yul\":345:347   */\n      0x20\n        /* \"#utility.yul\":334:343   */\n      dup3\n        /* \"#utility.yul\":330:348   */\n      add\n        /* \"#utility.yul\":322:348   */\n      swap1\n      pop\n        /* \"#utility.yul\":358:429   */\n      tag_25\n        /* \"#utility.yul\":426:427   */\n      0x00\n        /* \"#utility.yul\":415:424   */\n      dup4\n        /* \"#utility.yul\":411:428   */\n      add\n        /* \"#utility.yul\":402:408   */\n      dup5\n        /* \"#utility.yul\":358:429   */\n      tag_14\n      jump\t// in\n    tag_25:\n        /* \"#utility.yul\":214:436   */\n      swap3\n      swap2\n      pop\n      pop\n      jump\t// out\n        /* \"#utility.yul\":523:640   */\n    tag_16:\n        /* \"#utility.yul\":632:633   */\n      0x00\n        /* \"#utility.yul\":629:630   */\n      dup1\n        /* \"#utility.yul\":622:634   */\n      revert\n        /* \"#utility.yul\":769:891   */\n    tag_18:\n        /* \"#utility.yul\":842:866   */\n      tag_30\n        /* \"#utility.yul\":860:865   */\n      dup2\n        /* \"#utility.yul\":842:866   */\n      tag_13\n      jump\t// in\n    tag_30:\n        /* \"#utility.yul\":835:840   */\n      dup2\n        /* \"#utility.yul\":832:867   */\n      eq\n        /* \"#utility.yul\":822:885   */\n      tag_31\n      jumpi\n        /* \"#utility.yul\":881:882   */\n      0x00\n        /* \"#utility.yul\":878:879   */\n      dup1\n        /* \"#utility.yul\":871:883   */\n      revert\n        /* \"#utility.yul\":822:885   */\n    tag_31:\n        /* \"#utility.yul\":769:891   */\n      pop\n      jump\t// out\n        /* \"#utility.yul\":897:1040   */\n    tag_19:\n        /* \"#utility.yul\":954:959   */\n      0x00\n        /* \"#utility.yul\":985:991   */\n      dup2\n        /* \"#utility.yul\":979:992   */\n      mload\n        /* \"#utility.yul\":970:992   */\n      swap1\n      pop\n        /* \"#utility.yul\":1001:1034   */\n      tag_33\n        /* \"#utility.yul\":1028:1033   */\n      dup2\n        /* \"#utility.yul\":1001:1034   */\n      tag_18\n      jump\t// in\n    tag_33:\n        /* \"#utility.yul\":897:1040   */\n      swap3\n      swap2\n      pop\n      pop\n      jump\t// out\n        /* \"#utility.yul\":1046:1397   */\n    tag_12:\n        /* \"#utility.yul\":1116:1122   */\n      0x00\n        /* \"#utility.yul\":1165:1167   */\n      0x20\n        /* \"#utility.yul\":1153:1162   */\n      dup3\n        /* \"#utility.yul\":1144:1151   */\n      dup5\n        /* \"#utility.yul\":1140:1163   */\n      sub\n        /* \"#utility.yul\":1136:1168   */\n      slt\n        /* \"#utility.yul\":1133:1252   */\n      iszero\n      tag_35\n      jumpi\n        /* \"#utility.yul\":1171:1250   */\n      tag_36\n      tag_16\n      jump\t// in\n    tag_36:\n        /* \"#utility.yul\":1133:1252   */\n    tag_35:\n        /* \"#utility.yul\":1291:1292   */\n      0x00\n        /* \"#utility.yul\":1316:1380   */\n      tag_37\n        /* \"#utility.yul\":1372:1379   */\n      dup5\n        /* \"#utility.yul\":1363:1369   */\n      dup3\n        /* \"#utility.yul\":1352:1361   */\n      dup6\n        /* \"#utility.yul\":1348:1370   */\n      add\n        /* \"#utility.yul\":1316:1380   */\n      tag_19\n      jump\t// in\n    tag_37:\n        /* \"#utility.yul\":1306:1380   */\n      swap2\n      pop\n        /* \"#utility.yul\":1262:1390   */\n      pop\n        /* \"#utility.yul\":1046:1397   */\n      swap3\n      swap2\n      pop\n      pop\n      jump\t// out\n\n    auxdata: 0xa26469706673582212206fc37b1d3078c3e26ce39a8ea5044d51faa373420778a144c96a0f7b3666ade864736f6c634300081a0033\n}\n\nsub_1: assembly {\n        /* \"contracts/OOPs/OOPs1.sol\":70:271  contract Storage{... */\n      mstore(0x40, 0x80)\n        /* \"contracts/OOPs/OOPs1.sol\":104:105  5 */\n      0x05\n        /* \"contracts/OOPs/OOPs1.sol\":93:105  uint num = 5 */\n      0x00\n      sstore\n        /* \"contracts/OOPs/OOPs1.sol\":70:271  contract Storage{... */\n      callvalue\n      dup1\n      iszero\n      tag_1\n      jumpi\n      0x00\n      dup1\n      revert\n    tag_1:\n      pop\n      dataSize(sub_0)\n      dup1\n      dataOffset(sub_0)\n      0x00\n      codecopy\n      0x00\n      return\n    stop\n\n    sub_0: assembly {\n            /* \"contracts/OOPs/OOPs1.sol\":70:271  contract Storage{... */\n          mstore(0x40, 0x80)\n          callvalue\n          dup1\n          iszero\n          tag_1\n          jumpi\n          0x00\n          dup1\n          revert\n        tag_1:\n          pop\n          jumpi(tag_2, lt(calldatasize, 0x04))\n          shr(0xe0, calldataload(0x00))\n          dup1\n          0x6ee77baa\n          eq\n          tag_3\n          jumpi\n          dup1\n          0xf847d32b\n          eq\n          tag_4\n          jumpi\n        tag_2:\n          0x00\n          dup1\n          revert\n            /* \"contracts/OOPs/OOPs1.sol\":191:268  function returnNum() public view  returns (uint){... */\n        tag_3:\n          tag_5\n          tag_6\n          jump\t// in\n        tag_5:\n          mload(0x40)\n          tag_7\n          swap2\n          swap1\n          tag_8\n          jump\t// in\n        tag_7:\n          mload(0x40)\n          dup1\n          swap2\n          sub\n          swap1\n          return\n            /* \"contracts/OOPs/OOPs1.sol\":114:181  function insertNum(uint _num) public  {... */\n        tag_4:\n          tag_9\n          0x04\n          dup1\n          calldatasize\n          sub\n          dup2\n          add\n          swap1\n          tag_10\n          swap2\n          swap1\n          tag_11\n          jump\t// in\n        tag_10:\n          tag_12\n          jump\t// in\n        tag_9:\n          stop\n            /* \"contracts/OOPs/OOPs1.sol\":191:268  function returnNum() public view  returns (uint){... */\n        tag_6:\n            /* \"contracts/OOPs/OOPs1.sol\":234:238  uint */\n          0x00\n            /* \"contracts/OOPs/OOPs1.sol\":257:260  num */\n          dup1\n          sload\n            /* \"contracts/OOPs/OOPs1.sol\":250:260  return num */\n          swap1\n          pop\n            /* \"contracts/OOPs/OOPs1.sol\":191:268  function returnNum() public view  returns (uint){... */\n          swap1\n          jump\t// out\n            /* \"contracts/OOPs/OOPs1.sol\":114:181  function insertNum(uint _num) public  {... */\n        tag_12:\n            /* \"contracts/OOPs/OOPs1.sol\":169:173  _num */\n          dup1\n            /* \"contracts/OOPs/OOPs1.sol\":163:166  num */\n          0x00\n            /* \"contracts/OOPs/OOPs1.sol\":163:173  num = _num */\n          dup2\n          swap1\n          sstore\n          pop\n            /* \"contracts/OOPs/OOPs1.sol\":114:181  function insertNum(uint _num) public  {... */\n          pop\n          jump\t// out\n            /* \"#utility.yul\":7:84   */\n        tag_15:\n            /* \"#utility.yul\":44:51   */\n          0x00\n            /* \"#utility.yul\":73:78   */\n          dup2\n            /* \"#utility.yul\":62:78   */\n          swap1\n          pop\n            /* \"#utility.yul\":7:84   */\n          swap2\n          swap1\n          pop\n          jump\t// out\n            /* \"#utility.yul\":90:208   */\n        tag_16:\n            /* \"#utility.yul\":177:201   */\n          tag_25\n            /* \"#utility.yul\":195:200   */\n          dup2\n            /* \"#utility.yul\":177:201   */\n          tag_15\n          jump\t// in\n        tag_25:\n            /* \"#utility.yul\":172:175   */\n          dup3\n            /* \"#utility.yul\":165:202   */\n          mstore\n            /* \"#utility.yul\":90:208   */\n          pop\n          pop\n          jump\t// out\n            /* \"#utility.yul\":214:436   */\n        tag_8:\n            /* \"#utility.yul\":307:311   */\n          0x00\n            /* \"#utility.yul\":345:347   */\n          0x20\n            /* \"#utility.yul\":334:343   */\n          dup3\n            /* \"#utility.yul\":330:348   */\n          add\n            /* \"#utility.yul\":322:348   */\n          swap1\n          pop\n            /* \"#utility.yul\":358:429   */\n          tag_27\n            /* \"#utility.yul\":426:427   */\n          0x00\n            /* \"#utility.yul\":415:424   */\n          dup4\n            /* \"#utility.yul\":411:428   */\n          add\n            /* \"#utility.yul\":402:408   */\n          dup5\n            /* \"#utility.yul\":358:429   */\n          tag_16\n          jump\t// in\n        tag_27:\n            /* \"#utility.yul\":214:436   */\n          swap3\n          swap2\n          pop\n          pop\n          jump\t// out\n            /* \"#utility.yul\":523:640   */\n        tag_18:\n            /* \"#utility.yul\":632:633   */\n          0x00\n            /* \"#utility.yul\":629:630   */\n          dup1\n            /* \"#utility.yul\":622:634   */\n          revert\n            /* \"#utility.yul\":769:891   */\n        tag_20:\n            /* \"#utility.yul\":842:866   */\n          tag_32\n            /* \"#utility.yul\":860:865   */\n          dup2\n            /* \"#utility.yul\":842:866   */\n          tag_15\n          jump\t// in\n        tag_32:\n            /* \"#utility.yul\":835:840   */\n          dup2\n            /* \"#utility.yul\":832:867   */\n          eq\n            /* \"#utility.yul\":822:885   */\n          tag_33\n          jumpi\n            /* \"#utility.yul\":881:882   */\n          0x00\n            /* \"#utility.yul\":878:879   */\n          dup1\n            /* \"#utility.yul\":871:883   */\n          revert\n            /* \"#utility.yul\":822:885   */\n        tag_33:\n            /* \"#utility.yul\":769:891   */\n          pop\n          jump\t// out\n            /* \"#utility.yul\":897:1036   */\n        tag_21:\n            /* \"#utility.yul\":943:948   */\n          0x00\n            /* \"#utility.yul\":981:987   */\n          dup2\n            /* \"#utility.yul\":968:988   */\n          calldataload\n            /* \"#utility.yul\":959:988   */\n          swap1\n          pop\n            /* \"#utility.yul\":997:1030   */\n          tag_35\n            /* \"#utility.yul\":1024:1029   */\n          dup2\n            /* \"#utility.yul\":997:1030   */\n          tag_20\n          jump\t// in\n        tag_35:\n            /* \"#utility.yul\":897:1036   */\n          swap3\n          swap2\n          pop\n          pop\n          jump\t// out\n            /* \"#utility.yul\":1042:1371   */\n        tag_11:\n            /* \"#utility.yul\":1101:1107   */\n          0x00\n            /* \"#utility.yul\":1150:1152   */\n          0x20\n            /* \"#utility.yul\":1138:1147   */\n          dup3\n            /* \"#utility.yul\":1129:1136   */\n          dup5\n            /* \"#utility.yul\":1125:1148   */\n          sub\n            /* \"#utility.yul\":1121:1153   */\n          slt\n            /* \"#utility.yul\":1118:1237   */\n          iszero\n          tag_37\n          jumpi\n            /* \"#utility.yul\":1156:1235   */\n          tag_38\n          tag_18\n          jump\t// in\n        tag_38:\n            /* \"#utility.yul\":1118:1237   */\n        tag_37:\n            /* \"#utility.yul\":1276:1277   */\n          0x00\n            /* \"#utility.yul\":1301:1354   */\n          tag_39\n            /* \"#utility.yul\":1346:1353   */\n          dup5\n            /* \"#utility.yul\":1337:1343   */\n          dup3\n            /* \"#utility.yul\":1326:1335   */\n          dup6\n            /* \"#utility.yul\":1322:1344   */\n          add\n            /* \"#utility.yul\":1301:1354   */\n          tag_21\n          jump\t// in\n        tag_39:\n            /* \"#utility.yul\":1291:1354   */\n          swap2\n          pop\n            /* \"#utility.yul\":1247:1364   */\n          pop\n            /* \"#utility.yul\":1042:1371   */\n          swap3\n          swap2\n          pop\n          pop\n          jump\t// out\n\n        auxdata: 0xa2646970667358221220073eb37a53eae742466e40b2597097d1f7f6a2a976a962977c09bc4a0c03fd1864736f6c634300081a0033\n    }\n}\n",
				"bytecode": {
					"linkReferences": {},
					"object": "6080604052604051600e906074565b604051809103905ff0801580156026573d5f803e3d5ffd5b505f806101000a81548173ffffffffffffffffffffffffffffffffffffffff021916908373ffffffffffffffffffffffffffffffffffffffff160217905550348015606f575f80fd5b506081565b6101638061022c83390190565b61019e8061008e5f395ff3fe608060405234801561000f575f80fd5b5060043610610029575f3560e01c80638fe22b1a1461002d575b5f80fd5b61003561004b565b60405161004291906100f6565b60405180910390f35b5f805f9054906101000a900473ffffffffffffffffffffffffffffffffffffffff1673ffffffffffffffffffffffffffffffffffffffff16636ee77baa6040518163ffffffff1660e01b8152600401602060405180830381865afa1580156100b5573d5f803e3d5ffd5b505050506040513d601f19601f820116820180604052508101906100d9919061013d565b905090565b5f819050919050565b6100f0816100de565b82525050565b5f6020820190506101095f8301846100e7565b92915050565b5f80fd5b61011c816100de565b8114610126575f80fd5b50565b5f8151905061013781610113565b92915050565b5f602082840312156101525761015161010f565b5b5f61015f84828501610129565b9150509291505056fea26469706673582212206fc37b1d3078c3e26ce39a8ea5044d51faa373420778a144c96a0f7b3666ade864736f6c634300081a0033608060405260055f553480156012575f80fd5b50610143806100205f395ff3fe608060405234801561000f575f80fd5b5060043610610034575f3560e01c80636ee77baa14610038578063f847d32b14610056575b5f80fd5b610040610072565b60405161004d919061009b565b60405180910390f35b610070600480360381019061006b91906100e2565b61007a565b005b5f8054905090565b805f8190555050565b5f819050919050565b61009581610083565b82525050565b5f6020820190506100ae5f83018461008c565b92915050565b5f80fd5b6100c181610083565b81146100cb575f80fd5b50565b5f813590506100dc816100b8565b92915050565b5f602082840312156100f7576100f66100b4565b5b5f610104848285016100ce565b9150509291505056fea2646970667358221220073eb37a53eae742466e40b2597097d1f7f6a2a976a962977c09bc4a0c03fd1864736f6c634300081a0033",
					"opcodes": "PUSH1 0x80 PUSH1 0x40 MSTORE PUSH1 0x40 MLOAD PUSH1 0xE SWAP1 PUSH1 0x74 JUMP JUMPDEST PUSH1 0x40 MLOAD DUP1 SWAP2 SUB SWAP1 PUSH0 CREATE DUP1 ISZERO DUP1 ISZERO PUSH1 0x26 JUMPI RETURNDATASIZE PUSH0 DUP1 RETURNDATACOPY RETURNDATASIZE PUSH0 REVERT JUMPDEST POP PUSH0 DUP1 PUSH2 0x100 EXP DUP2 SLOAD DUP2 PUSH20 0xFFFFFFFFFFFFFFFFFFFFFFFFFFFFFFFFFFFFFFFF MUL NOT AND SWAP1 DUP4 PUSH20 0xFFFFFFFFFFFFFFFFFFFFFFFFFFFFFFFFFFFFFFFF AND MUL OR SWAP1 SSTORE POP CALLVALUE DUP1 ISZERO PUSH1 0x6F JUMPI PUSH0 DUP1 REVERT JUMPDEST POP PUSH1 0x81 JUMP JUMPDEST PUSH2 0x163 DUP1 PUSH2 0x22C DUP4 CODECOPY ADD SWAP1 JUMP JUMPDEST PUSH2 0x19E DUP1 PUSH2 0x8E PUSH0 CODECOPY PUSH0 RETURN INVALID PUSH1 0x80 PUSH1 0x40 MSTORE CALLVALUE DUP1 ISZERO PUSH2 0xF JUMPI PUSH0 DUP1 REVERT JUMPDEST POP PUSH1 0x4 CALLDATASIZE LT PUSH2 0x29 JUMPI PUSH0 CALLDATALOAD PUSH1 0xE0 SHR DUP1 PUSH4 0x8FE22B1A EQ PUSH2 0x2D JUMPI JUMPDEST PUSH0 DUP1 REVERT JUMPDEST PUSH2 0x35 PUSH2 0x4B JUMP JUMPDEST PUSH1 0x40 MLOAD PUSH2 0x42 SWAP2 SWAP1 PUSH2 0xF6 JUMP JUMPDEST PUSH1 0x40 MLOAD DUP1 SWAP2 SUB SWAP1 RETURN JUMPDEST PUSH0 DUP1 PUSH0 SWAP1 SLOAD SWAP1 PUSH2 0x100 EXP SWAP1 DIV PUSH20 0xFFFFFFFFFFFFFFFFFFFFFFFFFFFFFFFFFFFFFFFF AND PUSH20 0xFFFFFFFFFFFFFFFFFFFFFFFFFFFFFFFFFFFFFFFF AND PUSH4 0x6EE77BAA PUSH1 0x40 MLOAD DUP2 PUSH4 0xFFFFFFFF AND PUSH1 0xE0 SHL DUP2 MSTORE PUSH1 0x4 ADD PUSH1 0x20 PUSH1 0x40 MLOAD DUP1 DUP4 SUB DUP2 DUP7 GAS STATICCALL ISZERO DUP1 ISZERO PUSH2 0xB5 JUMPI RETURNDATASIZE PUSH0 DUP1 RETURNDATACOPY RETURNDATASIZE PUSH0 REVERT JUMPDEST POP POP POP POP PUSH1 0x40 MLOAD RETURNDATASIZE PUSH1 0x1F NOT PUSH1 0x1F DUP3 ADD AND DUP3 ADD DUP1 PUSH1 0x40 MSTORE POP DUP2 ADD SWAP1 PUSH2 0xD9 SWAP2 SWAP1 PUSH2 0x13D JUMP JUMPDEST SWAP1 POP SWAP1 JUMP JUMPDEST PUSH0 DUP2 SWAP1 POP SWAP2 SWAP1 POP JUMP JUMPDEST PUSH2 0xF0 DUP2 PUSH2 0xDE JUMP JUMPDEST DUP3 MSTORE POP POP JUMP JUMPDEST PUSH0 PUSH1 0x20 DUP3 ADD SWAP1 POP PUSH2 0x109 PUSH0 DUP4 ADD DUP5 PUSH2 0xE7 JUMP JUMPDEST SWAP3 SWAP2 POP POP JUMP JUMPDEST PUSH0 DUP1 REVERT JUMPDEST PUSH2 0x11C DUP2 PUSH2 0xDE JUMP JUMPDEST DUP2 EQ PUSH2 0x126 JUMPI PUSH0 DUP1 REVERT JUMPDEST POP JUMP JUMPDEST PUSH0 DUP2 MLOAD SWAP1 POP PUSH2 0x137 DUP2 PUSH2 0x113 JUMP JUMPDEST SWAP3 SWAP2 POP POP JUMP JUMPDEST PUSH0 PUSH1 0x20 DUP3 DUP5 SUB SLT ISZERO PUSH2 0x152 JUMPI PUSH2 0x151 PUSH2 0x10F JUMP JUMPDEST JUMPDEST PUSH0 PUSH2 0x15F DUP5 DUP3 DUP6 ADD PUSH2 0x129 JUMP JUMPDEST SWAP2 POP POP SWAP3 SWAP2 POP POP JUMP INVALID LOG2 PUSH5 0x6970667358 0x22 SLT KECCAK256 PUSH16 0xC37B1D3078C3E26CE39A8EA5044D51FA LOG3 PUSH20 0x420778A144C96A0F7B3666ADE864736F6C634300 ADDMOD BYTE STOP CALLER PUSH1 0x80 PUSH1 0x40 MSTORE PUSH1 0x5 PUSH0 SSTORE CALLVALUE DUP1 ISZERO PUSH1 0x12 JUMPI PUSH0 DUP1 REVERT JUMPDEST POP PUSH2 0x143 DUP1 PUSH2 0x20 PUSH0 CODECOPY PUSH0 RETURN INVALID PUSH1 0x80 PUSH1 0x40 MSTORE CALLVALUE DUP1 ISZERO PUSH2 0xF JUMPI PUSH0 DUP1 REVERT JUMPDEST POP PUSH1 0x4 CALLDATASIZE LT PUSH2 0x34 JUMPI PUSH0 CALLDATALOAD PUSH1 0xE0 SHR DUP1 PUSH4 0x6EE77BAA EQ PUSH2 0x38 JUMPI DUP1 PUSH4 0xF847D32B EQ PUSH2 0x56 JUMPI JUMPDEST PUSH0 DUP1 REVERT JUMPDEST PUSH2 0x40 PUSH2 0x72 JUMP JUMPDEST PUSH1 0x40 MLOAD PUSH2 0x4D SWAP2 SWAP1 PUSH2 0x9B JUMP JUMPDEST PUSH1 0x40 MLOAD DUP1 SWAP2 SUB SWAP1 RETURN JUMPDEST PUSH2 0x70 PUSH1 0x4 DUP1 CALLDATASIZE SUB DUP2 ADD SWAP1 PUSH2 0x6B SWAP2 SWAP1 PUSH2 0xE2 JUMP JUMPDEST PUSH2 0x7A JUMP JUMPDEST STOP JUMPDEST PUSH0 DUP1 SLOAD SWAP1 POP SWAP1 JUMP JUMPDEST DUP1 PUSH0 DUP2 SWAP1 SSTORE POP POP JUMP JUMPDEST PUSH0 DUP2 SWAP1 POP SWAP2 SWAP1 POP JUMP JUMPDEST PUSH2 0x95 DUP2 PUSH2 0x83 JUMP JUMPDEST DUP3 MSTORE POP POP JUMP JUMPDEST PUSH0 PUSH1 0x20 DUP3 ADD SWAP1 POP PUSH2 0xAE PUSH0 DUP4 ADD DUP5 PUSH2 0x8C JUMP JUMPDEST SWAP3 SWAP2 POP POP JUMP JUMPDEST PUSH0 DUP1 REVERT JUMPDEST PUSH2 0xC1 DUP2 PUSH2 0x83 JUMP JUMPDEST DUP2 EQ PUSH2 0xCB JUMPI PUSH0 DUP1 REVERT JUMPDEST POP JUMP JUMPDEST PUSH0 DUP2 CALLDATALOAD SWAP1 POP PUSH2 0xDC DUP2 PUSH2 0xB8 JUMP JUMPDEST SWAP3 SWAP2 POP POP JUMP JUMPDEST PUSH0 PUSH1 0x20 DUP3 DUP5 SUB SLT ISZERO PUSH2 0xF7 JUMPI PUSH2 0xF6 PUSH2 0xB4 JUMP JUMPDEST JUMPDEST PUSH0 PUSH2 0x104 DUP5 DUP3 DUP6 ADD PUSH2 0xCE JUMP JUMPDEST SWAP2 POP POP SWAP3 SWAP2 POP POP JUMP INVALID LOG2 PUSH5 0x6970667358 0x22 SLT KECCAK256 SMOD RETURNDATACOPY 0xB3 PUSH27 0x53EAE742466E40B2597097D1F7F6A2A976A962977C09BC4A0C03FD XOR PUSH5 0x736F6C6343 STOP ADDMOD BYTE STOP CALLER "
				},
				"gasEstimates": {
					"creation": {
						"codeDepositCost": "82800",
						"executionCost": "infinite",
						"totalCost": "infinite"
					},
					"external": {
						"gettingNum()": "infinite"
					}
				},
				"methodIdentifiers": {
					"gettingNum()": "8fe22b1a"
				}
			},
			"storageLayout": {
				"storage": [
					{
						"astId": 30,
						"contract": "contracts/OOPs/OOPs1.sol:anotherContract",
						"label": "obj",
						"offset": 0,
						"slot": "0",
						"type": "t_contract(Storage)23"
					}
				],
				"types": {
					"t_contract(Storage)23": {
						"encoding": "inplace",
						"label": "contract Storage",
						"numberOfBytes": "20"
					}
				}
			},
			"userdoc": {
				"kind": "user",
				"methods": {},
				"version": 1
			}
		}
	}
}