{
	"contracts/Library/calculator.sol": {
		"calculator": {
			"abi": [
				{
					"inputs": [
						{
							"internalType": "uint256",
							"name": "a",
							"type": "uint256"
						},
						{
							"internalType": "uint256",
							"name": "b",
							"type": "uint256"
						}
					],
					"name": "adding",
					"outputs": [
						{
							"internalType": "uint256",
							"name": "",
							"type": "uint256"
						}
					],
					"stateMutability": "pure",
					"type": "function"
				},
				{
					"inputs": [
						{
							"internalType": "uint256",
							"name": "a",
							"type": "uint256"
						},
						{
							"internalType": "uint256",
							"name": "b",
							"type": "uint256"
						}
					],
					"name": "substracting",
					"outputs": [
						{
							"internalType": "uint256",
							"name": "",
							"type": "uint256"
						}
					],
					"stateMutability": "pure",
					"type": "function"
				}
			],
			"devdoc": {
				"kind": "dev",
				"methods": {},
				"version": 1
			},
			"evm": {
				"assembly": "    /* \"contracts/Library/calculator.sol\":96:406  contract calculator {... */\n  mstore(0x40, 0x80)\n  callvalue\n  dup1\n  iszero\n  tag_1\n  jumpi\n  0x00\n  dup1\n  revert\ntag_1:\n  pop\n  dataSize(sub_0)\n  dup1\n  dataOffset(sub_0)\n  0x00\n  codecopy\n  0x00\n  return\nstop\n\nsub_0: assembly {\n        /* \"contracts/Library/calculator.sol\":96:406  contract calculator {... */\n      mstore(0x40, 0x80)\n      callvalue\n      dup1\n      iszero\n      tag_1\n      jumpi\n      0x00\n      dup1\n      revert\n    tag_1:\n      pop\n      jumpi(tag_2, lt(calldatasize, 0x04))\n      shr(0xe0, calldataload(0x00))\n      dup1\n      0x75c0175c\n      eq\n      tag_3\n      jumpi\n      dup1\n      0xc2d32c6d\n      eq\n      tag_4\n      jumpi\n    tag_2:\n      0x00\n      dup1\n      revert\n        /* \"contracts/Library/calculator.sol\":298:397  function substracting(uint a, uint b) public pure returns (uint) {... */\n    tag_3:\n      tag_5\n      0x04\n      dup1\n      calldatasize\n      sub\n      dup2\n      add\n      swap1\n      tag_6\n      swap2\n      swap1\n      tag_7\n      jump\t// in\n    tag_6:\n      tag_8\n      jump\t// in\n    tag_5:\n      mload(0x40)\n      tag_9\n      swap2\n      swap1\n      tag_10\n      jump\t// in\n    tag_9:\n      mload(0x40)\n      dup1\n      swap2\n      sub\n      swap1\n      return\n        /* \"contracts/Library/calculator.sol\":161:292  function adding(uint a, uint b) public pure returns (uint) {... */\n    tag_4:\n      tag_11\n      0x04\n      dup1\n      calldatasize\n      sub\n      dup2\n      add\n      swap1\n      tag_12\n      swap2\n      swap1\n      tag_7\n      jump\t// in\n    tag_12:\n      tag_13\n      jump\t// in\n    tag_11:\n      mload(0x40)\n      tag_14\n      swap2\n      swap1\n      tag_10\n      jump\t// in\n    tag_14:\n      mload(0x40)\n      dup1\n      swap2\n      sub\n      swap1\n      return\n        /* \"contracts/Library/calculator.sol\":298:397  function substracting(uint a, uint b) public pure returns (uint) {... */\n    tag_8:\n        /* \"contracts/Library/calculator.sol\":357:361  uint */\n      0x00\n        /* \"contracts/Library/calculator.sol\":381:382  a */\n      dup3\n        /* \"contracts/Library/calculator.sol\":381:386  a.sub */\n      linkerSymbol(\"e64ceaa701d6b816a4509bef9c961a5614d5c426ace81b38d0f0699be09b89b7\")\n      0xb67d77c5\n      swap1\n      swap2\n        /* \"contracts/Library/calculator.sol\":387:388  b */\n      dup5\n        /* \"contracts/Library/calculator.sol\":381:389  a.sub(b) */\n      mload(0x40)\n      dup4\n      0xffffffff\n      and\n      0xe0\n      shl\n      dup2\n      mstore\n      0x04\n      add\n      tag_16\n      swap3\n      swap2\n      swap1\n      tag_17\n      jump\t// in\n    tag_16:\n      0x20\n      mload(0x40)\n      dup1\n      dup4\n      sub\n      dup2\n      dup7\n      gas\n      delegatecall\n      iszero\n      dup1\n      iszero\n      tag_19\n      jumpi\n      returndatasize\n      0x00\n      dup1\n      returndatacopy\n      revert(0x00, returndatasize)\n    tag_19:\n      pop\n      pop\n      pop\n      pop\n      mload(0x40)\n      returndatasize\n      not(0x1f)\n      0x1f\n      dup3\n      add\n      and\n      dup3\n      add\n      dup1\n      0x40\n      mstore\n      pop\n      dup2\n      add\n      swap1\n      tag_20\n      swap2\n      swap1\n      tag_21\n      jump\t// in\n    tag_20:\n        /* \"contracts/Library/calculator.sol\":374:389  return a.sub(b) */\n      swap1\n      pop\n        /* \"contracts/Library/calculator.sol\":298:397  function substracting(uint a, uint b) public pure returns (uint) {... */\n      swap3\n      swap2\n      pop\n      pop\n      jump\t// out\n        /* \"contracts/Library/calculator.sol\":161:292  function adding(uint a, uint b) public pure returns (uint) {... */\n    tag_13:\n        /* \"contracts/Library/calculator.sol\":214:218  uint */\n      0x00\n        /* \"contracts/Library/calculator.sol\":238:246  SafeMath */\n      linkerSymbol(\"e64ceaa701d6b816a4509bef9c961a5614d5c426ace81b38d0f0699be09b89b7\")\n        /* \"contracts/Library/calculator.sol\":238:250  SafeMath.add */\n      0x771602f7\n        /* \"contracts/Library/calculator.sol\":251:252  a */\n      dup5\n        /* \"contracts/Library/calculator.sol\":253:254  b */\n      dup5\n        /* \"contracts/Library/calculator.sol\":238:255  SafeMath.add(a,b) */\n      mload(0x40)\n      dup4\n      0xffffffff\n      and\n      0xe0\n      shl\n      dup2\n      mstore\n      0x04\n      add\n      tag_23\n      swap3\n      swap2\n      swap1\n      tag_17\n      jump\t// in\n    tag_23:\n      0x20\n      mload(0x40)\n      dup1\n      dup4\n      sub\n      dup2\n      dup7\n      gas\n      delegatecall\n      iszero\n      dup1\n      iszero\n      tag_25\n      jumpi\n      returndatasize\n      0x00\n      dup1\n      returndatacopy\n      revert(0x00, returndatasize)\n    tag_25:\n      pop\n      pop\n      pop\n      pop\n      mload(0x40)\n      returndatasize\n      not(0x1f)\n      0x1f\n      dup3\n      add\n      and\n      dup3\n      add\n      dup1\n      0x40\n      mstore\n      pop\n      dup2\n      add\n      swap1\n      tag_26\n      swap2\n      swap1\n      tag_21\n      jump\t// in\n    tag_26:\n        /* \"contracts/Library/calculator.sol\":231:255  return SafeMath.add(a,b) */\n      swap1\n      pop\n        /* \"contracts/Library/calculator.sol\":161:292  function adding(uint a, uint b) public pure returns (uint) {... */\n      swap3\n      swap2\n      pop\n      pop\n      jump\t// out\n        /* \"#utility.yul\":88:205   */\n    tag_28:\n        /* \"#utility.yul\":197:198   */\n      0x00\n        /* \"#utility.yul\":194:195   */\n      dup1\n        /* \"#utility.yul\":187:199   */\n      revert\n        /* \"#utility.yul\":334:411   */\n    tag_30:\n        /* \"#utility.yul\":371:378   */\n      0x00\n        /* \"#utility.yul\":400:405   */\n      dup2\n        /* \"#utility.yul\":389:405   */\n      swap1\n      pop\n        /* \"#utility.yul\":334:411   */\n      swap2\n      swap1\n      pop\n      jump\t// out\n        /* \"#utility.yul\":417:539   */\n    tag_31:\n        /* \"#utility.yul\":490:514   */\n      tag_42\n        /* \"#utility.yul\":508:513   */\n      dup2\n        /* \"#utility.yul\":490:514   */\n      tag_30\n      jump\t// in\n    tag_42:\n        /* \"#utility.yul\":483:488   */\n      dup2\n        /* \"#utility.yul\":480:515   */\n      eq\n        /* \"#utility.yul\":470:533   */\n      tag_43\n      jumpi\n        /* \"#utility.yul\":529:530   */\n      0x00\n        /* \"#utility.yul\":526:527   */\n      dup1\n        /* \"#utility.yul\":519:531   */\n      revert\n        /* \"#utility.yul\":470:533   */\n    tag_43:\n        /* \"#utility.yul\":417:539   */\n      pop\n      jump\t// out\n        /* \"#utility.yul\":545:684   */\n    tag_32:\n        /* \"#utility.yul\":591:596   */\n      0x00\n        /* \"#utility.yul\":629:635   */\n      dup2\n        /* \"#utility.yul\":616:636   */\n      calldataload\n        /* \"#utility.yul\":607:636   */\n      swap1\n      pop\n        /* \"#utility.yul\":645:678   */\n      tag_45\n        /* \"#utility.yul\":672:677   */\n      dup2\n        /* \"#utility.yul\":645:678   */\n      tag_31\n      jump\t// in\n    tag_45:\n        /* \"#utility.yul\":545:684   */\n      swap3\n      swap2\n      pop\n      pop\n      jump\t// out\n        /* \"#utility.yul\":690:1164   */\n    tag_7:\n        /* \"#utility.yul\":758:764   */\n      0x00\n        /* \"#utility.yul\":766:772   */\n      dup1\n        /* \"#utility.yul\":815:817   */\n      0x40\n        /* \"#utility.yul\":803:812   */\n      dup4\n        /* \"#utility.yul\":794:801   */\n      dup6\n        /* \"#utility.yul\":790:813   */\n      sub\n        /* \"#utility.yul\":786:818   */\n      slt\n        /* \"#utility.yul\":783:902   */\n      iszero\n      tag_47\n      jumpi\n        /* \"#utility.yul\":821:900   */\n      tag_48\n      tag_28\n      jump\t// in\n    tag_48:\n        /* \"#utility.yul\":783:902   */\n    tag_47:\n        /* \"#utility.yul\":941:942   */\n      0x00\n        /* \"#utility.yul\":966:1019   */\n      tag_49\n        /* \"#utility.yul\":1011:1018   */\n      dup6\n        /* \"#utility.yul\":1002:1008   */\n      dup3\n        /* \"#utility.yul\":991:1000   */\n      dup7\n        /* \"#utility.yul\":987:1009   */\n      add\n        /* \"#utility.yul\":966:1019   */\n      tag_32\n      jump\t// in\n    tag_49:\n        /* \"#utility.yul\":956:1019   */\n      swap3\n      pop\n        /* \"#utility.yul\":912:1029   */\n      pop\n        /* \"#utility.yul\":1068:1070   */\n      0x20\n        /* \"#utility.yul\":1094:1147   */\n      tag_50\n        /* \"#utility.yul\":1139:1146   */\n      dup6\n        /* \"#utility.yul\":1130:1136   */\n      dup3\n        /* \"#utility.yul\":1119:1128   */\n      dup7\n        /* \"#utility.yul\":1115:1137   */\n      add\n        /* \"#utility.yul\":1094:1147   */\n      tag_32\n      jump\t// in\n    tag_50:\n        /* \"#utility.yul\":1084:1147   */\n      swap2\n      pop\n        /* \"#utility.yul\":1039:1157   */\n      pop\n        /* \"#utility.yul\":690:1164   */\n      swap3\n      pop\n      swap3\n      swap1\n      pop\n      jump\t// out\n        /* \"#utility.yul\":1170:1288   */\n    tag_33:\n        /* \"#utility.yul\":1257:1281   */\n      tag_52\n        /* \"#utility.yul\":1275:1280   */\n      dup2\n        /* \"#utility.yul\":1257:1281   */\n      tag_30\n      jump\t// in\n    tag_52:\n        /* \"#utility.yul\":1252:1255   */\n      dup3\n        /* \"#utility.yul\":1245:1282   */\n      mstore\n        /* \"#utility.yul\":1170:1288   */\n      pop\n      pop\n      jump\t// out\n        /* \"#utility.yul\":1294:1516   */\n    tag_10:\n        /* \"#utility.yul\":1387:1391   */\n      0x00\n        /* \"#utility.yul\":1425:1427   */\n      0x20\n        /* \"#utility.yul\":1414:1423   */\n      dup3\n        /* \"#utility.yul\":1410:1428   */\n      add\n        /* \"#utility.yul\":1402:1428   */\n      swap1\n      pop\n        /* \"#utility.yul\":1438:1509   */\n      tag_54\n        /* \"#utility.yul\":1506:1507   */\n      0x00\n        /* \"#utility.yul\":1495:1504   */\n      dup4\n        /* \"#utility.yul\":1491:1508   */\n      add\n        /* \"#utility.yul\":1482:1488   */\n      dup5\n        /* \"#utility.yul\":1438:1509   */\n      tag_33\n      jump\t// in\n    tag_54:\n        /* \"#utility.yul\":1294:1516   */\n      swap3\n      swap2\n      pop\n      pop\n      jump\t// out\n        /* \"#utility.yul\":1522:1648   */\n    tag_34:\n        /* \"#utility.yul\":1617:1641   */\n      tag_56\n        /* \"#utility.yul\":1635:1640   */\n      dup2\n        /* \"#utility.yul\":1617:1641   */\n      tag_30\n      jump\t// in\n    tag_56:\n        /* \"#utility.yul\":1612:1615   */\n      dup3\n        /* \"#utility.yul\":1605:1642   */\n      mstore\n        /* \"#utility.yul\":1522:1648   */\n      pop\n      pop\n      jump\t// out\n        /* \"#utility.yul\":1654:2010   */\n    tag_17:\n        /* \"#utility.yul\":1783:1787   */\n      0x00\n        /* \"#utility.yul\":1821:1823   */\n      0x40\n        /* \"#utility.yul\":1810:1819   */\n      dup3\n        /* \"#utility.yul\":1806:1824   */\n      add\n        /* \"#utility.yul\":1798:1824   */\n      swap1\n      pop\n        /* \"#utility.yul\":1834:1913   */\n      tag_58\n        /* \"#utility.yul\":1910:1911   */\n      0x00\n        /* \"#utility.yul\":1899:1908   */\n      dup4\n        /* \"#utility.yul\":1895:1912   */\n      add\n        /* \"#utility.yul\":1886:1892   */\n      dup6\n        /* \"#utility.yul\":1834:1913   */\n      tag_34\n      jump\t// in\n    tag_58:\n        /* \"#utility.yul\":1923:2003   */\n      tag_59\n        /* \"#utility.yul\":1999:2001   */\n      0x20\n        /* \"#utility.yul\":1988:1997   */\n      dup4\n        /* \"#utility.yul\":1984:2002   */\n      add\n        /* \"#utility.yul\":1975:1981   */\n      dup5\n        /* \"#utility.yul\":1923:2003   */\n      tag_34\n      jump\t// in\n    tag_59:\n        /* \"#utility.yul\":1654:2010   */\n      swap4\n      swap3\n      pop\n      pop\n      pop\n      jump\t// out\n        /* \"#utility.yul\":2016:2159   */\n    tag_35:\n        /* \"#utility.yul\":2073:2078   */\n      0x00\n        /* \"#utility.yul\":2104:2110   */\n      dup2\n        /* \"#utility.yul\":2098:2111   */\n      mload\n        /* \"#utility.yul\":2089:2111   */\n      swap1\n      pop\n        /* \"#utility.yul\":2120:2153   */\n      tag_61\n        /* \"#utility.yul\":2147:2152   */\n      dup2\n        /* \"#utility.yul\":2120:2153   */\n      tag_31\n      jump\t// in\n    tag_61:\n        /* \"#utility.yul\":2016:2159   */\n      swap3\n      swap2\n      pop\n      pop\n      jump\t// out\n        /* \"#utility.yul\":2165:2516   */\n    tag_21:\n        /* \"#utility.yul\":2235:2241   */\n      0x00\n        /* \"#utility.yul\":2284:2286   */\n      0x20\n        /* \"#utility.yul\":2272:2281   */\n      dup3\n        /* \"#utility.yul\":2263:2270   */\n      dup5\n        /* \"#utility.yul\":2259:2282   */\n      sub\n        /* \"#utility.yul\":2255:2287   */\n      slt\n        /* \"#utility.yul\":2252:2371   */\n      iszero\n      tag_63\n      jumpi\n        /* \"#utility.yul\":2290:2369   */\n      tag_64\n      tag_28\n      jump\t// in\n    tag_64:\n        /* \"#utility.yul\":2252:2371   */\n    tag_63:\n        /* \"#utility.yul\":2410:2411   */\n      0x00\n        /* \"#utility.yul\":2435:2499   */\n      tag_65\n        /* \"#utility.yul\":2491:2498   */\n      dup5\n        /* \"#utility.yul\":2482:2488   */\n      dup3\n        /* \"#utility.yul\":2471:2480   */\n      dup6\n        /* \"#utility.yul\":2467:2489   */\n      add\n        /* \"#utility.yul\":2435:2499   */\n      tag_35\n      jump\t// in\n    tag_65:\n        /* \"#utility.yul\":2425:2499   */\n      swap2\n      pop\n        /* \"#utility.yul\":2381:2509   */\n      pop\n        /* \"#utility.yul\":2165:2516   */\n      swap3\n      swap2\n      pop\n      pop\n      jump\t// out\n\n    auxdata: 0xa26469706673582212202598a027d70aead18583c6042c8ad253ebf19608e092d7175d447cf48293348c64736f6c634300081a0033\n}\n",
				"bytecode": {
					"linkReferences": {
						"contracts/Library/SafeMath.sol": {
							"SafeMath": [
								{
									"length": 20,
									"start": 184
								},
								{
									"length": 20,
									"start": 314
								}
							]
						}
					},
					"object": "6080604052348015600e575f80fd5b506102e48061001c5f395ff3fe608060405234801561000f575f80fd5b5060043610610034575f3560e01c806375c0175c14610038578063c2d32c6d14610068575b5f80fd5b610052600480360381019061004d91906101d3565b610098565b60405161005f9190610220565b60405180910390f35b610082600480360381019061007d91906101d3565b61011b565b60405161008f9190610220565b60405180910390f35b5f8273__$e64ceaa701d6b816a4509bef9c961a5614$__63b67d77c59091846040518363ffffffff1660e01b81526004016100d4929190610248565b602060405180830381865af41580156100ef573d5f803e3d5ffd5b505050506040513d601f19601f820116820180604052508101906101139190610283565b905092915050565b5f73__$e64ceaa701d6b816a4509bef9c961a5614$__63771602f784846040518363ffffffff1660e01b8152600401610155929190610248565b602060405180830381865af4158015610170573d5f803e3d5ffd5b505050506040513d601f19601f820116820180604052508101906101949190610283565b905092915050565b5f80fd5b5f819050919050565b6101b2816101a0565b81146101bc575f80fd5b50565b5f813590506101cd816101a9565b92915050565b5f80604083850312156101e9576101e861019c565b5b5f6101f6858286016101bf565b9250506020610207858286016101bf565b9150509250929050565b61021a816101a0565b82525050565b5f6020820190506102335f830184610211565b92915050565b610242816101a0565b82525050565b5f60408201905061025b5f830185610239565b6102686020830184610239565b9392505050565b5f8151905061027d816101a9565b92915050565b5f602082840312156102985761029761019c565b5b5f6102a58482850161026f565b9150509291505056fea26469706673582212202598a027d70aead18583c6042c8ad253ebf19608e092d7175d447cf48293348c64736f6c634300081a0033",
					"opcodes": "PUSH1 0x80 PUSH1 0x40 MSTORE CALLVALUE DUP1 ISZERO PUSH1 0xE JUMPI PUSH0 DUP1 REVERT JUMPDEST POP PUSH2 0x2E4 DUP1 PUSH2 0x1C PUSH0 CODECOPY PUSH0 RETURN INVALID PUSH1 0x80 PUSH1 0x40 MSTORE CALLVALUE DUP1 ISZERO PUSH2 0xF JUMPI PUSH0 DUP1 REVERT JUMPDEST POP PUSH1 0x4 CALLDATASIZE LT PUSH2 0x34 JUMPI PUSH0 CALLDATALOAD PUSH1 0xE0 SHR DUP1 PUSH4 0x75C0175C EQ PUSH2 0x38 JUMPI DUP1 PUSH4 0xC2D32C6D EQ PUSH2 0x68 JUMPI JUMPDEST PUSH0 DUP1 REVERT JUMPDEST PUSH2 0x52 PUSH1 0x4 DUP1 CALLDATASIZE SUB DUP2 ADD SWAP1 PUSH2 0x4D SWAP2 SWAP1 PUSH2 0x1D3 JUMP JUMPDEST PUSH2 0x98 JUMP JUMPDEST PUSH1 0x40 MLOAD PUSH2 0x5F SWAP2 SWAP1 PUSH2 0x220 JUMP JUMPDEST PUSH1 0x40 MLOAD DUP1 SWAP2 SUB SWAP1 RETURN JUMPDEST PUSH2 0x82 PUSH1 0x4 DUP1 CALLDATASIZE SUB DUP2 ADD SWAP1 PUSH2 0x7D SWAP2 SWAP1 PUSH2 0x1D3 JUMP JUMPDEST PUSH2 0x11B JUMP JUMPDEST PUSH1 0x40 MLOAD PUSH2 0x8F SWAP2 SWAP1 PUSH2 0x220 JUMP JUMPDEST PUSH1 0x40 MLOAD DUP1 SWAP2 SUB SWAP1 RETURN JUMPDEST PUSH0 DUP3 PUSH20 0x0 PUSH4 0xB67D77C5 SWAP1 SWAP2 DUP5 PUSH1 0x40 MLOAD DUP4 PUSH4 0xFFFFFFFF AND PUSH1 0xE0 SHL DUP2 MSTORE PUSH1 0x4 ADD PUSH2 0xD4 SWAP3 SWAP2 SWAP1 PUSH2 0x248 JUMP JUMPDEST PUSH1 0x20 PUSH1 0x40 MLOAD DUP1 DUP4 SUB DUP2 DUP7 GAS DELEGATECALL ISZERO DUP1 ISZERO PUSH2 0xEF JUMPI RETURNDATASIZE PUSH0 DUP1 RETURNDATACOPY RETURNDATASIZE PUSH0 REVERT JUMPDEST POP POP POP POP PUSH1 0x40 MLOAD RETURNDATASIZE PUSH1 0x1F NOT PUSH1 0x1F DUP3 ADD AND DUP3 ADD DUP1 PUSH1 0x40 MSTORE POP DUP2 ADD SWAP1 PUSH2 0x113 SWAP2 SWAP1 PUSH2 0x283 JUMP JUMPDEST SWAP1 POP SWAP3 SWAP2 POP POP JUMP JUMPDEST PUSH0 PUSH20 0x0 PUSH4 0x771602F7 DUP5 DUP5 PUSH1 0x40 MLOAD DUP4 PUSH4 0xFFFFFFFF AND PUSH1 0xE0 SHL DUP2 MSTORE PUSH1 0x4 ADD PUSH2 0x155 SWAP3 SWAP2 SWAP1 PUSH2 0x248 JUMP JUMPDEST PUSH1 0x20 PUSH1 0x40 MLOAD DUP1 DUP4 SUB DUP2 DUP7 GAS DELEGATECALL ISZERO DUP1 ISZERO PUSH2 0x170 JUMPI RETURNDATASIZE PUSH0 DUP1 RETURNDATACOPY RETURNDATASIZE PUSH0 REVERT JUMPDEST POP POP POP POP PUSH1 0x40 MLOAD RETURNDATASIZE PUSH1 0x1F NOT PUSH1 0x1F DUP3 ADD AND DUP3 ADD DUP1 PUSH1 0x40 MSTORE POP DUP2 ADD SWAP1 PUSH2 0x194 SWAP2 SWAP1 PUSH2 0x283 JUMP JUMPDEST SWAP1 POP SWAP3 SWAP2 POP POP JUMP JUMPDEST PUSH0 DUP1 REVERT JUMPDEST PUSH0 DUP2 SWAP1 POP SWAP2 SWAP1 POP JUMP JUMPDEST PUSH2 0x1B2 DUP2 PUSH2 0x1A0 JUMP JUMPDEST DUP2 EQ PUSH2 0x1BC JUMPI PUSH0 DUP1 REVERT JUMPDEST POP JUMP JUMPDEST PUSH0 DUP2 CALLDATALOAD SWAP1 POP PUSH2 0x1CD DUP2 PUSH2 0x1A9 JUMP JUMPDEST SWAP3 SWAP2 POP POP JUMP JUMPDEST PUSH0 DUP1 PUSH1 0x40 DUP4 DUP6 SUB SLT ISZERO PUSH2 0x1E9 JUMPI PUSH2 0x1E8 PUSH2 0x19C JUMP JUMPDEST JUMPDEST PUSH0 PUSH2 0x1F6 DUP6 DUP3 DUP7 ADD PUSH2 0x1BF JUMP JUMPDEST SWAP3 POP POP PUSH1 0x20 PUSH2 0x207 DUP6 DUP3 DUP7 ADD PUSH2 0x1BF JUMP JUMPDEST SWAP2 POP POP SWAP3 POP SWAP3 SWAP1 POP JUMP JUMPDEST PUSH2 0x21A DUP2 PUSH2 0x1A0 JUMP JUMPDEST DUP3 MSTORE POP POP JUMP JUMPDEST PUSH0 PUSH1 0x20 DUP3 ADD SWAP1 POP PUSH2 0x233 PUSH0 DUP4 ADD DUP5 PUSH2 0x211 JUMP JUMPDEST SWAP3 SWAP2 POP POP JUMP JUMPDEST PUSH2 0x242 DUP2 PUSH2 0x1A0 JUMP JUMPDEST DUP3 MSTORE POP POP JUMP JUMPDEST PUSH0 PUSH1 0x40 DUP3 ADD SWAP1 POP PUSH2 0x25B PUSH0 DUP4 ADD DUP6 PUSH2 0x239 JUMP JUMPDEST PUSH2 0x268 PUSH1 0x20 DUP4 ADD DUP5 PUSH2 0x239 JUMP JUMPDEST SWAP4 SWAP3 POP POP POP JUMP JUMPDEST PUSH0 DUP2 MLOAD SWAP1 POP PUSH2 0x27D DUP2 PUSH2 0x1A9 JUMP JUMPDEST SWAP3 SWAP2 POP POP JUMP JUMPDEST PUSH0 PUSH1 0x20 DUP3 DUP5 SUB SLT ISZERO PUSH2 0x298 JUMPI PUSH2 0x297 PUSH2 0x19C JUMP JUMPDEST JUMPDEST PUSH0 PUSH2 0x2A5 DUP5 DUP3 DUP6 ADD PUSH2 0x26F JUMP JUMPDEST SWAP2 POP POP SWAP3 SWAP2 POP POP JUMP INVALID LOG2 PUSH5 0x6970667358 0x22 SLT KECCAK256 0x25 SWAP9 LOG0 0x27 0xD7 EXP 0xEA 0xD1 DUP6 DUP4 0xC6 DIV 0x2C DUP11 0xD2 MSTORE8 0xEB CALL SWAP7 ADDMOD 0xE0 SWAP3 0xD7 OR TSTORE PREVRANDAO PUSH29 0xF48293348C64736F6C634300081A003300000000000000000000000000 "
				},
				"gasEstimates": {
					"creation": {
						"codeDepositCost": "148000",
						"executionCost": "194",
						"totalCost": "148194"
					},
					"external": {
						"adding(uint256,uint256)": "infinite",
						"substracting(uint256,uint256)": "infinite"
					}
				},
				"methodIdentifiers": {
					"adding(uint256,uint256)": "c2d32c6d",
					"substracting(uint256,uint256)": "75c0175c"
				}
			},
			"storageLayout": {
				"storage": [],
				"types": null
			},
			"userdoc": {
				"kind": "user",
				"methods": {},
				"version": 1
			}
		}
	}
}