{
	"contracts/Event/event.sol": {
		"Demo": {
			"abi": [
				{
					"anonymous": false,
					"inputs": [
						{
							"indexed": false,
							"internalType": "address",
							"name": "sender",
							"type": "address"
						},
						{
							"indexed": false,
							"internalType": "address",
							"name": "reciever",
							"type": "address"
						},
						{
							"indexed": false,
							"internalType": "uint256",
							"name": "amount",
							"type": "uint256"
						}
					],
					"name": "sendEther",
					"type": "event"
				},
				{
					"inputs": [
						{
							"internalType": "address payable",
							"name": "_receiver",
							"type": "address"
						}
					],
					"name": "sendEth",
					"outputs": [],
					"stateMutability": "payable",
					"type": "function"
				}
			],
			"devdoc": {
				"kind": "dev",
				"methods": {},
				"version": 1
			},
			"evm": {
				"assembly": "    /* \"contracts/Event/event.sol\":183:484  contract Demo {... */\n  mstore(0x40, 0x80)\n  callvalue\n  dup1\n  iszero\n  tag_1\n  jumpi\n  0x00\n  dup1\n  revert\ntag_1:\n  pop\n  dataSize(sub_0)\n  dup1\n  dataOffset(sub_0)\n  0x00\n  codecopy\n  0x00\n  return\nstop\n\nsub_0: assembly {\n        /* \"contracts/Event/event.sol\":183:484  contract Demo {... */\n      mstore(0x40, 0x80)\n      jumpi(tag_1, lt(calldatasize, 0x04))\n      shr(0xe0, calldataload(0x00))\n      dup1\n      0x76a54c60\n      eq\n      tag_2\n      jumpi\n    tag_1:\n      0x00\n      dup1\n      revert\n        /* \"contracts/Event/event.sol\":271:477  function sendEth(address payable _receiver) public  payable  {... */\n    tag_2:\n      tag_3\n      0x04\n      dup1\n      calldatasize\n      sub\n      dup2\n      add\n      swap1\n      tag_4\n      swap2\n      swap1\n      tag_5\n      jump\t// in\n    tag_4:\n      tag_6\n      jump\t// in\n    tag_3:\n      stop\n    tag_6:\n        /* \"contracts/Event/event.sol\":339:348  _receiver */\n      dup1\n        /* \"contracts/Event/event.sol\":339:357  _receiver.transfer */\n      0xffffffffffffffffffffffffffffffffffffffff\n      and\n        /* \"contracts/Event/event.sol\":339:368  _receiver.transfer(msg.value) */\n      0x08fc\n        /* \"contracts/Event/event.sol\":358:367  msg.value */\n      callvalue\n        /* \"contracts/Event/event.sol\":339:368  _receiver.transfer(msg.value) */\n      swap1\n      dup2\n      iszero\n      mul\n      swap1\n      mload(0x40)\n      0x00\n      mload(0x40)\n      dup1\n      dup4\n      sub\n      dup2\n      dup6\n      dup9\n      dup9\n      call\n      swap4\n      pop\n      pop\n      pop\n      pop\n      iszero\n      dup1\n      iszero\n      tag_9\n      jumpi\n      returndatasize\n      0x00\n      dup1\n      returndatacopy\n      revert(0x00, returndatasize)\n    tag_9:\n      pop\n        /* \"contracts/Event/event.sol\":380:423  sendEther(msg.sender, _receiver, msg.value) */\n      0x3885fd3df38cec864ef7b7e83094e5f4bf900ffe137e2337a7800afbc8c36d36\n        /* \"contracts/Event/event.sol\":390:400  msg.sender */\n      caller\n        /* \"contracts/Event/event.sol\":402:411  _receiver */\n      dup3\n        /* \"contracts/Event/event.sol\":413:422  msg.value */\n      callvalue\n        /* \"contracts/Event/event.sol\":380:423  sendEther(msg.sender, _receiver, msg.value) */\n      mload(0x40)\n      tag_10\n      swap4\n      swap3\n      swap2\n      swap1\n      tag_11\n      jump\t// in\n    tag_10:\n      mload(0x40)\n      dup1\n      swap2\n      sub\n      swap1\n      log1\n        /* \"contracts/Event/event.sol\":271:477  function sendEth(address payable _receiver) public  payable  {... */\n      pop\n      jump\t// out\n        /* \"#utility.yul\":88:205   */\n    tag_13:\n        /* \"#utility.yul\":197:198   */\n      0x00\n        /* \"#utility.yul\":194:195   */\n      dup1\n        /* \"#utility.yul\":187:199   */\n      revert\n        /* \"#utility.yul\":334:460   */\n    tag_15:\n        /* \"#utility.yul\":371:378   */\n      0x00\n        /* \"#utility.yul\":411:453   */\n      0xffffffffffffffffffffffffffffffffffffffff\n        /* \"#utility.yul\":404:409   */\n      dup3\n        /* \"#utility.yul\":400:454   */\n      and\n        /* \"#utility.yul\":389:454   */\n      swap1\n      pop\n        /* \"#utility.yul\":334:460   */\n      swap2\n      swap1\n      pop\n      jump\t// out\n        /* \"#utility.yul\":466:570   */\n    tag_16:\n        /* \"#utility.yul\":511:518   */\n      0x00\n        /* \"#utility.yul\":540:564   */\n      tag_34\n        /* \"#utility.yul\":558:563   */\n      dup3\n        /* \"#utility.yul\":540:564   */\n      tag_15\n      jump\t// in\n    tag_34:\n        /* \"#utility.yul\":529:564   */\n      swap1\n      pop\n        /* \"#utility.yul\":466:570   */\n      swap2\n      swap1\n      pop\n      jump\t// out\n        /* \"#utility.yul\":576:714   */\n    tag_17:\n        /* \"#utility.yul\":657:689   */\n      tag_36\n        /* \"#utility.yul\":683:688   */\n      dup2\n        /* \"#utility.yul\":657:689   */\n      tag_16\n      jump\t// in\n    tag_36:\n        /* \"#utility.yul\":650:655   */\n      dup2\n        /* \"#utility.yul\":647:690   */\n      eq\n        /* \"#utility.yul\":637:708   */\n      tag_37\n      jumpi\n        /* \"#utility.yul\":704:705   */\n      0x00\n        /* \"#utility.yul\":701:702   */\n      dup1\n        /* \"#utility.yul\":694:706   */\n      revert\n        /* \"#utility.yul\":637:708   */\n    tag_37:\n        /* \"#utility.yul\":576:714   */\n      pop\n      jump\t// out\n        /* \"#utility.yul\":720:875   */\n    tag_18:\n        /* \"#utility.yul\":774:779   */\n      0x00\n        /* \"#utility.yul\":812:818   */\n      dup2\n        /* \"#utility.yul\":799:819   */\n      calldataload\n        /* \"#utility.yul\":790:819   */\n      swap1\n      pop\n        /* \"#utility.yul\":828:869   */\n      tag_39\n        /* \"#utility.yul\":863:868   */\n      dup2\n        /* \"#utility.yul\":828:869   */\n      tag_17\n      jump\t// in\n    tag_39:\n        /* \"#utility.yul\":720:875   */\n      swap3\n      swap2\n      pop\n      pop\n      jump\t// out\n        /* \"#utility.yul\":881:1226   */\n    tag_5:\n        /* \"#utility.yul\":948:954   */\n      0x00\n        /* \"#utility.yul\":997:999   */\n      0x20\n        /* \"#utility.yul\":985:994   */\n      dup3\n        /* \"#utility.yul\":976:983   */\n      dup5\n        /* \"#utility.yul\":972:995   */\n      sub\n        /* \"#utility.yul\":968:1000   */\n      slt\n        /* \"#utility.yul\":965:1084   */\n      iszero\n      tag_41\n      jumpi\n        /* \"#utility.yul\":1003:1082   */\n      tag_42\n      tag_13\n      jump\t// in\n    tag_42:\n        /* \"#utility.yul\":965:1084   */\n    tag_41:\n        /* \"#utility.yul\":1123:1124   */\n      0x00\n        /* \"#utility.yul\":1148:1209   */\n      tag_43\n        /* \"#utility.yul\":1201:1208   */\n      dup5\n        /* \"#utility.yul\":1192:1198   */\n      dup3\n        /* \"#utility.yul\":1181:1190   */\n      dup6\n        /* \"#utility.yul\":1177:1199   */\n      add\n        /* \"#utility.yul\":1148:1209   */\n      tag_18\n      jump\t// in\n    tag_43:\n        /* \"#utility.yul\":1138:1209   */\n      swap2\n      pop\n        /* \"#utility.yul\":1094:1219   */\n      pop\n        /* \"#utility.yul\":881:1226   */\n      swap3\n      swap2\n      pop\n      pop\n      jump\t// out\n        /* \"#utility.yul\":1232:1328   */\n    tag_19:\n        /* \"#utility.yul\":1269:1276   */\n      0x00\n        /* \"#utility.yul\":1298:1322   */\n      tag_45\n        /* \"#utility.yul\":1316:1321   */\n      dup3\n        /* \"#utility.yul\":1298:1322   */\n      tag_15\n      jump\t// in\n    tag_45:\n        /* \"#utility.yul\":1287:1322   */\n      swap1\n      pop\n        /* \"#utility.yul\":1232:1328   */\n      swap2\n      swap1\n      pop\n      jump\t// out\n        /* \"#utility.yul\":1334:1452   */\n    tag_20:\n        /* \"#utility.yul\":1421:1445   */\n      tag_47\n        /* \"#utility.yul\":1439:1444   */\n      dup2\n        /* \"#utility.yul\":1421:1445   */\n      tag_19\n      jump\t// in\n    tag_47:\n        /* \"#utility.yul\":1416:1419   */\n      dup3\n        /* \"#utility.yul\":1409:1446   */\n      mstore\n        /* \"#utility.yul\":1334:1452   */\n      pop\n      pop\n      jump\t// out\n        /* \"#utility.yul\":1458:1518   */\n    tag_21:\n        /* \"#utility.yul\":1486:1489   */\n      0x00\n        /* \"#utility.yul\":1507:1512   */\n      dup2\n        /* \"#utility.yul\":1500:1512   */\n      swap1\n      pop\n        /* \"#utility.yul\":1458:1518   */\n      swap2\n      swap1\n      pop\n      jump\t// out\n        /* \"#utility.yul\":1524:1666   */\n    tag_22:\n        /* \"#utility.yul\":1574:1583   */\n      0x00\n        /* \"#utility.yul\":1607:1660   */\n      tag_50\n        /* \"#utility.yul\":1625:1659   */\n      tag_51\n        /* \"#utility.yul\":1634:1658   */\n      tag_52\n        /* \"#utility.yul\":1652:1657   */\n      dup5\n        /* \"#utility.yul\":1634:1658   */\n      tag_15\n      jump\t// in\n    tag_52:\n        /* \"#utility.yul\":1625:1659   */\n      tag_21\n      jump\t// in\n    tag_51:\n        /* \"#utility.yul\":1607:1660   */\n      tag_15\n      jump\t// in\n    tag_50:\n        /* \"#utility.yul\":1594:1660   */\n      swap1\n      pop\n        /* \"#utility.yul\":1524:1666   */\n      swap2\n      swap1\n      pop\n      jump\t// out\n        /* \"#utility.yul\":1672:1798   */\n    tag_23:\n        /* \"#utility.yul\":1722:1731   */\n      0x00\n        /* \"#utility.yul\":1755:1792   */\n      tag_54\n        /* \"#utility.yul\":1786:1791   */\n      dup3\n        /* \"#utility.yul\":1755:1792   */\n      tag_22\n      jump\t// in\n    tag_54:\n        /* \"#utility.yul\":1742:1792   */\n      swap1\n      pop\n        /* \"#utility.yul\":1672:1798   */\n      swap2\n      swap1\n      pop\n      jump\t// out\n        /* \"#utility.yul\":1804:1938   */\n    tag_24:\n        /* \"#utility.yul\":1862:1871   */\n      0x00\n        /* \"#utility.yul\":1895:1932   */\n      tag_56\n        /* \"#utility.yul\":1926:1931   */\n      dup3\n        /* \"#utility.yul\":1895:1932   */\n      tag_23\n      jump\t// in\n    tag_56:\n        /* \"#utility.yul\":1882:1932   */\n      swap1\n      pop\n        /* \"#utility.yul\":1804:1938   */\n      swap2\n      swap1\n      pop\n      jump\t// out\n        /* \"#utility.yul\":1944:2091   */\n    tag_25:\n        /* \"#utility.yul\":2039:2084   */\n      tag_58\n        /* \"#utility.yul\":2078:2083   */\n      dup2\n        /* \"#utility.yul\":2039:2084   */\n      tag_24\n      jump\t// in\n    tag_58:\n        /* \"#utility.yul\":2034:2037   */\n      dup3\n        /* \"#utility.yul\":2027:2085   */\n      mstore\n        /* \"#utility.yul\":1944:2091   */\n      pop\n      pop\n      jump\t// out\n        /* \"#utility.yul\":2097:2174   */\n    tag_26:\n        /* \"#utility.yul\":2134:2141   */\n      0x00\n        /* \"#utility.yul\":2163:2168   */\n      dup2\n        /* \"#utility.yul\":2152:2168   */\n      swap1\n      pop\n        /* \"#utility.yul\":2097:2174   */\n      swap2\n      swap1\n      pop\n      jump\t// out\n        /* \"#utility.yul\":2180:2298   */\n    tag_27:\n        /* \"#utility.yul\":2267:2291   */\n      tag_61\n        /* \"#utility.yul\":2285:2290   */\n      dup2\n        /* \"#utility.yul\":2267:2291   */\n      tag_26\n      jump\t// in\n    tag_61:\n        /* \"#utility.yul\":2262:2265   */\n      dup3\n        /* \"#utility.yul\":2255:2292   */\n      mstore\n        /* \"#utility.yul\":2180:2298   */\n      pop\n      pop\n      jump\t// out\n        /* \"#utility.yul\":2304:2762   */\n    tag_11:\n        /* \"#utility.yul\":2461:2465   */\n      0x00\n        /* \"#utility.yul\":2499:2501   */\n      0x60\n        /* \"#utility.yul\":2488:2497   */\n      dup3\n        /* \"#utility.yul\":2484:2502   */\n      add\n        /* \"#utility.yul\":2476:2502   */\n      swap1\n      pop\n        /* \"#utility.yul\":2512:2583   */\n      tag_63\n        /* \"#utility.yul\":2580:2581   */\n      0x00\n        /* \"#utility.yul\":2569:2578   */\n      dup4\n        /* \"#utility.yul\":2565:2582   */\n      add\n        /* \"#utility.yul\":2556:2562   */\n      dup7\n        /* \"#utility.yul\":2512:2583   */\n      tag_20\n      jump\t// in\n    tag_63:\n        /* \"#utility.yul\":2593:2673   */\n      tag_64\n        /* \"#utility.yul\":2669:2671   */\n      0x20\n        /* \"#utility.yul\":2658:2667   */\n      dup4\n        /* \"#utility.yul\":2654:2672   */\n      add\n        /* \"#utility.yul\":2645:2651   */\n      dup6\n        /* \"#utility.yul\":2593:2673   */\n      tag_25\n      jump\t// in\n    tag_64:\n        /* \"#utility.yul\":2683:2755   */\n      tag_65\n        /* \"#utility.yul\":2751:2753   */\n      0x40\n        /* \"#utility.yul\":2740:2749   */\n      dup4\n        /* \"#utility.yul\":2736:2754   */\n      add\n        /* \"#utility.yul\":2727:2733   */\n      dup5\n        /* \"#utility.yul\":2683:2755   */\n      tag_27\n      jump\t// in\n    tag_65:\n        /* \"#utility.yul\":2304:2762   */\n      swap5\n      swap4\n      pop\n      pop\n      pop\n      pop\n      jump\t// out\n\n    auxdata: 0xa26469706673582212206d58d7bd5a6d1fd74a8151ad34480c6fbadf7ffde8016cc46a38c792907d4b1664736f6c634300081a0033\n}\n",
				"bytecode": {
					"linkReferences": {},
					"object": "6080604052348015600e575f80fd5b506102468061001c5f395ff3fe60806040526004361061001d575f3560e01c806376a54c6014610021575b5f80fd5b61003b6004803603810190610036919061011d565b61003d565b005b8073ffffffffffffffffffffffffffffffffffffffff166108fc3490811502906040515f60405180830381858888f19350505050158015610080573d5f803e3d5ffd5b507f3885fd3df38cec864ef7b7e83094e5f4bf900ffe137e2337a7800afbc8c36d363382346040516100b4939291906101db565b60405180910390a150565b5f80fd5b5f73ffffffffffffffffffffffffffffffffffffffff82169050919050565b5f6100ec826100c3565b9050919050565b6100fc816100e2565b8114610106575f80fd5b50565b5f81359050610117816100f3565b92915050565b5f60208284031215610132576101316100bf565b5b5f61013f84828501610109565b91505092915050565b5f610152826100c3565b9050919050565b61016281610148565b82525050565b5f819050919050565b5f61018b610186610181846100c3565b610168565b6100c3565b9050919050565b5f61019c82610171565b9050919050565b5f6101ad82610192565b9050919050565b6101bd816101a3565b82525050565b5f819050919050565b6101d5816101c3565b82525050565b5f6060820190506101ee5f830186610159565b6101fb60208301856101b4565b61020860408301846101cc565b94935050505056fea26469706673582212206d58d7bd5a6d1fd74a8151ad34480c6fbadf7ffde8016cc46a38c792907d4b1664736f6c634300081a0033",
					"opcodes": "PUSH1 0x80 PUSH1 0x40 MSTORE CALLVALUE DUP1 ISZERO PUSH1 0xE JUMPI PUSH0 DUP1 REVERT JUMPDEST POP PUSH2 0x246 DUP1 PUSH2 0x1C PUSH0 CODECOPY PUSH0 RETURN INVALID PUSH1 0x80 PUSH1 0x40 MSTORE PUSH1 0x4 CALLDATASIZE LT PUSH2 0x1D JUMPI PUSH0 CALLDATALOAD PUSH1 0xE0 SHR DUP1 PUSH4 0x76A54C60 EQ PUSH2 0x21 JUMPI JUMPDEST PUSH0 DUP1 REVERT JUMPDEST PUSH2 0x3B PUSH1 0x4 DUP1 CALLDATASIZE SUB DUP2 ADD SWAP1 PUSH2 0x36 SWAP2 SWAP1 PUSH2 0x11D JUMP JUMPDEST PUSH2 0x3D JUMP JUMPDEST STOP JUMPDEST DUP1 PUSH20 0xFFFFFFFFFFFFFFFFFFFFFFFFFFFFFFFFFFFFFFFF AND PUSH2 0x8FC CALLVALUE SWAP1 DUP2 ISZERO MUL SWAP1 PUSH1 0x40 MLOAD PUSH0 PUSH1 0x40 MLOAD DUP1 DUP4 SUB DUP2 DUP6 DUP9 DUP9 CALL SWAP4 POP POP POP POP ISZERO DUP1 ISZERO PUSH2 0x80 JUMPI RETURNDATASIZE PUSH0 DUP1 RETURNDATACOPY RETURNDATASIZE PUSH0 REVERT JUMPDEST POP PUSH32 0x3885FD3DF38CEC864EF7B7E83094E5F4BF900FFE137E2337A7800AFBC8C36D36 CALLER DUP3 CALLVALUE PUSH1 0x40 MLOAD PUSH2 0xB4 SWAP4 SWAP3 SWAP2 SWAP1 PUSH2 0x1DB JUMP JUMPDEST PUSH1 0x40 MLOAD DUP1 SWAP2 SUB SWAP1 LOG1 POP JUMP JUMPDEST PUSH0 DUP1 REVERT JUMPDEST PUSH0 PUSH20 0xFFFFFFFFFFFFFFFFFFFFFFFFFFFFFFFFFFFFFFFF DUP3 AND SWAP1 POP SWAP2 SWAP1 POP JUMP JUMPDEST PUSH0 PUSH2 0xEC DUP3 PUSH2 0xC3 JUMP JUMPDEST SWAP1 POP SWAP2 SWAP1 POP JUMP JUMPDEST PUSH2 0xFC DUP2 PUSH2 0xE2 JUMP JUMPDEST DUP2 EQ PUSH2 0x106 JUMPI PUSH0 DUP1 REVERT JUMPDEST POP JUMP JUMPDEST PUSH0 DUP2 CALLDATALOAD SWAP1 POP PUSH2 0x117 DUP2 PUSH2 0xF3 JUMP JUMPDEST SWAP3 SWAP2 POP POP JUMP JUMPDEST PUSH0 PUSH1 0x20 DUP3 DUP5 SUB SLT ISZERO PUSH2 0x132 JUMPI PUSH2 0x131 PUSH2 0xBF JUMP JUMPDEST JUMPDEST PUSH0 PUSH2 0x13F DUP5 DUP3 DUP6 ADD PUSH2 0x109 JUMP JUMPDEST SWAP2 POP POP SWAP3 SWAP2 POP POP JUMP JUMPDEST PUSH0 PUSH2 0x152 DUP3 PUSH2 0xC3 JUMP JUMPDEST SWAP1 POP SWAP2 SWAP1 POP JUMP JUMPDEST PUSH2 0x162 DUP2 PUSH2 0x148 JUMP JUMPDEST DUP3 MSTORE POP POP JUMP JUMPDEST PUSH0 DUP2 SWAP1 POP SWAP2 SWAP1 POP JUMP JUMPDEST PUSH0 PUSH2 0x18B PUSH2 0x186 PUSH2 0x181 DUP5 PUSH2 0xC3 JUMP JUMPDEST PUSH2 0x168 JUMP JUMPDEST PUSH2 0xC3 JUMP JUMPDEST SWAP1 POP SWAP2 SWAP1 POP JUMP JUMPDEST PUSH0 PUSH2 0x19C DUP3 PUSH2 0x171 JUMP JUMPDEST SWAP1 POP SWAP2 SWAP1 POP JUMP JUMPDEST PUSH0 PUSH2 0x1AD DUP3 PUSH2 0x192 JUMP JUMPDEST SWAP1 POP SWAP2 SWAP1 POP JUMP JUMPDEST PUSH2 0x1BD DUP2 PUSH2 0x1A3 JUMP JUMPDEST DUP3 MSTORE POP POP JUMP JUMPDEST PUSH0 DUP2 SWAP1 POP SWAP2 SWAP1 POP JUMP JUMPDEST PUSH2 0x1D5 DUP2 PUSH2 0x1C3 JUMP JUMPDEST DUP3 MSTORE POP POP JUMP JUMPDEST PUSH0 PUSH1 0x60 DUP3 ADD SWAP1 POP PUSH2 0x1EE PUSH0 DUP4 ADD DUP7 PUSH2 0x159 JUMP JUMPDEST PUSH2 0x1FB PUSH1 0x20 DUP4 ADD DUP6 PUSH2 0x1B4 JUMP JUMPDEST PUSH2 0x208 PUSH1 0x40 DUP4 ADD DUP5 PUSH2 0x1CC JUMP JUMPDEST SWAP5 SWAP4 POP POP POP POP JUMP INVALID LOG2 PUSH5 0x6970667358 0x22 SLT KECCAK256 PUSH14 0x58D7BD5A6D1FD74A8151AD34480C PUSH16 0xBADF7FFDE8016CC46A38C792907D4B16 PUSH5 0x736F6C6343 STOP ADDMOD BYTE STOP CALLER "
				},
				"gasEstimates": {
					"creation": {
						"codeDepositCost": "116400",
						"executionCost": "163",
						"totalCost": "116563"
					},
					"external": {
						"sendEth(address)": "infinite"
					}
				},
				"methodIdentifiers": {
					"sendEth(address)": "76a54c60"
				}
			},
			"storageLayout": {
				"storage": [],
				"types": null
			},
			"userdoc": {
				"kind": "user",
				"methods": {},
				"version": 1
			}
		}
	}
}