{
	"contracts/Mapping/MappingWIthArray.sol": {
		"MappingWIthArray": {
			"abi": [
				{
					"inputs": [
						{
							"internalType": "address",
							"name": "key",
							"type": "address"
						}
					],
					"name": "getValue",
					"outputs": [
						{
							"internalType": "uint256",
							"name": "",
							"type": "uint256"
						}
					],
					"stateMutability": "view",
					"type": "function"
				},
				{
					"inputs": [
						{
							"internalType": "address",
							"name": "key",
							"type": "address"
						},
						{
							"internalType": "uint256[]",
							"name": "value",
							"type": "uint256[]"
						}
					],
					"name": "insert",
					"outputs": [],
					"stateMutability": "nonpayable",
					"type": "function"
				},
				{
					"inputs": [
						{
							"internalType": "address",
							"name": "",
							"type": "address"
						},
						{
							"internalType": "uint256",
							"name": "",
							"type": "uint256"
						}
					],
					"name": "mapArr",
					"outputs": [
						{
							"internalType": "uint256",
							"name": "",
							"type": "uint256"
						}
					],
					"stateMutability": "view",
					"type": "function"
				}
			],
			"devdoc": {
				"kind": "dev",
				"methods": {},
				"version": 1
			},
			"evm": {
				"assembly": "    /* \"contracts/Mapping/MappingWIthArray.sol\":68:360  contract MappingWIthArray {... */\n  mstore(0x40, 0x80)\n  callvalue\n  dup1\n  iszero\n  tag_1\n  jumpi\n  revert(0x00, 0x00)\ntag_1:\n  pop\n  dataSize(sub_0)\n  dup1\n  dataOffset(sub_0)\n  0x00\n  codecopy\n  0x00\n  return\nstop\n\nsub_0: assembly {\n        /* \"contracts/Mapping/MappingWIthArray.sol\":68:360  contract MappingWIthArray {... */\n      mstore(0x40, 0x80)\n      callvalue\n      dup1\n      iszero\n      tag_1\n      jumpi\n      revert(0x00, 0x00)\n    tag_1:\n      pop\n      jumpi(tag_2, lt(calldatasize, 0x04))\n      shr(0xe0, calldataload(0x00))\n      dup1\n      0x1fc636ca\n      eq\n      tag_3\n      jumpi\n      dup1\n      0x22d2b6c0\n      eq\n      tag_4\n      jumpi\n      dup1\n      0x3ccc0522\n      eq\n      tag_5\n      jumpi\n    tag_2:\n      revert(0x00, 0x00)\n        /* \"contracts/Mapping/MappingWIthArray.sol\":150:248  function insert(address key, uint[] calldata value) public  {... */\n    tag_3:\n      tag_6\n      0x04\n      dup1\n      calldatasize\n      sub\n      dup2\n      add\n      swap1\n      tag_7\n      swap2\n      swap1\n      tag_8\n      jump\t// in\n    tag_7:\n      tag_9\n      jump\t// in\n    tag_6:\n      stop\n        /* \"contracts/Mapping/MappingWIthArray.sol\":103:141  mapping(address=>uint[]) public mapArr */\n    tag_4:\n      tag_10\n      0x04\n      dup1\n      calldatasize\n      sub\n      dup2\n      add\n      swap1\n      tag_11\n      swap2\n      swap1\n      tag_12\n      jump\t// in\n    tag_11:\n      tag_13\n      jump\t// in\n    tag_10:\n      mload(0x40)\n      tag_14\n      swap2\n      swap1\n      tag_15\n      jump\t// in\n    tag_14:\n      mload(0x40)\n      dup1\n      swap2\n      sub\n      swap1\n      return\n        /* \"contracts/Mapping/MappingWIthArray.sol\":257:355  function getValue(address key) public view  returns (uint) {... */\n    tag_5:\n      tag_16\n      0x04\n      dup1\n      calldatasize\n      sub\n      dup2\n      add\n      swap1\n      tag_17\n      swap2\n      swap1\n      tag_18\n      jump\t// in\n    tag_17:\n      tag_19\n      jump\t// in\n    tag_16:\n      mload(0x40)\n      tag_20\n      swap2\n      swap1\n      tag_15\n      jump\t// in\n    tag_20:\n      mload(0x40)\n      dup1\n      swap2\n      sub\n      swap1\n      return\n        /* \"contracts/Mapping/MappingWIthArray.sol\":150:248  function insert(address key, uint[] calldata value) public  {... */\n    tag_9:\n        /* \"contracts/Mapping/MappingWIthArray.sol\":235:240  value */\n      dup2\n      dup2\n        /* \"contracts/Mapping/MappingWIthArray.sol\":221:227  mapArr */\n      0x00\n        /* \"contracts/Mapping/MappingWIthArray.sol\":221:232  mapArr[key] */\n      0x00\n        /* \"contracts/Mapping/MappingWIthArray.sol\":228:231  key */\n      dup7\n        /* \"contracts/Mapping/MappingWIthArray.sol\":221:232  mapArr[key] */\n      0xffffffffffffffffffffffffffffffffffffffff\n      and\n      0xffffffffffffffffffffffffffffffffffffffff\n      and\n      dup2\n      mstore\n      0x20\n      add\n      swap1\n      dup2\n      mstore\n      0x20\n      add\n      0x00\n      keccak256\n        /* \"contracts/Mapping/MappingWIthArray.sol\":221:240  mapArr[key] = value */\n      swap2\n      swap1\n      tag_22\n      swap3\n      swap2\n      swap1\n      tag_23\n      jump\t// in\n    tag_22:\n      pop\n        /* \"contracts/Mapping/MappingWIthArray.sol\":150:248  function insert(address key, uint[] calldata value) public  {... */\n      pop\n      pop\n      pop\n      jump\t// out\n        /* \"contracts/Mapping/MappingWIthArray.sol\":103:141  mapping(address=>uint[]) public mapArr */\n    tag_13:\n      mstore(0x20, 0x00)\n      dup2\n      0x00\n      mstore\n      keccak256(0x00, 0x40)\n      dup2\n      dup2\n      sload\n      dup2\n      lt\n      tag_24\n      jumpi\n      0x00\n      dup1\n      revert\n    tag_24:\n      swap1\n      0x00\n      mstore\n      keccak256(0x00, 0x20)\n      add\n      0x00\n      swap2\n      pop\n      swap2\n      pop\n      pop\n      sload\n      dup2\n      jump\t// out\n        /* \"contracts/Mapping/MappingWIthArray.sol\":257:355  function getValue(address key) public view  returns (uint) {... */\n    tag_19:\n        /* \"contracts/Mapping/MappingWIthArray.sol\":310:314  uint */\n      0x00\n        /* \"contracts/Mapping/MappingWIthArray.sol\":333:339  mapArr */\n      0x00\n        /* \"contracts/Mapping/MappingWIthArray.sol\":333:344  mapArr[key] */\n      0x00\n        /* \"contracts/Mapping/MappingWIthArray.sol\":340:343  key */\n      dup4\n        /* \"contracts/Mapping/MappingWIthArray.sol\":333:344  mapArr[key] */\n      0xffffffffffffffffffffffffffffffffffffffff\n      and\n      0xffffffffffffffffffffffffffffffffffffffff\n      and\n      dup2\n      mstore\n      0x20\n      add\n      swap1\n      dup2\n      mstore\n      0x20\n      add\n      0x00\n      keccak256\n        /* \"contracts/Mapping/MappingWIthArray.sol\":345:346  0 */\n      0x00\n        /* \"contracts/Mapping/MappingWIthArray.sol\":333:347  mapArr[key][0] */\n      dup2\n      sload\n      dup2\n      lt\n      tag_27\n      jumpi\n      tag_28\n      tag_29\n      jump\t// in\n    tag_28:\n    tag_27:\n      swap1\n      0x00\n      mstore\n      keccak256(0x00, 0x20)\n      add\n      sload\n        /* \"contracts/Mapping/MappingWIthArray.sol\":326:347  return mapArr[key][0] */\n      swap1\n      pop\n        /* \"contracts/Mapping/MappingWIthArray.sol\":257:355  function getValue(address key) public view  returns (uint) {... */\n      swap2\n      swap1\n      pop\n      jump\t// out\n    tag_23:\n      dup3\n      dup1\n      sload\n      dup3\n      dup3\n      sstore\n      swap1\n      0x00\n      mstore\n      keccak256(0x00, 0x20)\n      swap1\n      dup2\n      add\n      swap3\n      dup3\n      iszero\n      tag_31\n      jumpi\n      swap2\n      0x20\n      mul\n      dup3\n      add\n    tag_32:\n      dup3\n      dup2\n      gt\n      iszero\n      tag_33\n      jumpi\n      dup3\n      calldataload\n      dup3\n      sstore\n      swap2\n      0x20\n      add\n      swap2\n      swap1\n      0x01\n      add\n      swap1\n      jump(tag_32)\n    tag_33:\n    tag_31:\n      pop\n      swap1\n      pop\n      tag_34\n      swap2\n      swap1\n      tag_35\n      jump\t// in\n    tag_34:\n      pop\n      swap1\n      jump\t// out\n    tag_35:\n    tag_36:\n      dup1\n      dup3\n      gt\n      iszero\n      tag_37\n      jumpi\n      0x00\n      dup2\n      0x00\n      swap1\n      sstore\n      pop\n      0x01\n      add\n      jump(tag_36)\n    tag_37:\n      pop\n      swap1\n      jump\t// out\n        /* \"#utility.yul\":88:205   */\n    tag_39:\n        /* \"#utility.yul\":197:198   */\n      0x00\n        /* \"#utility.yul\":194:195   */\n      0x00\n        /* \"#utility.yul\":187:199   */\n      revert\n        /* \"#utility.yul\":211:328   */\n    tag_40:\n        /* \"#utility.yul\":320:321   */\n      0x00\n        /* \"#utility.yul\":317:318   */\n      0x00\n        /* \"#utility.yul\":310:322   */\n      revert\n        /* \"#utility.yul\":334:460   */\n    tag_41:\n        /* \"#utility.yul\":371:378   */\n      0x00\n        /* \"#utility.yul\":411:453   */\n      0xffffffffffffffffffffffffffffffffffffffff\n        /* \"#utility.yul\":404:409   */\n      dup3\n        /* \"#utility.yul\":400:454   */\n      and\n        /* \"#utility.yul\":389:454   */\n      swap1\n      pop\n        /* \"#utility.yul\":334:460   */\n      swap2\n      swap1\n      pop\n      jump\t// out\n        /* \"#utility.yul\":466:562   */\n    tag_42:\n        /* \"#utility.yul\":503:510   */\n      0x00\n        /* \"#utility.yul\":532:556   */\n      tag_59\n        /* \"#utility.yul\":550:555   */\n      dup3\n        /* \"#utility.yul\":532:556   */\n      tag_41\n      jump\t// in\n    tag_59:\n        /* \"#utility.yul\":521:556   */\n      swap1\n      pop\n        /* \"#utility.yul\":466:562   */\n      swap2\n      swap1\n      pop\n      jump\t// out\n        /* \"#utility.yul\":568:690   */\n    tag_43:\n        /* \"#utility.yul\":641:665   */\n      tag_61\n        /* \"#utility.yul\":659:664   */\n      dup2\n        /* \"#utility.yul\":641:665   */\n      tag_42\n      jump\t// in\n    tag_61:\n        /* \"#utility.yul\":634:639   */\n      dup2\n        /* \"#utility.yul\":631:666   */\n      eq\n        /* \"#utility.yul\":621:684   */\n      tag_62\n      jumpi\n        /* \"#utility.yul\":680:681   */\n      0x00\n        /* \"#utility.yul\":677:678   */\n      0x00\n        /* \"#utility.yul\":670:682   */\n      revert\n        /* \"#utility.yul\":621:684   */\n    tag_62:\n        /* \"#utility.yul\":568:690   */\n      pop\n      jump\t// out\n        /* \"#utility.yul\":696:835   */\n    tag_44:\n        /* \"#utility.yul\":742:747   */\n      0x00\n        /* \"#utility.yul\":780:786   */\n      dup2\n        /* \"#utility.yul\":767:787   */\n      calldataload\n        /* \"#utility.yul\":758:787   */\n      swap1\n      pop\n        /* \"#utility.yul\":796:829   */\n      tag_64\n        /* \"#utility.yul\":823:828   */\n      dup2\n        /* \"#utility.yul\":796:829   */\n      tag_43\n      jump\t// in\n    tag_64:\n        /* \"#utility.yul\":696:835   */\n      swap3\n      swap2\n      pop\n      pop\n      jump\t// out\n        /* \"#utility.yul\":841:958   */\n    tag_45:\n        /* \"#utility.yul\":950:951   */\n      0x00\n        /* \"#utility.yul\":947:948   */\n      0x00\n        /* \"#utility.yul\":940:952   */\n      revert\n        /* \"#utility.yul\":964:1081   */\n    tag_46:\n        /* \"#utility.yul\":1073:1074   */\n      0x00\n        /* \"#utility.yul\":1070:1071   */\n      0x00\n        /* \"#utility.yul\":1063:1075   */\n      revert\n        /* \"#utility.yul\":1087:1204   */\n    tag_47:\n        /* \"#utility.yul\":1196:1197   */\n      0x00\n        /* \"#utility.yul\":1193:1194   */\n      0x00\n        /* \"#utility.yul\":1186:1198   */\n      revert\n        /* \"#utility.yul\":1227:1795   */\n    tag_48:\n        /* \"#utility.yul\":1300:1308   */\n      0x00\n        /* \"#utility.yul\":1310:1316   */\n      0x00\n        /* \"#utility.yul\":1360:1363   */\n      dup4\n        /* \"#utility.yul\":1353:1357   */\n      0x1f\n        /* \"#utility.yul\":1345:1351   */\n      dup5\n        /* \"#utility.yul\":1341:1358   */\n      add\n        /* \"#utility.yul\":1337:1364   */\n      slt\n        /* \"#utility.yul\":1327:1449   */\n      tag_69\n      jumpi\n        /* \"#utility.yul\":1368:1447   */\n      tag_70\n      tag_45\n      jump\t// in\n    tag_70:\n        /* \"#utility.yul\":1327:1449   */\n    tag_69:\n        /* \"#utility.yul\":1481:1487   */\n      dup3\n        /* \"#utility.yul\":1468:1488   */\n      calldataload\n        /* \"#utility.yul\":1458:1488   */\n      swap1\n      pop\n        /* \"#utility.yul\":1511:1529   */\n      0xffffffffffffffff\n        /* \"#utility.yul\":1503:1509   */\n      dup2\n        /* \"#utility.yul\":1500:1530   */\n      gt\n        /* \"#utility.yul\":1497:1614   */\n      iszero\n      tag_71\n      jumpi\n        /* \"#utility.yul\":1533:1612   */\n      tag_72\n      tag_46\n      jump\t// in\n    tag_72:\n        /* \"#utility.yul\":1497:1614   */\n    tag_71:\n        /* \"#utility.yul\":1647:1651   */\n      0x20\n        /* \"#utility.yul\":1639:1645   */\n      dup4\n        /* \"#utility.yul\":1635:1652   */\n      add\n        /* \"#utility.yul\":1623:1652   */\n      swap2\n      pop\n        /* \"#utility.yul\":1701:1704   */\n      dup4\n        /* \"#utility.yul\":1693:1697   */\n      0x20\n        /* \"#utility.yul\":1685:1691   */\n      dup3\n        /* \"#utility.yul\":1681:1698   */\n      mul\n        /* \"#utility.yul\":1671:1679   */\n      dup4\n        /* \"#utility.yul\":1667:1699   */\n      add\n        /* \"#utility.yul\":1664:1705   */\n      gt\n        /* \"#utility.yul\":1661:1789   */\n      iszero\n      tag_73\n      jumpi\n        /* \"#utility.yul\":1708:1787   */\n      tag_74\n      tag_47\n      jump\t// in\n    tag_74:\n        /* \"#utility.yul\":1661:1789   */\n    tag_73:\n        /* \"#utility.yul\":1227:1795   */\n      swap3\n      pop\n      swap3\n      swap1\n      pop\n      jump\t// out\n        /* \"#utility.yul\":1801:2505   */\n    tag_8:\n        /* \"#utility.yul\":1896:1902   */\n      0x00\n        /* \"#utility.yul\":1904:1910   */\n      0x00\n        /* \"#utility.yul\":1912:1918   */\n      0x00\n        /* \"#utility.yul\":1961:1963   */\n      0x40\n        /* \"#utility.yul\":1949:1958   */\n      dup5\n        /* \"#utility.yul\":1940:1947   */\n      dup7\n        /* \"#utility.yul\":1936:1959   */\n      sub\n        /* \"#utility.yul\":1932:1964   */\n      slt\n        /* \"#utility.yul\":1929:2048   */\n      iszero\n      tag_76\n      jumpi\n        /* \"#utility.yul\":1967:2046   */\n      tag_77\n      tag_39\n      jump\t// in\n    tag_77:\n        /* \"#utility.yul\":1929:2048   */\n    tag_76:\n        /* \"#utility.yul\":2087:2088   */\n      0x00\n        /* \"#utility.yul\":2112:2165   */\n      tag_78\n        /* \"#utility.yul\":2157:2164   */\n      dup7\n        /* \"#utility.yul\":2148:2154   */\n      dup3\n        /* \"#utility.yul\":2137:2146   */\n      dup8\n        /* \"#utility.yul\":2133:2155   */\n      add\n        /* \"#utility.yul\":2112:2165   */\n      tag_44\n      jump\t// in\n    tag_78:\n        /* \"#utility.yul\":2102:2165   */\n      swap4\n      pop\n        /* \"#utility.yul\":2058:2175   */\n      pop\n        /* \"#utility.yul\":2242:2244   */\n      0x20\n        /* \"#utility.yul\":2231:2240   */\n      dup5\n        /* \"#utility.yul\":2227:2245   */\n      add\n        /* \"#utility.yul\":2214:2246   */\n      calldataload\n        /* \"#utility.yul\":2273:2291   */\n      0xffffffffffffffff\n        /* \"#utility.yul\":2265:2271   */\n      dup2\n        /* \"#utility.yul\":2262:2292   */\n      gt\n        /* \"#utility.yul\":2259:2376   */\n      iszero\n      tag_79\n      jumpi\n        /* \"#utility.yul\":2295:2374   */\n      tag_80\n      tag_40\n      jump\t// in\n    tag_80:\n        /* \"#utility.yul\":2259:2376   */\n    tag_79:\n        /* \"#utility.yul\":2408:2488   */\n      tag_81\n        /* \"#utility.yul\":2480:2487   */\n      dup7\n        /* \"#utility.yul\":2471:2477   */\n      dup3\n        /* \"#utility.yul\":2460:2469   */\n      dup8\n        /* \"#utility.yul\":2456:2478   */\n      add\n        /* \"#utility.yul\":2408:2488   */\n      tag_48\n      jump\t// in\n    tag_81:\n        /* \"#utility.yul\":2390:2488   */\n      swap3\n      pop\n      swap3\n      pop\n        /* \"#utility.yul\":2185:2498   */\n      pop\n        /* \"#utility.yul\":1801:2505   */\n      swap3\n      pop\n      swap3\n      pop\n      swap3\n      jump\t// out\n        /* \"#utility.yul\":2511:2588   */\n    tag_49:\n        /* \"#utility.yul\":2548:2555   */\n      0x00\n        /* \"#utility.yul\":2577:2582   */\n      dup2\n        /* \"#utility.yul\":2566:2582   */\n      swap1\n      pop\n        /* \"#utility.yul\":2511:2588   */\n      swap2\n      swap1\n      pop\n      jump\t// out\n        /* \"#utility.yul\":2594:2716   */\n    tag_50:\n        /* \"#utility.yul\":2667:2691   */\n      tag_84\n        /* \"#utility.yul\":2685:2690   */\n      dup2\n        /* \"#utility.yul\":2667:2691   */\n      tag_49\n      jump\t// in\n    tag_84:\n        /* \"#utility.yul\":2660:2665   */\n      dup2\n        /* \"#utility.yul\":2657:2692   */\n      eq\n        /* \"#utility.yul\":2647:2710   */\n      tag_85\n      jumpi\n        /* \"#utility.yul\":2706:2707   */\n      0x00\n        /* \"#utility.yul\":2703:2704   */\n      0x00\n        /* \"#utility.yul\":2696:2708   */\n      revert\n        /* \"#utility.yul\":2647:2710   */\n    tag_85:\n        /* \"#utility.yul\":2594:2716   */\n      pop\n      jump\t// out\n        /* \"#utility.yul\":2722:2861   */\n    tag_51:\n        /* \"#utility.yul\":2768:2773   */\n      0x00\n        /* \"#utility.yul\":2806:2812   */\n      dup2\n        /* \"#utility.yul\":2793:2813   */\n      calldataload\n        /* \"#utility.yul\":2784:2813   */\n      swap1\n      pop\n        /* \"#utility.yul\":2822:2855   */\n      tag_87\n        /* \"#utility.yul\":2849:2854   */\n      dup2\n        /* \"#utility.yul\":2822:2855   */\n      tag_50\n      jump\t// in\n    tag_87:\n        /* \"#utility.yul\":2722:2861   */\n      swap3\n      swap2\n      pop\n      pop\n      jump\t// out\n        /* \"#utility.yul\":2867:3341   */\n    tag_12:\n        /* \"#utility.yul\":2935:2941   */\n      0x00\n        /* \"#utility.yul\":2943:2949   */\n      0x00\n        /* \"#utility.yul\":2992:2994   */\n      0x40\n        /* \"#utility.yul\":2980:2989   */\n      dup4\n        /* \"#utility.yul\":2971:2978   */\n      dup6\n        /* \"#utility.yul\":2967:2990   */\n      sub\n        /* \"#utility.yul\":2963:2995   */\n      slt\n        /* \"#utility.yul\":2960:3079   */\n      iszero\n      tag_89\n      jumpi\n        /* \"#utility.yul\":2998:3077   */\n      tag_90\n      tag_39\n      jump\t// in\n    tag_90:\n        /* \"#utility.yul\":2960:3079   */\n    tag_89:\n        /* \"#utility.yul\":3118:3119   */\n      0x00\n        /* \"#utility.yul\":3143:3196   */\n      tag_91\n        /* \"#utility.yul\":3188:3195   */\n      dup6\n        /* \"#utility.yul\":3179:3185   */\n      dup3\n        /* \"#utility.yul\":3168:3177   */\n      dup7\n        /* \"#utility.yul\":3164:3186   */\n      add\n        /* \"#utility.yul\":3143:3196   */\n      tag_44\n      jump\t// in\n    tag_91:\n        /* \"#utility.yul\":3133:3196   */\n      swap3\n      pop\n        /* \"#utility.yul\":3089:3206   */\n      pop\n        /* \"#utility.yul\":3245:3247   */\n      0x20\n        /* \"#utility.yul\":3271:3324   */\n      tag_92\n        /* \"#utility.yul\":3316:3323   */\n      dup6\n        /* \"#utility.yul\":3307:3313   */\n      dup3\n        /* \"#utility.yul\":3296:3305   */\n      dup7\n        /* \"#utility.yul\":3292:3314   */\n      add\n        /* \"#utility.yul\":3271:3324   */\n      tag_51\n      jump\t// in\n    tag_92:\n        /* \"#utility.yul\":3261:3324   */\n      swap2\n      pop\n        /* \"#utility.yul\":3216:3334   */\n      pop\n        /* \"#utility.yul\":2867:3341   */\n      swap3\n      pop\n      swap3\n      swap1\n      pop\n      jump\t// out\n        /* \"#utility.yul\":3347:3465   */\n    tag_52:\n        /* \"#utility.yul\":3434:3458   */\n      tag_94\n        /* \"#utility.yul\":3452:3457   */\n      dup2\n        /* \"#utility.yul\":3434:3458   */\n      tag_49\n      jump\t// in\n    tag_94:\n        /* \"#utility.yul\":3429:3432   */\n      dup3\n        /* \"#utility.yul\":3422:3459   */\n      mstore\n        /* \"#utility.yul\":3347:3465   */\n      pop\n      pop\n      jump\t// out\n        /* \"#utility.yul\":3471:3693   */\n    tag_15:\n        /* \"#utility.yul\":3564:3568   */\n      0x00\n        /* \"#utility.yul\":3602:3604   */\n      0x20\n        /* \"#utility.yul\":3591:3600   */\n      dup3\n        /* \"#utility.yul\":3587:3605   */\n      add\n        /* \"#utility.yul\":3579:3605   */\n      swap1\n      pop\n        /* \"#utility.yul\":3615:3686   */\n      tag_96\n        /* \"#utility.yul\":3683:3684   */\n      0x00\n        /* \"#utility.yul\":3672:3681   */\n      dup4\n        /* \"#utility.yul\":3668:3685   */\n      add\n        /* \"#utility.yul\":3659:3665   */\n      dup5\n        /* \"#utility.yul\":3615:3686   */\n      tag_52\n      jump\t// in\n    tag_96:\n        /* \"#utility.yul\":3471:3693   */\n      swap3\n      swap2\n      pop\n      pop\n      jump\t// out\n        /* \"#utility.yul\":3699:4028   */\n    tag_18:\n        /* \"#utility.yul\":3758:3764   */\n      0x00\n        /* \"#utility.yul\":3807:3809   */\n      0x20\n        /* \"#utility.yul\":3795:3804   */\n      dup3\n        /* \"#utility.yul\":3786:3793   */\n      dup5\n        /* \"#utility.yul\":3782:3805   */\n      sub\n        /* \"#utility.yul\":3778:3810   */\n      slt\n        /* \"#utility.yul\":3775:3894   */\n      iszero\n      tag_98\n      jumpi\n        /* \"#utility.yul\":3813:3892   */\n      tag_99\n      tag_39\n      jump\t// in\n    tag_99:\n        /* \"#utility.yul\":3775:3894   */\n    tag_98:\n        /* \"#utility.yul\":3933:3934   */\n      0x00\n        /* \"#utility.yul\":3958:4011   */\n      tag_100\n        /* \"#utility.yul\":4003:4010   */\n      dup5\n        /* \"#utility.yul\":3994:4000   */\n      dup3\n        /* \"#utility.yul\":3983:3992   */\n      dup6\n        /* \"#utility.yul\":3979:4001   */\n      add\n        /* \"#utility.yul\":3958:4011   */\n      tag_44\n      jump\t// in\n    tag_100:\n        /* \"#utility.yul\":3948:4011   */\n      swap2\n      pop\n        /* \"#utility.yul\":3904:4021   */\n      pop\n        /* \"#utility.yul\":3699:4028   */\n      swap3\n      swap2\n      pop\n      pop\n      jump\t// out\n        /* \"#utility.yul\":4034:4214   */\n    tag_29:\n        /* \"#utility.yul\":4082:4159   */\n      0x4e487b7100000000000000000000000000000000000000000000000000000000\n        /* \"#utility.yul\":4079:4080   */\n      0x00\n        /* \"#utility.yul\":4072:4160   */\n      mstore\n        /* \"#utility.yul\":4179:4183   */\n      0x32\n        /* \"#utility.yul\":4176:4177   */\n      0x04\n        /* \"#utility.yul\":4169:4184   */\n      mstore\n        /* \"#utility.yul\":4203:4207   */\n      0x24\n        /* \"#utility.yul\":4200:4201   */\n      0x00\n        /* \"#utility.yul\":4193:4208   */\n      revert\n\n    auxdata: 0xa26469706673582212209ea2dd4a259dfe5b09c11aedd1aaccfe07f9af91cc6423b503c3fdf7a2e1230364736f6c634300081b0033\n}\n",
				"bytecode": {
					"linkReferences": {},
					"object": "6080604052348015600e575f5ffd5b506104468061001c5f395ff3fe608060405234801561000f575f5ffd5b506004361061003f575f3560e01c80631fc636ca1461004357806322d2b6c01461005f5780633ccc05221461008f575b5f5ffd5b61005d600480360381019061005891906102c2565b6100bf565b005b61007960048036038101906100749190610352565b610110565b604051610086919061039f565b60405180910390f35b6100a960048036038101906100a491906103b8565b61013a565b6040516100b6919061039f565b60405180910390f35b81815f5f8673ffffffffffffffffffffffffffffffffffffffff1673ffffffffffffffffffffffffffffffffffffffff1681526020019081526020015f20919061010a929190610199565b50505050565b5f602052815f5260405f208181548110610128575f80fd5b905f5260205f20015f91509150505481565b5f5f5f8373ffffffffffffffffffffffffffffffffffffffff1673ffffffffffffffffffffffffffffffffffffffff1681526020019081526020015f205f81548110610189576101886103e3565b5b905f5260205f2001549050919050565b828054828255905f5260205f209081019282156101d3579160200282015b828111156101d25782358255916020019190600101906101b7565b5b5090506101e091906101e4565b5090565b5b808211156101fb575f815f9055506001016101e5565b5090565b5f5ffd5b5f5ffd5b5f73ffffffffffffffffffffffffffffffffffffffff82169050919050565b5f61023082610207565b9050919050565b61024081610226565b811461024a575f5ffd5b50565b5f8135905061025b81610237565b92915050565b5f5ffd5b5f5ffd5b5f5ffd5b5f5f83601f84011261028257610281610261565b5b8235905067ffffffffffffffff81111561029f5761029e610265565b5b6020830191508360208202830111156102bb576102ba610269565b5b9250929050565b5f5f5f604084860312156102d9576102d86101ff565b5b5f6102e68682870161024d565b935050602084013567ffffffffffffffff81111561030757610306610203565b5b6103138682870161026d565b92509250509250925092565b5f819050919050565b6103318161031f565b811461033b575f5ffd5b50565b5f8135905061034c81610328565b92915050565b5f5f60408385031215610368576103676101ff565b5b5f6103758582860161024d565b92505060206103868582860161033e565b9150509250929050565b6103998161031f565b82525050565b5f6020820190506103b25f830184610390565b92915050565b5f602082840312156103cd576103cc6101ff565b5b5f6103da8482850161024d565b91505092915050565b7f4e487b71000000000000000000000000000000000000000000000000000000005f52603260045260245ffdfea26469706673582212209ea2dd4a259dfe5b09c11aedd1aaccfe07f9af91cc6423b503c3fdf7a2e1230364736f6c634300081b0033",
					"opcodes": "PUSH1 0x80 PUSH1 0x40 MSTORE CALLVALUE DUP1 ISZERO PUSH1 0xE JUMPI PUSH0 PUSH0 REVERT JUMPDEST POP PUSH2 0x446 DUP1 PUSH2 0x1C PUSH0 CODECOPY PUSH0 RETURN INVALID PUSH1 0x80 PUSH1 0x40 MSTORE CALLVALUE DUP1 ISZERO PUSH2 0xF JUMPI PUSH0 PUSH0 REVERT JUMPDEST POP PUSH1 0x4 CALLDATASIZE LT PUSH2 0x3F JUMPI PUSH0 CALLDATALOAD PUSH1 0xE0 SHR DUP1 PUSH4 0x1FC636CA EQ PUSH2 0x43 JUMPI DUP1 PUSH4 0x22D2B6C0 EQ PUSH2 0x5F JUMPI DUP1 PUSH4 0x3CCC0522 EQ PUSH2 0x8F JUMPI JUMPDEST PUSH0 PUSH0 REVERT JUMPDEST PUSH2 0x5D PUSH1 0x4 DUP1 CALLDATASIZE SUB DUP2 ADD SWAP1 PUSH2 0x58 SWAP2 SWAP1 PUSH2 0x2C2 JUMP JUMPDEST PUSH2 0xBF JUMP JUMPDEST STOP JUMPDEST PUSH2 0x79 PUSH1 0x4 DUP1 CALLDATASIZE SUB DUP2 ADD SWAP1 PUSH2 0x74 SWAP2 SWAP1 PUSH2 0x352 JUMP JUMPDEST PUSH2 0x110 JUMP JUMPDEST PUSH1 0x40 MLOAD PUSH2 0x86 SWAP2 SWAP1 PUSH2 0x39F JUMP JUMPDEST PUSH1 0x40 MLOAD DUP1 SWAP2 SUB SWAP1 RETURN JUMPDEST PUSH2 0xA9 PUSH1 0x4 DUP1 CALLDATASIZE SUB DUP2 ADD SWAP1 PUSH2 0xA4 SWAP2 SWAP1 PUSH2 0x3B8 JUMP JUMPDEST PUSH2 0x13A JUMP JUMPDEST PUSH1 0x40 MLOAD PUSH2 0xB6 SWAP2 SWAP1 PUSH2 0x39F JUMP JUMPDEST PUSH1 0x40 MLOAD DUP1 SWAP2 SUB SWAP1 RETURN JUMPDEST DUP2 DUP2 PUSH0 PUSH0 DUP7 PUSH20 0xFFFFFFFFFFFFFFFFFFFFFFFFFFFFFFFFFFFFFFFF AND PUSH20 0xFFFFFFFFFFFFFFFFFFFFFFFFFFFFFFFFFFFFFFFF AND DUP2 MSTORE PUSH1 0x20 ADD SWAP1 DUP2 MSTORE PUSH1 0x20 ADD PUSH0 KECCAK256 SWAP2 SWAP1 PUSH2 0x10A SWAP3 SWAP2 SWAP1 PUSH2 0x199 JUMP JUMPDEST POP POP POP POP JUMP JUMPDEST PUSH0 PUSH1 0x20 MSTORE DUP2 PUSH0 MSTORE PUSH1 0x40 PUSH0 KECCAK256 DUP2 DUP2 SLOAD DUP2 LT PUSH2 0x128 JUMPI PUSH0 DUP1 REVERT JUMPDEST SWAP1 PUSH0 MSTORE PUSH1 0x20 PUSH0 KECCAK256 ADD PUSH0 SWAP2 POP SWAP2 POP POP SLOAD DUP2 JUMP JUMPDEST PUSH0 PUSH0 PUSH0 DUP4 PUSH20 0xFFFFFFFFFFFFFFFFFFFFFFFFFFFFFFFFFFFFFFFF AND PUSH20 0xFFFFFFFFFFFFFFFFFFFFFFFFFFFFFFFFFFFFFFFF AND DUP2 MSTORE PUSH1 0x20 ADD SWAP1 DUP2 MSTORE PUSH1 0x20 ADD PUSH0 KECCAK256 PUSH0 DUP2 SLOAD DUP2 LT PUSH2 0x189 JUMPI PUSH2 0x188 PUSH2 0x3E3 JUMP JUMPDEST JUMPDEST SWAP1 PUSH0 MSTORE PUSH1 0x20 PUSH0 KECCAK256 ADD SLOAD SWAP1 POP SWAP2 SWAP1 POP JUMP JUMPDEST DUP3 DUP1 SLOAD DUP3 DUP3 SSTORE SWAP1 PUSH0 MSTORE PUSH1 0x20 PUSH0 KECCAK256 SWAP1 DUP2 ADD SWAP3 DUP3 ISZERO PUSH2 0x1D3 JUMPI SWAP2 PUSH1 0x20 MUL DUP3 ADD JUMPDEST DUP3 DUP2 GT ISZERO PUSH2 0x1D2 JUMPI DUP3 CALLDATALOAD DUP3 SSTORE SWAP2 PUSH1 0x20 ADD SWAP2 SWAP1 PUSH1 0x1 ADD SWAP1 PUSH2 0x1B7 JUMP JUMPDEST JUMPDEST POP SWAP1 POP PUSH2 0x1E0 SWAP2 SWAP1 PUSH2 0x1E4 JUMP JUMPDEST POP SWAP1 JUMP JUMPDEST JUMPDEST DUP1 DUP3 GT ISZERO PUSH2 0x1FB JUMPI PUSH0 DUP2 PUSH0 SWAP1 SSTORE POP PUSH1 0x1 ADD PUSH2 0x1E5 JUMP JUMPDEST POP SWAP1 JUMP JUMPDEST PUSH0 PUSH0 REVERT JUMPDEST PUSH0 PUSH0 REVERT JUMPDEST PUSH0 PUSH20 0xFFFFFFFFFFFFFFFFFFFFFFFFFFFFFFFFFFFFFFFF DUP3 AND SWAP1 POP SWAP2 SWAP1 POP JUMP JUMPDEST PUSH0 PUSH2 0x230 DUP3 PUSH2 0x207 JUMP JUMPDEST SWAP1 POP SWAP2 SWAP1 POP JUMP JUMPDEST PUSH2 0x240 DUP2 PUSH2 0x226 JUMP JUMPDEST DUP2 EQ PUSH2 0x24A JUMPI PUSH0 PUSH0 REVERT JUMPDEST POP JUMP JUMPDEST PUSH0 DUP2 CALLDATALOAD SWAP1 POP PUSH2 0x25B DUP2 PUSH2 0x237 JUMP JUMPDEST SWAP3 SWAP2 POP POP JUMP JUMPDEST PUSH0 PUSH0 REVERT JUMPDEST PUSH0 PUSH0 REVERT JUMPDEST PUSH0 PUSH0 REVERT JUMPDEST PUSH0 PUSH0 DUP4 PUSH1 0x1F DUP5 ADD SLT PUSH2 0x282 JUMPI PUSH2 0x281 PUSH2 0x261 JUMP JUMPDEST JUMPDEST DUP3 CALLDATALOAD SWAP1 POP PUSH8 0xFFFFFFFFFFFFFFFF DUP2 GT ISZERO PUSH2 0x29F JUMPI PUSH2 0x29E PUSH2 0x265 JUMP JUMPDEST JUMPDEST PUSH1 0x20 DUP4 ADD SWAP2 POP DUP4 PUSH1 0x20 DUP3 MUL DUP4 ADD GT ISZERO PUSH2 0x2BB JUMPI PUSH2 0x2BA PUSH2 0x269 JUMP JUMPDEST JUMPDEST SWAP3 POP SWAP3 SWAP1 POP JUMP JUMPDEST PUSH0 PUSH0 PUSH0 PUSH1 0x40 DUP5 DUP7 SUB SLT ISZERO PUSH2 0x2D9 JUMPI PUSH2 0x2D8 PUSH2 0x1FF JUMP JUMPDEST JUMPDEST PUSH0 PUSH2 0x2E6 DUP7 DUP3 DUP8 ADD PUSH2 0x24D JUMP JUMPDEST SWAP4 POP POP PUSH1 0x20 DUP5 ADD CALLDATALOAD PUSH8 0xFFFFFFFFFFFFFFFF DUP2 GT ISZERO PUSH2 0x307 JUMPI PUSH2 0x306 PUSH2 0x203 JUMP JUMPDEST JUMPDEST PUSH2 0x313 DUP7 DUP3 DUP8 ADD PUSH2 0x26D JUMP JUMPDEST SWAP3 POP SWAP3 POP POP SWAP3 POP SWAP3 POP SWAP3 JUMP JUMPDEST PUSH0 DUP2 SWAP1 POP SWAP2 SWAP1 POP JUMP JUMPDEST PUSH2 0x331 DUP2 PUSH2 0x31F JUMP JUMPDEST DUP2 EQ PUSH2 0x33B JUMPI PUSH0 PUSH0 REVERT JUMPDEST POP JUMP JUMPDEST PUSH0 DUP2 CALLDATALOAD SWAP1 POP PUSH2 0x34C DUP2 PUSH2 0x328 JUMP JUMPDEST SWAP3 SWAP2 POP POP JUMP JUMPDEST PUSH0 PUSH0 PUSH1 0x40 DUP4 DUP6 SUB SLT ISZERO PUSH2 0x368 JUMPI PUSH2 0x367 PUSH2 0x1FF JUMP JUMPDEST JUMPDEST PUSH0 PUSH2 0x375 DUP6 DUP3 DUP7 ADD PUSH2 0x24D JUMP JUMPDEST SWAP3 POP POP PUSH1 0x20 PUSH2 0x386 DUP6 DUP3 DUP7 ADD PUSH2 0x33E JUMP JUMPDEST SWAP2 POP POP SWAP3 POP SWAP3 SWAP1 POP JUMP JUMPDEST PUSH2 0x399 DUP2 PUSH2 0x31F JUMP JUMPDEST DUP3 MSTORE POP POP JUMP JUMPDEST PUSH0 PUSH1 0x20 DUP3 ADD SWAP1 POP PUSH2 0x3B2 PUSH0 DUP4 ADD DUP5 PUSH2 0x390 JUMP JUMPDEST SWAP3 SWAP2 POP POP JUMP JUMPDEST PUSH0 PUSH1 0x20 DUP3 DUP5 SUB SLT ISZERO PUSH2 0x3CD JUMPI PUSH2 0x3CC PUSH2 0x1FF JUMP JUMPDEST JUMPDEST PUSH0 PUSH2 0x3DA DUP5 DUP3 DUP6 ADD PUSH2 0x24D JUMP JUMPDEST SWAP2 POP POP SWAP3 SWAP2 POP POP JUMP JUMPDEST PUSH32 0x4E487B7100000000000000000000000000000000000000000000000000000000 PUSH0 MSTORE PUSH1 0x32 PUSH1 0x4 MSTORE PUSH1 0x24 PUSH0 REVERT INVALID LOG2 PUSH5 0x6970667358 0x22 SLT KECCAK256 SWAP15 LOG2 0xDD BLOBBASEFEE 0x25 SWAP14 INVALID JUMPDEST MULMOD 0xC1 BYTE 0xED 0xD1 0xAA 0xCC INVALID SMOD 0xF9 0xAF SWAP2 0xCC PUSH5 0x23B503C3FD 0xF7 LOG2 0xE1 0x23 SUB PUSH5 0x736F6C6343 STOP ADDMOD SHL STOP CALLER "
				},
				"gasEstimates": {
					"creation": {
						"codeDepositCost": "218800",
						"executionCost": "261",
						"totalCost": "219061"
					},
					"external": {
						"getValue(address)": "5027",
						"insert(address,uint256[])": "infinite",
						"mapArr(address,uint256)": "infinite"
					}
				},
				"methodIdentifiers": {
					"getValue(address)": "3ccc0522",
					"insert(address,uint256[])": "1fc636ca",
					"mapArr(address,uint256)": "22d2b6c0"
				}
			},
			"storageLayout": {
				"storage": [
					{
						"astId": 6,
						"contract": "contracts/Mapping/MappingWIthArray.sol:MappingWIthArray",
						"label": "mapArr",
						"offset": 0,
						"slot": "0",
						"type": "t_mapping(t_address,t_array(t_uint256)dyn_storage)"
					}
				],
				"types": {
					"t_address": {
						"encoding": "inplace",
						"label": "address",
						"numberOfBytes": "20"
					},
					"t_array(t_uint256)dyn_storage": {
						"base": "t_uint256",
						"encoding": "dynamic_array",
						"label": "uint256[]",
						"numberOfBytes": "32"
					},
					"t_mapping(t_address,t_array(t_uint256)dyn_storage)": {
						"encoding": "mapping",
						"key": "t_address",
						"label": "mapping(address => uint256[])",
						"numberOfBytes": "32",
						"value": "t_array(t_uint256)dyn_storage"
					},
					"t_uint256": {
						"encoding": "inplace",
						"label": "uint256",
						"numberOfBytes": "32"
					}
				}
			},
			"userdoc": {
				"kind": "user",
				"methods": {},
				"version": 1
			}
		}
	}
}