{
	"data": {
		"bytecode": {
			"linkReferences": {},
			"object": "6080604052348015600e575f80fd5b50335f806101000a81548173ffffffffffffffffffffffffffffffffffffffff021916908373ffffffffffffffffffffffffffffffffffffffff160217905550610d328061005b5f395ff3fe60806040526004361061007a575f3560e01c806397a993aa1161004d57806397a993aa14610116578063a035b1fe14610152578063d25cf0f51461017c578063f2c09670146101a65761007a565b8063630002961461007e5780638d6cc56d146100a85780638da5cb5b146100d0578063975d279c146100fa575b5f80fd5b348015610089575f80fd5b506100926101d0565b60405161009f9190610583565b60405180910390f35b3480156100b3575f80fd5b506100ce60048036038101906100c991906105e0565b610220565b005b3480156100db575f80fd5b506100e4610280565b6040516100f1919061064a565b60405180910390f35b610114600480360381019061010f919061079f565b6102a3565b005b348015610121575f80fd5b5061013c6004803603810190610137919061083f565b61042e565b6040516101499190610583565b60405180910390f35b34801561015d575f80fd5b5061016661044b565b6040516101739190610879565b60405180910390f35b348015610187575f80fd5b50610190610451565b60405161019d91906108f2565b60405180910390f35b3480156101b1575f80fd5b506101ba6104dd565b6040516101c791906108f2565b60405180910390f35b5f60015f3373ffffffffffffffffffffffffffffffffffffffff1673ffffffffffffffffffffffffffffffffffffffff1681526020019081526020015f205f9054906101000a900460ff16905090565b5f8054906101000a900473ffffffffffffffffffffffffffffffffffffffff1673ffffffffffffffffffffffffffffffffffffffff163373ffffffffffffffffffffffffffffffffffffffff1614610276575f80fd5b8060048190555050565b5f8054906101000a900473ffffffffffffffffffffffffffffffffffffffff1681565b6004543410156102e8576040517f08c379a00000000000000000000000000000000000000000000000000000000081526004016102df9061095c565b60405180910390fd5b5f151560015f3373ffffffffffffffffffffffffffffffffffffffff1673ffffffffffffffffffffffffffffffffffffffff1681526020019081526020015f205f9054906101000a900460ff16151514610377576040517f08c379a000000000000000000000000000000000000000000000000000000000815260040161036e906109c4565b60405180910390fd5b81600290816103869190610bdc565b5080600390816103969190610bdc565b506001805f3373ffffffffffffffffffffffffffffffffffffffff1673ffffffffffffffffffffffffffffffffffffffff1681526020019081526020015f205f6101000a81548160ff0219169083151502179055507fb7d525d230b4a7b392c8e8c7cb545883b05ad379bddb9fc3c91a3e340b88222b3383836004546040516104229493929190610cab565b60405180910390a15050565b6001602052805f5260405f205f915054906101000a900460ff1681565b60045481565b6002805461045e90610a0f565b80601f016020809104026020016040519081016040528092919081815260200182805461048a90610a0f565b80156104d55780601f106104ac576101008083540402835291602001916104d5565b820191905f5260205f20905b8154815290600101906020018083116104b857829003601f168201915b505050505081565b600380546104ea90610a0f565b80601f016020809104026020016040519081016040528092919081815260200182805461051690610a0f565b80156105615780601f1061053857610100808354040283529160200191610561565b820191905f5260205f20905b81548152906001019060200180831161054457829003601f168201915b505050505081565b5f8115159050919050565b61057d81610569565b82525050565b5f6020820190506105965f830184610574565b92915050565b5f604051905090565b5f80fd5b5f80fd5b5f819050919050565b6105bf816105ad565b81146105c9575f80fd5b50565b5f813590506105da816105b6565b92915050565b5f602082840312156105f5576105f46105a5565b5b5f610602848285016105cc565b91505092915050565b5f73ffffffffffffffffffffffffffffffffffffffff82169050919050565b5f6106348261060b565b9050919050565b6106448161062a565b82525050565b5f60208201905061065d5f83018461063b565b92915050565b5f80fd5b5f80fd5b5f601f19601f8301169050919050565b7f4e487b71000000000000000000000000000000000000000000000000000000005f52604160045260245ffd5b6106b18261066b565b810181811067ffffffffffffffff821117156106d0576106cf61067b565b5b80604052505050565b5f6106e261059c565b90506106ee82826106a8565b919050565b5f67ffffffffffffffff82111561070d5761070c61067b565b5b6107168261066b565b9050602081019050919050565b828183375f83830152505050565b5f61074361073e846106f3565b6106d9565b90508281526020810184848401111561075f5761075e610667565b5b61076a848285610723565b509392505050565b5f82601f83011261078657610785610663565b5b8135610796848260208601610731565b91505092915050565b5f80604083850312156107b5576107b46105a5565b5b5f83013567ffffffffffffffff8111156107d2576107d16105a9565b5b6107de85828601610772565b925050602083013567ffffffffffffffff8111156107ff576107fe6105a9565b5b61080b85828601610772565b9150509250929050565b61081e8161062a565b8114610828575f80fd5b50565b5f8135905061083981610815565b92915050565b5f60208284031215610854576108536105a5565b5b5f6108618482850161082b565b91505092915050565b610873816105ad565b82525050565b5f60208201905061088c5f83018461086a565b92915050565b5f81519050919050565b5f82825260208201905092915050565b8281835e5f83830152505050565b5f6108c482610892565b6108ce818561089c565b93506108de8185602086016108ac565b6108e78161066b565b840191505092915050565b5f6020820190508181035f83015261090a81846108ba565b905092915050565b7f496e73756666696369656e742062616c616e63650000000000000000000000005f82015250565b5f61094660148361089c565b915061095182610912565b602082019050919050565b5f6020820190508181035f8301526109738161093a565b9050919050565b7f4f776e65722063616e27742062757920636172000000000000000000000000005f82015250565b5f6109ae60138361089c565b91506109b98261097a565b602082019050919050565b5f6020820190508181035f8301526109db816109a2565b9050919050565b7f4e487b71000000000000000000000000000000000000000000000000000000005f52602260045260245ffd5b5f6002820490506001821680610a2657607f821691505b602082108103610a3957610a386109e2565b5b50919050565b5f819050815f5260205f209050919050565b5f6020601f8301049050919050565b5f82821b905092915050565b5f60088302610a9b7fffffffffffffffffffffffffffffffffffffffffffffffffffffffffffffffff82610a60565b610aa58683610a60565b95508019841693508086168417925050509392505050565b5f819050919050565b5f610ae0610adb610ad6846105ad565b610abd565b6105ad565b9050919050565b5f819050919050565b610af983610ac6565b610b0d610b0582610ae7565b848454610a6c565b825550505050565b5f90565b610b21610b15565b610b2c818484610af0565b505050565b5b81811015610b4f57610b445f82610b19565b600181019050610b32565b5050565b601f821115610b9457610b6581610a3f565b610b6e84610a51565b81016020851015610b7d578190505b610b91610b8985610a51565b830182610b31565b50505b505050565b5f82821c905092915050565b5f610bb45f1984600802610b99565b1980831691505092915050565b5f610bcc8383610ba5565b9150826002028217905092915050565b610be582610892565b67ffffffffffffffff811115610bfe57610bfd61067b565b5b610c088254610a0f565b610c13828285610b53565b5f60209050601f831160018114610c44575f8415610c32578287015190505b610c3c8582610bc1565b865550610ca3565b601f198416610c5286610a3f565b5f5b82811015610c7957848901518255600182019150602085019450602081019050610c54565b86831015610c965784890151610c92601f891682610ba5565b8355505b6001600288020188555050505b505050505050565b5f608082019050610cbe5f83018761063b565b8181036020830152610cd081866108ba565b90508181036040830152610ce481856108ba565b9050610cf3606083018461086a565b9594505050505056fea26469706673582212204a6e6345eb75313ae4c041874bc6a5ec28cfc578f181b01c0974f1bd7628649e64736f6c634300081a0033",
			"opcodes": "PUSH1 0x80 PUSH1 0x40 MSTORE CALLVALUE DUP1 ISZERO PUSH1 0xE JUMPI PUSH0 DUP1 REVERT JUMPDEST POP CALLER PUSH0 DUP1 PUSH2 0x100 EXP DUP2 SLOAD DUP2 PUSH20 0xFFFFFFFFFFFFFFFFFFFFFFFFFFFFFFFFFFFFFFFF MUL NOT AND SWAP1 DUP4 PUSH20 0xFFFFFFFFFFFFFFFFFFFFFFFFFFFFFFFFFFFFFFFF AND MUL OR SWAP1 SSTORE POP PUSH2 0xD32 DUP1 PUSH2 0x5B PUSH0 CODECOPY PUSH0 RETURN INVALID PUSH1 0x80 PUSH1 0x40 MSTORE PUSH1 0x4 CALLDATASIZE LT PUSH2 0x7A JUMPI PUSH0 CALLDATALOAD PUSH1 0xE0 SHR DUP1 PUSH4 0x97A993AA GT PUSH2 0x4D JUMPI DUP1 PUSH4 0x97A993AA EQ PUSH2 0x116 JUMPI DUP1 PUSH4 0xA035B1FE EQ PUSH2 0x152 JUMPI DUP1 PUSH4 0xD25CF0F5 EQ PUSH2 0x17C JUMPI DUP1 PUSH4 0xF2C09670 EQ PUSH2 0x1A6 JUMPI PUSH2 0x7A JUMP JUMPDEST DUP1 PUSH4 0x63000296 EQ PUSH2 0x7E JUMPI DUP1 PUSH4 0x8D6CC56D EQ PUSH2 0xA8 JUMPI DUP1 PUSH4 0x8DA5CB5B EQ PUSH2 0xD0 JUMPI DUP1 PUSH4 0x975D279C EQ PUSH2 0xFA JUMPI JUMPDEST PUSH0 DUP1 REVERT JUMPDEST CALLVALUE DUP1 ISZERO PUSH2 0x89 JUMPI PUSH0 DUP1 REVERT JUMPDEST POP PUSH2 0x92 PUSH2 0x1D0 JUMP JUMPDEST PUSH1 0x40 MLOAD PUSH2 0x9F SWAP2 SWAP1 PUSH2 0x583 JUMP JUMPDEST PUSH1 0x40 MLOAD DUP1 SWAP2 SUB SWAP1 RETURN JUMPDEST CALLVALUE DUP1 ISZERO PUSH2 0xB3 JUMPI PUSH0 DUP1 REVERT JUMPDEST POP PUSH2 0xCE PUSH1 0x4 DUP1 CALLDATASIZE SUB DUP2 ADD SWAP1 PUSH2 0xC9 SWAP2 SWAP1 PUSH2 0x5E0 JUMP JUMPDEST PUSH2 0x220 JUMP JUMPDEST STOP JUMPDEST CALLVALUE DUP1 ISZERO PUSH2 0xDB JUMPI PUSH0 DUP1 REVERT JUMPDEST POP PUSH2 0xE4 PUSH2 0x280 JUMP JUMPDEST PUSH1 0x40 MLOAD PUSH2 0xF1 SWAP2 SWAP1 PUSH2 0x64A JUMP JUMPDEST PUSH1 0x40 MLOAD DUP1 SWAP2 SUB SWAP1 RETURN JUMPDEST PUSH2 0x114 PUSH1 0x4 DUP1 CALLDATASIZE SUB DUP2 ADD SWAP1 PUSH2 0x10F SWAP2 SWAP1 PUSH2 0x79F JUMP JUMPDEST PUSH2 0x2A3 JUMP JUMPDEST STOP JUMPDEST CALLVALUE DUP1 ISZERO PUSH2 0x121 JUMPI PUSH0 DUP1 REVERT JUMPDEST POP PUSH2 0x13C PUSH1 0x4 DUP1 CALLDATASIZE SUB DUP2 ADD SWAP1 PUSH2 0x137 SWAP2 SWAP1 PUSH2 0x83F JUMP JUMPDEST PUSH2 0x42E JUMP JUMPDEST PUSH1 0x40 MLOAD PUSH2 0x149 SWAP2 SWAP1 PUSH2 0x583 JUMP JUMPDEST PUSH1 0x40 MLOAD DUP1 SWAP2 SUB SWAP1 RETURN JUMPDEST CALLVALUE DUP1 ISZERO PUSH2 0x15D JUMPI PUSH0 DUP1 REVERT JUMPDEST POP PUSH2 0x166 PUSH2 0x44B JUMP JUMPDEST PUSH1 0x40 MLOAD PUSH2 0x173 SWAP2 SWAP1 PUSH2 0x879 JUMP JUMPDEST PUSH1 0x40 MLOAD DUP1 SWAP2 SUB SWAP1 RETURN JUMPDEST CALLVALUE DUP1 ISZERO PUSH2 0x187 JUMPI PUSH0 DUP1 REVERT JUMPDEST POP PUSH2 0x190 PUSH2 0x451 JUMP JUMPDEST PUSH1 0x40 MLOAD PUSH2 0x19D SWAP2 SWAP1 PUSH2 0x8F2 JUMP JUMPDEST PUSH1 0x40 MLOAD DUP1 SWAP2 SUB SWAP1 RETURN JUMPDEST CALLVALUE DUP1 ISZERO PUSH2 0x1B1 JUMPI PUSH0 DUP1 REVERT JUMPDEST POP PUSH2 0x1BA PUSH2 0x4DD JUMP JUMPDEST PUSH1 0x40 MLOAD PUSH2 0x1C7 SWAP2 SWAP1 PUSH2 0x8F2 JUMP JUMPDEST PUSH1 0x40 MLOAD DUP1 SWAP2 SUB SWAP1 RETURN JUMPDEST PUSH0 PUSH1 0x1 PUSH0 CALLER PUSH20 0xFFFFFFFFFFFFFFFFFFFFFFFFFFFFFFFFFFFFFFFF AND PUSH20 0xFFFFFFFFFFFFFFFFFFFFFFFFFFFFFFFFFFFFFFFF AND DUP2 MSTORE PUSH1 0x20 ADD SWAP1 DUP2 MSTORE PUSH1 0x20 ADD PUSH0 KECCAK256 PUSH0 SWAP1 SLOAD SWAP1 PUSH2 0x100 EXP SWAP1 DIV PUSH1 0xFF AND SWAP1 POP SWAP1 JUMP JUMPDEST PUSH0 DUP1 SLOAD SWAP1 PUSH2 0x100 EXP SWAP1 DIV PUSH20 0xFFFFFFFFFFFFFFFFFFFFFFFFFFFFFFFFFFFFFFFF AND PUSH20 0xFFFFFFFFFFFFFFFFFFFFFFFFFFFFFFFFFFFFFFFF AND CALLER PUSH20 0xFFFFFFFFFFFFFFFFFFFFFFFFFFFFFFFFFFFFFFFF AND EQ PUSH2 0x276 JUMPI PUSH0 DUP1 REVERT JUMPDEST DUP1 PUSH1 0x4 DUP2 SWAP1 SSTORE POP POP JUMP JUMPDEST PUSH0 DUP1 SLOAD SWAP1 PUSH2 0x100 EXP SWAP1 DIV PUSH20 0xFFFFFFFFFFFFFFFFFFFFFFFFFFFFFFFFFFFFFFFF AND DUP2 JUMP JUMPDEST PUSH1 0x4 SLOAD CALLVALUE LT ISZERO PUSH2 0x2E8 JUMPI PUSH1 0x40 MLOAD PUSH32 0x8C379A000000000000000000000000000000000000000000000000000000000 DUP2 MSTORE PUSH1 0x4 ADD PUSH2 0x2DF SWAP1 PUSH2 0x95C JUMP JUMPDEST PUSH1 0x40 MLOAD DUP1 SWAP2 SUB SWAP1 REVERT JUMPDEST PUSH0 ISZERO ISZERO PUSH1 0x1 PUSH0 CALLER PUSH20 0xFFFFFFFFFFFFFFFFFFFFFFFFFFFFFFFFFFFFFFFF AND PUSH20 0xFFFFFFFFFFFFFFFFFFFFFFFFFFFFFFFFFFFFFFFF AND DUP2 MSTORE PUSH1 0x20 ADD SWAP1 DUP2 MSTORE PUSH1 0x20 ADD PUSH0 KECCAK256 PUSH0 SWAP1 SLOAD SWAP1 PUSH2 0x100 EXP SWAP1 DIV PUSH1 0xFF AND ISZERO ISZERO EQ PUSH2 0x377 JUMPI PUSH1 0x40 MLOAD PUSH32 0x8C379A000000000000000000000000000000000000000000000000000000000 DUP2 MSTORE PUSH1 0x4 ADD PUSH2 0x36E SWAP1 PUSH2 0x9C4 JUMP JUMPDEST PUSH1 0x40 MLOAD DUP1 SWAP2 SUB SWAP1 REVERT JUMPDEST DUP2 PUSH1 0x2 SWAP1 DUP2 PUSH2 0x386 SWAP2 SWAP1 PUSH2 0xBDC JUMP JUMPDEST POP DUP1 PUSH1 0x3 SWAP1 DUP2 PUSH2 0x396 SWAP2 SWAP1 PUSH2 0xBDC JUMP JUMPDEST POP PUSH1 0x1 DUP1 PUSH0 CALLER PUSH20 0xFFFFFFFFFFFFFFFFFFFFFFFFFFFFFFFFFFFFFFFF AND PUSH20 0xFFFFFFFFFFFFFFFFFFFFFFFFFFFFFFFFFFFFFFFF AND DUP2 MSTORE PUSH1 0x20 ADD SWAP1 DUP2 MSTORE PUSH1 0x20 ADD PUSH0 KECCAK256 PUSH0 PUSH2 0x100 EXP DUP2 SLOAD DUP2 PUSH1 0xFF MUL NOT AND SWAP1 DUP4 ISZERO ISZERO MUL OR SWAP1 SSTORE POP PUSH32 0xB7D525D230B4A7B392C8E8C7CB545883B05AD379BDDB9FC3C91A3E340B88222B CALLER DUP4 DUP4 PUSH1 0x4 SLOAD PUSH1 0x40 MLOAD PUSH2 0x422 SWAP5 SWAP4 SWAP3 SWAP2 SWAP1 PUSH2 0xCAB JUMP JUMPDEST PUSH1 0x40 MLOAD DUP1 SWAP2 SUB SWAP1 LOG1 POP POP JUMP JUMPDEST PUSH1 0x1 PUSH1 0x20 MSTORE DUP1 PUSH0 MSTORE PUSH1 0x40 PUSH0 KECCAK256 PUSH0 SWAP2 POP SLOAD SWAP1 PUSH2 0x100 EXP SWAP1 DIV PUSH1 0xFF AND DUP2 JUMP JUMPDEST PUSH1 0x4 SLOAD DUP2 JUMP JUMPDEST PUSH1 0x2 DUP1 SLOAD PUSH2 0x45E SWAP1 PUSH2 0xA0F JUMP JUMPDEST DUP1 PUSH1 0x1F ADD PUSH1 0x20 DUP1 SWAP2 DIV MUL PUSH1 0x20 ADD PUSH1 0x40 MLOAD SWAP1 DUP2 ADD PUSH1 0x40 MSTORE DUP1 SWAP3 SWAP2 SWAP1 DUP2 DUP2 MSTORE PUSH1 0x20 ADD DUP3 DUP1 SLOAD PUSH2 0x48A SWAP1 PUSH2 0xA0F JUMP JUMPDEST DUP1 ISZERO PUSH2 0x4D5 JUMPI DUP1 PUSH1 0x1F LT PUSH2 0x4AC JUMPI PUSH2 0x100 DUP1 DUP4 SLOAD DIV MUL DUP4 MSTORE SWAP2 PUSH1 0x20 ADD SWAP2 PUSH2 0x4D5 JUMP JUMPDEST DUP3 ADD SWAP2 SWAP1 PUSH0 MSTORE PUSH1 0x20 PUSH0 KECCAK256 SWAP1 JUMPDEST DUP2 SLOAD DUP2 MSTORE SWAP1 PUSH1 0x1 ADD SWAP1 PUSH1 0x20 ADD DUP1 DUP4 GT PUSH2 0x4B8 JUMPI DUP3 SWAP1 SUB PUSH1 0x1F AND DUP3 ADD SWAP2 JUMPDEST POP POP POP POP POP DUP2 JUMP JUMPDEST PUSH1 0x3 DUP1 SLOAD PUSH2 0x4EA SWAP1 PUSH2 0xA0F JUMP JUMPDEST DUP1 PUSH1 0x1F ADD PUSH1 0x20 DUP1 SWAP2 DIV MUL PUSH1 0x20 ADD PUSH1 0x40 MLOAD SWAP1 DUP2 ADD PUSH1 0x40 MSTORE DUP1 SWAP3 SWAP2 SWAP1 DUP2 DUP2 MSTORE PUSH1 0x20 ADD DUP3 DUP1 SLOAD PUSH2 0x516 SWAP1 PUSH2 0xA0F JUMP JUMPDEST DUP1 ISZERO PUSH2 0x561 JUMPI DUP1 PUSH1 0x1F LT PUSH2 0x538 JUMPI PUSH2 0x100 DUP1 DUP4 SLOAD DIV MUL DUP4 MSTORE SWAP2 PUSH1 0x20 ADD SWAP2 PUSH2 0x561 JUMP JUMPDEST DUP3 ADD SWAP2 SWAP1 PUSH0 MSTORE PUSH1 0x20 PUSH0 KECCAK256 SWAP1 JUMPDEST DUP2 SLOAD DUP2 MSTORE SWAP1 PUSH1 0x1 ADD SWAP1 PUSH1 0x20 ADD DUP1 DUP4 GT PUSH2 0x544 JUMPI DUP3 SWAP1 SUB PUSH1 0x1F AND DUP3 ADD SWAP2 JUMPDEST POP POP POP POP POP DUP2 JUMP JUMPDEST PUSH0 DUP2 ISZERO ISZERO SWAP1 POP SWAP2 SWAP1 POP JUMP JUMPDEST PUSH2 0x57D DUP2 PUSH2 0x569 JUMP JUMPDEST DUP3 MSTORE POP POP JUMP JUMPDEST PUSH0 PUSH1 0x20 DUP3 ADD SWAP1 POP PUSH2 0x596 PUSH0 DUP4 ADD DUP5 PUSH2 0x574 JUMP JUMPDEST SWAP3 SWAP2 POP POP JUMP JUMPDEST PUSH0 PUSH1 0x40 MLOAD SWAP1 POP SWAP1 JUMP JUMPDEST PUSH0 DUP1 REVERT JUMPDEST PUSH0 DUP1 REVERT JUMPDEST PUSH0 DUP2 SWAP1 POP SWAP2 SWAP1 POP JUMP JUMPDEST PUSH2 0x5BF DUP2 PUSH2 0x5AD JUMP JUMPDEST DUP2 EQ PUSH2 0x5C9 JUMPI PUSH0 DUP1 REVERT JUMPDEST POP JUMP JUMPDEST PUSH0 DUP2 CALLDATALOAD SWAP1 POP PUSH2 0x5DA DUP2 PUSH2 0x5B6 JUMP JUMPDEST SWAP3 SWAP2 POP POP JUMP JUMPDEST PUSH0 PUSH1 0x20 DUP3 DUP5 SUB SLT ISZERO PUSH2 0x5F5 JUMPI PUSH2 0x5F4 PUSH2 0x5A5 JUMP JUMPDEST JUMPDEST PUSH0 PUSH2 0x602 DUP5 DUP3 DUP6 ADD PUSH2 0x5CC JUMP JUMPDEST SWAP2 POP POP SWAP3 SWAP2 POP POP JUMP JUMPDEST PUSH0 PUSH20 0xFFFFFFFFFFFFFFFFFFFFFFFFFFFFFFFFFFFFFFFF DUP3 AND SWAP1 POP SWAP2 SWAP1 POP JUMP JUMPDEST PUSH0 PUSH2 0x634 DUP3 PUSH2 0x60B JUMP JUMPDEST SWAP1 POP SWAP2 SWAP1 POP JUMP JUMPDEST PUSH2 0x644 DUP2 PUSH2 0x62A JUMP JUMPDEST DUP3 MSTORE POP POP JUMP JUMPDEST PUSH0 PUSH1 0x20 DUP3 ADD SWAP1 POP PUSH2 0x65D PUSH0 DUP4 ADD DUP5 PUSH2 0x63B JUMP JUMPDEST SWAP3 SWAP2 POP POP JUMP JUMPDEST PUSH0 DUP1 REVERT JUMPDEST PUSH0 DUP1 REVERT JUMPDEST PUSH0 PUSH1 0x1F NOT PUSH1 0x1F DUP4 ADD AND SWAP1 POP SWAP2 SWAP1 POP JUMP JUMPDEST PUSH32 0x4E487B7100000000000000000000000000000000000000000000000000000000 PUSH0 MSTORE PUSH1 0x41 PUSH1 0x4 MSTORE PUSH1 0x24 PUSH0 REVERT JUMPDEST PUSH2 0x6B1 DUP3 PUSH2 0x66B JUMP JUMPDEST DUP2 ADD DUP2 DUP2 LT PUSH8 0xFFFFFFFFFFFFFFFF DUP3 GT OR ISZERO PUSH2 0x6D0 JUMPI PUSH2 0x6CF PUSH2 0x67B JUMP JUMPDEST JUMPDEST DUP1 PUSH1 0x40 MSTORE POP POP POP JUMP JUMPDEST PUSH0 PUSH2 0x6E2 PUSH2 0x59C JUMP JUMPDEST SWAP1 POP PUSH2 0x6EE DUP3 DUP3 PUSH2 0x6A8 JUMP JUMPDEST SWAP2 SWAP1 POP JUMP JUMPDEST PUSH0 PUSH8 0xFFFFFFFFFFFFFFFF DUP3 GT ISZERO PUSH2 0x70D JUMPI PUSH2 0x70C PUSH2 0x67B JUMP JUMPDEST JUMPDEST PUSH2 0x716 DUP3 PUSH2 0x66B JUMP JUMPDEST SWAP1 POP PUSH1 0x20 DUP2 ADD SWAP1 POP SWAP2 SWAP1 POP JUMP JUMPDEST DUP3 DUP2 DUP4 CALLDATACOPY PUSH0 DUP4 DUP4 ADD MSTORE POP POP POP JUMP JUMPDEST PUSH0 PUSH2 0x743 PUSH2 0x73E DUP5 PUSH2 0x6F3 JUMP JUMPDEST PUSH2 0x6D9 JUMP JUMPDEST SWAP1 POP DUP3 DUP2 MSTORE PUSH1 0x20 DUP2 ADD DUP5 DUP5 DUP5 ADD GT ISZERO PUSH2 0x75F JUMPI PUSH2 0x75E PUSH2 0x667 JUMP JUMPDEST JUMPDEST PUSH2 0x76A DUP5 DUP3 DUP6 PUSH2 0x723 JUMP JUMPDEST POP SWAP4 SWAP3 POP POP POP JUMP JUMPDEST PUSH0 DUP3 PUSH1 0x1F DUP4 ADD SLT PUSH2 0x786 JUMPI PUSH2 0x785 PUSH2 0x663 JUMP JUMPDEST JUMPDEST DUP2 CALLDATALOAD PUSH2 0x796 DUP5 DUP3 PUSH1 0x20 DUP7 ADD PUSH2 0x731 JUMP JUMPDEST SWAP2 POP POP SWAP3 SWAP2 POP POP JUMP JUMPDEST PUSH0 DUP1 PUSH1 0x40 DUP4 DUP6 SUB SLT ISZERO PUSH2 0x7B5 JUMPI PUSH2 0x7B4 PUSH2 0x5A5 JUMP JUMPDEST JUMPDEST PUSH0 DUP4 ADD CALLDATALOAD PUSH8 0xFFFFFFFFFFFFFFFF DUP2 GT ISZERO PUSH2 0x7D2 JUMPI PUSH2 0x7D1 PUSH2 0x5A9 JUMP JUMPDEST JUMPDEST PUSH2 0x7DE DUP6 DUP3 DUP7 ADD PUSH2 0x772 JUMP JUMPDEST SWAP3 POP POP PUSH1 0x20 DUP4 ADD CALLDATALOAD PUSH8 0xFFFFFFFFFFFFFFFF DUP2 GT ISZERO PUSH2 0x7FF JUMPI PUSH2 0x7FE PUSH2 0x5A9 JUMP JUMPDEST JUMPDEST PUSH2 0x80B DUP6 DUP3 DUP7 ADD PUSH2 0x772 JUMP JUMPDEST SWAP2 POP POP SWAP3 POP SWAP3 SWAP1 POP JUMP JUMPDEST PUSH2 0x81E DUP2 PUSH2 0x62A JUMP JUMPDEST DUP2 EQ PUSH2 0x828 JUMPI PUSH0 DUP1 REVERT JUMPDEST POP JUMP JUMPDEST PUSH0 DUP2 CALLDATALOAD SWAP1 POP PUSH2 0x839 DUP2 PUSH2 0x815 JUMP JUMPDEST SWAP3 SWAP2 POP POP JUMP JUMPDEST PUSH0 PUSH1 0x20 DUP3 DUP5 SUB SLT ISZERO PUSH2 0x854 JUMPI PUSH2 0x853 PUSH2 0x5A5 JUMP JUMPDEST JUMPDEST PUSH0 PUSH2 0x861 DUP5 DUP3 DUP6 ADD PUSH2 0x82B JUMP JUMPDEST SWAP2 POP POP SWAP3 SWAP2 POP POP JUMP JUMPDEST PUSH2 0x873 DUP2 PUSH2 0x5AD JUMP JUMPDEST DUP3 MSTORE POP POP JUMP JUMPDEST PUSH0 PUSH1 0x20 DUP3 ADD SWAP1 POP PUSH2 0x88C PUSH0 DUP4 ADD DUP5 PUSH2 0x86A JUMP JUMPDEST SWAP3 SWAP2 POP POP JUMP JUMPDEST PUSH0 DUP2 MLOAD SWAP1 POP SWAP2 SWAP1 POP JUMP JUMPDEST PUSH0 DUP3 DUP3 MSTORE PUSH1 0x20 DUP3 ADD SWAP1 POP SWAP3 SWAP2 POP POP JUMP JUMPDEST DUP3 DUP2 DUP4 MCOPY PUSH0 DUP4 DUP4 ADD MSTORE POP POP POP JUMP JUMPDEST PUSH0 PUSH2 0x8C4 DUP3 PUSH2 0x892 JUMP JUMPDEST PUSH2 0x8CE DUP2 DUP6 PUSH2 0x89C JUMP JUMPDEST SWAP4 POP PUSH2 0x8DE DUP2 DUP6 PUSH1 0x20 DUP7 ADD PUSH2 0x8AC JUMP JUMPDEST PUSH2 0x8E7 DUP2 PUSH2 0x66B JUMP JUMPDEST DUP5 ADD SWAP2 POP POP SWAP3 SWAP2 POP POP JUMP JUMPDEST PUSH0 PUSH1 0x20 DUP3 ADD SWAP1 POP DUP2 DUP2 SUB PUSH0 DUP4 ADD MSTORE PUSH2 0x90A DUP2 DUP5 PUSH2 0x8BA JUMP JUMPDEST SWAP1 POP SWAP3 SWAP2 POP POP JUMP JUMPDEST PUSH32 0x496E73756666696369656E742062616C616E6365000000000000000000000000 PUSH0 DUP3 ADD MSTORE POP JUMP JUMPDEST PUSH0 PUSH2 0x946 PUSH1 0x14 DUP4 PUSH2 0x89C JUMP JUMPDEST SWAP2 POP PUSH2 0x951 DUP3 PUSH2 0x912 JUMP JUMPDEST PUSH1 0x20 DUP3 ADD SWAP1 POP SWAP2 SWAP1 POP JUMP JUMPDEST PUSH0 PUSH1 0x20 DUP3 ADD SWAP1 POP DUP2 DUP2 SUB PUSH0 DUP4 ADD MSTORE PUSH2 0x973 DUP2 PUSH2 0x93A JUMP JUMPDEST SWAP1 POP SWAP2 SWAP1 POP JUMP JUMPDEST PUSH32 0x4F776E65722063616E2774206275792063617200000000000000000000000000 PUSH0 DUP3 ADD MSTORE POP JUMP JUMPDEST PUSH0 PUSH2 0x9AE PUSH1 0x13 DUP4 PUSH2 0x89C JUMP JUMPDEST SWAP2 POP PUSH2 0x9B9 DUP3 PUSH2 0x97A JUMP JUMPDEST PUSH1 0x20 DUP3 ADD SWAP1 POP SWAP2 SWAP1 POP JUMP JUMPDEST PUSH0 PUSH1 0x20 DUP3 ADD SWAP1 POP DUP2 DUP2 SUB PUSH0 DUP4 ADD MSTORE PUSH2 0x9DB DUP2 PUSH2 0x9A2 JUMP JUMPDEST SWAP1 POP SWAP2 SWAP1 POP JUMP JUMPDEST PUSH32 0x4E487B7100000000000000000000000000000000000000000000000000000000 PUSH0 MSTORE PUSH1 0x22 PUSH1 0x4 MSTORE PUSH1 0x24 PUSH0 REVERT JUMPDEST PUSH0 PUSH1 0x2 DUP3 DIV SWAP1 POP PUSH1 0x1 DUP3 AND DUP1 PUSH2 0xA26 JUMPI PUSH1 0x7F DUP3 AND SWAP2 POP JUMPDEST PUSH1 0x20 DUP3 LT DUP2 SUB PUSH2 0xA39 JUMPI PUSH2 0xA38 PUSH2 0x9E2 JUMP JUMPDEST JUMPDEST POP SWAP2 SWAP1 POP JUMP JUMPDEST PUSH0 DUP2 SWAP1 POP DUP2 PUSH0 MSTORE PUSH1 0x20 PUSH0 KECCAK256 SWAP1 POP SWAP2 SWAP1 POP JUMP JUMPDEST PUSH0 PUSH1 0x20 PUSH1 0x1F DUP4 ADD DIV SWAP1 POP SWAP2 SWAP1 POP JUMP JUMPDEST PUSH0 DUP3 DUP3 SHL SWAP1 POP SWAP3 SWAP2 POP POP JUMP JUMPDEST PUSH0 PUSH1 0x8 DUP4 MUL PUSH2 0xA9B PUSH32 0xFFFFFFFFFFFFFFFFFFFFFFFFFFFFFFFFFFFFFFFFFFFFFFFFFFFFFFFFFFFFFFFF DUP3 PUSH2 0xA60 JUMP JUMPDEST PUSH2 0xAA5 DUP7 DUP4 PUSH2 0xA60 JUMP JUMPDEST SWAP6 POP DUP1 NOT DUP5 AND SWAP4 POP DUP1 DUP7 AND DUP5 OR SWAP3 POP POP POP SWAP4 SWAP3 POP POP POP JUMP JUMPDEST PUSH0 DUP2 SWAP1 POP SWAP2 SWAP1 POP JUMP JUMPDEST PUSH0 PUSH2 0xAE0 PUSH2 0xADB PUSH2 0xAD6 DUP5 PUSH2 0x5AD JUMP JUMPDEST PUSH2 0xABD JUMP JUMPDEST PUSH2 0x5AD JUMP JUMPDEST SWAP1 POP SWAP2 SWAP1 POP JUMP JUMPDEST PUSH0 DUP2 SWAP1 POP SWAP2 SWAP1 POP JUMP JUMPDEST PUSH2 0xAF9 DUP4 PUSH2 0xAC6 JUMP JUMPDEST PUSH2 0xB0D PUSH2 0xB05 DUP3 PUSH2 0xAE7 JUMP JUMPDEST DUP5 DUP5 SLOAD PUSH2 0xA6C JUMP JUMPDEST DUP3 SSTORE POP POP POP POP JUMP JUMPDEST PUSH0 SWAP1 JUMP JUMPDEST PUSH2 0xB21 PUSH2 0xB15 JUMP JUMPDEST PUSH2 0xB2C DUP2 DUP5 DUP5 PUSH2 0xAF0 JUMP JUMPDEST POP POP POP JUMP JUMPDEST JUMPDEST DUP2 DUP2 LT ISZERO PUSH2 0xB4F JUMPI PUSH2 0xB44 PUSH0 DUP3 PUSH2 0xB19 JUMP JUMPDEST PUSH1 0x1 DUP2 ADD SWAP1 POP PUSH2 0xB32 JUMP JUMPDEST POP POP JUMP JUMPDEST PUSH1 0x1F DUP3 GT ISZERO PUSH2 0xB94 JUMPI PUSH2 0xB65 DUP2 PUSH2 0xA3F JUMP JUMPDEST PUSH2 0xB6E DUP5 PUSH2 0xA51 JUMP JUMPDEST DUP2 ADD PUSH1 0x20 DUP6 LT ISZERO PUSH2 0xB7D JUMPI DUP2 SWAP1 POP JUMPDEST PUSH2 0xB91 PUSH2 0xB89 DUP6 PUSH2 0xA51 JUMP JUMPDEST DUP4 ADD DUP3 PUSH2 0xB31 JUMP JUMPDEST POP POP JUMPDEST POP POP POP JUMP JUMPDEST PUSH0 DUP3 DUP3 SHR SWAP1 POP SWAP3 SWAP2 POP POP JUMP JUMPDEST PUSH0 PUSH2 0xBB4 PUSH0 NOT DUP5 PUSH1 0x8 MUL PUSH2 0xB99 JUMP JUMPDEST NOT DUP1 DUP4 AND SWAP2 POP POP SWAP3 SWAP2 POP POP JUMP JUMPDEST PUSH0 PUSH2 0xBCC DUP4 DUP4 PUSH2 0xBA5 JUMP JUMPDEST SWAP2 POP DUP3 PUSH1 0x2 MUL DUP3 OR SWAP1 POP SWAP3 SWAP2 POP POP JUMP JUMPDEST PUSH2 0xBE5 DUP3 PUSH2 0x892 JUMP JUMPDEST PUSH8 0xFFFFFFFFFFFFFFFF DUP2 GT ISZERO PUSH2 0xBFE JUMPI PUSH2 0xBFD PUSH2 0x67B JUMP JUMPDEST JUMPDEST PUSH2 0xC08 DUP3 SLOAD PUSH2 0xA0F JUMP JUMPDEST PUSH2 0xC13 DUP3 DUP3 DUP6 PUSH2 0xB53 JUMP JUMPDEST PUSH0 PUSH1 0x20 SWAP1 POP PUSH1 0x1F DUP4 GT PUSH1 0x1 DUP2 EQ PUSH2 0xC44 JUMPI PUSH0 DUP5 ISZERO PUSH2 0xC32 JUMPI DUP3 DUP8 ADD MLOAD SWAP1 POP JUMPDEST PUSH2 0xC3C DUP6 DUP3 PUSH2 0xBC1 JUMP JUMPDEST DUP7 SSTORE POP PUSH2 0xCA3 JUMP JUMPDEST PUSH1 0x1F NOT DUP5 AND PUSH2 0xC52 DUP7 PUSH2 0xA3F JUMP JUMPDEST PUSH0 JUMPDEST DUP3 DUP2 LT ISZERO PUSH2 0xC79 JUMPI DUP5 DUP10 ADD MLOAD DUP3 SSTORE PUSH1 0x1 DUP3 ADD SWAP2 POP PUSH1 0x20 DUP6 ADD SWAP5 POP PUSH1 0x20 DUP2 ADD SWAP1 POP PUSH2 0xC54 JUMP JUMPDEST DUP7 DUP4 LT ISZERO PUSH2 0xC96 JUMPI DUP5 DUP10 ADD MLOAD PUSH2 0xC92 PUSH1 0x1F DUP10 AND DUP3 PUSH2 0xBA5 JUMP JUMPDEST DUP4 SSTORE POP JUMPDEST PUSH1 0x1 PUSH1 0x2 DUP9 MUL ADD DUP9 SSTORE POP POP POP JUMPDEST POP POP POP POP POP POP JUMP JUMPDEST PUSH0 PUSH1 0x80 DUP3 ADD SWAP1 POP PUSH2 0xCBE PUSH0 DUP4 ADD DUP8 PUSH2 0x63B JUMP JUMPDEST DUP2 DUP2 SUB PUSH1 0x20 DUP4 ADD MSTORE PUSH2 0xCD0 DUP2 DUP7 PUSH2 0x8BA JUMP JUMPDEST SWAP1 POP DUP2 DUP2 SUB PUSH1 0x40 DUP4 ADD MSTORE PUSH2 0xCE4 DUP2 DUP6 PUSH2 0x8BA JUMP JUMPDEST SWAP1 POP PUSH2 0xCF3 PUSH1 0x60 DUP4 ADD DUP5 PUSH2 0x86A JUMP JUMPDEST SWAP6 SWAP5 POP POP POP POP POP JUMP INVALID LOG2 PUSH5 0x6970667358 0x22 SLT KECCAK256 BLOBBASEFEE PUSH15 0x6345EB75313AE4C041874BC6A5EC28 0xCF 0xC5 PUSH25 0xF181B01C0974F1BD7628649E64736F6C634300081A00330000 "
		},
		"gasEstimates": {
			"creation": {
				"codeDepositCost": "675600",
				"executionCost": "24971",
				"totalCost": "700571"
			},
			"external": {
				"buyVehicle(string,string)": "infinite",
				"buyers(address)": "2833",
				"checkOwnerShip()": "2561",
				"owner()": "2550",
				"price()": "2447",
				"updatePrice(uint256)": "24704",
				"vehicleMake()": "infinite",
				"vehicleModel()": "infinite"
			}
		},
		"methodIdentifiers": {
			"buyVehicle(string,string)": "975d279c",
			"buyers(address)": "97a993aa",
			"checkOwnerShip()": "63000296",
			"owner()": "8da5cb5b",
			"price()": "a035b1fe",
			"updatePrice(uint256)": "8d6cc56d",
			"vehicleMake()": "d25cf0f5",
			"vehicleModel()": "f2c09670"
		}
	},
	"abi": [
		{
			"inputs": [],
			"stateMutability": "nonpayable",
			"type": "constructor"
		},
		{
			"anonymous": false,
			"inputs": [
				{
					"indexed": false,
					"internalType": "address",
					"name": "buyer",
					"type": "address"
				},
				{
					"indexed": false,
					"internalType": "string",
					"name": "make",
					"type": "string"
				},
				{
					"indexed": false,
					"internalType": "string",
					"name": "model",
					"type": "string"
				},
				{
					"indexed": false,
					"internalType": "uint256",
					"name": "price",
					"type": "uint256"
				}
			],
			"name": "Purchase",
			"type": "event"
		},
		{
			"inputs": [
				{
					"internalType": "string",
					"name": "_make",
					"type": "string"
				},
				{
					"internalType": "string",
					"name": "_model",
					"type": "string"
				}
			],
			"name": "buyVehicle",
			"outputs": [],
			"stateMutability": "payable",
			"type": "function"
		},
		{
			"inputs": [
				{
					"internalType": "address",
					"name": "",
					"type": "address"
				}
			],
			"name": "buyers",
			"outputs": [
				{
					"internalType": "bool",
					"name": "",
					"type": "bool"
				}
			],
			"stateMutability": "view",
			"type": "function"
		},
		{
			"inputs": [],
			"name": "checkOwnerShip",
			"outputs": [
				{
					"internalType": "bool",
					"name": "",
					"type": "bool"
				}
			],
			"stateMutability": "view",
			"type": "function"
		},
		{
			"inputs": [],
			"name": "owner",
			"outputs": [
				{
					"internalType": "address",
					"name": "",
					"type": "address"
				}
			],
			"stateMutability": "view",
			"type": "function"
		},
		{
			"inputs": [],
			"name": "price",
			"outputs": [
				{
					"internalType": "uint256",
					"name": "",
					"type": "uint256"
				}
			],
			"stateMutability": "view",
			"type": "function"
		},
		{
			"inputs": [
				{
					"internalType": "uint256",
					"name": "_price",
					"type": "uint256"
				}
			],
			"name": "updatePrice",
			"outputs": [],
			"stateMutability": "nonpayable",
			"type": "function"
		},
		{
			"inputs": [],
			"name": "vehicleMake",
			"outputs": [
				{
					"internalType": "string",
					"name": "",
					"type": "string"
				}
			],
			"stateMutability": "view",
			"type": "function"
		},
		{
			"inputs": [],
			"name": "vehicleModel",
			"outputs": [
				{
					"internalType": "string",
					"name": "",
					"type": "string"
				}
			],
			"stateMutability": "view",
			"type": "function"
		}
	]
}