{
	"data": {
		"bytecode": {
			"linkReferences": {},
			"object": "60806040526005600055600a60015534801561001a57600080fd5b5060dd806100296000396000f3fe6080604052348015600f57600080fd5b506004361060285760003560e01c8063a50e186014602d575b600080fd5b60436004803603810190603f91906063565b6045565b005b600460008190555050565b600081359050605d816093565b92915050565b600060208284031215607457600080fd5b60006080848285016050565b91505092915050565b6000819050919050565b609a816089565b811460a457600080fd5b5056fea26469706673582212207f795a15214333c949919699b9d9ed9638df05da9b473d403d33e88a0b74cb1e64736f6c63430008000033",
			"opcodes": "PUSH1 0x80 PUSH1 0x40 MSTORE PUSH1 0x5 PUSH1 0x0 SSTORE PUSH1 0xA PUSH1 0x1 SSTORE CALLVALUE DUP1 ISZERO PUSH2 0x1A JUMPI PUSH1 0x0 DUP1 REVERT JUMPDEST POP PUSH1 0xDD DUP1 PUSH2 0x29 PUSH1 0x0 CODECOPY PUSH1 0x0 RETURN INVALID PUSH1 0x80 PUSH1 0x40 MSTORE CALLVALUE DUP1 ISZERO PUSH1 0xF JUMPI PUSH1 0x0 DUP1 REVERT JUMPDEST POP PUSH1 0x4 CALLDATASIZE LT PUSH1 0x28 JUMPI PUSH1 0x0 CALLDATALOAD PUSH1 0xE0 SHR DUP1 PUSH4 0xA50E1860 EQ PUSH1 0x2D JUMPI JUMPDEST PUSH1 0x0 DUP1 REVERT JUMPDEST PUSH1 0x43 PUSH1 0x4 DUP1 CALLDATASIZE SUB DUP2 ADD SWAP1 PUSH1 0x3F SWAP2 SWAP1 PUSH1 0x63 JUMP JUMPDEST PUSH1 0x45 JUMP JUMPDEST STOP JUMPDEST PUSH1 0x4 PUSH1 0x0 DUP2 SWAP1 SSTORE POP POP JUMP JUMPDEST PUSH1 0x0 DUP2 CALLDATALOAD SWAP1 POP PUSH1 0x5D DUP2 PUSH1 0x93 JUMP JUMPDEST SWAP3 SWAP2 POP POP JUMP JUMPDEST PUSH1 0x0 PUSH1 0x20 DUP3 DUP5 SUB SLT ISZERO PUSH1 0x74 JUMPI PUSH1 0x0 DUP1 REVERT JUMPDEST PUSH1 0x0 PUSH1 0x80 DUP5 DUP3 DUP6 ADD PUSH1 0x50 JUMP JUMPDEST SWAP2 POP POP SWAP3 SWAP2 POP POP JUMP JUMPDEST PUSH1 0x0 DUP2 SWAP1 POP SWAP2 SWAP1 POP JUMP JUMPDEST PUSH1 0x9A DUP2 PUSH1 0x89 JUMP JUMPDEST DUP2 EQ PUSH1 0xA4 JUMPI PUSH1 0x0 DUP1 REVERT JUMPDEST POP JUMP INVALID LOG2 PUSH5 0x6970667358 0x22 SLT KECCAK256 PUSH32 0x795A15214333C949919699B9D9ED9638DF05DA9B473D403D33E88A0B74CB1E64 PUSH20 0x6F6C634300080000330000000000000000000000 "
		},
		"gasEstimates": {
			"creation": {
				"codeDepositCost": "44200",
				"executionCost": "40105",
				"totalCost": "84305"
			},
			"external": {
				"sum(int256)": "20398"
			}
		},
		"methodIdentifiers": {
			"sum(int256)": "a50e1860"
		}
	},
	"abi": [
		{
			"inputs": [
				{
					"internalType": "int256",
					"name": "",
					"type": "int256"
				}
			],
			"name": "sum",
			"outputs": [],
			"stateMutability": "nonpayable",
			"type": "function"
		}
	]
}