{
	"data": {
		"bytecode": {
			"linkReferences": {},
			"object": "6080604052348015600e575f80fd5b506101658061001c5f395ff3fe608060405234801561000f575f80fd5b5060043610610029575f3560e01c806354f363a31461002d575b5f80fd5b61004760048036038101906100429190610091565b610049565b005b808261005591906100fc565b505050565b5f80fd5b5f819050919050565b6100708161005e565b811461007a575f80fd5b50565b5f8135905061008b81610067565b92915050565b5f80604083850312156100a7576100a661005a565b5b5f6100b48582860161007d565b92505060206100c58582860161007d565b9150509250929050565b7f4e487b71000000000000000000000000000000000000000000000000000000005f52601160045260245ffd5b5f6101068261005e565b91506101118361005e565b9250828201905080821115610129576101286100cf565b5b9291505056fea26469706673582212205bca614dfa8e8c245a7cee024f090e4d89542eae9337a14e0dc4a3f8a1f41cdf64736f6c634300081a0033",
			"opcodes": "PUSH1 0x80 PUSH1 0x40 MSTORE CALLVALUE DUP1 ISZERO PUSH1 0xE JUMPI PUSH0 DUP1 REVERT JUMPDEST POP PUSH2 0x165 DUP1 PUSH2 0x1C PUSH0 CODECOPY PUSH0 RETURN INVALID PUSH1 0x80 PUSH1 0x40 MSTORE CALLVALUE DUP1 ISZERO PUSH2 0xF JUMPI PUSH0 DUP1 REVERT JUMPDEST POP PUSH1 0x4 CALLDATASIZE LT PUSH2 0x29 JUMPI PUSH0 CALLDATALOAD PUSH1 0xE0 SHR DUP1 PUSH4 0x54F363A3 EQ PUSH2 0x2D JUMPI JUMPDEST PUSH0 DUP1 REVERT JUMPDEST PUSH2 0x47 PUSH1 0x4 DUP1 CALLDATASIZE SUB DUP2 ADD SWAP1 PUSH2 0x42 SWAP2 SWAP1 PUSH2 0x91 JUMP JUMPDEST PUSH2 0x49 JUMP JUMPDEST STOP JUMPDEST DUP1 DUP3 PUSH2 0x55 SWAP2 SWAP1 PUSH2 0xFC JUMP JUMPDEST POP POP POP JUMP JUMPDEST PUSH0 DUP1 REVERT JUMPDEST PUSH0 DUP2 SWAP1 POP SWAP2 SWAP1 POP JUMP JUMPDEST PUSH2 0x70 DUP2 PUSH2 0x5E JUMP JUMPDEST DUP2 EQ PUSH2 0x7A JUMPI PUSH0 DUP1 REVERT JUMPDEST POP JUMP JUMPDEST PUSH0 DUP2 CALLDATALOAD SWAP1 POP PUSH2 0x8B DUP2 PUSH2 0x67 JUMP JUMPDEST SWAP3 SWAP2 POP POP JUMP JUMPDEST PUSH0 DUP1 PUSH1 0x40 DUP4 DUP6 SUB SLT ISZERO PUSH2 0xA7 JUMPI PUSH2 0xA6 PUSH2 0x5A JUMP JUMPDEST JUMPDEST PUSH0 PUSH2 0xB4 DUP6 DUP3 DUP7 ADD PUSH2 0x7D JUMP JUMPDEST SWAP3 POP POP PUSH1 0x20 PUSH2 0xC5 DUP6 DUP3 DUP7 ADD PUSH2 0x7D JUMP JUMPDEST SWAP2 POP POP SWAP3 POP SWAP3 SWAP1 POP JUMP JUMPDEST PUSH32 0x4E487B7100000000000000000000000000000000000000000000000000000000 PUSH0 MSTORE PUSH1 0x11 PUSH1 0x4 MSTORE PUSH1 0x24 PUSH0 REVERT JUMPDEST PUSH0 PUSH2 0x106 DUP3 PUSH2 0x5E JUMP JUMPDEST SWAP2 POP PUSH2 0x111 DUP4 PUSH2 0x5E JUMP JUMPDEST SWAP3 POP DUP3 DUP3 ADD SWAP1 POP DUP1 DUP3 GT ISZERO PUSH2 0x129 JUMPI PUSH2 0x128 PUSH2 0xCF JUMP JUMPDEST JUMPDEST SWAP3 SWAP2 POP POP JUMP INVALID LOG2 PUSH5 0x6970667358 0x22 SLT KECCAK256 JUMPDEST 0xCA PUSH2 0x4DFA DUP15 DUP13 0x24 GAS PUSH29 0xEE024F090E4D89542EAE9337A14E0DC4A3F8A1F41CDF64736F6C634300 ADDMOD BYTE STOP CALLER "
		},
		"gasEstimates": {
			"creation": {
				"codeDepositCost": "71400",
				"executionCost": "121",
				"totalCost": "71521"
			},
			"external": {
				"addition(uint256,uint256)": "infinite"
			}
		},
		"methodIdentifiers": {
			"addition(uint256,uint256)": "54f363a3"
		}
	},
	"abi": [
		{
			"inputs": [
				{
					"internalType": "uint256",
					"name": "a",
					"type": "uint256"
				},
				{
					"internalType": "uint256",
					"name": "b",
					"type": "uint256"
				}
			],
			"name": "addition",
			"outputs": [],
			"stateMutability": "pure",
			"type": "function"
		}
	]
}