{
	"data": {
		"bytecode": {
			"linkReferences": {},
			"object": "6080604052348015600e575f80fd5b50610c538061001c5f395ff3fe608060405234801561000f575f80fd5b5060043610610055575f3560e01c806317d7de7c1461005957806352efd68514610077578063993a04b7146100a9578063a68316ea146100c7578063e0258db7146100e5575b5f80fd5b610061610101565b60405161006e91906104c2565b60405180910390f35b610091600480360381019061008c9190610526565b6101a8565b6040516100a09392919061057a565b60405180910390f35b6100b1610266565b6040516100be9190610718565b60405180910390f35b6100cf610369565b6040516100dc9190610738565b60405180910390f35b6100ff60048036038101906100fa91906108a7565b61038a565b005b60605f806004811061011657610115610927565b5b600302015f01805461012790610981565b80601f016020809104026020016040519081016040528092919081815260200182805461015390610981565b801561019e5780601f106101755761010080835404028352916020019161019e565b820191905f5260205f20905b81548152906001019060200180831161018157829003601f168201915b5050505050905090565b5f81600481106101b6575f80fd5b600302015f91509050805f0180546101cd90610981565b80601f01602080910402602001604051908101604052809291908181526020018280546101f990610981565b80156102445780601f1061021b57610100808354040283529160200191610244565b820191905f5260205f20905b81548152906001019060200180831161022757829003601f168201915b505050505090806001015490806002015f9054906101000a900460ff16905083565b61026e610404565b5f600480602002604051908101604052809291905f905b82821015610360578382600302016040518060600160405290815f820180546102ad90610981565b80601f01602080910402602001604051908101604052809291908181526020018280546102d990610981565b80156103245780601f106102fb57610100808354040283529160200191610324565b820191905f5260205f20905b81548152906001019060200180831161030757829003601f168201915b5050505050815260200160018201548152602001600282015f9054906101000a900460ff16151515158152505081526020019060010190610285565b50505050905090565b5f805f6004811061037d5761037c610927565b5b6003020160010154905090565b60405180606001604052808481526020018381526020018215158152505f85600481106103ba576103b9610927565b5b600302015f820151815f0190816103d19190610b4e565b50602082015181600101556040820151816002015f6101000a81548160ff02191690831515021790555090505050505050565b60405180608001604052806004905b61041b610431565b8152602001906001900390816104135790505090565b6040518060600160405280606081526020015f81526020015f151581525090565b5f81519050919050565b5f82825260208201905092915050565b8281835e5f83830152505050565b5f601f19601f8301169050919050565b5f61049482610452565b61049e818561045c565b93506104ae81856020860161046c565b6104b78161047a565b840191505092915050565b5f6020820190508181035f8301526104da818461048a565b905092915050565b5f604051905090565b5f80fd5b5f80fd5b5f819050919050565b610505816104f3565b811461050f575f80fd5b50565b5f81359050610520816104fc565b92915050565b5f6020828403121561053b5761053a6104eb565b5b5f61054884828501610512565b91505092915050565b61055a816104f3565b82525050565b5f8115159050919050565b61057481610560565b82525050565b5f6060820190508181035f830152610592818661048a565b90506105a16020830185610551565b6105ae604083018461056b565b949350505050565b5f60049050919050565b5f81905092915050565b5f819050919050565b5f82825260208201905092915050565b5f6105ed82610452565b6105f781856105d3565b935061060781856020860161046c565b6106108161047a565b840191505092915050565b610624816104f3565b82525050565b61063381610560565b82525050565b5f606083015f8301518482035f86015261065382826105e3565b9150506020830151610668602086018261061b565b50604083015161067b604086018261062a565b508091505092915050565b5f6106918383610639565b905092915050565b5f602082019050919050565b5f6106af826105b6565b6106b981856105c0565b9350836020820285016106cb856105ca565b805f5b8581101561070657848403895281516106e78582610686565b94506106f283610699565b925060208a019950506001810190506106ce565b50829750879550505050505092915050565b5f6020820190508181035f83015261073081846106a5565b905092915050565b5f60208201905061074b5f830184610551565b92915050565b5f80fd5b5f80fd5b7f4e487b71000000000000000000000000000000000000000000000000000000005f52604160045260245ffd5b61078f8261047a565b810181811067ffffffffffffffff821117156107ae576107ad610759565b5b80604052505050565b5f6107c06104e2565b90506107cc8282610786565b919050565b5f67ffffffffffffffff8211156107eb576107ea610759565b5b6107f48261047a565b9050602081019050919050565b828183375f83830152505050565b5f61082161081c846107d1565b6107b7565b90508281526020810184848401111561083d5761083c610755565b5b610848848285610801565b509392505050565b5f82601f83011261086457610863610751565b5b813561087484826020860161080f565b91505092915050565b61088681610560565b8114610890575f80fd5b50565b5f813590506108a18161087d565b92915050565b5f805f80608085870312156108bf576108be6104eb565b5b5f6108cc87828801610512565b945050602085013567ffffffffffffffff8111156108ed576108ec6104ef565b5b6108f987828801610850565b935050604061090a87828801610512565b925050606061091b87828801610893565b91505092959194509250565b7f4e487b71000000000000000000000000000000000000000000000000000000005f52603260045260245ffd5b7f4e487b71000000000000000000000000000000000000000000000000000000005f52602260045260245ffd5b5f600282049050600182168061099857607f821691505b6020821081036109ab576109aa610954565b5b50919050565b5f819050815f5260205f209050919050565b5f6020601f8301049050919050565b5f82821b905092915050565b5f60088302610a0d7fffffffffffffffffffffffffffffffffffffffffffffffffffffffffffffffff826109d2565b610a1786836109d2565b95508019841693508086168417925050509392505050565b5f819050919050565b5f610a52610a4d610a48846104f3565b610a2f565b6104f3565b9050919050565b5f819050919050565b610a6b83610a38565b610a7f610a7782610a59565b8484546109de565b825550505050565b5f90565b610a93610a87565b610a9e818484610a62565b505050565b5b81811015610ac157610ab65f82610a8b565b600181019050610aa4565b5050565b601f821115610b0657610ad7816109b1565b610ae0846109c3565b81016020851015610aef578190505b610b03610afb856109c3565b830182610aa3565b50505b505050565b5f82821c905092915050565b5f610b265f1984600802610b0b565b1980831691505092915050565b5f610b3e8383610b17565b9150826002028217905092915050565b610b5782610452565b67ffffffffffffffff811115610b7057610b6f610759565b5b610b7a8254610981565b610b85828285610ac5565b5f60209050601f831160018114610bb6575f8415610ba4578287015190505b610bae8582610b33565b865550610c15565b601f198416610bc4866109b1565b5f5b82811015610beb57848901518255600182019150602085019450602081019050610bc6565b86831015610c085784890151610c04601f891682610b17565b8355505b6001600288020188555050505b50505050505056fea2646970667358221220cca24eebdc0153c2c59bd39a81d569d18bc8ba8dde72546ac6d4761fcc3de52c64736f6c634300081a0033",
			"opcodes": "PUSH1 0x80 PUSH1 0x40 MSTORE CALLVALUE DUP1 ISZERO PUSH1 0xE JUMPI PUSH0 DUP1 REVERT JUMPDEST POP PUSH2 0xC53 DUP1 PUSH2 0x1C PUSH0 CODECOPY PUSH0 RETURN INVALID PUSH1 0x80 PUSH1 0x40 MSTORE CALLVALUE DUP1 ISZERO PUSH2 0xF JUMPI PUSH0 DUP1 REVERT JUMPDEST POP PUSH1 0x4 CALLDATASIZE LT PUSH2 0x55 JUMPI PUSH0 CALLDATALOAD PUSH1 0xE0 SHR DUP1 PUSH4 0x17D7DE7C EQ PUSH2 0x59 JUMPI DUP1 PUSH4 0x52EFD685 EQ PUSH2 0x77 JUMPI DUP1 PUSH4 0x993A04B7 EQ PUSH2 0xA9 JUMPI DUP1 PUSH4 0xA68316EA EQ PUSH2 0xC7 JUMPI DUP1 PUSH4 0xE0258DB7 EQ PUSH2 0xE5 JUMPI JUMPDEST PUSH0 DUP1 REVERT JUMPDEST PUSH2 0x61 PUSH2 0x101 JUMP JUMPDEST PUSH1 0x40 MLOAD PUSH2 0x6E SWAP2 SWAP1 PUSH2 0x4C2 JUMP JUMPDEST PUSH1 0x40 MLOAD DUP1 SWAP2 SUB SWAP1 RETURN JUMPDEST PUSH2 0x91 PUSH1 0x4 DUP1 CALLDATASIZE SUB DUP2 ADD SWAP1 PUSH2 0x8C SWAP2 SWAP1 PUSH2 0x526 JUMP JUMPDEST PUSH2 0x1A8 JUMP JUMPDEST PUSH1 0x40 MLOAD PUSH2 0xA0 SWAP4 SWAP3 SWAP2 SWAP1 PUSH2 0x57A JUMP JUMPDEST PUSH1 0x40 MLOAD DUP1 SWAP2 SUB SWAP1 RETURN JUMPDEST PUSH2 0xB1 PUSH2 0x266 JUMP JUMPDEST PUSH1 0x40 MLOAD PUSH2 0xBE SWAP2 SWAP1 PUSH2 0x718 JUMP JUMPDEST PUSH1 0x40 MLOAD DUP1 SWAP2 SUB SWAP1 RETURN JUMPDEST PUSH2 0xCF PUSH2 0x369 JUMP JUMPDEST PUSH1 0x40 MLOAD PUSH2 0xDC SWAP2 SWAP1 PUSH2 0x738 JUMP JUMPDEST PUSH1 0x40 MLOAD DUP1 SWAP2 SUB SWAP1 RETURN JUMPDEST PUSH2 0xFF PUSH1 0x4 DUP1 CALLDATASIZE SUB DUP2 ADD SWAP1 PUSH2 0xFA SWAP2 SWAP1 PUSH2 0x8A7 JUMP JUMPDEST PUSH2 0x38A JUMP JUMPDEST STOP JUMPDEST PUSH1 0x60 PUSH0 DUP1 PUSH1 0x4 DUP2 LT PUSH2 0x116 JUMPI PUSH2 0x115 PUSH2 0x927 JUMP JUMPDEST JUMPDEST PUSH1 0x3 MUL ADD PUSH0 ADD DUP1 SLOAD PUSH2 0x127 SWAP1 PUSH2 0x981 JUMP JUMPDEST DUP1 PUSH1 0x1F ADD PUSH1 0x20 DUP1 SWAP2 DIV MUL PUSH1 0x20 ADD PUSH1 0x40 MLOAD SWAP1 DUP2 ADD PUSH1 0x40 MSTORE DUP1 SWAP3 SWAP2 SWAP1 DUP2 DUP2 MSTORE PUSH1 0x20 ADD DUP3 DUP1 SLOAD PUSH2 0x153 SWAP1 PUSH2 0x981 JUMP JUMPDEST DUP1 ISZERO PUSH2 0x19E JUMPI DUP1 PUSH1 0x1F LT PUSH2 0x175 JUMPI PUSH2 0x100 DUP1 DUP4 SLOAD DIV MUL DUP4 MSTORE SWAP2 PUSH1 0x20 ADD SWAP2 PUSH2 0x19E JUMP JUMPDEST DUP3 ADD SWAP2 SWAP1 PUSH0 MSTORE PUSH1 0x20 PUSH0 KECCAK256 SWAP1 JUMPDEST DUP2 SLOAD DUP2 MSTORE SWAP1 PUSH1 0x1 ADD SWAP1 PUSH1 0x20 ADD DUP1 DUP4 GT PUSH2 0x181 JUMPI DUP3 SWAP1 SUB PUSH1 0x1F AND DUP3 ADD SWAP2 JUMPDEST POP POP POP POP POP SWAP1 POP SWAP1 JUMP JUMPDEST PUSH0 DUP2 PUSH1 0x4 DUP2 LT PUSH2 0x1B6 JUMPI PUSH0 DUP1 REVERT JUMPDEST PUSH1 0x3 MUL ADD PUSH0 SWAP2 POP SWAP1 POP DUP1 PUSH0 ADD DUP1 SLOAD PUSH2 0x1CD SWAP1 PUSH2 0x981 JUMP JUMPDEST DUP1 PUSH1 0x1F ADD PUSH1 0x20 DUP1 SWAP2 DIV MUL PUSH1 0x20 ADD PUSH1 0x40 MLOAD SWAP1 DUP2 ADD PUSH1 0x40 MSTORE DUP1 SWAP3 SWAP2 SWAP1 DUP2 DUP2 MSTORE PUSH1 0x20 ADD DUP3 DUP1 SLOAD PUSH2 0x1F9 SWAP1 PUSH2 0x981 JUMP JUMPDEST DUP1 ISZERO PUSH2 0x244 JUMPI DUP1 PUSH1 0x1F LT PUSH2 0x21B JUMPI PUSH2 0x100 DUP1 DUP4 SLOAD DIV MUL DUP4 MSTORE SWAP2 PUSH1 0x20 ADD SWAP2 PUSH2 0x244 JUMP JUMPDEST DUP3 ADD SWAP2 SWAP1 PUSH0 MSTORE PUSH1 0x20 PUSH0 KECCAK256 SWAP1 JUMPDEST DUP2 SLOAD DUP2 MSTORE SWAP1 PUSH1 0x1 ADD SWAP1 PUSH1 0x20 ADD DUP1 DUP4 GT PUSH2 0x227 JUMPI DUP3 SWAP1 SUB PUSH1 0x1F AND DUP3 ADD SWAP2 JUMPDEST POP POP POP POP POP SWAP1 DUP1 PUSH1 0x1 ADD SLOAD SWAP1 DUP1 PUSH1 0x2 ADD PUSH0 SWAP1 SLOAD SWAP1 PUSH2 0x100 EXP SWAP1 DIV PUSH1 0xFF AND SWAP1 POP DUP4 JUMP JUMPDEST PUSH2 0x26E PUSH2 0x404 JUMP JUMPDEST PUSH0 PUSH1 0x4 DUP1 PUSH1 0x20 MUL PUSH1 0x40 MLOAD SWAP1 DUP2 ADD PUSH1 0x40 MSTORE DUP1 SWAP3 SWAP2 SWAP1 PUSH0 SWAP1 JUMPDEST DUP3 DUP3 LT ISZERO PUSH2 0x360 JUMPI DUP4 DUP3 PUSH1 0x3 MUL ADD PUSH1 0x40 MLOAD DUP1 PUSH1 0x60 ADD PUSH1 0x40 MSTORE SWAP1 DUP2 PUSH0 DUP3 ADD DUP1 SLOAD PUSH2 0x2AD SWAP1 PUSH2 0x981 JUMP JUMPDEST DUP1 PUSH1 0x1F ADD PUSH1 0x20 DUP1 SWAP2 DIV MUL PUSH1 0x20 ADD PUSH1 0x40 MLOAD SWAP1 DUP2 ADD PUSH1 0x40 MSTORE DUP1 SWAP3 SWAP2 SWAP1 DUP2 DUP2 MSTORE PUSH1 0x20 ADD DUP3 DUP1 SLOAD PUSH2 0x2D9 SWAP1 PUSH2 0x981 JUMP JUMPDEST DUP1 ISZERO PUSH2 0x324 JUMPI DUP1 PUSH1 0x1F LT PUSH2 0x2FB JUMPI PUSH2 0x100 DUP1 DUP4 SLOAD DIV MUL DUP4 MSTORE SWAP2 PUSH1 0x20 ADD SWAP2 PUSH2 0x324 JUMP JUMPDEST DUP3 ADD SWAP2 SWAP1 PUSH0 MSTORE PUSH1 0x20 PUSH0 KECCAK256 SWAP1 JUMPDEST DUP2 SLOAD DUP2 MSTORE SWAP1 PUSH1 0x1 ADD SWAP1 PUSH1 0x20 ADD DUP1 DUP4 GT PUSH2 0x307 JUMPI DUP3 SWAP1 SUB PUSH1 0x1F AND DUP3 ADD SWAP2 JUMPDEST POP POP POP POP POP DUP2 MSTORE PUSH1 0x20 ADD PUSH1 0x1 DUP3 ADD SLOAD DUP2 MSTORE PUSH1 0x20 ADD PUSH1 0x2 DUP3 ADD PUSH0 SWAP1 SLOAD SWAP1 PUSH2 0x100 EXP SWAP1 DIV PUSH1 0xFF AND ISZERO ISZERO ISZERO ISZERO DUP2 MSTORE POP POP DUP2 MSTORE PUSH1 0x20 ADD SWAP1 PUSH1 0x1 ADD SWAP1 PUSH2 0x285 JUMP JUMPDEST POP POP POP POP SWAP1 POP SWAP1 JUMP JUMPDEST PUSH0 DUP1 PUSH0 PUSH1 0x4 DUP2 LT PUSH2 0x37D JUMPI PUSH2 0x37C PUSH2 0x927 JUMP JUMPDEST JUMPDEST PUSH1 0x3 MUL ADD PUSH1 0x1 ADD SLOAD SWAP1 POP SWAP1 JUMP JUMPDEST PUSH1 0x40 MLOAD DUP1 PUSH1 0x60 ADD PUSH1 0x40 MSTORE DUP1 DUP5 DUP2 MSTORE PUSH1 0x20 ADD DUP4 DUP2 MSTORE PUSH1 0x20 ADD DUP3 ISZERO ISZERO DUP2 MSTORE POP PUSH0 DUP6 PUSH1 0x4 DUP2 LT PUSH2 0x3BA JUMPI PUSH2 0x3B9 PUSH2 0x927 JUMP JUMPDEST JUMPDEST PUSH1 0x3 MUL ADD PUSH0 DUP3 ADD MLOAD DUP2 PUSH0 ADD SWAP1 DUP2 PUSH2 0x3D1 SWAP2 SWAP1 PUSH2 0xB4E JUMP JUMPDEST POP PUSH1 0x20 DUP3 ADD MLOAD DUP2 PUSH1 0x1 ADD SSTORE PUSH1 0x40 DUP3 ADD MLOAD DUP2 PUSH1 0x2 ADD PUSH0 PUSH2 0x100 EXP DUP2 SLOAD DUP2 PUSH1 0xFF MUL NOT AND SWAP1 DUP4 ISZERO ISZERO MUL OR SWAP1 SSTORE POP SWAP1 POP POP POP POP POP POP JUMP JUMPDEST PUSH1 0x40 MLOAD DUP1 PUSH1 0x80 ADD PUSH1 0x40 MSTORE DUP1 PUSH1 0x4 SWAP1 JUMPDEST PUSH2 0x41B PUSH2 0x431 JUMP JUMPDEST DUP2 MSTORE PUSH1 0x20 ADD SWAP1 PUSH1 0x1 SWAP1 SUB SWAP1 DUP2 PUSH2 0x413 JUMPI SWAP1 POP POP SWAP1 JUMP JUMPDEST PUSH1 0x40 MLOAD DUP1 PUSH1 0x60 ADD PUSH1 0x40 MSTORE DUP1 PUSH1 0x60 DUP2 MSTORE PUSH1 0x20 ADD PUSH0 DUP2 MSTORE PUSH1 0x20 ADD PUSH0 ISZERO ISZERO DUP2 MSTORE POP SWAP1 JUMP JUMPDEST PUSH0 DUP2 MLOAD SWAP1 POP SWAP2 SWAP1 POP JUMP JUMPDEST PUSH0 DUP3 DUP3 MSTORE PUSH1 0x20 DUP3 ADD SWAP1 POP SWAP3 SWAP2 POP POP JUMP JUMPDEST DUP3 DUP2 DUP4 MCOPY PUSH0 DUP4 DUP4 ADD MSTORE POP POP POP JUMP JUMPDEST PUSH0 PUSH1 0x1F NOT PUSH1 0x1F DUP4 ADD AND SWAP1 POP SWAP2 SWAP1 POP JUMP JUMPDEST PUSH0 PUSH2 0x494 DUP3 PUSH2 0x452 JUMP JUMPDEST PUSH2 0x49E DUP2 DUP6 PUSH2 0x45C JUMP JUMPDEST SWAP4 POP PUSH2 0x4AE DUP2 DUP6 PUSH1 0x20 DUP7 ADD PUSH2 0x46C JUMP JUMPDEST PUSH2 0x4B7 DUP2 PUSH2 0x47A JUMP JUMPDEST DUP5 ADD SWAP2 POP POP SWAP3 SWAP2 POP POP JUMP JUMPDEST PUSH0 PUSH1 0x20 DUP3 ADD SWAP1 POP DUP2 DUP2 SUB PUSH0 DUP4 ADD MSTORE PUSH2 0x4DA DUP2 DUP5 PUSH2 0x48A JUMP JUMPDEST SWAP1 POP SWAP3 SWAP2 POP POP JUMP JUMPDEST PUSH0 PUSH1 0x40 MLOAD SWAP1 POP SWAP1 JUMP JUMPDEST PUSH0 DUP1 REVERT JUMPDEST PUSH0 DUP1 REVERT JUMPDEST PUSH0 DUP2 SWAP1 POP SWAP2 SWAP1 POP JUMP JUMPDEST PUSH2 0x505 DUP2 PUSH2 0x4F3 JUMP JUMPDEST DUP2 EQ PUSH2 0x50F JUMPI PUSH0 DUP1 REVERT JUMPDEST POP JUMP JUMPDEST PUSH0 DUP2 CALLDATALOAD SWAP1 POP PUSH2 0x520 DUP2 PUSH2 0x4FC JUMP JUMPDEST SWAP3 SWAP2 POP POP JUMP JUMPDEST PUSH0 PUSH1 0x20 DUP3 DUP5 SUB SLT ISZERO PUSH2 0x53B JUMPI PUSH2 0x53A PUSH2 0x4EB JUMP JUMPDEST JUMPDEST PUSH0 PUSH2 0x548 DUP5 DUP3 DUP6 ADD PUSH2 0x512 JUMP JUMPDEST SWAP2 POP POP SWAP3 SWAP2 POP POP JUMP JUMPDEST PUSH2 0x55A DUP2 PUSH2 0x4F3 JUMP JUMPDEST DUP3 MSTORE POP POP JUMP JUMPDEST PUSH0 DUP2 ISZERO ISZERO SWAP1 POP SWAP2 SWAP1 POP JUMP JUMPDEST PUSH2 0x574 DUP2 PUSH2 0x560 JUMP JUMPDEST DUP3 MSTORE POP POP JUMP JUMPDEST PUSH0 PUSH1 0x60 DUP3 ADD SWAP1 POP DUP2 DUP2 SUB PUSH0 DUP4 ADD MSTORE PUSH2 0x592 DUP2 DUP7 PUSH2 0x48A JUMP JUMPDEST SWAP1 POP PUSH2 0x5A1 PUSH1 0x20 DUP4 ADD DUP6 PUSH2 0x551 JUMP JUMPDEST PUSH2 0x5AE PUSH1 0x40 DUP4 ADD DUP5 PUSH2 0x56B JUMP JUMPDEST SWAP5 SWAP4 POP POP POP POP JUMP JUMPDEST PUSH0 PUSH1 0x4 SWAP1 POP SWAP2 SWAP1 POP JUMP JUMPDEST PUSH0 DUP2 SWAP1 POP SWAP3 SWAP2 POP POP JUMP JUMPDEST PUSH0 DUP2 SWAP1 POP SWAP2 SWAP1 POP JUMP JUMPDEST PUSH0 DUP3 DUP3 MSTORE PUSH1 0x20 DUP3 ADD SWAP1 POP SWAP3 SWAP2 POP POP JUMP JUMPDEST PUSH0 PUSH2 0x5ED DUP3 PUSH2 0x452 JUMP JUMPDEST PUSH2 0x5F7 DUP2 DUP6 PUSH2 0x5D3 JUMP JUMPDEST SWAP4 POP PUSH2 0x607 DUP2 DUP6 PUSH1 0x20 DUP7 ADD PUSH2 0x46C JUMP JUMPDEST PUSH2 0x610 DUP2 PUSH2 0x47A JUMP JUMPDEST DUP5 ADD SWAP2 POP POP SWAP3 SWAP2 POP POP JUMP JUMPDEST PUSH2 0x624 DUP2 PUSH2 0x4F3 JUMP JUMPDEST DUP3 MSTORE POP POP JUMP JUMPDEST PUSH2 0x633 DUP2 PUSH2 0x560 JUMP JUMPDEST DUP3 MSTORE POP POP JUMP JUMPDEST PUSH0 PUSH1 0x60 DUP4 ADD PUSH0 DUP4 ADD MLOAD DUP5 DUP3 SUB PUSH0 DUP7 ADD MSTORE PUSH2 0x653 DUP3 DUP3 PUSH2 0x5E3 JUMP JUMPDEST SWAP2 POP POP PUSH1 0x20 DUP4 ADD MLOAD PUSH2 0x668 PUSH1 0x20 DUP7 ADD DUP3 PUSH2 0x61B JUMP JUMPDEST POP PUSH1 0x40 DUP4 ADD MLOAD PUSH2 0x67B PUSH1 0x40 DUP7 ADD DUP3 PUSH2 0x62A JUMP JUMPDEST POP DUP1 SWAP2 POP POP SWAP3 SWAP2 POP POP JUMP JUMPDEST PUSH0 PUSH2 0x691 DUP4 DUP4 PUSH2 0x639 JUMP JUMPDEST SWAP1 POP SWAP3 SWAP2 POP POP JUMP JUMPDEST PUSH0 PUSH1 0x20 DUP3 ADD SWAP1 POP SWAP2 SWAP1 POP JUMP JUMPDEST PUSH0 PUSH2 0x6AF DUP3 PUSH2 0x5B6 JUMP JUMPDEST PUSH2 0x6B9 DUP2 DUP6 PUSH2 0x5C0 JUMP JUMPDEST SWAP4 POP DUP4 PUSH1 0x20 DUP3 MUL DUP6 ADD PUSH2 0x6CB DUP6 PUSH2 0x5CA JUMP JUMPDEST DUP1 PUSH0 JUMPDEST DUP6 DUP2 LT ISZERO PUSH2 0x706 JUMPI DUP5 DUP5 SUB DUP10 MSTORE DUP2 MLOAD PUSH2 0x6E7 DUP6 DUP3 PUSH2 0x686 JUMP JUMPDEST SWAP5 POP PUSH2 0x6F2 DUP4 PUSH2 0x699 JUMP JUMPDEST SWAP3 POP PUSH1 0x20 DUP11 ADD SWAP10 POP POP PUSH1 0x1 DUP2 ADD SWAP1 POP PUSH2 0x6CE JUMP JUMPDEST POP DUP3 SWAP8 POP DUP8 SWAP6 POP POP POP POP POP POP SWAP3 SWAP2 POP POP JUMP JUMPDEST PUSH0 PUSH1 0x20 DUP3 ADD SWAP1 POP DUP2 DUP2 SUB PUSH0 DUP4 ADD MSTORE PUSH2 0x730 DUP2 DUP5 PUSH2 0x6A5 JUMP JUMPDEST SWAP1 POP SWAP3 SWAP2 POP POP JUMP JUMPDEST PUSH0 PUSH1 0x20 DUP3 ADD SWAP1 POP PUSH2 0x74B PUSH0 DUP4 ADD DUP5 PUSH2 0x551 JUMP JUMPDEST SWAP3 SWAP2 POP POP JUMP JUMPDEST PUSH0 DUP1 REVERT JUMPDEST PUSH0 DUP1 REVERT JUMPDEST PUSH32 0x4E487B7100000000000000000000000000000000000000000000000000000000 PUSH0 MSTORE PUSH1 0x41 PUSH1 0x4 MSTORE PUSH1 0x24 PUSH0 REVERT JUMPDEST PUSH2 0x78F DUP3 PUSH2 0x47A JUMP JUMPDEST DUP2 ADD DUP2 DUP2 LT PUSH8 0xFFFFFFFFFFFFFFFF DUP3 GT OR ISZERO PUSH2 0x7AE JUMPI PUSH2 0x7AD PUSH2 0x759 JUMP JUMPDEST JUMPDEST DUP1 PUSH1 0x40 MSTORE POP POP POP JUMP JUMPDEST PUSH0 PUSH2 0x7C0 PUSH2 0x4E2 JUMP JUMPDEST SWAP1 POP PUSH2 0x7CC DUP3 DUP3 PUSH2 0x786 JUMP JUMPDEST SWAP2 SWAP1 POP JUMP JUMPDEST PUSH0 PUSH8 0xFFFFFFFFFFFFFFFF DUP3 GT ISZERO PUSH2 0x7EB JUMPI PUSH2 0x7EA PUSH2 0x759 JUMP JUMPDEST JUMPDEST PUSH2 0x7F4 DUP3 PUSH2 0x47A JUMP JUMPDEST SWAP1 POP PUSH1 0x20 DUP2 ADD SWAP1 POP SWAP2 SWAP1 POP JUMP JUMPDEST DUP3 DUP2 DUP4 CALLDATACOPY PUSH0 DUP4 DUP4 ADD MSTORE POP POP POP JUMP JUMPDEST PUSH0 PUSH2 0x821 PUSH2 0x81C DUP5 PUSH2 0x7D1 JUMP JUMPDEST PUSH2 0x7B7 JUMP JUMPDEST SWAP1 POP DUP3 DUP2 MSTORE PUSH1 0x20 DUP2 ADD DUP5 DUP5 DUP5 ADD GT ISZERO PUSH2 0x83D JUMPI PUSH2 0x83C PUSH2 0x755 JUMP JUMPDEST JUMPDEST PUSH2 0x848 DUP5 DUP3 DUP6 PUSH2 0x801 JUMP JUMPDEST POP SWAP4 SWAP3 POP POP POP JUMP JUMPDEST PUSH0 DUP3 PUSH1 0x1F DUP4 ADD SLT PUSH2 0x864 JUMPI PUSH2 0x863 PUSH2 0x751 JUMP JUMPDEST JUMPDEST DUP2 CALLDATALOAD PUSH2 0x874 DUP5 DUP3 PUSH1 0x20 DUP7 ADD PUSH2 0x80F JUMP JUMPDEST SWAP2 POP POP SWAP3 SWAP2 POP POP JUMP JUMPDEST PUSH2 0x886 DUP2 PUSH2 0x560 JUMP JUMPDEST DUP2 EQ PUSH2 0x890 JUMPI PUSH0 DUP1 REVERT JUMPDEST POP JUMP JUMPDEST PUSH0 DUP2 CALLDATALOAD SWAP1 POP PUSH2 0x8A1 DUP2 PUSH2 0x87D JUMP JUMPDEST SWAP3 SWAP2 POP POP JUMP JUMPDEST PUSH0 DUP1 PUSH0 DUP1 PUSH1 0x80 DUP6 DUP8 SUB SLT ISZERO PUSH2 0x8BF JUMPI PUSH2 0x8BE PUSH2 0x4EB JUMP JUMPDEST JUMPDEST PUSH0 PUSH2 0x8CC DUP8 DUP3 DUP9 ADD PUSH2 0x512 JUMP JUMPDEST SWAP5 POP POP PUSH1 0x20 DUP6 ADD CALLDATALOAD PUSH8 0xFFFFFFFFFFFFFFFF DUP2 GT ISZERO PUSH2 0x8ED JUMPI PUSH2 0x8EC PUSH2 0x4EF JUMP JUMPDEST JUMPDEST PUSH2 0x8F9 DUP8 DUP3 DUP9 ADD PUSH2 0x850 JUMP JUMPDEST SWAP4 POP POP PUSH1 0x40 PUSH2 0x90A DUP8 DUP3 DUP9 ADD PUSH2 0x512 JUMP JUMPDEST SWAP3 POP POP PUSH1 0x60 PUSH2 0x91B DUP8 DUP3 DUP9 ADD PUSH2 0x893 JUMP JUMPDEST SWAP2 POP POP SWAP3 SWAP6 SWAP2 SWAP5 POP SWAP3 POP JUMP JUMPDEST PUSH32 0x4E487B7100000000000000000000000000000000000000000000000000000000 PUSH0 MSTORE PUSH1 0x32 PUSH1 0x4 MSTORE PUSH1 0x24 PUSH0 REVERT JUMPDEST PUSH32 0x4E487B7100000000000000000000000000000000000000000000000000000000 PUSH0 MSTORE PUSH1 0x22 PUSH1 0x4 MSTORE PUSH1 0x24 PUSH0 REVERT JUMPDEST PUSH0 PUSH1 0x2 DUP3 DIV SWAP1 POP PUSH1 0x1 DUP3 AND DUP1 PUSH2 0x998 JUMPI PUSH1 0x7F DUP3 AND SWAP2 POP JUMPDEST PUSH1 0x20 DUP3 LT DUP2 SUB PUSH2 0x9AB JUMPI PUSH2 0x9AA PUSH2 0x954 JUMP JUMPDEST JUMPDEST POP SWAP2 SWAP1 POP JUMP JUMPDEST PUSH0 DUP2 SWAP1 POP DUP2 PUSH0 MSTORE PUSH1 0x20 PUSH0 KECCAK256 SWAP1 POP SWAP2 SWAP1 POP JUMP JUMPDEST PUSH0 PUSH1 0x20 PUSH1 0x1F DUP4 ADD DIV SWAP1 POP SWAP2 SWAP1 POP JUMP JUMPDEST PUSH0 DUP3 DUP3 SHL SWAP1 POP SWAP3 SWAP2 POP POP JUMP JUMPDEST PUSH0 PUSH1 0x8 DUP4 MUL PUSH2 0xA0D PUSH32 0xFFFFFFFFFFFFFFFFFFFFFFFFFFFFFFFFFFFFFFFFFFFFFFFFFFFFFFFFFFFFFFFF DUP3 PUSH2 0x9D2 JUMP JUMPDEST PUSH2 0xA17 DUP7 DUP4 PUSH2 0x9D2 JUMP JUMPDEST SWAP6 POP DUP1 NOT DUP5 AND SWAP4 POP DUP1 DUP7 AND DUP5 OR SWAP3 POP POP POP SWAP4 SWAP3 POP POP POP JUMP JUMPDEST PUSH0 DUP2 SWAP1 POP SWAP2 SWAP1 POP JUMP JUMPDEST PUSH0 PUSH2 0xA52 PUSH2 0xA4D PUSH2 0xA48 DUP5 PUSH2 0x4F3 JUMP JUMPDEST PUSH2 0xA2F JUMP JUMPDEST PUSH2 0x4F3 JUMP JUMPDEST SWAP1 POP SWAP2 SWAP1 POP JUMP JUMPDEST PUSH0 DUP2 SWAP1 POP SWAP2 SWAP1 POP JUMP JUMPDEST PUSH2 0xA6B DUP4 PUSH2 0xA38 JUMP JUMPDEST PUSH2 0xA7F PUSH2 0xA77 DUP3 PUSH2 0xA59 JUMP JUMPDEST DUP5 DUP5 SLOAD PUSH2 0x9DE JUMP JUMPDEST DUP3 SSTORE POP POP POP POP JUMP JUMPDEST PUSH0 SWAP1 JUMP JUMPDEST PUSH2 0xA93 PUSH2 0xA87 JUMP JUMPDEST PUSH2 0xA9E DUP2 DUP5 DUP5 PUSH2 0xA62 JUMP JUMPDEST POP POP POP JUMP JUMPDEST JUMPDEST DUP2 DUP2 LT ISZERO PUSH2 0xAC1 JUMPI PUSH2 0xAB6 PUSH0 DUP3 PUSH2 0xA8B JUMP JUMPDEST PUSH1 0x1 DUP2 ADD SWAP1 POP PUSH2 0xAA4 JUMP JUMPDEST POP POP JUMP JUMPDEST PUSH1 0x1F DUP3 GT ISZERO PUSH2 0xB06 JUMPI PUSH2 0xAD7 DUP2 PUSH2 0x9B1 JUMP JUMPDEST PUSH2 0xAE0 DUP5 PUSH2 0x9C3 JUMP JUMPDEST DUP2 ADD PUSH1 0x20 DUP6 LT ISZERO PUSH2 0xAEF JUMPI DUP2 SWAP1 POP JUMPDEST PUSH2 0xB03 PUSH2 0xAFB DUP6 PUSH2 0x9C3 JUMP JUMPDEST DUP4 ADD DUP3 PUSH2 0xAA3 JUMP JUMPDEST POP POP JUMPDEST POP POP POP JUMP JUMPDEST PUSH0 DUP3 DUP3 SHR SWAP1 POP SWAP3 SWAP2 POP POP JUMP JUMPDEST PUSH0 PUSH2 0xB26 PUSH0 NOT DUP5 PUSH1 0x8 MUL PUSH2 0xB0B JUMP JUMPDEST NOT DUP1 DUP4 AND SWAP2 POP POP SWAP3 SWAP2 POP POP JUMP JUMPDEST PUSH0 PUSH2 0xB3E DUP4 DUP4 PUSH2 0xB17 JUMP JUMPDEST SWAP2 POP DUP3 PUSH1 0x2 MUL DUP3 OR SWAP1 POP SWAP3 SWAP2 POP POP JUMP JUMPDEST PUSH2 0xB57 DUP3 PUSH2 0x452 JUMP JUMPDEST PUSH8 0xFFFFFFFFFFFFFFFF DUP2 GT ISZERO PUSH2 0xB70 JUMPI PUSH2 0xB6F PUSH2 0x759 JUMP JUMPDEST JUMPDEST PUSH2 0xB7A DUP3 SLOAD PUSH2 0x981 JUMP JUMPDEST PUSH2 0xB85 DUP3 DUP3 DUP6 PUSH2 0xAC5 JUMP JUMPDEST PUSH0 PUSH1 0x20 SWAP1 POP PUSH1 0x1F DUP4 GT PUSH1 0x1 DUP2 EQ PUSH2 0xBB6 JUMPI PUSH0 DUP5 ISZERO PUSH2 0xBA4 JUMPI DUP3 DUP8 ADD MLOAD SWAP1 POP JUMPDEST PUSH2 0xBAE DUP6 DUP3 PUSH2 0xB33 JUMP JUMPDEST DUP7 SSTORE POP PUSH2 0xC15 JUMP JUMPDEST PUSH1 0x1F NOT DUP5 AND PUSH2 0xBC4 DUP7 PUSH2 0x9B1 JUMP JUMPDEST PUSH0 JUMPDEST DUP3 DUP2 LT ISZERO PUSH2 0xBEB JUMPI DUP5 DUP10 ADD MLOAD DUP3 SSTORE PUSH1 0x1 DUP3 ADD SWAP2 POP PUSH1 0x20 DUP6 ADD SWAP5 POP PUSH1 0x20 DUP2 ADD SWAP1 POP PUSH2 0xBC6 JUMP JUMPDEST DUP7 DUP4 LT ISZERO PUSH2 0xC08 JUMPI DUP5 DUP10 ADD MLOAD PUSH2 0xC04 PUSH1 0x1F DUP10 AND DUP3 PUSH2 0xB17 JUMP JUMPDEST DUP4 SSTORE POP JUMPDEST PUSH1 0x1 PUSH1 0x2 DUP9 MUL ADD DUP9 SSTORE POP POP POP JUMPDEST POP POP POP POP POP POP JUMP INVALID LOG2 PUSH5 0x6970667358 0x22 SLT KECCAK256 0xCC LOG2 0x4E 0xEB 0xDC ADD MSTORE8 0xC2 0xC5 SWAP12 0xD3 SWAP11 DUP2 0xD5 PUSH10 0xD18BC8BA8DDE72546AC6 0xD4 PUSH23 0x1FCC3DE52C64736F6C634300081A003300000000000000 "
		},
		"gasEstimates": {
			"creation": {
				"codeDepositCost": "631000",
				"executionCost": "662",
				"totalCost": "631662"
			},
			"external": {
				"getName()": "infinite",
				"getRoll()": "2518",
				"getter()": "infinite",
				"insert(uint256,string,uint256,bool)": "infinite",
				"s(uint256)": "infinite"
			}
		},
		"methodIdentifiers": {
			"getName()": "17d7de7c",
			"getRoll()": "a68316ea",
			"getter()": "993a04b7",
			"insert(uint256,string,uint256,bool)": "e0258db7",
			"s(uint256)": "52efd685"
		}
	},
	"abi": [
		{
			"inputs": [],
			"name": "getName",
			"outputs": [
				{
					"internalType": "string",
					"name": "",
					"type": "string"
				}
			],
			"stateMutability": "view",
			"type": "function"
		},
		{
			"inputs": [],
			"name": "getRoll",
			"outputs": [
				{
					"internalType": "uint256",
					"name": "",
					"type": "uint256"
				}
			],
			"stateMutability": "view",
			"type": "function"
		},
		{
			"inputs": [],
			"name": "getter",
			"outputs": [
				{
					"components": [
						{
							"internalType": "string",
							"name": "name",
							"type": "string"
						},
						{
							"internalType": "uint256",
							"name": "roll",
							"type": "uint256"
						},
						{
							"internalType": "bool",
							"name": "pass",
							"type": "bool"
						}
					],
					"internalType": "struct ArraytOfStruct.Student[4]",
					"name": "",
					"type": "tuple[4]"
				}
			],
			"stateMutability": "view",
			"type": "function"
		},
		{
			"inputs": [
				{
					"internalType": "uint256",
					"name": "index",
					"type": "uint256"
				},
				{
					"internalType": "string",
					"name": "_name",
					"type": "string"
				},
				{
					"internalType": "uint256",
					"name": "_roll",
					"type": "uint256"
				},
				{
					"internalType": "bool",
					"name": "_pass",
					"type": "bool"
				}
			],
			"name": "insert",
			"outputs": [],
			"stateMutability": "nonpayable",
			"type": "function"
		},
		{
			"inputs": [
				{
					"internalType": "uint256",
					"name": "",
					"type": "uint256"
				}
			],
			"name": "s",
			"outputs": [
				{
					"internalType": "string",
					"name": "name",
					"type": "string"
				},
				{
					"internalType": "uint256",
					"name": "roll",
					"type": "uint256"
				},
				{
					"internalType": "bool",
					"name": "pass",
					"type": "bool"
				}
			],
			"stateMutability": "view",
			"type": "function"
		}
	]
}