{
	"data": {
		"bytecode": {
			"linkReferences": {},
			"object": "6080604052348015600e575f80fd5b50610a408061001c5f395ff3fe608060405234801561000f575f80fd5b5060043610610055575f3560e01c806317d7de7c14610059578063993a04b714610077578063a68316ea14610095578063c30655a2146100b3578063dd51d192146100cf575b5f80fd5b6100616100ef565b60405161006e91906103ca565b60405180910390f35b61007f610180565b60405161008c91906104b1565b60405180910390f35b61009d61024c565b6040516100aa91906104e0565b60405180910390f35b6100cd60048036038101906100c8919061068a565b610257565b005b6100d7610291565b6040516100e693929190610705565b60405180910390f35b60605f800180546100ff9061076e565b80601f016020809104026020016040519081016040528092919081815260200182805461012b9061076e565b80156101765780601f1061014d57610100808354040283529160200191610176565b820191905f5260205f20905b81548152906001019060200180831161015957829003601f168201915b5050505050905090565b610188610339565b5f6040518060600160405290815f820180546101a39061076e565b80601f01602080910402602001604051908101604052809291908181526020018280546101cf9061076e565b801561021a5780601f106101f15761010080835404028352916020019161021a565b820191905f5260205f20905b8154815290600101906020018083116101fd57829003601f168201915b5050505050815260200160018201548152602001600282015f9054906101000a900460ff161515151581525050905090565b5f8060010154905090565b825f80019081610267919061093b565b50815f60010181905550805f6002015f6101000a81548160ff021916908315150217905550505050565b5f805f0180546102a09061076e565b80601f01602080910402602001604051908101604052809291908181526020018280546102cc9061076e565b80156103175780601f106102ee57610100808354040283529160200191610317565b820191905f5260205f20905b8154815290600101906020018083116102fa57829003601f168201915b505050505090806001015490806002015f9054906101000a900460ff16905083565b6040518060600160405280606081526020015f81526020015f151581525090565b5f81519050919050565b5f82825260208201905092915050565b8281835e5f83830152505050565b5f601f19601f8301169050919050565b5f61039c8261035a565b6103a68185610364565b93506103b6818560208601610374565b6103bf81610382565b840191505092915050565b5f6020820190508181035f8301526103e28184610392565b905092915050565b5f82825260208201905092915050565b5f6104048261035a565b61040e81856103ea565b935061041e818560208601610374565b61042781610382565b840191505092915050565b5f819050919050565b61044481610432565b82525050565b5f8115159050919050565b61045e8161044a565b82525050565b5f606083015f8301518482035f86015261047e82826103fa565b9150506020830151610493602086018261043b565b5060408301516104a66040860182610455565b508091505092915050565b5f6020820190508181035f8301526104c98184610464565b905092915050565b6104da81610432565b82525050565b5f6020820190506104f35f8301846104d1565b92915050565b5f604051905090565b5f80fd5b5f80fd5b5f80fd5b5f80fd5b7f4e487b71000000000000000000000000000000000000000000000000000000005f52604160045260245ffd5b61054882610382565b810181811067ffffffffffffffff8211171561056757610566610512565b5b80604052505050565b5f6105796104f9565b9050610585828261053f565b919050565b5f67ffffffffffffffff8211156105a4576105a3610512565b5b6105ad82610382565b9050602081019050919050565b828183375f83830152505050565b5f6105da6105d58461058a565b610570565b9050828152602081018484840111156105f6576105f561050e565b5b6106018482856105ba565b509392505050565b5f82601f83011261061d5761061c61050a565b5b813561062d8482602086016105c8565b91505092915050565b61063f81610432565b8114610649575f80fd5b50565b5f8135905061065a81610636565b92915050565b6106698161044a565b8114610673575f80fd5b50565b5f8135905061068481610660565b92915050565b5f805f606084860312156106a1576106a0610502565b5b5f84013567ffffffffffffffff8111156106be576106bd610506565b5b6106ca86828701610609565b93505060206106db8682870161064c565b92505060406106ec86828701610676565b9150509250925092565b6106ff8161044a565b82525050565b5f6060820190508181035f83015261071d8186610392565b905061072c60208301856104d1565b61073960408301846106f6565b949350505050565b7f4e487b71000000000000000000000000000000000000000000000000000000005f52602260045260245ffd5b5f600282049050600182168061078557607f821691505b60208210810361079857610797610741565b5b50919050565b5f819050815f5260205f209050919050565b5f6020601f8301049050919050565b5f82821b905092915050565b5f600883026107fa7fffffffffffffffffffffffffffffffffffffffffffffffffffffffffffffffff826107bf565b61080486836107bf565b95508019841693508086168417925050509392505050565b5f819050919050565b5f61083f61083a61083584610432565b61081c565b610432565b9050919050565b5f819050919050565b61085883610825565b61086c61086482610846565b8484546107cb565b825550505050565b5f90565b610880610874565b61088b81848461084f565b505050565b5b818110156108ae576108a35f82610878565b600181019050610891565b5050565b601f8211156108f3576108c48161079e565b6108cd846107b0565b810160208510156108dc578190505b6108f06108e8856107b0565b830182610890565b50505b505050565b5f82821c905092915050565b5f6109135f19846008026108f8565b1980831691505092915050565b5f61092b8383610904565b9150826002028217905092915050565b6109448261035a565b67ffffffffffffffff81111561095d5761095c610512565b5b610967825461076e565b6109728282856108b2565b5f60209050601f8311600181146109a3575f8415610991578287015190505b61099b8582610920565b865550610a02565b601f1984166109b18661079e565b5f5b828110156109d8578489015182556001820191506020850194506020810190506109b3565b868310156109f557848901516109f1601f891682610904565b8355505b6001600288020188555050505b50505050505056fea26469706673582212208b4986127118186d1cbe7807b0249e109843218602e22d72e933e2f02a9d18b664736f6c634300081a0033",
			"opcodes": "PUSH1 0x80 PUSH1 0x40 MSTORE CALLVALUE DUP1 ISZERO PUSH1 0xE JUMPI PUSH0 DUP1 REVERT JUMPDEST POP PUSH2 0xA40 DUP1 PUSH2 0x1C PUSH0 CODECOPY PUSH0 RETURN INVALID PUSH1 0x80 PUSH1 0x40 MSTORE CALLVALUE DUP1 ISZERO PUSH2 0xF JUMPI PUSH0 DUP1 REVERT JUMPDEST POP PUSH1 0x4 CALLDATASIZE LT PUSH2 0x55 JUMPI PUSH0 CALLDATALOAD PUSH1 0xE0 SHR DUP1 PUSH4 0x17D7DE7C EQ PUSH2 0x59 JUMPI DUP1 PUSH4 0x993A04B7 EQ PUSH2 0x77 JUMPI DUP1 PUSH4 0xA68316EA EQ PUSH2 0x95 JUMPI DUP1 PUSH4 0xC30655A2 EQ PUSH2 0xB3 JUMPI DUP1 PUSH4 0xDD51D192 EQ PUSH2 0xCF JUMPI JUMPDEST PUSH0 DUP1 REVERT JUMPDEST PUSH2 0x61 PUSH2 0xEF JUMP JUMPDEST PUSH1 0x40 MLOAD PUSH2 0x6E SWAP2 SWAP1 PUSH2 0x3CA JUMP JUMPDEST PUSH1 0x40 MLOAD DUP1 SWAP2 SUB SWAP1 RETURN JUMPDEST PUSH2 0x7F PUSH2 0x180 JUMP JUMPDEST PUSH1 0x40 MLOAD PUSH2 0x8C SWAP2 SWAP1 PUSH2 0x4B1 JUMP JUMPDEST PUSH1 0x40 MLOAD DUP1 SWAP2 SUB SWAP1 RETURN JUMPDEST PUSH2 0x9D PUSH2 0x24C JUMP JUMPDEST PUSH1 0x40 MLOAD PUSH2 0xAA SWAP2 SWAP1 PUSH2 0x4E0 JUMP JUMPDEST PUSH1 0x40 MLOAD DUP1 SWAP2 SUB SWAP1 RETURN JUMPDEST PUSH2 0xCD PUSH1 0x4 DUP1 CALLDATASIZE SUB DUP2 ADD SWAP1 PUSH2 0xC8 SWAP2 SWAP1 PUSH2 0x68A JUMP JUMPDEST PUSH2 0x257 JUMP JUMPDEST STOP JUMPDEST PUSH2 0xD7 PUSH2 0x291 JUMP JUMPDEST PUSH1 0x40 MLOAD PUSH2 0xE6 SWAP4 SWAP3 SWAP2 SWAP1 PUSH2 0x705 JUMP JUMPDEST PUSH1 0x40 MLOAD DUP1 SWAP2 SUB SWAP1 RETURN JUMPDEST PUSH1 0x60 PUSH0 DUP1 ADD DUP1 SLOAD PUSH2 0xFF SWAP1 PUSH2 0x76E JUMP JUMPDEST DUP1 PUSH1 0x1F ADD PUSH1 0x20 DUP1 SWAP2 DIV MUL PUSH1 0x20 ADD PUSH1 0x40 MLOAD SWAP1 DUP2 ADD PUSH1 0x40 MSTORE DUP1 SWAP3 SWAP2 SWAP1 DUP2 DUP2 MSTORE PUSH1 0x20 ADD DUP3 DUP1 SLOAD PUSH2 0x12B SWAP1 PUSH2 0x76E JUMP JUMPDEST DUP1 ISZERO PUSH2 0x176 JUMPI DUP1 PUSH1 0x1F LT PUSH2 0x14D JUMPI PUSH2 0x100 DUP1 DUP4 SLOAD DIV MUL DUP4 MSTORE SWAP2 PUSH1 0x20 ADD SWAP2 PUSH2 0x176 JUMP JUMPDEST DUP3 ADD SWAP2 SWAP1 PUSH0 MSTORE PUSH1 0x20 PUSH0 KECCAK256 SWAP1 JUMPDEST DUP2 SLOAD DUP2 MSTORE SWAP1 PUSH1 0x1 ADD SWAP1 PUSH1 0x20 ADD DUP1 DUP4 GT PUSH2 0x159 JUMPI DUP3 SWAP1 SUB PUSH1 0x1F AND DUP3 ADD SWAP2 JUMPDEST POP POP POP POP POP SWAP1 POP SWAP1 JUMP JUMPDEST PUSH2 0x188 PUSH2 0x339 JUMP JUMPDEST PUSH0 PUSH1 0x40 MLOAD DUP1 PUSH1 0x60 ADD PUSH1 0x40 MSTORE SWAP1 DUP2 PUSH0 DUP3 ADD DUP1 SLOAD PUSH2 0x1A3 SWAP1 PUSH2 0x76E JUMP JUMPDEST DUP1 PUSH1 0x1F ADD PUSH1 0x20 DUP1 SWAP2 DIV MUL PUSH1 0x20 ADD PUSH1 0x40 MLOAD SWAP1 DUP2 ADD PUSH1 0x40 MSTORE DUP1 SWAP3 SWAP2 SWAP1 DUP2 DUP2 MSTORE PUSH1 0x20 ADD DUP3 DUP1 SLOAD PUSH2 0x1CF SWAP1 PUSH2 0x76E JUMP JUMPDEST DUP1 ISZERO PUSH2 0x21A JUMPI DUP1 PUSH1 0x1F LT PUSH2 0x1F1 JUMPI PUSH2 0x100 DUP1 DUP4 SLOAD DIV MUL DUP4 MSTORE SWAP2 PUSH1 0x20 ADD SWAP2 PUSH2 0x21A JUMP JUMPDEST DUP3 ADD SWAP2 SWAP1 PUSH0 MSTORE PUSH1 0x20 PUSH0 KECCAK256 SWAP1 JUMPDEST DUP2 SLOAD DUP2 MSTORE SWAP1 PUSH1 0x1 ADD SWAP1 PUSH1 0x20 ADD DUP1 DUP4 GT PUSH2 0x1FD JUMPI DUP3 SWAP1 SUB PUSH1 0x1F AND DUP3 ADD SWAP2 JUMPDEST POP POP POP POP POP DUP2 MSTORE PUSH1 0x20 ADD PUSH1 0x1 DUP3 ADD SLOAD DUP2 MSTORE PUSH1 0x20 ADD PUSH1 0x2 DUP3 ADD PUSH0 SWAP1 SLOAD SWAP1 PUSH2 0x100 EXP SWAP1 DIV PUSH1 0xFF AND ISZERO ISZERO ISZERO ISZERO DUP2 MSTORE POP POP SWAP1 POP SWAP1 JUMP JUMPDEST PUSH0 DUP1 PUSH1 0x1 ADD SLOAD SWAP1 POP SWAP1 JUMP JUMPDEST DUP3 PUSH0 DUP1 ADD SWAP1 DUP2 PUSH2 0x267 SWAP2 SWAP1 PUSH2 0x93B JUMP JUMPDEST POP DUP2 PUSH0 PUSH1 0x1 ADD DUP2 SWAP1 SSTORE POP DUP1 PUSH0 PUSH1 0x2 ADD PUSH0 PUSH2 0x100 EXP DUP2 SLOAD DUP2 PUSH1 0xFF MUL NOT AND SWAP1 DUP4 ISZERO ISZERO MUL OR SWAP1 SSTORE POP POP POP POP JUMP JUMPDEST PUSH0 DUP1 PUSH0 ADD DUP1 SLOAD PUSH2 0x2A0 SWAP1 PUSH2 0x76E JUMP JUMPDEST DUP1 PUSH1 0x1F ADD PUSH1 0x20 DUP1 SWAP2 DIV MUL PUSH1 0x20 ADD PUSH1 0x40 MLOAD SWAP1 DUP2 ADD PUSH1 0x40 MSTORE DUP1 SWAP3 SWAP2 SWAP1 DUP2 DUP2 MSTORE PUSH1 0x20 ADD DUP3 DUP1 SLOAD PUSH2 0x2CC SWAP1 PUSH2 0x76E JUMP JUMPDEST DUP1 ISZERO PUSH2 0x317 JUMPI DUP1 PUSH1 0x1F LT PUSH2 0x2EE JUMPI PUSH2 0x100 DUP1 DUP4 SLOAD DIV MUL DUP4 MSTORE SWAP2 PUSH1 0x20 ADD SWAP2 PUSH2 0x317 JUMP JUMPDEST DUP3 ADD SWAP2 SWAP1 PUSH0 MSTORE PUSH1 0x20 PUSH0 KECCAK256 SWAP1 JUMPDEST DUP2 SLOAD DUP2 MSTORE SWAP1 PUSH1 0x1 ADD SWAP1 PUSH1 0x20 ADD DUP1 DUP4 GT PUSH2 0x2FA JUMPI DUP3 SWAP1 SUB PUSH1 0x1F AND DUP3 ADD SWAP2 JUMPDEST POP POP POP POP POP SWAP1 DUP1 PUSH1 0x1 ADD SLOAD SWAP1 DUP1 PUSH1 0x2 ADD PUSH0 SWAP1 SLOAD SWAP1 PUSH2 0x100 EXP SWAP1 DIV PUSH1 0xFF AND SWAP1 POP DUP4 JUMP JUMPDEST PUSH1 0x40 MLOAD DUP1 PUSH1 0x60 ADD PUSH1 0x40 MSTORE DUP1 PUSH1 0x60 DUP2 MSTORE PUSH1 0x20 ADD PUSH0 DUP2 MSTORE PUSH1 0x20 ADD PUSH0 ISZERO ISZERO DUP2 MSTORE POP SWAP1 JUMP JUMPDEST PUSH0 DUP2 MLOAD SWAP1 POP SWAP2 SWAP1 POP JUMP JUMPDEST PUSH0 DUP3 DUP3 MSTORE PUSH1 0x20 DUP3 ADD SWAP1 POP SWAP3 SWAP2 POP POP JUMP JUMPDEST DUP3 DUP2 DUP4 MCOPY PUSH0 DUP4 DUP4 ADD MSTORE POP POP POP JUMP JUMPDEST PUSH0 PUSH1 0x1F NOT PUSH1 0x1F DUP4 ADD AND SWAP1 POP SWAP2 SWAP1 POP JUMP JUMPDEST PUSH0 PUSH2 0x39C DUP3 PUSH2 0x35A JUMP JUMPDEST PUSH2 0x3A6 DUP2 DUP6 PUSH2 0x364 JUMP JUMPDEST SWAP4 POP PUSH2 0x3B6 DUP2 DUP6 PUSH1 0x20 DUP7 ADD PUSH2 0x374 JUMP JUMPDEST PUSH2 0x3BF DUP2 PUSH2 0x382 JUMP JUMPDEST DUP5 ADD SWAP2 POP POP SWAP3 SWAP2 POP POP JUMP JUMPDEST PUSH0 PUSH1 0x20 DUP3 ADD SWAP1 POP DUP2 DUP2 SUB PUSH0 DUP4 ADD MSTORE PUSH2 0x3E2 DUP2 DUP5 PUSH2 0x392 JUMP JUMPDEST SWAP1 POP SWAP3 SWAP2 POP POP JUMP JUMPDEST PUSH0 DUP3 DUP3 MSTORE PUSH1 0x20 DUP3 ADD SWAP1 POP SWAP3 SWAP2 POP POP JUMP JUMPDEST PUSH0 PUSH2 0x404 DUP3 PUSH2 0x35A JUMP JUMPDEST PUSH2 0x40E DUP2 DUP6 PUSH2 0x3EA JUMP JUMPDEST SWAP4 POP PUSH2 0x41E DUP2 DUP6 PUSH1 0x20 DUP7 ADD PUSH2 0x374 JUMP JUMPDEST PUSH2 0x427 DUP2 PUSH2 0x382 JUMP JUMPDEST DUP5 ADD SWAP2 POP POP SWAP3 SWAP2 POP POP JUMP JUMPDEST PUSH0 DUP2 SWAP1 POP SWAP2 SWAP1 POP JUMP JUMPDEST PUSH2 0x444 DUP2 PUSH2 0x432 JUMP JUMPDEST DUP3 MSTORE POP POP JUMP JUMPDEST PUSH0 DUP2 ISZERO ISZERO SWAP1 POP SWAP2 SWAP1 POP JUMP JUMPDEST PUSH2 0x45E DUP2 PUSH2 0x44A JUMP JUMPDEST DUP3 MSTORE POP POP JUMP JUMPDEST PUSH0 PUSH1 0x60 DUP4 ADD PUSH0 DUP4 ADD MLOAD DUP5 DUP3 SUB PUSH0 DUP7 ADD MSTORE PUSH2 0x47E DUP3 DUP3 PUSH2 0x3FA JUMP JUMPDEST SWAP2 POP POP PUSH1 0x20 DUP4 ADD MLOAD PUSH2 0x493 PUSH1 0x20 DUP7 ADD DUP3 PUSH2 0x43B JUMP JUMPDEST POP PUSH1 0x40 DUP4 ADD MLOAD PUSH2 0x4A6 PUSH1 0x40 DUP7 ADD DUP3 PUSH2 0x455 JUMP JUMPDEST POP DUP1 SWAP2 POP POP SWAP3 SWAP2 POP POP JUMP JUMPDEST PUSH0 PUSH1 0x20 DUP3 ADD SWAP1 POP DUP2 DUP2 SUB PUSH0 DUP4 ADD MSTORE PUSH2 0x4C9 DUP2 DUP5 PUSH2 0x464 JUMP JUMPDEST SWAP1 POP SWAP3 SWAP2 POP POP JUMP JUMPDEST PUSH2 0x4DA DUP2 PUSH2 0x432 JUMP JUMPDEST DUP3 MSTORE POP POP JUMP JUMPDEST PUSH0 PUSH1 0x20 DUP3 ADD SWAP1 POP PUSH2 0x4F3 PUSH0 DUP4 ADD DUP5 PUSH2 0x4D1 JUMP JUMPDEST SWAP3 SWAP2 POP POP JUMP JUMPDEST PUSH0 PUSH1 0x40 MLOAD SWAP1 POP SWAP1 JUMP JUMPDEST PUSH0 DUP1 REVERT JUMPDEST PUSH0 DUP1 REVERT JUMPDEST PUSH0 DUP1 REVERT JUMPDEST PUSH0 DUP1 REVERT JUMPDEST PUSH32 0x4E487B7100000000000000000000000000000000000000000000000000000000 PUSH0 MSTORE PUSH1 0x41 PUSH1 0x4 MSTORE PUSH1 0x24 PUSH0 REVERT JUMPDEST PUSH2 0x548 DUP3 PUSH2 0x382 JUMP JUMPDEST DUP2 ADD DUP2 DUP2 LT PUSH8 0xFFFFFFFFFFFFFFFF DUP3 GT OR ISZERO PUSH2 0x567 JUMPI PUSH2 0x566 PUSH2 0x512 JUMP JUMPDEST JUMPDEST DUP1 PUSH1 0x40 MSTORE POP POP POP JUMP JUMPDEST PUSH0 PUSH2 0x579 PUSH2 0x4F9 JUMP JUMPDEST SWAP1 POP PUSH2 0x585 DUP3 DUP3 PUSH2 0x53F JUMP JUMPDEST SWAP2 SWAP1 POP JUMP JUMPDEST PUSH0 PUSH8 0xFFFFFFFFFFFFFFFF DUP3 GT ISZERO PUSH2 0x5A4 JUMPI PUSH2 0x5A3 PUSH2 0x512 JUMP JUMPDEST JUMPDEST PUSH2 0x5AD DUP3 PUSH2 0x382 JUMP JUMPDEST SWAP1 POP PUSH1 0x20 DUP2 ADD SWAP1 POP SWAP2 SWAP1 POP JUMP JUMPDEST DUP3 DUP2 DUP4 CALLDATACOPY PUSH0 DUP4 DUP4 ADD MSTORE POP POP POP JUMP JUMPDEST PUSH0 PUSH2 0x5DA PUSH2 0x5D5 DUP5 PUSH2 0x58A JUMP JUMPDEST PUSH2 0x570 JUMP JUMPDEST SWAP1 POP DUP3 DUP2 MSTORE PUSH1 0x20 DUP2 ADD DUP5 DUP5 DUP5 ADD GT ISZERO PUSH2 0x5F6 JUMPI PUSH2 0x5F5 PUSH2 0x50E JUMP JUMPDEST JUMPDEST PUSH2 0x601 DUP5 DUP3 DUP6 PUSH2 0x5BA JUMP JUMPDEST POP SWAP4 SWAP3 POP POP POP JUMP JUMPDEST PUSH0 DUP3 PUSH1 0x1F DUP4 ADD SLT PUSH2 0x61D JUMPI PUSH2 0x61C PUSH2 0x50A JUMP JUMPDEST JUMPDEST DUP2 CALLDATALOAD PUSH2 0x62D DUP5 DUP3 PUSH1 0x20 DUP7 ADD PUSH2 0x5C8 JUMP JUMPDEST SWAP2 POP POP SWAP3 SWAP2 POP POP JUMP JUMPDEST PUSH2 0x63F DUP2 PUSH2 0x432 JUMP JUMPDEST DUP2 EQ PUSH2 0x649 JUMPI PUSH0 DUP1 REVERT JUMPDEST POP JUMP JUMPDEST PUSH0 DUP2 CALLDATALOAD SWAP1 POP PUSH2 0x65A DUP2 PUSH2 0x636 JUMP JUMPDEST SWAP3 SWAP2 POP POP JUMP JUMPDEST PUSH2 0x669 DUP2 PUSH2 0x44A JUMP JUMPDEST DUP2 EQ PUSH2 0x673 JUMPI PUSH0 DUP1 REVERT JUMPDEST POP JUMP JUMPDEST PUSH0 DUP2 CALLDATALOAD SWAP1 POP PUSH2 0x684 DUP2 PUSH2 0x660 JUMP JUMPDEST SWAP3 SWAP2 POP POP JUMP JUMPDEST PUSH0 DUP1 PUSH0 PUSH1 0x60 DUP5 DUP7 SUB SLT ISZERO PUSH2 0x6A1 JUMPI PUSH2 0x6A0 PUSH2 0x502 JUMP JUMPDEST JUMPDEST PUSH0 DUP5 ADD CALLDATALOAD PUSH8 0xFFFFFFFFFFFFFFFF DUP2 GT ISZERO PUSH2 0x6BE JUMPI PUSH2 0x6BD PUSH2 0x506 JUMP JUMPDEST JUMPDEST PUSH2 0x6CA DUP7 DUP3 DUP8 ADD PUSH2 0x609 JUMP JUMPDEST SWAP4 POP POP PUSH1 0x20 PUSH2 0x6DB DUP7 DUP3 DUP8 ADD PUSH2 0x64C JUMP JUMPDEST SWAP3 POP POP PUSH1 0x40 PUSH2 0x6EC DUP7 DUP3 DUP8 ADD PUSH2 0x676 JUMP JUMPDEST SWAP2 POP POP SWAP3 POP SWAP3 POP SWAP3 JUMP JUMPDEST PUSH2 0x6FF DUP2 PUSH2 0x44A JUMP JUMPDEST DUP3 MSTORE POP POP JUMP JUMPDEST PUSH0 PUSH1 0x60 DUP3 ADD SWAP1 POP DUP2 DUP2 SUB PUSH0 DUP4 ADD MSTORE PUSH2 0x71D DUP2 DUP7 PUSH2 0x392 JUMP JUMPDEST SWAP1 POP PUSH2 0x72C PUSH1 0x20 DUP4 ADD DUP6 PUSH2 0x4D1 JUMP JUMPDEST PUSH2 0x739 PUSH1 0x40 DUP4 ADD DUP5 PUSH2 0x6F6 JUMP JUMPDEST SWAP5 SWAP4 POP POP POP POP JUMP JUMPDEST PUSH32 0x4E487B7100000000000000000000000000000000000000000000000000000000 PUSH0 MSTORE PUSH1 0x22 PUSH1 0x4 MSTORE PUSH1 0x24 PUSH0 REVERT JUMPDEST PUSH0 PUSH1 0x2 DUP3 DIV SWAP1 POP PUSH1 0x1 DUP3 AND DUP1 PUSH2 0x785 JUMPI PUSH1 0x7F DUP3 AND SWAP2 POP JUMPDEST PUSH1 0x20 DUP3 LT DUP2 SUB PUSH2 0x798 JUMPI PUSH2 0x797 PUSH2 0x741 JUMP JUMPDEST JUMPDEST POP SWAP2 SWAP1 POP JUMP JUMPDEST PUSH0 DUP2 SWAP1 POP DUP2 PUSH0 MSTORE PUSH1 0x20 PUSH0 KECCAK256 SWAP1 POP SWAP2 SWAP1 POP JUMP JUMPDEST PUSH0 PUSH1 0x20 PUSH1 0x1F DUP4 ADD DIV SWAP1 POP SWAP2 SWAP1 POP JUMP JUMPDEST PUSH0 DUP3 DUP3 SHL SWAP1 POP SWAP3 SWAP2 POP POP JUMP JUMPDEST PUSH0 PUSH1 0x8 DUP4 MUL PUSH2 0x7FA PUSH32 0xFFFFFFFFFFFFFFFFFFFFFFFFFFFFFFFFFFFFFFFFFFFFFFFFFFFFFFFFFFFFFFFF DUP3 PUSH2 0x7BF JUMP JUMPDEST PUSH2 0x804 DUP7 DUP4 PUSH2 0x7BF JUMP JUMPDEST SWAP6 POP DUP1 NOT DUP5 AND SWAP4 POP DUP1 DUP7 AND DUP5 OR SWAP3 POP POP POP SWAP4 SWAP3 POP POP POP JUMP JUMPDEST PUSH0 DUP2 SWAP1 POP SWAP2 SWAP1 POP JUMP JUMPDEST PUSH0 PUSH2 0x83F PUSH2 0x83A PUSH2 0x835 DUP5 PUSH2 0x432 JUMP JUMPDEST PUSH2 0x81C JUMP JUMPDEST PUSH2 0x432 JUMP JUMPDEST SWAP1 POP SWAP2 SWAP1 POP JUMP JUMPDEST PUSH0 DUP2 SWAP1 POP SWAP2 SWAP1 POP JUMP JUMPDEST PUSH2 0x858 DUP4 PUSH2 0x825 JUMP JUMPDEST PUSH2 0x86C PUSH2 0x864 DUP3 PUSH2 0x846 JUMP JUMPDEST DUP5 DUP5 SLOAD PUSH2 0x7CB JUMP JUMPDEST DUP3 SSTORE POP POP POP POP JUMP JUMPDEST PUSH0 SWAP1 JUMP JUMPDEST PUSH2 0x880 PUSH2 0x874 JUMP JUMPDEST PUSH2 0x88B DUP2 DUP5 DUP5 PUSH2 0x84F JUMP JUMPDEST POP POP POP JUMP JUMPDEST JUMPDEST DUP2 DUP2 LT ISZERO PUSH2 0x8AE JUMPI PUSH2 0x8A3 PUSH0 DUP3 PUSH2 0x878 JUMP JUMPDEST PUSH1 0x1 DUP2 ADD SWAP1 POP PUSH2 0x891 JUMP JUMPDEST POP POP JUMP JUMPDEST PUSH1 0x1F DUP3 GT ISZERO PUSH2 0x8F3 JUMPI PUSH2 0x8C4 DUP2 PUSH2 0x79E JUMP JUMPDEST PUSH2 0x8CD DUP5 PUSH2 0x7B0 JUMP JUMPDEST DUP2 ADD PUSH1 0x20 DUP6 LT ISZERO PUSH2 0x8DC JUMPI DUP2 SWAP1 POP JUMPDEST PUSH2 0x8F0 PUSH2 0x8E8 DUP6 PUSH2 0x7B0 JUMP JUMPDEST DUP4 ADD DUP3 PUSH2 0x890 JUMP JUMPDEST POP POP JUMPDEST POP POP POP JUMP JUMPDEST PUSH0 DUP3 DUP3 SHR SWAP1 POP SWAP3 SWAP2 POP POP JUMP JUMPDEST PUSH0 PUSH2 0x913 PUSH0 NOT DUP5 PUSH1 0x8 MUL PUSH2 0x8F8 JUMP JUMPDEST NOT DUP1 DUP4 AND SWAP2 POP POP SWAP3 SWAP2 POP POP JUMP JUMPDEST PUSH0 PUSH2 0x92B DUP4 DUP4 PUSH2 0x904 JUMP JUMPDEST SWAP2 POP DUP3 PUSH1 0x2 MUL DUP3 OR SWAP1 POP SWAP3 SWAP2 POP POP JUMP JUMPDEST PUSH2 0x944 DUP3 PUSH2 0x35A JUMP JUMPDEST PUSH8 0xFFFFFFFFFFFFFFFF DUP2 GT ISZERO PUSH2 0x95D JUMPI PUSH2 0x95C PUSH2 0x512 JUMP JUMPDEST JUMPDEST PUSH2 0x967 DUP3 SLOAD PUSH2 0x76E JUMP JUMPDEST PUSH2 0x972 DUP3 DUP3 DUP6 PUSH2 0x8B2 JUMP JUMPDEST PUSH0 PUSH1 0x20 SWAP1 POP PUSH1 0x1F DUP4 GT PUSH1 0x1 DUP2 EQ PUSH2 0x9A3 JUMPI PUSH0 DUP5 ISZERO PUSH2 0x991 JUMPI DUP3 DUP8 ADD MLOAD SWAP1 POP JUMPDEST PUSH2 0x99B DUP6 DUP3 PUSH2 0x920 JUMP JUMPDEST DUP7 SSTORE POP PUSH2 0xA02 JUMP JUMPDEST PUSH1 0x1F NOT DUP5 AND PUSH2 0x9B1 DUP7 PUSH2 0x79E JUMP JUMPDEST PUSH0 JUMPDEST DUP3 DUP2 LT ISZERO PUSH2 0x9D8 JUMPI DUP5 DUP10 ADD MLOAD DUP3 SSTORE PUSH1 0x1 DUP3 ADD SWAP2 POP PUSH1 0x20 DUP6 ADD SWAP5 POP PUSH1 0x20 DUP2 ADD SWAP1 POP PUSH2 0x9B3 JUMP JUMPDEST DUP7 DUP4 LT ISZERO PUSH2 0x9F5 JUMPI DUP5 DUP10 ADD MLOAD PUSH2 0x9F1 PUSH1 0x1F DUP10 AND DUP3 PUSH2 0x904 JUMP JUMPDEST DUP4 SSTORE POP JUMPDEST PUSH1 0x1 PUSH1 0x2 DUP9 MUL ADD DUP9 SSTORE POP POP POP JUMPDEST POP POP POP POP POP POP JUMP INVALID LOG2 PUSH5 0x6970667358 0x22 SLT KECCAK256 DUP12 BLOBHASH DUP7 SLT PUSH18 0x18186D1CBE7807B0249E109843218602E22D PUSH19 0xE933E2F02A9D18B664736F6C634300081A0033 "
		},
		"gasEstimates": {
			"creation": {
				"codeDepositCost": "524800",
				"executionCost": "554",
				"totalCost": "525354"
			},
			"external": {
				"getName()": "infinite",
				"getRoll()": "2460",
				"getter()": "infinite",
				"insert(string,uint256,bool)": "infinite",
				"studentDetails()": "infinite"
			}
		},
		"methodIdentifiers": {
			"getName()": "17d7de7c",
			"getRoll()": "a68316ea",
			"getter()": "993a04b7",
			"insert(string,uint256,bool)": "c30655a2",
			"studentDetails()": "dd51d192"
		}
	},
	"abi": [
		{
			"inputs": [],
			"name": "getName",
			"outputs": [
				{
					"internalType": "string",
					"name": "",
					"type": "string"
				}
			],
			"stateMutability": "view",
			"type": "function"
		},
		{
			"inputs": [],
			"name": "getRoll",
			"outputs": [
				{
					"internalType": "uint256",
					"name": "",
					"type": "uint256"
				}
			],
			"stateMutability": "view",
			"type": "function"
		},
		{
			"inputs": [],
			"name": "getter",
			"outputs": [
				{
					"components": [
						{
							"internalType": "string",
							"name": "name",
							"type": "string"
						},
						{
							"internalType": "uint256",
							"name": "roll",
							"type": "uint256"
						},
						{
							"internalType": "bool",
							"name": "pass",
							"type": "bool"
						}
					],
					"internalType": "struct Struct.Student",
					"name": "",
					"type": "tuple"
				}
			],
			"stateMutability": "view",
			"type": "function"
		},
		{
			"inputs": [
				{
					"internalType": "string",
					"name": "_name",
					"type": "string"
				},
				{
					"internalType": "uint256",
					"name": "_roll",
					"type": "uint256"
				},
				{
					"internalType": "bool",
					"name": "_pass",
					"type": "bool"
				}
			],
			"name": "insert",
			"outputs": [],
			"stateMutability": "nonpayable",
			"type": "function"
		},
		{
			"inputs": [],
			"name": "studentDetails",
			"outputs": [
				{
					"internalType": "string",
					"name": "name",
					"type": "string"
				},
				{
					"internalType": "uint256",
					"name": "roll",
					"type": "uint256"
				},
				{
					"internalType": "bool",
					"name": "pass",
					"type": "bool"
				}
			],
			"stateMutability": "view",
			"type": "function"
		}
	]
}